{
	"src/kbru.sol": {
		"Kbru": {
			"abi": [
				{
					"inputs": [],
					"stateMutability": "nonpayable",
					"type": "constructor"
				},
				{
					"anonymous": false,
					"inputs": [
						{
							"indexed": true,
							"internalType": "address",
							"name": "owner",
							"type": "address"
						},
						{
							"indexed": true,
							"internalType": "address",
							"name": "spender",
							"type": "address"
						},
						{
							"indexed": false,
							"internalType": "uint256",
							"name": "value",
							"type": "uint256"
						}
					],
					"name": "Approval",
					"type": "event"
				},
				{
					"anonymous": false,
					"inputs": [
						{
							"indexed": false,
							"internalType": "address",
							"name": "debugAddress",
							"type": "address"
						}
					],
					"name": "DebugAddress",
					"type": "event"
				},
				{
					"anonymous": false,
					"inputs": [
						{
							"indexed": false,
							"internalType": "uint256",
							"name": "debugInt",
							"type": "uint256"
						}
					],
					"name": "DebugUint",
					"type": "event"
				},
				{
					"anonymous": false,
					"inputs": [
						{
							"indexed": false,
							"internalType": "address",
							"name": "from",
							"type": "address"
						},
						{
							"indexed": false,
							"internalType": "address[]",
							"name": "to",
							"type": "address[]"
						},
						{
							"indexed": false,
							"internalType": "uint256",
							"name": "value",
							"type": "uint256"
						}
					],
					"name": "MultiSendToken",
					"type": "event"
				},
				{
					"anonymous": false,
					"inputs": [
						{
							"indexed": false,
							"internalType": "address",
							"name": "from",
							"type": "address"
						},
						{
							"indexed": false,
							"internalType": "address",
							"name": "to",
							"type": "address"
						},
						{
							"indexed": false,
							"internalType": "uint256",
							"name": "value",
							"type": "uint256"
						}
					],
					"name": "SendToken",
					"type": "event"
				},
				{
					"anonymous": false,
					"inputs": [
						{
							"indexed": true,
							"internalType": "address",
							"name": "from",
							"type": "address"
						},
						{
							"indexed": true,
							"internalType": "address",
							"name": "to",
							"type": "address"
						},
						{
							"indexed": false,
							"internalType": "uint256",
							"name": "value",
							"type": "uint256"
						}
					],
					"name": "Transfer",
					"type": "event"
				},
				{
					"inputs": [
						{
							"internalType": "address",
							"name": "owner",
							"type": "address"
						},
						{
							"internalType": "address",
							"name": "spender",
							"type": "address"
						}
					],
					"name": "allowance",
					"outputs": [
						{
							"internalType": "uint256",
							"name": "",
							"type": "uint256"
						}
					],
					"stateMutability": "view",
					"type": "function"
				},
				{
					"inputs": [
						{
							"internalType": "address",
							"name": "spender",
							"type": "address"
						},
						{
							"internalType": "uint256",
							"name": "amount",
							"type": "uint256"
						}
					],
					"name": "approve",
					"outputs": [
						{
							"internalType": "bool",
							"name": "",
							"type": "bool"
						}
					],
					"stateMutability": "nonpayable",
					"type": "function"
				},
				{
					"inputs": [
						{
							"internalType": "address",
							"name": "account",
							"type": "address"
						}
					],
					"name": "balanceOf",
					"outputs": [
						{
							"internalType": "uint256",
							"name": "",
							"type": "uint256"
						}
					],
					"stateMutability": "view",
					"type": "function"
				},
				{
					"inputs": [],
					"name": "decimals",
					"outputs": [
						{
							"internalType": "uint8",
							"name": "",
							"type": "uint8"
						}
					],
					"stateMutability": "view",
					"type": "function"
				},
				{
					"inputs": [
						{
							"internalType": "address",
							"name": "spender",
							"type": "address"
						},
						{
							"internalType": "uint256",
							"name": "subtractedValue",
							"type": "uint256"
						}
					],
					"name": "decreaseAllowance",
					"outputs": [
						{
							"internalType": "bool",
							"name": "",
							"type": "bool"
						}
					],
					"stateMutability": "nonpayable",
					"type": "function"
				},
				{
					"inputs": [
						{
							"internalType": "address",
							"name": "spender",
							"type": "address"
						},
						{
							"internalType": "uint256",
							"name": "addedValue",
							"type": "uint256"
						}
					],
					"name": "increaseAllowance",
					"outputs": [
						{
							"internalType": "bool",
							"name": "",
							"type": "bool"
						}
					],
					"stateMutability": "nonpayable",
					"type": "function"
				},
				{
					"inputs": [
						{
							"internalType": "uint256",
							"name": "amount",
							"type": "uint256"
						}
					],
					"name": "mint",
					"outputs": [],
					"stateMutability": "nonpayable",
					"type": "function"
				},
				{
					"inputs": [],
					"name": "minter",
					"outputs": [
						{
							"internalType": "address",
							"name": "",
							"type": "address"
						}
					],
					"stateMutability": "view",
					"type": "function"
				},
				{
					"inputs": [
						{
							"internalType": "address[]",
							"name": "receivers",
							"type": "address[]"
						},
						{
							"internalType": "uint256",
							"name": "amount",
							"type": "uint256"
						}
					],
					"name": "multiSafeTransfer",
					"outputs": [],
					"stateMutability": "nonpayable",
					"type": "function"
				},
				{
					"inputs": [],
					"name": "name",
					"outputs": [
						{
							"internalType": "string",
							"name": "",
							"type": "string"
						}
					],
					"stateMutability": "view",
					"type": "function"
				},
				{
					"inputs": [
						{
							"internalType": "address",
							"name": "account",
							"type": "address"
						}
					],
					"name": "sendAmountOf",
					"outputs": [
						{
							"internalType": "uint256",
							"name": "",
							"type": "uint256"
						}
					],
					"stateMutability": "view",
					"type": "function"
				},
				{
					"inputs": [],
					"name": "symbol",
					"outputs": [
						{
							"internalType": "string",
							"name": "",
							"type": "string"
						}
					],
					"stateMutability": "view",
					"type": "function"
				},
				{
					"inputs": [],
					"name": "totalSupply",
					"outputs": [
						{
							"internalType": "uint256",
							"name": "",
							"type": "uint256"
						}
					],
					"stateMutability": "view",
					"type": "function"
				},
				{
					"inputs": [
						{
							"internalType": "address",
							"name": "to",
							"type": "address"
						},
						{
							"internalType": "uint256",
							"name": "amount",
							"type": "uint256"
						}
					],
					"name": "transfer",
					"outputs": [
						{
							"internalType": "bool",
							"name": "",
							"type": "bool"
						}
					],
					"stateMutability": "nonpayable",
					"type": "function"
				},
				{
					"inputs": [
						{
							"internalType": "address",
							"name": "from",
							"type": "address"
						},
						{
							"internalType": "address",
							"name": "to",
							"type": "address"
						},
						{
							"internalType": "uint256",
							"name": "amount",
							"type": "uint256"
						}
					],
					"name": "transferFrom",
					"outputs": [
						{
							"internalType": "bool",
							"name": "",
							"type": "bool"
						}
					],
					"stateMutability": "nonpayable",
					"type": "function"
				},
				{
					"inputs": [
						{
							"internalType": "address",
							"name": "to",
							"type": "address"
						},
						{
							"internalType": "uint256",
							"name": "amount",
							"type": "uint256"
						}
					],
					"name": "transferKbru",
					"outputs": [
						{
							"internalType": "bool",
							"name": "",
							"type": "bool"
						}
					],
					"stateMutability": "nonpayable",
					"type": "function"
				}
			],
			"devdoc": {
				"kind": "dev",
				"methods": {
					"allowance(address,address)": {
						"details": "See {IERC20-allowance}."
					},
					"approve(address,uint256)": {
						"details": "See {IERC20-approve}. NOTE: If `amount` is the maximum `uint256`, the allowance is not updated on `transferFrom`. This is semantically equivalent to an infinite approval. Requirements: - `spender` cannot be the zero address."
					},
					"balanceOf(address)": {
						"details": "See {IERC20-balanceOf}."
					},
					"decimals()": {
						"details": "Returns the number of decimals used to get its user representation. For example, if `decimals` equals `2`, a balance of `505` tokens should be displayed to a user as `5.05` (`505 / 10 ** 2`). Tokens usually opt for a value of 18, imitating the relationship between Ether and Wei. This is the value {ERC20} uses, unless this function is overridden; NOTE: This information is only used for _display_ purposes: it in no way affects any of the arithmetic of the contract, including {IERC20-balanceOf} and {IERC20-transfer}."
					},
					"decreaseAllowance(address,uint256)": {
						"details": "Atomically decreases the allowance granted to `spender` by the caller. This is an alternative to {approve} that can be used as a mitigation for problems described in {IERC20-approve}. Emits an {Approval} event indicating the updated allowance. Requirements: - `spender` cannot be the zero address. - `spender` must have allowance for the caller of at least `subtractedValue`."
					},
					"increaseAllowance(address,uint256)": {
						"details": "Atomically increases the allowance granted to `spender` by the caller. This is an alternative to {approve} that can be used as a mitigation for problems described in {IERC20-approve}. Emits an {Approval} event indicating the updated allowance. Requirements: - `spender` cannot be the zero address."
					},
					"name()": {
						"details": "Returns the name of the token."
					},
					"symbol()": {
						"details": "Returns the symbol of the token, usually a shorter version of the name."
					},
					"totalSupply()": {
						"details": "See {IERC20-totalSupply}."
					},
					"transfer(address,uint256)": {
						"details": "See {IERC20-transfer}. Requirements: - `to` cannot be the zero address. - the caller must have a balance of at least `amount`."
					},
					"transferFrom(address,address,uint256)": {
						"details": "See {IERC20-transferFrom}. Emits an {Approval} event indicating the updated allowance. This is not required by the EIP. See the note at the beginning of {ERC20}. NOTE: Does not update the allowance if the current allowance is the maximum `uint256`. Requirements: - `from` and `to` cannot be the zero address. - `from` must have a balance of at least `amount`. - the caller must have allowance for ``from``'s tokens of at least `amount`."
					}
				},
				"version": 1
			},
			"evm": {
				"assembly": "    /* \"src/kbru.sol\":202:1944  contract Kbru is ERC20 {... */\n  mstore(0x40, 0x80)\n    /* \"src/kbru.sol\":528:671  constructor() ERC20(\"Kbru Token\", \"KBRU\") {... */\n  callvalue\n  dup1\n  iszero\n  tag_1\n  jumpi\n  0x00\n  dup1\n  revert\ntag_1:\n  pop\n    /* \"https://github.com/OpenZeppelin/openzeppelin-contracts/blob/52eeebecda140ebaf4ec8752ed119d8288287fac/contracts/token/ERC20/ERC20.sol\":1978:2091  constructor(string memory name_, string memory symbol_) {... */\n  mload(0x40)\n  dup1\n  0x40\n  add\n  0x40\n  mstore\n  dup1\n  0x0a\n  dup2\n  mstore\n  0x20\n  add\n  0x4b62727520546f6b656e00000000000000000000000000000000000000000000\n  dup2\n  mstore\n  pop\n  mload(0x40)\n  dup1\n  0x40\n  add\n  0x40\n  mstore\n  dup1\n  0x04\n  dup2\n  mstore\n  0x20\n  add\n  0x4b42525500000000000000000000000000000000000000000000000000000000\n  dup2\n  mstore\n  pop\n    /* \"https://github.com/OpenZeppelin/openzeppelin-contracts/blob/52eeebecda140ebaf4ec8752ed119d8288287fac/contracts/token/ERC20/ERC20.sol\":2052:2057  name_ */\n  dup2\n    /* \"https://github.com/OpenZeppelin/openzeppelin-contracts/blob/52eeebecda140ebaf4ec8752ed119d8288287fac/contracts/token/ERC20/ERC20.sol\":2044:2049  _name */\n  0x03\n    /* \"https://github.com/OpenZeppelin/openzeppelin-contracts/blob/52eeebecda140ebaf4ec8752ed119d8288287fac/contracts/token/ERC20/ERC20.sol\":2044:2057  _name = name_ */\n  swap1\n  dup1\n  mload\n  swap1\n  0x20\n  add\n  swap1\n  tag_5\n  swap3\n  swap2\n  swap1\n  tag_6\n  jump\t// in\ntag_5:\n  pop\n    /* \"https://github.com/OpenZeppelin/openzeppelin-contracts/blob/52eeebecda140ebaf4ec8752ed119d8288287fac/contracts/token/ERC20/ERC20.sol\":2077:2084  symbol_ */\n  dup1\n    /* \"https://github.com/OpenZeppelin/openzeppelin-contracts/blob/52eeebecda140ebaf4ec8752ed119d8288287fac/contracts/token/ERC20/ERC20.sol\":2067:2074  _symbol */\n  0x04\n    /* \"https://github.com/OpenZeppelin/openzeppelin-contracts/blob/52eeebecda140ebaf4ec8752ed119d8288287fac/contracts/token/ERC20/ERC20.sol\":2067:2084  _symbol = symbol_ */\n  swap1\n  dup1\n  mload\n  swap1\n  0x20\n  add\n  swap1\n  tag_7\n  swap3\n  swap2\n  swap1\n  tag_6\n  jump\t// in\ntag_7:\n  pop\n    /* \"https://github.com/OpenZeppelin/openzeppelin-contracts/blob/52eeebecda140ebaf4ec8752ed119d8288287fac/contracts/token/ERC20/ERC20.sol\":1978:2091  constructor(string memory name_, string memory symbol_) {... */\n  pop\n  pop\n    /* \"src/kbru.sol\":580:616  _mint(msg.sender, 10000000 * 10**18) */\n  tag_9\n    /* \"src/kbru.sol\":586:596  msg.sender */\n  caller\n    /* \"src/kbru.sol\":598:615  10000000 * 10**18 */\n  0x084595161401484a000000\n    /* \"src/kbru.sol\":580:585  _mint */\n  shl(0x20, tag_10)\n    /* \"src/kbru.sol\":580:616  _mint(msg.sender, 10000000 * 10**18) */\n  0x20\n  shr\n  jump\t// in\ntag_9:\n    /* \"src/kbru.sol\":654:664  msg.sender */\n  caller\n    /* \"src/kbru.sol\":645:651  minter */\n  0x05\n  0x00\n    /* \"src/kbru.sol\":645:664  minter = msg.sender */\n  0x0100\n  exp\n  dup2\n  sload\n  dup2\n  0xffffffffffffffffffffffffffffffffffffffff\n  mul\n  not\n  and\n  swap1\n  dup4\n  0xffffffffffffffffffffffffffffffffffffffff\n  and\n  mul\n  or\n  swap1\n  sstore\n  pop\n    /* \"src/kbru.sol\":202:1944  contract Kbru is ERC20 {... */\n  jump(tag_11)\n    /* \"https://github.com/OpenZeppelin/openzeppelin-contracts/blob/52eeebecda140ebaf4ec8752ed119d8288287fac/contracts/token/ERC20/ERC20.sol\":8411:8800  function _mint(address account, uint256 amount) internal virtual {... */\ntag_10:\n    /* \"https://github.com/OpenZeppelin/openzeppelin-contracts/blob/52eeebecda140ebaf4ec8752ed119d8288287fac/contracts/token/ERC20/ERC20.sol\":8513:8514  0 */\n  0x00\n    /* \"https://github.com/OpenZeppelin/openzeppelin-contracts/blob/52eeebecda140ebaf4ec8752ed119d8288287fac/contracts/token/ERC20/ERC20.sol\":8494:8515  account != address(0) */\n  0xffffffffffffffffffffffffffffffffffffffff\n  and\n    /* \"https://github.com/OpenZeppelin/openzeppelin-contracts/blob/52eeebecda140ebaf4ec8752ed119d8288287fac/contracts/token/ERC20/ERC20.sol\":8494:8501  account */\n  dup3\n    /* \"https://github.com/OpenZeppelin/openzeppelin-contracts/blob/52eeebecda140ebaf4ec8752ed119d8288287fac/contracts/token/ERC20/ERC20.sol\":8494:8515  account != address(0) */\n  0xffffffffffffffffffffffffffffffffffffffff\n  and\n  eq\n  iszero\n    /* \"https://github.com/OpenZeppelin/openzeppelin-contracts/blob/52eeebecda140ebaf4ec8752ed119d8288287fac/contracts/token/ERC20/ERC20.sol\":8486:8551  require(account != address(0), \"ERC20: mint to the zero address\") */\n  tag_13\n  jumpi\n  mload(0x40)\n  0x08c379a000000000000000000000000000000000000000000000000000000000\n  dup2\n  mstore\n  0x04\n  add\n  tag_14\n  swap1\n  tag_15\n  jump\t// in\ntag_14:\n  mload(0x40)\n  dup1\n  swap2\n  sub\n  swap1\n  revert\ntag_13:\n    /* \"https://github.com/OpenZeppelin/openzeppelin-contracts/blob/52eeebecda140ebaf4ec8752ed119d8288287fac/contracts/token/ERC20/ERC20.sol\":8562:8611  _beforeTokenTransfer(address(0), account, amount) */\n  tag_16\n    /* \"https://github.com/OpenZeppelin/openzeppelin-contracts/blob/52eeebecda140ebaf4ec8752ed119d8288287fac/contracts/token/ERC20/ERC20.sol\":8591:8592  0 */\n  0x00\n    /* \"https://github.com/OpenZeppelin/openzeppelin-contracts/blob/52eeebecda140ebaf4ec8752ed119d8288287fac/contracts/token/ERC20/ERC20.sol\":8595:8602  account */\n  dup4\n    /* \"https://github.com/OpenZeppelin/openzeppelin-contracts/blob/52eeebecda140ebaf4ec8752ed119d8288287fac/contracts/token/ERC20/ERC20.sol\":8604:8610  amount */\n  dup4\n    /* \"https://github.com/OpenZeppelin/openzeppelin-contracts/blob/52eeebecda140ebaf4ec8752ed119d8288287fac/contracts/token/ERC20/ERC20.sol\":8562:8582  _beforeTokenTransfer */\n  shl(0x20, tag_17)\n    /* \"https://github.com/OpenZeppelin/openzeppelin-contracts/blob/52eeebecda140ebaf4ec8752ed119d8288287fac/contracts/token/ERC20/ERC20.sol\":8562:8611  _beforeTokenTransfer(address(0), account, amount) */\n  0x20\n  shr\n  jump\t// in\ntag_16:\n    /* \"https://github.com/OpenZeppelin/openzeppelin-contracts/blob/52eeebecda140ebaf4ec8752ed119d8288287fac/contracts/token/ERC20/ERC20.sol\":8638:8644  amount */\n  dup1\n    /* \"https://github.com/OpenZeppelin/openzeppelin-contracts/blob/52eeebecda140ebaf4ec8752ed119d8288287fac/contracts/token/ERC20/ERC20.sol\":8622:8634  _totalSupply */\n  0x02\n  0x00\n    /* \"https://github.com/OpenZeppelin/openzeppelin-contracts/blob/52eeebecda140ebaf4ec8752ed119d8288287fac/contracts/token/ERC20/ERC20.sol\":8622:8644  _totalSupply += amount */\n  dup3\n  dup3\n  sload\n  tag_18\n  swap2\n  swap1\n  tag_19\n  jump\t// in\ntag_18:\n  swap3\n  pop\n  pop\n  dup2\n  swap1\n  sstore\n  pop\n    /* \"https://github.com/OpenZeppelin/openzeppelin-contracts/blob/52eeebecda140ebaf4ec8752ed119d8288287fac/contracts/token/ERC20/ERC20.sol\":8676:8682  amount */\n  dup1\n    /* \"https://github.com/OpenZeppelin/openzeppelin-contracts/blob/52eeebecda140ebaf4ec8752ed119d8288287fac/contracts/token/ERC20/ERC20.sol\":8654:8663  _balances */\n  0x00\n    /* \"https://github.com/OpenZeppelin/openzeppelin-contracts/blob/52eeebecda140ebaf4ec8752ed119d8288287fac/contracts/token/ERC20/ERC20.sol\":8654:8672  _balances[account] */\n  dup1\n    /* \"https://github.com/OpenZeppelin/openzeppelin-contracts/blob/52eeebecda140ebaf4ec8752ed119d8288287fac/contracts/token/ERC20/ERC20.sol\":8664:8671  account */\n  dup5\n    /* \"https://github.com/OpenZeppelin/openzeppelin-contracts/blob/52eeebecda140ebaf4ec8752ed119d8288287fac/contracts/token/ERC20/ERC20.sol\":8654:8672  _balances[account] */\n  0xffffffffffffffffffffffffffffffffffffffff\n  and\n  0xffffffffffffffffffffffffffffffffffffffff\n  and\n  dup2\n  mstore\n  0x20\n  add\n  swap1\n  dup2\n  mstore\n  0x20\n  add\n  0x00\n  keccak256\n  0x00\n    /* \"https://github.com/OpenZeppelin/openzeppelin-contracts/blob/52eeebecda140ebaf4ec8752ed119d8288287fac/contracts/token/ERC20/ERC20.sol\":8654:8682  _balances[account] += amount */\n  dup3\n  dup3\n  sload\n  tag_20\n  swap2\n  swap1\n  tag_19\n  jump\t// in\ntag_20:\n  swap3\n  pop\n  pop\n  dup2\n  swap1\n  sstore\n  pop\n    /* \"https://github.com/OpenZeppelin/openzeppelin-contracts/blob/52eeebecda140ebaf4ec8752ed119d8288287fac/contracts/token/ERC20/ERC20.sol\":8718:8725  account */\n  dup2\n    /* \"https://github.com/OpenZeppelin/openzeppelin-contracts/blob/52eeebecda140ebaf4ec8752ed119d8288287fac/contracts/token/ERC20/ERC20.sol\":8697:8734  Transfer(address(0), account, amount) */\n  0xffffffffffffffffffffffffffffffffffffffff\n  and\n    /* \"https://github.com/OpenZeppelin/openzeppelin-contracts/blob/52eeebecda140ebaf4ec8752ed119d8288287fac/contracts/token/ERC20/ERC20.sol\":8714:8715  0 */\n  0x00\n    /* \"https://github.com/OpenZeppelin/openzeppelin-contracts/blob/52eeebecda140ebaf4ec8752ed119d8288287fac/contracts/token/ERC20/ERC20.sol\":8697:8734  Transfer(address(0), account, amount) */\n  0xffffffffffffffffffffffffffffffffffffffff\n  and\n  0xddf252ad1be2c89b69c2b068fc378daa952ba7f163c4a11628f55a4df523b3ef\n    /* \"https://github.com/OpenZeppelin/openzeppelin-contracts/blob/52eeebecda140ebaf4ec8752ed119d8288287fac/contracts/token/ERC20/ERC20.sol\":8727:8733  amount */\n  dup4\n    /* \"https://github.com/OpenZeppelin/openzeppelin-contracts/blob/52eeebecda140ebaf4ec8752ed119d8288287fac/contracts/token/ERC20/ERC20.sol\":8697:8734  Transfer(address(0), account, amount) */\n  mload(0x40)\n  tag_21\n  swap2\n  swap1\n  tag_22\n  jump\t// in\ntag_21:\n  mload(0x40)\n  dup1\n  swap2\n  sub\n  swap1\n  log3\n    /* \"https://github.com/OpenZeppelin/openzeppelin-contracts/blob/52eeebecda140ebaf4ec8752ed119d8288287fac/contracts/token/ERC20/ERC20.sol\":8745:8793  _afterTokenTransfer(address(0), account, amount) */\n  tag_23\n    /* \"https://github.com/OpenZeppelin/openzeppelin-contracts/blob/52eeebecda140ebaf4ec8752ed119d8288287fac/contracts/token/ERC20/ERC20.sol\":8773:8774  0 */\n  0x00\n    /* \"https://github.com/OpenZeppelin/openzeppelin-contracts/blob/52eeebecda140ebaf4ec8752ed119d8288287fac/contracts/token/ERC20/ERC20.sol\":8777:8784  account */\n  dup4\n    /* \"https://github.com/OpenZeppelin/openzeppelin-contracts/blob/52eeebecda140ebaf4ec8752ed119d8288287fac/contracts/token/ERC20/ERC20.sol\":8786:8792  amount */\n  dup4\n    /* \"https://github.com/OpenZeppelin/openzeppelin-contracts/blob/52eeebecda140ebaf4ec8752ed119d8288287fac/contracts/token/ERC20/ERC20.sol\":8745:8764  _afterTokenTransfer */\n  shl(0x20, tag_24)\n    /* \"https://github.com/OpenZeppelin/openzeppelin-contracts/blob/52eeebecda140ebaf4ec8752ed119d8288287fac/contracts/token/ERC20/ERC20.sol\":8745:8793  _afterTokenTransfer(address(0), account, amount) */\n  0x20\n  shr\n  jump\t// in\ntag_23:\n    /* \"https://github.com/OpenZeppelin/openzeppelin-contracts/blob/52eeebecda140ebaf4ec8752ed119d8288287fac/contracts/token/ERC20/ERC20.sol\":8411:8800  function _mint(address account, uint256 amount) internal virtual {... */\n  pop\n  pop\n  jump\t// out\n    /* \"https://github.com/OpenZeppelin/openzeppelin-contracts/blob/52eeebecda140ebaf4ec8752ed119d8288287fac/contracts/token/ERC20/ERC20.sol\":11795:11916  function _beforeTokenTransfer(... */\ntag_17:\n  pop\n  pop\n  pop\n  jump\t// out\n    /* \"https://github.com/OpenZeppelin/openzeppelin-contracts/blob/52eeebecda140ebaf4ec8752ed119d8288287fac/contracts/token/ERC20/ERC20.sol\":12504:12624  function _afterTokenTransfer(... */\ntag_24:\n  pop\n  pop\n  pop\n  jump\t// out\n    /* \"src/kbru.sol\":202:1944  contract Kbru is ERC20 {... */\ntag_6:\n  dup3\n  dup1\n  sload\n  tag_27\n  swap1\n  tag_28\n  jump\t// in\ntag_27:\n  swap1\n  0x00\n  mstore\n  keccak256(0x00, 0x20)\n  swap1\n  0x1f\n  add\n  0x20\n  swap1\n  div\n  dup2\n  add\n  swap3\n  dup3\n  tag_30\n  jumpi\n  0x00\n  dup6\n  sstore\n  jump(tag_29)\ntag_30:\n  dup3\n  0x1f\n  lt\n  tag_31\n  jumpi\n  dup1\n  mload\n  not(0xff)\n  and\n  dup4\n  dup1\n  add\n  or\n  dup6\n  sstore\n  jump(tag_29)\ntag_31:\n  dup3\n  dup1\n  add\n  0x01\n  add\n  dup6\n  sstore\n  dup3\n  iszero\n  tag_29\n  jumpi\n  swap2\n  dup3\n  add\ntag_32:\n  dup3\n  dup2\n  gt\n  iszero\n  tag_33\n  jumpi\n  dup3\n  mload\n  dup3\n  sstore\n  swap2\n  0x20\n  add\n  swap2\n  swap1\n  0x01\n  add\n  swap1\n  jump(tag_32)\ntag_33:\ntag_29:\n  pop\n  swap1\n  pop\n  tag_34\n  swap2\n  swap1\n  tag_35\n  jump\t// in\ntag_34:\n  pop\n  swap1\n  jump\t// out\ntag_35:\ntag_36:\n  dup1\n  dup3\n  gt\n  iszero\n  tag_37\n  jumpi\n  0x00\n  dup2\n  0x00\n  swap1\n  sstore\n  pop\n  0x01\n  add\n  jump(tag_36)\ntag_37:\n  pop\n  swap1\n  jump\t// out\n    /* \"#utility.yul\":7:373   */\ntag_39:\n    /* \"#utility.yul\":149:152   */\n  0x00\n    /* \"#utility.yul\":170:237   */\n  tag_41\n    /* \"#utility.yul\":234:236   */\n  0x1f\n    /* \"#utility.yul\":229:232   */\n  dup4\n    /* \"#utility.yul\":170:237   */\n  tag_42\n  jump\t// in\ntag_41:\n    /* \"#utility.yul\":163:237   */\n  swap2\n  pop\n    /* \"#utility.yul\":246:339   */\n  tag_43\n    /* \"#utility.yul\":335:338   */\n  dup3\n    /* \"#utility.yul\":246:339   */\n  tag_44\n  jump\t// in\ntag_43:\n    /* \"#utility.yul\":364:366   */\n  0x20\n    /* \"#utility.yul\":359:362   */\n  dup3\n    /* \"#utility.yul\":355:367   */\n  add\n    /* \"#utility.yul\":348:367   */\n  swap1\n  pop\n    /* \"#utility.yul\":7:373   */\n  swap2\n  swap1\n  pop\n  jump\t// out\n    /* \"#utility.yul\":379:497   */\ntag_45:\n    /* \"#utility.yul\":466:490   */\n  tag_47\n    /* \"#utility.yul\":484:489   */\n  dup2\n    /* \"#utility.yul\":466:490   */\n  tag_48\n  jump\t// in\ntag_47:\n    /* \"#utility.yul\":461:464   */\n  dup3\n    /* \"#utility.yul\":454:491   */\n  mstore\n    /* \"#utility.yul\":379:497   */\n  pop\n  pop\n  jump\t// out\n    /* \"#utility.yul\":503:922   */\ntag_15:\n    /* \"#utility.yul\":669:673   */\n  0x00\n    /* \"#utility.yul\":707:709   */\n  0x20\n    /* \"#utility.yul\":696:705   */\n  dup3\n    /* \"#utility.yul\":692:710   */\n  add\n    /* \"#utility.yul\":684:710   */\n  swap1\n  pop\n    /* \"#utility.yul\":756:765   */\n  dup2\n    /* \"#utility.yul\":750:754   */\n  dup2\n    /* \"#utility.yul\":746:766   */\n  sub\n    /* \"#utility.yul\":742:743   */\n  0x00\n    /* \"#utility.yul\":731:740   */\n  dup4\n    /* \"#utility.yul\":727:744   */\n  add\n    /* \"#utility.yul\":720:767   */\n  mstore\n    /* \"#utility.yul\":784:915   */\n  tag_50\n    /* \"#utility.yul\":910:914   */\n  dup2\n    /* \"#utility.yul\":784:915   */\n  tag_39\n  jump\t// in\ntag_50:\n    /* \"#utility.yul\":776:915   */\n  swap1\n  pop\n    /* \"#utility.yul\":503:922   */\n  swap2\n  swap1\n  pop\n  jump\t// out\n    /* \"#utility.yul\":928:1150   */\ntag_22:\n    /* \"#utility.yul\":1021:1025   */\n  0x00\n    /* \"#utility.yul\":1059:1061   */\n  0x20\n    /* \"#utility.yul\":1048:1057   */\n  dup3\n    /* \"#utility.yul\":1044:1062   */\n  add\n    /* \"#utility.yul\":1036:1062   */\n  swap1\n  pop\n    /* \"#utility.yul\":1072:1143   */\n  tag_52\n    /* \"#utility.yul\":1140:1141   */\n  0x00\n    /* \"#utility.yul\":1129:1138   */\n  dup4\n    /* \"#utility.yul\":1125:1142   */\n  add\n    /* \"#utility.yul\":1116:1122   */\n  dup5\n    /* \"#utility.yul\":1072:1143   */\n  tag_45\n  jump\t// in\ntag_52:\n    /* \"#utility.yul\":928:1150   */\n  swap3\n  swap2\n  pop\n  pop\n  jump\t// out\n    /* \"#utility.yul\":1156:1325   */\ntag_42:\n    /* \"#utility.yul\":1240:1251   */\n  0x00\n    /* \"#utility.yul\":1274:1280   */\n  dup3\n    /* \"#utility.yul\":1269:1272   */\n  dup3\n    /* \"#utility.yul\":1262:1281   */\n  mstore\n    /* \"#utility.yul\":1314:1318   */\n  0x20\n    /* \"#utility.yul\":1309:1312   */\n  dup3\n    /* \"#utility.yul\":1305:1319   */\n  add\n    /* \"#utility.yul\":1290:1319   */\n  swap1\n  pop\n    /* \"#utility.yul\":1156:1325   */\n  swap3\n  swap2\n  pop\n  pop\n  jump\t// out\n    /* \"#utility.yul\":1331:1636   */\ntag_19:\n    /* \"#utility.yul\":1371:1374   */\n  0x00\n    /* \"#utility.yul\":1390:1410   */\n  tag_55\n    /* \"#utility.yul\":1408:1409   */\n  dup3\n    /* \"#utility.yul\":1390:1410   */\n  tag_48\n  jump\t// in\ntag_55:\n    /* \"#utility.yul\":1385:1410   */\n  swap2\n  pop\n    /* \"#utility.yul\":1424:1444   */\n  tag_56\n    /* \"#utility.yul\":1442:1443   */\n  dup4\n    /* \"#utility.yul\":1424:1444   */\n  tag_48\n  jump\t// in\ntag_56:\n    /* \"#utility.yul\":1419:1444   */\n  swap3\n  pop\n    /* \"#utility.yul\":1578:1579   */\n  dup3\n    /* \"#utility.yul\":1510:1576   */\n  0xffffffffffffffffffffffffffffffffffffffffffffffffffffffffffffffff\n    /* \"#utility.yul\":1506:1580   */\n  sub\n    /* \"#utility.yul\":1503:1504   */\n  dup3\n    /* \"#utility.yul\":1500:1581   */\n  gt\n    /* \"#utility.yul\":1497:1604   */\n  iszero\n  tag_57\n  jumpi\n    /* \"#utility.yul\":1584:1602   */\n  tag_58\n  tag_59\n  jump\t// in\ntag_58:\n    /* \"#utility.yul\":1497:1604   */\ntag_57:\n    /* \"#utility.yul\":1628:1629   */\n  dup3\n    /* \"#utility.yul\":1625:1626   */\n  dup3\n    /* \"#utility.yul\":1621:1630   */\n  add\n    /* \"#utility.yul\":1614:1630   */\n  swap1\n  pop\n    /* \"#utility.yul\":1331:1636   */\n  swap3\n  swap2\n  pop\n  pop\n  jump\t// out\n    /* \"#utility.yul\":1642:1719   */\ntag_48:\n    /* \"#utility.yul\":1679:1686   */\n  0x00\n    /* \"#utility.yul\":1708:1713   */\n  dup2\n    /* \"#utility.yul\":1697:1713   */\n  swap1\n  pop\n    /* \"#utility.yul\":1642:1719   */\n  swap2\n  swap1\n  pop\n  jump\t// out\n    /* \"#utility.yul\":1725:2045   */\ntag_28:\n    /* \"#utility.yul\":1769:1775   */\n  0x00\n    /* \"#utility.yul\":1806:1807   */\n  0x02\n    /* \"#utility.yul\":1800:1804   */\n  dup3\n    /* \"#utility.yul\":1796:1808   */\n  div\n    /* \"#utility.yul\":1786:1808   */\n  swap1\n  pop\n    /* \"#utility.yul\":1853:1854   */\n  0x01\n    /* \"#utility.yul\":1847:1851   */\n  dup3\n    /* \"#utility.yul\":1843:1855   */\n  and\n    /* \"#utility.yul\":1874:1892   */\n  dup1\n    /* \"#utility.yul\":1864:1945   */\n  tag_62\n  jumpi\n    /* \"#utility.yul\":1930:1934   */\n  0x7f\n    /* \"#utility.yul\":1922:1928   */\n  dup3\n    /* \"#utility.yul\":1918:1935   */\n  and\n    /* \"#utility.yul\":1908:1935   */\n  swap2\n  pop\n    /* \"#utility.yul\":1864:1945   */\ntag_62:\n    /* \"#utility.yul\":1992:1994   */\n  0x20\n    /* \"#utility.yul\":1984:1990   */\n  dup3\n    /* \"#utility.yul\":1981:1995   */\n  lt\n    /* \"#utility.yul\":1961:1979   */\n  dup2\n    /* \"#utility.yul\":1958:1996   */\n  eq\n    /* \"#utility.yul\":1955:2039   */\n  iszero\n  tag_63\n  jumpi\n    /* \"#utility.yul\":2011:2029   */\n  tag_64\n  tag_65\n  jump\t// in\ntag_64:\n    /* \"#utility.yul\":1955:2039   */\ntag_63:\n    /* \"#utility.yul\":1776:2045   */\n  pop\n    /* \"#utility.yul\":1725:2045   */\n  swap2\n  swap1\n  pop\n  jump\t// out\n    /* \"#utility.yul\":2051:2231   */\ntag_59:\n    /* \"#utility.yul\":2099:2176   */\n  0x4e487b7100000000000000000000000000000000000000000000000000000000\n    /* \"#utility.yul\":2096:2097   */\n  0x00\n    /* \"#utility.yul\":2089:2177   */\n  mstore\n    /* \"#utility.yul\":2196:2200   */\n  0x11\n    /* \"#utility.yul\":2193:2194   */\n  0x04\n    /* \"#utility.yul\":2186:2201   */\n  mstore\n    /* \"#utility.yul\":2220:2224   */\n  0x24\n    /* \"#utility.yul\":2217:2218   */\n  0x00\n    /* \"#utility.yul\":2210:2225   */\n  revert\n    /* \"#utility.yul\":2237:2417   */\ntag_65:\n    /* \"#utility.yul\":2285:2362   */\n  0x4e487b7100000000000000000000000000000000000000000000000000000000\n    /* \"#utility.yul\":2282:2283   */\n  0x00\n    /* \"#utility.yul\":2275:2363   */\n  mstore\n    /* \"#utility.yul\":2382:2386   */\n  0x22\n    /* \"#utility.yul\":2379:2380   */\n  0x04\n    /* \"#utility.yul\":2372:2387   */\n  mstore\n    /* \"#utility.yul\":2406:2410   */\n  0x24\n    /* \"#utility.yul\":2403:2404   */\n  0x00\n    /* \"#utility.yul\":2396:2411   */\n  revert\n    /* \"#utility.yul\":2423:2604   */\ntag_44:\n    /* \"#utility.yul\":2563:2596   */\n  0x45524332303a206d696e7420746f20746865207a65726f206164647265737300\n    /* \"#utility.yul\":2559:2560   */\n  0x00\n    /* \"#utility.yul\":2551:2557   */\n  dup3\n    /* \"#utility.yul\":2547:2561   */\n  add\n    /* \"#utility.yul\":2540:2597   */\n  mstore\n    /* \"#utility.yul\":2423:2604   */\n  pop\n  jump\t// out\n    /* \"src/kbru.sol\":202:1944  contract Kbru is ERC20 {... */\ntag_11:\n  dataSize(sub_0)\n  dup1\n  dataOffset(sub_0)\n  0x00\n  codecopy\n  0x00\n  return\nstop\n\nsub_0: assembly {\n        /* \"src/kbru.sol\":202:1944  contract Kbru is ERC20 {... */\n      mstore(0x40, 0x80)\n      callvalue\n      dup1\n      iszero\n      tag_1\n      jumpi\n      0x00\n      dup1\n      revert\n    tag_1:\n      pop\n      jumpi(tag_2, lt(calldatasize, 0x04))\n      shr(0xe0, calldataload(0x00))\n      dup1\n      0x39509351\n      gt\n      tag_19\n      jumpi\n      dup1\n      0xa0712d68\n      gt\n      tag_20\n      jumpi\n      dup1\n      0xa0712d68\n      eq\n      tag_15\n      jumpi\n      dup1\n      0xa457c2d7\n      eq\n      tag_16\n      jumpi\n      dup1\n      0xa9059cbb\n      eq\n      tag_17\n      jumpi\n      dup1\n      0xdd62ed3e\n      eq\n      tag_18\n      jumpi\n      jump(tag_2)\n    tag_20:\n      dup1\n      0x39509351\n      eq\n      tag_11\n      jumpi\n      dup1\n      0x70a08231\n      eq\n      tag_12\n      jumpi\n      dup1\n      0x75e0c4b2\n      eq\n      tag_13\n      jumpi\n      dup1\n      0x95d89b41\n      eq\n      tag_14\n      jumpi\n      jump(tag_2)\n    tag_19:\n      dup1\n      0x149527dd\n      gt\n      tag_21\n      jumpi\n      dup1\n      0x149527dd\n      eq\n      tag_7\n      jumpi\n      dup1\n      0x18160ddd\n      eq\n      tag_8\n      jumpi\n      dup1\n      0x23b872dd\n      eq\n      tag_9\n      jumpi\n      dup1\n      0x313ce567\n      eq\n      tag_10\n      jumpi\n      jump(tag_2)\n    tag_21:\n      dup1\n      0x045191e1\n      eq\n      tag_3\n      jumpi\n      dup1\n      0x06fdde03\n      eq\n      tag_4\n      jumpi\n      dup1\n      0x07546172\n      eq\n      tag_5\n      jumpi\n      dup1\n      0x095ea7b3\n      eq\n      tag_6\n      jumpi\n    tag_2:\n      0x00\n      dup1\n      revert\n        /* \"src/kbru.sol\":912:1348  function multiSafeTransfer(address[] calldata receivers, uint amount) public {... */\n    tag_3:\n      tag_22\n      0x04\n      dup1\n      calldatasize\n      sub\n      dup2\n      add\n      swap1\n      tag_23\n      swap2\n      swap1\n      tag_24\n      jump\t// in\n    tag_23:\n      tag_25\n      jump\t// in\n    tag_22:\n      stop\n        /* \"https://github.com/OpenZeppelin/openzeppelin-contracts/blob/52eeebecda140ebaf4ec8752ed119d8288287fac/contracts/token/ERC20/ERC20.sol\":2156:2254  function name() public view virtual override returns (string memory) {... */\n    tag_4:\n      tag_26\n      tag_27\n      jump\t// in\n    tag_26:\n      mload(0x40)\n      tag_28\n      swap2\n      swap1\n      tag_29\n      jump\t// in\n    tag_28:\n      mload(0x40)\n      dup1\n      swap2\n      sub\n      swap1\n      return\n        /* \"src/kbru.sol\":232:253  address public minter */\n    tag_5:\n      tag_30\n      tag_31\n      jump\t// in\n    tag_30:\n      mload(0x40)\n      tag_32\n      swap2\n      swap1\n      tag_33\n      jump\t// in\n    tag_32:\n      mload(0x40)\n      dup1\n      swap2\n      sub\n      swap1\n      return\n        /* \"https://github.com/OpenZeppelin/openzeppelin-contracts/blob/52eeebecda140ebaf4ec8752ed119d8288287fac/contracts/token/ERC20/ERC20.sol\":4433:4630  function approve(address spender, uint256 amount) public virtual override returns (bool) {... */\n    tag_6:\n      tag_34\n      0x04\n      dup1\n      calldatasize\n      sub\n      dup2\n      add\n      swap1\n      tag_35\n      swap2\n      swap1\n      tag_36\n      jump\t// in\n    tag_35:\n      tag_37\n      jump\t// in\n    tag_34:\n      mload(0x40)\n      tag_38\n      swap2\n      swap1\n      tag_39\n      jump\t// in\n    tag_38:\n      mload(0x40)\n      dup1\n      swap2\n      sub\n      swap1\n      return\n        /* \"src/kbru.sol\":1610:1723  function sendAmountOf(address account) public view returns (uint256) {... */\n    tag_7:\n      tag_40\n      0x04\n      dup1\n      calldatasize\n      sub\n      dup2\n      add\n      swap1\n      tag_41\n      swap2\n      swap1\n      tag_42\n      jump\t// in\n    tag_41:\n      tag_43\n      jump\t// in\n    tag_40:\n      mload(0x40)\n      tag_44\n      swap2\n      swap1\n      tag_45\n      jump\t// in\n    tag_44:\n      mload(0x40)\n      dup1\n      swap2\n      sub\n      swap1\n      return\n        /* \"https://github.com/OpenZeppelin/openzeppelin-contracts/blob/52eeebecda140ebaf4ec8752ed119d8288287fac/contracts/token/ERC20/ERC20.sol\":3244:3350  function totalSupply() public view virtual override returns (uint256) {... */\n    tag_8:\n      tag_46\n      tag_47\n      jump\t// in\n    tag_46:\n      mload(0x40)\n      tag_48\n      swap2\n      swap1\n      tag_45\n      jump\t// in\n    tag_48:\n      mload(0x40)\n      dup1\n      swap2\n      sub\n      swap1\n      return\n        /* \"https://github.com/OpenZeppelin/openzeppelin-contracts/blob/52eeebecda140ebaf4ec8752ed119d8288287fac/contracts/token/ERC20/ERC20.sol\":5192:5478  function transferFrom(... */\n    tag_9:\n      tag_49\n      0x04\n      dup1\n      calldatasize\n      sub\n      dup2\n      add\n      swap1\n      tag_50\n      swap2\n      swap1\n      tag_51\n      jump\t// in\n    tag_50:\n      tag_52\n      jump\t// in\n    tag_49:\n      mload(0x40)\n      tag_53\n      swap2\n      swap1\n      tag_39\n      jump\t// in\n    tag_53:\n      mload(0x40)\n      dup1\n      swap2\n      sub\n      swap1\n      return\n        /* \"https://github.com/OpenZeppelin/openzeppelin-contracts/blob/52eeebecda140ebaf4ec8752ed119d8288287fac/contracts/token/ERC20/ERC20.sol\":3093:3184  function decimals() public view virtual override returns (uint8) {... */\n    tag_10:\n      tag_54\n      tag_55\n      jump\t// in\n    tag_54:\n      mload(0x40)\n      tag_56\n      swap2\n      swap1\n      tag_57\n      jump\t// in\n    tag_56:\n      mload(0x40)\n      dup1\n      swap2\n      sub\n      swap1\n      return\n        /* \"https://github.com/OpenZeppelin/openzeppelin-contracts/blob/52eeebecda140ebaf4ec8752ed119d8288287fac/contracts/token/ERC20/ERC20.sol\":5873:6107  function increaseAllowance(address spender, uint256 addedValue) public virtual returns (bool) {... */\n    tag_11:\n      tag_58\n      0x04\n      dup1\n      calldatasize\n      sub\n      dup2\n      add\n      swap1\n      tag_59\n      swap2\n      swap1\n      tag_36\n      jump\t// in\n    tag_59:\n      tag_60\n      jump\t// in\n    tag_58:\n      mload(0x40)\n      tag_61\n      swap2\n      swap1\n      tag_39\n      jump\t// in\n    tag_61:\n      mload(0x40)\n      dup1\n      swap2\n      sub\n      swap1\n      return\n        /* \"https://github.com/OpenZeppelin/openzeppelin-contracts/blob/52eeebecda140ebaf4ec8752ed119d8288287fac/contracts/token/ERC20/ERC20.sol\":3408:3533  function balanceOf(address account) public view virtual override returns (uint256) {... */\n    tag_12:\n      tag_62\n      0x04\n      dup1\n      calldatasize\n      sub\n      dup2\n      add\n      swap1\n      tag_63\n      swap2\n      swap1\n      tag_42\n      jump\t// in\n    tag_63:\n      tag_64\n      jump\t// in\n    tag_62:\n      mload(0x40)\n      tag_65\n      swap2\n      swap1\n      tag_45\n      jump\t// in\n    tag_65:\n      mload(0x40)\n      dup1\n      swap2\n      sub\n      swap1\n      return\n        /* \"src/kbru.sol\":1354:1600  function transferKbru(... */\n    tag_13:\n      tag_66\n      0x04\n      dup1\n      calldatasize\n      sub\n      dup2\n      add\n      swap1\n      tag_67\n      swap2\n      swap1\n      tag_36\n      jump\t// in\n    tag_67:\n      tag_68\n      jump\t// in\n    tag_66:\n      mload(0x40)\n      tag_69\n      swap2\n      swap1\n      tag_39\n      jump\t// in\n    tag_69:\n      mload(0x40)\n      dup1\n      swap2\n      sub\n      swap1\n      return\n        /* \"https://github.com/OpenZeppelin/openzeppelin-contracts/blob/52eeebecda140ebaf4ec8752ed119d8288287fac/contracts/token/ERC20/ERC20.sol\":2367:2469  function symbol() public view virtual override returns (string memory) {... */\n    tag_14:\n      tag_70\n      tag_71\n      jump\t// in\n    tag_70:\n      mload(0x40)\n      tag_72\n      swap2\n      swap1\n      tag_29\n      jump\t// in\n    tag_72:\n      mload(0x40)\n      dup1\n      swap2\n      sub\n      swap1\n      return\n        /* \"src/kbru.sol\":677:906  function mint(uint amount) public {... */\n    tag_15:\n      tag_73\n      0x04\n      dup1\n      calldatasize\n      sub\n      dup2\n      add\n      swap1\n      tag_74\n      swap2\n      swap1\n      tag_75\n      jump\t// in\n    tag_74:\n      tag_76\n      jump\t// in\n    tag_73:\n      stop\n        /* \"https://github.com/OpenZeppelin/openzeppelin-contracts/blob/52eeebecda140ebaf4ec8752ed119d8288287fac/contracts/token/ERC20/ERC20.sol\":6594:7021  function decreaseAllowance(address spender, uint256 subtractedValue) public virtual returns (bool) {... */\n    tag_16:\n      tag_77\n      0x04\n      dup1\n      calldatasize\n      sub\n      dup2\n      add\n      swap1\n      tag_78\n      swap2\n      swap1\n      tag_36\n      jump\t// in\n    tag_78:\n      tag_79\n      jump\t// in\n    tag_77:\n      mload(0x40)\n      tag_80\n      swap2\n      swap1\n      tag_39\n      jump\t// in\n    tag_80:\n      mload(0x40)\n      dup1\n      swap2\n      sub\n      swap1\n      return\n        /* \"src/kbru.sol\":1765:1941  function transfer(address to, uint256 amount) public virtual override returns (bool) {... */\n    tag_17:\n      tag_81\n      0x04\n      dup1\n      calldatasize\n      sub\n      dup2\n      add\n      swap1\n      tag_82\n      swap2\n      swap1\n      tag_36\n      jump\t// in\n    tag_82:\n      tag_83\n      jump\t// in\n    tag_81:\n      mload(0x40)\n      tag_84\n      swap2\n      swap1\n      tag_39\n      jump\t// in\n    tag_84:\n      mload(0x40)\n      dup1\n      swap2\n      sub\n      swap1\n      return\n        /* \"https://github.com/OpenZeppelin/openzeppelin-contracts/blob/52eeebecda140ebaf4ec8752ed119d8288287fac/contracts/token/ERC20/ERC20.sol\":3976:4125  function allowance(address owner, address spender) public view virtual override returns (uint256) {... */\n    tag_18:\n      tag_85\n      0x04\n      dup1\n      calldatasize\n      sub\n      dup2\n      add\n      swap1\n      tag_86\n      swap2\n      swap1\n      tag_87\n      jump\t// in\n    tag_86:\n      tag_88\n      jump\t// in\n    tag_85:\n      mload(0x40)\n      tag_89\n      swap2\n      swap1\n      tag_45\n      jump\t// in\n    tag_89:\n      mload(0x40)\n      dup1\n      swap2\n      sub\n      swap1\n      return\n        /* \"src/kbru.sol\":912:1348  function multiSafeTransfer(address[] calldata receivers, uint amount) public {... */\n    tag_25:\n        /* \"src/kbru.sol\":1036:1057  balanceOf(msg.sender) */\n      tag_91\n        /* \"src/kbru.sol\":1046:1056  msg.sender */\n      caller\n        /* \"src/kbru.sol\":1036:1045  balanceOf */\n      tag_64\n        /* \"src/kbru.sol\":1036:1057  balanceOf(msg.sender) */\n      jump\t// in\n    tag_91:\n        /* \"src/kbru.sol\":1016:1025  receivers */\n      dup4\n      dup4\n        /* \"src/kbru.sol\":1016:1032  receivers.length */\n      swap1\n      pop\n        /* \"src/kbru.sol\":1007:1013  amount */\n      dup3\n        /* \"src/kbru.sol\":1007:1032  amount * receivers.length */\n      tag_92\n      swap2\n      swap1\n      tag_93\n      jump\t// in\n    tag_92:\n        /* \"src/kbru.sol\":1007:1057  amount * receivers.length <= balanceOf(msg.sender) */\n      gt\n      iszero\n        /* \"src/kbru.sol\":999:1083  require(amount * receivers.length <= balanceOf(msg.sender), \"Insufficient balance.\") */\n      tag_94\n      jumpi\n      mload(0x40)\n      0x08c379a000000000000000000000000000000000000000000000000000000000\n      dup2\n      mstore\n      0x04\n      add\n      tag_95\n      swap1\n      tag_96\n      jump\t// in\n    tag_95:\n      mload(0x40)\n      dup1\n      swap2\n      sub\n      swap1\n      revert\n    tag_94:\n        /* \"src/kbru.sol\":1099:1105  uint i */\n      0x00\n        /* \"src/kbru.sol\":1094:1279  for (uint i=0; i< receivers.length; i++) {... */\n    tag_97:\n        /* \"src/kbru.sol\":1112:1121  receivers */\n      dup4\n      dup4\n        /* \"src/kbru.sol\":1112:1128  receivers.length */\n      swap1\n      pop\n        /* \"src/kbru.sol\":1109:1110  i */\n      dup2\n        /* \"src/kbru.sol\":1109:1128  i< receivers.length */\n      lt\n        /* \"src/kbru.sol\":1094:1279  for (uint i=0; i< receivers.length; i++) {... */\n      iszero\n      tag_98\n      jumpi\n        /* \"src/kbru.sol\":1149:1192  _transfer(msg.sender, receivers[i], amount) */\n      tag_100\n        /* \"src/kbru.sol\":1159:1169  msg.sender */\n      caller\n        /* \"src/kbru.sol\":1171:1180  receivers */\n      dup6\n      dup6\n        /* \"src/kbru.sol\":1181:1182  i */\n      dup5\n        /* \"src/kbru.sol\":1171:1183  receivers[i] */\n      dup2\n      dup2\n      lt\n      tag_101\n      jumpi\n      tag_102\n      tag_103\n      jump\t// in\n    tag_102:\n    tag_101:\n      swap1\n      pop\n      0x20\n      mul\n      add\n      0x20\n      dup2\n      add\n      swap1\n      tag_104\n      swap2\n      swap1\n      tag_42\n      jump\t// in\n    tag_104:\n        /* \"src/kbru.sol\":1185:1191  amount */\n      dup5\n        /* \"src/kbru.sol\":1149:1158  _transfer */\n      tag_105\n        /* \"src/kbru.sol\":1149:1192  _transfer(msg.sender, receivers[i], amount) */\n      jump\t// in\n    tag_100:\n        /* \"src/kbru.sol\":1233:1239  amount */\n      dup2\n        /* \"src/kbru.sol\":1206:1217  _sendAmount */\n      0x06\n        /* \"src/kbru.sol\":1206:1229  _sendAmount[msg.sender] */\n      0x00\n        /* \"src/kbru.sol\":1218:1228  msg.sender */\n      caller\n        /* \"src/kbru.sol\":1206:1229  _sendAmount[msg.sender] */\n      0xffffffffffffffffffffffffffffffffffffffff\n      and\n      0xffffffffffffffffffffffffffffffffffffffff\n      and\n      dup2\n      mstore\n      0x20\n      add\n      swap1\n      dup2\n      mstore\n      0x20\n      add\n      0x00\n      keccak256\n      0x00\n        /* \"src/kbru.sol\":1206:1239  _sendAmount[msg.sender] += amount */\n      dup3\n      dup3\n      sload\n      tag_106\n      swap2\n      swap1\n      tag_107\n      jump\t// in\n    tag_106:\n      swap3\n      pop\n      pop\n      dup2\n      swap1\n      sstore\n      pop\n        /* \"src/kbru.sol\":1130:1133  i++ */\n      dup1\n      dup1\n      tag_108\n      swap1\n      tag_109\n      jump\t// in\n    tag_108:\n      swap2\n      pop\n      pop\n        /* \"src/kbru.sol\":1094:1279  for (uint i=0; i< receivers.length; i++) {... */\n      jump(tag_97)\n    tag_98:\n      pop\n        /* \"src/kbru.sol\":1294:1341  MultiSendToken( msg.sender, receivers, amount ) */\n      0xd33af69e2bdb37dfd3a759e5a2bc0f70e1976336b64f9eb59c9814d3f5d238e0\n        /* \"src/kbru.sol\":1310:1320  msg.sender */\n      caller\n        /* \"src/kbru.sol\":1322:1331  receivers */\n      dup5\n      dup5\n        /* \"src/kbru.sol\":1333:1339  amount */\n      dup5\n        /* \"src/kbru.sol\":1294:1341  MultiSendToken( msg.sender, receivers, amount ) */\n      mload(0x40)\n      tag_110\n      swap5\n      swap4\n      swap3\n      swap2\n      swap1\n      tag_111\n      jump\t// in\n    tag_110:\n      mload(0x40)\n      dup1\n      swap2\n      sub\n      swap1\n      log1\n        /* \"src/kbru.sol\":912:1348  function multiSafeTransfer(address[] calldata receivers, uint amount) public {... */\n      pop\n      pop\n      pop\n      jump\t// out\n        /* \"https://github.com/OpenZeppelin/openzeppelin-contracts/blob/52eeebecda140ebaf4ec8752ed119d8288287fac/contracts/token/ERC20/ERC20.sol\":2156:2254  function name() public view virtual override returns (string memory) {... */\n    tag_27:\n        /* \"https://github.com/OpenZeppelin/openzeppelin-contracts/blob/52eeebecda140ebaf4ec8752ed119d8288287fac/contracts/token/ERC20/ERC20.sol\":2210:2223  string memory */\n      0x60\n        /* \"https://github.com/OpenZeppelin/openzeppelin-contracts/blob/52eeebecda140ebaf4ec8752ed119d8288287fac/contracts/token/ERC20/ERC20.sol\":2242:2247  _name */\n      0x03\n        /* \"https://github.com/OpenZeppelin/openzeppelin-contracts/blob/52eeebecda140ebaf4ec8752ed119d8288287fac/contracts/token/ERC20/ERC20.sol\":2235:2247  return _name */\n      dup1\n      sload\n      tag_113\n      swap1\n      tag_114\n      jump\t// in\n    tag_113:\n      dup1\n      0x1f\n      add\n      0x20\n      dup1\n      swap2\n      div\n      mul\n      0x20\n      add\n      mload(0x40)\n      swap1\n      dup2\n      add\n      0x40\n      mstore\n      dup1\n      swap3\n      swap2\n      swap1\n      dup2\n      dup2\n      mstore\n      0x20\n      add\n      dup3\n      dup1\n      sload\n      tag_115\n      swap1\n      tag_114\n      jump\t// in\n    tag_115:\n      dup1\n      iszero\n      tag_116\n      jumpi\n      dup1\n      0x1f\n      lt\n      tag_117\n      jumpi\n      0x0100\n      dup1\n      dup4\n      sload\n      div\n      mul\n      dup4\n      mstore\n      swap2\n      0x20\n      add\n      swap2\n      jump(tag_116)\n    tag_117:\n      dup3\n      add\n      swap2\n      swap1\n      0x00\n      mstore\n      keccak256(0x00, 0x20)\n      swap1\n    tag_118:\n      dup2\n      sload\n      dup2\n      mstore\n      swap1\n      0x01\n      add\n      swap1\n      0x20\n      add\n      dup1\n      dup4\n      gt\n      tag_118\n      jumpi\n      dup3\n      swap1\n      sub\n      0x1f\n      and\n      dup3\n      add\n      swap2\n    tag_116:\n      pop\n      pop\n      pop\n      pop\n      pop\n      swap1\n      pop\n        /* \"https://github.com/OpenZeppelin/openzeppelin-contracts/blob/52eeebecda140ebaf4ec8752ed119d8288287fac/contracts/token/ERC20/ERC20.sol\":2156:2254  function name() public view virtual override returns (string memory) {... */\n      swap1\n      jump\t// out\n        /* \"src/kbru.sol\":232:253  address public minter */\n    tag_31:\n      0x05\n      0x00\n      swap1\n      sload\n      swap1\n      0x0100\n      exp\n      swap1\n      div\n      0xffffffffffffffffffffffffffffffffffffffff\n      and\n      dup2\n      jump\t// out\n        /* \"https://github.com/OpenZeppelin/openzeppelin-contracts/blob/52eeebecda140ebaf4ec8752ed119d8288287fac/contracts/token/ERC20/ERC20.sol\":4433:4630  function approve(address spender, uint256 amount) public virtual override returns (bool) {... */\n    tag_37:\n        /* \"https://github.com/OpenZeppelin/openzeppelin-contracts/blob/52eeebecda140ebaf4ec8752ed119d8288287fac/contracts/token/ERC20/ERC20.sol\":4516:4520  bool */\n      0x00\n        /* \"https://github.com/OpenZeppelin/openzeppelin-contracts/blob/52eeebecda140ebaf4ec8752ed119d8288287fac/contracts/token/ERC20/ERC20.sol\":4532:4545  address owner */\n      dup1\n        /* \"https://github.com/OpenZeppelin/openzeppelin-contracts/blob/52eeebecda140ebaf4ec8752ed119d8288287fac/contracts/token/ERC20/ERC20.sol\":4548:4560  _msgSender() */\n      tag_120\n        /* \"https://github.com/OpenZeppelin/openzeppelin-contracts/blob/52eeebecda140ebaf4ec8752ed119d8288287fac/contracts/token/ERC20/ERC20.sol\":4548:4558  _msgSender */\n      tag_121\n        /* \"https://github.com/OpenZeppelin/openzeppelin-contracts/blob/52eeebecda140ebaf4ec8752ed119d8288287fac/contracts/token/ERC20/ERC20.sol\":4548:4560  _msgSender() */\n      jump\t// in\n    tag_120:\n        /* \"https://github.com/OpenZeppelin/openzeppelin-contracts/blob/52eeebecda140ebaf4ec8752ed119d8288287fac/contracts/token/ERC20/ERC20.sol\":4532:4560  address owner = _msgSender() */\n      swap1\n      pop\n        /* \"https://github.com/OpenZeppelin/openzeppelin-contracts/blob/52eeebecda140ebaf4ec8752ed119d8288287fac/contracts/token/ERC20/ERC20.sol\":4570:4602  _approve(owner, spender, amount) */\n      tag_122\n        /* \"https://github.com/OpenZeppelin/openzeppelin-contracts/blob/52eeebecda140ebaf4ec8752ed119d8288287fac/contracts/token/ERC20/ERC20.sol\":4579:4584  owner */\n      dup2\n        /* \"https://github.com/OpenZeppelin/openzeppelin-contracts/blob/52eeebecda140ebaf4ec8752ed119d8288287fac/contracts/token/ERC20/ERC20.sol\":4586:4593  spender */\n      dup6\n        /* \"https://github.com/OpenZeppelin/openzeppelin-contracts/blob/52eeebecda140ebaf4ec8752ed119d8288287fac/contracts/token/ERC20/ERC20.sol\":4595:4601  amount */\n      dup6\n        /* \"https://github.com/OpenZeppelin/openzeppelin-contracts/blob/52eeebecda140ebaf4ec8752ed119d8288287fac/contracts/token/ERC20/ERC20.sol\":4570:4578  _approve */\n      tag_123\n        /* \"https://github.com/OpenZeppelin/openzeppelin-contracts/blob/52eeebecda140ebaf4ec8752ed119d8288287fac/contracts/token/ERC20/ERC20.sol\":4570:4602  _approve(owner, spender, amount) */\n      jump\t// in\n    tag_122:\n        /* \"https://github.com/OpenZeppelin/openzeppelin-contracts/blob/52eeebecda140ebaf4ec8752ed119d8288287fac/contracts/token/ERC20/ERC20.sol\":4619:4623  true */\n      0x01\n        /* \"https://github.com/OpenZeppelin/openzeppelin-contracts/blob/52eeebecda140ebaf4ec8752ed119d8288287fac/contracts/token/ERC20/ERC20.sol\":4612:4623  return true */\n      swap2\n      pop\n      pop\n        /* \"https://github.com/OpenZeppelin/openzeppelin-contracts/blob/52eeebecda140ebaf4ec8752ed119d8288287fac/contracts/token/ERC20/ERC20.sol\":4433:4630  function approve(address spender, uint256 amount) public virtual override returns (bool) {... */\n      swap3\n      swap2\n      pop\n      pop\n      jump\t// out\n        /* \"src/kbru.sol\":1610:1723  function sendAmountOf(address account) public view returns (uint256) {... */\n    tag_43:\n        /* \"src/kbru.sol\":1670:1677  uint256 */\n      0x00\n        /* \"src/kbru.sol\":1696:1707  _sendAmount */\n      0x06\n        /* \"src/kbru.sol\":1696:1716  _sendAmount[account] */\n      0x00\n        /* \"src/kbru.sol\":1708:1715  account */\n      dup4\n        /* \"src/kbru.sol\":1696:1716  _sendAmount[account] */\n      0xffffffffffffffffffffffffffffffffffffffff\n      and\n      0xffffffffffffffffffffffffffffffffffffffff\n      and\n      dup2\n      mstore\n      0x20\n      add\n      swap1\n      dup2\n      mstore\n      0x20\n      add\n      0x00\n      keccak256\n      sload\n        /* \"src/kbru.sol\":1689:1716  return _sendAmount[account] */\n      swap1\n      pop\n        /* \"src/kbru.sol\":1610:1723  function sendAmountOf(address account) public view returns (uint256) {... */\n      swap2\n      swap1\n      pop\n      jump\t// out\n        /* \"https://github.com/OpenZeppelin/openzeppelin-contracts/blob/52eeebecda140ebaf4ec8752ed119d8288287fac/contracts/token/ERC20/ERC20.sol\":3244:3350  function totalSupply() public view virtual override returns (uint256) {... */\n    tag_47:\n        /* \"https://github.com/OpenZeppelin/openzeppelin-contracts/blob/52eeebecda140ebaf4ec8752ed119d8288287fac/contracts/token/ERC20/ERC20.sol\":3305:3312  uint256 */\n      0x00\n        /* \"https://github.com/OpenZeppelin/openzeppelin-contracts/blob/52eeebecda140ebaf4ec8752ed119d8288287fac/contracts/token/ERC20/ERC20.sol\":3331:3343  _totalSupply */\n      sload(0x02)\n        /* \"https://github.com/OpenZeppelin/openzeppelin-contracts/blob/52eeebecda140ebaf4ec8752ed119d8288287fac/contracts/token/ERC20/ERC20.sol\":3324:3343  return _totalSupply */\n      swap1\n      pop\n        /* \"https://github.com/OpenZeppelin/openzeppelin-contracts/blob/52eeebecda140ebaf4ec8752ed119d8288287fac/contracts/token/ERC20/ERC20.sol\":3244:3350  function totalSupply() public view virtual override returns (uint256) {... */\n      swap1\n      jump\t// out\n        /* \"https://github.com/OpenZeppelin/openzeppelin-contracts/blob/52eeebecda140ebaf4ec8752ed119d8288287fac/contracts/token/ERC20/ERC20.sol\":5192:5478  function transferFrom(... */\n    tag_52:\n        /* \"https://github.com/OpenZeppelin/openzeppelin-contracts/blob/52eeebecda140ebaf4ec8752ed119d8288287fac/contracts/token/ERC20/ERC20.sol\":5319:5323  bool */\n      0x00\n        /* \"https://github.com/OpenZeppelin/openzeppelin-contracts/blob/52eeebecda140ebaf4ec8752ed119d8288287fac/contracts/token/ERC20/ERC20.sol\":5335:5350  address spender */\n      dup1\n        /* \"https://github.com/OpenZeppelin/openzeppelin-contracts/blob/52eeebecda140ebaf4ec8752ed119d8288287fac/contracts/token/ERC20/ERC20.sol\":5353:5365  _msgSender() */\n      tag_127\n        /* \"https://github.com/OpenZeppelin/openzeppelin-contracts/blob/52eeebecda140ebaf4ec8752ed119d8288287fac/contracts/token/ERC20/ERC20.sol\":5353:5363  _msgSender */\n      tag_121\n        /* \"https://github.com/OpenZeppelin/openzeppelin-contracts/blob/52eeebecda140ebaf4ec8752ed119d8288287fac/contracts/token/ERC20/ERC20.sol\":5353:5365  _msgSender() */\n      jump\t// in\n    tag_127:\n        /* \"https://github.com/OpenZeppelin/openzeppelin-contracts/blob/52eeebecda140ebaf4ec8752ed119d8288287fac/contracts/token/ERC20/ERC20.sol\":5335:5365  address spender = _msgSender() */\n      swap1\n      pop\n        /* \"https://github.com/OpenZeppelin/openzeppelin-contracts/blob/52eeebecda140ebaf4ec8752ed119d8288287fac/contracts/token/ERC20/ERC20.sol\":5375:5413  _spendAllowance(from, spender, amount) */\n      tag_128\n        /* \"https://github.com/OpenZeppelin/openzeppelin-contracts/blob/52eeebecda140ebaf4ec8752ed119d8288287fac/contracts/token/ERC20/ERC20.sol\":5391:5395  from */\n      dup6\n        /* \"https://github.com/OpenZeppelin/openzeppelin-contracts/blob/52eeebecda140ebaf4ec8752ed119d8288287fac/contracts/token/ERC20/ERC20.sol\":5397:5404  spender */\n      dup3\n        /* \"https://github.com/OpenZeppelin/openzeppelin-contracts/blob/52eeebecda140ebaf4ec8752ed119d8288287fac/contracts/token/ERC20/ERC20.sol\":5406:5412  amount */\n      dup6\n        /* \"https://github.com/OpenZeppelin/openzeppelin-contracts/blob/52eeebecda140ebaf4ec8752ed119d8288287fac/contracts/token/ERC20/ERC20.sol\":5375:5390  _spendAllowance */\n      tag_129\n        /* \"https://github.com/OpenZeppelin/openzeppelin-contracts/blob/52eeebecda140ebaf4ec8752ed119d8288287fac/contracts/token/ERC20/ERC20.sol\":5375:5413  _spendAllowance(from, spender, amount) */\n      jump\t// in\n    tag_128:\n        /* \"https://github.com/OpenZeppelin/openzeppelin-contracts/blob/52eeebecda140ebaf4ec8752ed119d8288287fac/contracts/token/ERC20/ERC20.sol\":5423:5450  _transfer(from, to, amount) */\n      tag_130\n        /* \"https://github.com/OpenZeppelin/openzeppelin-contracts/blob/52eeebecda140ebaf4ec8752ed119d8288287fac/contracts/token/ERC20/ERC20.sol\":5433:5437  from */\n      dup6\n        /* \"https://github.com/OpenZeppelin/openzeppelin-contracts/blob/52eeebecda140ebaf4ec8752ed119d8288287fac/contracts/token/ERC20/ERC20.sol\":5439:5441  to */\n      dup6\n        /* \"https://github.com/OpenZeppelin/openzeppelin-contracts/blob/52eeebecda140ebaf4ec8752ed119d8288287fac/contracts/token/ERC20/ERC20.sol\":5443:5449  amount */\n      dup6\n        /* \"https://github.com/OpenZeppelin/openzeppelin-contracts/blob/52eeebecda140ebaf4ec8752ed119d8288287fac/contracts/token/ERC20/ERC20.sol\":5423:5432  _transfer */\n      tag_105\n        /* \"https://github.com/OpenZeppelin/openzeppelin-contracts/blob/52eeebecda140ebaf4ec8752ed119d8288287fac/contracts/token/ERC20/ERC20.sol\":5423:5450  _transfer(from, to, amount) */\n      jump\t// in\n    tag_130:\n        /* \"https://github.com/OpenZeppelin/openzeppelin-contracts/blob/52eeebecda140ebaf4ec8752ed119d8288287fac/contracts/token/ERC20/ERC20.sol\":5467:5471  true */\n      0x01\n        /* \"https://github.com/OpenZeppelin/openzeppelin-contracts/blob/52eeebecda140ebaf4ec8752ed119d8288287fac/contracts/token/ERC20/ERC20.sol\":5460:5471  return true */\n      swap2\n      pop\n      pop\n        /* \"https://github.com/OpenZeppelin/openzeppelin-contracts/blob/52eeebecda140ebaf4ec8752ed119d8288287fac/contracts/token/ERC20/ERC20.sol\":5192:5478  function transferFrom(... */\n      swap4\n      swap3\n      pop\n      pop\n      pop\n      jump\t// out\n        /* \"https://github.com/OpenZeppelin/openzeppelin-contracts/blob/52eeebecda140ebaf4ec8752ed119d8288287fac/contracts/token/ERC20/ERC20.sol\":3093:3184  function decimals() public view virtual override returns (uint8) {... */\n    tag_55:\n        /* \"https://github.com/OpenZeppelin/openzeppelin-contracts/blob/52eeebecda140ebaf4ec8752ed119d8288287fac/contracts/token/ERC20/ERC20.sol\":3151:3156  uint8 */\n      0x00\n        /* \"https://github.com/OpenZeppelin/openzeppelin-contracts/blob/52eeebecda140ebaf4ec8752ed119d8288287fac/contracts/token/ERC20/ERC20.sol\":3175:3177  18 */\n      0x12\n        /* \"https://github.com/OpenZeppelin/openzeppelin-contracts/blob/52eeebecda140ebaf4ec8752ed119d8288287fac/contracts/token/ERC20/ERC20.sol\":3168:3177  return 18 */\n      swap1\n      pop\n        /* \"https://github.com/OpenZeppelin/openzeppelin-contracts/blob/52eeebecda140ebaf4ec8752ed119d8288287fac/contracts/token/ERC20/ERC20.sol\":3093:3184  function decimals() public view virtual override returns (uint8) {... */\n      swap1\n      jump\t// out\n        /* \"https://github.com/OpenZeppelin/openzeppelin-contracts/blob/52eeebecda140ebaf4ec8752ed119d8288287fac/contracts/token/ERC20/ERC20.sol\":5873:6107  function increaseAllowance(address spender, uint256 addedValue) public virtual returns (bool) {... */\n    tag_60:\n        /* \"https://github.com/OpenZeppelin/openzeppelin-contracts/blob/52eeebecda140ebaf4ec8752ed119d8288287fac/contracts/token/ERC20/ERC20.sol\":5961:5965  bool */\n      0x00\n        /* \"https://github.com/OpenZeppelin/openzeppelin-contracts/blob/52eeebecda140ebaf4ec8752ed119d8288287fac/contracts/token/ERC20/ERC20.sol\":5977:5990  address owner */\n      dup1\n        /* \"https://github.com/OpenZeppelin/openzeppelin-contracts/blob/52eeebecda140ebaf4ec8752ed119d8288287fac/contracts/token/ERC20/ERC20.sol\":5993:6005  _msgSender() */\n      tag_133\n        /* \"https://github.com/OpenZeppelin/openzeppelin-contracts/blob/52eeebecda140ebaf4ec8752ed119d8288287fac/contracts/token/ERC20/ERC20.sol\":5993:6003  _msgSender */\n      tag_121\n        /* \"https://github.com/OpenZeppelin/openzeppelin-contracts/blob/52eeebecda140ebaf4ec8752ed119d8288287fac/contracts/token/ERC20/ERC20.sol\":5993:6005  _msgSender() */\n      jump\t// in\n    tag_133:\n        /* \"https://github.com/OpenZeppelin/openzeppelin-contracts/blob/52eeebecda140ebaf4ec8752ed119d8288287fac/contracts/token/ERC20/ERC20.sol\":5977:6005  address owner = _msgSender() */\n      swap1\n      pop\n        /* \"https://github.com/OpenZeppelin/openzeppelin-contracts/blob/52eeebecda140ebaf4ec8752ed119d8288287fac/contracts/token/ERC20/ERC20.sol\":6015:6079  _approve(owner, spender, allowance(owner, spender) + addedValue) */\n      tag_134\n        /* \"https://github.com/OpenZeppelin/openzeppelin-contracts/blob/52eeebecda140ebaf4ec8752ed119d8288287fac/contracts/token/ERC20/ERC20.sol\":6024:6029  owner */\n      dup2\n        /* \"https://github.com/OpenZeppelin/openzeppelin-contracts/blob/52eeebecda140ebaf4ec8752ed119d8288287fac/contracts/token/ERC20/ERC20.sol\":6031:6038  spender */\n      dup6\n        /* \"https://github.com/OpenZeppelin/openzeppelin-contracts/blob/52eeebecda140ebaf4ec8752ed119d8288287fac/contracts/token/ERC20/ERC20.sol\":6068:6078  addedValue */\n      dup6\n        /* \"https://github.com/OpenZeppelin/openzeppelin-contracts/blob/52eeebecda140ebaf4ec8752ed119d8288287fac/contracts/token/ERC20/ERC20.sol\":6040:6065  allowance(owner, spender) */\n      tag_135\n        /* \"https://github.com/OpenZeppelin/openzeppelin-contracts/blob/52eeebecda140ebaf4ec8752ed119d8288287fac/contracts/token/ERC20/ERC20.sol\":6050:6055  owner */\n      dup6\n        /* \"https://github.com/OpenZeppelin/openzeppelin-contracts/blob/52eeebecda140ebaf4ec8752ed119d8288287fac/contracts/token/ERC20/ERC20.sol\":6057:6064  spender */\n      dup10\n        /* \"https://github.com/OpenZeppelin/openzeppelin-contracts/blob/52eeebecda140ebaf4ec8752ed119d8288287fac/contracts/token/ERC20/ERC20.sol\":6040:6049  allowance */\n      tag_88\n        /* \"https://github.com/OpenZeppelin/openzeppelin-contracts/blob/52eeebecda140ebaf4ec8752ed119d8288287fac/contracts/token/ERC20/ERC20.sol\":6040:6065  allowance(owner, spender) */\n      jump\t// in\n    tag_135:\n        /* \"https://github.com/OpenZeppelin/openzeppelin-contracts/blob/52eeebecda140ebaf4ec8752ed119d8288287fac/contracts/token/ERC20/ERC20.sol\":6040:6078  allowance(owner, spender) + addedValue */\n      tag_136\n      swap2\n      swap1\n      tag_107\n      jump\t// in\n    tag_136:\n        /* \"https://github.com/OpenZeppelin/openzeppelin-contracts/blob/52eeebecda140ebaf4ec8752ed119d8288287fac/contracts/token/ERC20/ERC20.sol\":6015:6023  _approve */\n      tag_123\n        /* \"https://github.com/OpenZeppelin/openzeppelin-contracts/blob/52eeebecda140ebaf4ec8752ed119d8288287fac/contracts/token/ERC20/ERC20.sol\":6015:6079  _approve(owner, spender, allowance(owner, spender) + addedValue) */\n      jump\t// in\n    tag_134:\n        /* \"https://github.com/OpenZeppelin/openzeppelin-contracts/blob/52eeebecda140ebaf4ec8752ed119d8288287fac/contracts/token/ERC20/ERC20.sol\":6096:6100  true */\n      0x01\n        /* \"https://github.com/OpenZeppelin/openzeppelin-contracts/blob/52eeebecda140ebaf4ec8752ed119d8288287fac/contracts/token/ERC20/ERC20.sol\":6089:6100  return true */\n      swap2\n      pop\n      pop\n        /* \"https://github.com/OpenZeppelin/openzeppelin-contracts/blob/52eeebecda140ebaf4ec8752ed119d8288287fac/contracts/token/ERC20/ERC20.sol\":5873:6107  function increaseAllowance(address spender, uint256 addedValue) public virtual returns (bool) {... */\n      swap3\n      swap2\n      pop\n      pop\n      jump\t// out\n        /* \"https://github.com/OpenZeppelin/openzeppelin-contracts/blob/52eeebecda140ebaf4ec8752ed119d8288287fac/contracts/token/ERC20/ERC20.sol\":3408:3533  function balanceOf(address account) public view virtual override returns (uint256) {... */\n    tag_64:\n        /* \"https://github.com/OpenZeppelin/openzeppelin-contracts/blob/52eeebecda140ebaf4ec8752ed119d8288287fac/contracts/token/ERC20/ERC20.sol\":3482:3489  uint256 */\n      0x00\n        /* \"https://github.com/OpenZeppelin/openzeppelin-contracts/blob/52eeebecda140ebaf4ec8752ed119d8288287fac/contracts/token/ERC20/ERC20.sol\":3508:3517  _balances */\n      dup1\n        /* \"https://github.com/OpenZeppelin/openzeppelin-contracts/blob/52eeebecda140ebaf4ec8752ed119d8288287fac/contracts/token/ERC20/ERC20.sol\":3508:3526  _balances[account] */\n      0x00\n        /* \"https://github.com/OpenZeppelin/openzeppelin-contracts/blob/52eeebecda140ebaf4ec8752ed119d8288287fac/contracts/token/ERC20/ERC20.sol\":3518:3525  account */\n      dup4\n        /* \"https://github.com/OpenZeppelin/openzeppelin-contracts/blob/52eeebecda140ebaf4ec8752ed119d8288287fac/contracts/token/ERC20/ERC20.sol\":3508:3526  _balances[account] */\n      0xffffffffffffffffffffffffffffffffffffffff\n      and\n      0xffffffffffffffffffffffffffffffffffffffff\n      and\n      dup2\n      mstore\n      0x20\n      add\n      swap1\n      dup2\n      mstore\n      0x20\n      add\n      0x00\n      keccak256\n      sload\n        /* \"https://github.com/OpenZeppelin/openzeppelin-contracts/blob/52eeebecda140ebaf4ec8752ed119d8288287fac/contracts/token/ERC20/ERC20.sol\":3501:3526  return _balances[account] */\n      swap1\n      pop\n        /* \"https://github.com/OpenZeppelin/openzeppelin-contracts/blob/52eeebecda140ebaf4ec8752ed119d8288287fac/contracts/token/ERC20/ERC20.sol\":3408:3533  function balanceOf(address account) public view virtual override returns (uint256) {... */\n      swap2\n      swap1\n      pop\n      jump\t// out\n        /* \"src/kbru.sol\":1354:1600  function transferKbru(... */\n    tag_68:\n        /* \"src/kbru.sol\":1442:1446  bool */\n      0x00\n        /* \"src/kbru.sol\":1458:1491  _transfer(msg.sender, to, amount) */\n      tag_139\n        /* \"src/kbru.sol\":1468:1478  msg.sender */\n      caller\n        /* \"src/kbru.sol\":1480:1482  to */\n      dup5\n        /* \"src/kbru.sol\":1484:1490  amount */\n      dup5\n        /* \"src/kbru.sol\":1458:1467  _transfer */\n      tag_105\n        /* \"src/kbru.sol\":1458:1491  _transfer(msg.sender, to, amount) */\n      jump\t// in\n    tag_139:\n        /* \"src/kbru.sol\":1565:1571  amount */\n      dup2\n        /* \"src/kbru.sol\":1538:1549  _sendAmount */\n      0x06\n        /* \"src/kbru.sol\":1538:1561  _sendAmount[msg.sender] */\n      0x00\n        /* \"src/kbru.sol\":1550:1560  msg.sender */\n      caller\n        /* \"src/kbru.sol\":1538:1561  _sendAmount[msg.sender] */\n      0xffffffffffffffffffffffffffffffffffffffff\n      and\n      0xffffffffffffffffffffffffffffffffffffffff\n      and\n      dup2\n      mstore\n      0x20\n      add\n      swap1\n      dup2\n      mstore\n      0x20\n      add\n      0x00\n      keccak256\n      0x00\n        /* \"src/kbru.sol\":1538:1571  _sendAmount[msg.sender] += amount */\n      dup3\n      dup3\n      sload\n      tag_140\n      swap2\n      swap1\n      tag_107\n      jump\t// in\n    tag_140:\n      swap3\n      pop\n      pop\n      dup2\n      swap1\n      sstore\n      pop\n        /* \"src/kbru.sol\":1589:1593  true */\n      0x01\n        /* \"src/kbru.sol\":1582:1593  return true */\n      swap1\n      pop\n        /* \"src/kbru.sol\":1354:1600  function transferKbru(... */\n      swap3\n      swap2\n      pop\n      pop\n      jump\t// out\n        /* \"https://github.com/OpenZeppelin/openzeppelin-contracts/blob/52eeebecda140ebaf4ec8752ed119d8288287fac/contracts/token/ERC20/ERC20.sol\":2367:2469  function symbol() public view virtual override returns (string memory) {... */\n    tag_71:\n        /* \"https://github.com/OpenZeppelin/openzeppelin-contracts/blob/52eeebecda140ebaf4ec8752ed119d8288287fac/contracts/token/ERC20/ERC20.sol\":2423:2436  string memory */\n      0x60\n        /* \"https://github.com/OpenZeppelin/openzeppelin-contracts/blob/52eeebecda140ebaf4ec8752ed119d8288287fac/contracts/token/ERC20/ERC20.sol\":2455:2462  _symbol */\n      0x04\n        /* \"https://github.com/OpenZeppelin/openzeppelin-contracts/blob/52eeebecda140ebaf4ec8752ed119d8288287fac/contracts/token/ERC20/ERC20.sol\":2448:2462  return _symbol */\n      dup1\n      sload\n      tag_142\n      swap1\n      tag_114\n      jump\t// in\n    tag_142:\n      dup1\n      0x1f\n      add\n      0x20\n      dup1\n      swap2\n      div\n      mul\n      0x20\n      add\n      mload(0x40)\n      swap1\n      dup2\n      add\n      0x40\n      mstore\n      dup1\n      swap3\n      swap2\n      swap1\n      dup2\n      dup2\n      mstore\n      0x20\n      add\n      dup3\n      dup1\n      sload\n      tag_143\n      swap1\n      tag_114\n      jump\t// in\n    tag_143:\n      dup1\n      iszero\n      tag_144\n      jumpi\n      dup1\n      0x1f\n      lt\n      tag_145\n      jumpi\n      0x0100\n      dup1\n      dup4\n      sload\n      div\n      mul\n      dup4\n      mstore\n      swap2\n      0x20\n      add\n      swap2\n      jump(tag_144)\n    tag_145:\n      dup3\n      add\n      swap2\n      swap1\n      0x00\n      mstore\n      keccak256(0x00, 0x20)\n      swap1\n    tag_146:\n      dup2\n      sload\n      dup2\n      mstore\n      swap1\n      0x01\n      add\n      swap1\n      0x20\n      add\n      dup1\n      dup4\n      gt\n      tag_146\n      jumpi\n      dup3\n      swap1\n      sub\n      0x1f\n      and\n      dup3\n      add\n      swap2\n    tag_144:\n      pop\n      pop\n      pop\n      pop\n      pop\n      swap1\n      pop\n        /* \"https://github.com/OpenZeppelin/openzeppelin-contracts/blob/52eeebecda140ebaf4ec8752ed119d8288287fac/contracts/token/ERC20/ERC20.sol\":2367:2469  function symbol() public view virtual override returns (string memory) {... */\n      swap1\n      jump\t// out\n        /* \"src/kbru.sol\":677:906  function mint(uint amount) public {... */\n    tag_76:\n        /* \"src/kbru.sol\":743:749  minter */\n      0x05\n      0x00\n      swap1\n      sload\n      swap1\n      0x0100\n      exp\n      swap1\n      div\n      0xffffffffffffffffffffffffffffffffffffffff\n      and\n        /* \"src/kbru.sol\":729:749  msg.sender == minter */\n      0xffffffffffffffffffffffffffffffffffffffff\n      and\n        /* \"src/kbru.sol\":729:739  msg.sender */\n      caller\n        /* \"src/kbru.sol\":729:749  msg.sender == minter */\n      0xffffffffffffffffffffffffffffffffffffffff\n      and\n      eq\n        /* \"src/kbru.sol\":721:750  require(msg.sender == minter) */\n      tag_148\n      jumpi\n      0x00\n      dup1\n      revert\n    tag_148:\n        /* \"src/kbru.sol\":850:854  1e60 */\n      0x9f4f2726179a224501d762422c946590d91000000000000000\n        /* \"src/kbru.sol\":841:847  amount */\n      dup2\n        /* \"src/kbru.sol\":841:854  amount < 1e60 */\n      lt\n        /* \"src/kbru.sol\":833:855  require(amount < 1e60) */\n      tag_149\n      jumpi\n      0x00\n      dup1\n      revert\n    tag_149:\n        /* \"src/kbru.sol\":865:899  _mint(msg.sender, amount * 10**18) */\n      tag_150\n        /* \"src/kbru.sol\":871:881  msg.sender */\n      caller\n        /* \"src/kbru.sol\":892:898  10**18 */\n      0x0de0b6b3a7640000\n        /* \"src/kbru.sol\":883:889  amount */\n      dup4\n        /* \"src/kbru.sol\":883:898  amount * 10**18 */\n      tag_151\n      swap2\n      swap1\n      tag_93\n      jump\t// in\n    tag_151:\n        /* \"src/kbru.sol\":865:870  _mint */\n      tag_152\n        /* \"src/kbru.sol\":865:899  _mint(msg.sender, amount * 10**18) */\n      jump\t// in\n    tag_150:\n        /* \"src/kbru.sol\":677:906  function mint(uint amount) public {... */\n      pop\n      jump\t// out\n        /* \"https://github.com/OpenZeppelin/openzeppelin-contracts/blob/52eeebecda140ebaf4ec8752ed119d8288287fac/contracts/token/ERC20/ERC20.sol\":6594:7021  function decreaseAllowance(address spender, uint256 subtractedValue) public virtual returns (bool) {... */\n    tag_79:\n        /* \"https://github.com/OpenZeppelin/openzeppelin-contracts/blob/52eeebecda140ebaf4ec8752ed119d8288287fac/contracts/token/ERC20/ERC20.sol\":6687:6691  bool */\n      0x00\n        /* \"https://github.com/OpenZeppelin/openzeppelin-contracts/blob/52eeebecda140ebaf4ec8752ed119d8288287fac/contracts/token/ERC20/ERC20.sol\":6703:6716  address owner */\n      dup1\n        /* \"https://github.com/OpenZeppelin/openzeppelin-contracts/blob/52eeebecda140ebaf4ec8752ed119d8288287fac/contracts/token/ERC20/ERC20.sol\":6719:6731  _msgSender() */\n      tag_154\n        /* \"https://github.com/OpenZeppelin/openzeppelin-contracts/blob/52eeebecda140ebaf4ec8752ed119d8288287fac/contracts/token/ERC20/ERC20.sol\":6719:6729  _msgSender */\n      tag_121\n        /* \"https://github.com/OpenZeppelin/openzeppelin-contracts/blob/52eeebecda140ebaf4ec8752ed119d8288287fac/contracts/token/ERC20/ERC20.sol\":6719:6731  _msgSender() */\n      jump\t// in\n    tag_154:\n        /* \"https://github.com/OpenZeppelin/openzeppelin-contracts/blob/52eeebecda140ebaf4ec8752ed119d8288287fac/contracts/token/ERC20/ERC20.sol\":6703:6731  address owner = _msgSender() */\n      swap1\n      pop\n        /* \"https://github.com/OpenZeppelin/openzeppelin-contracts/blob/52eeebecda140ebaf4ec8752ed119d8288287fac/contracts/token/ERC20/ERC20.sol\":6741:6765  uint256 currentAllowance */\n      0x00\n        /* \"https://github.com/OpenZeppelin/openzeppelin-contracts/blob/52eeebecda140ebaf4ec8752ed119d8288287fac/contracts/token/ERC20/ERC20.sol\":6768:6793  allowance(owner, spender) */\n      tag_155\n        /* \"https://github.com/OpenZeppelin/openzeppelin-contracts/blob/52eeebecda140ebaf4ec8752ed119d8288287fac/contracts/token/ERC20/ERC20.sol\":6778:6783  owner */\n      dup3\n        /* \"https://github.com/OpenZeppelin/openzeppelin-contracts/blob/52eeebecda140ebaf4ec8752ed119d8288287fac/contracts/token/ERC20/ERC20.sol\":6785:6792  spender */\n      dup7\n        /* \"https://github.com/OpenZeppelin/openzeppelin-contracts/blob/52eeebecda140ebaf4ec8752ed119d8288287fac/contracts/token/ERC20/ERC20.sol\":6768:6777  allowance */\n      tag_88\n        /* \"https://github.com/OpenZeppelin/openzeppelin-contracts/blob/52eeebecda140ebaf4ec8752ed119d8288287fac/contracts/token/ERC20/ERC20.sol\":6768:6793  allowance(owner, spender) */\n      jump\t// in\n    tag_155:\n        /* \"https://github.com/OpenZeppelin/openzeppelin-contracts/blob/52eeebecda140ebaf4ec8752ed119d8288287fac/contracts/token/ERC20/ERC20.sol\":6741:6793  uint256 currentAllowance = allowance(owner, spender) */\n      swap1\n      pop\n        /* \"https://github.com/OpenZeppelin/openzeppelin-contracts/blob/52eeebecda140ebaf4ec8752ed119d8288287fac/contracts/token/ERC20/ERC20.sol\":6831:6846  subtractedValue */\n      dup4\n        /* \"https://github.com/OpenZeppelin/openzeppelin-contracts/blob/52eeebecda140ebaf4ec8752ed119d8288287fac/contracts/token/ERC20/ERC20.sol\":6811:6827  currentAllowance */\n      dup2\n        /* \"https://github.com/OpenZeppelin/openzeppelin-contracts/blob/52eeebecda140ebaf4ec8752ed119d8288287fac/contracts/token/ERC20/ERC20.sol\":6811:6846  currentAllowance >= subtractedValue */\n      lt\n      iszero\n        /* \"https://github.com/OpenZeppelin/openzeppelin-contracts/blob/52eeebecda140ebaf4ec8752ed119d8288287fac/contracts/token/ERC20/ERC20.sol\":6803:6888  require(currentAllowance >= subtractedValue, \"ERC20: decreased allowance below zero\") */\n      tag_156\n      jumpi\n      mload(0x40)\n      0x08c379a000000000000000000000000000000000000000000000000000000000\n      dup2\n      mstore\n      0x04\n      add\n      tag_157\n      swap1\n      tag_158\n      jump\t// in\n    tag_157:\n      mload(0x40)\n      dup1\n      swap2\n      sub\n      swap1\n      revert\n    tag_156:\n        /* \"https://github.com/OpenZeppelin/openzeppelin-contracts/blob/52eeebecda140ebaf4ec8752ed119d8288287fac/contracts/token/ERC20/ERC20.sol\":6922:6982  _approve(owner, spender, currentAllowance - subtractedValue) */\n      tag_159\n        /* \"https://github.com/OpenZeppelin/openzeppelin-contracts/blob/52eeebecda140ebaf4ec8752ed119d8288287fac/contracts/token/ERC20/ERC20.sol\":6931:6936  owner */\n      dup3\n        /* \"https://github.com/OpenZeppelin/openzeppelin-contracts/blob/52eeebecda140ebaf4ec8752ed119d8288287fac/contracts/token/ERC20/ERC20.sol\":6938:6945  spender */\n      dup7\n        /* \"https://github.com/OpenZeppelin/openzeppelin-contracts/blob/52eeebecda140ebaf4ec8752ed119d8288287fac/contracts/token/ERC20/ERC20.sol\":6966:6981  subtractedValue */\n      dup7\n        /* \"https://github.com/OpenZeppelin/openzeppelin-contracts/blob/52eeebecda140ebaf4ec8752ed119d8288287fac/contracts/token/ERC20/ERC20.sol\":6947:6963  currentAllowance */\n      dup5\n        /* \"https://github.com/OpenZeppelin/openzeppelin-contracts/blob/52eeebecda140ebaf4ec8752ed119d8288287fac/contracts/token/ERC20/ERC20.sol\":6947:6981  currentAllowance - subtractedValue */\n      sub\n        /* \"https://github.com/OpenZeppelin/openzeppelin-contracts/blob/52eeebecda140ebaf4ec8752ed119d8288287fac/contracts/token/ERC20/ERC20.sol\":6922:6930  _approve */\n      tag_123\n        /* \"https://github.com/OpenZeppelin/openzeppelin-contracts/blob/52eeebecda140ebaf4ec8752ed119d8288287fac/contracts/token/ERC20/ERC20.sol\":6922:6982  _approve(owner, spender, currentAllowance - subtractedValue) */\n      jump\t// in\n    tag_159:\n        /* \"https://github.com/OpenZeppelin/openzeppelin-contracts/blob/52eeebecda140ebaf4ec8752ed119d8288287fac/contracts/token/ERC20/ERC20.sol\":7010:7014  true */\n      0x01\n        /* \"https://github.com/OpenZeppelin/openzeppelin-contracts/blob/52eeebecda140ebaf4ec8752ed119d8288287fac/contracts/token/ERC20/ERC20.sol\":7003:7014  return true */\n      swap3\n      pop\n      pop\n      pop\n        /* \"https://github.com/OpenZeppelin/openzeppelin-contracts/blob/52eeebecda140ebaf4ec8752ed119d8288287fac/contracts/token/ERC20/ERC20.sol\":6594:7021  function decreaseAllowance(address spender, uint256 subtractedValue) public virtual returns (bool) {... */\n      swap3\n      swap2\n      pop\n      pop\n      jump\t// out\n        /* \"src/kbru.sol\":1765:1941  function transfer(address to, uint256 amount) public virtual override returns (bool) {... */\n    tag_83:\n        /* \"src/kbru.sol\":1844:1848  bool */\n      0x00\n        /* \"src/kbru.sol\":1865:1881  DebugAddress(to) */\n      0xe7375f84984fefa09f5f03aa56ffb11ed839b99d56943f858953e537609f8be7\n        /* \"src/kbru.sol\":1878:1880  to */\n      dup4\n        /* \"src/kbru.sol\":1865:1881  DebugAddress(to) */\n      mload(0x40)\n      tag_161\n      swap2\n      swap1\n      tag_33\n      jump\t// in\n    tag_161:\n      mload(0x40)\n      dup1\n      swap2\n      sub\n      swap1\n      log1\n        /* \"src/kbru.sol\":1896:1913  DebugUint(amount) */\n      0xf0ed029e274dabb7636aeed7333cf47bc8c97dd6eb6d8faea6e9bfbd6620bebe\n        /* \"src/kbru.sol\":1906:1912  amount */\n      dup3\n        /* \"src/kbru.sol\":1896:1913  DebugUint(amount) */\n      mload(0x40)\n      tag_162\n      swap2\n      swap1\n      tag_45\n      jump\t// in\n    tag_162:\n      mload(0x40)\n      dup1\n      swap2\n      sub\n      swap1\n      log1\n        /* \"src/kbru.sol\":1930:1934  true */\n      0x01\n        /* \"src/kbru.sol\":1923:1934  return true */\n      swap1\n      pop\n        /* \"src/kbru.sol\":1765:1941  function transfer(address to, uint256 amount) public virtual override returns (bool) {... */\n      swap3\n      swap2\n      pop\n      pop\n      jump\t// out\n        /* \"https://github.com/OpenZeppelin/openzeppelin-contracts/blob/52eeebecda140ebaf4ec8752ed119d8288287fac/contracts/token/ERC20/ERC20.sol\":3976:4125  function allowance(address owner, address spender) public view virtual override returns (uint256) {... */\n    tag_88:\n        /* \"https://github.com/OpenZeppelin/openzeppelin-contracts/blob/52eeebecda140ebaf4ec8752ed119d8288287fac/contracts/token/ERC20/ERC20.sol\":4065:4072  uint256 */\n      0x00\n        /* \"https://github.com/OpenZeppelin/openzeppelin-contracts/blob/52eeebecda140ebaf4ec8752ed119d8288287fac/contracts/token/ERC20/ERC20.sol\":4091:4102  _allowances */\n      0x01\n        /* \"https://github.com/OpenZeppelin/openzeppelin-contracts/blob/52eeebecda140ebaf4ec8752ed119d8288287fac/contracts/token/ERC20/ERC20.sol\":4091:4109  _allowances[owner] */\n      0x00\n        /* \"https://github.com/OpenZeppelin/openzeppelin-contracts/blob/52eeebecda140ebaf4ec8752ed119d8288287fac/contracts/token/ERC20/ERC20.sol\":4103:4108  owner */\n      dup5\n        /* \"https://github.com/OpenZeppelin/openzeppelin-contracts/blob/52eeebecda140ebaf4ec8752ed119d8288287fac/contracts/token/ERC20/ERC20.sol\":4091:4109  _allowances[owner] */\n      0xffffffffffffffffffffffffffffffffffffffff\n      and\n      0xffffffffffffffffffffffffffffffffffffffff\n      and\n      dup2\n      mstore\n      0x20\n      add\n      swap1\n      dup2\n      mstore\n      0x20\n      add\n      0x00\n      keccak256\n        /* \"https://github.com/OpenZeppelin/openzeppelin-contracts/blob/52eeebecda140ebaf4ec8752ed119d8288287fac/contracts/token/ERC20/ERC20.sol\":4091:4118  _allowances[owner][spender] */\n      0x00\n        /* \"https://github.com/OpenZeppelin/openzeppelin-contracts/blob/52eeebecda140ebaf4ec8752ed119d8288287fac/contracts/token/ERC20/ERC20.sol\":4110:4117  spender */\n      dup4\n        /* \"https://github.com/OpenZeppelin/openzeppelin-contracts/blob/52eeebecda140ebaf4ec8752ed119d8288287fac/contracts/token/ERC20/ERC20.sol\":4091:4118  _allowances[owner][spender] */\n      0xffffffffffffffffffffffffffffffffffffffff\n      and\n      0xffffffffffffffffffffffffffffffffffffffff\n      and\n      dup2\n      mstore\n      0x20\n      add\n      swap1\n      dup2\n      mstore\n      0x20\n      add\n      0x00\n      keccak256\n      sload\n        /* \"https://github.com/OpenZeppelin/openzeppelin-contracts/blob/52eeebecda140ebaf4ec8752ed119d8288287fac/contracts/token/ERC20/ERC20.sol\":4084:4118  return _allowances[owner][spender] */\n      swap1\n      pop\n        /* \"https://github.com/OpenZeppelin/openzeppelin-contracts/blob/52eeebecda140ebaf4ec8752ed119d8288287fac/contracts/token/ERC20/ERC20.sol\":3976:4125  function allowance(address owner, address spender) public view virtual override returns (uint256) {... */\n      swap3\n      swap2\n      pop\n      pop\n      jump\t// out\n        /* \"https://github.com/OpenZeppelin/openzeppelin-contracts/blob/52eeebecda140ebaf4ec8752ed119d8288287fac/contracts/token/ERC20/ERC20.sol\":7484:8135  function _transfer(... */\n    tag_105:\n        /* \"https://github.com/OpenZeppelin/openzeppelin-contracts/blob/52eeebecda140ebaf4ec8752ed119d8288287fac/contracts/token/ERC20/ERC20.sol\":7626:7627  0 */\n      0x00\n        /* \"https://github.com/OpenZeppelin/openzeppelin-contracts/blob/52eeebecda140ebaf4ec8752ed119d8288287fac/contracts/token/ERC20/ERC20.sol\":7610:7628  from != address(0) */\n      0xffffffffffffffffffffffffffffffffffffffff\n      and\n        /* \"https://github.com/OpenZeppelin/openzeppelin-contracts/blob/52eeebecda140ebaf4ec8752ed119d8288287fac/contracts/token/ERC20/ERC20.sol\":7610:7614  from */\n      dup4\n        /* \"https://github.com/OpenZeppelin/openzeppelin-contracts/blob/52eeebecda140ebaf4ec8752ed119d8288287fac/contracts/token/ERC20/ERC20.sol\":7610:7628  from != address(0) */\n      0xffffffffffffffffffffffffffffffffffffffff\n      and\n      eq\n      iszero\n        /* \"https://github.com/OpenZeppelin/openzeppelin-contracts/blob/52eeebecda140ebaf4ec8752ed119d8288287fac/contracts/token/ERC20/ERC20.sol\":7602:7670  require(from != address(0), \"ERC20: transfer from the zero address\") */\n      tag_165\n      jumpi\n      mload(0x40)\n      0x08c379a000000000000000000000000000000000000000000000000000000000\n      dup2\n      mstore\n      0x04\n      add\n      tag_166\n      swap1\n      tag_167\n      jump\t// in\n    tag_166:\n      mload(0x40)\n      dup1\n      swap2\n      sub\n      swap1\n      revert\n    tag_165:\n        /* \"https://github.com/OpenZeppelin/openzeppelin-contracts/blob/52eeebecda140ebaf4ec8752ed119d8288287fac/contracts/token/ERC20/ERC20.sol\":7702:7703  0 */\n      0x00\n        /* \"https://github.com/OpenZeppelin/openzeppelin-contracts/blob/52eeebecda140ebaf4ec8752ed119d8288287fac/contracts/token/ERC20/ERC20.sol\":7688:7704  to != address(0) */\n      0xffffffffffffffffffffffffffffffffffffffff\n      and\n        /* \"https://github.com/OpenZeppelin/openzeppelin-contracts/blob/52eeebecda140ebaf4ec8752ed119d8288287fac/contracts/token/ERC20/ERC20.sol\":7688:7690  to */\n      dup3\n        /* \"https://github.com/OpenZeppelin/openzeppelin-contracts/blob/52eeebecda140ebaf4ec8752ed119d8288287fac/contracts/token/ERC20/ERC20.sol\":7688:7704  to != address(0) */\n      0xffffffffffffffffffffffffffffffffffffffff\n      and\n      eq\n      iszero\n        /* \"https://github.com/OpenZeppelin/openzeppelin-contracts/blob/52eeebecda140ebaf4ec8752ed119d8288287fac/contracts/token/ERC20/ERC20.sol\":7680:7744  require(to != address(0), \"ERC20: transfer to the zero address\") */\n      tag_168\n      jumpi\n      mload(0x40)\n      0x08c379a000000000000000000000000000000000000000000000000000000000\n      dup2\n      mstore\n      0x04\n      add\n      tag_169\n      swap1\n      tag_170\n      jump\t// in\n    tag_169:\n      mload(0x40)\n      dup1\n      swap2\n      sub\n      swap1\n      revert\n    tag_168:\n        /* \"https://github.com/OpenZeppelin/openzeppelin-contracts/blob/52eeebecda140ebaf4ec8752ed119d8288287fac/contracts/token/ERC20/ERC20.sol\":7755:7793  _beforeTokenTransfer(from, to, amount) */\n      tag_171\n        /* \"https://github.com/OpenZeppelin/openzeppelin-contracts/blob/52eeebecda140ebaf4ec8752ed119d8288287fac/contracts/token/ERC20/ERC20.sol\":7776:7780  from */\n      dup4\n        /* \"https://github.com/OpenZeppelin/openzeppelin-contracts/blob/52eeebecda140ebaf4ec8752ed119d8288287fac/contracts/token/ERC20/ERC20.sol\":7782:7784  to */\n      dup4\n        /* \"https://github.com/OpenZeppelin/openzeppelin-contracts/blob/52eeebecda140ebaf4ec8752ed119d8288287fac/contracts/token/ERC20/ERC20.sol\":7786:7792  amount */\n      dup4\n        /* \"https://github.com/OpenZeppelin/openzeppelin-contracts/blob/52eeebecda140ebaf4ec8752ed119d8288287fac/contracts/token/ERC20/ERC20.sol\":7755:7775  _beforeTokenTransfer */\n      tag_172\n        /* \"https://github.com/OpenZeppelin/openzeppelin-contracts/blob/52eeebecda140ebaf4ec8752ed119d8288287fac/contracts/token/ERC20/ERC20.sol\":7755:7793  _beforeTokenTransfer(from, to, amount) */\n      jump\t// in\n    tag_171:\n        /* \"https://github.com/OpenZeppelin/openzeppelin-contracts/blob/52eeebecda140ebaf4ec8752ed119d8288287fac/contracts/token/ERC20/ERC20.sol\":7804:7823  uint256 fromBalance */\n      0x00\n        /* \"https://github.com/OpenZeppelin/openzeppelin-contracts/blob/52eeebecda140ebaf4ec8752ed119d8288287fac/contracts/token/ERC20/ERC20.sol\":7826:7835  _balances */\n      dup1\n        /* \"https://github.com/OpenZeppelin/openzeppelin-contracts/blob/52eeebecda140ebaf4ec8752ed119d8288287fac/contracts/token/ERC20/ERC20.sol\":7826:7841  _balances[from] */\n      0x00\n        /* \"https://github.com/OpenZeppelin/openzeppelin-contracts/blob/52eeebecda140ebaf4ec8752ed119d8288287fac/contracts/token/ERC20/ERC20.sol\":7836:7840  from */\n      dup6\n        /* \"https://github.com/OpenZeppelin/openzeppelin-contracts/blob/52eeebecda140ebaf4ec8752ed119d8288287fac/contracts/token/ERC20/ERC20.sol\":7826:7841  _balances[from] */\n      0xffffffffffffffffffffffffffffffffffffffff\n      and\n      0xffffffffffffffffffffffffffffffffffffffff\n      and\n      dup2\n      mstore\n      0x20\n      add\n      swap1\n      dup2\n      mstore\n      0x20\n      add\n      0x00\n      keccak256\n      sload\n        /* \"https://github.com/OpenZeppelin/openzeppelin-contracts/blob/52eeebecda140ebaf4ec8752ed119d8288287fac/contracts/token/ERC20/ERC20.sol\":7804:7841  uint256 fromBalance = _balances[from] */\n      swap1\n      pop\n        /* \"https://github.com/OpenZeppelin/openzeppelin-contracts/blob/52eeebecda140ebaf4ec8752ed119d8288287fac/contracts/token/ERC20/ERC20.sol\":7874:7880  amount */\n      dup2\n        /* \"https://github.com/OpenZeppelin/openzeppelin-contracts/blob/52eeebecda140ebaf4ec8752ed119d8288287fac/contracts/token/ERC20/ERC20.sol\":7859:7870  fromBalance */\n      dup2\n        /* \"https://github.com/OpenZeppelin/openzeppelin-contracts/blob/52eeebecda140ebaf4ec8752ed119d8288287fac/contracts/token/ERC20/ERC20.sol\":7859:7880  fromBalance >= amount */\n      lt\n      iszero\n        /* \"https://github.com/OpenZeppelin/openzeppelin-contracts/blob/52eeebecda140ebaf4ec8752ed119d8288287fac/contracts/token/ERC20/ERC20.sol\":7851:7923  require(fromBalance >= amount, \"ERC20: transfer amount exceeds balance\") */\n      tag_173\n      jumpi\n      mload(0x40)\n      0x08c379a000000000000000000000000000000000000000000000000000000000\n      dup2\n      mstore\n      0x04\n      add\n      tag_174\n      swap1\n      tag_175\n      jump\t// in\n    tag_174:\n      mload(0x40)\n      dup1\n      swap2\n      sub\n      swap1\n      revert\n    tag_173:\n        /* \"https://github.com/OpenZeppelin/openzeppelin-contracts/blob/52eeebecda140ebaf4ec8752ed119d8288287fac/contracts/token/ERC20/ERC20.sol\":7989:7995  amount */\n      dup2\n        /* \"https://github.com/OpenZeppelin/openzeppelin-contracts/blob/52eeebecda140ebaf4ec8752ed119d8288287fac/contracts/token/ERC20/ERC20.sol\":7975:7986  fromBalance */\n      dup2\n        /* \"https://github.com/OpenZeppelin/openzeppelin-contracts/blob/52eeebecda140ebaf4ec8752ed119d8288287fac/contracts/token/ERC20/ERC20.sol\":7975:7995  fromBalance - amount */\n      sub\n        /* \"https://github.com/OpenZeppelin/openzeppelin-contracts/blob/52eeebecda140ebaf4ec8752ed119d8288287fac/contracts/token/ERC20/ERC20.sol\":7957:7966  _balances */\n      0x00\n        /* \"https://github.com/OpenZeppelin/openzeppelin-contracts/blob/52eeebecda140ebaf4ec8752ed119d8288287fac/contracts/token/ERC20/ERC20.sol\":7957:7972  _balances[from] */\n      dup1\n        /* \"https://github.com/OpenZeppelin/openzeppelin-contracts/blob/52eeebecda140ebaf4ec8752ed119d8288287fac/contracts/token/ERC20/ERC20.sol\":7967:7971  from */\n      dup7\n        /* \"https://github.com/OpenZeppelin/openzeppelin-contracts/blob/52eeebecda140ebaf4ec8752ed119d8288287fac/contracts/token/ERC20/ERC20.sol\":7957:7972  _balances[from] */\n      0xffffffffffffffffffffffffffffffffffffffff\n      and\n      0xffffffffffffffffffffffffffffffffffffffff\n      and\n      dup2\n      mstore\n      0x20\n      add\n      swap1\n      dup2\n      mstore\n      0x20\n      add\n      0x00\n      keccak256\n        /* \"https://github.com/OpenZeppelin/openzeppelin-contracts/blob/52eeebecda140ebaf4ec8752ed119d8288287fac/contracts/token/ERC20/ERC20.sol\":7957:7995  _balances[from] = fromBalance - amount */\n      dup2\n      swap1\n      sstore\n      pop\n        /* \"https://github.com/OpenZeppelin/openzeppelin-contracts/blob/52eeebecda140ebaf4ec8752ed119d8288287fac/contracts/token/ERC20/ERC20.sol\":8032:8038  amount */\n      dup2\n        /* \"https://github.com/OpenZeppelin/openzeppelin-contracts/blob/52eeebecda140ebaf4ec8752ed119d8288287fac/contracts/token/ERC20/ERC20.sol\":8015:8024  _balances */\n      0x00\n        /* \"https://github.com/OpenZeppelin/openzeppelin-contracts/blob/52eeebecda140ebaf4ec8752ed119d8288287fac/contracts/token/ERC20/ERC20.sol\":8015:8028  _balances[to] */\n      dup1\n        /* \"https://github.com/OpenZeppelin/openzeppelin-contracts/blob/52eeebecda140ebaf4ec8752ed119d8288287fac/contracts/token/ERC20/ERC20.sol\":8025:8027  to */\n      dup6\n        /* \"https://github.com/OpenZeppelin/openzeppelin-contracts/blob/52eeebecda140ebaf4ec8752ed119d8288287fac/contracts/token/ERC20/ERC20.sol\":8015:8028  _balances[to] */\n      0xffffffffffffffffffffffffffffffffffffffff\n      and\n      0xffffffffffffffffffffffffffffffffffffffff\n      and\n      dup2\n      mstore\n      0x20\n      add\n      swap1\n      dup2\n      mstore\n      0x20\n      add\n      0x00\n      keccak256\n      0x00\n        /* \"https://github.com/OpenZeppelin/openzeppelin-contracts/blob/52eeebecda140ebaf4ec8752ed119d8288287fac/contracts/token/ERC20/ERC20.sol\":8015:8038  _balances[to] += amount */\n      dup3\n      dup3\n      sload\n      tag_176\n      swap2\n      swap1\n      tag_107\n      jump\t// in\n    tag_176:\n      swap3\n      pop\n      pop\n      dup2\n      swap1\n      sstore\n      pop\n        /* \"https://github.com/OpenZeppelin/openzeppelin-contracts/blob/52eeebecda140ebaf4ec8752ed119d8288287fac/contracts/token/ERC20/ERC20.sol\":8069:8071  to */\n      dup3\n        /* \"https://github.com/OpenZeppelin/openzeppelin-contracts/blob/52eeebecda140ebaf4ec8752ed119d8288287fac/contracts/token/ERC20/ERC20.sol\":8054:8080  Transfer(from, to, amount) */\n      0xffffffffffffffffffffffffffffffffffffffff\n      and\n        /* \"https://github.com/OpenZeppelin/openzeppelin-contracts/blob/52eeebecda140ebaf4ec8752ed119d8288287fac/contracts/token/ERC20/ERC20.sol\":8063:8067  from */\n      dup5\n        /* \"https://github.com/OpenZeppelin/openzeppelin-contracts/blob/52eeebecda140ebaf4ec8752ed119d8288287fac/contracts/token/ERC20/ERC20.sol\":8054:8080  Transfer(from, to, amount) */\n      0xffffffffffffffffffffffffffffffffffffffff\n      and\n      0xddf252ad1be2c89b69c2b068fc378daa952ba7f163c4a11628f55a4df523b3ef\n        /* \"https://github.com/OpenZeppelin/openzeppelin-contracts/blob/52eeebecda140ebaf4ec8752ed119d8288287fac/contracts/token/ERC20/ERC20.sol\":8073:8079  amount */\n      dup5\n        /* \"https://github.com/OpenZeppelin/openzeppelin-contracts/blob/52eeebecda140ebaf4ec8752ed119d8288287fac/contracts/token/ERC20/ERC20.sol\":8054:8080  Transfer(from, to, amount) */\n      mload(0x40)\n      tag_177\n      swap2\n      swap1\n      tag_45\n      jump\t// in\n    tag_177:\n      mload(0x40)\n      dup1\n      swap2\n      sub\n      swap1\n      log3\n        /* \"https://github.com/OpenZeppelin/openzeppelin-contracts/blob/52eeebecda140ebaf4ec8752ed119d8288287fac/contracts/token/ERC20/ERC20.sol\":8091:8128  _afterTokenTransfer(from, to, amount) */\n      tag_178\n        /* \"https://github.com/OpenZeppelin/openzeppelin-contracts/blob/52eeebecda140ebaf4ec8752ed119d8288287fac/contracts/token/ERC20/ERC20.sol\":8111:8115  from */\n      dup5\n        /* \"https://github.com/OpenZeppelin/openzeppelin-contracts/blob/52eeebecda140ebaf4ec8752ed119d8288287fac/contracts/token/ERC20/ERC20.sol\":8117:8119  to */\n      dup5\n        /* \"https://github.com/OpenZeppelin/openzeppelin-contracts/blob/52eeebecda140ebaf4ec8752ed119d8288287fac/contracts/token/ERC20/ERC20.sol\":8121:8127  amount */\n      dup5\n        /* \"https://github.com/OpenZeppelin/openzeppelin-contracts/blob/52eeebecda140ebaf4ec8752ed119d8288287fac/contracts/token/ERC20/ERC20.sol\":8091:8110  _afterTokenTransfer */\n      tag_179\n        /* \"https://github.com/OpenZeppelin/openzeppelin-contracts/blob/52eeebecda140ebaf4ec8752ed119d8288287fac/contracts/token/ERC20/ERC20.sol\":8091:8128  _afterTokenTransfer(from, to, amount) */\n      jump\t// in\n    tag_178:\n        /* \"https://github.com/OpenZeppelin/openzeppelin-contracts/blob/52eeebecda140ebaf4ec8752ed119d8288287fac/contracts/token/ERC20/ERC20.sol\":7592:8135  {... */\n      pop\n        /* \"https://github.com/OpenZeppelin/openzeppelin-contracts/blob/52eeebecda140ebaf4ec8752ed119d8288287fac/contracts/token/ERC20/ERC20.sol\":7484:8135  function _transfer(... */\n      pop\n      pop\n      pop\n      jump\t// out\n        /* \"https://github.com/OpenZeppelin/openzeppelin-contracts/blob/52eeebecda140ebaf4ec8752ed119d8288287fac/contracts/utils/Context.sol\":640:736  function _msgSender() internal view virtual returns (address) {... */\n    tag_121:\n        /* \"https://github.com/OpenZeppelin/openzeppelin-contracts/blob/52eeebecda140ebaf4ec8752ed119d8288287fac/contracts/utils/Context.sol\":693:700  address */\n      0x00\n        /* \"https://github.com/OpenZeppelin/openzeppelin-contracts/blob/52eeebecda140ebaf4ec8752ed119d8288287fac/contracts/utils/Context.sol\":719:729  msg.sender */\n      caller\n        /* \"https://github.com/OpenZeppelin/openzeppelin-contracts/blob/52eeebecda140ebaf4ec8752ed119d8288287fac/contracts/utils/Context.sol\":712:729  return msg.sender */\n      swap1\n      pop\n        /* \"https://github.com/OpenZeppelin/openzeppelin-contracts/blob/52eeebecda140ebaf4ec8752ed119d8288287fac/contracts/utils/Context.sol\":640:736  function _msgSender() internal view virtual returns (address) {... */\n      swap1\n      jump\t// out\n        /* \"https://github.com/OpenZeppelin/openzeppelin-contracts/blob/52eeebecda140ebaf4ec8752ed119d8288287fac/contracts/token/ERC20/ERC20.sol\":10119:10489  function _approve(... */\n    tag_123:\n        /* \"https://github.com/OpenZeppelin/openzeppelin-contracts/blob/52eeebecda140ebaf4ec8752ed119d8288287fac/contracts/token/ERC20/ERC20.sol\":10267:10268  0 */\n      0x00\n        /* \"https://github.com/OpenZeppelin/openzeppelin-contracts/blob/52eeebecda140ebaf4ec8752ed119d8288287fac/contracts/token/ERC20/ERC20.sol\":10250:10269  owner != address(0) */\n      0xffffffffffffffffffffffffffffffffffffffff\n      and\n        /* \"https://github.com/OpenZeppelin/openzeppelin-contracts/blob/52eeebecda140ebaf4ec8752ed119d8288287fac/contracts/token/ERC20/ERC20.sol\":10250:10255  owner */\n      dup4\n        /* \"https://github.com/OpenZeppelin/openzeppelin-contracts/blob/52eeebecda140ebaf4ec8752ed119d8288287fac/contracts/token/ERC20/ERC20.sol\":10250:10269  owner != address(0) */\n      0xffffffffffffffffffffffffffffffffffffffff\n      and\n      eq\n      iszero\n        /* \"https://github.com/OpenZeppelin/openzeppelin-contracts/blob/52eeebecda140ebaf4ec8752ed119d8288287fac/contracts/token/ERC20/ERC20.sol\":10242:10310  require(owner != address(0), \"ERC20: approve from the zero address\") */\n      tag_182\n      jumpi\n      mload(0x40)\n      0x08c379a000000000000000000000000000000000000000000000000000000000\n      dup2\n      mstore\n      0x04\n      add\n      tag_183\n      swap1\n      tag_184\n      jump\t// in\n    tag_183:\n      mload(0x40)\n      dup1\n      swap2\n      sub\n      swap1\n      revert\n    tag_182:\n        /* \"https://github.com/OpenZeppelin/openzeppelin-contracts/blob/52eeebecda140ebaf4ec8752ed119d8288287fac/contracts/token/ERC20/ERC20.sol\":10347:10348  0 */\n      0x00\n        /* \"https://github.com/OpenZeppelin/openzeppelin-contracts/blob/52eeebecda140ebaf4ec8752ed119d8288287fac/contracts/token/ERC20/ERC20.sol\":10328:10349  spender != address(0) */\n      0xffffffffffffffffffffffffffffffffffffffff\n      and\n        /* \"https://github.com/OpenZeppelin/openzeppelin-contracts/blob/52eeebecda140ebaf4ec8752ed119d8288287fac/contracts/token/ERC20/ERC20.sol\":10328:10335  spender */\n      dup3\n        /* \"https://github.com/OpenZeppelin/openzeppelin-contracts/blob/52eeebecda140ebaf4ec8752ed119d8288287fac/contracts/token/ERC20/ERC20.sol\":10328:10349  spender != address(0) */\n      0xffffffffffffffffffffffffffffffffffffffff\n      and\n      eq\n      iszero\n        /* \"https://github.com/OpenZeppelin/openzeppelin-contracts/blob/52eeebecda140ebaf4ec8752ed119d8288287fac/contracts/token/ERC20/ERC20.sol\":10320:10388  require(spender != address(0), \"ERC20: approve to the zero address\") */\n      tag_185\n      jumpi\n      mload(0x40)\n      0x08c379a000000000000000000000000000000000000000000000000000000000\n      dup2\n      mstore\n      0x04\n      add\n      tag_186\n      swap1\n      tag_187\n      jump\t// in\n    tag_186:\n      mload(0x40)\n      dup1\n      swap2\n      sub\n      swap1\n      revert\n    tag_185:\n        /* \"https://github.com/OpenZeppelin/openzeppelin-contracts/blob/52eeebecda140ebaf4ec8752ed119d8288287fac/contracts/token/ERC20/ERC20.sol\":10429:10435  amount */\n      dup1\n        /* \"https://github.com/OpenZeppelin/openzeppelin-contracts/blob/52eeebecda140ebaf4ec8752ed119d8288287fac/contracts/token/ERC20/ERC20.sol\":10399:10410  _allowances */\n      0x01\n        /* \"https://github.com/OpenZeppelin/openzeppelin-contracts/blob/52eeebecda140ebaf4ec8752ed119d8288287fac/contracts/token/ERC20/ERC20.sol\":10399:10417  _allowances[owner] */\n      0x00\n        /* \"https://github.com/OpenZeppelin/openzeppelin-contracts/blob/52eeebecda140ebaf4ec8752ed119d8288287fac/contracts/token/ERC20/ERC20.sol\":10411:10416  owner */\n      dup6\n        /* \"https://github.com/OpenZeppelin/openzeppelin-contracts/blob/52eeebecda140ebaf4ec8752ed119d8288287fac/contracts/token/ERC20/ERC20.sol\":10399:10417  _allowances[owner] */\n      0xffffffffffffffffffffffffffffffffffffffff\n      and\n      0xffffffffffffffffffffffffffffffffffffffff\n      and\n      dup2\n      mstore\n      0x20\n      add\n      swap1\n      dup2\n      mstore\n      0x20\n      add\n      0x00\n      keccak256\n        /* \"https://github.com/OpenZeppelin/openzeppelin-contracts/blob/52eeebecda140ebaf4ec8752ed119d8288287fac/contracts/token/ERC20/ERC20.sol\":10399:10426  _allowances[owner][spender] */\n      0x00\n        /* \"https://github.com/OpenZeppelin/openzeppelin-contracts/blob/52eeebecda140ebaf4ec8752ed119d8288287fac/contracts/token/ERC20/ERC20.sol\":10418:10425  spender */\n      dup5\n        /* \"https://github.com/OpenZeppelin/openzeppelin-contracts/blob/52eeebecda140ebaf4ec8752ed119d8288287fac/contracts/token/ERC20/ERC20.sol\":10399:10426  _allowances[owner][spender] */\n      0xffffffffffffffffffffffffffffffffffffffff\n      and\n      0xffffffffffffffffffffffffffffffffffffffff\n      and\n      dup2\n      mstore\n      0x20\n      add\n      swap1\n      dup2\n      mstore\n      0x20\n      add\n      0x00\n      keccak256\n        /* \"https://github.com/OpenZeppelin/openzeppelin-contracts/blob/52eeebecda140ebaf4ec8752ed119d8288287fac/contracts/token/ERC20/ERC20.sol\":10399:10435  _allowances[owner][spender] = amount */\n      dup2\n      swap1\n      sstore\n      pop\n        /* \"https://github.com/OpenZeppelin/openzeppelin-contracts/blob/52eeebecda140ebaf4ec8752ed119d8288287fac/contracts/token/ERC20/ERC20.sol\":10466:10473  spender */\n      dup2\n        /* \"https://github.com/OpenZeppelin/openzeppelin-contracts/blob/52eeebecda140ebaf4ec8752ed119d8288287fac/contracts/token/ERC20/ERC20.sol\":10450:10482  Approval(owner, spender, amount) */\n      0xffffffffffffffffffffffffffffffffffffffff\n      and\n        /* \"https://github.com/OpenZeppelin/openzeppelin-contracts/blob/52eeebecda140ebaf4ec8752ed119d8288287fac/contracts/token/ERC20/ERC20.sol\":10459:10464  owner */\n      dup4\n        /* \"https://github.com/OpenZeppelin/openzeppelin-contracts/blob/52eeebecda140ebaf4ec8752ed119d8288287fac/contracts/token/ERC20/ERC20.sol\":10450:10482  Approval(owner, spender, amount) */\n      0xffffffffffffffffffffffffffffffffffffffff\n      and\n      0x8c5be1e5ebec7d5bd14f71427d1e84f3dd0314c0f7b2291e5b200ac8c7c3b925\n        /* \"https://github.com/OpenZeppelin/openzeppelin-contracts/blob/52eeebecda140ebaf4ec8752ed119d8288287fac/contracts/token/ERC20/ERC20.sol\":10475:10481  amount */\n      dup4\n        /* \"https://github.com/OpenZeppelin/openzeppelin-contracts/blob/52eeebecda140ebaf4ec8752ed119d8288287fac/contracts/token/ERC20/ERC20.sol\":10450:10482  Approval(owner, spender, amount) */\n      mload(0x40)\n      tag_188\n      swap2\n      swap1\n      tag_45\n      jump\t// in\n    tag_188:\n      mload(0x40)\n      dup1\n      swap2\n      sub\n      swap1\n      log3\n        /* \"https://github.com/OpenZeppelin/openzeppelin-contracts/blob/52eeebecda140ebaf4ec8752ed119d8288287fac/contracts/token/ERC20/ERC20.sol\":10119:10489  function _approve(... */\n      pop\n      pop\n      pop\n      jump\t// out\n        /* \"https://github.com/OpenZeppelin/openzeppelin-contracts/blob/52eeebecda140ebaf4ec8752ed119d8288287fac/contracts/token/ERC20/ERC20.sol\":10770:11211  function _spendAllowance(... */\n    tag_129:\n        /* \"https://github.com/OpenZeppelin/openzeppelin-contracts/blob/52eeebecda140ebaf4ec8752ed119d8288287fac/contracts/token/ERC20/ERC20.sol\":10900:10924  uint256 currentAllowance */\n      0x00\n        /* \"https://github.com/OpenZeppelin/openzeppelin-contracts/blob/52eeebecda140ebaf4ec8752ed119d8288287fac/contracts/token/ERC20/ERC20.sol\":10927:10952  allowance(owner, spender) */\n      tag_190\n        /* \"https://github.com/OpenZeppelin/openzeppelin-contracts/blob/52eeebecda140ebaf4ec8752ed119d8288287fac/contracts/token/ERC20/ERC20.sol\":10937:10942  owner */\n      dup5\n        /* \"https://github.com/OpenZeppelin/openzeppelin-contracts/blob/52eeebecda140ebaf4ec8752ed119d8288287fac/contracts/token/ERC20/ERC20.sol\":10944:10951  spender */\n      dup5\n        /* \"https://github.com/OpenZeppelin/openzeppelin-contracts/blob/52eeebecda140ebaf4ec8752ed119d8288287fac/contracts/token/ERC20/ERC20.sol\":10927:10936  allowance */\n      tag_88\n        /* \"https://github.com/OpenZeppelin/openzeppelin-contracts/blob/52eeebecda140ebaf4ec8752ed119d8288287fac/contracts/token/ERC20/ERC20.sol\":10927:10952  allowance(owner, spender) */\n      jump\t// in\n    tag_190:\n        /* \"https://github.com/OpenZeppelin/openzeppelin-contracts/blob/52eeebecda140ebaf4ec8752ed119d8288287fac/contracts/token/ERC20/ERC20.sol\":10900:10952  uint256 currentAllowance = allowance(owner, spender) */\n      swap1\n      pop\n        /* \"https://github.com/OpenZeppelin/openzeppelin-contracts/blob/52eeebecda140ebaf4ec8752ed119d8288287fac/contracts/token/ERC20/ERC20.sol\":10986:11003  type(uint256).max */\n      0xffffffffffffffffffffffffffffffffffffffffffffffffffffffffffffffff\n        /* \"https://github.com/OpenZeppelin/openzeppelin-contracts/blob/52eeebecda140ebaf4ec8752ed119d8288287fac/contracts/token/ERC20/ERC20.sol\":10966:10982  currentAllowance */\n      dup2\n        /* \"https://github.com/OpenZeppelin/openzeppelin-contracts/blob/52eeebecda140ebaf4ec8752ed119d8288287fac/contracts/token/ERC20/ERC20.sol\":10966:11003  currentAllowance != type(uint256).max */\n      eq\n        /* \"https://github.com/OpenZeppelin/openzeppelin-contracts/blob/52eeebecda140ebaf4ec8752ed119d8288287fac/contracts/token/ERC20/ERC20.sol\":10962:11205  if (currentAllowance != type(uint256).max) {... */\n      tag_191\n      jumpi\n        /* \"https://github.com/OpenZeppelin/openzeppelin-contracts/blob/52eeebecda140ebaf4ec8752ed119d8288287fac/contracts/token/ERC20/ERC20.sol\":11047:11053  amount */\n      dup2\n        /* \"https://github.com/OpenZeppelin/openzeppelin-contracts/blob/52eeebecda140ebaf4ec8752ed119d8288287fac/contracts/token/ERC20/ERC20.sol\":11027:11043  currentAllowance */\n      dup2\n        /* \"https://github.com/OpenZeppelin/openzeppelin-contracts/blob/52eeebecda140ebaf4ec8752ed119d8288287fac/contracts/token/ERC20/ERC20.sol\":11027:11053  currentAllowance >= amount */\n      lt\n      iszero\n        /* \"https://github.com/OpenZeppelin/openzeppelin-contracts/blob/52eeebecda140ebaf4ec8752ed119d8288287fac/contracts/token/ERC20/ERC20.sol\":11019:11087  require(currentAllowance >= amount, \"ERC20: insufficient allowance\") */\n      tag_192\n      jumpi\n      mload(0x40)\n      0x08c379a000000000000000000000000000000000000000000000000000000000\n      dup2\n      mstore\n      0x04\n      add\n      tag_193\n      swap1\n      tag_194\n      jump\t// in\n    tag_193:\n      mload(0x40)\n      dup1\n      swap2\n      sub\n      swap1\n      revert\n    tag_192:\n        /* \"https://github.com/OpenZeppelin/openzeppelin-contracts/blob/52eeebecda140ebaf4ec8752ed119d8288287fac/contracts/token/ERC20/ERC20.sol\":11129:11180  _approve(owner, spender, currentAllowance - amount) */\n      tag_195\n        /* \"https://github.com/OpenZeppelin/openzeppelin-contracts/blob/52eeebecda140ebaf4ec8752ed119d8288287fac/contracts/token/ERC20/ERC20.sol\":11138:11143  owner */\n      dup5\n        /* \"https://github.com/OpenZeppelin/openzeppelin-contracts/blob/52eeebecda140ebaf4ec8752ed119d8288287fac/contracts/token/ERC20/ERC20.sol\":11145:11152  spender */\n      dup5\n        /* \"https://github.com/OpenZeppelin/openzeppelin-contracts/blob/52eeebecda140ebaf4ec8752ed119d8288287fac/contracts/token/ERC20/ERC20.sol\":11173:11179  amount */\n      dup5\n        /* \"https://github.com/OpenZeppelin/openzeppelin-contracts/blob/52eeebecda140ebaf4ec8752ed119d8288287fac/contracts/token/ERC20/ERC20.sol\":11154:11170  currentAllowance */\n      dup5\n        /* \"https://github.com/OpenZeppelin/openzeppelin-contracts/blob/52eeebecda140ebaf4ec8752ed119d8288287fac/contracts/token/ERC20/ERC20.sol\":11154:11179  currentAllowance - amount */\n      sub\n        /* \"https://github.com/OpenZeppelin/openzeppelin-contracts/blob/52eeebecda140ebaf4ec8752ed119d8288287fac/contracts/token/ERC20/ERC20.sol\":11129:11137  _approve */\n      tag_123\n        /* \"https://github.com/OpenZeppelin/openzeppelin-contracts/blob/52eeebecda140ebaf4ec8752ed119d8288287fac/contracts/token/ERC20/ERC20.sol\":11129:11180  _approve(owner, spender, currentAllowance - amount) */\n      jump\t// in\n    tag_195:\n        /* \"https://github.com/OpenZeppelin/openzeppelin-contracts/blob/52eeebecda140ebaf4ec8752ed119d8288287fac/contracts/token/ERC20/ERC20.sol\":10962:11205  if (currentAllowance != type(uint256).max) {... */\n    tag_191:\n        /* \"https://github.com/OpenZeppelin/openzeppelin-contracts/blob/52eeebecda140ebaf4ec8752ed119d8288287fac/contracts/token/ERC20/ERC20.sol\":10890:11211  {... */\n      pop\n        /* \"https://github.com/OpenZeppelin/openzeppelin-contracts/blob/52eeebecda140ebaf4ec8752ed119d8288287fac/contracts/token/ERC20/ERC20.sol\":10770:11211  function _spendAllowance(... */\n      pop\n      pop\n      pop\n      jump\t// out\n        /* \"https://github.com/OpenZeppelin/openzeppelin-contracts/blob/52eeebecda140ebaf4ec8752ed119d8288287fac/contracts/token/ERC20/ERC20.sol\":8411:8800  function _mint(address account, uint256 amount) internal virtual {... */\n    tag_152:\n        /* \"https://github.com/OpenZeppelin/openzeppelin-contracts/blob/52eeebecda140ebaf4ec8752ed119d8288287fac/contracts/token/ERC20/ERC20.sol\":8513:8514  0 */\n      0x00\n        /* \"https://github.com/OpenZeppelin/openzeppelin-contracts/blob/52eeebecda140ebaf4ec8752ed119d8288287fac/contracts/token/ERC20/ERC20.sol\":8494:8515  account != address(0) */\n      0xffffffffffffffffffffffffffffffffffffffff\n      and\n        /* \"https://github.com/OpenZeppelin/openzeppelin-contracts/blob/52eeebecda140ebaf4ec8752ed119d8288287fac/contracts/token/ERC20/ERC20.sol\":8494:8501  account */\n      dup3\n        /* \"https://github.com/OpenZeppelin/openzeppelin-contracts/blob/52eeebecda140ebaf4ec8752ed119d8288287fac/contracts/token/ERC20/ERC20.sol\":8494:8515  account != address(0) */\n      0xffffffffffffffffffffffffffffffffffffffff\n      and\n      eq\n      iszero\n        /* \"https://github.com/OpenZeppelin/openzeppelin-contracts/blob/52eeebecda140ebaf4ec8752ed119d8288287fac/contracts/token/ERC20/ERC20.sol\":8486:8551  require(account != address(0), \"ERC20: mint to the zero address\") */\n      tag_197\n      jumpi\n      mload(0x40)\n      0x08c379a000000000000000000000000000000000000000000000000000000000\n      dup2\n      mstore\n      0x04\n      add\n      tag_198\n      swap1\n      tag_199\n      jump\t// in\n    tag_198:\n      mload(0x40)\n      dup1\n      swap2\n      sub\n      swap1\n      revert\n    tag_197:\n        /* \"https://github.com/OpenZeppelin/openzeppelin-contracts/blob/52eeebecda140ebaf4ec8752ed119d8288287fac/contracts/token/ERC20/ERC20.sol\":8562:8611  _beforeTokenTransfer(address(0), account, amount) */\n      tag_200\n        /* \"https://github.com/OpenZeppelin/openzeppelin-contracts/blob/52eeebecda140ebaf4ec8752ed119d8288287fac/contracts/token/ERC20/ERC20.sol\":8591:8592  0 */\n      0x00\n        /* \"https://github.com/OpenZeppelin/openzeppelin-contracts/blob/52eeebecda140ebaf4ec8752ed119d8288287fac/contracts/token/ERC20/ERC20.sol\":8595:8602  account */\n      dup4\n        /* \"https://github.com/OpenZeppelin/openzeppelin-contracts/blob/52eeebecda140ebaf4ec8752ed119d8288287fac/contracts/token/ERC20/ERC20.sol\":8604:8610  amount */\n      dup4\n        /* \"https://github.com/OpenZeppelin/openzeppelin-contracts/blob/52eeebecda140ebaf4ec8752ed119d8288287fac/contracts/token/ERC20/ERC20.sol\":8562:8582  _beforeTokenTransfer */\n      tag_172\n        /* \"https://github.com/OpenZeppelin/openzeppelin-contracts/blob/52eeebecda140ebaf4ec8752ed119d8288287fac/contracts/token/ERC20/ERC20.sol\":8562:8611  _beforeTokenTransfer(address(0), account, amount) */\n      jump\t// in\n    tag_200:\n        /* \"https://github.com/OpenZeppelin/openzeppelin-contracts/blob/52eeebecda140ebaf4ec8752ed119d8288287fac/contracts/token/ERC20/ERC20.sol\":8638:8644  amount */\n      dup1\n        /* \"https://github.com/OpenZeppelin/openzeppelin-contracts/blob/52eeebecda140ebaf4ec8752ed119d8288287fac/contracts/token/ERC20/ERC20.sol\":8622:8634  _totalSupply */\n      0x02\n      0x00\n        /* \"https://github.com/OpenZeppelin/openzeppelin-contracts/blob/52eeebecda140ebaf4ec8752ed119d8288287fac/contracts/token/ERC20/ERC20.sol\":8622:8644  _totalSupply += amount */\n      dup3\n      dup3\n      sload\n      tag_201\n      swap2\n      swap1\n      tag_107\n      jump\t// in\n    tag_201:\n      swap3\n      pop\n      pop\n      dup2\n      swap1\n      sstore\n      pop\n        /* \"https://github.com/OpenZeppelin/openzeppelin-contracts/blob/52eeebecda140ebaf4ec8752ed119d8288287fac/contracts/token/ERC20/ERC20.sol\":8676:8682  amount */\n      dup1\n        /* \"https://github.com/OpenZeppelin/openzeppelin-contracts/blob/52eeebecda140ebaf4ec8752ed119d8288287fac/contracts/token/ERC20/ERC20.sol\":8654:8663  _balances */\n      0x00\n        /* \"https://github.com/OpenZeppelin/openzeppelin-contracts/blob/52eeebecda140ebaf4ec8752ed119d8288287fac/contracts/token/ERC20/ERC20.sol\":8654:8672  _balances[account] */\n      dup1\n        /* \"https://github.com/OpenZeppelin/openzeppelin-contracts/blob/52eeebecda140ebaf4ec8752ed119d8288287fac/contracts/token/ERC20/ERC20.sol\":8664:8671  account */\n      dup5\n        /* \"https://github.com/OpenZeppelin/openzeppelin-contracts/blob/52eeebecda140ebaf4ec8752ed119d8288287fac/contracts/token/ERC20/ERC20.sol\":8654:8672  _balances[account] */\n      0xffffffffffffffffffffffffffffffffffffffff\n      and\n      0xffffffffffffffffffffffffffffffffffffffff\n      and\n      dup2\n      mstore\n      0x20\n      add\n      swap1\n      dup2\n      mstore\n      0x20\n      add\n      0x00\n      keccak256\n      0x00\n        /* \"https://github.com/OpenZeppelin/openzeppelin-contracts/blob/52eeebecda140ebaf4ec8752ed119d8288287fac/contracts/token/ERC20/ERC20.sol\":8654:8682  _balances[account] += amount */\n      dup3\n      dup3\n      sload\n      tag_202\n      swap2\n      swap1\n      tag_107\n      jump\t// in\n    tag_202:\n      swap3\n      pop\n      pop\n      dup2\n      swap1\n      sstore\n      pop\n        /* \"https://github.com/OpenZeppelin/openzeppelin-contracts/blob/52eeebecda140ebaf4ec8752ed119d8288287fac/contracts/token/ERC20/ERC20.sol\":8718:8725  account */\n      dup2\n        /* \"https://github.com/OpenZeppelin/openzeppelin-contracts/blob/52eeebecda140ebaf4ec8752ed119d8288287fac/contracts/token/ERC20/ERC20.sol\":8697:8734  Transfer(address(0), account, amount) */\n      0xffffffffffffffffffffffffffffffffffffffff\n      and\n        /* \"https://github.com/OpenZeppelin/openzeppelin-contracts/blob/52eeebecda140ebaf4ec8752ed119d8288287fac/contracts/token/ERC20/ERC20.sol\":8714:8715  0 */\n      0x00\n        /* \"https://github.com/OpenZeppelin/openzeppelin-contracts/blob/52eeebecda140ebaf4ec8752ed119d8288287fac/contracts/token/ERC20/ERC20.sol\":8697:8734  Transfer(address(0), account, amount) */\n      0xffffffffffffffffffffffffffffffffffffffff\n      and\n      0xddf252ad1be2c89b69c2b068fc378daa952ba7f163c4a11628f55a4df523b3ef\n        /* \"https://github.com/OpenZeppelin/openzeppelin-contracts/blob/52eeebecda140ebaf4ec8752ed119d8288287fac/contracts/token/ERC20/ERC20.sol\":8727:8733  amount */\n      dup4\n        /* \"https://github.com/OpenZeppelin/openzeppelin-contracts/blob/52eeebecda140ebaf4ec8752ed119d8288287fac/contracts/token/ERC20/ERC20.sol\":8697:8734  Transfer(address(0), account, amount) */\n      mload(0x40)\n      tag_203\n      swap2\n      swap1\n      tag_45\n      jump\t// in\n    tag_203:\n      mload(0x40)\n      dup1\n      swap2\n      sub\n      swap1\n      log3\n        /* \"https://github.com/OpenZeppelin/openzeppelin-contracts/blob/52eeebecda140ebaf4ec8752ed119d8288287fac/contracts/token/ERC20/ERC20.sol\":8745:8793  _afterTokenTransfer(address(0), account, amount) */\n      tag_204\n        /* \"https://github.com/OpenZeppelin/openzeppelin-contracts/blob/52eeebecda140ebaf4ec8752ed119d8288287fac/contracts/token/ERC20/ERC20.sol\":8773:8774  0 */\n      0x00\n        /* \"https://github.com/OpenZeppelin/openzeppelin-contracts/blob/52eeebecda140ebaf4ec8752ed119d8288287fac/contracts/token/ERC20/ERC20.sol\":8777:8784  account */\n      dup4\n        /* \"https://github.com/OpenZeppelin/openzeppelin-contracts/blob/52eeebecda140ebaf4ec8752ed119d8288287fac/contracts/token/ERC20/ERC20.sol\":8786:8792  amount */\n      dup4\n        /* \"https://github.com/OpenZeppelin/openzeppelin-contracts/blob/52eeebecda140ebaf4ec8752ed119d8288287fac/contracts/token/ERC20/ERC20.sol\":8745:8764  _afterTokenTransfer */\n      tag_179\n        /* \"https://github.com/OpenZeppelin/openzeppelin-contracts/blob/52eeebecda140ebaf4ec8752ed119d8288287fac/contracts/token/ERC20/ERC20.sol\":8745:8793  _afterTokenTransfer(address(0), account, amount) */\n      jump\t// in\n    tag_204:\n        /* \"https://github.com/OpenZeppelin/openzeppelin-contracts/blob/52eeebecda140ebaf4ec8752ed119d8288287fac/contracts/token/ERC20/ERC20.sol\":8411:8800  function _mint(address account, uint256 amount) internal virtual {... */\n      pop\n      pop\n      jump\t// out\n        /* \"https://github.com/OpenZeppelin/openzeppelin-contracts/blob/52eeebecda140ebaf4ec8752ed119d8288287fac/contracts/token/ERC20/ERC20.sol\":11795:11916  function _beforeTokenTransfer(... */\n    tag_172:\n      pop\n      pop\n      pop\n      jump\t// out\n        /* \"https://github.com/OpenZeppelin/openzeppelin-contracts/blob/52eeebecda140ebaf4ec8752ed119d8288287fac/contracts/token/ERC20/ERC20.sol\":12504:12624  function _afterTokenTransfer(... */\n    tag_179:\n      pop\n      pop\n      pop\n      jump\t// out\n        /* \"#utility.yul\":7:146   */\n    tag_208:\n        /* \"#utility.yul\":53:58   */\n      0x00\n        /* \"#utility.yul\":91:97   */\n      dup2\n        /* \"#utility.yul\":78:98   */\n      calldataload\n        /* \"#utility.yul\":69:98   */\n      swap1\n      pop\n        /* \"#utility.yul\":107:140   */\n      tag_210\n        /* \"#utility.yul\":134:139   */\n      dup2\n        /* \"#utility.yul\":107:140   */\n      tag_211\n      jump\t// in\n    tag_210:\n        /* \"#utility.yul\":7:146   */\n      swap3\n      swap2\n      pop\n      pop\n      jump\t// out\n        /* \"#utility.yul\":169:737   */\n    tag_212:\n        /* \"#utility.yul\":242:250   */\n      0x00\n        /* \"#utility.yul\":252:258   */\n      dup1\n        /* \"#utility.yul\":302:305   */\n      dup4\n        /* \"#utility.yul\":295:299   */\n      0x1f\n        /* \"#utility.yul\":287:293   */\n      dup5\n        /* \"#utility.yul\":283:300   */\n      add\n        /* \"#utility.yul\":279:306   */\n      slt\n        /* \"#utility.yul\":269:391   */\n      tag_214\n      jumpi\n        /* \"#utility.yul\":310:389   */\n      tag_215\n      tag_216\n      jump\t// in\n    tag_215:\n        /* \"#utility.yul\":269:391   */\n    tag_214:\n        /* \"#utility.yul\":423:429   */\n      dup3\n        /* \"#utility.yul\":410:430   */\n      calldataload\n        /* \"#utility.yul\":400:430   */\n      swap1\n      pop\n        /* \"#utility.yul\":453:471   */\n      0xffffffffffffffff\n        /* \"#utility.yul\":445:451   */\n      dup2\n        /* \"#utility.yul\":442:472   */\n      gt\n        /* \"#utility.yul\":439:556   */\n      iszero\n      tag_217\n      jumpi\n        /* \"#utility.yul\":475:554   */\n      tag_218\n      tag_219\n      jump\t// in\n    tag_218:\n        /* \"#utility.yul\":439:556   */\n    tag_217:\n        /* \"#utility.yul\":589:593   */\n      0x20\n        /* \"#utility.yul\":581:587   */\n      dup4\n        /* \"#utility.yul\":577:594   */\n      add\n        /* \"#utility.yul\":565:594   */\n      swap2\n      pop\n        /* \"#utility.yul\":643:646   */\n      dup4\n        /* \"#utility.yul\":635:639   */\n      0x20\n        /* \"#utility.yul\":627:633   */\n      dup3\n        /* \"#utility.yul\":623:640   */\n      mul\n        /* \"#utility.yul\":613:621   */\n      dup4\n        /* \"#utility.yul\":609:641   */\n      add\n        /* \"#utility.yul\":606:647   */\n      gt\n        /* \"#utility.yul\":603:731   */\n      iszero\n      tag_220\n      jumpi\n        /* \"#utility.yul\":650:729   */\n      tag_221\n      tag_222\n      jump\t// in\n    tag_221:\n        /* \"#utility.yul\":603:731   */\n    tag_220:\n        /* \"#utility.yul\":169:737   */\n      swap3\n      pop\n      swap3\n      swap1\n      pop\n      jump\t// out\n        /* \"#utility.yul\":743:882   */\n    tag_223:\n        /* \"#utility.yul\":789:794   */\n      0x00\n        /* \"#utility.yul\":827:833   */\n      dup2\n        /* \"#utility.yul\":814:834   */\n      calldataload\n        /* \"#utility.yul\":805:834   */\n      swap1\n      pop\n        /* \"#utility.yul\":843:876   */\n      tag_225\n        /* \"#utility.yul\":870:875   */\n      dup2\n        /* \"#utility.yul\":843:876   */\n      tag_226\n      jump\t// in\n    tag_225:\n        /* \"#utility.yul\":743:882   */\n      swap3\n      swap2\n      pop\n      pop\n      jump\t// out\n        /* \"#utility.yul\":888:1217   */\n    tag_42:\n        /* \"#utility.yul\":947:953   */\n      0x00\n        /* \"#utility.yul\":996:998   */\n      0x20\n        /* \"#utility.yul\":984:993   */\n      dup3\n        /* \"#utility.yul\":975:982   */\n      dup5\n        /* \"#utility.yul\":971:994   */\n      sub\n        /* \"#utility.yul\":967:999   */\n      slt\n        /* \"#utility.yul\":964:1083   */\n      iszero\n      tag_228\n      jumpi\n        /* \"#utility.yul\":1002:1081   */\n      tag_229\n      tag_230\n      jump\t// in\n    tag_229:\n        /* \"#utility.yul\":964:1083   */\n    tag_228:\n        /* \"#utility.yul\":1122:1123   */\n      0x00\n        /* \"#utility.yul\":1147:1200   */\n      tag_231\n        /* \"#utility.yul\":1192:1199   */\n      dup5\n        /* \"#utility.yul\":1183:1189   */\n      dup3\n        /* \"#utility.yul\":1172:1181   */\n      dup6\n        /* \"#utility.yul\":1168:1190   */\n      add\n        /* \"#utility.yul\":1147:1200   */\n      tag_208\n      jump\t// in\n    tag_231:\n        /* \"#utility.yul\":1137:1200   */\n      swap2\n      pop\n        /* \"#utility.yul\":1093:1210   */\n      pop\n        /* \"#utility.yul\":888:1217   */\n      swap3\n      swap2\n      pop\n      pop\n      jump\t// out\n        /* \"#utility.yul\":1223:1697   */\n    tag_87:\n        /* \"#utility.yul\":1291:1297   */\n      0x00\n        /* \"#utility.yul\":1299:1305   */\n      dup1\n        /* \"#utility.yul\":1348:1350   */\n      0x40\n        /* \"#utility.yul\":1336:1345   */\n      dup4\n        /* \"#utility.yul\":1327:1334   */\n      dup6\n        /* \"#utility.yul\":1323:1346   */\n      sub\n        /* \"#utility.yul\":1319:1351   */\n      slt\n        /* \"#utility.yul\":1316:1435   */\n      iszero\n      tag_233\n      jumpi\n        /* \"#utility.yul\":1354:1433   */\n      tag_234\n      tag_230\n      jump\t// in\n    tag_234:\n        /* \"#utility.yul\":1316:1435   */\n    tag_233:\n        /* \"#utility.yul\":1474:1475   */\n      0x00\n        /* \"#utility.yul\":1499:1552   */\n      tag_235\n        /* \"#utility.yul\":1544:1551   */\n      dup6\n        /* \"#utility.yul\":1535:1541   */\n      dup3\n        /* \"#utility.yul\":1524:1533   */\n      dup7\n        /* \"#utility.yul\":1520:1542   */\n      add\n        /* \"#utility.yul\":1499:1552   */\n      tag_208\n      jump\t// in\n    tag_235:\n        /* \"#utility.yul\":1489:1552   */\n      swap3\n      pop\n        /* \"#utility.yul\":1445:1562   */\n      pop\n        /* \"#utility.yul\":1601:1603   */\n      0x20\n        /* \"#utility.yul\":1627:1680   */\n      tag_236\n        /* \"#utility.yul\":1672:1679   */\n      dup6\n        /* \"#utility.yul\":1663:1669   */\n      dup3\n        /* \"#utility.yul\":1652:1661   */\n      dup7\n        /* \"#utility.yul\":1648:1670   */\n      add\n        /* \"#utility.yul\":1627:1680   */\n      tag_208\n      jump\t// in\n    tag_236:\n        /* \"#utility.yul\":1617:1680   */\n      swap2\n      pop\n        /* \"#utility.yul\":1572:1690   */\n      pop\n        /* \"#utility.yul\":1223:1697   */\n      swap3\n      pop\n      swap3\n      swap1\n      pop\n      jump\t// out\n        /* \"#utility.yul\":1703:2322   */\n    tag_51:\n        /* \"#utility.yul\":1780:1786   */\n      0x00\n        /* \"#utility.yul\":1788:1794   */\n      dup1\n        /* \"#utility.yul\":1796:1802   */\n      0x00\n        /* \"#utility.yul\":1845:1847   */\n      0x60\n        /* \"#utility.yul\":1833:1842   */\n      dup5\n        /* \"#utility.yul\":1824:1831   */\n      dup7\n        /* \"#utility.yul\":1820:1843   */\n      sub\n        /* \"#utility.yul\":1816:1848   */\n      slt\n        /* \"#utility.yul\":1813:1932   */\n      iszero\n      tag_238\n      jumpi\n        /* \"#utility.yul\":1851:1930   */\n      tag_239\n      tag_230\n      jump\t// in\n    tag_239:\n        /* \"#utility.yul\":1813:1932   */\n    tag_238:\n        /* \"#utility.yul\":1971:1972   */\n      0x00\n        /* \"#utility.yul\":1996:2049   */\n      tag_240\n        /* \"#utility.yul\":2041:2048   */\n      dup7\n        /* \"#utility.yul\":2032:2038   */\n      dup3\n        /* \"#utility.yul\":2021:2030   */\n      dup8\n        /* \"#utility.yul\":2017:2039   */\n      add\n        /* \"#utility.yul\":1996:2049   */\n      tag_208\n      jump\t// in\n    tag_240:\n        /* \"#utility.yul\":1986:2049   */\n      swap4\n      pop\n        /* \"#utility.yul\":1942:2059   */\n      pop\n        /* \"#utility.yul\":2098:2100   */\n      0x20\n        /* \"#utility.yul\":2124:2177   */\n      tag_241\n        /* \"#utility.yul\":2169:2176   */\n      dup7\n        /* \"#utility.yul\":2160:2166   */\n      dup3\n        /* \"#utility.yul\":2149:2158   */\n      dup8\n        /* \"#utility.yul\":2145:2167   */\n      add\n        /* \"#utility.yul\":2124:2177   */\n      tag_208\n      jump\t// in\n    tag_241:\n        /* \"#utility.yul\":2114:2177   */\n      swap3\n      pop\n        /* \"#utility.yul\":2069:2187   */\n      pop\n        /* \"#utility.yul\":2226:2228   */\n      0x40\n        /* \"#utility.yul\":2252:2305   */\n      tag_242\n        /* \"#utility.yul\":2297:2304   */\n      dup7\n        /* \"#utility.yul\":2288:2294   */\n      dup3\n        /* \"#utility.yul\":2277:2286   */\n      dup8\n        /* \"#utility.yul\":2273:2295   */\n      add\n        /* \"#utility.yul\":2252:2305   */\n      tag_223\n      jump\t// in\n    tag_242:\n        /* \"#utility.yul\":2242:2305   */\n      swap2\n      pop\n        /* \"#utility.yul\":2197:2315   */\n      pop\n        /* \"#utility.yul\":1703:2322   */\n      swap3\n      pop\n      swap3\n      pop\n      swap3\n      jump\t// out\n        /* \"#utility.yul\":2328:2802   */\n    tag_36:\n        /* \"#utility.yul\":2396:2402   */\n      0x00\n        /* \"#utility.yul\":2404:2410   */\n      dup1\n        /* \"#utility.yul\":2453:2455   */\n      0x40\n        /* \"#utility.yul\":2441:2450   */\n      dup4\n        /* \"#utility.yul\":2432:2439   */\n      dup6\n        /* \"#utility.yul\":2428:2451   */\n      sub\n        /* \"#utility.yul\":2424:2456   */\n      slt\n        /* \"#utility.yul\":2421:2540   */\n      iszero\n      tag_244\n      jumpi\n        /* \"#utility.yul\":2459:2538   */\n      tag_245\n      tag_230\n      jump\t// in\n    tag_245:\n        /* \"#utility.yul\":2421:2540   */\n    tag_244:\n        /* \"#utility.yul\":2579:2580   */\n      0x00\n        /* \"#utility.yul\":2604:2657   */\n      tag_246\n        /* \"#utility.yul\":2649:2656   */\n      dup6\n        /* \"#utility.yul\":2640:2646   */\n      dup3\n        /* \"#utility.yul\":2629:2638   */\n      dup7\n        /* \"#utility.yul\":2625:2647   */\n      add\n        /* \"#utility.yul\":2604:2657   */\n      tag_208\n      jump\t// in\n    tag_246:\n        /* \"#utility.yul\":2594:2657   */\n      swap3\n      pop\n        /* \"#utility.yul\":2550:2667   */\n      pop\n        /* \"#utility.yul\":2706:2708   */\n      0x20\n        /* \"#utility.yul\":2732:2785   */\n      tag_247\n        /* \"#utility.yul\":2777:2784   */\n      dup6\n        /* \"#utility.yul\":2768:2774   */\n      dup3\n        /* \"#utility.yul\":2757:2766   */\n      dup7\n        /* \"#utility.yul\":2753:2775   */\n      add\n        /* \"#utility.yul\":2732:2785   */\n      tag_223\n      jump\t// in\n    tag_247:\n        /* \"#utility.yul\":2722:2785   */\n      swap2\n      pop\n        /* \"#utility.yul\":2677:2795   */\n      pop\n        /* \"#utility.yul\":2328:2802   */\n      swap3\n      pop\n      swap3\n      swap1\n      pop\n      jump\t// out\n        /* \"#utility.yul\":2808:3512   */\n    tag_24:\n        /* \"#utility.yul\":2903:2909   */\n      0x00\n        /* \"#utility.yul\":2911:2917   */\n      dup1\n        /* \"#utility.yul\":2919:2925   */\n      0x00\n        /* \"#utility.yul\":2968:2970   */\n      0x40\n        /* \"#utility.yul\":2956:2965   */\n      dup5\n        /* \"#utility.yul\":2947:2954   */\n      dup7\n        /* \"#utility.yul\":2943:2966   */\n      sub\n        /* \"#utility.yul\":2939:2971   */\n      slt\n        /* \"#utility.yul\":2936:3055   */\n      iszero\n      tag_249\n      jumpi\n        /* \"#utility.yul\":2974:3053   */\n      tag_250\n      tag_230\n      jump\t// in\n    tag_250:\n        /* \"#utility.yul\":2936:3055   */\n    tag_249:\n        /* \"#utility.yul\":3122:3123   */\n      0x00\n        /* \"#utility.yul\":3111:3120   */\n      dup5\n        /* \"#utility.yul\":3107:3124   */\n      add\n        /* \"#utility.yul\":3094:3125   */\n      calldataload\n        /* \"#utility.yul\":3152:3170   */\n      0xffffffffffffffff\n        /* \"#utility.yul\":3144:3150   */\n      dup2\n        /* \"#utility.yul\":3141:3171   */\n      gt\n        /* \"#utility.yul\":3138:3255   */\n      iszero\n      tag_251\n      jumpi\n        /* \"#utility.yul\":3174:3253   */\n      tag_252\n      tag_253\n      jump\t// in\n    tag_252:\n        /* \"#utility.yul\":3138:3255   */\n    tag_251:\n        /* \"#utility.yul\":3287:3367   */\n      tag_254\n        /* \"#utility.yul\":3359:3366   */\n      dup7\n        /* \"#utility.yul\":3350:3356   */\n      dup3\n        /* \"#utility.yul\":3339:3348   */\n      dup8\n        /* \"#utility.yul\":3335:3357   */\n      add\n        /* \"#utility.yul\":3287:3367   */\n      tag_212\n      jump\t// in\n    tag_254:\n        /* \"#utility.yul\":3269:3367   */\n      swap4\n      pop\n      swap4\n      pop\n        /* \"#utility.yul\":3065:3377   */\n      pop\n        /* \"#utility.yul\":3416:3418   */\n      0x20\n        /* \"#utility.yul\":3442:3495   */\n      tag_255\n        /* \"#utility.yul\":3487:3494   */\n      dup7\n        /* \"#utility.yul\":3478:3484   */\n      dup3\n        /* \"#utility.yul\":3467:3476   */\n      dup8\n        /* \"#utility.yul\":3463:3485   */\n      add\n        /* \"#utility.yul\":3442:3495   */\n      tag_223\n      jump\t// in\n    tag_255:\n        /* \"#utility.yul\":3432:3495   */\n      swap2\n      pop\n        /* \"#utility.yul\":3387:3505   */\n      pop\n        /* \"#utility.yul\":2808:3512   */\n      swap3\n      pop\n      swap3\n      pop\n      swap3\n      jump\t// out\n        /* \"#utility.yul\":3518:3847   */\n    tag_75:\n        /* \"#utility.yul\":3577:3583   */\n      0x00\n        /* \"#utility.yul\":3626:3628   */\n      0x20\n        /* \"#utility.yul\":3614:3623   */\n      dup3\n        /* \"#utility.yul\":3605:3612   */\n      dup5\n        /* \"#utility.yul\":3601:3624   */\n      sub\n        /* \"#utility.yul\":3597:3629   */\n      slt\n        /* \"#utility.yul\":3594:3713   */\n      iszero\n      tag_257\n      jumpi\n        /* \"#utility.yul\":3632:3711   */\n      tag_258\n      tag_230\n      jump\t// in\n    tag_258:\n        /* \"#utility.yul\":3594:3713   */\n    tag_257:\n        /* \"#utility.yul\":3752:3753   */\n      0x00\n        /* \"#utility.yul\":3777:3830   */\n      tag_259\n        /* \"#utility.yul\":3822:3829   */\n      dup5\n        /* \"#utility.yul\":3813:3819   */\n      dup3\n        /* \"#utility.yul\":3802:3811   */\n      dup6\n        /* \"#utility.yul\":3798:3820   */\n      add\n        /* \"#utility.yul\":3777:3830   */\n      tag_223\n      jump\t// in\n    tag_259:\n        /* \"#utility.yul\":3767:3830   */\n      swap2\n      pop\n        /* \"#utility.yul\":3723:3840   */\n      pop\n        /* \"#utility.yul\":3518:3847   */\n      swap3\n      swap2\n      pop\n      pop\n      jump\t// out\n        /* \"#utility.yul\":3853:4032   */\n    tag_260:\n        /* \"#utility.yul\":3922:3932   */\n      0x00\n        /* \"#utility.yul\":3943:3989   */\n      tag_262\n        /* \"#utility.yul\":3985:3988   */\n      dup4\n        /* \"#utility.yul\":3977:3983   */\n      dup4\n        /* \"#utility.yul\":3943:3989   */\n      tag_263\n      jump\t// in\n    tag_262:\n        /* \"#utility.yul\":4021:4025   */\n      0x20\n        /* \"#utility.yul\":4016:4019   */\n      dup4\n        /* \"#utility.yul\":4012:4026   */\n      add\n        /* \"#utility.yul\":3998:4026   */\n      swap1\n      pop\n        /* \"#utility.yul\":3853:4032   */\n      swap3\n      swap2\n      pop\n      pop\n      jump\t// out\n        /* \"#utility.yul\":4038:4146   */\n    tag_263:\n        /* \"#utility.yul\":4115:4139   */\n      tag_265\n        /* \"#utility.yul\":4133:4138   */\n      dup2\n        /* \"#utility.yul\":4115:4139   */\n      tag_266\n      jump\t// in\n    tag_265:\n        /* \"#utility.yul\":4110:4113   */\n      dup3\n        /* \"#utility.yul\":4103:4140   */\n      mstore\n        /* \"#utility.yul\":4038:4146   */\n      pop\n      pop\n      jump\t// out\n        /* \"#utility.yul\":4152:4270   */\n    tag_267:\n        /* \"#utility.yul\":4239:4263   */\n      tag_269\n        /* \"#utility.yul\":4257:4262   */\n      dup2\n        /* \"#utility.yul\":4239:4263   */\n      tag_266\n      jump\t// in\n    tag_269:\n        /* \"#utility.yul\":4234:4237   */\n      dup3\n        /* \"#utility.yul\":4227:4264   */\n      mstore\n        /* \"#utility.yul\":4152:4270   */\n      pop\n      pop\n      jump\t// out\n        /* \"#utility.yul\":4306:5005   */\n    tag_270:\n        /* \"#utility.yul\":4435:4438   */\n      0x00\n        /* \"#utility.yul\":4458:4544   */\n      tag_272\n        /* \"#utility.yul\":4537:4543   */\n      dup4\n        /* \"#utility.yul\":4532:4535   */\n      dup6\n        /* \"#utility.yul\":4458:4544   */\n      tag_273\n      jump\t// in\n    tag_272:\n        /* \"#utility.yul\":4451:4544   */\n      swap4\n      pop\n        /* \"#utility.yul\":4568:4626   */\n      tag_274\n        /* \"#utility.yul\":4620:4625   */\n      dup3\n        /* \"#utility.yul\":4568:4626   */\n      tag_275\n      jump\t// in\n    tag_274:\n        /* \"#utility.yul\":4649:4656   */\n      dup1\n        /* \"#utility.yul\":4680:4681   */\n      0x00\n        /* \"#utility.yul\":4665:4980   */\n    tag_276:\n        /* \"#utility.yul\":4690:4696   */\n      dup6\n        /* \"#utility.yul\":4687:4688   */\n      dup2\n        /* \"#utility.yul\":4684:4697   */\n      lt\n        /* \"#utility.yul\":4665:4980   */\n      iszero\n      tag_278\n      jumpi\n        /* \"#utility.yul\":4760:4802   */\n      tag_279\n        /* \"#utility.yul\":4795:4801   */\n      dup3\n        /* \"#utility.yul\":4786:4793   */\n      dup5\n        /* \"#utility.yul\":4760:4802   */\n      tag_280\n      jump\t// in\n    tag_279:\n        /* \"#utility.yul\":4822:4885   */\n      tag_281\n        /* \"#utility.yul\":4881:4884   */\n      dup9\n        /* \"#utility.yul\":4866:4879   */\n      dup3\n        /* \"#utility.yul\":4822:4885   */\n      tag_260\n      jump\t// in\n    tag_281:\n        /* \"#utility.yul\":4815:4885   */\n      swap8\n      pop\n        /* \"#utility.yul\":4908:4970   */\n      tag_282\n        /* \"#utility.yul\":4963:4969   */\n      dup4\n        /* \"#utility.yul\":4908:4970   */\n      tag_283\n      jump\t// in\n    tag_282:\n        /* \"#utility.yul\":4898:4970   */\n      swap3\n      pop\n        /* \"#utility.yul\":4725:4980   */\n      pop\n        /* \"#utility.yul\":4712:4713   */\n      0x01\n        /* \"#utility.yul\":4709:4710   */\n      dup2\n        /* \"#utility.yul\":4705:4714   */\n      add\n        /* \"#utility.yul\":4700:4714   */\n      swap1\n      pop\n        /* \"#utility.yul\":4665:4980   */\n      jump(tag_276)\n    tag_278:\n        /* \"#utility.yul\":4669:4683   */\n      pop\n        /* \"#utility.yul\":4996:4999   */\n      dup6\n        /* \"#utility.yul\":4989:4999   */\n      swap3\n      pop\n        /* \"#utility.yul\":4440:5005   */\n      pop\n      pop\n        /* \"#utility.yul\":4306:5005   */\n      swap4\n      swap3\n      pop\n      pop\n      pop\n      jump\t// out\n        /* \"#utility.yul\":5011:5120   */\n    tag_284:\n        /* \"#utility.yul\":5092:5113   */\n      tag_286\n        /* \"#utility.yul\":5107:5112   */\n      dup2\n        /* \"#utility.yul\":5092:5113   */\n      tag_287\n      jump\t// in\n    tag_286:\n        /* \"#utility.yul\":5087:5090   */\n      dup3\n        /* \"#utility.yul\":5080:5114   */\n      mstore\n        /* \"#utility.yul\":5011:5120   */\n      pop\n      pop\n      jump\t// out\n        /* \"#utility.yul\":5126:5490   */\n    tag_288:\n        /* \"#utility.yul\":5214:5217   */\n      0x00\n        /* \"#utility.yul\":5242:5281   */\n      tag_290\n        /* \"#utility.yul\":5275:5280   */\n      dup3\n        /* \"#utility.yul\":5242:5281   */\n      tag_291\n      jump\t// in\n    tag_290:\n        /* \"#utility.yul\":5297:5368   */\n      tag_292\n        /* \"#utility.yul\":5361:5367   */\n      dup2\n        /* \"#utility.yul\":5356:5359   */\n      dup6\n        /* \"#utility.yul\":5297:5368   */\n      tag_293\n      jump\t// in\n    tag_292:\n        /* \"#utility.yul\":5290:5368   */\n      swap4\n      pop\n        /* \"#utility.yul\":5377:5429   */\n      tag_294\n        /* \"#utility.yul\":5422:5428   */\n      dup2\n        /* \"#utility.yul\":5417:5420   */\n      dup6\n        /* \"#utility.yul\":5410:5414   */\n      0x20\n        /* \"#utility.yul\":5403:5408   */\n      dup7\n        /* \"#utility.yul\":5399:5415   */\n      add\n        /* \"#utility.yul\":5377:5429   */\n      tag_295\n      jump\t// in\n    tag_294:\n        /* \"#utility.yul\":5454:5483   */\n      tag_296\n        /* \"#utility.yul\":5476:5482   */\n      dup2\n        /* \"#utility.yul\":5454:5483   */\n      tag_297\n      jump\t// in\n    tag_296:\n        /* \"#utility.yul\":5449:5452   */\n      dup5\n        /* \"#utility.yul\":5445:5484   */\n      add\n        /* \"#utility.yul\":5438:5484   */\n      swap2\n      pop\n        /* \"#utility.yul\":5218:5490   */\n      pop\n        /* \"#utility.yul\":5126:5490   */\n      swap3\n      swap2\n      pop\n      pop\n      jump\t// out\n        /* \"#utility.yul\":5496:5862   */\n    tag_298:\n        /* \"#utility.yul\":5638:5641   */\n      0x00\n        /* \"#utility.yul\":5659:5726   */\n      tag_300\n        /* \"#utility.yul\":5723:5725   */\n      0x23\n        /* \"#utility.yul\":5718:5721   */\n      dup4\n        /* \"#utility.yul\":5659:5726   */\n      tag_293\n      jump\t// in\n    tag_300:\n        /* \"#utility.yul\":5652:5726   */\n      swap2\n      pop\n        /* \"#utility.yul\":5735:5828   */\n      tag_301\n        /* \"#utility.yul\":5824:5827   */\n      dup3\n        /* \"#utility.yul\":5735:5828   */\n      tag_302\n      jump\t// in\n    tag_301:\n        /* \"#utility.yul\":5853:5855   */\n      0x40\n        /* \"#utility.yul\":5848:5851   */\n      dup3\n        /* \"#utility.yul\":5844:5856   */\n      add\n        /* \"#utility.yul\":5837:5856   */\n      swap1\n      pop\n        /* \"#utility.yul\":5496:5862   */\n      swap2\n      swap1\n      pop\n      jump\t// out\n        /* \"#utility.yul\":5868:6234   */\n    tag_303:\n        /* \"#utility.yul\":6010:6013   */\n      0x00\n        /* \"#utility.yul\":6031:6098   */\n      tag_305\n        /* \"#utility.yul\":6095:6097   */\n      0x22\n        /* \"#utility.yul\":6090:6093   */\n      dup4\n        /* \"#utility.yul\":6031:6098   */\n      tag_293\n      jump\t// in\n    tag_305:\n        /* \"#utility.yul\":6024:6098   */\n      swap2\n      pop\n        /* \"#utility.yul\":6107:6200   */\n      tag_306\n        /* \"#utility.yul\":6196:6199   */\n      dup3\n        /* \"#utility.yul\":6107:6200   */\n      tag_307\n      jump\t// in\n    tag_306:\n        /* \"#utility.yul\":6225:6227   */\n      0x40\n        /* \"#utility.yul\":6220:6223   */\n      dup3\n        /* \"#utility.yul\":6216:6228   */\n      add\n        /* \"#utility.yul\":6209:6228   */\n      swap1\n      pop\n        /* \"#utility.yul\":5868:6234   */\n      swap2\n      swap1\n      pop\n      jump\t// out\n        /* \"#utility.yul\":6240:6606   */\n    tag_308:\n        /* \"#utility.yul\":6382:6385   */\n      0x00\n        /* \"#utility.yul\":6403:6470   */\n      tag_310\n        /* \"#utility.yul\":6467:6469   */\n      0x1d\n        /* \"#utility.yul\":6462:6465   */\n      dup4\n        /* \"#utility.yul\":6403:6470   */\n      tag_293\n      jump\t// in\n    tag_310:\n        /* \"#utility.yul\":6396:6470   */\n      swap2\n      pop\n        /* \"#utility.yul\":6479:6572   */\n      tag_311\n        /* \"#utility.yul\":6568:6571   */\n      dup3\n        /* \"#utility.yul\":6479:6572   */\n      tag_312\n      jump\t// in\n    tag_311:\n        /* \"#utility.yul\":6597:6599   */\n      0x20\n        /* \"#utility.yul\":6592:6595   */\n      dup3\n        /* \"#utility.yul\":6588:6600   */\n      add\n        /* \"#utility.yul\":6581:6600   */\n      swap1\n      pop\n        /* \"#utility.yul\":6240:6606   */\n      swap2\n      swap1\n      pop\n      jump\t// out\n        /* \"#utility.yul\":6612:6978   */\n    tag_313:\n        /* \"#utility.yul\":6754:6757   */\n      0x00\n        /* \"#utility.yul\":6775:6842   */\n      tag_315\n        /* \"#utility.yul\":6839:6841   */\n      0x26\n        /* \"#utility.yul\":6834:6837   */\n      dup4\n        /* \"#utility.yul\":6775:6842   */\n      tag_293\n      jump\t// in\n    tag_315:\n        /* \"#utility.yul\":6768:6842   */\n      swap2\n      pop\n        /* \"#utility.yul\":6851:6944   */\n      tag_316\n        /* \"#utility.yul\":6940:6943   */\n      dup3\n        /* \"#utility.yul\":6851:6944   */\n      tag_317\n      jump\t// in\n    tag_316:\n        /* \"#utility.yul\":6969:6971   */\n      0x40\n        /* \"#utility.yul\":6964:6967   */\n      dup3\n        /* \"#utility.yul\":6960:6972   */\n      add\n        /* \"#utility.yul\":6953:6972   */\n      swap1\n      pop\n        /* \"#utility.yul\":6612:6978   */\n      swap2\n      swap1\n      pop\n      jump\t// out\n        /* \"#utility.yul\":6984:7350   */\n    tag_318:\n        /* \"#utility.yul\":7126:7129   */\n      0x00\n        /* \"#utility.yul\":7147:7214   */\n      tag_320\n        /* \"#utility.yul\":7211:7213   */\n      0x15\n        /* \"#utility.yul\":7206:7209   */\n      dup4\n        /* \"#utility.yul\":7147:7214   */\n      tag_293\n      jump\t// in\n    tag_320:\n        /* \"#utility.yul\":7140:7214   */\n      swap2\n      pop\n        /* \"#utility.yul\":7223:7316   */\n      tag_321\n        /* \"#utility.yul\":7312:7315   */\n      dup3\n        /* \"#utility.yul\":7223:7316   */\n      tag_322\n      jump\t// in\n    tag_321:\n        /* \"#utility.yul\":7341:7343   */\n      0x20\n        /* \"#utility.yul\":7336:7339   */\n      dup3\n        /* \"#utility.yul\":7332:7344   */\n      add\n        /* \"#utility.yul\":7325:7344   */\n      swap1\n      pop\n        /* \"#utility.yul\":6984:7350   */\n      swap2\n      swap1\n      pop\n      jump\t// out\n        /* \"#utility.yul\":7356:7722   */\n    tag_323:\n        /* \"#utility.yul\":7498:7501   */\n      0x00\n        /* \"#utility.yul\":7519:7586   */\n      tag_325\n        /* \"#utility.yul\":7583:7585   */\n      0x25\n        /* \"#utility.yul\":7578:7581   */\n      dup4\n        /* \"#utility.yul\":7519:7586   */\n      tag_293\n      jump\t// in\n    tag_325:\n        /* \"#utility.yul\":7512:7586   */\n      swap2\n      pop\n        /* \"#utility.yul\":7595:7688   */\n      tag_326\n        /* \"#utility.yul\":7684:7687   */\n      dup3\n        /* \"#utility.yul\":7595:7688   */\n      tag_327\n      jump\t// in\n    tag_326:\n        /* \"#utility.yul\":7713:7715   */\n      0x40\n        /* \"#utility.yul\":7708:7711   */\n      dup3\n        /* \"#utility.yul\":7704:7716   */\n      add\n        /* \"#utility.yul\":7697:7716   */\n      swap1\n      pop\n        /* \"#utility.yul\":7356:7722   */\n      swap2\n      swap1\n      pop\n      jump\t// out\n        /* \"#utility.yul\":7728:8094   */\n    tag_328:\n        /* \"#utility.yul\":7870:7873   */\n      0x00\n        /* \"#utility.yul\":7891:7958   */\n      tag_330\n        /* \"#utility.yul\":7955:7957   */\n      0x24\n        /* \"#utility.yul\":7950:7953   */\n      dup4\n        /* \"#utility.yul\":7891:7958   */\n      tag_293\n      jump\t// in\n    tag_330:\n        /* \"#utility.yul\":7884:7958   */\n      swap2\n      pop\n        /* \"#utility.yul\":7967:8060   */\n      tag_331\n        /* \"#utility.yul\":8056:8059   */\n      dup3\n        /* \"#utility.yul\":7967:8060   */\n      tag_332\n      jump\t// in\n    tag_331:\n        /* \"#utility.yul\":8085:8087   */\n      0x40\n        /* \"#utility.yul\":8080:8083   */\n      dup3\n        /* \"#utility.yul\":8076:8088   */\n      add\n        /* \"#utility.yul\":8069:8088   */\n      swap1\n      pop\n        /* \"#utility.yul\":7728:8094   */\n      swap2\n      swap1\n      pop\n      jump\t// out\n        /* \"#utility.yul\":8100:8466   */\n    tag_333:\n        /* \"#utility.yul\":8242:8245   */\n      0x00\n        /* \"#utility.yul\":8263:8330   */\n      tag_335\n        /* \"#utility.yul\":8327:8329   */\n      0x25\n        /* \"#utility.yul\":8322:8325   */\n      dup4\n        /* \"#utility.yul\":8263:8330   */\n      tag_293\n      jump\t// in\n    tag_335:\n        /* \"#utility.yul\":8256:8330   */\n      swap2\n      pop\n        /* \"#utility.yul\":8339:8432   */\n      tag_336\n        /* \"#utility.yul\":8428:8431   */\n      dup3\n        /* \"#utility.yul\":8339:8432   */\n      tag_337\n      jump\t// in\n    tag_336:\n        /* \"#utility.yul\":8457:8459   */\n      0x40\n        /* \"#utility.yul\":8452:8455   */\n      dup3\n        /* \"#utility.yul\":8448:8460   */\n      add\n        /* \"#utility.yul\":8441:8460   */\n      swap1\n      pop\n        /* \"#utility.yul\":8100:8466   */\n      swap2\n      swap1\n      pop\n      jump\t// out\n        /* \"#utility.yul\":8472:8838   */\n    tag_338:\n        /* \"#utility.yul\":8614:8617   */\n      0x00\n        /* \"#utility.yul\":8635:8702   */\n      tag_340\n        /* \"#utility.yul\":8699:8701   */\n      0x1f\n        /* \"#utility.yul\":8694:8697   */\n      dup4\n        /* \"#utility.yul\":8635:8702   */\n      tag_293\n      jump\t// in\n    tag_340:\n        /* \"#utility.yul\":8628:8702   */\n      swap2\n      pop\n        /* \"#utility.yul\":8711:8804   */\n      tag_341\n        /* \"#utility.yul\":8800:8803   */\n      dup3\n        /* \"#utility.yul\":8711:8804   */\n      tag_342\n      jump\t// in\n    tag_341:\n        /* \"#utility.yul\":8829:8831   */\n      0x20\n        /* \"#utility.yul\":8824:8827   */\n      dup3\n        /* \"#utility.yul\":8820:8832   */\n      add\n        /* \"#utility.yul\":8813:8832   */\n      swap1\n      pop\n        /* \"#utility.yul\":8472:8838   */\n      swap2\n      swap1\n      pop\n      jump\t// out\n        /* \"#utility.yul\":8844:8962   */\n    tag_343:\n        /* \"#utility.yul\":8931:8955   */\n      tag_345\n        /* \"#utility.yul\":8949:8954   */\n      dup2\n        /* \"#utility.yul\":8931:8955   */\n      tag_346\n      jump\t// in\n    tag_345:\n        /* \"#utility.yul\":8926:8929   */\n      dup3\n        /* \"#utility.yul\":8919:8956   */\n      mstore\n        /* \"#utility.yul\":8844:8962   */\n      pop\n      pop\n      jump\t// out\n        /* \"#utility.yul\":8968:9080   */\n    tag_347:\n        /* \"#utility.yul\":9051:9073   */\n      tag_349\n        /* \"#utility.yul\":9067:9072   */\n      dup2\n        /* \"#utility.yul\":9051:9073   */\n      tag_350\n      jump\t// in\n    tag_349:\n        /* \"#utility.yul\":9046:9049   */\n      dup3\n        /* \"#utility.yul\":9039:9074   */\n      mstore\n        /* \"#utility.yul\":8968:9080   */\n      pop\n      pop\n      jump\t// out\n        /* \"#utility.yul\":9086:9308   */\n    tag_33:\n        /* \"#utility.yul\":9179:9183   */\n      0x00\n        /* \"#utility.yul\":9217:9219   */\n      0x20\n        /* \"#utility.yul\":9206:9215   */\n      dup3\n        /* \"#utility.yul\":9202:9220   */\n      add\n        /* \"#utility.yul\":9194:9220   */\n      swap1\n      pop\n        /* \"#utility.yul\":9230:9301   */\n      tag_352\n        /* \"#utility.yul\":9298:9299   */\n      0x00\n        /* \"#utility.yul\":9287:9296   */\n      dup4\n        /* \"#utility.yul\":9283:9300   */\n      add\n        /* \"#utility.yul\":9274:9280   */\n      dup5\n        /* \"#utility.yul\":9230:9301   */\n      tag_267\n      jump\t// in\n    tag_352:\n        /* \"#utility.yul\":9086:9308   */\n      swap3\n      swap2\n      pop\n      pop\n      jump\t// out\n        /* \"#utility.yul\":9314:9927   */\n    tag_111:\n        /* \"#utility.yul\":9523:9527   */\n      0x00\n        /* \"#utility.yul\":9561:9563   */\n      0x60\n        /* \"#utility.yul\":9550:9559   */\n      dup3\n        /* \"#utility.yul\":9546:9564   */\n      add\n        /* \"#utility.yul\":9538:9564   */\n      swap1\n      pop\n        /* \"#utility.yul\":9574:9645   */\n      tag_354\n        /* \"#utility.yul\":9642:9643   */\n      0x00\n        /* \"#utility.yul\":9631:9640   */\n      dup4\n        /* \"#utility.yul\":9627:9644   */\n      add\n        /* \"#utility.yul\":9618:9624   */\n      dup8\n        /* \"#utility.yul\":9574:9645   */\n      tag_267\n      jump\t// in\n    tag_354:\n        /* \"#utility.yul\":9692:9701   */\n      dup2\n        /* \"#utility.yul\":9686:9690   */\n      dup2\n        /* \"#utility.yul\":9682:9702   */\n      sub\n        /* \"#utility.yul\":9677:9679   */\n      0x20\n        /* \"#utility.yul\":9666:9675   */\n      dup4\n        /* \"#utility.yul\":9662:9680   */\n      add\n        /* \"#utility.yul\":9655:9703   */\n      mstore\n        /* \"#utility.yul\":9720:9838   */\n      tag_355\n        /* \"#utility.yul\":9833:9837   */\n      dup2\n        /* \"#utility.yul\":9824:9830   */\n      dup6\n        /* \"#utility.yul\":9816:9822   */\n      dup8\n        /* \"#utility.yul\":9720:9838   */\n      tag_270\n      jump\t// in\n    tag_355:\n        /* \"#utility.yul\":9712:9838   */\n      swap1\n      pop\n        /* \"#utility.yul\":9848:9920   */\n      tag_356\n        /* \"#utility.yul\":9916:9918   */\n      0x40\n        /* \"#utility.yul\":9905:9914   */\n      dup4\n        /* \"#utility.yul\":9901:9919   */\n      add\n        /* \"#utility.yul\":9892:9898   */\n      dup5\n        /* \"#utility.yul\":9848:9920   */\n      tag_343\n      jump\t// in\n    tag_356:\n        /* \"#utility.yul\":9314:9927   */\n      swap6\n      swap5\n      pop\n      pop\n      pop\n      pop\n      pop\n      jump\t// out\n        /* \"#utility.yul\":9933:10143   */\n    tag_39:\n        /* \"#utility.yul\":10020:10024   */\n      0x00\n        /* \"#utility.yul\":10058:10060   */\n      0x20\n        /* \"#utility.yul\":10047:10056   */\n      dup3\n        /* \"#utility.yul\":10043:10061   */\n      add\n        /* \"#utility.yul\":10035:10061   */\n      swap1\n      pop\n        /* \"#utility.yul\":10071:10136   */\n      tag_358\n        /* \"#utility.yul\":10133:10134   */\n      0x00\n        /* \"#utility.yul\":10122:10131   */\n      dup4\n        /* \"#utility.yul\":10118:10135   */\n      add\n        /* \"#utility.yul\":10109:10115   */\n      dup5\n        /* \"#utility.yul\":10071:10136   */\n      tag_284\n      jump\t// in\n    tag_358:\n        /* \"#utility.yul\":9933:10143   */\n      swap3\n      swap2\n      pop\n      pop\n      jump\t// out\n        /* \"#utility.yul\":10149:10462   */\n    tag_29:\n        /* \"#utility.yul\":10262:10266   */\n      0x00\n        /* \"#utility.yul\":10300:10302   */\n      0x20\n        /* \"#utility.yul\":10289:10298   */\n      dup3\n        /* \"#utility.yul\":10285:10303   */\n      add\n        /* \"#utility.yul\":10277:10303   */\n      swap1\n      pop\n        /* \"#utility.yul\":10349:10358   */\n      dup2\n        /* \"#utility.yul\":10343:10347   */\n      dup2\n        /* \"#utility.yul\":10339:10359   */\n      sub\n        /* \"#utility.yul\":10335:10336   */\n      0x00\n        /* \"#utility.yul\":10324:10333   */\n      dup4\n        /* \"#utility.yul\":10320:10337   */\n      add\n        /* \"#utility.yul\":10313:10360   */\n      mstore\n        /* \"#utility.yul\":10377:10455   */\n      tag_360\n        /* \"#utility.yul\":10450:10454   */\n      dup2\n        /* \"#utility.yul\":10441:10447   */\n      dup5\n        /* \"#utility.yul\":10377:10455   */\n      tag_288\n      jump\t// in\n    tag_360:\n        /* \"#utility.yul\":10369:10455   */\n      swap1\n      pop\n        /* \"#utility.yul\":10149:10462   */\n      swap3\n      swap2\n      pop\n      pop\n      jump\t// out\n        /* \"#utility.yul\":10468:10887   */\n    tag_170:\n        /* \"#utility.yul\":10634:10638   */\n      0x00\n        /* \"#utility.yul\":10672:10674   */\n      0x20\n        /* \"#utility.yul\":10661:10670   */\n      dup3\n        /* \"#utility.yul\":10657:10675   */\n      add\n        /* \"#utility.yul\":10649:10675   */\n      swap1\n      pop\n        /* \"#utility.yul\":10721:10730   */\n      dup2\n        /* \"#utility.yul\":10715:10719   */\n      dup2\n        /* \"#utility.yul\":10711:10731   */\n      sub\n        /* \"#utility.yul\":10707:10708   */\n      0x00\n        /* \"#utility.yul\":10696:10705   */\n      dup4\n        /* \"#utility.yul\":10692:10709   */\n      add\n        /* \"#utility.yul\":10685:10732   */\n      mstore\n        /* \"#utility.yul\":10749:10880   */\n      tag_362\n        /* \"#utility.yul\":10875:10879   */\n      dup2\n        /* \"#utility.yul\":10749:10880   */\n      tag_298\n      jump\t// in\n    tag_362:\n        /* \"#utility.yul\":10741:10880   */\n      swap1\n      pop\n        /* \"#utility.yul\":10468:10887   */\n      swap2\n      swap1\n      pop\n      jump\t// out\n        /* \"#utility.yul\":10893:11312   */\n    tag_187:\n        /* \"#utility.yul\":11059:11063   */\n      0x00\n        /* \"#utility.yul\":11097:11099   */\n      0x20\n        /* \"#utility.yul\":11086:11095   */\n      dup3\n        /* \"#utility.yul\":11082:11100   */\n      add\n        /* \"#utility.yul\":11074:11100   */\n      swap1\n      pop\n        /* \"#utility.yul\":11146:11155   */\n      dup2\n        /* \"#utility.yul\":11140:11144   */\n      dup2\n        /* \"#utility.yul\":11136:11156   */\n      sub\n        /* \"#utility.yul\":11132:11133   */\n      0x00\n        /* \"#utility.yul\":11121:11130   */\n      dup4\n        /* \"#utility.yul\":11117:11134   */\n      add\n        /* \"#utility.yul\":11110:11157   */\n      mstore\n        /* \"#utility.yul\":11174:11305   */\n      tag_364\n        /* \"#utility.yul\":11300:11304   */\n      dup2\n        /* \"#utility.yul\":11174:11305   */\n      tag_303\n      jump\t// in\n    tag_364:\n        /* \"#utility.yul\":11166:11305   */\n      swap1\n      pop\n        /* \"#utility.yul\":10893:11312   */\n      swap2\n      swap1\n      pop\n      jump\t// out\n        /* \"#utility.yul\":11318:11737   */\n    tag_194:\n        /* \"#utility.yul\":11484:11488   */\n      0x00\n        /* \"#utility.yul\":11522:11524   */\n      0x20\n        /* \"#utility.yul\":11511:11520   */\n      dup3\n        /* \"#utility.yul\":11507:11525   */\n      add\n        /* \"#utility.yul\":11499:11525   */\n      swap1\n      pop\n        /* \"#utility.yul\":11571:11580   */\n      dup2\n        /* \"#utility.yul\":11565:11569   */\n      dup2\n        /* \"#utility.yul\":11561:11581   */\n      sub\n        /* \"#utility.yul\":11557:11558   */\n      0x00\n        /* \"#utility.yul\":11546:11555   */\n      dup4\n        /* \"#utility.yul\":11542:11559   */\n      add\n        /* \"#utility.yul\":11535:11582   */\n      mstore\n        /* \"#utility.yul\":11599:11730   */\n      tag_366\n        /* \"#utility.yul\":11725:11729   */\n      dup2\n        /* \"#utility.yul\":11599:11730   */\n      tag_308\n      jump\t// in\n    tag_366:\n        /* \"#utility.yul\":11591:11730   */\n      swap1\n      pop\n        /* \"#utility.yul\":11318:11737   */\n      swap2\n      swap1\n      pop\n      jump\t// out\n        /* \"#utility.yul\":11743:12162   */\n    tag_175:\n        /* \"#utility.yul\":11909:11913   */\n      0x00\n        /* \"#utility.yul\":11947:11949   */\n      0x20\n        /* \"#utility.yul\":11936:11945   */\n      dup3\n        /* \"#utility.yul\":11932:11950   */\n      add\n        /* \"#utility.yul\":11924:11950   */\n      swap1\n      pop\n        /* \"#utility.yul\":11996:12005   */\n      dup2\n        /* \"#utility.yul\":11990:11994   */\n      dup2\n        /* \"#utility.yul\":11986:12006   */\n      sub\n        /* \"#utility.yul\":11982:11983   */\n      0x00\n        /* \"#utility.yul\":11971:11980   */\n      dup4\n        /* \"#utility.yul\":11967:11984   */\n      add\n        /* \"#utility.yul\":11960:12007   */\n      mstore\n        /* \"#utility.yul\":12024:12155   */\n      tag_368\n        /* \"#utility.yul\":12150:12154   */\n      dup2\n        /* \"#utility.yul\":12024:12155   */\n      tag_313\n      jump\t// in\n    tag_368:\n        /* \"#utility.yul\":12016:12155   */\n      swap1\n      pop\n        /* \"#utility.yul\":11743:12162   */\n      swap2\n      swap1\n      pop\n      jump\t// out\n        /* \"#utility.yul\":12168:12587   */\n    tag_96:\n        /* \"#utility.yul\":12334:12338   */\n      0x00\n        /* \"#utility.yul\":12372:12374   */\n      0x20\n        /* \"#utility.yul\":12361:12370   */\n      dup3\n        /* \"#utility.yul\":12357:12375   */\n      add\n        /* \"#utility.yul\":12349:12375   */\n      swap1\n      pop\n        /* \"#utility.yul\":12421:12430   */\n      dup2\n        /* \"#utility.yul\":12415:12419   */\n      dup2\n        /* \"#utility.yul\":12411:12431   */\n      sub\n        /* \"#utility.yul\":12407:12408   */\n      0x00\n        /* \"#utility.yul\":12396:12405   */\n      dup4\n        /* \"#utility.yul\":12392:12409   */\n      add\n        /* \"#utility.yul\":12385:12432   */\n      mstore\n        /* \"#utility.yul\":12449:12580   */\n      tag_370\n        /* \"#utility.yul\":12575:12579   */\n      dup2\n        /* \"#utility.yul\":12449:12580   */\n      tag_318\n      jump\t// in\n    tag_370:\n        /* \"#utility.yul\":12441:12580   */\n      swap1\n      pop\n        /* \"#utility.yul\":12168:12587   */\n      swap2\n      swap1\n      pop\n      jump\t// out\n        /* \"#utility.yul\":12593:13012   */\n    tag_167:\n        /* \"#utility.yul\":12759:12763   */\n      0x00\n        /* \"#utility.yul\":12797:12799   */\n      0x20\n        /* \"#utility.yul\":12786:12795   */\n      dup3\n        /* \"#utility.yul\":12782:12800   */\n      add\n        /* \"#utility.yul\":12774:12800   */\n      swap1\n      pop\n        /* \"#utility.yul\":12846:12855   */\n      dup2\n        /* \"#utility.yul\":12840:12844   */\n      dup2\n        /* \"#utility.yul\":12836:12856   */\n      sub\n        /* \"#utility.yul\":12832:12833   */\n      0x00\n        /* \"#utility.yul\":12821:12830   */\n      dup4\n        /* \"#utility.yul\":12817:12834   */\n      add\n        /* \"#utility.yul\":12810:12857   */\n      mstore\n        /* \"#utility.yul\":12874:13005   */\n      tag_372\n        /* \"#utility.yul\":13000:13004   */\n      dup2\n        /* \"#utility.yul\":12874:13005   */\n      tag_323\n      jump\t// in\n    tag_372:\n        /* \"#utility.yul\":12866:13005   */\n      swap1\n      pop\n        /* \"#utility.yul\":12593:13012   */\n      swap2\n      swap1\n      pop\n      jump\t// out\n        /* \"#utility.yul\":13018:13437   */\n    tag_184:\n        /* \"#utility.yul\":13184:13188   */\n      0x00\n        /* \"#utility.yul\":13222:13224   */\n      0x20\n        /* \"#utility.yul\":13211:13220   */\n      dup3\n        /* \"#utility.yul\":13207:13225   */\n      add\n        /* \"#utility.yul\":13199:13225   */\n      swap1\n      pop\n        /* \"#utility.yul\":13271:13280   */\n      dup2\n        /* \"#utility.yul\":13265:13269   */\n      dup2\n        /* \"#utility.yul\":13261:13281   */\n      sub\n        /* \"#utility.yul\":13257:13258   */\n      0x00\n        /* \"#utility.yul\":13246:13255   */\n      dup4\n        /* \"#utility.yul\":13242:13259   */\n      add\n        /* \"#utility.yul\":13235:13282   */\n      mstore\n        /* \"#utility.yul\":13299:13430   */\n      tag_374\n        /* \"#utility.yul\":13425:13429   */\n      dup2\n        /* \"#utility.yul\":13299:13430   */\n      tag_328\n      jump\t// in\n    tag_374:\n        /* \"#utility.yul\":13291:13430   */\n      swap1\n      pop\n        /* \"#utility.yul\":13018:13437   */\n      swap2\n      swap1\n      pop\n      jump\t// out\n        /* \"#utility.yul\":13443:13862   */\n    tag_158:\n        /* \"#utility.yul\":13609:13613   */\n      0x00\n        /* \"#utility.yul\":13647:13649   */\n      0x20\n        /* \"#utility.yul\":13636:13645   */\n      dup3\n        /* \"#utility.yul\":13632:13650   */\n      add\n        /* \"#utility.yul\":13624:13650   */\n      swap1\n      pop\n        /* \"#utility.yul\":13696:13705   */\n      dup2\n        /* \"#utility.yul\":13690:13694   */\n      dup2\n        /* \"#utility.yul\":13686:13706   */\n      sub\n        /* \"#utility.yul\":13682:13683   */\n      0x00\n        /* \"#utility.yul\":13671:13680   */\n      dup4\n        /* \"#utility.yul\":13667:13684   */\n      add\n        /* \"#utility.yul\":13660:13707   */\n      mstore\n        /* \"#utility.yul\":13724:13855   */\n      tag_376\n        /* \"#utility.yul\":13850:13854   */\n      dup2\n        /* \"#utility.yul\":13724:13855   */\n      tag_333\n      jump\t// in\n    tag_376:\n        /* \"#utility.yul\":13716:13855   */\n      swap1\n      pop\n        /* \"#utility.yul\":13443:13862   */\n      swap2\n      swap1\n      pop\n      jump\t// out\n        /* \"#utility.yul\":13868:14287   */\n    tag_199:\n        /* \"#utility.yul\":14034:14038   */\n      0x00\n        /* \"#utility.yul\":14072:14074   */\n      0x20\n        /* \"#utility.yul\":14061:14070   */\n      dup3\n        /* \"#utility.yul\":14057:14075   */\n      add\n        /* \"#utility.yul\":14049:14075   */\n      swap1\n      pop\n        /* \"#utility.yul\":14121:14130   */\n      dup2\n        /* \"#utility.yul\":14115:14119   */\n      dup2\n        /* \"#utility.yul\":14111:14131   */\n      sub\n        /* \"#utility.yul\":14107:14108   */\n      0x00\n        /* \"#utility.yul\":14096:14105   */\n      dup4\n        /* \"#utility.yul\":14092:14109   */\n      add\n        /* \"#utility.yul\":14085:14132   */\n      mstore\n        /* \"#utility.yul\":14149:14280   */\n      tag_378\n        /* \"#utility.yul\":14275:14279   */\n      dup2\n        /* \"#utility.yul\":14149:14280   */\n      tag_338\n      jump\t// in\n    tag_378:\n        /* \"#utility.yul\":14141:14280   */\n      swap1\n      pop\n        /* \"#utility.yul\":13868:14287   */\n      swap2\n      swap1\n      pop\n      jump\t// out\n        /* \"#utility.yul\":14293:14515   */\n    tag_45:\n        /* \"#utility.yul\":14386:14390   */\n      0x00\n        /* \"#utility.yul\":14424:14426   */\n      0x20\n        /* \"#utility.yul\":14413:14422   */\n      dup3\n        /* \"#utility.yul\":14409:14427   */\n      add\n        /* \"#utility.yul\":14401:14427   */\n      swap1\n      pop\n        /* \"#utility.yul\":14437:14508   */\n      tag_380\n        /* \"#utility.yul\":14505:14506   */\n      0x00\n        /* \"#utility.yul\":14494:14503   */\n      dup4\n        /* \"#utility.yul\":14490:14507   */\n      add\n        /* \"#utility.yul\":14481:14487   */\n      dup5\n        /* \"#utility.yul\":14437:14508   */\n      tag_343\n      jump\t// in\n    tag_380:\n        /* \"#utility.yul\":14293:14515   */\n      swap3\n      swap2\n      pop\n      pop\n      jump\t// out\n        /* \"#utility.yul\":14521:14735   */\n    tag_57:\n        /* \"#utility.yul\":14610:14614   */\n      0x00\n        /* \"#utility.yul\":14648:14650   */\n      0x20\n        /* \"#utility.yul\":14637:14646   */\n      dup3\n        /* \"#utility.yul\":14633:14651   */\n      add\n        /* \"#utility.yul\":14625:14651   */\n      swap1\n      pop\n        /* \"#utility.yul\":14661:14728   */\n      tag_382\n        /* \"#utility.yul\":14725:14726   */\n      0x00\n        /* \"#utility.yul\":14714:14723   */\n      dup4\n        /* \"#utility.yul\":14710:14727   */\n      add\n        /* \"#utility.yul\":14701:14707   */\n      dup5\n        /* \"#utility.yul\":14661:14728   */\n      tag_347\n      jump\t// in\n    tag_382:\n        /* \"#utility.yul\":14521:14735   */\n      swap3\n      swap2\n      pop\n      pop\n      jump\t// out\n        /* \"#utility.yul\":14822:14924   */\n    tag_275:\n        /* \"#utility.yul\":14891:14895   */\n      0x00\n        /* \"#utility.yul\":14914:14917   */\n      dup2\n        /* \"#utility.yul\":14906:14917   */\n      swap1\n      pop\n        /* \"#utility.yul\":14822:14924   */\n      swap2\n      swap1\n      pop\n      jump\t// out\n        /* \"#utility.yul\":14930:15029   */\n    tag_291:\n        /* \"#utility.yul\":14982:14988   */\n      0x00\n        /* \"#utility.yul\":15016:15021   */\n      dup2\n        /* \"#utility.yul\":15010:15022   */\n      mload\n        /* \"#utility.yul\":15000:15022   */\n      swap1\n      pop\n        /* \"#utility.yul\":14930:15029   */\n      swap2\n      swap1\n      pop\n      jump\t// out\n        /* \"#utility.yul\":15035:15150   */\n    tag_283:\n        /* \"#utility.yul\":15107:15111   */\n      0x00\n        /* \"#utility.yul\":15139:15143   */\n      0x20\n        /* \"#utility.yul\":15134:15137   */\n      dup3\n        /* \"#utility.yul\":15130:15144   */\n      add\n        /* \"#utility.yul\":15122:15144   */\n      swap1\n      pop\n        /* \"#utility.yul\":15035:15150   */\n      swap2\n      swap1\n      pop\n      jump\t// out\n        /* \"#utility.yul\":15156:15340   */\n    tag_273:\n        /* \"#utility.yul\":15255:15266   */\n      0x00\n        /* \"#utility.yul\":15289:15295   */\n      dup3\n        /* \"#utility.yul\":15284:15287   */\n      dup3\n        /* \"#utility.yul\":15277:15296   */\n      mstore\n        /* \"#utility.yul\":15329:15333   */\n      0x20\n        /* \"#utility.yul\":15324:15327   */\n      dup3\n        /* \"#utility.yul\":15320:15334   */\n      add\n        /* \"#utility.yul\":15305:15334   */\n      swap1\n      pop\n        /* \"#utility.yul\":15156:15340   */\n      swap3\n      swap2\n      pop\n      pop\n      jump\t// out\n        /* \"#utility.yul\":15346:15515   */\n    tag_293:\n        /* \"#utility.yul\":15430:15441   */\n      0x00\n        /* \"#utility.yul\":15464:15470   */\n      dup3\n        /* \"#utility.yul\":15459:15462   */\n      dup3\n        /* \"#utility.yul\":15452:15471   */\n      mstore\n        /* \"#utility.yul\":15504:15508   */\n      0x20\n        /* \"#utility.yul\":15499:15502   */\n      dup3\n        /* \"#utility.yul\":15495:15509   */\n      add\n        /* \"#utility.yul\":15480:15509   */\n      swap1\n      pop\n        /* \"#utility.yul\":15346:15515   */\n      swap3\n      swap2\n      pop\n      pop\n      jump\t// out\n        /* \"#utility.yul\":15521:15643   */\n    tag_280:\n        /* \"#utility.yul\":15573:15578   */\n      0x00\n        /* \"#utility.yul\":15598:15637   */\n      tag_391\n        /* \"#utility.yul\":15633:15635   */\n      0x20\n        /* \"#utility.yul\":15628:15631   */\n      dup5\n        /* \"#utility.yul\":15624:15636   */\n      add\n        /* \"#utility.yul\":15619:15622   */\n      dup5\n        /* \"#utility.yul\":15598:15637   */\n      tag_208\n      jump\t// in\n    tag_391:\n        /* \"#utility.yul\":15589:15637   */\n      swap1\n      pop\n        /* \"#utility.yul\":15521:15643   */\n      swap3\n      swap2\n      pop\n      pop\n      jump\t// out\n        /* \"#utility.yul\":15649:15954   */\n    tag_107:\n        /* \"#utility.yul\":15689:15692   */\n      0x00\n        /* \"#utility.yul\":15708:15728   */\n      tag_393\n        /* \"#utility.yul\":15726:15727   */\n      dup3\n        /* \"#utility.yul\":15708:15728   */\n      tag_346\n      jump\t// in\n    tag_393:\n        /* \"#utility.yul\":15703:15728   */\n      swap2\n      pop\n        /* \"#utility.yul\":15742:15762   */\n      tag_394\n        /* \"#utility.yul\":15760:15761   */\n      dup4\n        /* \"#utility.yul\":15742:15762   */\n      tag_346\n      jump\t// in\n    tag_394:\n        /* \"#utility.yul\":15737:15762   */\n      swap3\n      pop\n        /* \"#utility.yul\":15896:15897   */\n      dup3\n        /* \"#utility.yul\":15828:15894   */\n      0xffffffffffffffffffffffffffffffffffffffffffffffffffffffffffffffff\n        /* \"#utility.yul\":15824:15898   */\n      sub\n        /* \"#utility.yul\":15821:15822   */\n      dup3\n        /* \"#utility.yul\":15818:15899   */\n      gt\n        /* \"#utility.yul\":15815:15922   */\n      iszero\n      tag_395\n      jumpi\n        /* \"#utility.yul\":15902:15920   */\n      tag_396\n      tag_397\n      jump\t// in\n    tag_396:\n        /* \"#utility.yul\":15815:15922   */\n    tag_395:\n        /* \"#utility.yul\":15946:15947   */\n      dup3\n        /* \"#utility.yul\":15943:15944   */\n      dup3\n        /* \"#utility.yul\":15939:15948   */\n      add\n        /* \"#utility.yul\":15932:15948   */\n      swap1\n      pop\n        /* \"#utility.yul\":15649:15954   */\n      swap3\n      swap2\n      pop\n      pop\n      jump\t// out\n        /* \"#utility.yul\":15960:16308   */\n    tag_93:\n        /* \"#utility.yul\":16000:16007   */\n      0x00\n        /* \"#utility.yul\":16023:16043   */\n      tag_399\n        /* \"#utility.yul\":16041:16042   */\n      dup3\n        /* \"#utility.yul\":16023:16043   */\n      tag_346\n      jump\t// in\n    tag_399:\n        /* \"#utility.yul\":16018:16043   */\n      swap2\n      pop\n        /* \"#utility.yul\":16057:16077   */\n      tag_400\n        /* \"#utility.yul\":16075:16076   */\n      dup4\n        /* \"#utility.yul\":16057:16077   */\n      tag_346\n      jump\t// in\n    tag_400:\n        /* \"#utility.yul\":16052:16077   */\n      swap3\n      pop\n        /* \"#utility.yul\":16245:16246   */\n      dup2\n        /* \"#utility.yul\":16177:16243   */\n      0xffffffffffffffffffffffffffffffffffffffffffffffffffffffffffffffff\n        /* \"#utility.yul\":16173:16247   */\n      div\n        /* \"#utility.yul\":16170:16171   */\n      dup4\n        /* \"#utility.yul\":16167:16248   */\n      gt\n        /* \"#utility.yul\":16162:16163   */\n      dup3\n        /* \"#utility.yul\":16155:16164   */\n      iszero\n        /* \"#utility.yul\":16148:16165   */\n      iszero\n        /* \"#utility.yul\":16144:16249   */\n      and\n        /* \"#utility.yul\":16141:16272   */\n      iszero\n      tag_401\n      jumpi\n        /* \"#utility.yul\":16252:16270   */\n      tag_402\n      tag_397\n      jump\t// in\n    tag_402:\n        /* \"#utility.yul\":16141:16272   */\n    tag_401:\n        /* \"#utility.yul\":16300:16301   */\n      dup3\n        /* \"#utility.yul\":16297:16298   */\n      dup3\n        /* \"#utility.yul\":16293:16302   */\n      mul\n        /* \"#utility.yul\":16282:16302   */\n      swap1\n      pop\n        /* \"#utility.yul\":15960:16308   */\n      swap3\n      swap2\n      pop\n      pop\n      jump\t// out\n        /* \"#utility.yul\":16314:16410   */\n    tag_266:\n        /* \"#utility.yul\":16351:16358   */\n      0x00\n        /* \"#utility.yul\":16380:16404   */\n      tag_404\n        /* \"#utility.yul\":16398:16403   */\n      dup3\n        /* \"#utility.yul\":16380:16404   */\n      tag_405\n      jump\t// in\n    tag_404:\n        /* \"#utility.yul\":16369:16404   */\n      swap1\n      pop\n        /* \"#utility.yul\":16314:16410   */\n      swap2\n      swap1\n      pop\n      jump\t// out\n        /* \"#utility.yul\":16416:16506   */\n    tag_287:\n        /* \"#utility.yul\":16450:16457   */\n      0x00\n        /* \"#utility.yul\":16493:16498   */\n      dup2\n        /* \"#utility.yul\":16486:16499   */\n      iszero\n        /* \"#utility.yul\":16479:16500   */\n      iszero\n        /* \"#utility.yul\":16468:16500   */\n      swap1\n      pop\n        /* \"#utility.yul\":16416:16506   */\n      swap2\n      swap1\n      pop\n      jump\t// out\n        /* \"#utility.yul\":16512:16638   */\n    tag_405:\n        /* \"#utility.yul\":16549:16556   */\n      0x00\n        /* \"#utility.yul\":16589:16631   */\n      0xffffffffffffffffffffffffffffffffffffffff\n        /* \"#utility.yul\":16582:16587   */\n      dup3\n        /* \"#utility.yul\":16578:16632   */\n      and\n        /* \"#utility.yul\":16567:16632   */\n      swap1\n      pop\n        /* \"#utility.yul\":16512:16638   */\n      swap2\n      swap1\n      pop\n      jump\t// out\n        /* \"#utility.yul\":16644:16721   */\n    tag_346:\n        /* \"#utility.yul\":16681:16688   */\n      0x00\n        /* \"#utility.yul\":16710:16715   */\n      dup2\n        /* \"#utility.yul\":16699:16715   */\n      swap1\n      pop\n        /* \"#utility.yul\":16644:16721   */\n      swap2\n      swap1\n      pop\n      jump\t// out\n        /* \"#utility.yul\":16727:16813   */\n    tag_350:\n        /* \"#utility.yul\":16762:16769   */\n      0x00\n        /* \"#utility.yul\":16802:16806   */\n      0xff\n        /* \"#utility.yul\":16795:16800   */\n      dup3\n        /* \"#utility.yul\":16791:16807   */\n      and\n        /* \"#utility.yul\":16780:16807   */\n      swap1\n      pop\n        /* \"#utility.yul\":16727:16813   */\n      swap2\n      swap1\n      pop\n      jump\t// out\n        /* \"#utility.yul\":16819:17126   */\n    tag_295:\n        /* \"#utility.yul\":16887:16888   */\n      0x00\n        /* \"#utility.yul\":16897:17010   */\n    tag_411:\n        /* \"#utility.yul\":16911:16917   */\n      dup4\n        /* \"#utility.yul\":16908:16909   */\n      dup2\n        /* \"#utility.yul\":16905:16918   */\n      lt\n        /* \"#utility.yul\":16897:17010   */\n      iszero\n      tag_413\n      jumpi\n        /* \"#utility.yul\":16996:16997   */\n      dup1\n        /* \"#utility.yul\":16991:16994   */\n      dup3\n        /* \"#utility.yul\":16987:16998   */\n      add\n        /* \"#utility.yul\":16981:16999   */\n      mload\n        /* \"#utility.yul\":16977:16978   */\n      dup2\n        /* \"#utility.yul\":16972:16975   */\n      dup5\n        /* \"#utility.yul\":16968:16979   */\n      add\n        /* \"#utility.yul\":16961:17000   */\n      mstore\n        /* \"#utility.yul\":16933:16935   */\n      0x20\n        /* \"#utility.yul\":16930:16931   */\n      dup2\n        /* \"#utility.yul\":16926:16936   */\n      add\n        /* \"#utility.yul\":16921:16936   */\n      swap1\n      pop\n        /* \"#utility.yul\":16897:17010   */\n      jump(tag_411)\n    tag_413:\n        /* \"#utility.yul\":17028:17034   */\n      dup4\n        /* \"#utility.yul\":17025:17026   */\n      dup2\n        /* \"#utility.yul\":17022:17035   */\n      gt\n        /* \"#utility.yul\":17019:17120   */\n      iszero\n      tag_414\n      jumpi\n        /* \"#utility.yul\":17108:17109   */\n      0x00\n        /* \"#utility.yul\":17099:17105   */\n      dup5\n        /* \"#utility.yul\":17094:17097   */\n      dup5\n        /* \"#utility.yul\":17090:17106   */\n      add\n        /* \"#utility.yul\":17083:17110   */\n      mstore\n        /* \"#utility.yul\":17019:17120   */\n    tag_414:\n        /* \"#utility.yul\":16868:17126   */\n      pop\n        /* \"#utility.yul\":16819:17126   */\n      pop\n      pop\n      pop\n      jump\t// out\n        /* \"#utility.yul\":17132:17452   */\n    tag_114:\n        /* \"#utility.yul\":17176:17182   */\n      0x00\n        /* \"#utility.yul\":17213:17214   */\n      0x02\n        /* \"#utility.yul\":17207:17211   */\n      dup3\n        /* \"#utility.yul\":17203:17215   */\n      div\n        /* \"#utility.yul\":17193:17215   */\n      swap1\n      pop\n        /* \"#utility.yul\":17260:17261   */\n      0x01\n        /* \"#utility.yul\":17254:17258   */\n      dup3\n        /* \"#utility.yul\":17250:17262   */\n      and\n        /* \"#utility.yul\":17281:17299   */\n      dup1\n        /* \"#utility.yul\":17271:17352   */\n      tag_416\n      jumpi\n        /* \"#utility.yul\":17337:17341   */\n      0x7f\n        /* \"#utility.yul\":17329:17335   */\n      dup3\n        /* \"#utility.yul\":17325:17342   */\n      and\n        /* \"#utility.yul\":17315:17342   */\n      swap2\n      pop\n        /* \"#utility.yul\":17271:17352   */\n    tag_416:\n        /* \"#utility.yul\":17399:17401   */\n      0x20\n        /* \"#utility.yul\":17391:17397   */\n      dup3\n        /* \"#utility.yul\":17388:17402   */\n      lt\n        /* \"#utility.yul\":17368:17386   */\n      dup2\n        /* \"#utility.yul\":17365:17403   */\n      eq\n        /* \"#utility.yul\":17362:17446   */\n      iszero\n      tag_417\n      jumpi\n        /* \"#utility.yul\":17418:17436   */\n      tag_418\n      tag_419\n      jump\t// in\n    tag_418:\n        /* \"#utility.yul\":17362:17446   */\n    tag_417:\n        /* \"#utility.yul\":17183:17452   */\n      pop\n        /* \"#utility.yul\":17132:17452   */\n      swap2\n      swap1\n      pop\n      jump\t// out\n        /* \"#utility.yul\":17458:17691   */\n    tag_109:\n        /* \"#utility.yul\":17497:17500   */\n      0x00\n        /* \"#utility.yul\":17520:17544   */\n      tag_421\n        /* \"#utility.yul\":17538:17543   */\n      dup3\n        /* \"#utility.yul\":17520:17544   */\n      tag_346\n      jump\t// in\n    tag_421:\n        /* \"#utility.yul\":17511:17544   */\n      swap2\n      pop\n        /* \"#utility.yul\":17566:17632   */\n      0xffffffffffffffffffffffffffffffffffffffffffffffffffffffffffffffff\n        /* \"#utility.yul\":17559:17564   */\n      dup3\n        /* \"#utility.yul\":17556:17633   */\n      eq\n        /* \"#utility.yul\":17553:17656   */\n      iszero\n      tag_422\n      jumpi\n        /* \"#utility.yul\":17636:17654   */\n      tag_423\n      tag_397\n      jump\t// in\n    tag_423:\n        /* \"#utility.yul\":17553:17656   */\n    tag_422:\n        /* \"#utility.yul\":17683:17684   */\n      0x01\n        /* \"#utility.yul\":17676:17681   */\n      dup3\n        /* \"#utility.yul\":17672:17685   */\n      add\n        /* \"#utility.yul\":17665:17685   */\n      swap1\n      pop\n        /* \"#utility.yul\":17458:17691   */\n      swap2\n      swap1\n      pop\n      jump\t// out\n        /* \"#utility.yul\":17697:17877   */\n    tag_397:\n        /* \"#utility.yul\":17745:17822   */\n      0x4e487b7100000000000000000000000000000000000000000000000000000000\n        /* \"#utility.yul\":17742:17743   */\n      0x00\n        /* \"#utility.yul\":17735:17823   */\n      mstore\n        /* \"#utility.yul\":17842:17846   */\n      0x11\n        /* \"#utility.yul\":17839:17840   */\n      0x04\n        /* \"#utility.yul\":17832:17847   */\n      mstore\n        /* \"#utility.yul\":17866:17870   */\n      0x24\n        /* \"#utility.yul\":17863:17864   */\n      0x00\n        /* \"#utility.yul\":17856:17871   */\n      revert\n        /* \"#utility.yul\":17883:18063   */\n    tag_419:\n        /* \"#utility.yul\":17931:18008   */\n      0x4e487b7100000000000000000000000000000000000000000000000000000000\n        /* \"#utility.yul\":17928:17929   */\n      0x00\n        /* \"#utility.yul\":17921:18009   */\n      mstore\n        /* \"#utility.yul\":18028:18032   */\n      0x22\n        /* \"#utility.yul\":18025:18026   */\n      0x04\n        /* \"#utility.yul\":18018:18033   */\n      mstore\n        /* \"#utility.yul\":18052:18056   */\n      0x24\n        /* \"#utility.yul\":18049:18050   */\n      0x00\n        /* \"#utility.yul\":18042:18057   */\n      revert\n        /* \"#utility.yul\":18069:18249   */\n    tag_103:\n        /* \"#utility.yul\":18117:18194   */\n      0x4e487b7100000000000000000000000000000000000000000000000000000000\n        /* \"#utility.yul\":18114:18115   */\n      0x00\n        /* \"#utility.yul\":18107:18195   */\n      mstore\n        /* \"#utility.yul\":18214:18218   */\n      0x32\n        /* \"#utility.yul\":18211:18212   */\n      0x04\n        /* \"#utility.yul\":18204:18219   */\n      mstore\n        /* \"#utility.yul\":18238:18242   */\n      0x24\n        /* \"#utility.yul\":18235:18236   */\n      0x00\n        /* \"#utility.yul\":18228:18243   */\n      revert\n        /* \"#utility.yul\":18255:18372   */\n    tag_219:\n        /* \"#utility.yul\":18364:18365   */\n      0x00\n        /* \"#utility.yul\":18361:18362   */\n      dup1\n        /* \"#utility.yul\":18354:18366   */\n      revert\n        /* \"#utility.yul\":18378:18495   */\n    tag_216:\n        /* \"#utility.yul\":18487:18488   */\n      0x00\n        /* \"#utility.yul\":18484:18485   */\n      dup1\n        /* \"#utility.yul\":18477:18489   */\n      revert\n        /* \"#utility.yul\":18501:18618   */\n    tag_222:\n        /* \"#utility.yul\":18610:18611   */\n      0x00\n        /* \"#utility.yul\":18607:18608   */\n      dup1\n        /* \"#utility.yul\":18600:18612   */\n      revert\n        /* \"#utility.yul\":18624:18741   */\n    tag_253:\n        /* \"#utility.yul\":18733:18734   */\n      0x00\n        /* \"#utility.yul\":18730:18731   */\n      dup1\n        /* \"#utility.yul\":18723:18735   */\n      revert\n        /* \"#utility.yul\":18747:18864   */\n    tag_230:\n        /* \"#utility.yul\":18856:18857   */\n      0x00\n        /* \"#utility.yul\":18853:18854   */\n      dup1\n        /* \"#utility.yul\":18846:18858   */\n      revert\n        /* \"#utility.yul\":18870:18972   */\n    tag_297:\n        /* \"#utility.yul\":18911:18917   */\n      0x00\n        /* \"#utility.yul\":18962:18964   */\n      0x1f\n        /* \"#utility.yul\":18958:18965   */\n      not\n        /* \"#utility.yul\":18953:18955   */\n      0x1f\n        /* \"#utility.yul\":18946:18951   */\n      dup4\n        /* \"#utility.yul\":18942:18956   */\n      add\n        /* \"#utility.yul\":18938:18966   */\n      and\n        /* \"#utility.yul\":18928:18966   */\n      swap1\n      pop\n        /* \"#utility.yul\":18870:18972   */\n      swap2\n      swap1\n      pop\n      jump\t// out\n        /* \"#utility.yul\":18978:19200   */\n    tag_302:\n        /* \"#utility.yul\":19118:19152   */\n      0x45524332303a207472616e7366657220746f20746865207a65726f2061646472\n        /* \"#utility.yul\":19114:19115   */\n      0x00\n        /* \"#utility.yul\":19106:19112   */\n      dup3\n        /* \"#utility.yul\":19102:19116   */\n      add\n        /* \"#utility.yul\":19095:19153   */\n      mstore\n        /* \"#utility.yul\":19187:19192   */\n      0x6573730000000000000000000000000000000000000000000000000000000000\n        /* \"#utility.yul\":19182:19184   */\n      0x20\n        /* \"#utility.yul\":19174:19180   */\n      dup3\n        /* \"#utility.yul\":19170:19185   */\n      add\n        /* \"#utility.yul\":19163:19193   */\n      mstore\n        /* \"#utility.yul\":18978:19200   */\n      pop\n      jump\t// out\n        /* \"#utility.yul\":19206:19427   */\n    tag_307:\n        /* \"#utility.yul\":19346:19380   */\n      0x45524332303a20617070726f766520746f20746865207a65726f206164647265\n        /* \"#utility.yul\":19342:19343   */\n      0x00\n        /* \"#utility.yul\":19334:19340   */\n      dup3\n        /* \"#utility.yul\":19330:19344   */\n      add\n        /* \"#utility.yul\":19323:19381   */\n      mstore\n        /* \"#utility.yul\":19415:19419   */\n      0x7373000000000000000000000000000000000000000000000000000000000000\n        /* \"#utility.yul\":19410:19412   */\n      0x20\n        /* \"#utility.yul\":19402:19408   */\n      dup3\n        /* \"#utility.yul\":19398:19413   */\n      add\n        /* \"#utility.yul\":19391:19420   */\n      mstore\n        /* \"#utility.yul\":19206:19427   */\n      pop\n      jump\t// out\n        /* \"#utility.yul\":19433:19612   */\n    tag_312:\n        /* \"#utility.yul\":19573:19604   */\n      0x45524332303a20696e73756666696369656e7420616c6c6f77616e6365000000\n        /* \"#utility.yul\":19569:19570   */\n      0x00\n        /* \"#utility.yul\":19561:19567   */\n      dup3\n        /* \"#utility.yul\":19557:19571   */\n      add\n        /* \"#utility.yul\":19550:19605   */\n      mstore\n        /* \"#utility.yul\":19433:19612   */\n      pop\n      jump\t// out\n        /* \"#utility.yul\":19618:19843   */\n    tag_317:\n        /* \"#utility.yul\":19758:19792   */\n      0x45524332303a207472616e7366657220616d6f756e7420657863656564732062\n        /* \"#utility.yul\":19754:19755   */\n      0x00\n        /* \"#utility.yul\":19746:19752   */\n      dup3\n        /* \"#utility.yul\":19742:19756   */\n      add\n        /* \"#utility.yul\":19735:19793   */\n      mstore\n        /* \"#utility.yul\":19827:19835   */\n      0x616c616e63650000000000000000000000000000000000000000000000000000\n        /* \"#utility.yul\":19822:19824   */\n      0x20\n        /* \"#utility.yul\":19814:19820   */\n      dup3\n        /* \"#utility.yul\":19810:19825   */\n      add\n        /* \"#utility.yul\":19803:19836   */\n      mstore\n        /* \"#utility.yul\":19618:19843   */\n      pop\n      jump\t// out\n        /* \"#utility.yul\":19849:20020   */\n    tag_322:\n        /* \"#utility.yul\":19989:20012   */\n      0x496e73756666696369656e742062616c616e63652e0000000000000000000000\n        /* \"#utility.yul\":19985:19986   */\n      0x00\n        /* \"#utility.yul\":19977:19983   */\n      dup3\n        /* \"#utility.yul\":19973:19987   */\n      add\n        /* \"#utility.yul\":19966:20013   */\n      mstore\n        /* \"#utility.yul\":19849:20020   */\n      pop\n      jump\t// out\n        /* \"#utility.yul\":20026:20250   */\n    tag_327:\n        /* \"#utility.yul\":20166:20200   */\n      0x45524332303a207472616e736665722066726f6d20746865207a65726f206164\n        /* \"#utility.yul\":20162:20163   */\n      0x00\n        /* \"#utility.yul\":20154:20160   */\n      dup3\n        /* \"#utility.yul\":20150:20164   */\n      add\n        /* \"#utility.yul\":20143:20201   */\n      mstore\n        /* \"#utility.yul\":20235:20242   */\n      0x6472657373000000000000000000000000000000000000000000000000000000\n        /* \"#utility.yul\":20230:20232   */\n      0x20\n        /* \"#utility.yul\":20222:20228   */\n      dup3\n        /* \"#utility.yul\":20218:20233   */\n      add\n        /* \"#utility.yul\":20211:20243   */\n      mstore\n        /* \"#utility.yul\":20026:20250   */\n      pop\n      jump\t// out\n        /* \"#utility.yul\":20256:20479   */\n    tag_332:\n        /* \"#utility.yul\":20396:20430   */\n      0x45524332303a20617070726f76652066726f6d20746865207a65726f20616464\n        /* \"#utility.yul\":20392:20393   */\n      0x00\n        /* \"#utility.yul\":20384:20390   */\n      dup3\n        /* \"#utility.yul\":20380:20394   */\n      add\n        /* \"#utility.yul\":20373:20431   */\n      mstore\n        /* \"#utility.yul\":20465:20471   */\n      0x7265737300000000000000000000000000000000000000000000000000000000\n        /* \"#utility.yul\":20460:20462   */\n      0x20\n        /* \"#utility.yul\":20452:20458   */\n      dup3\n        /* \"#utility.yul\":20448:20463   */\n      add\n        /* \"#utility.yul\":20441:20472   */\n      mstore\n        /* \"#utility.yul\":20256:20479   */\n      pop\n      jump\t// out\n        /* \"#utility.yul\":20485:20709   */\n    tag_337:\n        /* \"#utility.yul\":20625:20659   */\n      0x45524332303a2064656372656173656420616c6c6f77616e63652062656c6f77\n        /* \"#utility.yul\":20621:20622   */\n      0x00\n        /* \"#utility.yul\":20613:20619   */\n      dup3\n        /* \"#utility.yul\":20609:20623   */\n      add\n        /* \"#utility.yul\":20602:20660   */\n      mstore\n        /* \"#utility.yul\":20694:20701   */\n      0x207a65726f000000000000000000000000000000000000000000000000000000\n        /* \"#utility.yul\":20689:20691   */\n      0x20\n        /* \"#utility.yul\":20681:20687   */\n      dup3\n        /* \"#utility.yul\":20677:20692   */\n      add\n        /* \"#utility.yul\":20670:20702   */\n      mstore\n        /* \"#utility.yul\":20485:20709   */\n      pop\n      jump\t// out\n        /* \"#utility.yul\":20715:20896   */\n    tag_342:\n        /* \"#utility.yul\":20855:20888   */\n      0x45524332303a206d696e7420746f20746865207a65726f206164647265737300\n        /* \"#utility.yul\":20851:20852   */\n      0x00\n        /* \"#utility.yul\":20843:20849   */\n      dup3\n        /* \"#utility.yul\":20839:20853   */\n      add\n        /* \"#utility.yul\":20832:20889   */\n      mstore\n        /* \"#utility.yul\":20715:20896   */\n      pop\n      jump\t// out\n        /* \"#utility.yul\":20902:21024   */\n    tag_211:\n        /* \"#utility.yul\":20975:20999   */\n      tag_443\n        /* \"#utility.yul\":20993:20998   */\n      dup2\n        /* \"#utility.yul\":20975:20999   */\n      tag_266\n      jump\t// in\n    tag_443:\n        /* \"#utility.yul\":20968:20973   */\n      dup2\n        /* \"#utility.yul\":20965:21000   */\n      eq\n        /* \"#utility.yul\":20955:21018   */\n      tag_444\n      jumpi\n        /* \"#utility.yul\":21014:21015   */\n      0x00\n        /* \"#utility.yul\":21011:21012   */\n      dup1\n        /* \"#utility.yul\":21004:21016   */\n      revert\n        /* \"#utility.yul\":20955:21018   */\n    tag_444:\n        /* \"#utility.yul\":20902:21024   */\n      pop\n      jump\t// out\n        /* \"#utility.yul\":21030:21152   */\n    tag_226:\n        /* \"#utility.yul\":21103:21127   */\n      tag_446\n        /* \"#utility.yul\":21121:21126   */\n      dup2\n        /* \"#utility.yul\":21103:21127   */\n      tag_346\n      jump\t// in\n    tag_446:\n        /* \"#utility.yul\":21096:21101   */\n      dup2\n        /* \"#utility.yul\":21093:21128   */\n      eq\n        /* \"#utility.yul\":21083:21146   */\n      tag_447\n      jumpi\n        /* \"#utility.yul\":21142:21143   */\n      0x00\n        /* \"#utility.yul\":21139:21140   */\n      dup1\n        /* \"#utility.yul\":21132:21144   */\n      revert\n        /* \"#utility.yul\":21083:21146   */\n    tag_447:\n        /* \"#utility.yul\":21030:21152   */\n      pop\n      jump\t// out\n\n    auxdata: 0xa26469706673582212204296438428f8d84d7c7895fa2e2a69db913addbb02b5569417d43d53ef0f098d64736f6c63430008070033\n}\n",
				"bytecode": {
					"linkReferences": {},
					"object": "60806040523480156200001157600080fd5b506040518060400160405280600a81526020017f4b62727520546f6b656e000000000000000000000000000000000000000000008152506040518060400160405280600481526020017f4b4252550000000000000000000000000000000000000000000000000000000081525081600390805190602001906200009692919062000299565b508060049080519060200190620000af92919062000299565b505050620000cf336a084595161401484a0000006200011660201b60201c565b33600560006101000a81548173ffffffffffffffffffffffffffffffffffffffff021916908373ffffffffffffffffffffffffffffffffffffffff160217905550620004f5565b600073ffffffffffffffffffffffffffffffffffffffff168273ffffffffffffffffffffffffffffffffffffffff16141562000189576040517f08c379a0000000000000000000000000000000000000000000000000000000008152600401620001809062000381565b60405180910390fd5b6200019d600083836200028f60201b60201c565b8060026000828254620001b19190620003d1565b92505081905550806000808473ffffffffffffffffffffffffffffffffffffffff1673ffffffffffffffffffffffffffffffffffffffff1681526020019081526020016000206000828254620002089190620003d1565b925050819055508173ffffffffffffffffffffffffffffffffffffffff16600073ffffffffffffffffffffffffffffffffffffffff167fddf252ad1be2c89b69c2b068fc378daa952ba7f163c4a11628f55a4df523b3ef836040516200026f9190620003a3565b60405180910390a36200028b600083836200029460201b60201c565b5050565b505050565b505050565b828054620002a79062000438565b90600052602060002090601f016020900481019282620002cb576000855562000317565b82601f10620002e657805160ff191683800117855562000317565b8280016001018555821562000317579182015b8281111562000316578251825591602001919060010190620002f9565b5b5090506200032691906200032a565b5090565b5b80821115620003455760008160009055506001016200032b565b5090565b600062000358601f83620003c0565b91506200036582620004cc565b602082019050919050565b6200037b816200042e565b82525050565b600060208201905081810360008301526200039c8162000349565b9050919050565b6000602082019050620003ba600083018462000370565b92915050565b600082825260208201905092915050565b6000620003de826200042e565b9150620003eb836200042e565b9250827fffffffffffffffffffffffffffffffffffffffffffffffffffffffffffffffff038211156200042357620004226200046e565b5b828201905092915050565b6000819050919050565b600060028204905060018216806200045157607f821691505b602082108114156200046857620004676200049d565b5b50919050565b7f4e487b7100000000000000000000000000000000000000000000000000000000600052601160045260246000fd5b7f4e487b7100000000000000000000000000000000000000000000000000000000600052602260045260246000fd5b7f45524332303a206d696e7420746f20746865207a65726f206164647265737300600082015250565b611bba80620005056000396000f3fe608060405234801561001057600080fd5b50600436106101005760003560e01c80633950935111610097578063a0712d6811610066578063a0712d68146102d7578063a457c2d7146102f3578063a9059cbb14610323578063dd62ed3e1461035357610100565b8063395093511461022957806370a082311461025957806375e0c4b21461028957806395d89b41146102b957610100565b8063149527dd116100d3578063149527dd1461018d57806318160ddd146101bd57806323b872dd146101db578063313ce5671461020b57610100565b8063045191e11461010557806306fdde0314610121578063075461721461013f578063095ea7b31461015d575b600080fd5b61011f600480360381019061011a919061118d565b610383565b005b6101296104c8565b60405161013691906114c4565b60405180910390f35b61014761055a565b604051610154919061144e565b60405180910390f35b6101776004803603810190610172919061114d565b610580565b60405161018491906114a9565b60405180910390f35b6101a760048036038101906101a2919061108d565b6105a3565b6040516101b49190611606565b60405180910390f35b6101c56105ec565b6040516101d29190611606565b60405180910390f35b6101f560048036038101906101f091906110fa565b6105f6565b60405161020291906114a9565b60405180910390f35b610213610625565b6040516102209190611621565b60405180910390f35b610243600480360381019061023e919061114d565b61062e565b60405161025091906114a9565b60405180910390f35b610273600480360381019061026e919061108d565b610665565b6040516102809190611606565b60405180910390f35b6102a3600480360381019061029e919061114d565b6106ad565b6040516102b091906114a9565b60405180910390f35b6102c161071a565b6040516102ce91906114c4565b60405180910390f35b6102f160048036038101906102ec91906111ed565b6107ac565b005b61030d6004803603810190610308919061114d565b61084b565b60405161031a91906114a9565b60405180910390f35b61033d6004803603810190610338919061114d565b6108c2565b60405161034a91906114a9565b60405180910390f35b61036d600480360381019061036891906110ba565b61093c565b60405161037a9190611606565b60405180910390f35b61038c33610665565b838390508261039b91906116ed565b11156103dc576040517f08c379a00000000000000000000000000000000000000000000000000000000081526004016103d390611566565b60405180910390fd5b60005b838390508110156104855761041c33858584818110610401576104006118a8565b5b9050602002016020810190610416919061108d565b846109c3565b81600660003373ffffffffffffffffffffffffffffffffffffffff1673ffffffffffffffffffffffffffffffffffffffff168152602001908152602001600020600082825461046b9190611697565b92505081905550808061047d90611801565b9150506103df565b507fd33af69e2bdb37dfd3a759e5a2bc0f70e1976336b64f9eb59c9814d3f5d238e0338484846040516104bb9493929190611469565b60405180910390a1505050565b6060600380546104d7906117cf565b80601f0160208091040260200160405190810160405280929190818152602001828054610503906117cf565b80156105505780601f1061052557610100808354040283529160200191610550565b820191906000526020600020905b81548152906001019060200180831161053357829003601f168201915b5050505050905090565b600560009054906101000a900473ffffffffffffffffffffffffffffffffffffffff1681565b60008061058b610c44565b9050610598818585610c4c565b600191505092915050565b6000600660008373ffffffffffffffffffffffffffffffffffffffff1673ffffffffffffffffffffffffffffffffffffffff168152602001908152602001600020549050919050565b6000600254905090565b600080610601610c44565b905061060e858285610e17565b6106198585856109c3565b60019150509392505050565b60006012905090565b600080610639610c44565b905061065a81858561064b858961093c565b6106559190611697565b610c4c565b600191505092915050565b60008060008373ffffffffffffffffffffffffffffffffffffffff1673ffffffffffffffffffffffffffffffffffffffff168152602001908152602001600020549050919050565b60006106ba3384846109c3565b81600660003373ffffffffffffffffffffffffffffffffffffffff1673ffffffffffffffffffffffffffffffffffffffff16815260200190815260200160002060008282546107099190611697565b925050819055506001905092915050565b606060048054610729906117cf565b80601f0160208091040260200160405190810160405280929190818152602001828054610755906117cf565b80156107a25780601f10610777576101008083540402835291602001916107a2565b820191906000526020600020905b81548152906001019060200180831161078557829003601f168201915b5050505050905090565b600560009054906101000a900473ffffffffffffffffffffffffffffffffffffffff1673ffffffffffffffffffffffffffffffffffffffff163373ffffffffffffffffffffffffffffffffffffffff161461080657600080fd5b789f4f2726179a224501d762422c946590d91000000000000000811061082b57600080fd5b61084833670de0b6b3a76400008361084391906116ed565b610ea3565b50565b600080610856610c44565b90506000610864828661093c565b9050838110156108a9576040517f08c379a00000000000000000000000000000000000000000000000000000000081526004016108a0906115c6565b60405180910390fd5b6108b68286868403610c4c565b60019250505092915050565b60007fe7375f84984fefa09f5f03aa56ffb11ed839b99d56943f858953e537609f8be7836040516108f3919061144e565b60405180910390a17ff0ed029e274dabb7636aeed7333cf47bc8c97dd6eb6d8faea6e9bfbd6620bebe8260405161092a9190611606565b60405180910390a16001905092915050565b6000600160008473ffffffffffffffffffffffffffffffffffffffff1673ffffffffffffffffffffffffffffffffffffffff16815260200190815260200160002060008373ffffffffffffffffffffffffffffffffffffffff1673ffffffffffffffffffffffffffffffffffffffff16815260200190815260200160002054905092915050565b600073ffffffffffffffffffffffffffffffffffffffff168373ffffffffffffffffffffffffffffffffffffffff161415610a33576040517f08c379a0000000000000000000000000000000000000000000000000000000008152600401610a2a90611586565b60405180910390fd5b600073ffffffffffffffffffffffffffffffffffffffff168273ffffffffffffffffffffffffffffffffffffffff161415610aa3576040517f08c379a0000000000000000000000000000000000000000000000000000000008152600401610a9a906114e6565b60405180910390fd5b610aae838383611003565b60008060008573ffffffffffffffffffffffffffffffffffffffff1673ffffffffffffffffffffffffffffffffffffffff16815260200190815260200160002054905081811015610b34576040517f08c379a0000000000000000000000000000000000000000000000000000000008152600401610b2b90611546565b60405180910390fd5b8181036000808673ffffffffffffffffffffffffffffffffffffffff1673ffffffffffffffffffffffffffffffffffffffff16815260200190815260200160002081905550816000808573ffffffffffffffffffffffffffffffffffffffff1673ffffffffffffffffffffffffffffffffffffffff1681526020019081526020016000206000828254610bc79190611697565b925050819055508273ffffffffffffffffffffffffffffffffffffffff168473ffffffffffffffffffffffffffffffffffffffff167fddf252ad1be2c89b69c2b068fc378daa952ba7f163c4a11628f55a4df523b3ef84604051610c2b9190611606565b60405180910390a3610c3e848484611008565b50505050565b600033905090565b600073ffffffffffffffffffffffffffffffffffffffff168373ffffffffffffffffffffffffffffffffffffffff161415610cbc576040517f08c379a0000000000000000000000000000000000000000000000000000000008152600401610cb3906115a6565b60405180910390fd5b600073ffffffffffffffffffffffffffffffffffffffff168273ffffffffffffffffffffffffffffffffffffffff161415610d2c576040517f08c379a0000000000000000000000000000000000000000000000000000000008152600401610d2390611506565b60405180910390fd5b80600160008573ffffffffffffffffffffffffffffffffffffffff1673ffffffffffffffffffffffffffffffffffffffff16815260200190815260200160002060008473ffffffffffffffffffffffffffffffffffffffff1673ffffffffffffffffffffffffffffffffffffffff168152602001908152602001600020819055508173ffffffffffffffffffffffffffffffffffffffff168373ffffffffffffffffffffffffffffffffffffffff167f8c5be1e5ebec7d5bd14f71427d1e84f3dd0314c0f7b2291e5b200ac8c7c3b92583604051610e0a9190611606565b60405180910390a3505050565b6000610e23848461093c565b90507fffffffffffffffffffffffffffffffffffffffffffffffffffffffffffffffff8114610e9d5781811015610e8f576040517f08c379a0000000000000000000000000000000000000000000000000000000008152600401610e8690611526565b60405180910390fd5b610e9c8484848403610c4c565b5b50505050565b600073ffffffffffffffffffffffffffffffffffffffff168273ffffffffffffffffffffffffffffffffffffffff161415610f13576040517f08c379a0000000000000000000000000000000000000000000000000000000008152600401610f0a906115e6565b60405180910390fd5b610f1f60008383611003565b8060026000828254610f319190611697565b92505081905550806000808473ffffffffffffffffffffffffffffffffffffffff1673ffffffffffffffffffffffffffffffffffffffff1681526020019081526020016000206000828254610f869190611697565b925050819055508173ffffffffffffffffffffffffffffffffffffffff16600073ffffffffffffffffffffffffffffffffffffffff167fddf252ad1be2c89b69c2b068fc378daa952ba7f163c4a11628f55a4df523b3ef83604051610feb9190611606565b60405180910390a3610fff60008383611008565b5050565b505050565b505050565b60008135905061101c81611b56565b92915050565b60008083601f840112611038576110376118dc565b5b8235905067ffffffffffffffff811115611055576110546118d7565b5b602083019150836020820283011115611071576110706118e1565b5b9250929050565b60008135905061108781611b6d565b92915050565b6000602082840312156110a3576110a26118eb565b5b60006110b18482850161100d565b91505092915050565b600080604083850312156110d1576110d06118eb565b5b60006110df8582860161100d565b92505060206110f08582860161100d565b9150509250929050565b600080600060608486031215611113576111126118eb565b5b60006111218682870161100d565b93505060206111328682870161100d565b925050604061114386828701611078565b9150509250925092565b60008060408385031215611164576111636118eb565b5b60006111728582860161100d565b925050602061118385828601611078565b9150509250929050565b6000806000604084860312156111a6576111a56118eb565b5b600084013567ffffffffffffffff8111156111c4576111c36118e6565b5b6111d086828701611022565b935093505060206111e386828701611078565b9150509250925092565b600060208284031215611203576112026118eb565b5b600061121184828501611078565b91505092915050565b60006112268383611232565b60208301905092915050565b61123b81611747565b82525050565b61124a81611747565b82525050565b600061125c838561165e565b93506112678261163c565b8060005b858110156112a05761127d8284611680565b611287888261121a565b975061129283611651565b92505060018101905061126b565b5085925050509392505050565b6112b681611759565b82525050565b60006112c782611646565b6112d1818561166f565b93506112e181856020860161179c565b6112ea816118f0565b840191505092915050565b600061130260238361166f565b915061130d82611901565b604082019050919050565b600061132560228361166f565b915061133082611950565b604082019050919050565b6000611348601d8361166f565b91506113538261199f565b602082019050919050565b600061136b60268361166f565b9150611376826119c8565b604082019050919050565b600061138e60158361166f565b915061139982611a17565b602082019050919050565b60006113b160258361166f565b91506113bc82611a40565b604082019050919050565b60006113d460248361166f565b91506113df82611a8f565b604082019050919050565b60006113f760258361166f565b915061140282611ade565b604082019050919050565b600061141a601f8361166f565b915061142582611b2d565b602082019050919050565b61143981611785565b82525050565b6114488161178f565b82525050565b60006020820190506114636000830184611241565b92915050565b600060608201905061147e6000830187611241565b8181036020830152611491818587611250565b90506114a06040830184611430565b95945050505050565b60006020820190506114be60008301846112ad565b92915050565b600060208201905081810360008301526114de81846112bc565b905092915050565b600060208201905081810360008301526114ff816112f5565b9050919050565b6000602082019050818103600083015261151f81611318565b9050919050565b6000602082019050818103600083015261153f8161133b565b9050919050565b6000602082019050818103600083015261155f8161135e565b9050919050565b6000602082019050818103600083015261157f81611381565b9050919050565b6000602082019050818103600083015261159f816113a4565b9050919050565b600060208201905081810360008301526115bf816113c7565b9050919050565b600060208201905081810360008301526115df816113ea565b9050919050565b600060208201905081810360008301526115ff8161140d565b9050919050565b600060208201905061161b6000830184611430565b92915050565b6000602082019050611636600083018461143f565b92915050565b6000819050919050565b600081519050919050565b6000602082019050919050565b600082825260208201905092915050565b600082825260208201905092915050565b600061168f602084018461100d565b905092915050565b60006116a282611785565b91506116ad83611785565b9250827fffffffffffffffffffffffffffffffffffffffffffffffffffffffffffffffff038211156116e2576116e161184a565b5b828201905092915050565b60006116f882611785565b915061170383611785565b9250817fffffffffffffffffffffffffffffffffffffffffffffffffffffffffffffffff048311821515161561173c5761173b61184a565b5b828202905092915050565b600061175282611765565b9050919050565b60008115159050919050565b600073ffffffffffffffffffffffffffffffffffffffff82169050919050565b6000819050919050565b600060ff82169050919050565b60005b838110156117ba57808201518184015260208101905061179f565b838111156117c9576000848401525b50505050565b600060028204905060018216806117e757607f821691505b602082108114156117fb576117fa611879565b5b50919050565b600061180c82611785565b91507fffffffffffffffffffffffffffffffffffffffffffffffffffffffffffffffff82141561183f5761183e61184a565b5b600182019050919050565b7f4e487b7100000000000000000000000000000000000000000000000000000000600052601160045260246000fd5b7f4e487b7100000000000000000000000000000000000000000000000000000000600052602260045260246000fd5b7f4e487b7100000000000000000000000000000000000000000000000000000000600052603260045260246000fd5b600080fd5b600080fd5b600080fd5b600080fd5b600080fd5b6000601f19601f8301169050919050565b7f45524332303a207472616e7366657220746f20746865207a65726f206164647260008201527f6573730000000000000000000000000000000000000000000000000000000000602082015250565b7f45524332303a20617070726f766520746f20746865207a65726f20616464726560008201527f7373000000000000000000000000000000000000000000000000000000000000602082015250565b7f45524332303a20696e73756666696369656e7420616c6c6f77616e6365000000600082015250565b7f45524332303a207472616e7366657220616d6f756e742065786365656473206260008201527f616c616e63650000000000000000000000000000000000000000000000000000602082015250565b7f496e73756666696369656e742062616c616e63652e0000000000000000000000600082015250565b7f45524332303a207472616e736665722066726f6d20746865207a65726f20616460008201527f6472657373000000000000000000000000000000000000000000000000000000602082015250565b7f45524332303a20617070726f76652066726f6d20746865207a65726f2061646460008201527f7265737300000000000000000000000000000000000000000000000000000000602082015250565b7f45524332303a2064656372656173656420616c6c6f77616e63652062656c6f7760008201527f207a65726f000000000000000000000000000000000000000000000000000000602082015250565b7f45524332303a206d696e7420746f20746865207a65726f206164647265737300600082015250565b611b5f81611747565b8114611b6a57600080fd5b50565b611b7681611785565b8114611b8157600080fd5b5056fea26469706673582212204296438428f8d84d7c7895fa2e2a69db913addbb02b5569417d43d53ef0f098d64736f6c63430008070033",
					"opcodes": "PUSH1 0x80 PUSH1 0x40 MSTORE CALLVALUE DUP1 ISZERO PUSH3 0x11 JUMPI PUSH1 0x0 DUP1 REVERT JUMPDEST POP PUSH1 0x40 MLOAD DUP1 PUSH1 0x40 ADD PUSH1 0x40 MSTORE DUP1 PUSH1 0xA DUP2 MSTORE PUSH1 0x20 ADD PUSH32 0x4B62727520546F6B656E00000000000000000000000000000000000000000000 DUP2 MSTORE POP PUSH1 0x40 MLOAD DUP1 PUSH1 0x40 ADD PUSH1 0x40 MSTORE DUP1 PUSH1 0x4 DUP2 MSTORE PUSH1 0x20 ADD PUSH32 0x4B42525500000000000000000000000000000000000000000000000000000000 DUP2 MSTORE POP DUP2 PUSH1 0x3 SWAP1 DUP1 MLOAD SWAP1 PUSH1 0x20 ADD SWAP1 PUSH3 0x96 SWAP3 SWAP2 SWAP1 PUSH3 0x299 JUMP JUMPDEST POP DUP1 PUSH1 0x4 SWAP1 DUP1 MLOAD SWAP1 PUSH1 0x20 ADD SWAP1 PUSH3 0xAF SWAP3 SWAP2 SWAP1 PUSH3 0x299 JUMP JUMPDEST POP POP POP PUSH3 0xCF CALLER PUSH11 0x84595161401484A000000 PUSH3 0x116 PUSH1 0x20 SHL PUSH1 0x20 SHR JUMP JUMPDEST CALLER PUSH1 0x5 PUSH1 0x0 PUSH2 0x100 EXP DUP2 SLOAD DUP2 PUSH20 0xFFFFFFFFFFFFFFFFFFFFFFFFFFFFFFFFFFFFFFFF MUL NOT AND SWAP1 DUP4 PUSH20 0xFFFFFFFFFFFFFFFFFFFFFFFFFFFFFFFFFFFFFFFF AND MUL OR SWAP1 SSTORE POP PUSH3 0x4F5 JUMP JUMPDEST PUSH1 0x0 PUSH20 0xFFFFFFFFFFFFFFFFFFFFFFFFFFFFFFFFFFFFFFFF AND DUP3 PUSH20 0xFFFFFFFFFFFFFFFFFFFFFFFFFFFFFFFFFFFFFFFF AND EQ ISZERO PUSH3 0x189 JUMPI PUSH1 0x40 MLOAD PUSH32 0x8C379A000000000000000000000000000000000000000000000000000000000 DUP2 MSTORE PUSH1 0x4 ADD PUSH3 0x180 SWAP1 PUSH3 0x381 JUMP JUMPDEST PUSH1 0x40 MLOAD DUP1 SWAP2 SUB SWAP1 REVERT JUMPDEST PUSH3 0x19D PUSH1 0x0 DUP4 DUP4 PUSH3 0x28F PUSH1 0x20 SHL PUSH1 0x20 SHR JUMP JUMPDEST DUP1 PUSH1 0x2 PUSH1 0x0 DUP3 DUP3 SLOAD PUSH3 0x1B1 SWAP2 SWAP1 PUSH3 0x3D1 JUMP JUMPDEST SWAP3 POP POP DUP2 SWAP1 SSTORE POP DUP1 PUSH1 0x0 DUP1 DUP5 PUSH20 0xFFFFFFFFFFFFFFFFFFFFFFFFFFFFFFFFFFFFFFFF AND PUSH20 0xFFFFFFFFFFFFFFFFFFFFFFFFFFFFFFFFFFFFFFFF AND DUP2 MSTORE PUSH1 0x20 ADD SWAP1 DUP2 MSTORE PUSH1 0x20 ADD PUSH1 0x0 KECCAK256 PUSH1 0x0 DUP3 DUP3 SLOAD PUSH3 0x208 SWAP2 SWAP1 PUSH3 0x3D1 JUMP JUMPDEST SWAP3 POP POP DUP2 SWAP1 SSTORE POP DUP2 PUSH20 0xFFFFFFFFFFFFFFFFFFFFFFFFFFFFFFFFFFFFFFFF AND PUSH1 0x0 PUSH20 0xFFFFFFFFFFFFFFFFFFFFFFFFFFFFFFFFFFFFFFFF AND PUSH32 0xDDF252AD1BE2C89B69C2B068FC378DAA952BA7F163C4A11628F55A4DF523B3EF DUP4 PUSH1 0x40 MLOAD PUSH3 0x26F SWAP2 SWAP1 PUSH3 0x3A3 JUMP JUMPDEST PUSH1 0x40 MLOAD DUP1 SWAP2 SUB SWAP1 LOG3 PUSH3 0x28B PUSH1 0x0 DUP4 DUP4 PUSH3 0x294 PUSH1 0x20 SHL PUSH1 0x20 SHR JUMP JUMPDEST POP POP JUMP JUMPDEST POP POP POP JUMP JUMPDEST POP POP POP JUMP JUMPDEST DUP3 DUP1 SLOAD PUSH3 0x2A7 SWAP1 PUSH3 0x438 JUMP JUMPDEST SWAP1 PUSH1 0x0 MSTORE PUSH1 0x20 PUSH1 0x0 KECCAK256 SWAP1 PUSH1 0x1F ADD PUSH1 0x20 SWAP1 DIV DUP2 ADD SWAP3 DUP3 PUSH3 0x2CB JUMPI PUSH1 0x0 DUP6 SSTORE PUSH3 0x317 JUMP JUMPDEST DUP3 PUSH1 0x1F LT PUSH3 0x2E6 JUMPI DUP1 MLOAD PUSH1 0xFF NOT AND DUP4 DUP1 ADD OR DUP6 SSTORE PUSH3 0x317 JUMP JUMPDEST DUP3 DUP1 ADD PUSH1 0x1 ADD DUP6 SSTORE DUP3 ISZERO PUSH3 0x317 JUMPI SWAP2 DUP3 ADD JUMPDEST DUP3 DUP2 GT ISZERO PUSH3 0x316 JUMPI DUP3 MLOAD DUP3 SSTORE SWAP2 PUSH1 0x20 ADD SWAP2 SWAP1 PUSH1 0x1 ADD SWAP1 PUSH3 0x2F9 JUMP JUMPDEST JUMPDEST POP SWAP1 POP PUSH3 0x326 SWAP2 SWAP1 PUSH3 0x32A JUMP JUMPDEST POP SWAP1 JUMP JUMPDEST JUMPDEST DUP1 DUP3 GT ISZERO PUSH3 0x345 JUMPI PUSH1 0x0 DUP2 PUSH1 0x0 SWAP1 SSTORE POP PUSH1 0x1 ADD PUSH3 0x32B JUMP JUMPDEST POP SWAP1 JUMP JUMPDEST PUSH1 0x0 PUSH3 0x358 PUSH1 0x1F DUP4 PUSH3 0x3C0 JUMP JUMPDEST SWAP2 POP PUSH3 0x365 DUP3 PUSH3 0x4CC JUMP JUMPDEST PUSH1 0x20 DUP3 ADD SWAP1 POP SWAP2 SWAP1 POP JUMP JUMPDEST PUSH3 0x37B DUP2 PUSH3 0x42E JUMP JUMPDEST DUP3 MSTORE POP POP JUMP JUMPDEST PUSH1 0x0 PUSH1 0x20 DUP3 ADD SWAP1 POP DUP2 DUP2 SUB PUSH1 0x0 DUP4 ADD MSTORE PUSH3 0x39C DUP2 PUSH3 0x349 JUMP JUMPDEST SWAP1 POP SWAP2 SWAP1 POP JUMP JUMPDEST PUSH1 0x0 PUSH1 0x20 DUP3 ADD SWAP1 POP PUSH3 0x3BA PUSH1 0x0 DUP4 ADD DUP5 PUSH3 0x370 JUMP JUMPDEST SWAP3 SWAP2 POP POP JUMP JUMPDEST PUSH1 0x0 DUP3 DUP3 MSTORE PUSH1 0x20 DUP3 ADD SWAP1 POP SWAP3 SWAP2 POP POP JUMP JUMPDEST PUSH1 0x0 PUSH3 0x3DE DUP3 PUSH3 0x42E JUMP JUMPDEST SWAP2 POP PUSH3 0x3EB DUP4 PUSH3 0x42E JUMP JUMPDEST SWAP3 POP DUP3 PUSH32 0xFFFFFFFFFFFFFFFFFFFFFFFFFFFFFFFFFFFFFFFFFFFFFFFFFFFFFFFFFFFFFFFF SUB DUP3 GT ISZERO PUSH3 0x423 JUMPI PUSH3 0x422 PUSH3 0x46E JUMP JUMPDEST JUMPDEST DUP3 DUP3 ADD SWAP1 POP SWAP3 SWAP2 POP POP JUMP JUMPDEST PUSH1 0x0 DUP2 SWAP1 POP SWAP2 SWAP1 POP JUMP JUMPDEST PUSH1 0x0 PUSH1 0x2 DUP3 DIV SWAP1 POP PUSH1 0x1 DUP3 AND DUP1 PUSH3 0x451 JUMPI PUSH1 0x7F DUP3 AND SWAP2 POP JUMPDEST PUSH1 0x20 DUP3 LT DUP2 EQ ISZERO PUSH3 0x468 JUMPI PUSH3 0x467 PUSH3 0x49D JUMP JUMPDEST JUMPDEST POP SWAP2 SWAP1 POP JUMP JUMPDEST PUSH32 0x4E487B7100000000000000000000000000000000000000000000000000000000 PUSH1 0x0 MSTORE PUSH1 0x11 PUSH1 0x4 MSTORE PUSH1 0x24 PUSH1 0x0 REVERT JUMPDEST PUSH32 0x4E487B7100000000000000000000000000000000000000000000000000000000 PUSH1 0x0 MSTORE PUSH1 0x22 PUSH1 0x4 MSTORE PUSH1 0x24 PUSH1 0x0 REVERT JUMPDEST PUSH32 0x45524332303A206D696E7420746F20746865207A65726F206164647265737300 PUSH1 0x0 DUP3 ADD MSTORE POP JUMP JUMPDEST PUSH2 0x1BBA DUP1 PUSH3 0x505 PUSH1 0x0 CODECOPY PUSH1 0x0 RETURN INVALID PUSH1 0x80 PUSH1 0x40 MSTORE CALLVALUE DUP1 ISZERO PUSH2 0x10 JUMPI PUSH1 0x0 DUP1 REVERT JUMPDEST POP PUSH1 0x4 CALLDATASIZE LT PUSH2 0x100 JUMPI PUSH1 0x0 CALLDATALOAD PUSH1 0xE0 SHR DUP1 PUSH4 0x39509351 GT PUSH2 0x97 JUMPI DUP1 PUSH4 0xA0712D68 GT PUSH2 0x66 JUMPI DUP1 PUSH4 0xA0712D68 EQ PUSH2 0x2D7 JUMPI DUP1 PUSH4 0xA457C2D7 EQ PUSH2 0x2F3 JUMPI DUP1 PUSH4 0xA9059CBB EQ PUSH2 0x323 JUMPI DUP1 PUSH4 0xDD62ED3E EQ PUSH2 0x353 JUMPI PUSH2 0x100 JUMP JUMPDEST DUP1 PUSH4 0x39509351 EQ PUSH2 0x229 JUMPI DUP1 PUSH4 0x70A08231 EQ PUSH2 0x259 JUMPI DUP1 PUSH4 0x75E0C4B2 EQ PUSH2 0x289 JUMPI DUP1 PUSH4 0x95D89B41 EQ PUSH2 0x2B9 JUMPI PUSH2 0x100 JUMP JUMPDEST DUP1 PUSH4 0x149527DD GT PUSH2 0xD3 JUMPI DUP1 PUSH4 0x149527DD EQ PUSH2 0x18D JUMPI DUP1 PUSH4 0x18160DDD EQ PUSH2 0x1BD JUMPI DUP1 PUSH4 0x23B872DD EQ PUSH2 0x1DB JUMPI DUP1 PUSH4 0x313CE567 EQ PUSH2 0x20B JUMPI PUSH2 0x100 JUMP JUMPDEST DUP1 PUSH4 0x45191E1 EQ PUSH2 0x105 JUMPI DUP1 PUSH4 0x6FDDE03 EQ PUSH2 0x121 JUMPI DUP1 PUSH4 0x7546172 EQ PUSH2 0x13F JUMPI DUP1 PUSH4 0x95EA7B3 EQ PUSH2 0x15D JUMPI JUMPDEST PUSH1 0x0 DUP1 REVERT JUMPDEST PUSH2 0x11F PUSH1 0x4 DUP1 CALLDATASIZE SUB DUP2 ADD SWAP1 PUSH2 0x11A SWAP2 SWAP1 PUSH2 0x118D JUMP JUMPDEST PUSH2 0x383 JUMP JUMPDEST STOP JUMPDEST PUSH2 0x129 PUSH2 0x4C8 JUMP JUMPDEST PUSH1 0x40 MLOAD PUSH2 0x136 SWAP2 SWAP1 PUSH2 0x14C4 JUMP JUMPDEST PUSH1 0x40 MLOAD DUP1 SWAP2 SUB SWAP1 RETURN JUMPDEST PUSH2 0x147 PUSH2 0x55A JUMP JUMPDEST PUSH1 0x40 MLOAD PUSH2 0x154 SWAP2 SWAP1 PUSH2 0x144E JUMP JUMPDEST PUSH1 0x40 MLOAD DUP1 SWAP2 SUB SWAP1 RETURN JUMPDEST PUSH2 0x177 PUSH1 0x4 DUP1 CALLDATASIZE SUB DUP2 ADD SWAP1 PUSH2 0x172 SWAP2 SWAP1 PUSH2 0x114D JUMP JUMPDEST PUSH2 0x580 JUMP JUMPDEST PUSH1 0x40 MLOAD PUSH2 0x184 SWAP2 SWAP1 PUSH2 0x14A9 JUMP JUMPDEST PUSH1 0x40 MLOAD DUP1 SWAP2 SUB SWAP1 RETURN JUMPDEST PUSH2 0x1A7 PUSH1 0x4 DUP1 CALLDATASIZE SUB DUP2 ADD SWAP1 PUSH2 0x1A2 SWAP2 SWAP1 PUSH2 0x108D JUMP JUMPDEST PUSH2 0x5A3 JUMP JUMPDEST PUSH1 0x40 MLOAD PUSH2 0x1B4 SWAP2 SWAP1 PUSH2 0x1606 JUMP JUMPDEST PUSH1 0x40 MLOAD DUP1 SWAP2 SUB SWAP1 RETURN JUMPDEST PUSH2 0x1C5 PUSH2 0x5EC JUMP JUMPDEST PUSH1 0x40 MLOAD PUSH2 0x1D2 SWAP2 SWAP1 PUSH2 0x1606 JUMP JUMPDEST PUSH1 0x40 MLOAD DUP1 SWAP2 SUB SWAP1 RETURN JUMPDEST PUSH2 0x1F5 PUSH1 0x4 DUP1 CALLDATASIZE SUB DUP2 ADD SWAP1 PUSH2 0x1F0 SWAP2 SWAP1 PUSH2 0x10FA JUMP JUMPDEST PUSH2 0x5F6 JUMP JUMPDEST PUSH1 0x40 MLOAD PUSH2 0x202 SWAP2 SWAP1 PUSH2 0x14A9 JUMP JUMPDEST PUSH1 0x40 MLOAD DUP1 SWAP2 SUB SWAP1 RETURN JUMPDEST PUSH2 0x213 PUSH2 0x625 JUMP JUMPDEST PUSH1 0x40 MLOAD PUSH2 0x220 SWAP2 SWAP1 PUSH2 0x1621 JUMP JUMPDEST PUSH1 0x40 MLOAD DUP1 SWAP2 SUB SWAP1 RETURN JUMPDEST PUSH2 0x243 PUSH1 0x4 DUP1 CALLDATASIZE SUB DUP2 ADD SWAP1 PUSH2 0x23E SWAP2 SWAP1 PUSH2 0x114D JUMP JUMPDEST PUSH2 0x62E JUMP JUMPDEST PUSH1 0x40 MLOAD PUSH2 0x250 SWAP2 SWAP1 PUSH2 0x14A9 JUMP JUMPDEST PUSH1 0x40 MLOAD DUP1 SWAP2 SUB SWAP1 RETURN JUMPDEST PUSH2 0x273 PUSH1 0x4 DUP1 CALLDATASIZE SUB DUP2 ADD SWAP1 PUSH2 0x26E SWAP2 SWAP1 PUSH2 0x108D JUMP JUMPDEST PUSH2 0x665 JUMP JUMPDEST PUSH1 0x40 MLOAD PUSH2 0x280 SWAP2 SWAP1 PUSH2 0x1606 JUMP JUMPDEST PUSH1 0x40 MLOAD DUP1 SWAP2 SUB SWAP1 RETURN JUMPDEST PUSH2 0x2A3 PUSH1 0x4 DUP1 CALLDATASIZE SUB DUP2 ADD SWAP1 PUSH2 0x29E SWAP2 SWAP1 PUSH2 0x114D JUMP JUMPDEST PUSH2 0x6AD JUMP JUMPDEST PUSH1 0x40 MLOAD PUSH2 0x2B0 SWAP2 SWAP1 PUSH2 0x14A9 JUMP JUMPDEST PUSH1 0x40 MLOAD DUP1 SWAP2 SUB SWAP1 RETURN JUMPDEST PUSH2 0x2C1 PUSH2 0x71A JUMP JUMPDEST PUSH1 0x40 MLOAD PUSH2 0x2CE SWAP2 SWAP1 PUSH2 0x14C4 JUMP JUMPDEST PUSH1 0x40 MLOAD DUP1 SWAP2 SUB SWAP1 RETURN JUMPDEST PUSH2 0x2F1 PUSH1 0x4 DUP1 CALLDATASIZE SUB DUP2 ADD SWAP1 PUSH2 0x2EC SWAP2 SWAP1 PUSH2 0x11ED JUMP JUMPDEST PUSH2 0x7AC JUMP JUMPDEST STOP JUMPDEST PUSH2 0x30D PUSH1 0x4 DUP1 CALLDATASIZE SUB DUP2 ADD SWAP1 PUSH2 0x308 SWAP2 SWAP1 PUSH2 0x114D JUMP JUMPDEST PUSH2 0x84B JUMP JUMPDEST PUSH1 0x40 MLOAD PUSH2 0x31A SWAP2 SWAP1 PUSH2 0x14A9 JUMP JUMPDEST PUSH1 0x40 MLOAD DUP1 SWAP2 SUB SWAP1 RETURN JUMPDEST PUSH2 0x33D PUSH1 0x4 DUP1 CALLDATASIZE SUB DUP2 ADD SWAP1 PUSH2 0x338 SWAP2 SWAP1 PUSH2 0x114D JUMP JUMPDEST PUSH2 0x8C2 JUMP JUMPDEST PUSH1 0x40 MLOAD PUSH2 0x34A SWAP2 SWAP1 PUSH2 0x14A9 JUMP JUMPDEST PUSH1 0x40 MLOAD DUP1 SWAP2 SUB SWAP1 RETURN JUMPDEST PUSH2 0x36D PUSH1 0x4 DUP1 CALLDATASIZE SUB DUP2 ADD SWAP1 PUSH2 0x368 SWAP2 SWAP1 PUSH2 0x10BA JUMP JUMPDEST PUSH2 0x93C JUMP JUMPDEST PUSH1 0x40 MLOAD PUSH2 0x37A SWAP2 SWAP1 PUSH2 0x1606 JUMP JUMPDEST PUSH1 0x40 MLOAD DUP1 SWAP2 SUB SWAP1 RETURN JUMPDEST PUSH2 0x38C CALLER PUSH2 0x665 JUMP JUMPDEST DUP4 DUP4 SWAP1 POP DUP3 PUSH2 0x39B SWAP2 SWAP1 PUSH2 0x16ED JUMP JUMPDEST GT ISZERO PUSH2 0x3DC JUMPI PUSH1 0x40 MLOAD PUSH32 0x8C379A000000000000000000000000000000000000000000000000000000000 DUP2 MSTORE PUSH1 0x4 ADD PUSH2 0x3D3 SWAP1 PUSH2 0x1566 JUMP JUMPDEST PUSH1 0x40 MLOAD DUP1 SWAP2 SUB SWAP1 REVERT JUMPDEST PUSH1 0x0 JUMPDEST DUP4 DUP4 SWAP1 POP DUP2 LT ISZERO PUSH2 0x485 JUMPI PUSH2 0x41C CALLER DUP6 DUP6 DUP5 DUP2 DUP2 LT PUSH2 0x401 JUMPI PUSH2 0x400 PUSH2 0x18A8 JUMP JUMPDEST JUMPDEST SWAP1 POP PUSH1 0x20 MUL ADD PUSH1 0x20 DUP2 ADD SWAP1 PUSH2 0x416 SWAP2 SWAP1 PUSH2 0x108D JUMP JUMPDEST DUP5 PUSH2 0x9C3 JUMP JUMPDEST DUP2 PUSH1 0x6 PUSH1 0x0 CALLER PUSH20 0xFFFFFFFFFFFFFFFFFFFFFFFFFFFFFFFFFFFFFFFF AND PUSH20 0xFFFFFFFFFFFFFFFFFFFFFFFFFFFFFFFFFFFFFFFF AND DUP2 MSTORE PUSH1 0x20 ADD SWAP1 DUP2 MSTORE PUSH1 0x20 ADD PUSH1 0x0 KECCAK256 PUSH1 0x0 DUP3 DUP3 SLOAD PUSH2 0x46B SWAP2 SWAP1 PUSH2 0x1697 JUMP JUMPDEST SWAP3 POP POP DUP2 SWAP1 SSTORE POP DUP1 DUP1 PUSH2 0x47D SWAP1 PUSH2 0x1801 JUMP JUMPDEST SWAP2 POP POP PUSH2 0x3DF JUMP JUMPDEST POP PUSH32 0xD33AF69E2BDB37DFD3A759E5A2BC0F70E1976336B64F9EB59C9814D3F5D238E0 CALLER DUP5 DUP5 DUP5 PUSH1 0x40 MLOAD PUSH2 0x4BB SWAP5 SWAP4 SWAP3 SWAP2 SWAP1 PUSH2 0x1469 JUMP JUMPDEST PUSH1 0x40 MLOAD DUP1 SWAP2 SUB SWAP1 LOG1 POP POP POP JUMP JUMPDEST PUSH1 0x60 PUSH1 0x3 DUP1 SLOAD PUSH2 0x4D7 SWAP1 PUSH2 0x17CF JUMP JUMPDEST DUP1 PUSH1 0x1F ADD PUSH1 0x20 DUP1 SWAP2 DIV MUL PUSH1 0x20 ADD PUSH1 0x40 MLOAD SWAP1 DUP2 ADD PUSH1 0x40 MSTORE DUP1 SWAP3 SWAP2 SWAP1 DUP2 DUP2 MSTORE PUSH1 0x20 ADD DUP3 DUP1 SLOAD PUSH2 0x503 SWAP1 PUSH2 0x17CF JUMP JUMPDEST DUP1 ISZERO PUSH2 0x550 JUMPI DUP1 PUSH1 0x1F LT PUSH2 0x525 JUMPI PUSH2 0x100 DUP1 DUP4 SLOAD DIV MUL DUP4 MSTORE SWAP2 PUSH1 0x20 ADD SWAP2 PUSH2 0x550 JUMP JUMPDEST DUP3 ADD SWAP2 SWAP1 PUSH1 0x0 MSTORE PUSH1 0x20 PUSH1 0x0 KECCAK256 SWAP1 JUMPDEST DUP2 SLOAD DUP2 MSTORE SWAP1 PUSH1 0x1 ADD SWAP1 PUSH1 0x20 ADD DUP1 DUP4 GT PUSH2 0x533 JUMPI DUP3 SWAP1 SUB PUSH1 0x1F AND DUP3 ADD SWAP2 JUMPDEST POP POP POP POP POP SWAP1 POP SWAP1 JUMP JUMPDEST PUSH1 0x5 PUSH1 0x0 SWAP1 SLOAD SWAP1 PUSH2 0x100 EXP SWAP1 DIV PUSH20 0xFFFFFFFFFFFFFFFFFFFFFFFFFFFFFFFFFFFFFFFF AND DUP2 JUMP JUMPDEST PUSH1 0x0 DUP1 PUSH2 0x58B PUSH2 0xC44 JUMP JUMPDEST SWAP1 POP PUSH2 0x598 DUP2 DUP6 DUP6 PUSH2 0xC4C JUMP JUMPDEST PUSH1 0x1 SWAP2 POP POP SWAP3 SWAP2 POP POP JUMP JUMPDEST PUSH1 0x0 PUSH1 0x6 PUSH1 0x0 DUP4 PUSH20 0xFFFFFFFFFFFFFFFFFFFFFFFFFFFFFFFFFFFFFFFF AND PUSH20 0xFFFFFFFFFFFFFFFFFFFFFFFFFFFFFFFFFFFFFFFF AND DUP2 MSTORE PUSH1 0x20 ADD SWAP1 DUP2 MSTORE PUSH1 0x20 ADD PUSH1 0x0 KECCAK256 SLOAD SWAP1 POP SWAP2 SWAP1 POP JUMP JUMPDEST PUSH1 0x0 PUSH1 0x2 SLOAD SWAP1 POP SWAP1 JUMP JUMPDEST PUSH1 0x0 DUP1 PUSH2 0x601 PUSH2 0xC44 JUMP JUMPDEST SWAP1 POP PUSH2 0x60E DUP6 DUP3 DUP6 PUSH2 0xE17 JUMP JUMPDEST PUSH2 0x619 DUP6 DUP6 DUP6 PUSH2 0x9C3 JUMP JUMPDEST PUSH1 0x1 SWAP2 POP POP SWAP4 SWAP3 POP POP POP JUMP JUMPDEST PUSH1 0x0 PUSH1 0x12 SWAP1 POP SWAP1 JUMP JUMPDEST PUSH1 0x0 DUP1 PUSH2 0x639 PUSH2 0xC44 JUMP JUMPDEST SWAP1 POP PUSH2 0x65A DUP2 DUP6 DUP6 PUSH2 0x64B DUP6 DUP10 PUSH2 0x93C JUMP JUMPDEST PUSH2 0x655 SWAP2 SWAP1 PUSH2 0x1697 JUMP JUMPDEST PUSH2 0xC4C JUMP JUMPDEST PUSH1 0x1 SWAP2 POP POP SWAP3 SWAP2 POP POP JUMP JUMPDEST PUSH1 0x0 DUP1 PUSH1 0x0 DUP4 PUSH20 0xFFFFFFFFFFFFFFFFFFFFFFFFFFFFFFFFFFFFFFFF AND PUSH20 0xFFFFFFFFFFFFFFFFFFFFFFFFFFFFFFFFFFFFFFFF AND DUP2 MSTORE PUSH1 0x20 ADD SWAP1 DUP2 MSTORE PUSH1 0x20 ADD PUSH1 0x0 KECCAK256 SLOAD SWAP1 POP SWAP2 SWAP1 POP JUMP JUMPDEST PUSH1 0x0 PUSH2 0x6BA CALLER DUP5 DUP5 PUSH2 0x9C3 JUMP JUMPDEST DUP2 PUSH1 0x6 PUSH1 0x0 CALLER PUSH20 0xFFFFFFFFFFFFFFFFFFFFFFFFFFFFFFFFFFFFFFFF AND PUSH20 0xFFFFFFFFFFFFFFFFFFFFFFFFFFFFFFFFFFFFFFFF AND DUP2 MSTORE PUSH1 0x20 ADD SWAP1 DUP2 MSTORE PUSH1 0x20 ADD PUSH1 0x0 KECCAK256 PUSH1 0x0 DUP3 DUP3 SLOAD PUSH2 0x709 SWAP2 SWAP1 PUSH2 0x1697 JUMP JUMPDEST SWAP3 POP POP DUP2 SWAP1 SSTORE POP PUSH1 0x1 SWAP1 POP SWAP3 SWAP2 POP POP JUMP JUMPDEST PUSH1 0x60 PUSH1 0x4 DUP1 SLOAD PUSH2 0x729 SWAP1 PUSH2 0x17CF JUMP JUMPDEST DUP1 PUSH1 0x1F ADD PUSH1 0x20 DUP1 SWAP2 DIV MUL PUSH1 0x20 ADD PUSH1 0x40 MLOAD SWAP1 DUP2 ADD PUSH1 0x40 MSTORE DUP1 SWAP3 SWAP2 SWAP1 DUP2 DUP2 MSTORE PUSH1 0x20 ADD DUP3 DUP1 SLOAD PUSH2 0x755 SWAP1 PUSH2 0x17CF JUMP JUMPDEST DUP1 ISZERO PUSH2 0x7A2 JUMPI DUP1 PUSH1 0x1F LT PUSH2 0x777 JUMPI PUSH2 0x100 DUP1 DUP4 SLOAD DIV MUL DUP4 MSTORE SWAP2 PUSH1 0x20 ADD SWAP2 PUSH2 0x7A2 JUMP JUMPDEST DUP3 ADD SWAP2 SWAP1 PUSH1 0x0 MSTORE PUSH1 0x20 PUSH1 0x0 KECCAK256 SWAP1 JUMPDEST DUP2 SLOAD DUP2 MSTORE SWAP1 PUSH1 0x1 ADD SWAP1 PUSH1 0x20 ADD DUP1 DUP4 GT PUSH2 0x785 JUMPI DUP3 SWAP1 SUB PUSH1 0x1F AND DUP3 ADD SWAP2 JUMPDEST POP POP POP POP POP SWAP1 POP SWAP1 JUMP JUMPDEST PUSH1 0x5 PUSH1 0x0 SWAP1 SLOAD SWAP1 PUSH2 0x100 EXP SWAP1 DIV PUSH20 0xFFFFFFFFFFFFFFFFFFFFFFFFFFFFFFFFFFFFFFFF AND PUSH20 0xFFFFFFFFFFFFFFFFFFFFFFFFFFFFFFFFFFFFFFFF AND CALLER PUSH20 0xFFFFFFFFFFFFFFFFFFFFFFFFFFFFFFFFFFFFFFFF AND EQ PUSH2 0x806 JUMPI PUSH1 0x0 DUP1 REVERT JUMPDEST PUSH25 0x9F4F2726179A224501D762422C946590D91000000000000000 DUP2 LT PUSH2 0x82B JUMPI PUSH1 0x0 DUP1 REVERT JUMPDEST PUSH2 0x848 CALLER PUSH8 0xDE0B6B3A7640000 DUP4 PUSH2 0x843 SWAP2 SWAP1 PUSH2 0x16ED JUMP JUMPDEST PUSH2 0xEA3 JUMP JUMPDEST POP JUMP JUMPDEST PUSH1 0x0 DUP1 PUSH2 0x856 PUSH2 0xC44 JUMP JUMPDEST SWAP1 POP PUSH1 0x0 PUSH2 0x864 DUP3 DUP7 PUSH2 0x93C JUMP JUMPDEST SWAP1 POP DUP4 DUP2 LT ISZERO PUSH2 0x8A9 JUMPI PUSH1 0x40 MLOAD PUSH32 0x8C379A000000000000000000000000000000000000000000000000000000000 DUP2 MSTORE PUSH1 0x4 ADD PUSH2 0x8A0 SWAP1 PUSH2 0x15C6 JUMP JUMPDEST PUSH1 0x40 MLOAD DUP1 SWAP2 SUB SWAP1 REVERT JUMPDEST PUSH2 0x8B6 DUP3 DUP7 DUP7 DUP5 SUB PUSH2 0xC4C JUMP JUMPDEST PUSH1 0x1 SWAP3 POP POP POP SWAP3 SWAP2 POP POP JUMP JUMPDEST PUSH1 0x0 PUSH32 0xE7375F84984FEFA09F5F03AA56FFB11ED839B99D56943F858953E537609F8BE7 DUP4 PUSH1 0x40 MLOAD PUSH2 0x8F3 SWAP2 SWAP1 PUSH2 0x144E JUMP JUMPDEST PUSH1 0x40 MLOAD DUP1 SWAP2 SUB SWAP1 LOG1 PUSH32 0xF0ED029E274DABB7636AEED7333CF47BC8C97DD6EB6D8FAEA6E9BFBD6620BEBE DUP3 PUSH1 0x40 MLOAD PUSH2 0x92A SWAP2 SWAP1 PUSH2 0x1606 JUMP JUMPDEST PUSH1 0x40 MLOAD DUP1 SWAP2 SUB SWAP1 LOG1 PUSH1 0x1 SWAP1 POP SWAP3 SWAP2 POP POP JUMP JUMPDEST PUSH1 0x0 PUSH1 0x1 PUSH1 0x0 DUP5 PUSH20 0xFFFFFFFFFFFFFFFFFFFFFFFFFFFFFFFFFFFFFFFF AND PUSH20 0xFFFFFFFFFFFFFFFFFFFFFFFFFFFFFFFFFFFFFFFF AND DUP2 MSTORE PUSH1 0x20 ADD SWAP1 DUP2 MSTORE PUSH1 0x20 ADD PUSH1 0x0 KECCAK256 PUSH1 0x0 DUP4 PUSH20 0xFFFFFFFFFFFFFFFFFFFFFFFFFFFFFFFFFFFFFFFF AND PUSH20 0xFFFFFFFFFFFFFFFFFFFFFFFFFFFFFFFFFFFFFFFF AND DUP2 MSTORE PUSH1 0x20 ADD SWAP1 DUP2 MSTORE PUSH1 0x20 ADD PUSH1 0x0 KECCAK256 SLOAD SWAP1 POP SWAP3 SWAP2 POP POP JUMP JUMPDEST PUSH1 0x0 PUSH20 0xFFFFFFFFFFFFFFFFFFFFFFFFFFFFFFFFFFFFFFFF AND DUP4 PUSH20 0xFFFFFFFFFFFFFFFFFFFFFFFFFFFFFFFFFFFFFFFF AND EQ ISZERO PUSH2 0xA33 JUMPI PUSH1 0x40 MLOAD PUSH32 0x8C379A000000000000000000000000000000000000000000000000000000000 DUP2 MSTORE PUSH1 0x4 ADD PUSH2 0xA2A SWAP1 PUSH2 0x1586 JUMP JUMPDEST PUSH1 0x40 MLOAD DUP1 SWAP2 SUB SWAP1 REVERT JUMPDEST PUSH1 0x0 PUSH20 0xFFFFFFFFFFFFFFFFFFFFFFFFFFFFFFFFFFFFFFFF AND DUP3 PUSH20 0xFFFFFFFFFFFFFFFFFFFFFFFFFFFFFFFFFFFFFFFF AND EQ ISZERO PUSH2 0xAA3 JUMPI PUSH1 0x40 MLOAD PUSH32 0x8C379A000000000000000000000000000000000000000000000000000000000 DUP2 MSTORE PUSH1 0x4 ADD PUSH2 0xA9A SWAP1 PUSH2 0x14E6 JUMP JUMPDEST PUSH1 0x40 MLOAD DUP1 SWAP2 SUB SWAP1 REVERT JUMPDEST PUSH2 0xAAE DUP4 DUP4 DUP4 PUSH2 0x1003 JUMP JUMPDEST PUSH1 0x0 DUP1 PUSH1 0x0 DUP6 PUSH20 0xFFFFFFFFFFFFFFFFFFFFFFFFFFFFFFFFFFFFFFFF AND PUSH20 0xFFFFFFFFFFFFFFFFFFFFFFFFFFFFFFFFFFFFFFFF AND DUP2 MSTORE PUSH1 0x20 ADD SWAP1 DUP2 MSTORE PUSH1 0x20 ADD PUSH1 0x0 KECCAK256 SLOAD SWAP1 POP DUP2 DUP2 LT ISZERO PUSH2 0xB34 JUMPI PUSH1 0x40 MLOAD PUSH32 0x8C379A000000000000000000000000000000000000000000000000000000000 DUP2 MSTORE PUSH1 0x4 ADD PUSH2 0xB2B SWAP1 PUSH2 0x1546 JUMP JUMPDEST PUSH1 0x40 MLOAD DUP1 SWAP2 SUB SWAP1 REVERT JUMPDEST DUP2 DUP2 SUB PUSH1 0x0 DUP1 DUP7 PUSH20 0xFFFFFFFFFFFFFFFFFFFFFFFFFFFFFFFFFFFFFFFF AND PUSH20 0xFFFFFFFFFFFFFFFFFFFFFFFFFFFFFFFFFFFFFFFF AND DUP2 MSTORE PUSH1 0x20 ADD SWAP1 DUP2 MSTORE PUSH1 0x20 ADD PUSH1 0x0 KECCAK256 DUP2 SWAP1 SSTORE POP DUP2 PUSH1 0x0 DUP1 DUP6 PUSH20 0xFFFFFFFFFFFFFFFFFFFFFFFFFFFFFFFFFFFFFFFF AND PUSH20 0xFFFFFFFFFFFFFFFFFFFFFFFFFFFFFFFFFFFFFFFF AND DUP2 MSTORE PUSH1 0x20 ADD SWAP1 DUP2 MSTORE PUSH1 0x20 ADD PUSH1 0x0 KECCAK256 PUSH1 0x0 DUP3 DUP3 SLOAD PUSH2 0xBC7 SWAP2 SWAP1 PUSH2 0x1697 JUMP JUMPDEST SWAP3 POP POP DUP2 SWAP1 SSTORE POP DUP3 PUSH20 0xFFFFFFFFFFFFFFFFFFFFFFFFFFFFFFFFFFFFFFFF AND DUP5 PUSH20 0xFFFFFFFFFFFFFFFFFFFFFFFFFFFFFFFFFFFFFFFF AND PUSH32 0xDDF252AD1BE2C89B69C2B068FC378DAA952BA7F163C4A11628F55A4DF523B3EF DUP5 PUSH1 0x40 MLOAD PUSH2 0xC2B SWAP2 SWAP1 PUSH2 0x1606 JUMP JUMPDEST PUSH1 0x40 MLOAD DUP1 SWAP2 SUB SWAP1 LOG3 PUSH2 0xC3E DUP5 DUP5 DUP5 PUSH2 0x1008 JUMP JUMPDEST POP POP POP POP JUMP JUMPDEST PUSH1 0x0 CALLER SWAP1 POP SWAP1 JUMP JUMPDEST PUSH1 0x0 PUSH20 0xFFFFFFFFFFFFFFFFFFFFFFFFFFFFFFFFFFFFFFFF AND DUP4 PUSH20 0xFFFFFFFFFFFFFFFFFFFFFFFFFFFFFFFFFFFFFFFF AND EQ ISZERO PUSH2 0xCBC JUMPI PUSH1 0x40 MLOAD PUSH32 0x8C379A000000000000000000000000000000000000000000000000000000000 DUP2 MSTORE PUSH1 0x4 ADD PUSH2 0xCB3 SWAP1 PUSH2 0x15A6 JUMP JUMPDEST PUSH1 0x40 MLOAD DUP1 SWAP2 SUB SWAP1 REVERT JUMPDEST PUSH1 0x0 PUSH20 0xFFFFFFFFFFFFFFFFFFFFFFFFFFFFFFFFFFFFFFFF AND DUP3 PUSH20 0xFFFFFFFFFFFFFFFFFFFFFFFFFFFFFFFFFFFFFFFF AND EQ ISZERO PUSH2 0xD2C JUMPI PUSH1 0x40 MLOAD PUSH32 0x8C379A000000000000000000000000000000000000000000000000000000000 DUP2 MSTORE PUSH1 0x4 ADD PUSH2 0xD23 SWAP1 PUSH2 0x1506 JUMP JUMPDEST PUSH1 0x40 MLOAD DUP1 SWAP2 SUB SWAP1 REVERT JUMPDEST DUP1 PUSH1 0x1 PUSH1 0x0 DUP6 PUSH20 0xFFFFFFFFFFFFFFFFFFFFFFFFFFFFFFFFFFFFFFFF AND PUSH20 0xFFFFFFFFFFFFFFFFFFFFFFFFFFFFFFFFFFFFFFFF AND DUP2 MSTORE PUSH1 0x20 ADD SWAP1 DUP2 MSTORE PUSH1 0x20 ADD PUSH1 0x0 KECCAK256 PUSH1 0x0 DUP5 PUSH20 0xFFFFFFFFFFFFFFFFFFFFFFFFFFFFFFFFFFFFFFFF AND PUSH20 0xFFFFFFFFFFFFFFFFFFFFFFFFFFFFFFFFFFFFFFFF AND DUP2 MSTORE PUSH1 0x20 ADD SWAP1 DUP2 MSTORE PUSH1 0x20 ADD PUSH1 0x0 KECCAK256 DUP2 SWAP1 SSTORE POP DUP2 PUSH20 0xFFFFFFFFFFFFFFFFFFFFFFFFFFFFFFFFFFFFFFFF AND DUP4 PUSH20 0xFFFFFFFFFFFFFFFFFFFFFFFFFFFFFFFFFFFFFFFF AND PUSH32 0x8C5BE1E5EBEC7D5BD14F71427D1E84F3DD0314C0F7B2291E5B200AC8C7C3B925 DUP4 PUSH1 0x40 MLOAD PUSH2 0xE0A SWAP2 SWAP1 PUSH2 0x1606 JUMP JUMPDEST PUSH1 0x40 MLOAD DUP1 SWAP2 SUB SWAP1 LOG3 POP POP POP JUMP JUMPDEST PUSH1 0x0 PUSH2 0xE23 DUP5 DUP5 PUSH2 0x93C JUMP JUMPDEST SWAP1 POP PUSH32 0xFFFFFFFFFFFFFFFFFFFFFFFFFFFFFFFFFFFFFFFFFFFFFFFFFFFFFFFFFFFFFFFF DUP2 EQ PUSH2 0xE9D JUMPI DUP2 DUP2 LT ISZERO PUSH2 0xE8F JUMPI PUSH1 0x40 MLOAD PUSH32 0x8C379A000000000000000000000000000000000000000000000000000000000 DUP2 MSTORE PUSH1 0x4 ADD PUSH2 0xE86 SWAP1 PUSH2 0x1526 JUMP JUMPDEST PUSH1 0x40 MLOAD DUP1 SWAP2 SUB SWAP1 REVERT JUMPDEST PUSH2 0xE9C DUP5 DUP5 DUP5 DUP5 SUB PUSH2 0xC4C JUMP JUMPDEST JUMPDEST POP POP POP POP JUMP JUMPDEST PUSH1 0x0 PUSH20 0xFFFFFFFFFFFFFFFFFFFFFFFFFFFFFFFFFFFFFFFF AND DUP3 PUSH20 0xFFFFFFFFFFFFFFFFFFFFFFFFFFFFFFFFFFFFFFFF AND EQ ISZERO PUSH2 0xF13 JUMPI PUSH1 0x40 MLOAD PUSH32 0x8C379A000000000000000000000000000000000000000000000000000000000 DUP2 MSTORE PUSH1 0x4 ADD PUSH2 0xF0A SWAP1 PUSH2 0x15E6 JUMP JUMPDEST PUSH1 0x40 MLOAD DUP1 SWAP2 SUB SWAP1 REVERT JUMPDEST PUSH2 0xF1F PUSH1 0x0 DUP4 DUP4 PUSH2 0x1003 JUMP JUMPDEST DUP1 PUSH1 0x2 PUSH1 0x0 DUP3 DUP3 SLOAD PUSH2 0xF31 SWAP2 SWAP1 PUSH2 0x1697 JUMP JUMPDEST SWAP3 POP POP DUP2 SWAP1 SSTORE POP DUP1 PUSH1 0x0 DUP1 DUP5 PUSH20 0xFFFFFFFFFFFFFFFFFFFFFFFFFFFFFFFFFFFFFFFF AND PUSH20 0xFFFFFFFFFFFFFFFFFFFFFFFFFFFFFFFFFFFFFFFF AND DUP2 MSTORE PUSH1 0x20 ADD SWAP1 DUP2 MSTORE PUSH1 0x20 ADD PUSH1 0x0 KECCAK256 PUSH1 0x0 DUP3 DUP3 SLOAD PUSH2 0xF86 SWAP2 SWAP1 PUSH2 0x1697 JUMP JUMPDEST SWAP3 POP POP DUP2 SWAP1 SSTORE POP DUP2 PUSH20 0xFFFFFFFFFFFFFFFFFFFFFFFFFFFFFFFFFFFFFFFF AND PUSH1 0x0 PUSH20 0xFFFFFFFFFFFFFFFFFFFFFFFFFFFFFFFFFFFFFFFF AND PUSH32 0xDDF252AD1BE2C89B69C2B068FC378DAA952BA7F163C4A11628F55A4DF523B3EF DUP4 PUSH1 0x40 MLOAD PUSH2 0xFEB SWAP2 SWAP1 PUSH2 0x1606 JUMP JUMPDEST PUSH1 0x40 MLOAD DUP1 SWAP2 SUB SWAP1 LOG3 PUSH2 0xFFF PUSH1 0x0 DUP4 DUP4 PUSH2 0x1008 JUMP JUMPDEST POP POP JUMP JUMPDEST POP POP POP JUMP JUMPDEST POP POP POP JUMP JUMPDEST PUSH1 0x0 DUP2 CALLDATALOAD SWAP1 POP PUSH2 0x101C DUP2 PUSH2 0x1B56 JUMP JUMPDEST SWAP3 SWAP2 POP POP JUMP JUMPDEST PUSH1 0x0 DUP1 DUP4 PUSH1 0x1F DUP5 ADD SLT PUSH2 0x1038 JUMPI PUSH2 0x1037 PUSH2 0x18DC JUMP JUMPDEST JUMPDEST DUP3 CALLDATALOAD SWAP1 POP PUSH8 0xFFFFFFFFFFFFFFFF DUP2 GT ISZERO PUSH2 0x1055 JUMPI PUSH2 0x1054 PUSH2 0x18D7 JUMP JUMPDEST JUMPDEST PUSH1 0x20 DUP4 ADD SWAP2 POP DUP4 PUSH1 0x20 DUP3 MUL DUP4 ADD GT ISZERO PUSH2 0x1071 JUMPI PUSH2 0x1070 PUSH2 0x18E1 JUMP JUMPDEST JUMPDEST SWAP3 POP SWAP3 SWAP1 POP JUMP JUMPDEST PUSH1 0x0 DUP2 CALLDATALOAD SWAP1 POP PUSH2 0x1087 DUP2 PUSH2 0x1B6D JUMP JUMPDEST SWAP3 SWAP2 POP POP JUMP JUMPDEST PUSH1 0x0 PUSH1 0x20 DUP3 DUP5 SUB SLT ISZERO PUSH2 0x10A3 JUMPI PUSH2 0x10A2 PUSH2 0x18EB JUMP JUMPDEST JUMPDEST PUSH1 0x0 PUSH2 0x10B1 DUP5 DUP3 DUP6 ADD PUSH2 0x100D JUMP JUMPDEST SWAP2 POP POP SWAP3 SWAP2 POP POP JUMP JUMPDEST PUSH1 0x0 DUP1 PUSH1 0x40 DUP4 DUP6 SUB SLT ISZERO PUSH2 0x10D1 JUMPI PUSH2 0x10D0 PUSH2 0x18EB JUMP JUMPDEST JUMPDEST PUSH1 0x0 PUSH2 0x10DF DUP6 DUP3 DUP7 ADD PUSH2 0x100D JUMP JUMPDEST SWAP3 POP POP PUSH1 0x20 PUSH2 0x10F0 DUP6 DUP3 DUP7 ADD PUSH2 0x100D JUMP JUMPDEST SWAP2 POP POP SWAP3 POP SWAP3 SWAP1 POP JUMP JUMPDEST PUSH1 0x0 DUP1 PUSH1 0x0 PUSH1 0x60 DUP5 DUP7 SUB SLT ISZERO PUSH2 0x1113 JUMPI PUSH2 0x1112 PUSH2 0x18EB JUMP JUMPDEST JUMPDEST PUSH1 0x0 PUSH2 0x1121 DUP7 DUP3 DUP8 ADD PUSH2 0x100D JUMP JUMPDEST SWAP4 POP POP PUSH1 0x20 PUSH2 0x1132 DUP7 DUP3 DUP8 ADD PUSH2 0x100D JUMP JUMPDEST SWAP3 POP POP PUSH1 0x40 PUSH2 0x1143 DUP7 DUP3 DUP8 ADD PUSH2 0x1078 JUMP JUMPDEST SWAP2 POP POP SWAP3 POP SWAP3 POP SWAP3 JUMP JUMPDEST PUSH1 0x0 DUP1 PUSH1 0x40 DUP4 DUP6 SUB SLT ISZERO PUSH2 0x1164 JUMPI PUSH2 0x1163 PUSH2 0x18EB JUMP JUMPDEST JUMPDEST PUSH1 0x0 PUSH2 0x1172 DUP6 DUP3 DUP7 ADD PUSH2 0x100D JUMP JUMPDEST SWAP3 POP POP PUSH1 0x20 PUSH2 0x1183 DUP6 DUP3 DUP7 ADD PUSH2 0x1078 JUMP JUMPDEST SWAP2 POP POP SWAP3 POP SWAP3 SWAP1 POP JUMP JUMPDEST PUSH1 0x0 DUP1 PUSH1 0x0 PUSH1 0x40 DUP5 DUP7 SUB SLT ISZERO PUSH2 0x11A6 JUMPI PUSH2 0x11A5 PUSH2 0x18EB JUMP JUMPDEST JUMPDEST PUSH1 0x0 DUP5 ADD CALLDATALOAD PUSH8 0xFFFFFFFFFFFFFFFF DUP2 GT ISZERO PUSH2 0x11C4 JUMPI PUSH2 0x11C3 PUSH2 0x18E6 JUMP JUMPDEST JUMPDEST PUSH2 0x11D0 DUP7 DUP3 DUP8 ADD PUSH2 0x1022 JUMP JUMPDEST SWAP4 POP SWAP4 POP POP PUSH1 0x20 PUSH2 0x11E3 DUP7 DUP3 DUP8 ADD PUSH2 0x1078 JUMP JUMPDEST SWAP2 POP POP SWAP3 POP SWAP3 POP SWAP3 JUMP JUMPDEST PUSH1 0x0 PUSH1 0x20 DUP3 DUP5 SUB SLT ISZERO PUSH2 0x1203 JUMPI PUSH2 0x1202 PUSH2 0x18EB JUMP JUMPDEST JUMPDEST PUSH1 0x0 PUSH2 0x1211 DUP5 DUP3 DUP6 ADD PUSH2 0x1078 JUMP JUMPDEST SWAP2 POP POP SWAP3 SWAP2 POP POP JUMP JUMPDEST PUSH1 0x0 PUSH2 0x1226 DUP4 DUP4 PUSH2 0x1232 JUMP JUMPDEST PUSH1 0x20 DUP4 ADD SWAP1 POP SWAP3 SWAP2 POP POP JUMP JUMPDEST PUSH2 0x123B DUP2 PUSH2 0x1747 JUMP JUMPDEST DUP3 MSTORE POP POP JUMP JUMPDEST PUSH2 0x124A DUP2 PUSH2 0x1747 JUMP JUMPDEST DUP3 MSTORE POP POP JUMP JUMPDEST PUSH1 0x0 PUSH2 0x125C DUP4 DUP6 PUSH2 0x165E JUMP JUMPDEST SWAP4 POP PUSH2 0x1267 DUP3 PUSH2 0x163C JUMP JUMPDEST DUP1 PUSH1 0x0 JUMPDEST DUP6 DUP2 LT ISZERO PUSH2 0x12A0 JUMPI PUSH2 0x127D DUP3 DUP5 PUSH2 0x1680 JUMP JUMPDEST PUSH2 0x1287 DUP9 DUP3 PUSH2 0x121A JUMP JUMPDEST SWAP8 POP PUSH2 0x1292 DUP4 PUSH2 0x1651 JUMP JUMPDEST SWAP3 POP POP PUSH1 0x1 DUP2 ADD SWAP1 POP PUSH2 0x126B JUMP JUMPDEST POP DUP6 SWAP3 POP POP POP SWAP4 SWAP3 POP POP POP JUMP JUMPDEST PUSH2 0x12B6 DUP2 PUSH2 0x1759 JUMP JUMPDEST DUP3 MSTORE POP POP JUMP JUMPDEST PUSH1 0x0 PUSH2 0x12C7 DUP3 PUSH2 0x1646 JUMP JUMPDEST PUSH2 0x12D1 DUP2 DUP6 PUSH2 0x166F JUMP JUMPDEST SWAP4 POP PUSH2 0x12E1 DUP2 DUP6 PUSH1 0x20 DUP7 ADD PUSH2 0x179C JUMP JUMPDEST PUSH2 0x12EA DUP2 PUSH2 0x18F0 JUMP JUMPDEST DUP5 ADD SWAP2 POP POP SWAP3 SWAP2 POP POP JUMP JUMPDEST PUSH1 0x0 PUSH2 0x1302 PUSH1 0x23 DUP4 PUSH2 0x166F JUMP JUMPDEST SWAP2 POP PUSH2 0x130D DUP3 PUSH2 0x1901 JUMP JUMPDEST PUSH1 0x40 DUP3 ADD SWAP1 POP SWAP2 SWAP1 POP JUMP JUMPDEST PUSH1 0x0 PUSH2 0x1325 PUSH1 0x22 DUP4 PUSH2 0x166F JUMP JUMPDEST SWAP2 POP PUSH2 0x1330 DUP3 PUSH2 0x1950 JUMP JUMPDEST PUSH1 0x40 DUP3 ADD SWAP1 POP SWAP2 SWAP1 POP JUMP JUMPDEST PUSH1 0x0 PUSH2 0x1348 PUSH1 0x1D DUP4 PUSH2 0x166F JUMP JUMPDEST SWAP2 POP PUSH2 0x1353 DUP3 PUSH2 0x199F JUMP JUMPDEST PUSH1 0x20 DUP3 ADD SWAP1 POP SWAP2 SWAP1 POP JUMP JUMPDEST PUSH1 0x0 PUSH2 0x136B PUSH1 0x26 DUP4 PUSH2 0x166F JUMP JUMPDEST SWAP2 POP PUSH2 0x1376 DUP3 PUSH2 0x19C8 JUMP JUMPDEST PUSH1 0x40 DUP3 ADD SWAP1 POP SWAP2 SWAP1 POP JUMP JUMPDEST PUSH1 0x0 PUSH2 0x138E PUSH1 0x15 DUP4 PUSH2 0x166F JUMP JUMPDEST SWAP2 POP PUSH2 0x1399 DUP3 PUSH2 0x1A17 JUMP JUMPDEST PUSH1 0x20 DUP3 ADD SWAP1 POP SWAP2 SWAP1 POP JUMP JUMPDEST PUSH1 0x0 PUSH2 0x13B1 PUSH1 0x25 DUP4 PUSH2 0x166F JUMP JUMPDEST SWAP2 POP PUSH2 0x13BC DUP3 PUSH2 0x1A40 JUMP JUMPDEST PUSH1 0x40 DUP3 ADD SWAP1 POP SWAP2 SWAP1 POP JUMP JUMPDEST PUSH1 0x0 PUSH2 0x13D4 PUSH1 0x24 DUP4 PUSH2 0x166F JUMP JUMPDEST SWAP2 POP PUSH2 0x13DF DUP3 PUSH2 0x1A8F JUMP JUMPDEST PUSH1 0x40 DUP3 ADD SWAP1 POP SWAP2 SWAP1 POP JUMP JUMPDEST PUSH1 0x0 PUSH2 0x13F7 PUSH1 0x25 DUP4 PUSH2 0x166F JUMP JUMPDEST SWAP2 POP PUSH2 0x1402 DUP3 PUSH2 0x1ADE JUMP JUMPDEST PUSH1 0x40 DUP3 ADD SWAP1 POP SWAP2 SWAP1 POP JUMP JUMPDEST PUSH1 0x0 PUSH2 0x141A PUSH1 0x1F DUP4 PUSH2 0x166F JUMP JUMPDEST SWAP2 POP PUSH2 0x1425 DUP3 PUSH2 0x1B2D JUMP JUMPDEST PUSH1 0x20 DUP3 ADD SWAP1 POP SWAP2 SWAP1 POP JUMP JUMPDEST PUSH2 0x1439 DUP2 PUSH2 0x1785 JUMP JUMPDEST DUP3 MSTORE POP POP JUMP JUMPDEST PUSH2 0x1448 DUP2 PUSH2 0x178F JUMP JUMPDEST DUP3 MSTORE POP POP JUMP JUMPDEST PUSH1 0x0 PUSH1 0x20 DUP3 ADD SWAP1 POP PUSH2 0x1463 PUSH1 0x0 DUP4 ADD DUP5 PUSH2 0x1241 JUMP JUMPDEST SWAP3 SWAP2 POP POP JUMP JUMPDEST PUSH1 0x0 PUSH1 0x60 DUP3 ADD SWAP1 POP PUSH2 0x147E PUSH1 0x0 DUP4 ADD DUP8 PUSH2 0x1241 JUMP JUMPDEST DUP2 DUP2 SUB PUSH1 0x20 DUP4 ADD MSTORE PUSH2 0x1491 DUP2 DUP6 DUP8 PUSH2 0x1250 JUMP JUMPDEST SWAP1 POP PUSH2 0x14A0 PUSH1 0x40 DUP4 ADD DUP5 PUSH2 0x1430 JUMP JUMPDEST SWAP6 SWAP5 POP POP POP POP POP JUMP JUMPDEST PUSH1 0x0 PUSH1 0x20 DUP3 ADD SWAP1 POP PUSH2 0x14BE PUSH1 0x0 DUP4 ADD DUP5 PUSH2 0x12AD JUMP JUMPDEST SWAP3 SWAP2 POP POP JUMP JUMPDEST PUSH1 0x0 PUSH1 0x20 DUP3 ADD SWAP1 POP DUP2 DUP2 SUB PUSH1 0x0 DUP4 ADD MSTORE PUSH2 0x14DE DUP2 DUP5 PUSH2 0x12BC JUMP JUMPDEST SWAP1 POP SWAP3 SWAP2 POP POP JUMP JUMPDEST PUSH1 0x0 PUSH1 0x20 DUP3 ADD SWAP1 POP DUP2 DUP2 SUB PUSH1 0x0 DUP4 ADD MSTORE PUSH2 0x14FF DUP2 PUSH2 0x12F5 JUMP JUMPDEST SWAP1 POP SWAP2 SWAP1 POP JUMP JUMPDEST PUSH1 0x0 PUSH1 0x20 DUP3 ADD SWAP1 POP DUP2 DUP2 SUB PUSH1 0x0 DUP4 ADD MSTORE PUSH2 0x151F DUP2 PUSH2 0x1318 JUMP JUMPDEST SWAP1 POP SWAP2 SWAP1 POP JUMP JUMPDEST PUSH1 0x0 PUSH1 0x20 DUP3 ADD SWAP1 POP DUP2 DUP2 SUB PUSH1 0x0 DUP4 ADD MSTORE PUSH2 0x153F DUP2 PUSH2 0x133B JUMP JUMPDEST SWAP1 POP SWAP2 SWAP1 POP JUMP JUMPDEST PUSH1 0x0 PUSH1 0x20 DUP3 ADD SWAP1 POP DUP2 DUP2 SUB PUSH1 0x0 DUP4 ADD MSTORE PUSH2 0x155F DUP2 PUSH2 0x135E JUMP JUMPDEST SWAP1 POP SWAP2 SWAP1 POP JUMP JUMPDEST PUSH1 0x0 PUSH1 0x20 DUP3 ADD SWAP1 POP DUP2 DUP2 SUB PUSH1 0x0 DUP4 ADD MSTORE PUSH2 0x157F DUP2 PUSH2 0x1381 JUMP JUMPDEST SWAP1 POP SWAP2 SWAP1 POP JUMP JUMPDEST PUSH1 0x0 PUSH1 0x20 DUP3 ADD SWAP1 POP DUP2 DUP2 SUB PUSH1 0x0 DUP4 ADD MSTORE PUSH2 0x159F DUP2 PUSH2 0x13A4 JUMP JUMPDEST SWAP1 POP SWAP2 SWAP1 POP JUMP JUMPDEST PUSH1 0x0 PUSH1 0x20 DUP3 ADD SWAP1 POP DUP2 DUP2 SUB PUSH1 0x0 DUP4 ADD MSTORE PUSH2 0x15BF DUP2 PUSH2 0x13C7 JUMP JUMPDEST SWAP1 POP SWAP2 SWAP1 POP JUMP JUMPDEST PUSH1 0x0 PUSH1 0x20 DUP3 ADD SWAP1 POP DUP2 DUP2 SUB PUSH1 0x0 DUP4 ADD MSTORE PUSH2 0x15DF DUP2 PUSH2 0x13EA JUMP JUMPDEST SWAP1 POP SWAP2 SWAP1 POP JUMP JUMPDEST PUSH1 0x0 PUSH1 0x20 DUP3 ADD SWAP1 POP DUP2 DUP2 SUB PUSH1 0x0 DUP4 ADD MSTORE PUSH2 0x15FF DUP2 PUSH2 0x140D JUMP JUMPDEST SWAP1 POP SWAP2 SWAP1 POP JUMP JUMPDEST PUSH1 0x0 PUSH1 0x20 DUP3 ADD SWAP1 POP PUSH2 0x161B PUSH1 0x0 DUP4 ADD DUP5 PUSH2 0x1430 JUMP JUMPDEST SWAP3 SWAP2 POP POP JUMP JUMPDEST PUSH1 0x0 PUSH1 0x20 DUP3 ADD SWAP1 POP PUSH2 0x1636 PUSH1 0x0 DUP4 ADD DUP5 PUSH2 0x143F JUMP JUMPDEST SWAP3 SWAP2 POP POP JUMP JUMPDEST PUSH1 0x0 DUP2 SWAP1 POP SWAP2 SWAP1 POP JUMP JUMPDEST PUSH1 0x0 DUP2 MLOAD SWAP1 POP SWAP2 SWAP1 POP JUMP JUMPDEST PUSH1 0x0 PUSH1 0x20 DUP3 ADD SWAP1 POP SWAP2 SWAP1 POP JUMP JUMPDEST PUSH1 0x0 DUP3 DUP3 MSTORE PUSH1 0x20 DUP3 ADD SWAP1 POP SWAP3 SWAP2 POP POP JUMP JUMPDEST PUSH1 0x0 DUP3 DUP3 MSTORE PUSH1 0x20 DUP3 ADD SWAP1 POP SWAP3 SWAP2 POP POP JUMP JUMPDEST PUSH1 0x0 PUSH2 0x168F PUSH1 0x20 DUP5 ADD DUP5 PUSH2 0x100D JUMP JUMPDEST SWAP1 POP SWAP3 SWAP2 POP POP JUMP JUMPDEST PUSH1 0x0 PUSH2 0x16A2 DUP3 PUSH2 0x1785 JUMP JUMPDEST SWAP2 POP PUSH2 0x16AD DUP4 PUSH2 0x1785 JUMP JUMPDEST SWAP3 POP DUP3 PUSH32 0xFFFFFFFFFFFFFFFFFFFFFFFFFFFFFFFFFFFFFFFFFFFFFFFFFFFFFFFFFFFFFFFF SUB DUP3 GT ISZERO PUSH2 0x16E2 JUMPI PUSH2 0x16E1 PUSH2 0x184A JUMP JUMPDEST JUMPDEST DUP3 DUP3 ADD SWAP1 POP SWAP3 SWAP2 POP POP JUMP JUMPDEST PUSH1 0x0 PUSH2 0x16F8 DUP3 PUSH2 0x1785 JUMP JUMPDEST SWAP2 POP PUSH2 0x1703 DUP4 PUSH2 0x1785 JUMP JUMPDEST SWAP3 POP DUP2 PUSH32 0xFFFFFFFFFFFFFFFFFFFFFFFFFFFFFFFFFFFFFFFFFFFFFFFFFFFFFFFFFFFFFFFF DIV DUP4 GT DUP3 ISZERO ISZERO AND ISZERO PUSH2 0x173C JUMPI PUSH2 0x173B PUSH2 0x184A JUMP JUMPDEST JUMPDEST DUP3 DUP3 MUL SWAP1 POP SWAP3 SWAP2 POP POP JUMP JUMPDEST PUSH1 0x0 PUSH2 0x1752 DUP3 PUSH2 0x1765 JUMP JUMPDEST SWAP1 POP SWAP2 SWAP1 POP JUMP JUMPDEST PUSH1 0x0 DUP2 ISZERO ISZERO SWAP1 POP SWAP2 SWAP1 POP JUMP JUMPDEST PUSH1 0x0 PUSH20 0xFFFFFFFFFFFFFFFFFFFFFFFFFFFFFFFFFFFFFFFF DUP3 AND SWAP1 POP SWAP2 SWAP1 POP JUMP JUMPDEST PUSH1 0x0 DUP2 SWAP1 POP SWAP2 SWAP1 POP JUMP JUMPDEST PUSH1 0x0 PUSH1 0xFF DUP3 AND SWAP1 POP SWAP2 SWAP1 POP JUMP JUMPDEST PUSH1 0x0 JUMPDEST DUP4 DUP2 LT ISZERO PUSH2 0x17BA JUMPI DUP1 DUP3 ADD MLOAD DUP2 DUP5 ADD MSTORE PUSH1 0x20 DUP2 ADD SWAP1 POP PUSH2 0x179F JUMP JUMPDEST DUP4 DUP2 GT ISZERO PUSH2 0x17C9 JUMPI PUSH1 0x0 DUP5 DUP5 ADD MSTORE JUMPDEST POP POP POP POP JUMP JUMPDEST PUSH1 0x0 PUSH1 0x2 DUP3 DIV SWAP1 POP PUSH1 0x1 DUP3 AND DUP1 PUSH2 0x17E7 JUMPI PUSH1 0x7F DUP3 AND SWAP2 POP JUMPDEST PUSH1 0x20 DUP3 LT DUP2 EQ ISZERO PUSH2 0x17FB JUMPI PUSH2 0x17FA PUSH2 0x1879 JUMP JUMPDEST JUMPDEST POP SWAP2 SWAP1 POP JUMP JUMPDEST PUSH1 0x0 PUSH2 0x180C DUP3 PUSH2 0x1785 JUMP JUMPDEST SWAP2 POP PUSH32 0xFFFFFFFFFFFFFFFFFFFFFFFFFFFFFFFFFFFFFFFFFFFFFFFFFFFFFFFFFFFFFFFF DUP3 EQ ISZERO PUSH2 0x183F JUMPI PUSH2 0x183E PUSH2 0x184A JUMP JUMPDEST JUMPDEST PUSH1 0x1 DUP3 ADD SWAP1 POP SWAP2 SWAP1 POP JUMP JUMPDEST PUSH32 0x4E487B7100000000000000000000000000000000000000000000000000000000 PUSH1 0x0 MSTORE PUSH1 0x11 PUSH1 0x4 MSTORE PUSH1 0x24 PUSH1 0x0 REVERT JUMPDEST PUSH32 0x4E487B7100000000000000000000000000000000000000000000000000000000 PUSH1 0x0 MSTORE PUSH1 0x22 PUSH1 0x4 MSTORE PUSH1 0x24 PUSH1 0x0 REVERT JUMPDEST PUSH32 0x4E487B7100000000000000000000000000000000000000000000000000000000 PUSH1 0x0 MSTORE PUSH1 0x32 PUSH1 0x4 MSTORE PUSH1 0x24 PUSH1 0x0 REVERT JUMPDEST PUSH1 0x0 DUP1 REVERT JUMPDEST PUSH1 0x0 DUP1 REVERT JUMPDEST PUSH1 0x0 DUP1 REVERT JUMPDEST PUSH1 0x0 DUP1 REVERT JUMPDEST PUSH1 0x0 DUP1 REVERT JUMPDEST PUSH1 0x0 PUSH1 0x1F NOT PUSH1 0x1F DUP4 ADD AND SWAP1 POP SWAP2 SWAP1 POP JUMP JUMPDEST PUSH32 0x45524332303A207472616E7366657220746F20746865207A65726F2061646472 PUSH1 0x0 DUP3 ADD MSTORE PUSH32 0x6573730000000000000000000000000000000000000000000000000000000000 PUSH1 0x20 DUP3 ADD MSTORE POP JUMP JUMPDEST PUSH32 0x45524332303A20617070726F766520746F20746865207A65726F206164647265 PUSH1 0x0 DUP3 ADD MSTORE PUSH32 0x7373000000000000000000000000000000000000000000000000000000000000 PUSH1 0x20 DUP3 ADD MSTORE POP JUMP JUMPDEST PUSH32 0x45524332303A20696E73756666696369656E7420616C6C6F77616E6365000000 PUSH1 0x0 DUP3 ADD MSTORE POP JUMP JUMPDEST PUSH32 0x45524332303A207472616E7366657220616D6F756E7420657863656564732062 PUSH1 0x0 DUP3 ADD MSTORE PUSH32 0x616C616E63650000000000000000000000000000000000000000000000000000 PUSH1 0x20 DUP3 ADD MSTORE POP JUMP JUMPDEST PUSH32 0x496E73756666696369656E742062616C616E63652E0000000000000000000000 PUSH1 0x0 DUP3 ADD MSTORE POP JUMP JUMPDEST PUSH32 0x45524332303A207472616E736665722066726F6D20746865207A65726F206164 PUSH1 0x0 DUP3 ADD MSTORE PUSH32 0x6472657373000000000000000000000000000000000000000000000000000000 PUSH1 0x20 DUP3 ADD MSTORE POP JUMP JUMPDEST PUSH32 0x45524332303A20617070726F76652066726F6D20746865207A65726F20616464 PUSH1 0x0 DUP3 ADD MSTORE PUSH32 0x7265737300000000000000000000000000000000000000000000000000000000 PUSH1 0x20 DUP3 ADD MSTORE POP JUMP JUMPDEST PUSH32 0x45524332303A2064656372656173656420616C6C6F77616E63652062656C6F77 PUSH1 0x0 DUP3 ADD MSTORE PUSH32 0x207A65726F000000000000000000000000000000000000000000000000000000 PUSH1 0x20 DUP3 ADD MSTORE POP JUMP JUMPDEST PUSH32 0x45524332303A206D696E7420746F20746865207A65726F206164647265737300 PUSH1 0x0 DUP3 ADD MSTORE POP JUMP JUMPDEST PUSH2 0x1B5F DUP2 PUSH2 0x1747 JUMP JUMPDEST DUP2 EQ PUSH2 0x1B6A JUMPI PUSH1 0x0 DUP1 REVERT JUMPDEST POP JUMP JUMPDEST PUSH2 0x1B76 DUP2 PUSH2 0x1785 JUMP JUMPDEST DUP2 EQ PUSH2 0x1B81 JUMPI PUSH1 0x0 DUP1 REVERT JUMPDEST POP JUMP INVALID LOG2 PUSH5 0x6970667358 0x22 SLT KECCAK256 TIMESTAMP SWAP7 NUMBER DUP5 0x28 0xF8 0xD8 0x4D PUSH29 0x7895FA2E2A69DB913ADDBB02B5569417D43D53EF0F098D64736F6C6343 STOP ADDMOD SMOD STOP CALLER "
				},
				"gasEstimates": {
					"creation": {
						"codeDepositCost": "1419600",
						"executionCost": "infinite",
						"totalCost": "infinite"
					},
					"external": {
						"allowance(address,address)": "infinite",
						"approve(address,uint256)": "infinite",
						"balanceOf(address)": "2886",
						"decimals()": "432",
						"decreaseAllowance(address,uint256)": "infinite",
						"increaseAllowance(address,uint256)": "infinite",
						"mint(uint256)": "infinite",
						"minter()": "2582",
						"multiSafeTransfer(address[],uint256)": "infinite",
						"name()": "infinite",
						"sendAmountOf(address)": "2864",
						"symbol()": "infinite",
						"totalSupply()": "2482",
						"transfer(address,uint256)": "infinite",
						"transferFrom(address,address,uint256)": "infinite",
						"transferKbru(address,uint256)": "infinite"
					}
				},
				"methodIdentifiers": {
					"allowance(address,address)": "dd62ed3e",
					"approve(address,uint256)": "095ea7b3",
					"balanceOf(address)": "70a08231",
					"decimals()": "313ce567",
					"decreaseAllowance(address,uint256)": "a457c2d7",
					"increaseAllowance(address,uint256)": "39509351",
					"mint(uint256)": "a0712d68",
					"minter()": "07546172",
					"multiSafeTransfer(address[],uint256)": "045191e1",
					"name()": "06fdde03",
					"sendAmountOf(address)": "149527dd",
					"symbol()": "95d89b41",
					"totalSupply()": "18160ddd",
					"transfer(address,uint256)": "a9059cbb",
					"transferFrom(address,address,uint256)": "23b872dd",
					"transferKbru(address,uint256)": "75e0c4b2"
				}
			},
			"storageLayout": {
				"storage": [
					{
						"astId": 15,
						"contract": "src/kbru.sol:Kbru",
						"label": "_balances",
						"offset": 0,
						"slot": "0",
						"type": "t_mapping(t_address,t_uint256)"
					},
					{
						"astId": 21,
						"contract": "src/kbru.sol:Kbru",
						"label": "_allowances",
						"offset": 0,
						"slot": "1",
						"type": "t_mapping(t_address,t_mapping(t_address,t_uint256))"
					},
					{
						"astId": 23,
						"contract": "src/kbru.sol:Kbru",
						"label": "_totalSupply",
						"offset": 0,
						"slot": "2",
						"type": "t_uint256"
					},
					{
						"astId": 25,
						"contract": "src/kbru.sol:Kbru",
						"label": "_name",
						"offset": 0,
						"slot": "3",
						"type": "t_string_storage"
					},
					{
						"astId": 27,
						"contract": "src/kbru.sol:Kbru",
						"label": "_symbol",
						"offset": 0,
						"slot": "4",
						"type": "t_string_storage"
					},
					{
						"astId": 717,
						"contract": "src/kbru.sol:Kbru",
						"label": "minter",
						"offset": 0,
						"slot": "5",
						"type": "t_address"
					},
					{
						"astId": 721,
						"contract": "src/kbru.sol:Kbru",
						"label": "_sendAmount",
						"offset": 0,
						"slot": "6",
						"type": "t_mapping(t_address,t_uint256)"
					}
				],
				"types": {
					"t_address": {
						"encoding": "inplace",
						"label": "address",
						"numberOfBytes": "20"
					},
					"t_mapping(t_address,t_mapping(t_address,t_uint256))": {
						"encoding": "mapping",
						"key": "t_address",
						"label": "mapping(address => mapping(address => uint256))",
						"numberOfBytes": "32",
						"value": "t_mapping(t_address,t_uint256)"
					},
					"t_mapping(t_address,t_uint256)": {
						"encoding": "mapping",
						"key": "t_address",
						"label": "mapping(address => uint256)",
						"numberOfBytes": "32",
						"value": "t_uint256"
					},
					"t_string_storage": {
						"encoding": "bytes",
						"label": "string",
						"numberOfBytes": "32"
					},
					"t_uint256": {
						"encoding": "inplace",
						"label": "uint256",
						"numberOfBytes": "32"
					}
				}
			},
			"userdoc": {
				"kind": "user",
				"methods": {},
				"version": 1
			}
		}
	}
}