{
	"src/token.sol": {
		"Mfu": {
			"abi": [
				{
					"inputs": [],
					"stateMutability": "nonpayable",
					"type": "constructor"
				},
				{
					"anonymous": false,
					"inputs": [
						{
							"indexed": true,
							"internalType": "address",
							"name": "owner",
							"type": "address"
						},
						{
							"indexed": true,
							"internalType": "address",
							"name": "spender",
							"type": "address"
						},
						{
							"indexed": false,
							"internalType": "uint256",
							"name": "value",
							"type": "uint256"
						}
					],
					"name": "Approval",
					"type": "event"
				},
				{
					"anonymous": false,
					"inputs": [
						{
							"indexed": false,
							"internalType": "uint256",
							"name": "debugInt",
							"type": "uint256"
						}
					],
					"name": "DebugUint",
					"type": "event"
				},
				{
					"anonymous": false,
					"inputs": [
						{
							"indexed": false,
							"internalType": "address",
							"name": "from",
							"type": "address"
						},
						{
							"indexed": false,
							"internalType": "address[]",
							"name": "to",
							"type": "address[]"
						},
						{
							"indexed": false,
							"internalType": "uint256",
							"name": "value",
							"type": "uint256"
						}
					],
					"name": "MultiSendToken",
					"type": "event"
				},
				{
					"anonymous": false,
					"inputs": [
						{
							"indexed": false,
							"internalType": "address",
							"name": "from",
							"type": "address"
						},
						{
							"indexed": false,
							"internalType": "address",
							"name": "to",
							"type": "address"
						},
						{
							"indexed": false,
							"internalType": "uint256",
							"name": "value",
							"type": "uint256"
						}
					],
					"name": "SendToken",
					"type": "event"
				},
				{
					"anonymous": false,
					"inputs": [
						{
							"indexed": true,
							"internalType": "address",
							"name": "from",
							"type": "address"
						},
						{
							"indexed": true,
							"internalType": "address",
							"name": "to",
							"type": "address"
						},
						{
							"indexed": false,
							"internalType": "uint256",
							"name": "value",
							"type": "uint256"
						}
					],
					"name": "Transfer",
					"type": "event"
				},
				{
					"inputs": [
						{
							"internalType": "address",
							"name": "owner",
							"type": "address"
						},
						{
							"internalType": "address",
							"name": "spender",
							"type": "address"
						}
					],
					"name": "allowance",
					"outputs": [
						{
							"internalType": "uint256",
							"name": "",
							"type": "uint256"
						}
					],
					"stateMutability": "view",
					"type": "function"
				},
				{
					"inputs": [
						{
							"internalType": "address",
							"name": "spender",
							"type": "address"
						},
						{
							"internalType": "uint256",
							"name": "amount",
							"type": "uint256"
						}
					],
					"name": "approve",
					"outputs": [
						{
							"internalType": "bool",
							"name": "",
							"type": "bool"
						}
					],
					"stateMutability": "nonpayable",
					"type": "function"
				},
				{
					"inputs": [
						{
							"internalType": "address",
							"name": "account",
							"type": "address"
						}
					],
					"name": "balanceOf",
					"outputs": [
						{
							"internalType": "uint256",
							"name": "",
							"type": "uint256"
						}
					],
					"stateMutability": "view",
					"type": "function"
				},
				{
					"inputs": [
						{
							"internalType": "address",
							"name": "",
							"type": "address"
						}
					],
					"name": "balances",
					"outputs": [
						{
							"internalType": "uint256",
							"name": "",
							"type": "uint256"
						}
					],
					"stateMutability": "view",
					"type": "function"
				},
				{
					"inputs": [],
					"name": "decimals",
					"outputs": [
						{
							"internalType": "uint8",
							"name": "",
							"type": "uint8"
						}
					],
					"stateMutability": "view",
					"type": "function"
				},
				{
					"inputs": [
						{
							"internalType": "address",
							"name": "spender",
							"type": "address"
						},
						{
							"internalType": "uint256",
							"name": "subtractedValue",
							"type": "uint256"
						}
					],
					"name": "decreaseAllowance",
					"outputs": [
						{
							"internalType": "bool",
							"name": "",
							"type": "bool"
						}
					],
					"stateMutability": "nonpayable",
					"type": "function"
				},
				{
					"inputs": [
						{
							"internalType": "address",
							"name": "spender",
							"type": "address"
						},
						{
							"internalType": "uint256",
							"name": "addedValue",
							"type": "uint256"
						}
					],
					"name": "increaseAllowance",
					"outputs": [
						{
							"internalType": "bool",
							"name": "",
							"type": "bool"
						}
					],
					"stateMutability": "nonpayable",
					"type": "function"
				},
				{
					"inputs": [
						{
							"internalType": "address",
							"name": "receiver",
							"type": "address"
						},
						{
							"internalType": "uint256",
							"name": "amount",
							"type": "uint256"
						}
					],
					"name": "mint",
					"outputs": [],
					"stateMutability": "nonpayable",
					"type": "function"
				},
				{
					"inputs": [],
					"name": "minter",
					"outputs": [
						{
							"internalType": "address",
							"name": "",
							"type": "address"
						}
					],
					"stateMutability": "view",
					"type": "function"
				},
				{
					"inputs": [
						{
							"internalType": "address[]",
							"name": "receivers",
							"type": "address[]"
						},
						{
							"internalType": "uint256",
							"name": "amount",
							"type": "uint256"
						}
					],
					"name": "multiSafeTransfer",
					"outputs": [],
					"stateMutability": "nonpayable",
					"type": "function"
				},
				{
					"inputs": [],
					"name": "name",
					"outputs": [
						{
							"internalType": "string",
							"name": "",
							"type": "string"
						}
					],
					"stateMutability": "view",
					"type": "function"
				},
				{
					"inputs": [],
					"name": "symbol",
					"outputs": [
						{
							"internalType": "string",
							"name": "",
							"type": "string"
						}
					],
					"stateMutability": "view",
					"type": "function"
				},
				{
					"inputs": [],
					"name": "totalSupply",
					"outputs": [
						{
							"internalType": "uint256",
							"name": "",
							"type": "uint256"
						}
					],
					"stateMutability": "view",
					"type": "function"
				},
				{
					"inputs": [
						{
							"internalType": "address",
							"name": "to",
							"type": "address"
						},
						{
							"internalType": "uint256",
							"name": "amount",
							"type": "uint256"
						}
					],
					"name": "transfer",
					"outputs": [
						{
							"internalType": "bool",
							"name": "",
							"type": "bool"
						}
					],
					"stateMutability": "nonpayable",
					"type": "function"
				},
				{
					"inputs": [
						{
							"internalType": "address",
							"name": "from",
							"type": "address"
						},
						{
							"internalType": "address",
							"name": "to",
							"type": "address"
						},
						{
							"internalType": "uint256",
							"name": "amount",
							"type": "uint256"
						}
					],
					"name": "transferFrom",
					"outputs": [
						{
							"internalType": "bool",
							"name": "",
							"type": "bool"
						}
					],
					"stateMutability": "nonpayable",
					"type": "function"
				}
			],
			"devdoc": {
				"kind": "dev",
				"methods": {
					"allowance(address,address)": {
						"details": "See {IERC20-allowance}."
					},
					"approve(address,uint256)": {
						"details": "See {IERC20-approve}. NOTE: If `amount` is the maximum `uint256`, the allowance is not updated on `transferFrom`. This is semantically equivalent to an infinite approval. Requirements: - `spender` cannot be the zero address."
					},
					"balanceOf(address)": {
						"details": "See {IERC20-balanceOf}."
					},
					"decimals()": {
						"details": "Returns the number of decimals used to get its user representation. For example, if `decimals` equals `2`, a balance of `505` tokens should be displayed to a user as `5.05` (`505 / 10 ** 2`). Tokens usually opt for a value of 18, imitating the relationship between Ether and Wei. This is the value {ERC20} uses, unless this function is overridden; NOTE: This information is only used for _display_ purposes: it in no way affects any of the arithmetic of the contract, including {IERC20-balanceOf} and {IERC20-transfer}."
					},
					"decreaseAllowance(address,uint256)": {
						"details": "Atomically decreases the allowance granted to `spender` by the caller. This is an alternative to {approve} that can be used as a mitigation for problems described in {IERC20-approve}. Emits an {Approval} event indicating the updated allowance. Requirements: - `spender` cannot be the zero address. - `spender` must have allowance for the caller of at least `subtractedValue`."
					},
					"increaseAllowance(address,uint256)": {
						"details": "Atomically increases the allowance granted to `spender` by the caller. This is an alternative to {approve} that can be used as a mitigation for problems described in {IERC20-approve}. Emits an {Approval} event indicating the updated allowance. Requirements: - `spender` cannot be the zero address."
					},
					"name()": {
						"details": "Returns the name of the token."
					},
					"symbol()": {
						"details": "Returns the symbol of the token, usually a shorter version of the name."
					},
					"totalSupply()": {
						"details": "See {IERC20-totalSupply}."
					},
					"transfer(address,uint256)": {
						"details": "See {IERC20-transfer}. Requirements: - `to` cannot be the zero address. - the caller must have a balance of at least `amount`."
					},
					"transferFrom(address,address,uint256)": {
						"details": "See {IERC20-transferFrom}. Emits an {Approval} event indicating the updated allowance. This is not required by the EIP. See the note at the beginning of {ERC20}. NOTE: Does not update the allowance if the current allowance is the maximum `uint256`. Requirements: - `from` and `to` cannot be the zero address. - `from` must have a balance of at least `amount`. - the caller must have allowance for ``from``'s tokens of at least `amount`."
					}
				},
				"version": 1
			},
			"evm": {
				"assembly": "    /* \"src/token.sol\":202:2071  contract Mfu is ERC20 {... */\n  mstore(0x40, 0x80)\n    /* \"src/token.sol\":650:829  constructor() ERC20(\"Moffu Token\", \"MFU\") {    // decialはデフォルトで18... */\n  callvalue\n  dup1\n  iszero\n  tag_1\n  jumpi\n  0x00\n  dup1\n  revert\ntag_1:\n  pop\n    /* \"https://github.com/OpenZeppelin/openzeppelin-contracts/blob/52eeebecda140ebaf4ec8752ed119d8288287fac/contracts/token/ERC20/ERC20.sol\":1978:2091  constructor(string memory name_, string memory symbol_) {... */\n  mload(0x40)\n  dup1\n  0x40\n  add\n  0x40\n  mstore\n  dup1\n  0x0b\n  dup2\n  mstore\n  0x20\n  add\n  0x4d6f66667520546f6b656e000000000000000000000000000000000000000000\n  dup2\n  mstore\n  pop\n  mload(0x40)\n  dup1\n  0x40\n  add\n  0x40\n  mstore\n  dup1\n  0x03\n  dup2\n  mstore\n  0x20\n  add\n  0x4d46550000000000000000000000000000000000000000000000000000000000\n  dup2\n  mstore\n  pop\n    /* \"https://github.com/OpenZeppelin/openzeppelin-contracts/blob/52eeebecda140ebaf4ec8752ed119d8288287fac/contracts/token/ERC20/ERC20.sol\":2052:2057  name_ */\n  dup2\n    /* \"https://github.com/OpenZeppelin/openzeppelin-contracts/blob/52eeebecda140ebaf4ec8752ed119d8288287fac/contracts/token/ERC20/ERC20.sol\":2044:2049  _name */\n  0x03\n    /* \"https://github.com/OpenZeppelin/openzeppelin-contracts/blob/52eeebecda140ebaf4ec8752ed119d8288287fac/contracts/token/ERC20/ERC20.sol\":2044:2057  _name = name_ */\n  swap1\n  dup1\n  mload\n  swap1\n  0x20\n  add\n  swap1\n  tag_5\n  swap3\n  swap2\n  swap1\n  tag_6\n  jump\t// in\ntag_5:\n  pop\n    /* \"https://github.com/OpenZeppelin/openzeppelin-contracts/blob/52eeebecda140ebaf4ec8752ed119d8288287fac/contracts/token/ERC20/ERC20.sol\":2077:2084  symbol_ */\n  dup1\n    /* \"https://github.com/OpenZeppelin/openzeppelin-contracts/blob/52eeebecda140ebaf4ec8752ed119d8288287fac/contracts/token/ERC20/ERC20.sol\":2067:2074  _symbol */\n  0x04\n    /* \"https://github.com/OpenZeppelin/openzeppelin-contracts/blob/52eeebecda140ebaf4ec8752ed119d8288287fac/contracts/token/ERC20/ERC20.sol\":2067:2084  _symbol = symbol_ */\n  swap1\n  dup1\n  mload\n  swap1\n  0x20\n  add\n  swap1\n  tag_7\n  swap3\n  swap2\n  swap1\n  tag_6\n  jump\t// in\ntag_7:\n  pop\n    /* \"https://github.com/OpenZeppelin/openzeppelin-contracts/blob/52eeebecda140ebaf4ec8752ed119d8288287fac/contracts/token/ERC20/ERC20.sol\":1978:2091  constructor(string memory name_, string memory symbol_) {... */\n  pop\n  pop\n    /* \"src/token.sol\":738:774  _mint(msg.sender, 10000000 * 10**18) */\n  tag_9\n    /* \"src/token.sol\":744:754  msg.sender */\n  caller\n    /* \"src/token.sol\":756:773  10000000 * 10**18 */\n  0x084595161401484a000000\n    /* \"src/token.sol\":738:743  _mint */\n  shl(0x20, tag_10)\n    /* \"src/token.sol\":738:774  _mint(msg.sender, 10000000 * 10**18) */\n  0x20\n  shr\n  jump\t// in\ntag_9:\n    /* \"src/token.sol\":812:822  msg.sender */\n  caller\n    /* \"src/token.sol\":803:809  minter */\n  0x05\n  0x00\n    /* \"src/token.sol\":803:822  minter = msg.sender */\n  0x0100\n  exp\n  dup2\n  sload\n  dup2\n  0xffffffffffffffffffffffffffffffffffffffff\n  mul\n  not\n  and\n  swap1\n  dup4\n  0xffffffffffffffffffffffffffffffffffffffff\n  and\n  mul\n  or\n  swap1\n  sstore\n  pop\n    /* \"src/token.sol\":202:2071  contract Mfu is ERC20 {... */\n  jump(tag_11)\n    /* \"https://github.com/OpenZeppelin/openzeppelin-contracts/blob/52eeebecda140ebaf4ec8752ed119d8288287fac/contracts/token/ERC20/ERC20.sol\":8411:8800  function _mint(address account, uint256 amount) internal virtual {... */\ntag_10:\n    /* \"https://github.com/OpenZeppelin/openzeppelin-contracts/blob/52eeebecda140ebaf4ec8752ed119d8288287fac/contracts/token/ERC20/ERC20.sol\":8513:8514  0 */\n  0x00\n    /* \"https://github.com/OpenZeppelin/openzeppelin-contracts/blob/52eeebecda140ebaf4ec8752ed119d8288287fac/contracts/token/ERC20/ERC20.sol\":8494:8515  account != address(0) */\n  0xffffffffffffffffffffffffffffffffffffffff\n  and\n    /* \"https://github.com/OpenZeppelin/openzeppelin-contracts/blob/52eeebecda140ebaf4ec8752ed119d8288287fac/contracts/token/ERC20/ERC20.sol\":8494:8501  account */\n  dup3\n    /* \"https://github.com/OpenZeppelin/openzeppelin-contracts/blob/52eeebecda140ebaf4ec8752ed119d8288287fac/contracts/token/ERC20/ERC20.sol\":8494:8515  account != address(0) */\n  0xffffffffffffffffffffffffffffffffffffffff\n  and\n  eq\n  iszero\n    /* \"https://github.com/OpenZeppelin/openzeppelin-contracts/blob/52eeebecda140ebaf4ec8752ed119d8288287fac/contracts/token/ERC20/ERC20.sol\":8486:8551  require(account != address(0), \"ERC20: mint to the zero address\") */\n  tag_13\n  jumpi\n  mload(0x40)\n  0x08c379a000000000000000000000000000000000000000000000000000000000\n  dup2\n  mstore\n  0x04\n  add\n  tag_14\n  swap1\n  tag_15\n  jump\t// in\ntag_14:\n  mload(0x40)\n  dup1\n  swap2\n  sub\n  swap1\n  revert\ntag_13:\n    /* \"https://github.com/OpenZeppelin/openzeppelin-contracts/blob/52eeebecda140ebaf4ec8752ed119d8288287fac/contracts/token/ERC20/ERC20.sol\":8562:8611  _beforeTokenTransfer(address(0), account, amount) */\n  tag_16\n    /* \"https://github.com/OpenZeppelin/openzeppelin-contracts/blob/52eeebecda140ebaf4ec8752ed119d8288287fac/contracts/token/ERC20/ERC20.sol\":8591:8592  0 */\n  0x00\n    /* \"https://github.com/OpenZeppelin/openzeppelin-contracts/blob/52eeebecda140ebaf4ec8752ed119d8288287fac/contracts/token/ERC20/ERC20.sol\":8595:8602  account */\n  dup4\n    /* \"https://github.com/OpenZeppelin/openzeppelin-contracts/blob/52eeebecda140ebaf4ec8752ed119d8288287fac/contracts/token/ERC20/ERC20.sol\":8604:8610  amount */\n  dup4\n    /* \"https://github.com/OpenZeppelin/openzeppelin-contracts/blob/52eeebecda140ebaf4ec8752ed119d8288287fac/contracts/token/ERC20/ERC20.sol\":8562:8582  _beforeTokenTransfer */\n  shl(0x20, tag_17)\n    /* \"https://github.com/OpenZeppelin/openzeppelin-contracts/blob/52eeebecda140ebaf4ec8752ed119d8288287fac/contracts/token/ERC20/ERC20.sol\":8562:8611  _beforeTokenTransfer(address(0), account, amount) */\n  0x20\n  shr\n  jump\t// in\ntag_16:\n    /* \"https://github.com/OpenZeppelin/openzeppelin-contracts/blob/52eeebecda140ebaf4ec8752ed119d8288287fac/contracts/token/ERC20/ERC20.sol\":8638:8644  amount */\n  dup1\n    /* \"https://github.com/OpenZeppelin/openzeppelin-contracts/blob/52eeebecda140ebaf4ec8752ed119d8288287fac/contracts/token/ERC20/ERC20.sol\":8622:8634  _totalSupply */\n  0x02\n  0x00\n    /* \"https://github.com/OpenZeppelin/openzeppelin-contracts/blob/52eeebecda140ebaf4ec8752ed119d8288287fac/contracts/token/ERC20/ERC20.sol\":8622:8644  _totalSupply += amount */\n  dup3\n  dup3\n  sload\n  tag_18\n  swap2\n  swap1\n  tag_19\n  jump\t// in\ntag_18:\n  swap3\n  pop\n  pop\n  dup2\n  swap1\n  sstore\n  pop\n    /* \"https://github.com/OpenZeppelin/openzeppelin-contracts/blob/52eeebecda140ebaf4ec8752ed119d8288287fac/contracts/token/ERC20/ERC20.sol\":8676:8682  amount */\n  dup1\n    /* \"https://github.com/OpenZeppelin/openzeppelin-contracts/blob/52eeebecda140ebaf4ec8752ed119d8288287fac/contracts/token/ERC20/ERC20.sol\":8654:8663  _balances */\n  0x00\n    /* \"https://github.com/OpenZeppelin/openzeppelin-contracts/blob/52eeebecda140ebaf4ec8752ed119d8288287fac/contracts/token/ERC20/ERC20.sol\":8654:8672  _balances[account] */\n  dup1\n    /* \"https://github.com/OpenZeppelin/openzeppelin-contracts/blob/52eeebecda140ebaf4ec8752ed119d8288287fac/contracts/token/ERC20/ERC20.sol\":8664:8671  account */\n  dup5\n    /* \"https://github.com/OpenZeppelin/openzeppelin-contracts/blob/52eeebecda140ebaf4ec8752ed119d8288287fac/contracts/token/ERC20/ERC20.sol\":8654:8672  _balances[account] */\n  0xffffffffffffffffffffffffffffffffffffffff\n  and\n  0xffffffffffffffffffffffffffffffffffffffff\n  and\n  dup2\n  mstore\n  0x20\n  add\n  swap1\n  dup2\n  mstore\n  0x20\n  add\n  0x00\n  keccak256\n  0x00\n    /* \"https://github.com/OpenZeppelin/openzeppelin-contracts/blob/52eeebecda140ebaf4ec8752ed119d8288287fac/contracts/token/ERC20/ERC20.sol\":8654:8682  _balances[account] += amount */\n  dup3\n  dup3\n  sload\n  tag_20\n  swap2\n  swap1\n  tag_19\n  jump\t// in\ntag_20:\n  swap3\n  pop\n  pop\n  dup2\n  swap1\n  sstore\n  pop\n    /* \"https://github.com/OpenZeppelin/openzeppelin-contracts/blob/52eeebecda140ebaf4ec8752ed119d8288287fac/contracts/token/ERC20/ERC20.sol\":8718:8725  account */\n  dup2\n    /* \"https://github.com/OpenZeppelin/openzeppelin-contracts/blob/52eeebecda140ebaf4ec8752ed119d8288287fac/contracts/token/ERC20/ERC20.sol\":8697:8734  Transfer(address(0), account, amount) */\n  0xffffffffffffffffffffffffffffffffffffffff\n  and\n    /* \"https://github.com/OpenZeppelin/openzeppelin-contracts/blob/52eeebecda140ebaf4ec8752ed119d8288287fac/contracts/token/ERC20/ERC20.sol\":8714:8715  0 */\n  0x00\n    /* \"https://github.com/OpenZeppelin/openzeppelin-contracts/blob/52eeebecda140ebaf4ec8752ed119d8288287fac/contracts/token/ERC20/ERC20.sol\":8697:8734  Transfer(address(0), account, amount) */\n  0xffffffffffffffffffffffffffffffffffffffff\n  and\n  0xddf252ad1be2c89b69c2b068fc378daa952ba7f163c4a11628f55a4df523b3ef\n    /* \"https://github.com/OpenZeppelin/openzeppelin-contracts/blob/52eeebecda140ebaf4ec8752ed119d8288287fac/contracts/token/ERC20/ERC20.sol\":8727:8733  amount */\n  dup4\n    /* \"https://github.com/OpenZeppelin/openzeppelin-contracts/blob/52eeebecda140ebaf4ec8752ed119d8288287fac/contracts/token/ERC20/ERC20.sol\":8697:8734  Transfer(address(0), account, amount) */\n  mload(0x40)\n  tag_21\n  swap2\n  swap1\n  tag_22\n  jump\t// in\ntag_21:\n  mload(0x40)\n  dup1\n  swap2\n  sub\n  swap1\n  log3\n    /* \"https://github.com/OpenZeppelin/openzeppelin-contracts/blob/52eeebecda140ebaf4ec8752ed119d8288287fac/contracts/token/ERC20/ERC20.sol\":8745:8793  _afterTokenTransfer(address(0), account, amount) */\n  tag_23\n    /* \"https://github.com/OpenZeppelin/openzeppelin-contracts/blob/52eeebecda140ebaf4ec8752ed119d8288287fac/contracts/token/ERC20/ERC20.sol\":8773:8774  0 */\n  0x00\n    /* \"https://github.com/OpenZeppelin/openzeppelin-contracts/blob/52eeebecda140ebaf4ec8752ed119d8288287fac/contracts/token/ERC20/ERC20.sol\":8777:8784  account */\n  dup4\n    /* \"https://github.com/OpenZeppelin/openzeppelin-contracts/blob/52eeebecda140ebaf4ec8752ed119d8288287fac/contracts/token/ERC20/ERC20.sol\":8786:8792  amount */\n  dup4\n    /* \"https://github.com/OpenZeppelin/openzeppelin-contracts/blob/52eeebecda140ebaf4ec8752ed119d8288287fac/contracts/token/ERC20/ERC20.sol\":8745:8764  _afterTokenTransfer */\n  shl(0x20, tag_24)\n    /* \"https://github.com/OpenZeppelin/openzeppelin-contracts/blob/52eeebecda140ebaf4ec8752ed119d8288287fac/contracts/token/ERC20/ERC20.sol\":8745:8793  _afterTokenTransfer(address(0), account, amount) */\n  0x20\n  shr\n  jump\t// in\ntag_23:\n    /* \"https://github.com/OpenZeppelin/openzeppelin-contracts/blob/52eeebecda140ebaf4ec8752ed119d8288287fac/contracts/token/ERC20/ERC20.sol\":8411:8800  function _mint(address account, uint256 amount) internal virtual {... */\n  pop\n  pop\n  jump\t// out\n    /* \"https://github.com/OpenZeppelin/openzeppelin-contracts/blob/52eeebecda140ebaf4ec8752ed119d8288287fac/contracts/token/ERC20/ERC20.sol\":11795:11916  function _beforeTokenTransfer(... */\ntag_17:\n  pop\n  pop\n  pop\n  jump\t// out\n    /* \"https://github.com/OpenZeppelin/openzeppelin-contracts/blob/52eeebecda140ebaf4ec8752ed119d8288287fac/contracts/token/ERC20/ERC20.sol\":12504:12624  function _afterTokenTransfer(... */\ntag_24:\n  pop\n  pop\n  pop\n  jump\t// out\n    /* \"src/token.sol\":202:2071  contract Mfu is ERC20 {... */\ntag_6:\n  dup3\n  dup1\n  sload\n  tag_27\n  swap1\n  tag_28\n  jump\t// in\ntag_27:\n  swap1\n  0x00\n  mstore\n  keccak256(0x00, 0x20)\n  swap1\n  0x1f\n  add\n  0x20\n  swap1\n  div\n  dup2\n  add\n  swap3\n  dup3\n  tag_30\n  jumpi\n  0x00\n  dup6\n  sstore\n  jump(tag_29)\ntag_30:\n  dup3\n  0x1f\n  lt\n  tag_31\n  jumpi\n  dup1\n  mload\n  not(0xff)\n  and\n  dup4\n  dup1\n  add\n  or\n  dup6\n  sstore\n  jump(tag_29)\ntag_31:\n  dup3\n  dup1\n  add\n  0x01\n  add\n  dup6\n  sstore\n  dup3\n  iszero\n  tag_29\n  jumpi\n  swap2\n  dup3\n  add\ntag_32:\n  dup3\n  dup2\n  gt\n  iszero\n  tag_33\n  jumpi\n  dup3\n  mload\n  dup3\n  sstore\n  swap2\n  0x20\n  add\n  swap2\n  swap1\n  0x01\n  add\n  swap1\n  jump(tag_32)\ntag_33:\ntag_29:\n  pop\n  swap1\n  pop\n  tag_34\n  swap2\n  swap1\n  tag_35\n  jump\t// in\ntag_34:\n  pop\n  swap1\n  jump\t// out\ntag_35:\ntag_36:\n  dup1\n  dup3\n  gt\n  iszero\n  tag_37\n  jumpi\n  0x00\n  dup2\n  0x00\n  swap1\n  sstore\n  pop\n  0x01\n  add\n  jump(tag_36)\ntag_37:\n  pop\n  swap1\n  jump\t// out\n    /* \"#utility.yul\":7:373   */\ntag_39:\n    /* \"#utility.yul\":149:152   */\n  0x00\n    /* \"#utility.yul\":170:237   */\n  tag_41\n    /* \"#utility.yul\":234:236   */\n  0x1f\n    /* \"#utility.yul\":229:232   */\n  dup4\n    /* \"#utility.yul\":170:237   */\n  tag_42\n  jump\t// in\ntag_41:\n    /* \"#utility.yul\":163:237   */\n  swap2\n  pop\n    /* \"#utility.yul\":246:339   */\n  tag_43\n    /* \"#utility.yul\":335:338   */\n  dup3\n    /* \"#utility.yul\":246:339   */\n  tag_44\n  jump\t// in\ntag_43:\n    /* \"#utility.yul\":364:366   */\n  0x20\n    /* \"#utility.yul\":359:362   */\n  dup3\n    /* \"#utility.yul\":355:367   */\n  add\n    /* \"#utility.yul\":348:367   */\n  swap1\n  pop\n    /* \"#utility.yul\":7:373   */\n  swap2\n  swap1\n  pop\n  jump\t// out\n    /* \"#utility.yul\":379:497   */\ntag_45:\n    /* \"#utility.yul\":466:490   */\n  tag_47\n    /* \"#utility.yul\":484:489   */\n  dup2\n    /* \"#utility.yul\":466:490   */\n  tag_48\n  jump\t// in\ntag_47:\n    /* \"#utility.yul\":461:464   */\n  dup3\n    /* \"#utility.yul\":454:491   */\n  mstore\n    /* \"#utility.yul\":379:497   */\n  pop\n  pop\n  jump\t// out\n    /* \"#utility.yul\":503:922   */\ntag_15:\n    /* \"#utility.yul\":669:673   */\n  0x00\n    /* \"#utility.yul\":707:709   */\n  0x20\n    /* \"#utility.yul\":696:705   */\n  dup3\n    /* \"#utility.yul\":692:710   */\n  add\n    /* \"#utility.yul\":684:710   */\n  swap1\n  pop\n    /* \"#utility.yul\":756:765   */\n  dup2\n    /* \"#utility.yul\":750:754   */\n  dup2\n    /* \"#utility.yul\":746:766   */\n  sub\n    /* \"#utility.yul\":742:743   */\n  0x00\n    /* \"#utility.yul\":731:740   */\n  dup4\n    /* \"#utility.yul\":727:744   */\n  add\n    /* \"#utility.yul\":720:767   */\n  mstore\n    /* \"#utility.yul\":784:915   */\n  tag_50\n    /* \"#utility.yul\":910:914   */\n  dup2\n    /* \"#utility.yul\":784:915   */\n  tag_39\n  jump\t// in\ntag_50:\n    /* \"#utility.yul\":776:915   */\n  swap1\n  pop\n    /* \"#utility.yul\":503:922   */\n  swap2\n  swap1\n  pop\n  jump\t// out\n    /* \"#utility.yul\":928:1150   */\ntag_22:\n    /* \"#utility.yul\":1021:1025   */\n  0x00\n    /* \"#utility.yul\":1059:1061   */\n  0x20\n    /* \"#utility.yul\":1048:1057   */\n  dup3\n    /* \"#utility.yul\":1044:1062   */\n  add\n    /* \"#utility.yul\":1036:1062   */\n  swap1\n  pop\n    /* \"#utility.yul\":1072:1143   */\n  tag_52\n    /* \"#utility.yul\":1140:1141   */\n  0x00\n    /* \"#utility.yul\":1129:1138   */\n  dup4\n    /* \"#utility.yul\":1125:1142   */\n  add\n    /* \"#utility.yul\":1116:1122   */\n  dup5\n    /* \"#utility.yul\":1072:1143   */\n  tag_45\n  jump\t// in\ntag_52:\n    /* \"#utility.yul\":928:1150   */\n  swap3\n  swap2\n  pop\n  pop\n  jump\t// out\n    /* \"#utility.yul\":1156:1325   */\ntag_42:\n    /* \"#utility.yul\":1240:1251   */\n  0x00\n    /* \"#utility.yul\":1274:1280   */\n  dup3\n    /* \"#utility.yul\":1269:1272   */\n  dup3\n    /* \"#utility.yul\":1262:1281   */\n  mstore\n    /* \"#utility.yul\":1314:1318   */\n  0x20\n    /* \"#utility.yul\":1309:1312   */\n  dup3\n    /* \"#utility.yul\":1305:1319   */\n  add\n    /* \"#utility.yul\":1290:1319   */\n  swap1\n  pop\n    /* \"#utility.yul\":1156:1325   */\n  swap3\n  swap2\n  pop\n  pop\n  jump\t// out\n    /* \"#utility.yul\":1331:1636   */\ntag_19:\n    /* \"#utility.yul\":1371:1374   */\n  0x00\n    /* \"#utility.yul\":1390:1410   */\n  tag_55\n    /* \"#utility.yul\":1408:1409   */\n  dup3\n    /* \"#utility.yul\":1390:1410   */\n  tag_48\n  jump\t// in\ntag_55:\n    /* \"#utility.yul\":1385:1410   */\n  swap2\n  pop\n    /* \"#utility.yul\":1424:1444   */\n  tag_56\n    /* \"#utility.yul\":1442:1443   */\n  dup4\n    /* \"#utility.yul\":1424:1444   */\n  tag_48\n  jump\t// in\ntag_56:\n    /* \"#utility.yul\":1419:1444   */\n  swap3\n  pop\n    /* \"#utility.yul\":1578:1579   */\n  dup3\n    /* \"#utility.yul\":1510:1576   */\n  0xffffffffffffffffffffffffffffffffffffffffffffffffffffffffffffffff\n    /* \"#utility.yul\":1506:1580   */\n  sub\n    /* \"#utility.yul\":1503:1504   */\n  dup3\n    /* \"#utility.yul\":1500:1581   */\n  gt\n    /* \"#utility.yul\":1497:1604   */\n  iszero\n  tag_57\n  jumpi\n    /* \"#utility.yul\":1584:1602   */\n  tag_58\n  tag_59\n  jump\t// in\ntag_58:\n    /* \"#utility.yul\":1497:1604   */\ntag_57:\n    /* \"#utility.yul\":1628:1629   */\n  dup3\n    /* \"#utility.yul\":1625:1626   */\n  dup3\n    /* \"#utility.yul\":1621:1630   */\n  add\n    /* \"#utility.yul\":1614:1630   */\n  swap1\n  pop\n    /* \"#utility.yul\":1331:1636   */\n  swap3\n  swap2\n  pop\n  pop\n  jump\t// out\n    /* \"#utility.yul\":1642:1719   */\ntag_48:\n    /* \"#utility.yul\":1679:1686   */\n  0x00\n    /* \"#utility.yul\":1708:1713   */\n  dup2\n    /* \"#utility.yul\":1697:1713   */\n  swap1\n  pop\n    /* \"#utility.yul\":1642:1719   */\n  swap2\n  swap1\n  pop\n  jump\t// out\n    /* \"#utility.yul\":1725:2045   */\ntag_28:\n    /* \"#utility.yul\":1769:1775   */\n  0x00\n    /* \"#utility.yul\":1806:1807   */\n  0x02\n    /* \"#utility.yul\":1800:1804   */\n  dup3\n    /* \"#utility.yul\":1796:1808   */\n  div\n    /* \"#utility.yul\":1786:1808   */\n  swap1\n  pop\n    /* \"#utility.yul\":1853:1854   */\n  0x01\n    /* \"#utility.yul\":1847:1851   */\n  dup3\n    /* \"#utility.yul\":1843:1855   */\n  and\n    /* \"#utility.yul\":1874:1892   */\n  dup1\n    /* \"#utility.yul\":1864:1945   */\n  tag_62\n  jumpi\n    /* \"#utility.yul\":1930:1934   */\n  0x7f\n    /* \"#utility.yul\":1922:1928   */\n  dup3\n    /* \"#utility.yul\":1918:1935   */\n  and\n    /* \"#utility.yul\":1908:1935   */\n  swap2\n  pop\n    /* \"#utility.yul\":1864:1945   */\ntag_62:\n    /* \"#utility.yul\":1992:1994   */\n  0x20\n    /* \"#utility.yul\":1984:1990   */\n  dup3\n    /* \"#utility.yul\":1981:1995   */\n  lt\n    /* \"#utility.yul\":1961:1979   */\n  dup2\n    /* \"#utility.yul\":1958:1996   */\n  eq\n    /* \"#utility.yul\":1955:2039   */\n  iszero\n  tag_63\n  jumpi\n    /* \"#utility.yul\":2011:2029   */\n  tag_64\n  tag_65\n  jump\t// in\ntag_64:\n    /* \"#utility.yul\":1955:2039   */\ntag_63:\n    /* \"#utility.yul\":1776:2045   */\n  pop\n    /* \"#utility.yul\":1725:2045   */\n  swap2\n  swap1\n  pop\n  jump\t// out\n    /* \"#utility.yul\":2051:2231   */\ntag_59:\n    /* \"#utility.yul\":2099:2176   */\n  0x4e487b7100000000000000000000000000000000000000000000000000000000\n    /* \"#utility.yul\":2096:2097   */\n  0x00\n    /* \"#utility.yul\":2089:2177   */\n  mstore\n    /* \"#utility.yul\":2196:2200   */\n  0x11\n    /* \"#utility.yul\":2193:2194   */\n  0x04\n    /* \"#utility.yul\":2186:2201   */\n  mstore\n    /* \"#utility.yul\":2220:2224   */\n  0x24\n    /* \"#utility.yul\":2217:2218   */\n  0x00\n    /* \"#utility.yul\":2210:2225   */\n  revert\n    /* \"#utility.yul\":2237:2417   */\ntag_65:\n    /* \"#utility.yul\":2285:2362   */\n  0x4e487b7100000000000000000000000000000000000000000000000000000000\n    /* \"#utility.yul\":2282:2283   */\n  0x00\n    /* \"#utility.yul\":2275:2363   */\n  mstore\n    /* \"#utility.yul\":2382:2386   */\n  0x22\n    /* \"#utility.yul\":2379:2380   */\n  0x04\n    /* \"#utility.yul\":2372:2387   */\n  mstore\n    /* \"#utility.yul\":2406:2410   */\n  0x24\n    /* \"#utility.yul\":2403:2404   */\n  0x00\n    /* \"#utility.yul\":2396:2411   */\n  revert\n    /* \"#utility.yul\":2423:2604   */\ntag_44:\n    /* \"#utility.yul\":2563:2596   */\n  0x45524332303a206d696e7420746f20746865207a65726f206164647265737300\n    /* \"#utility.yul\":2559:2560   */\n  0x00\n    /* \"#utility.yul\":2551:2557   */\n  dup3\n    /* \"#utility.yul\":2547:2561   */\n  add\n    /* \"#utility.yul\":2540:2597   */\n  mstore\n    /* \"#utility.yul\":2423:2604   */\n  pop\n  jump\t// out\n    /* \"src/token.sol\":202:2071  contract Mfu is ERC20 {... */\ntag_11:\n  dataSize(sub_0)\n  dup1\n  dataOffset(sub_0)\n  0x00\n  codecopy\n  0x00\n  return\nstop\n\nsub_0: assembly {\n        /* \"src/token.sol\":202:2071  contract Mfu is ERC20 {... */\n      mstore(0x40, 0x80)\n      callvalue\n      dup1\n      iszero\n      tag_1\n      jumpi\n      0x00\n      dup1\n      revert\n    tag_1:\n      pop\n      jumpi(tag_2, lt(calldatasize, 0x04))\n      shr(0xe0, calldataload(0x00))\n      dup1\n      0x313ce567\n      gt\n      tag_18\n      jumpi\n      dup1\n      0x95d89b41\n      gt\n      tag_19\n      jumpi\n      dup1\n      0x95d89b41\n      eq\n      tag_14\n      jumpi\n      dup1\n      0xa457c2d7\n      eq\n      tag_15\n      jumpi\n      dup1\n      0xa9059cbb\n      eq\n      tag_16\n      jumpi\n      dup1\n      0xdd62ed3e\n      eq\n      tag_17\n      jumpi\n      jump(tag_2)\n    tag_19:\n      dup1\n      0x313ce567\n      eq\n      tag_10\n      jumpi\n      dup1\n      0x39509351\n      eq\n      tag_11\n      jumpi\n      dup1\n      0x40c10f19\n      eq\n      tag_12\n      jumpi\n      dup1\n      0x70a08231\n      eq\n      tag_13\n      jumpi\n      jump(tag_2)\n    tag_18:\n      dup1\n      0x095ea7b3\n      gt\n      tag_20\n      jumpi\n      dup1\n      0x095ea7b3\n      eq\n      tag_6\n      jumpi\n      dup1\n      0x18160ddd\n      eq\n      tag_7\n      jumpi\n      dup1\n      0x23b872dd\n      eq\n      tag_8\n      jumpi\n      dup1\n      0x27e235e3\n      eq\n      tag_9\n      jumpi\n      jump(tag_2)\n    tag_20:\n      dup1\n      0x045191e1\n      eq\n      tag_3\n      jumpi\n      dup1\n      0x06fdde03\n      eq\n      tag_4\n      jumpi\n      dup1\n      0x07546172\n      eq\n      tag_5\n      jumpi\n    tag_2:\n      0x00\n      dup1\n      revert\n        /* \"src/token.sol\":1509:1917  function multiSafeTransfer(address[] calldata receivers, uint amount) public {... */\n    tag_3:\n      tag_21\n      0x04\n      dup1\n      calldatasize\n      sub\n      dup2\n      add\n      swap1\n      tag_22\n      swap2\n      swap1\n      tag_23\n      jump\t// in\n    tag_22:\n      tag_24\n      jump\t// in\n    tag_21:\n      stop\n        /* \"https://github.com/OpenZeppelin/openzeppelin-contracts/blob/52eeebecda140ebaf4ec8752ed119d8288287fac/contracts/token/ERC20/ERC20.sol\":2156:2254  function name() public view virtual override returns (string memory) {... */\n    tag_4:\n      tag_25\n      tag_26\n      jump\t// in\n    tag_25:\n      mload(0x40)\n      tag_27\n      swap2\n      swap1\n      tag_28\n      jump\t// in\n    tag_27:\n      mload(0x40)\n      dup1\n      swap2\n      sub\n      swap1\n      return\n        /* \"src/token.sol\":231:252  address public minter */\n    tag_5:\n      tag_29\n      tag_30\n      jump\t// in\n    tag_29:\n      mload(0x40)\n      tag_31\n      swap2\n      swap1\n      tag_32\n      jump\t// in\n    tag_31:\n      mload(0x40)\n      dup1\n      swap2\n      sub\n      swap1\n      return\n        /* \"https://github.com/OpenZeppelin/openzeppelin-contracts/blob/52eeebecda140ebaf4ec8752ed119d8288287fac/contracts/token/ERC20/ERC20.sol\":4433:4630  function approve(address spender, uint256 amount) public virtual override returns (bool) {... */\n    tag_6:\n      tag_33\n      0x04\n      dup1\n      calldatasize\n      sub\n      dup2\n      add\n      swap1\n      tag_34\n      swap2\n      swap1\n      tag_35\n      jump\t// in\n    tag_34:\n      tag_36\n      jump\t// in\n    tag_33:\n      mload(0x40)\n      tag_37\n      swap2\n      swap1\n      tag_38\n      jump\t// in\n    tag_37:\n      mload(0x40)\n      dup1\n      swap2\n      sub\n      swap1\n      return\n        /* \"https://github.com/OpenZeppelin/openzeppelin-contracts/blob/52eeebecda140ebaf4ec8752ed119d8288287fac/contracts/token/ERC20/ERC20.sol\":3244:3350  function totalSupply() public view virtual override returns (uint256) {... */\n    tag_7:\n      tag_39\n      tag_40\n      jump\t// in\n    tag_39:\n      mload(0x40)\n      tag_41\n      swap2\n      swap1\n      tag_42\n      jump\t// in\n    tag_41:\n      mload(0x40)\n      dup1\n      swap2\n      sub\n      swap1\n      return\n        /* \"https://github.com/OpenZeppelin/openzeppelin-contracts/blob/52eeebecda140ebaf4ec8752ed119d8288287fac/contracts/token/ERC20/ERC20.sol\":5192:5478  function transferFrom(... */\n    tag_8:\n      tag_43\n      0x04\n      dup1\n      calldatasize\n      sub\n      dup2\n      add\n      swap1\n      tag_44\n      swap2\n      swap1\n      tag_45\n      jump\t// in\n    tag_44:\n      tag_46\n      jump\t// in\n    tag_43:\n      mload(0x40)\n      tag_47\n      swap2\n      swap1\n      tag_38\n      jump\t// in\n    tag_47:\n      mload(0x40)\n      dup1\n      swap2\n      sub\n      swap1\n      return\n        /* \"src/token.sol\":258:299  mapping (address => uint) public balances */\n    tag_9:\n      tag_48\n      0x04\n      dup1\n      calldatasize\n      sub\n      dup2\n      add\n      swap1\n      tag_49\n      swap2\n      swap1\n      tag_50\n      jump\t// in\n    tag_49:\n      tag_51\n      jump\t// in\n    tag_48:\n      mload(0x40)\n      tag_52\n      swap2\n      swap1\n      tag_42\n      jump\t// in\n    tag_52:\n      mload(0x40)\n      dup1\n      swap2\n      sub\n      swap1\n      return\n        /* \"https://github.com/OpenZeppelin/openzeppelin-contracts/blob/52eeebecda140ebaf4ec8752ed119d8288287fac/contracts/token/ERC20/ERC20.sol\":3093:3184  function decimals() public view virtual override returns (uint8) {... */\n    tag_10:\n      tag_53\n      tag_54\n      jump\t// in\n    tag_53:\n      mload(0x40)\n      tag_55\n      swap2\n      swap1\n      tag_56\n      jump\t// in\n    tag_55:\n      mload(0x40)\n      dup1\n      swap2\n      sub\n      swap1\n      return\n        /* \"https://github.com/OpenZeppelin/openzeppelin-contracts/blob/52eeebecda140ebaf4ec8752ed119d8288287fac/contracts/token/ERC20/ERC20.sol\":5873:6107  function increaseAllowance(address spender, uint256 addedValue) public virtual returns (bool) {... */\n    tag_11:\n      tag_57\n      0x04\n      dup1\n      calldatasize\n      sub\n      dup2\n      add\n      swap1\n      tag_58\n      swap2\n      swap1\n      tag_35\n      jump\t// in\n    tag_58:\n      tag_59\n      jump\t// in\n    tag_57:\n      mload(0x40)\n      tag_60\n      swap2\n      swap1\n      tag_38\n      jump\t// in\n    tag_60:\n      mload(0x40)\n      dup1\n      swap2\n      sub\n      swap1\n      return\n        /* \"src/token.sol\":835:1123  function mint(address receiver, uint amount) public {... */\n    tag_12:\n      tag_61\n      0x04\n      dup1\n      calldatasize\n      sub\n      dup2\n      add\n      swap1\n      tag_62\n      swap2\n      swap1\n      tag_35\n      jump\t// in\n    tag_62:\n      tag_63\n      jump\t// in\n    tag_61:\n      stop\n        /* \"https://github.com/OpenZeppelin/openzeppelin-contracts/blob/52eeebecda140ebaf4ec8752ed119d8288287fac/contracts/token/ERC20/ERC20.sol\":3408:3533  function balanceOf(address account) public view virtual override returns (uint256) {... */\n    tag_13:\n      tag_64\n      0x04\n      dup1\n      calldatasize\n      sub\n      dup2\n      add\n      swap1\n      tag_65\n      swap2\n      swap1\n      tag_50\n      jump\t// in\n    tag_65:\n      tag_66\n      jump\t// in\n    tag_64:\n      mload(0x40)\n      tag_67\n      swap2\n      swap1\n      tag_42\n      jump\t// in\n    tag_67:\n      mload(0x40)\n      dup1\n      swap2\n      sub\n      swap1\n      return\n        /* \"https://github.com/OpenZeppelin/openzeppelin-contracts/blob/52eeebecda140ebaf4ec8752ed119d8288287fac/contracts/token/ERC20/ERC20.sol\":2367:2469  function symbol() public view virtual override returns (string memory) {... */\n    tag_14:\n      tag_68\n      tag_69\n      jump\t// in\n    tag_68:\n      mload(0x40)\n      tag_70\n      swap2\n      swap1\n      tag_28\n      jump\t// in\n    tag_70:\n      mload(0x40)\n      dup1\n      swap2\n      sub\n      swap1\n      return\n        /* \"https://github.com/OpenZeppelin/openzeppelin-contracts/blob/52eeebecda140ebaf4ec8752ed119d8288287fac/contracts/token/ERC20/ERC20.sol\":6594:7021  function decreaseAllowance(address spender, uint256 subtractedValue) public virtual returns (bool) {... */\n    tag_15:\n      tag_71\n      0x04\n      dup1\n      calldatasize\n      sub\n      dup2\n      add\n      swap1\n      tag_72\n      swap2\n      swap1\n      tag_35\n      jump\t// in\n    tag_72:\n      tag_73\n      jump\t// in\n    tag_71:\n      mload(0x40)\n      tag_74\n      swap2\n      swap1\n      tag_38\n      jump\t// in\n    tag_74:\n      mload(0x40)\n      dup1\n      swap2\n      sub\n      swap1\n      return\n        /* \"https://github.com/OpenZeppelin/openzeppelin-contracts/blob/52eeebecda140ebaf4ec8752ed119d8288287fac/contracts/token/ERC20/ERC20.sol\":3729:3918  function transfer(address to, uint256 amount) public virtual override returns (bool) {... */\n    tag_16:\n      tag_75\n      0x04\n      dup1\n      calldatasize\n      sub\n      dup2\n      add\n      swap1\n      tag_76\n      swap2\n      swap1\n      tag_35\n      jump\t// in\n    tag_76:\n      tag_77\n      jump\t// in\n    tag_75:\n      mload(0x40)\n      tag_78\n      swap2\n      swap1\n      tag_38\n      jump\t// in\n    tag_78:\n      mload(0x40)\n      dup1\n      swap2\n      sub\n      swap1\n      return\n        /* \"https://github.com/OpenZeppelin/openzeppelin-contracts/blob/52eeebecda140ebaf4ec8752ed119d8288287fac/contracts/token/ERC20/ERC20.sol\":3976:4125  function allowance(address owner, address spender) public view virtual override returns (uint256) {... */\n    tag_17:\n      tag_79\n      0x04\n      dup1\n      calldatasize\n      sub\n      dup2\n      add\n      swap1\n      tag_80\n      swap2\n      swap1\n      tag_81\n      jump\t// in\n    tag_80:\n      tag_82\n      jump\t// in\n    tag_79:\n      mload(0x40)\n      tag_83\n      swap2\n      swap1\n      tag_42\n      jump\t// in\n    tag_83:\n      mload(0x40)\n      dup1\n      swap2\n      sub\n      swap1\n      return\n        /* \"src/token.sol\":1509:1917  function multiSafeTransfer(address[] calldata receivers, uint amount) public {... */\n    tag_24:\n        /* \"src/token.sol\":1601:1632  DebugUint(balances[msg.sender]) */\n      0xf0ed029e274dabb7636aeed7333cf47bc8c97dd6eb6d8faea6e9bfbd6620bebe\n        /* \"src/token.sol\":1611:1619  balances */\n      0x06\n        /* \"src/token.sol\":1611:1631  balances[msg.sender] */\n      0x00\n        /* \"src/token.sol\":1620:1630  msg.sender */\n      caller\n        /* \"src/token.sol\":1611:1631  balances[msg.sender] */\n      0xffffffffffffffffffffffffffffffffffffffff\n      and\n      0xffffffffffffffffffffffffffffffffffffffff\n      and\n      dup2\n      mstore\n      0x20\n      add\n      swap1\n      dup2\n      mstore\n      0x20\n      add\n      0x00\n      keccak256\n      sload\n        /* \"src/token.sol\":1601:1632  DebugUint(balances[msg.sender]) */\n      mload(0x40)\n      tag_85\n      swap2\n      swap1\n      tag_42\n      jump\t// in\n    tag_85:\n      mload(0x40)\n      dup1\n      swap2\n      sub\n      swap1\n      log1\n        /* \"src/token.sol\":1744:1750  uint i */\n      0x00\n        /* \"src/token.sol\":1739:1848  for (uint i=0; i< receivers.length; i++) {... */\n    tag_86:\n        /* \"src/token.sol\":1757:1766  receivers */\n      dup4\n      dup4\n        /* \"src/token.sol\":1757:1773  receivers.length */\n      swap1\n      pop\n        /* \"src/token.sol\":1754:1755  i */\n      dup2\n        /* \"src/token.sol\":1754:1773  i< receivers.length */\n      lt\n        /* \"src/token.sol\":1739:1848  for (uint i=0; i< receivers.length; i++) {... */\n      iszero\n      tag_87\n      jumpi\n        /* \"src/token.sol\":1794:1837  _transfer(msg.sender, receivers[i], amount) */\n      tag_89\n        /* \"src/token.sol\":1804:1814  msg.sender */\n      caller\n        /* \"src/token.sol\":1816:1825  receivers */\n      dup6\n      dup6\n        /* \"src/token.sol\":1826:1827  i */\n      dup5\n        /* \"src/token.sol\":1816:1828  receivers[i] */\n      dup2\n      dup2\n      lt\n      tag_90\n      jumpi\n      tag_91\n      tag_92\n      jump\t// in\n    tag_91:\n    tag_90:\n      swap1\n      pop\n      0x20\n      mul\n      add\n      0x20\n      dup2\n      add\n      swap1\n      tag_93\n      swap2\n      swap1\n      tag_50\n      jump\t// in\n    tag_93:\n        /* \"src/token.sol\":1830:1836  amount */\n      dup5\n        /* \"src/token.sol\":1794:1803  _transfer */\n      tag_94\n        /* \"src/token.sol\":1794:1837  _transfer(msg.sender, receivers[i], amount) */\n      jump\t// in\n    tag_89:\n        /* \"src/token.sol\":1775:1778  i++ */\n      dup1\n      dup1\n      tag_95\n      swap1\n      tag_96\n      jump\t// in\n    tag_95:\n      swap2\n      pop\n      pop\n        /* \"src/token.sol\":1739:1848  for (uint i=0; i< receivers.length; i++) {... */\n      jump(tag_86)\n    tag_87:\n      pop\n        /* \"src/token.sol\":1863:1910  MultiSendToken( msg.sender, receivers, amount ) */\n      0xd33af69e2bdb37dfd3a759e5a2bc0f70e1976336b64f9eb59c9814d3f5d238e0\n        /* \"src/token.sol\":1879:1889  msg.sender */\n      caller\n        /* \"src/token.sol\":1891:1900  receivers */\n      dup5\n      dup5\n        /* \"src/token.sol\":1902:1908  amount */\n      dup5\n        /* \"src/token.sol\":1863:1910  MultiSendToken( msg.sender, receivers, amount ) */\n      mload(0x40)\n      tag_97\n      swap5\n      swap4\n      swap3\n      swap2\n      swap1\n      tag_98\n      jump\t// in\n    tag_97:\n      mload(0x40)\n      dup1\n      swap2\n      sub\n      swap1\n      log1\n        /* \"src/token.sol\":1509:1917  function multiSafeTransfer(address[] calldata receivers, uint amount) public {... */\n      pop\n      pop\n      pop\n      jump\t// out\n        /* \"https://github.com/OpenZeppelin/openzeppelin-contracts/blob/52eeebecda140ebaf4ec8752ed119d8288287fac/contracts/token/ERC20/ERC20.sol\":2156:2254  function name() public view virtual override returns (string memory) {... */\n    tag_26:\n        /* \"https://github.com/OpenZeppelin/openzeppelin-contracts/blob/52eeebecda140ebaf4ec8752ed119d8288287fac/contracts/token/ERC20/ERC20.sol\":2210:2223  string memory */\n      0x60\n        /* \"https://github.com/OpenZeppelin/openzeppelin-contracts/blob/52eeebecda140ebaf4ec8752ed119d8288287fac/contracts/token/ERC20/ERC20.sol\":2242:2247  _name */\n      0x03\n        /* \"https://github.com/OpenZeppelin/openzeppelin-contracts/blob/52eeebecda140ebaf4ec8752ed119d8288287fac/contracts/token/ERC20/ERC20.sol\":2235:2247  return _name */\n      dup1\n      sload\n      tag_100\n      swap1\n      tag_101\n      jump\t// in\n    tag_100:\n      dup1\n      0x1f\n      add\n      0x20\n      dup1\n      swap2\n      div\n      mul\n      0x20\n      add\n      mload(0x40)\n      swap1\n      dup2\n      add\n      0x40\n      mstore\n      dup1\n      swap3\n      swap2\n      swap1\n      dup2\n      dup2\n      mstore\n      0x20\n      add\n      dup3\n      dup1\n      sload\n      tag_102\n      swap1\n      tag_101\n      jump\t// in\n    tag_102:\n      dup1\n      iszero\n      tag_103\n      jumpi\n      dup1\n      0x1f\n      lt\n      tag_104\n      jumpi\n      0x0100\n      dup1\n      dup4\n      sload\n      div\n      mul\n      dup4\n      mstore\n      swap2\n      0x20\n      add\n      swap2\n      jump(tag_103)\n    tag_104:\n      dup3\n      add\n      swap2\n      swap1\n      0x00\n      mstore\n      keccak256(0x00, 0x20)\n      swap1\n    tag_105:\n      dup2\n      sload\n      dup2\n      mstore\n      swap1\n      0x01\n      add\n      swap1\n      0x20\n      add\n      dup1\n      dup4\n      gt\n      tag_105\n      jumpi\n      dup3\n      swap1\n      sub\n      0x1f\n      and\n      dup3\n      add\n      swap2\n    tag_103:\n      pop\n      pop\n      pop\n      pop\n      pop\n      swap1\n      pop\n        /* \"https://github.com/OpenZeppelin/openzeppelin-contracts/blob/52eeebecda140ebaf4ec8752ed119d8288287fac/contracts/token/ERC20/ERC20.sol\":2156:2254  function name() public view virtual override returns (string memory) {... */\n      swap1\n      jump\t// out\n        /* \"src/token.sol\":231:252  address public minter */\n    tag_30:\n      0x05\n      0x00\n      swap1\n      sload\n      swap1\n      0x0100\n      exp\n      swap1\n      div\n      0xffffffffffffffffffffffffffffffffffffffff\n      and\n      dup2\n      jump\t// out\n        /* \"https://github.com/OpenZeppelin/openzeppelin-contracts/blob/52eeebecda140ebaf4ec8752ed119d8288287fac/contracts/token/ERC20/ERC20.sol\":4433:4630  function approve(address spender, uint256 amount) public virtual override returns (bool) {... */\n    tag_36:\n        /* \"https://github.com/OpenZeppelin/openzeppelin-contracts/blob/52eeebecda140ebaf4ec8752ed119d8288287fac/contracts/token/ERC20/ERC20.sol\":4516:4520  bool */\n      0x00\n        /* \"https://github.com/OpenZeppelin/openzeppelin-contracts/blob/52eeebecda140ebaf4ec8752ed119d8288287fac/contracts/token/ERC20/ERC20.sol\":4532:4545  address owner */\n      dup1\n        /* \"https://github.com/OpenZeppelin/openzeppelin-contracts/blob/52eeebecda140ebaf4ec8752ed119d8288287fac/contracts/token/ERC20/ERC20.sol\":4548:4560  _msgSender() */\n      tag_107\n        /* \"https://github.com/OpenZeppelin/openzeppelin-contracts/blob/52eeebecda140ebaf4ec8752ed119d8288287fac/contracts/token/ERC20/ERC20.sol\":4548:4558  _msgSender */\n      tag_108\n        /* \"https://github.com/OpenZeppelin/openzeppelin-contracts/blob/52eeebecda140ebaf4ec8752ed119d8288287fac/contracts/token/ERC20/ERC20.sol\":4548:4560  _msgSender() */\n      jump\t// in\n    tag_107:\n        /* \"https://github.com/OpenZeppelin/openzeppelin-contracts/blob/52eeebecda140ebaf4ec8752ed119d8288287fac/contracts/token/ERC20/ERC20.sol\":4532:4560  address owner = _msgSender() */\n      swap1\n      pop\n        /* \"https://github.com/OpenZeppelin/openzeppelin-contracts/blob/52eeebecda140ebaf4ec8752ed119d8288287fac/contracts/token/ERC20/ERC20.sol\":4570:4602  _approve(owner, spender, amount) */\n      tag_109\n        /* \"https://github.com/OpenZeppelin/openzeppelin-contracts/blob/52eeebecda140ebaf4ec8752ed119d8288287fac/contracts/token/ERC20/ERC20.sol\":4579:4584  owner */\n      dup2\n        /* \"https://github.com/OpenZeppelin/openzeppelin-contracts/blob/52eeebecda140ebaf4ec8752ed119d8288287fac/contracts/token/ERC20/ERC20.sol\":4586:4593  spender */\n      dup6\n        /* \"https://github.com/OpenZeppelin/openzeppelin-contracts/blob/52eeebecda140ebaf4ec8752ed119d8288287fac/contracts/token/ERC20/ERC20.sol\":4595:4601  amount */\n      dup6\n        /* \"https://github.com/OpenZeppelin/openzeppelin-contracts/blob/52eeebecda140ebaf4ec8752ed119d8288287fac/contracts/token/ERC20/ERC20.sol\":4570:4578  _approve */\n      tag_110\n        /* \"https://github.com/OpenZeppelin/openzeppelin-contracts/blob/52eeebecda140ebaf4ec8752ed119d8288287fac/contracts/token/ERC20/ERC20.sol\":4570:4602  _approve(owner, spender, amount) */\n      jump\t// in\n    tag_109:\n        /* \"https://github.com/OpenZeppelin/openzeppelin-contracts/blob/52eeebecda140ebaf4ec8752ed119d8288287fac/contracts/token/ERC20/ERC20.sol\":4619:4623  true */\n      0x01\n        /* \"https://github.com/OpenZeppelin/openzeppelin-contracts/blob/52eeebecda140ebaf4ec8752ed119d8288287fac/contracts/token/ERC20/ERC20.sol\":4612:4623  return true */\n      swap2\n      pop\n      pop\n        /* \"https://github.com/OpenZeppelin/openzeppelin-contracts/blob/52eeebecda140ebaf4ec8752ed119d8288287fac/contracts/token/ERC20/ERC20.sol\":4433:4630  function approve(address spender, uint256 amount) public virtual override returns (bool) {... */\n      swap3\n      swap2\n      pop\n      pop\n      jump\t// out\n        /* \"https://github.com/OpenZeppelin/openzeppelin-contracts/blob/52eeebecda140ebaf4ec8752ed119d8288287fac/contracts/token/ERC20/ERC20.sol\":3244:3350  function totalSupply() public view virtual override returns (uint256) {... */\n    tag_40:\n        /* \"https://github.com/OpenZeppelin/openzeppelin-contracts/blob/52eeebecda140ebaf4ec8752ed119d8288287fac/contracts/token/ERC20/ERC20.sol\":3305:3312  uint256 */\n      0x00\n        /* \"https://github.com/OpenZeppelin/openzeppelin-contracts/blob/52eeebecda140ebaf4ec8752ed119d8288287fac/contracts/token/ERC20/ERC20.sol\":3331:3343  _totalSupply */\n      sload(0x02)\n        /* \"https://github.com/OpenZeppelin/openzeppelin-contracts/blob/52eeebecda140ebaf4ec8752ed119d8288287fac/contracts/token/ERC20/ERC20.sol\":3324:3343  return _totalSupply */\n      swap1\n      pop\n        /* \"https://github.com/OpenZeppelin/openzeppelin-contracts/blob/52eeebecda140ebaf4ec8752ed119d8288287fac/contracts/token/ERC20/ERC20.sol\":3244:3350  function totalSupply() public view virtual override returns (uint256) {... */\n      swap1\n      jump\t// out\n        /* \"https://github.com/OpenZeppelin/openzeppelin-contracts/blob/52eeebecda140ebaf4ec8752ed119d8288287fac/contracts/token/ERC20/ERC20.sol\":5192:5478  function transferFrom(... */\n    tag_46:\n        /* \"https://github.com/OpenZeppelin/openzeppelin-contracts/blob/52eeebecda140ebaf4ec8752ed119d8288287fac/contracts/token/ERC20/ERC20.sol\":5319:5323  bool */\n      0x00\n        /* \"https://github.com/OpenZeppelin/openzeppelin-contracts/blob/52eeebecda140ebaf4ec8752ed119d8288287fac/contracts/token/ERC20/ERC20.sol\":5335:5350  address spender */\n      dup1\n        /* \"https://github.com/OpenZeppelin/openzeppelin-contracts/blob/52eeebecda140ebaf4ec8752ed119d8288287fac/contracts/token/ERC20/ERC20.sol\":5353:5365  _msgSender() */\n      tag_113\n        /* \"https://github.com/OpenZeppelin/openzeppelin-contracts/blob/52eeebecda140ebaf4ec8752ed119d8288287fac/contracts/token/ERC20/ERC20.sol\":5353:5363  _msgSender */\n      tag_108\n        /* \"https://github.com/OpenZeppelin/openzeppelin-contracts/blob/52eeebecda140ebaf4ec8752ed119d8288287fac/contracts/token/ERC20/ERC20.sol\":5353:5365  _msgSender() */\n      jump\t// in\n    tag_113:\n        /* \"https://github.com/OpenZeppelin/openzeppelin-contracts/blob/52eeebecda140ebaf4ec8752ed119d8288287fac/contracts/token/ERC20/ERC20.sol\":5335:5365  address spender = _msgSender() */\n      swap1\n      pop\n        /* \"https://github.com/OpenZeppelin/openzeppelin-contracts/blob/52eeebecda140ebaf4ec8752ed119d8288287fac/contracts/token/ERC20/ERC20.sol\":5375:5413  _spendAllowance(from, spender, amount) */\n      tag_114\n        /* \"https://github.com/OpenZeppelin/openzeppelin-contracts/blob/52eeebecda140ebaf4ec8752ed119d8288287fac/contracts/token/ERC20/ERC20.sol\":5391:5395  from */\n      dup6\n        /* \"https://github.com/OpenZeppelin/openzeppelin-contracts/blob/52eeebecda140ebaf4ec8752ed119d8288287fac/contracts/token/ERC20/ERC20.sol\":5397:5404  spender */\n      dup3\n        /* \"https://github.com/OpenZeppelin/openzeppelin-contracts/blob/52eeebecda140ebaf4ec8752ed119d8288287fac/contracts/token/ERC20/ERC20.sol\":5406:5412  amount */\n      dup6\n        /* \"https://github.com/OpenZeppelin/openzeppelin-contracts/blob/52eeebecda140ebaf4ec8752ed119d8288287fac/contracts/token/ERC20/ERC20.sol\":5375:5390  _spendAllowance */\n      tag_115\n        /* \"https://github.com/OpenZeppelin/openzeppelin-contracts/blob/52eeebecda140ebaf4ec8752ed119d8288287fac/contracts/token/ERC20/ERC20.sol\":5375:5413  _spendAllowance(from, spender, amount) */\n      jump\t// in\n    tag_114:\n        /* \"https://github.com/OpenZeppelin/openzeppelin-contracts/blob/52eeebecda140ebaf4ec8752ed119d8288287fac/contracts/token/ERC20/ERC20.sol\":5423:5450  _transfer(from, to, amount) */\n      tag_116\n        /* \"https://github.com/OpenZeppelin/openzeppelin-contracts/blob/52eeebecda140ebaf4ec8752ed119d8288287fac/contracts/token/ERC20/ERC20.sol\":5433:5437  from */\n      dup6\n        /* \"https://github.com/OpenZeppelin/openzeppelin-contracts/blob/52eeebecda140ebaf4ec8752ed119d8288287fac/contracts/token/ERC20/ERC20.sol\":5439:5441  to */\n      dup6\n        /* \"https://github.com/OpenZeppelin/openzeppelin-contracts/blob/52eeebecda140ebaf4ec8752ed119d8288287fac/contracts/token/ERC20/ERC20.sol\":5443:5449  amount */\n      dup6\n        /* \"https://github.com/OpenZeppelin/openzeppelin-contracts/blob/52eeebecda140ebaf4ec8752ed119d8288287fac/contracts/token/ERC20/ERC20.sol\":5423:5432  _transfer */\n      tag_94\n        /* \"https://github.com/OpenZeppelin/openzeppelin-contracts/blob/52eeebecda140ebaf4ec8752ed119d8288287fac/contracts/token/ERC20/ERC20.sol\":5423:5450  _transfer(from, to, amount) */\n      jump\t// in\n    tag_116:\n        /* \"https://github.com/OpenZeppelin/openzeppelin-contracts/blob/52eeebecda140ebaf4ec8752ed119d8288287fac/contracts/token/ERC20/ERC20.sol\":5467:5471  true */\n      0x01\n        /* \"https://github.com/OpenZeppelin/openzeppelin-contracts/blob/52eeebecda140ebaf4ec8752ed119d8288287fac/contracts/token/ERC20/ERC20.sol\":5460:5471  return true */\n      swap2\n      pop\n      pop\n        /* \"https://github.com/OpenZeppelin/openzeppelin-contracts/blob/52eeebecda140ebaf4ec8752ed119d8288287fac/contracts/token/ERC20/ERC20.sol\":5192:5478  function transferFrom(... */\n      swap4\n      swap3\n      pop\n      pop\n      pop\n      jump\t// out\n        /* \"src/token.sol\":258:299  mapping (address => uint) public balances */\n    tag_51:\n      mstore(0x20, 0x06)\n      dup1\n      0x00\n      mstore\n      keccak256(0x00, 0x40)\n      0x00\n      swap2\n      pop\n      swap1\n      pop\n      sload\n      dup2\n      jump\t// out\n        /* \"https://github.com/OpenZeppelin/openzeppelin-contracts/blob/52eeebecda140ebaf4ec8752ed119d8288287fac/contracts/token/ERC20/ERC20.sol\":3093:3184  function decimals() public view virtual override returns (uint8) {... */\n    tag_54:\n        /* \"https://github.com/OpenZeppelin/openzeppelin-contracts/blob/52eeebecda140ebaf4ec8752ed119d8288287fac/contracts/token/ERC20/ERC20.sol\":3151:3156  uint8 */\n      0x00\n        /* \"https://github.com/OpenZeppelin/openzeppelin-contracts/blob/52eeebecda140ebaf4ec8752ed119d8288287fac/contracts/token/ERC20/ERC20.sol\":3175:3177  18 */\n      0x12\n        /* \"https://github.com/OpenZeppelin/openzeppelin-contracts/blob/52eeebecda140ebaf4ec8752ed119d8288287fac/contracts/token/ERC20/ERC20.sol\":3168:3177  return 18 */\n      swap1\n      pop\n        /* \"https://github.com/OpenZeppelin/openzeppelin-contracts/blob/52eeebecda140ebaf4ec8752ed119d8288287fac/contracts/token/ERC20/ERC20.sol\":3093:3184  function decimals() public view virtual override returns (uint8) {... */\n      swap1\n      jump\t// out\n        /* \"https://github.com/OpenZeppelin/openzeppelin-contracts/blob/52eeebecda140ebaf4ec8752ed119d8288287fac/contracts/token/ERC20/ERC20.sol\":5873:6107  function increaseAllowance(address spender, uint256 addedValue) public virtual returns (bool) {... */\n    tag_59:\n        /* \"https://github.com/OpenZeppelin/openzeppelin-contracts/blob/52eeebecda140ebaf4ec8752ed119d8288287fac/contracts/token/ERC20/ERC20.sol\":5961:5965  bool */\n      0x00\n        /* \"https://github.com/OpenZeppelin/openzeppelin-contracts/blob/52eeebecda140ebaf4ec8752ed119d8288287fac/contracts/token/ERC20/ERC20.sol\":5977:5990  address owner */\n      dup1\n        /* \"https://github.com/OpenZeppelin/openzeppelin-contracts/blob/52eeebecda140ebaf4ec8752ed119d8288287fac/contracts/token/ERC20/ERC20.sol\":5993:6005  _msgSender() */\n      tag_119\n        /* \"https://github.com/OpenZeppelin/openzeppelin-contracts/blob/52eeebecda140ebaf4ec8752ed119d8288287fac/contracts/token/ERC20/ERC20.sol\":5993:6003  _msgSender */\n      tag_108\n        /* \"https://github.com/OpenZeppelin/openzeppelin-contracts/blob/52eeebecda140ebaf4ec8752ed119d8288287fac/contracts/token/ERC20/ERC20.sol\":5993:6005  _msgSender() */\n      jump\t// in\n    tag_119:\n        /* \"https://github.com/OpenZeppelin/openzeppelin-contracts/blob/52eeebecda140ebaf4ec8752ed119d8288287fac/contracts/token/ERC20/ERC20.sol\":5977:6005  address owner = _msgSender() */\n      swap1\n      pop\n        /* \"https://github.com/OpenZeppelin/openzeppelin-contracts/blob/52eeebecda140ebaf4ec8752ed119d8288287fac/contracts/token/ERC20/ERC20.sol\":6015:6079  _approve(owner, spender, allowance(owner, spender) + addedValue) */\n      tag_120\n        /* \"https://github.com/OpenZeppelin/openzeppelin-contracts/blob/52eeebecda140ebaf4ec8752ed119d8288287fac/contracts/token/ERC20/ERC20.sol\":6024:6029  owner */\n      dup2\n        /* \"https://github.com/OpenZeppelin/openzeppelin-contracts/blob/52eeebecda140ebaf4ec8752ed119d8288287fac/contracts/token/ERC20/ERC20.sol\":6031:6038  spender */\n      dup6\n        /* \"https://github.com/OpenZeppelin/openzeppelin-contracts/blob/52eeebecda140ebaf4ec8752ed119d8288287fac/contracts/token/ERC20/ERC20.sol\":6068:6078  addedValue */\n      dup6\n        /* \"https://github.com/OpenZeppelin/openzeppelin-contracts/blob/52eeebecda140ebaf4ec8752ed119d8288287fac/contracts/token/ERC20/ERC20.sol\":6040:6065  allowance(owner, spender) */\n      tag_121\n        /* \"https://github.com/OpenZeppelin/openzeppelin-contracts/blob/52eeebecda140ebaf4ec8752ed119d8288287fac/contracts/token/ERC20/ERC20.sol\":6050:6055  owner */\n      dup6\n        /* \"https://github.com/OpenZeppelin/openzeppelin-contracts/blob/52eeebecda140ebaf4ec8752ed119d8288287fac/contracts/token/ERC20/ERC20.sol\":6057:6064  spender */\n      dup10\n        /* \"https://github.com/OpenZeppelin/openzeppelin-contracts/blob/52eeebecda140ebaf4ec8752ed119d8288287fac/contracts/token/ERC20/ERC20.sol\":6040:6049  allowance */\n      tag_82\n        /* \"https://github.com/OpenZeppelin/openzeppelin-contracts/blob/52eeebecda140ebaf4ec8752ed119d8288287fac/contracts/token/ERC20/ERC20.sol\":6040:6065  allowance(owner, spender) */\n      jump\t// in\n    tag_121:\n        /* \"https://github.com/OpenZeppelin/openzeppelin-contracts/blob/52eeebecda140ebaf4ec8752ed119d8288287fac/contracts/token/ERC20/ERC20.sol\":6040:6078  allowance(owner, spender) + addedValue */\n      tag_122\n      swap2\n      swap1\n      tag_123\n      jump\t// in\n    tag_122:\n        /* \"https://github.com/OpenZeppelin/openzeppelin-contracts/blob/52eeebecda140ebaf4ec8752ed119d8288287fac/contracts/token/ERC20/ERC20.sol\":6015:6023  _approve */\n      tag_110\n        /* \"https://github.com/OpenZeppelin/openzeppelin-contracts/blob/52eeebecda140ebaf4ec8752ed119d8288287fac/contracts/token/ERC20/ERC20.sol\":6015:6079  _approve(owner, spender, allowance(owner, spender) + addedValue) */\n      jump\t// in\n    tag_120:\n        /* \"https://github.com/OpenZeppelin/openzeppelin-contracts/blob/52eeebecda140ebaf4ec8752ed119d8288287fac/contracts/token/ERC20/ERC20.sol\":6096:6100  true */\n      0x01\n        /* \"https://github.com/OpenZeppelin/openzeppelin-contracts/blob/52eeebecda140ebaf4ec8752ed119d8288287fac/contracts/token/ERC20/ERC20.sol\":6089:6100  return true */\n      swap2\n      pop\n      pop\n        /* \"https://github.com/OpenZeppelin/openzeppelin-contracts/blob/52eeebecda140ebaf4ec8752ed119d8288287fac/contracts/token/ERC20/ERC20.sol\":5873:6107  function increaseAllowance(address spender, uint256 addedValue) public virtual returns (bool) {... */\n      swap3\n      swap2\n      pop\n      pop\n      jump\t// out\n        /* \"src/token.sol\":835:1123  function mint(address receiver, uint amount) public {... */\n    tag_63:\n        /* \"src/token.sol\":919:925  minter */\n      0x05\n      0x00\n      swap1\n      sload\n      swap1\n      0x0100\n      exp\n      swap1\n      div\n      0xffffffffffffffffffffffffffffffffffffffff\n      and\n        /* \"src/token.sol\":905:925  msg.sender == minter */\n      0xffffffffffffffffffffffffffffffffffffffff\n      and\n        /* \"src/token.sol\":905:915  msg.sender */\n      caller\n        /* \"src/token.sol\":905:925  msg.sender == minter */\n      0xffffffffffffffffffffffffffffffffffffffff\n      and\n      eq\n        /* \"src/token.sol\":897:926  require(msg.sender == minter) */\n      tag_125\n      jumpi\n      0x00\n      dup1\n      revert\n    tag_125:\n        /* \"src/token.sol\":1026:1030  1e60 */\n      0x9f4f2726179a224501d762422c946590d91000000000000000\n        /* \"src/token.sol\":1017:1023  amount */\n      dup2\n        /* \"src/token.sol\":1017:1030  amount < 1e60 */\n      lt\n        /* \"src/token.sol\":1009:1031  require(amount < 1e60) */\n      tag_126\n      jumpi\n      0x00\n      dup1\n      revert\n    tag_126:\n        /* \"src/token.sol\":1082:1116  _mint(msg.sender, amount * 10**18) */\n      tag_127\n        /* \"src/token.sol\":1088:1098  msg.sender */\n      caller\n        /* \"src/token.sol\":1109:1115  10**18 */\n      0x0de0b6b3a7640000\n        /* \"src/token.sol\":1100:1106  amount */\n      dup4\n        /* \"src/token.sol\":1100:1115  amount * 10**18 */\n      tag_128\n      swap2\n      swap1\n      tag_129\n      jump\t// in\n    tag_128:\n        /* \"src/token.sol\":1082:1087  _mint */\n      tag_130\n        /* \"src/token.sol\":1082:1116  _mint(msg.sender, amount * 10**18) */\n      jump\t// in\n    tag_127:\n        /* \"src/token.sol\":835:1123  function mint(address receiver, uint amount) public {... */\n      pop\n      pop\n      jump\t// out\n        /* \"https://github.com/OpenZeppelin/openzeppelin-contracts/blob/52eeebecda140ebaf4ec8752ed119d8288287fac/contracts/token/ERC20/ERC20.sol\":3408:3533  function balanceOf(address account) public view virtual override returns (uint256) {... */\n    tag_66:\n        /* \"https://github.com/OpenZeppelin/openzeppelin-contracts/blob/52eeebecda140ebaf4ec8752ed119d8288287fac/contracts/token/ERC20/ERC20.sol\":3482:3489  uint256 */\n      0x00\n        /* \"https://github.com/OpenZeppelin/openzeppelin-contracts/blob/52eeebecda140ebaf4ec8752ed119d8288287fac/contracts/token/ERC20/ERC20.sol\":3508:3517  _balances */\n      dup1\n        /* \"https://github.com/OpenZeppelin/openzeppelin-contracts/blob/52eeebecda140ebaf4ec8752ed119d8288287fac/contracts/token/ERC20/ERC20.sol\":3508:3526  _balances[account] */\n      0x00\n        /* \"https://github.com/OpenZeppelin/openzeppelin-contracts/blob/52eeebecda140ebaf4ec8752ed119d8288287fac/contracts/token/ERC20/ERC20.sol\":3518:3525  account */\n      dup4\n        /* \"https://github.com/OpenZeppelin/openzeppelin-contracts/blob/52eeebecda140ebaf4ec8752ed119d8288287fac/contracts/token/ERC20/ERC20.sol\":3508:3526  _balances[account] */\n      0xffffffffffffffffffffffffffffffffffffffff\n      and\n      0xffffffffffffffffffffffffffffffffffffffff\n      and\n      dup2\n      mstore\n      0x20\n      add\n      swap1\n      dup2\n      mstore\n      0x20\n      add\n      0x00\n      keccak256\n      sload\n        /* \"https://github.com/OpenZeppelin/openzeppelin-contracts/blob/52eeebecda140ebaf4ec8752ed119d8288287fac/contracts/token/ERC20/ERC20.sol\":3501:3526  return _balances[account] */\n      swap1\n      pop\n        /* \"https://github.com/OpenZeppelin/openzeppelin-contracts/blob/52eeebecda140ebaf4ec8752ed119d8288287fac/contracts/token/ERC20/ERC20.sol\":3408:3533  function balanceOf(address account) public view virtual override returns (uint256) {... */\n      swap2\n      swap1\n      pop\n      jump\t// out\n        /* \"https://github.com/OpenZeppelin/openzeppelin-contracts/blob/52eeebecda140ebaf4ec8752ed119d8288287fac/contracts/token/ERC20/ERC20.sol\":2367:2469  function symbol() public view virtual override returns (string memory) {... */\n    tag_69:\n        /* \"https://github.com/OpenZeppelin/openzeppelin-contracts/blob/52eeebecda140ebaf4ec8752ed119d8288287fac/contracts/token/ERC20/ERC20.sol\":2423:2436  string memory */\n      0x60\n        /* \"https://github.com/OpenZeppelin/openzeppelin-contracts/blob/52eeebecda140ebaf4ec8752ed119d8288287fac/contracts/token/ERC20/ERC20.sol\":2455:2462  _symbol */\n      0x04\n        /* \"https://github.com/OpenZeppelin/openzeppelin-contracts/blob/52eeebecda140ebaf4ec8752ed119d8288287fac/contracts/token/ERC20/ERC20.sol\":2448:2462  return _symbol */\n      dup1\n      sload\n      tag_133\n      swap1\n      tag_101\n      jump\t// in\n    tag_133:\n      dup1\n      0x1f\n      add\n      0x20\n      dup1\n      swap2\n      div\n      mul\n      0x20\n      add\n      mload(0x40)\n      swap1\n      dup2\n      add\n      0x40\n      mstore\n      dup1\n      swap3\n      swap2\n      swap1\n      dup2\n      dup2\n      mstore\n      0x20\n      add\n      dup3\n      dup1\n      sload\n      tag_134\n      swap1\n      tag_101\n      jump\t// in\n    tag_134:\n      dup1\n      iszero\n      tag_135\n      jumpi\n      dup1\n      0x1f\n      lt\n      tag_136\n      jumpi\n      0x0100\n      dup1\n      dup4\n      sload\n      div\n      mul\n      dup4\n      mstore\n      swap2\n      0x20\n      add\n      swap2\n      jump(tag_135)\n    tag_136:\n      dup3\n      add\n      swap2\n      swap1\n      0x00\n      mstore\n      keccak256(0x00, 0x20)\n      swap1\n    tag_137:\n      dup2\n      sload\n      dup2\n      mstore\n      swap1\n      0x01\n      add\n      swap1\n      0x20\n      add\n      dup1\n      dup4\n      gt\n      tag_137\n      jumpi\n      dup3\n      swap1\n      sub\n      0x1f\n      and\n      dup3\n      add\n      swap2\n    tag_135:\n      pop\n      pop\n      pop\n      pop\n      pop\n      swap1\n      pop\n        /* \"https://github.com/OpenZeppelin/openzeppelin-contracts/blob/52eeebecda140ebaf4ec8752ed119d8288287fac/contracts/token/ERC20/ERC20.sol\":2367:2469  function symbol() public view virtual override returns (string memory) {... */\n      swap1\n      jump\t// out\n        /* \"https://github.com/OpenZeppelin/openzeppelin-contracts/blob/52eeebecda140ebaf4ec8752ed119d8288287fac/contracts/token/ERC20/ERC20.sol\":6594:7021  function decreaseAllowance(address spender, uint256 subtractedValue) public virtual returns (bool) {... */\n    tag_73:\n        /* \"https://github.com/OpenZeppelin/openzeppelin-contracts/blob/52eeebecda140ebaf4ec8752ed119d8288287fac/contracts/token/ERC20/ERC20.sol\":6687:6691  bool */\n      0x00\n        /* \"https://github.com/OpenZeppelin/openzeppelin-contracts/blob/52eeebecda140ebaf4ec8752ed119d8288287fac/contracts/token/ERC20/ERC20.sol\":6703:6716  address owner */\n      dup1\n        /* \"https://github.com/OpenZeppelin/openzeppelin-contracts/blob/52eeebecda140ebaf4ec8752ed119d8288287fac/contracts/token/ERC20/ERC20.sol\":6719:6731  _msgSender() */\n      tag_139\n        /* \"https://github.com/OpenZeppelin/openzeppelin-contracts/blob/52eeebecda140ebaf4ec8752ed119d8288287fac/contracts/token/ERC20/ERC20.sol\":6719:6729  _msgSender */\n      tag_108\n        /* \"https://github.com/OpenZeppelin/openzeppelin-contracts/blob/52eeebecda140ebaf4ec8752ed119d8288287fac/contracts/token/ERC20/ERC20.sol\":6719:6731  _msgSender() */\n      jump\t// in\n    tag_139:\n        /* \"https://github.com/OpenZeppelin/openzeppelin-contracts/blob/52eeebecda140ebaf4ec8752ed119d8288287fac/contracts/token/ERC20/ERC20.sol\":6703:6731  address owner = _msgSender() */\n      swap1\n      pop\n        /* \"https://github.com/OpenZeppelin/openzeppelin-contracts/blob/52eeebecda140ebaf4ec8752ed119d8288287fac/contracts/token/ERC20/ERC20.sol\":6741:6765  uint256 currentAllowance */\n      0x00\n        /* \"https://github.com/OpenZeppelin/openzeppelin-contracts/blob/52eeebecda140ebaf4ec8752ed119d8288287fac/contracts/token/ERC20/ERC20.sol\":6768:6793  allowance(owner, spender) */\n      tag_140\n        /* \"https://github.com/OpenZeppelin/openzeppelin-contracts/blob/52eeebecda140ebaf4ec8752ed119d8288287fac/contracts/token/ERC20/ERC20.sol\":6778:6783  owner */\n      dup3\n        /* \"https://github.com/OpenZeppelin/openzeppelin-contracts/blob/52eeebecda140ebaf4ec8752ed119d8288287fac/contracts/token/ERC20/ERC20.sol\":6785:6792  spender */\n      dup7\n        /* \"https://github.com/OpenZeppelin/openzeppelin-contracts/blob/52eeebecda140ebaf4ec8752ed119d8288287fac/contracts/token/ERC20/ERC20.sol\":6768:6777  allowance */\n      tag_82\n        /* \"https://github.com/OpenZeppelin/openzeppelin-contracts/blob/52eeebecda140ebaf4ec8752ed119d8288287fac/contracts/token/ERC20/ERC20.sol\":6768:6793  allowance(owner, spender) */\n      jump\t// in\n    tag_140:\n        /* \"https://github.com/OpenZeppelin/openzeppelin-contracts/blob/52eeebecda140ebaf4ec8752ed119d8288287fac/contracts/token/ERC20/ERC20.sol\":6741:6793  uint256 currentAllowance = allowance(owner, spender) */\n      swap1\n      pop\n        /* \"https://github.com/OpenZeppelin/openzeppelin-contracts/blob/52eeebecda140ebaf4ec8752ed119d8288287fac/contracts/token/ERC20/ERC20.sol\":6831:6846  subtractedValue */\n      dup4\n        /* \"https://github.com/OpenZeppelin/openzeppelin-contracts/blob/52eeebecda140ebaf4ec8752ed119d8288287fac/contracts/token/ERC20/ERC20.sol\":6811:6827  currentAllowance */\n      dup2\n        /* \"https://github.com/OpenZeppelin/openzeppelin-contracts/blob/52eeebecda140ebaf4ec8752ed119d8288287fac/contracts/token/ERC20/ERC20.sol\":6811:6846  currentAllowance >= subtractedValue */\n      lt\n      iszero\n        /* \"https://github.com/OpenZeppelin/openzeppelin-contracts/blob/52eeebecda140ebaf4ec8752ed119d8288287fac/contracts/token/ERC20/ERC20.sol\":6803:6888  require(currentAllowance >= subtractedValue, \"ERC20: decreased allowance below zero\") */\n      tag_141\n      jumpi\n      mload(0x40)\n      0x08c379a000000000000000000000000000000000000000000000000000000000\n      dup2\n      mstore\n      0x04\n      add\n      tag_142\n      swap1\n      tag_143\n      jump\t// in\n    tag_142:\n      mload(0x40)\n      dup1\n      swap2\n      sub\n      swap1\n      revert\n    tag_141:\n        /* \"https://github.com/OpenZeppelin/openzeppelin-contracts/blob/52eeebecda140ebaf4ec8752ed119d8288287fac/contracts/token/ERC20/ERC20.sol\":6922:6982  _approve(owner, spender, currentAllowance - subtractedValue) */\n      tag_144\n        /* \"https://github.com/OpenZeppelin/openzeppelin-contracts/blob/52eeebecda140ebaf4ec8752ed119d8288287fac/contracts/token/ERC20/ERC20.sol\":6931:6936  owner */\n      dup3\n        /* \"https://github.com/OpenZeppelin/openzeppelin-contracts/blob/52eeebecda140ebaf4ec8752ed119d8288287fac/contracts/token/ERC20/ERC20.sol\":6938:6945  spender */\n      dup7\n        /* \"https://github.com/OpenZeppelin/openzeppelin-contracts/blob/52eeebecda140ebaf4ec8752ed119d8288287fac/contracts/token/ERC20/ERC20.sol\":6966:6981  subtractedValue */\n      dup7\n        /* \"https://github.com/OpenZeppelin/openzeppelin-contracts/blob/52eeebecda140ebaf4ec8752ed119d8288287fac/contracts/token/ERC20/ERC20.sol\":6947:6963  currentAllowance */\n      dup5\n        /* \"https://github.com/OpenZeppelin/openzeppelin-contracts/blob/52eeebecda140ebaf4ec8752ed119d8288287fac/contracts/token/ERC20/ERC20.sol\":6947:6981  currentAllowance - subtractedValue */\n      sub\n        /* \"https://github.com/OpenZeppelin/openzeppelin-contracts/blob/52eeebecda140ebaf4ec8752ed119d8288287fac/contracts/token/ERC20/ERC20.sol\":6922:6930  _approve */\n      tag_110\n        /* \"https://github.com/OpenZeppelin/openzeppelin-contracts/blob/52eeebecda140ebaf4ec8752ed119d8288287fac/contracts/token/ERC20/ERC20.sol\":6922:6982  _approve(owner, spender, currentAllowance - subtractedValue) */\n      jump\t// in\n    tag_144:\n        /* \"https://github.com/OpenZeppelin/openzeppelin-contracts/blob/52eeebecda140ebaf4ec8752ed119d8288287fac/contracts/token/ERC20/ERC20.sol\":7010:7014  true */\n      0x01\n        /* \"https://github.com/OpenZeppelin/openzeppelin-contracts/blob/52eeebecda140ebaf4ec8752ed119d8288287fac/contracts/token/ERC20/ERC20.sol\":7003:7014  return true */\n      swap3\n      pop\n      pop\n      pop\n        /* \"https://github.com/OpenZeppelin/openzeppelin-contracts/blob/52eeebecda140ebaf4ec8752ed119d8288287fac/contracts/token/ERC20/ERC20.sol\":6594:7021  function decreaseAllowance(address spender, uint256 subtractedValue) public virtual returns (bool) {... */\n      swap3\n      swap2\n      pop\n      pop\n      jump\t// out\n        /* \"https://github.com/OpenZeppelin/openzeppelin-contracts/blob/52eeebecda140ebaf4ec8752ed119d8288287fac/contracts/token/ERC20/ERC20.sol\":3729:3918  function transfer(address to, uint256 amount) public virtual override returns (bool) {... */\n    tag_77:\n        /* \"https://github.com/OpenZeppelin/openzeppelin-contracts/blob/52eeebecda140ebaf4ec8752ed119d8288287fac/contracts/token/ERC20/ERC20.sol\":3808:3812  bool */\n      0x00\n        /* \"https://github.com/OpenZeppelin/openzeppelin-contracts/blob/52eeebecda140ebaf4ec8752ed119d8288287fac/contracts/token/ERC20/ERC20.sol\":3824:3837  address owner */\n      dup1\n        /* \"https://github.com/OpenZeppelin/openzeppelin-contracts/blob/52eeebecda140ebaf4ec8752ed119d8288287fac/contracts/token/ERC20/ERC20.sol\":3840:3852  _msgSender() */\n      tag_146\n        /* \"https://github.com/OpenZeppelin/openzeppelin-contracts/blob/52eeebecda140ebaf4ec8752ed119d8288287fac/contracts/token/ERC20/ERC20.sol\":3840:3850  _msgSender */\n      tag_108\n        /* \"https://github.com/OpenZeppelin/openzeppelin-contracts/blob/52eeebecda140ebaf4ec8752ed119d8288287fac/contracts/token/ERC20/ERC20.sol\":3840:3852  _msgSender() */\n      jump\t// in\n    tag_146:\n        /* \"https://github.com/OpenZeppelin/openzeppelin-contracts/blob/52eeebecda140ebaf4ec8752ed119d8288287fac/contracts/token/ERC20/ERC20.sol\":3824:3852  address owner = _msgSender() */\n      swap1\n      pop\n        /* \"https://github.com/OpenZeppelin/openzeppelin-contracts/blob/52eeebecda140ebaf4ec8752ed119d8288287fac/contracts/token/ERC20/ERC20.sol\":3862:3890  _transfer(owner, to, amount) */\n      tag_147\n        /* \"https://github.com/OpenZeppelin/openzeppelin-contracts/blob/52eeebecda140ebaf4ec8752ed119d8288287fac/contracts/token/ERC20/ERC20.sol\":3872:3877  owner */\n      dup2\n        /* \"https://github.com/OpenZeppelin/openzeppelin-contracts/blob/52eeebecda140ebaf4ec8752ed119d8288287fac/contracts/token/ERC20/ERC20.sol\":3879:3881  to */\n      dup6\n        /* \"https://github.com/OpenZeppelin/openzeppelin-contracts/blob/52eeebecda140ebaf4ec8752ed119d8288287fac/contracts/token/ERC20/ERC20.sol\":3883:3889  amount */\n      dup6\n        /* \"https://github.com/OpenZeppelin/openzeppelin-contracts/blob/52eeebecda140ebaf4ec8752ed119d8288287fac/contracts/token/ERC20/ERC20.sol\":3862:3871  _transfer */\n      tag_94\n        /* \"https://github.com/OpenZeppelin/openzeppelin-contracts/blob/52eeebecda140ebaf4ec8752ed119d8288287fac/contracts/token/ERC20/ERC20.sol\":3862:3890  _transfer(owner, to, amount) */\n      jump\t// in\n    tag_147:\n        /* \"https://github.com/OpenZeppelin/openzeppelin-contracts/blob/52eeebecda140ebaf4ec8752ed119d8288287fac/contracts/token/ERC20/ERC20.sol\":3907:3911  true */\n      0x01\n        /* \"https://github.com/OpenZeppelin/openzeppelin-contracts/blob/52eeebecda140ebaf4ec8752ed119d8288287fac/contracts/token/ERC20/ERC20.sol\":3900:3911  return true */\n      swap2\n      pop\n      pop\n        /* \"https://github.com/OpenZeppelin/openzeppelin-contracts/blob/52eeebecda140ebaf4ec8752ed119d8288287fac/contracts/token/ERC20/ERC20.sol\":3729:3918  function transfer(address to, uint256 amount) public virtual override returns (bool) {... */\n      swap3\n      swap2\n      pop\n      pop\n      jump\t// out\n        /* \"https://github.com/OpenZeppelin/openzeppelin-contracts/blob/52eeebecda140ebaf4ec8752ed119d8288287fac/contracts/token/ERC20/ERC20.sol\":3976:4125  function allowance(address owner, address spender) public view virtual override returns (uint256) {... */\n    tag_82:\n        /* \"https://github.com/OpenZeppelin/openzeppelin-contracts/blob/52eeebecda140ebaf4ec8752ed119d8288287fac/contracts/token/ERC20/ERC20.sol\":4065:4072  uint256 */\n      0x00\n        /* \"https://github.com/OpenZeppelin/openzeppelin-contracts/blob/52eeebecda140ebaf4ec8752ed119d8288287fac/contracts/token/ERC20/ERC20.sol\":4091:4102  _allowances */\n      0x01\n        /* \"https://github.com/OpenZeppelin/openzeppelin-contracts/blob/52eeebecda140ebaf4ec8752ed119d8288287fac/contracts/token/ERC20/ERC20.sol\":4091:4109  _allowances[owner] */\n      0x00\n        /* \"https://github.com/OpenZeppelin/openzeppelin-contracts/blob/52eeebecda140ebaf4ec8752ed119d8288287fac/contracts/token/ERC20/ERC20.sol\":4103:4108  owner */\n      dup5\n        /* \"https://github.com/OpenZeppelin/openzeppelin-contracts/blob/52eeebecda140ebaf4ec8752ed119d8288287fac/contracts/token/ERC20/ERC20.sol\":4091:4109  _allowances[owner] */\n      0xffffffffffffffffffffffffffffffffffffffff\n      and\n      0xffffffffffffffffffffffffffffffffffffffff\n      and\n      dup2\n      mstore\n      0x20\n      add\n      swap1\n      dup2\n      mstore\n      0x20\n      add\n      0x00\n      keccak256\n        /* \"https://github.com/OpenZeppelin/openzeppelin-contracts/blob/52eeebecda140ebaf4ec8752ed119d8288287fac/contracts/token/ERC20/ERC20.sol\":4091:4118  _allowances[owner][spender] */\n      0x00\n        /* \"https://github.com/OpenZeppelin/openzeppelin-contracts/blob/52eeebecda140ebaf4ec8752ed119d8288287fac/contracts/token/ERC20/ERC20.sol\":4110:4117  spender */\n      dup4\n        /* \"https://github.com/OpenZeppelin/openzeppelin-contracts/blob/52eeebecda140ebaf4ec8752ed119d8288287fac/contracts/token/ERC20/ERC20.sol\":4091:4118  _allowances[owner][spender] */\n      0xffffffffffffffffffffffffffffffffffffffff\n      and\n      0xffffffffffffffffffffffffffffffffffffffff\n      and\n      dup2\n      mstore\n      0x20\n      add\n      swap1\n      dup2\n      mstore\n      0x20\n      add\n      0x00\n      keccak256\n      sload\n        /* \"https://github.com/OpenZeppelin/openzeppelin-contracts/blob/52eeebecda140ebaf4ec8752ed119d8288287fac/contracts/token/ERC20/ERC20.sol\":4084:4118  return _allowances[owner][spender] */\n      swap1\n      pop\n        /* \"https://github.com/OpenZeppelin/openzeppelin-contracts/blob/52eeebecda140ebaf4ec8752ed119d8288287fac/contracts/token/ERC20/ERC20.sol\":3976:4125  function allowance(address owner, address spender) public view virtual override returns (uint256) {... */\n      swap3\n      swap2\n      pop\n      pop\n      jump\t// out\n        /* \"https://github.com/OpenZeppelin/openzeppelin-contracts/blob/52eeebecda140ebaf4ec8752ed119d8288287fac/contracts/token/ERC20/ERC20.sol\":7484:8135  function _transfer(... */\n    tag_94:\n        /* \"https://github.com/OpenZeppelin/openzeppelin-contracts/blob/52eeebecda140ebaf4ec8752ed119d8288287fac/contracts/token/ERC20/ERC20.sol\":7626:7627  0 */\n      0x00\n        /* \"https://github.com/OpenZeppelin/openzeppelin-contracts/blob/52eeebecda140ebaf4ec8752ed119d8288287fac/contracts/token/ERC20/ERC20.sol\":7610:7628  from != address(0) */\n      0xffffffffffffffffffffffffffffffffffffffff\n      and\n        /* \"https://github.com/OpenZeppelin/openzeppelin-contracts/blob/52eeebecda140ebaf4ec8752ed119d8288287fac/contracts/token/ERC20/ERC20.sol\":7610:7614  from */\n      dup4\n        /* \"https://github.com/OpenZeppelin/openzeppelin-contracts/blob/52eeebecda140ebaf4ec8752ed119d8288287fac/contracts/token/ERC20/ERC20.sol\":7610:7628  from != address(0) */\n      0xffffffffffffffffffffffffffffffffffffffff\n      and\n      eq\n      iszero\n        /* \"https://github.com/OpenZeppelin/openzeppelin-contracts/blob/52eeebecda140ebaf4ec8752ed119d8288287fac/contracts/token/ERC20/ERC20.sol\":7602:7670  require(from != address(0), \"ERC20: transfer from the zero address\") */\n      tag_150\n      jumpi\n      mload(0x40)\n      0x08c379a000000000000000000000000000000000000000000000000000000000\n      dup2\n      mstore\n      0x04\n      add\n      tag_151\n      swap1\n      tag_152\n      jump\t// in\n    tag_151:\n      mload(0x40)\n      dup1\n      swap2\n      sub\n      swap1\n      revert\n    tag_150:\n        /* \"https://github.com/OpenZeppelin/openzeppelin-contracts/blob/52eeebecda140ebaf4ec8752ed119d8288287fac/contracts/token/ERC20/ERC20.sol\":7702:7703  0 */\n      0x00\n        /* \"https://github.com/OpenZeppelin/openzeppelin-contracts/blob/52eeebecda140ebaf4ec8752ed119d8288287fac/contracts/token/ERC20/ERC20.sol\":7688:7704  to != address(0) */\n      0xffffffffffffffffffffffffffffffffffffffff\n      and\n        /* \"https://github.com/OpenZeppelin/openzeppelin-contracts/blob/52eeebecda140ebaf4ec8752ed119d8288287fac/contracts/token/ERC20/ERC20.sol\":7688:7690  to */\n      dup3\n        /* \"https://github.com/OpenZeppelin/openzeppelin-contracts/blob/52eeebecda140ebaf4ec8752ed119d8288287fac/contracts/token/ERC20/ERC20.sol\":7688:7704  to != address(0) */\n      0xffffffffffffffffffffffffffffffffffffffff\n      and\n      eq\n      iszero\n        /* \"https://github.com/OpenZeppelin/openzeppelin-contracts/blob/52eeebecda140ebaf4ec8752ed119d8288287fac/contracts/token/ERC20/ERC20.sol\":7680:7744  require(to != address(0), \"ERC20: transfer to the zero address\") */\n      tag_153\n      jumpi\n      mload(0x40)\n      0x08c379a000000000000000000000000000000000000000000000000000000000\n      dup2\n      mstore\n      0x04\n      add\n      tag_154\n      swap1\n      tag_155\n      jump\t// in\n    tag_154:\n      mload(0x40)\n      dup1\n      swap2\n      sub\n      swap1\n      revert\n    tag_153:\n        /* \"https://github.com/OpenZeppelin/openzeppelin-contracts/blob/52eeebecda140ebaf4ec8752ed119d8288287fac/contracts/token/ERC20/ERC20.sol\":7755:7793  _beforeTokenTransfer(from, to, amount) */\n      tag_156\n        /* \"https://github.com/OpenZeppelin/openzeppelin-contracts/blob/52eeebecda140ebaf4ec8752ed119d8288287fac/contracts/token/ERC20/ERC20.sol\":7776:7780  from */\n      dup4\n        /* \"https://github.com/OpenZeppelin/openzeppelin-contracts/blob/52eeebecda140ebaf4ec8752ed119d8288287fac/contracts/token/ERC20/ERC20.sol\":7782:7784  to */\n      dup4\n        /* \"https://github.com/OpenZeppelin/openzeppelin-contracts/blob/52eeebecda140ebaf4ec8752ed119d8288287fac/contracts/token/ERC20/ERC20.sol\":7786:7792  amount */\n      dup4\n        /* \"https://github.com/OpenZeppelin/openzeppelin-contracts/blob/52eeebecda140ebaf4ec8752ed119d8288287fac/contracts/token/ERC20/ERC20.sol\":7755:7775  _beforeTokenTransfer */\n      tag_157\n        /* \"https://github.com/OpenZeppelin/openzeppelin-contracts/blob/52eeebecda140ebaf4ec8752ed119d8288287fac/contracts/token/ERC20/ERC20.sol\":7755:7793  _beforeTokenTransfer(from, to, amount) */\n      jump\t// in\n    tag_156:\n        /* \"https://github.com/OpenZeppelin/openzeppelin-contracts/blob/52eeebecda140ebaf4ec8752ed119d8288287fac/contracts/token/ERC20/ERC20.sol\":7804:7823  uint256 fromBalance */\n      0x00\n        /* \"https://github.com/OpenZeppelin/openzeppelin-contracts/blob/52eeebecda140ebaf4ec8752ed119d8288287fac/contracts/token/ERC20/ERC20.sol\":7826:7835  _balances */\n      dup1\n        /* \"https://github.com/OpenZeppelin/openzeppelin-contracts/blob/52eeebecda140ebaf4ec8752ed119d8288287fac/contracts/token/ERC20/ERC20.sol\":7826:7841  _balances[from] */\n      0x00\n        /* \"https://github.com/OpenZeppelin/openzeppelin-contracts/blob/52eeebecda140ebaf4ec8752ed119d8288287fac/contracts/token/ERC20/ERC20.sol\":7836:7840  from */\n      dup6\n        /* \"https://github.com/OpenZeppelin/openzeppelin-contracts/blob/52eeebecda140ebaf4ec8752ed119d8288287fac/contracts/token/ERC20/ERC20.sol\":7826:7841  _balances[from] */\n      0xffffffffffffffffffffffffffffffffffffffff\n      and\n      0xffffffffffffffffffffffffffffffffffffffff\n      and\n      dup2\n      mstore\n      0x20\n      add\n      swap1\n      dup2\n      mstore\n      0x20\n      add\n      0x00\n      keccak256\n      sload\n        /* \"https://github.com/OpenZeppelin/openzeppelin-contracts/blob/52eeebecda140ebaf4ec8752ed119d8288287fac/contracts/token/ERC20/ERC20.sol\":7804:7841  uint256 fromBalance = _balances[from] */\n      swap1\n      pop\n        /* \"https://github.com/OpenZeppelin/openzeppelin-contracts/blob/52eeebecda140ebaf4ec8752ed119d8288287fac/contracts/token/ERC20/ERC20.sol\":7874:7880  amount */\n      dup2\n        /* \"https://github.com/OpenZeppelin/openzeppelin-contracts/blob/52eeebecda140ebaf4ec8752ed119d8288287fac/contracts/token/ERC20/ERC20.sol\":7859:7870  fromBalance */\n      dup2\n        /* \"https://github.com/OpenZeppelin/openzeppelin-contracts/blob/52eeebecda140ebaf4ec8752ed119d8288287fac/contracts/token/ERC20/ERC20.sol\":7859:7880  fromBalance >= amount */\n      lt\n      iszero\n        /* \"https://github.com/OpenZeppelin/openzeppelin-contracts/blob/52eeebecda140ebaf4ec8752ed119d8288287fac/contracts/token/ERC20/ERC20.sol\":7851:7923  require(fromBalance >= amount, \"ERC20: transfer amount exceeds balance\") */\n      tag_158\n      jumpi\n      mload(0x40)\n      0x08c379a000000000000000000000000000000000000000000000000000000000\n      dup2\n      mstore\n      0x04\n      add\n      tag_159\n      swap1\n      tag_160\n      jump\t// in\n    tag_159:\n      mload(0x40)\n      dup1\n      swap2\n      sub\n      swap1\n      revert\n    tag_158:\n        /* \"https://github.com/OpenZeppelin/openzeppelin-contracts/blob/52eeebecda140ebaf4ec8752ed119d8288287fac/contracts/token/ERC20/ERC20.sol\":7989:7995  amount */\n      dup2\n        /* \"https://github.com/OpenZeppelin/openzeppelin-contracts/blob/52eeebecda140ebaf4ec8752ed119d8288287fac/contracts/token/ERC20/ERC20.sol\":7975:7986  fromBalance */\n      dup2\n        /* \"https://github.com/OpenZeppelin/openzeppelin-contracts/blob/52eeebecda140ebaf4ec8752ed119d8288287fac/contracts/token/ERC20/ERC20.sol\":7975:7995  fromBalance - amount */\n      sub\n        /* \"https://github.com/OpenZeppelin/openzeppelin-contracts/blob/52eeebecda140ebaf4ec8752ed119d8288287fac/contracts/token/ERC20/ERC20.sol\":7957:7966  _balances */\n      0x00\n        /* \"https://github.com/OpenZeppelin/openzeppelin-contracts/blob/52eeebecda140ebaf4ec8752ed119d8288287fac/contracts/token/ERC20/ERC20.sol\":7957:7972  _balances[from] */\n      dup1\n        /* \"https://github.com/OpenZeppelin/openzeppelin-contracts/blob/52eeebecda140ebaf4ec8752ed119d8288287fac/contracts/token/ERC20/ERC20.sol\":7967:7971  from */\n      dup7\n        /* \"https://github.com/OpenZeppelin/openzeppelin-contracts/blob/52eeebecda140ebaf4ec8752ed119d8288287fac/contracts/token/ERC20/ERC20.sol\":7957:7972  _balances[from] */\n      0xffffffffffffffffffffffffffffffffffffffff\n      and\n      0xffffffffffffffffffffffffffffffffffffffff\n      and\n      dup2\n      mstore\n      0x20\n      add\n      swap1\n      dup2\n      mstore\n      0x20\n      add\n      0x00\n      keccak256\n        /* \"https://github.com/OpenZeppelin/openzeppelin-contracts/blob/52eeebecda140ebaf4ec8752ed119d8288287fac/contracts/token/ERC20/ERC20.sol\":7957:7995  _balances[from] = fromBalance - amount */\n      dup2\n      swap1\n      sstore\n      pop\n        /* \"https://github.com/OpenZeppelin/openzeppelin-contracts/blob/52eeebecda140ebaf4ec8752ed119d8288287fac/contracts/token/ERC20/ERC20.sol\":8032:8038  amount */\n      dup2\n        /* \"https://github.com/OpenZeppelin/openzeppelin-contracts/blob/52eeebecda140ebaf4ec8752ed119d8288287fac/contracts/token/ERC20/ERC20.sol\":8015:8024  _balances */\n      0x00\n        /* \"https://github.com/OpenZeppelin/openzeppelin-contracts/blob/52eeebecda140ebaf4ec8752ed119d8288287fac/contracts/token/ERC20/ERC20.sol\":8015:8028  _balances[to] */\n      dup1\n        /* \"https://github.com/OpenZeppelin/openzeppelin-contracts/blob/52eeebecda140ebaf4ec8752ed119d8288287fac/contracts/token/ERC20/ERC20.sol\":8025:8027  to */\n      dup6\n        /* \"https://github.com/OpenZeppelin/openzeppelin-contracts/blob/52eeebecda140ebaf4ec8752ed119d8288287fac/contracts/token/ERC20/ERC20.sol\":8015:8028  _balances[to] */\n      0xffffffffffffffffffffffffffffffffffffffff\n      and\n      0xffffffffffffffffffffffffffffffffffffffff\n      and\n      dup2\n      mstore\n      0x20\n      add\n      swap1\n      dup2\n      mstore\n      0x20\n      add\n      0x00\n      keccak256\n      0x00\n        /* \"https://github.com/OpenZeppelin/openzeppelin-contracts/blob/52eeebecda140ebaf4ec8752ed119d8288287fac/contracts/token/ERC20/ERC20.sol\":8015:8038  _balances[to] += amount */\n      dup3\n      dup3\n      sload\n      tag_161\n      swap2\n      swap1\n      tag_123\n      jump\t// in\n    tag_161:\n      swap3\n      pop\n      pop\n      dup2\n      swap1\n      sstore\n      pop\n        /* \"https://github.com/OpenZeppelin/openzeppelin-contracts/blob/52eeebecda140ebaf4ec8752ed119d8288287fac/contracts/token/ERC20/ERC20.sol\":8069:8071  to */\n      dup3\n        /* \"https://github.com/OpenZeppelin/openzeppelin-contracts/blob/52eeebecda140ebaf4ec8752ed119d8288287fac/contracts/token/ERC20/ERC20.sol\":8054:8080  Transfer(from, to, amount) */\n      0xffffffffffffffffffffffffffffffffffffffff\n      and\n        /* \"https://github.com/OpenZeppelin/openzeppelin-contracts/blob/52eeebecda140ebaf4ec8752ed119d8288287fac/contracts/token/ERC20/ERC20.sol\":8063:8067  from */\n      dup5\n        /* \"https://github.com/OpenZeppelin/openzeppelin-contracts/blob/52eeebecda140ebaf4ec8752ed119d8288287fac/contracts/token/ERC20/ERC20.sol\":8054:8080  Transfer(from, to, amount) */\n      0xffffffffffffffffffffffffffffffffffffffff\n      and\n      0xddf252ad1be2c89b69c2b068fc378daa952ba7f163c4a11628f55a4df523b3ef\n        /* \"https://github.com/OpenZeppelin/openzeppelin-contracts/blob/52eeebecda140ebaf4ec8752ed119d8288287fac/contracts/token/ERC20/ERC20.sol\":8073:8079  amount */\n      dup5\n        /* \"https://github.com/OpenZeppelin/openzeppelin-contracts/blob/52eeebecda140ebaf4ec8752ed119d8288287fac/contracts/token/ERC20/ERC20.sol\":8054:8080  Transfer(from, to, amount) */\n      mload(0x40)\n      tag_162\n      swap2\n      swap1\n      tag_42\n      jump\t// in\n    tag_162:\n      mload(0x40)\n      dup1\n      swap2\n      sub\n      swap1\n      log3\n        /* \"https://github.com/OpenZeppelin/openzeppelin-contracts/blob/52eeebecda140ebaf4ec8752ed119d8288287fac/contracts/token/ERC20/ERC20.sol\":8091:8128  _afterTokenTransfer(from, to, amount) */\n      tag_163\n        /* \"https://github.com/OpenZeppelin/openzeppelin-contracts/blob/52eeebecda140ebaf4ec8752ed119d8288287fac/contracts/token/ERC20/ERC20.sol\":8111:8115  from */\n      dup5\n        /* \"https://github.com/OpenZeppelin/openzeppelin-contracts/blob/52eeebecda140ebaf4ec8752ed119d8288287fac/contracts/token/ERC20/ERC20.sol\":8117:8119  to */\n      dup5\n        /* \"https://github.com/OpenZeppelin/openzeppelin-contracts/blob/52eeebecda140ebaf4ec8752ed119d8288287fac/contracts/token/ERC20/ERC20.sol\":8121:8127  amount */\n      dup5\n        /* \"https://github.com/OpenZeppelin/openzeppelin-contracts/blob/52eeebecda140ebaf4ec8752ed119d8288287fac/contracts/token/ERC20/ERC20.sol\":8091:8110  _afterTokenTransfer */\n      tag_164\n        /* \"https://github.com/OpenZeppelin/openzeppelin-contracts/blob/52eeebecda140ebaf4ec8752ed119d8288287fac/contracts/token/ERC20/ERC20.sol\":8091:8128  _afterTokenTransfer(from, to, amount) */\n      jump\t// in\n    tag_163:\n        /* \"https://github.com/OpenZeppelin/openzeppelin-contracts/blob/52eeebecda140ebaf4ec8752ed119d8288287fac/contracts/token/ERC20/ERC20.sol\":7592:8135  {... */\n      pop\n        /* \"https://github.com/OpenZeppelin/openzeppelin-contracts/blob/52eeebecda140ebaf4ec8752ed119d8288287fac/contracts/token/ERC20/ERC20.sol\":7484:8135  function _transfer(... */\n      pop\n      pop\n      pop\n      jump\t// out\n        /* \"https://github.com/OpenZeppelin/openzeppelin-contracts/blob/52eeebecda140ebaf4ec8752ed119d8288287fac/contracts/utils/Context.sol\":640:736  function _msgSender() internal view virtual returns (address) {... */\n    tag_108:\n        /* \"https://github.com/OpenZeppelin/openzeppelin-contracts/blob/52eeebecda140ebaf4ec8752ed119d8288287fac/contracts/utils/Context.sol\":693:700  address */\n      0x00\n        /* \"https://github.com/OpenZeppelin/openzeppelin-contracts/blob/52eeebecda140ebaf4ec8752ed119d8288287fac/contracts/utils/Context.sol\":719:729  msg.sender */\n      caller\n        /* \"https://github.com/OpenZeppelin/openzeppelin-contracts/blob/52eeebecda140ebaf4ec8752ed119d8288287fac/contracts/utils/Context.sol\":712:729  return msg.sender */\n      swap1\n      pop\n        /* \"https://github.com/OpenZeppelin/openzeppelin-contracts/blob/52eeebecda140ebaf4ec8752ed119d8288287fac/contracts/utils/Context.sol\":640:736  function _msgSender() internal view virtual returns (address) {... */\n      swap1\n      jump\t// out\n        /* \"https://github.com/OpenZeppelin/openzeppelin-contracts/blob/52eeebecda140ebaf4ec8752ed119d8288287fac/contracts/token/ERC20/ERC20.sol\":10119:10489  function _approve(... */\n    tag_110:\n        /* \"https://github.com/OpenZeppelin/openzeppelin-contracts/blob/52eeebecda140ebaf4ec8752ed119d8288287fac/contracts/token/ERC20/ERC20.sol\":10267:10268  0 */\n      0x00\n        /* \"https://github.com/OpenZeppelin/openzeppelin-contracts/blob/52eeebecda140ebaf4ec8752ed119d8288287fac/contracts/token/ERC20/ERC20.sol\":10250:10269  owner != address(0) */\n      0xffffffffffffffffffffffffffffffffffffffff\n      and\n        /* \"https://github.com/OpenZeppelin/openzeppelin-contracts/blob/52eeebecda140ebaf4ec8752ed119d8288287fac/contracts/token/ERC20/ERC20.sol\":10250:10255  owner */\n      dup4\n        /* \"https://github.com/OpenZeppelin/openzeppelin-contracts/blob/52eeebecda140ebaf4ec8752ed119d8288287fac/contracts/token/ERC20/ERC20.sol\":10250:10269  owner != address(0) */\n      0xffffffffffffffffffffffffffffffffffffffff\n      and\n      eq\n      iszero\n        /* \"https://github.com/OpenZeppelin/openzeppelin-contracts/blob/52eeebecda140ebaf4ec8752ed119d8288287fac/contracts/token/ERC20/ERC20.sol\":10242:10310  require(owner != address(0), \"ERC20: approve from the zero address\") */\n      tag_167\n      jumpi\n      mload(0x40)\n      0x08c379a000000000000000000000000000000000000000000000000000000000\n      dup2\n      mstore\n      0x04\n      add\n      tag_168\n      swap1\n      tag_169\n      jump\t// in\n    tag_168:\n      mload(0x40)\n      dup1\n      swap2\n      sub\n      swap1\n      revert\n    tag_167:\n        /* \"https://github.com/OpenZeppelin/openzeppelin-contracts/blob/52eeebecda140ebaf4ec8752ed119d8288287fac/contracts/token/ERC20/ERC20.sol\":10347:10348  0 */\n      0x00\n        /* \"https://github.com/OpenZeppelin/openzeppelin-contracts/blob/52eeebecda140ebaf4ec8752ed119d8288287fac/contracts/token/ERC20/ERC20.sol\":10328:10349  spender != address(0) */\n      0xffffffffffffffffffffffffffffffffffffffff\n      and\n        /* \"https://github.com/OpenZeppelin/openzeppelin-contracts/blob/52eeebecda140ebaf4ec8752ed119d8288287fac/contracts/token/ERC20/ERC20.sol\":10328:10335  spender */\n      dup3\n        /* \"https://github.com/OpenZeppelin/openzeppelin-contracts/blob/52eeebecda140ebaf4ec8752ed119d8288287fac/contracts/token/ERC20/ERC20.sol\":10328:10349  spender != address(0) */\n      0xffffffffffffffffffffffffffffffffffffffff\n      and\n      eq\n      iszero\n        /* \"https://github.com/OpenZeppelin/openzeppelin-contracts/blob/52eeebecda140ebaf4ec8752ed119d8288287fac/contracts/token/ERC20/ERC20.sol\":10320:10388  require(spender != address(0), \"ERC20: approve to the zero address\") */\n      tag_170\n      jumpi\n      mload(0x40)\n      0x08c379a000000000000000000000000000000000000000000000000000000000\n      dup2\n      mstore\n      0x04\n      add\n      tag_171\n      swap1\n      tag_172\n      jump\t// in\n    tag_171:\n      mload(0x40)\n      dup1\n      swap2\n      sub\n      swap1\n      revert\n    tag_170:\n        /* \"https://github.com/OpenZeppelin/openzeppelin-contracts/blob/52eeebecda140ebaf4ec8752ed119d8288287fac/contracts/token/ERC20/ERC20.sol\":10429:10435  amount */\n      dup1\n        /* \"https://github.com/OpenZeppelin/openzeppelin-contracts/blob/52eeebecda140ebaf4ec8752ed119d8288287fac/contracts/token/ERC20/ERC20.sol\":10399:10410  _allowances */\n      0x01\n        /* \"https://github.com/OpenZeppelin/openzeppelin-contracts/blob/52eeebecda140ebaf4ec8752ed119d8288287fac/contracts/token/ERC20/ERC20.sol\":10399:10417  _allowances[owner] */\n      0x00\n        /* \"https://github.com/OpenZeppelin/openzeppelin-contracts/blob/52eeebecda140ebaf4ec8752ed119d8288287fac/contracts/token/ERC20/ERC20.sol\":10411:10416  owner */\n      dup6\n        /* \"https://github.com/OpenZeppelin/openzeppelin-contracts/blob/52eeebecda140ebaf4ec8752ed119d8288287fac/contracts/token/ERC20/ERC20.sol\":10399:10417  _allowances[owner] */\n      0xffffffffffffffffffffffffffffffffffffffff\n      and\n      0xffffffffffffffffffffffffffffffffffffffff\n      and\n      dup2\n      mstore\n      0x20\n      add\n      swap1\n      dup2\n      mstore\n      0x20\n      add\n      0x00\n      keccak256\n        /* \"https://github.com/OpenZeppelin/openzeppelin-contracts/blob/52eeebecda140ebaf4ec8752ed119d8288287fac/contracts/token/ERC20/ERC20.sol\":10399:10426  _allowances[owner][spender] */\n      0x00\n        /* \"https://github.com/OpenZeppelin/openzeppelin-contracts/blob/52eeebecda140ebaf4ec8752ed119d8288287fac/contracts/token/ERC20/ERC20.sol\":10418:10425  spender */\n      dup5\n        /* \"https://github.com/OpenZeppelin/openzeppelin-contracts/blob/52eeebecda140ebaf4ec8752ed119d8288287fac/contracts/token/ERC20/ERC20.sol\":10399:10426  _allowances[owner][spender] */\n      0xffffffffffffffffffffffffffffffffffffffff\n      and\n      0xffffffffffffffffffffffffffffffffffffffff\n      and\n      dup2\n      mstore\n      0x20\n      add\n      swap1\n      dup2\n      mstore\n      0x20\n      add\n      0x00\n      keccak256\n        /* \"https://github.com/OpenZeppelin/openzeppelin-contracts/blob/52eeebecda140ebaf4ec8752ed119d8288287fac/contracts/token/ERC20/ERC20.sol\":10399:10435  _allowances[owner][spender] = amount */\n      dup2\n      swap1\n      sstore\n      pop\n        /* \"https://github.com/OpenZeppelin/openzeppelin-contracts/blob/52eeebecda140ebaf4ec8752ed119d8288287fac/contracts/token/ERC20/ERC20.sol\":10466:10473  spender */\n      dup2\n        /* \"https://github.com/OpenZeppelin/openzeppelin-contracts/blob/52eeebecda140ebaf4ec8752ed119d8288287fac/contracts/token/ERC20/ERC20.sol\":10450:10482  Approval(owner, spender, amount) */\n      0xffffffffffffffffffffffffffffffffffffffff\n      and\n        /* \"https://github.com/OpenZeppelin/openzeppelin-contracts/blob/52eeebecda140ebaf4ec8752ed119d8288287fac/contracts/token/ERC20/ERC20.sol\":10459:10464  owner */\n      dup4\n        /* \"https://github.com/OpenZeppelin/openzeppelin-contracts/blob/52eeebecda140ebaf4ec8752ed119d8288287fac/contracts/token/ERC20/ERC20.sol\":10450:10482  Approval(owner, spender, amount) */\n      0xffffffffffffffffffffffffffffffffffffffff\n      and\n      0x8c5be1e5ebec7d5bd14f71427d1e84f3dd0314c0f7b2291e5b200ac8c7c3b925\n        /* \"https://github.com/OpenZeppelin/openzeppelin-contracts/blob/52eeebecda140ebaf4ec8752ed119d8288287fac/contracts/token/ERC20/ERC20.sol\":10475:10481  amount */\n      dup4\n        /* \"https://github.com/OpenZeppelin/openzeppelin-contracts/blob/52eeebecda140ebaf4ec8752ed119d8288287fac/contracts/token/ERC20/ERC20.sol\":10450:10482  Approval(owner, spender, amount) */\n      mload(0x40)\n      tag_173\n      swap2\n      swap1\n      tag_42\n      jump\t// in\n    tag_173:\n      mload(0x40)\n      dup1\n      swap2\n      sub\n      swap1\n      log3\n        /* \"https://github.com/OpenZeppelin/openzeppelin-contracts/blob/52eeebecda140ebaf4ec8752ed119d8288287fac/contracts/token/ERC20/ERC20.sol\":10119:10489  function _approve(... */\n      pop\n      pop\n      pop\n      jump\t// out\n        /* \"https://github.com/OpenZeppelin/openzeppelin-contracts/blob/52eeebecda140ebaf4ec8752ed119d8288287fac/contracts/token/ERC20/ERC20.sol\":10770:11211  function _spendAllowance(... */\n    tag_115:\n        /* \"https://github.com/OpenZeppelin/openzeppelin-contracts/blob/52eeebecda140ebaf4ec8752ed119d8288287fac/contracts/token/ERC20/ERC20.sol\":10900:10924  uint256 currentAllowance */\n      0x00\n        /* \"https://github.com/OpenZeppelin/openzeppelin-contracts/blob/52eeebecda140ebaf4ec8752ed119d8288287fac/contracts/token/ERC20/ERC20.sol\":10927:10952  allowance(owner, spender) */\n      tag_175\n        /* \"https://github.com/OpenZeppelin/openzeppelin-contracts/blob/52eeebecda140ebaf4ec8752ed119d8288287fac/contracts/token/ERC20/ERC20.sol\":10937:10942  owner */\n      dup5\n        /* \"https://github.com/OpenZeppelin/openzeppelin-contracts/blob/52eeebecda140ebaf4ec8752ed119d8288287fac/contracts/token/ERC20/ERC20.sol\":10944:10951  spender */\n      dup5\n        /* \"https://github.com/OpenZeppelin/openzeppelin-contracts/blob/52eeebecda140ebaf4ec8752ed119d8288287fac/contracts/token/ERC20/ERC20.sol\":10927:10936  allowance */\n      tag_82\n        /* \"https://github.com/OpenZeppelin/openzeppelin-contracts/blob/52eeebecda140ebaf4ec8752ed119d8288287fac/contracts/token/ERC20/ERC20.sol\":10927:10952  allowance(owner, spender) */\n      jump\t// in\n    tag_175:\n        /* \"https://github.com/OpenZeppelin/openzeppelin-contracts/blob/52eeebecda140ebaf4ec8752ed119d8288287fac/contracts/token/ERC20/ERC20.sol\":10900:10952  uint256 currentAllowance = allowance(owner, spender) */\n      swap1\n      pop\n        /* \"https://github.com/OpenZeppelin/openzeppelin-contracts/blob/52eeebecda140ebaf4ec8752ed119d8288287fac/contracts/token/ERC20/ERC20.sol\":10986:11003  type(uint256).max */\n      0xffffffffffffffffffffffffffffffffffffffffffffffffffffffffffffffff\n        /* \"https://github.com/OpenZeppelin/openzeppelin-contracts/blob/52eeebecda140ebaf4ec8752ed119d8288287fac/contracts/token/ERC20/ERC20.sol\":10966:10982  currentAllowance */\n      dup2\n        /* \"https://github.com/OpenZeppelin/openzeppelin-contracts/blob/52eeebecda140ebaf4ec8752ed119d8288287fac/contracts/token/ERC20/ERC20.sol\":10966:11003  currentAllowance != type(uint256).max */\n      eq\n        /* \"https://github.com/OpenZeppelin/openzeppelin-contracts/blob/52eeebecda140ebaf4ec8752ed119d8288287fac/contracts/token/ERC20/ERC20.sol\":10962:11205  if (currentAllowance != type(uint256).max) {... */\n      tag_176\n      jumpi\n        /* \"https://github.com/OpenZeppelin/openzeppelin-contracts/blob/52eeebecda140ebaf4ec8752ed119d8288287fac/contracts/token/ERC20/ERC20.sol\":11047:11053  amount */\n      dup2\n        /* \"https://github.com/OpenZeppelin/openzeppelin-contracts/blob/52eeebecda140ebaf4ec8752ed119d8288287fac/contracts/token/ERC20/ERC20.sol\":11027:11043  currentAllowance */\n      dup2\n        /* \"https://github.com/OpenZeppelin/openzeppelin-contracts/blob/52eeebecda140ebaf4ec8752ed119d8288287fac/contracts/token/ERC20/ERC20.sol\":11027:11053  currentAllowance >= amount */\n      lt\n      iszero\n        /* \"https://github.com/OpenZeppelin/openzeppelin-contracts/blob/52eeebecda140ebaf4ec8752ed119d8288287fac/contracts/token/ERC20/ERC20.sol\":11019:11087  require(currentAllowance >= amount, \"ERC20: insufficient allowance\") */\n      tag_177\n      jumpi\n      mload(0x40)\n      0x08c379a000000000000000000000000000000000000000000000000000000000\n      dup2\n      mstore\n      0x04\n      add\n      tag_178\n      swap1\n      tag_179\n      jump\t// in\n    tag_178:\n      mload(0x40)\n      dup1\n      swap2\n      sub\n      swap1\n      revert\n    tag_177:\n        /* \"https://github.com/OpenZeppelin/openzeppelin-contracts/blob/52eeebecda140ebaf4ec8752ed119d8288287fac/contracts/token/ERC20/ERC20.sol\":11129:11180  _approve(owner, spender, currentAllowance - amount) */\n      tag_180\n        /* \"https://github.com/OpenZeppelin/openzeppelin-contracts/blob/52eeebecda140ebaf4ec8752ed119d8288287fac/contracts/token/ERC20/ERC20.sol\":11138:11143  owner */\n      dup5\n        /* \"https://github.com/OpenZeppelin/openzeppelin-contracts/blob/52eeebecda140ebaf4ec8752ed119d8288287fac/contracts/token/ERC20/ERC20.sol\":11145:11152  spender */\n      dup5\n        /* \"https://github.com/OpenZeppelin/openzeppelin-contracts/blob/52eeebecda140ebaf4ec8752ed119d8288287fac/contracts/token/ERC20/ERC20.sol\":11173:11179  amount */\n      dup5\n        /* \"https://github.com/OpenZeppelin/openzeppelin-contracts/blob/52eeebecda140ebaf4ec8752ed119d8288287fac/contracts/token/ERC20/ERC20.sol\":11154:11170  currentAllowance */\n      dup5\n        /* \"https://github.com/OpenZeppelin/openzeppelin-contracts/blob/52eeebecda140ebaf4ec8752ed119d8288287fac/contracts/token/ERC20/ERC20.sol\":11154:11179  currentAllowance - amount */\n      sub\n        /* \"https://github.com/OpenZeppelin/openzeppelin-contracts/blob/52eeebecda140ebaf4ec8752ed119d8288287fac/contracts/token/ERC20/ERC20.sol\":11129:11137  _approve */\n      tag_110\n        /* \"https://github.com/OpenZeppelin/openzeppelin-contracts/blob/52eeebecda140ebaf4ec8752ed119d8288287fac/contracts/token/ERC20/ERC20.sol\":11129:11180  _approve(owner, spender, currentAllowance - amount) */\n      jump\t// in\n    tag_180:\n        /* \"https://github.com/OpenZeppelin/openzeppelin-contracts/blob/52eeebecda140ebaf4ec8752ed119d8288287fac/contracts/token/ERC20/ERC20.sol\":10962:11205  if (currentAllowance != type(uint256).max) {... */\n    tag_176:\n        /* \"https://github.com/OpenZeppelin/openzeppelin-contracts/blob/52eeebecda140ebaf4ec8752ed119d8288287fac/contracts/token/ERC20/ERC20.sol\":10890:11211  {... */\n      pop\n        /* \"https://github.com/OpenZeppelin/openzeppelin-contracts/blob/52eeebecda140ebaf4ec8752ed119d8288287fac/contracts/token/ERC20/ERC20.sol\":10770:11211  function _spendAllowance(... */\n      pop\n      pop\n      pop\n      jump\t// out\n        /* \"https://github.com/OpenZeppelin/openzeppelin-contracts/blob/52eeebecda140ebaf4ec8752ed119d8288287fac/contracts/token/ERC20/ERC20.sol\":8411:8800  function _mint(address account, uint256 amount) internal virtual {... */\n    tag_130:\n        /* \"https://github.com/OpenZeppelin/openzeppelin-contracts/blob/52eeebecda140ebaf4ec8752ed119d8288287fac/contracts/token/ERC20/ERC20.sol\":8513:8514  0 */\n      0x00\n        /* \"https://github.com/OpenZeppelin/openzeppelin-contracts/blob/52eeebecda140ebaf4ec8752ed119d8288287fac/contracts/token/ERC20/ERC20.sol\":8494:8515  account != address(0) */\n      0xffffffffffffffffffffffffffffffffffffffff\n      and\n        /* \"https://github.com/OpenZeppelin/openzeppelin-contracts/blob/52eeebecda140ebaf4ec8752ed119d8288287fac/contracts/token/ERC20/ERC20.sol\":8494:8501  account */\n      dup3\n        /* \"https://github.com/OpenZeppelin/openzeppelin-contracts/blob/52eeebecda140ebaf4ec8752ed119d8288287fac/contracts/token/ERC20/ERC20.sol\":8494:8515  account != address(0) */\n      0xffffffffffffffffffffffffffffffffffffffff\n      and\n      eq\n      iszero\n        /* \"https://github.com/OpenZeppelin/openzeppelin-contracts/blob/52eeebecda140ebaf4ec8752ed119d8288287fac/contracts/token/ERC20/ERC20.sol\":8486:8551  require(account != address(0), \"ERC20: mint to the zero address\") */\n      tag_182\n      jumpi\n      mload(0x40)\n      0x08c379a000000000000000000000000000000000000000000000000000000000\n      dup2\n      mstore\n      0x04\n      add\n      tag_183\n      swap1\n      tag_184\n      jump\t// in\n    tag_183:\n      mload(0x40)\n      dup1\n      swap2\n      sub\n      swap1\n      revert\n    tag_182:\n        /* \"https://github.com/OpenZeppelin/openzeppelin-contracts/blob/52eeebecda140ebaf4ec8752ed119d8288287fac/contracts/token/ERC20/ERC20.sol\":8562:8611  _beforeTokenTransfer(address(0), account, amount) */\n      tag_185\n        /* \"https://github.com/OpenZeppelin/openzeppelin-contracts/blob/52eeebecda140ebaf4ec8752ed119d8288287fac/contracts/token/ERC20/ERC20.sol\":8591:8592  0 */\n      0x00\n        /* \"https://github.com/OpenZeppelin/openzeppelin-contracts/blob/52eeebecda140ebaf4ec8752ed119d8288287fac/contracts/token/ERC20/ERC20.sol\":8595:8602  account */\n      dup4\n        /* \"https://github.com/OpenZeppelin/openzeppelin-contracts/blob/52eeebecda140ebaf4ec8752ed119d8288287fac/contracts/token/ERC20/ERC20.sol\":8604:8610  amount */\n      dup4\n        /* \"https://github.com/OpenZeppelin/openzeppelin-contracts/blob/52eeebecda140ebaf4ec8752ed119d8288287fac/contracts/token/ERC20/ERC20.sol\":8562:8582  _beforeTokenTransfer */\n      tag_157\n        /* \"https://github.com/OpenZeppelin/openzeppelin-contracts/blob/52eeebecda140ebaf4ec8752ed119d8288287fac/contracts/token/ERC20/ERC20.sol\":8562:8611  _beforeTokenTransfer(address(0), account, amount) */\n      jump\t// in\n    tag_185:\n        /* \"https://github.com/OpenZeppelin/openzeppelin-contracts/blob/52eeebecda140ebaf4ec8752ed119d8288287fac/contracts/token/ERC20/ERC20.sol\":8638:8644  amount */\n      dup1\n        /* \"https://github.com/OpenZeppelin/openzeppelin-contracts/blob/52eeebecda140ebaf4ec8752ed119d8288287fac/contracts/token/ERC20/ERC20.sol\":8622:8634  _totalSupply */\n      0x02\n      0x00\n        /* \"https://github.com/OpenZeppelin/openzeppelin-contracts/blob/52eeebecda140ebaf4ec8752ed119d8288287fac/contracts/token/ERC20/ERC20.sol\":8622:8644  _totalSupply += amount */\n      dup3\n      dup3\n      sload\n      tag_186\n      swap2\n      swap1\n      tag_123\n      jump\t// in\n    tag_186:\n      swap3\n      pop\n      pop\n      dup2\n      swap1\n      sstore\n      pop\n        /* \"https://github.com/OpenZeppelin/openzeppelin-contracts/blob/52eeebecda140ebaf4ec8752ed119d8288287fac/contracts/token/ERC20/ERC20.sol\":8676:8682  amount */\n      dup1\n        /* \"https://github.com/OpenZeppelin/openzeppelin-contracts/blob/52eeebecda140ebaf4ec8752ed119d8288287fac/contracts/token/ERC20/ERC20.sol\":8654:8663  _balances */\n      0x00\n        /* \"https://github.com/OpenZeppelin/openzeppelin-contracts/blob/52eeebecda140ebaf4ec8752ed119d8288287fac/contracts/token/ERC20/ERC20.sol\":8654:8672  _balances[account] */\n      dup1\n        /* \"https://github.com/OpenZeppelin/openzeppelin-contracts/blob/52eeebecda140ebaf4ec8752ed119d8288287fac/contracts/token/ERC20/ERC20.sol\":8664:8671  account */\n      dup5\n        /* \"https://github.com/OpenZeppelin/openzeppelin-contracts/blob/52eeebecda140ebaf4ec8752ed119d8288287fac/contracts/token/ERC20/ERC20.sol\":8654:8672  _balances[account] */\n      0xffffffffffffffffffffffffffffffffffffffff\n      and\n      0xffffffffffffffffffffffffffffffffffffffff\n      and\n      dup2\n      mstore\n      0x20\n      add\n      swap1\n      dup2\n      mstore\n      0x20\n      add\n      0x00\n      keccak256\n      0x00\n        /* \"https://github.com/OpenZeppelin/openzeppelin-contracts/blob/52eeebecda140ebaf4ec8752ed119d8288287fac/contracts/token/ERC20/ERC20.sol\":8654:8682  _balances[account] += amount */\n      dup3\n      dup3\n      sload\n      tag_187\n      swap2\n      swap1\n      tag_123\n      jump\t// in\n    tag_187:\n      swap3\n      pop\n      pop\n      dup2\n      swap1\n      sstore\n      pop\n        /* \"https://github.com/OpenZeppelin/openzeppelin-contracts/blob/52eeebecda140ebaf4ec8752ed119d8288287fac/contracts/token/ERC20/ERC20.sol\":8718:8725  account */\n      dup2\n        /* \"https://github.com/OpenZeppelin/openzeppelin-contracts/blob/52eeebecda140ebaf4ec8752ed119d8288287fac/contracts/token/ERC20/ERC20.sol\":8697:8734  Transfer(address(0), account, amount) */\n      0xffffffffffffffffffffffffffffffffffffffff\n      and\n        /* \"https://github.com/OpenZeppelin/openzeppelin-contracts/blob/52eeebecda140ebaf4ec8752ed119d8288287fac/contracts/token/ERC20/ERC20.sol\":8714:8715  0 */\n      0x00\n        /* \"https://github.com/OpenZeppelin/openzeppelin-contracts/blob/52eeebecda140ebaf4ec8752ed119d8288287fac/contracts/token/ERC20/ERC20.sol\":8697:8734  Transfer(address(0), account, amount) */\n      0xffffffffffffffffffffffffffffffffffffffff\n      and\n      0xddf252ad1be2c89b69c2b068fc378daa952ba7f163c4a11628f55a4df523b3ef\n        /* \"https://github.com/OpenZeppelin/openzeppelin-contracts/blob/52eeebecda140ebaf4ec8752ed119d8288287fac/contracts/token/ERC20/ERC20.sol\":8727:8733  amount */\n      dup4\n        /* \"https://github.com/OpenZeppelin/openzeppelin-contracts/blob/52eeebecda140ebaf4ec8752ed119d8288287fac/contracts/token/ERC20/ERC20.sol\":8697:8734  Transfer(address(0), account, amount) */\n      mload(0x40)\n      tag_188\n      swap2\n      swap1\n      tag_42\n      jump\t// in\n    tag_188:\n      mload(0x40)\n      dup1\n      swap2\n      sub\n      swap1\n      log3\n        /* \"https://github.com/OpenZeppelin/openzeppelin-contracts/blob/52eeebecda140ebaf4ec8752ed119d8288287fac/contracts/token/ERC20/ERC20.sol\":8745:8793  _afterTokenTransfer(address(0), account, amount) */\n      tag_189\n        /* \"https://github.com/OpenZeppelin/openzeppelin-contracts/blob/52eeebecda140ebaf4ec8752ed119d8288287fac/contracts/token/ERC20/ERC20.sol\":8773:8774  0 */\n      0x00\n        /* \"https://github.com/OpenZeppelin/openzeppelin-contracts/blob/52eeebecda140ebaf4ec8752ed119d8288287fac/contracts/token/ERC20/ERC20.sol\":8777:8784  account */\n      dup4\n        /* \"https://github.com/OpenZeppelin/openzeppelin-contracts/blob/52eeebecda140ebaf4ec8752ed119d8288287fac/contracts/token/ERC20/ERC20.sol\":8786:8792  amount */\n      dup4\n        /* \"https://github.com/OpenZeppelin/openzeppelin-contracts/blob/52eeebecda140ebaf4ec8752ed119d8288287fac/contracts/token/ERC20/ERC20.sol\":8745:8764  _afterTokenTransfer */\n      tag_164\n        /* \"https://github.com/OpenZeppelin/openzeppelin-contracts/blob/52eeebecda140ebaf4ec8752ed119d8288287fac/contracts/token/ERC20/ERC20.sol\":8745:8793  _afterTokenTransfer(address(0), account, amount) */\n      jump\t// in\n    tag_189:\n        /* \"https://github.com/OpenZeppelin/openzeppelin-contracts/blob/52eeebecda140ebaf4ec8752ed119d8288287fac/contracts/token/ERC20/ERC20.sol\":8411:8800  function _mint(address account, uint256 amount) internal virtual {... */\n      pop\n      pop\n      jump\t// out\n        /* \"https://github.com/OpenZeppelin/openzeppelin-contracts/blob/52eeebecda140ebaf4ec8752ed119d8288287fac/contracts/token/ERC20/ERC20.sol\":11795:11916  function _beforeTokenTransfer(... */\n    tag_157:\n      pop\n      pop\n      pop\n      jump\t// out\n        /* \"https://github.com/OpenZeppelin/openzeppelin-contracts/blob/52eeebecda140ebaf4ec8752ed119d8288287fac/contracts/token/ERC20/ERC20.sol\":12504:12624  function _afterTokenTransfer(... */\n    tag_164:\n      pop\n      pop\n      pop\n      jump\t// out\n        /* \"#utility.yul\":7:146   */\n    tag_193:\n        /* \"#utility.yul\":53:58   */\n      0x00\n        /* \"#utility.yul\":91:97   */\n      dup2\n        /* \"#utility.yul\":78:98   */\n      calldataload\n        /* \"#utility.yul\":69:98   */\n      swap1\n      pop\n        /* \"#utility.yul\":107:140   */\n      tag_195\n        /* \"#utility.yul\":134:139   */\n      dup2\n        /* \"#utility.yul\":107:140   */\n      tag_196\n      jump\t// in\n    tag_195:\n        /* \"#utility.yul\":7:146   */\n      swap3\n      swap2\n      pop\n      pop\n      jump\t// out\n        /* \"#utility.yul\":169:737   */\n    tag_197:\n        /* \"#utility.yul\":242:250   */\n      0x00\n        /* \"#utility.yul\":252:258   */\n      dup1\n        /* \"#utility.yul\":302:305   */\n      dup4\n        /* \"#utility.yul\":295:299   */\n      0x1f\n        /* \"#utility.yul\":287:293   */\n      dup5\n        /* \"#utility.yul\":283:300   */\n      add\n        /* \"#utility.yul\":279:306   */\n      slt\n        /* \"#utility.yul\":269:391   */\n      tag_199\n      jumpi\n        /* \"#utility.yul\":310:389   */\n      tag_200\n      tag_201\n      jump\t// in\n    tag_200:\n        /* \"#utility.yul\":269:391   */\n    tag_199:\n        /* \"#utility.yul\":423:429   */\n      dup3\n        /* \"#utility.yul\":410:430   */\n      calldataload\n        /* \"#utility.yul\":400:430   */\n      swap1\n      pop\n        /* \"#utility.yul\":453:471   */\n      0xffffffffffffffff\n        /* \"#utility.yul\":445:451   */\n      dup2\n        /* \"#utility.yul\":442:472   */\n      gt\n        /* \"#utility.yul\":439:556   */\n      iszero\n      tag_202\n      jumpi\n        /* \"#utility.yul\":475:554   */\n      tag_203\n      tag_204\n      jump\t// in\n    tag_203:\n        /* \"#utility.yul\":439:556   */\n    tag_202:\n        /* \"#utility.yul\":589:593   */\n      0x20\n        /* \"#utility.yul\":581:587   */\n      dup4\n        /* \"#utility.yul\":577:594   */\n      add\n        /* \"#utility.yul\":565:594   */\n      swap2\n      pop\n        /* \"#utility.yul\":643:646   */\n      dup4\n        /* \"#utility.yul\":635:639   */\n      0x20\n        /* \"#utility.yul\":627:633   */\n      dup3\n        /* \"#utility.yul\":623:640   */\n      mul\n        /* \"#utility.yul\":613:621   */\n      dup4\n        /* \"#utility.yul\":609:641   */\n      add\n        /* \"#utility.yul\":606:647   */\n      gt\n        /* \"#utility.yul\":603:731   */\n      iszero\n      tag_205\n      jumpi\n        /* \"#utility.yul\":650:729   */\n      tag_206\n      tag_207\n      jump\t// in\n    tag_206:\n        /* \"#utility.yul\":603:731   */\n    tag_205:\n        /* \"#utility.yul\":169:737   */\n      swap3\n      pop\n      swap3\n      swap1\n      pop\n      jump\t// out\n        /* \"#utility.yul\":743:882   */\n    tag_208:\n        /* \"#utility.yul\":789:794   */\n      0x00\n        /* \"#utility.yul\":827:833   */\n      dup2\n        /* \"#utility.yul\":814:834   */\n      calldataload\n        /* \"#utility.yul\":805:834   */\n      swap1\n      pop\n        /* \"#utility.yul\":843:876   */\n      tag_210\n        /* \"#utility.yul\":870:875   */\n      dup2\n        /* \"#utility.yul\":843:876   */\n      tag_211\n      jump\t// in\n    tag_210:\n        /* \"#utility.yul\":743:882   */\n      swap3\n      swap2\n      pop\n      pop\n      jump\t// out\n        /* \"#utility.yul\":888:1217   */\n    tag_50:\n        /* \"#utility.yul\":947:953   */\n      0x00\n        /* \"#utility.yul\":996:998   */\n      0x20\n        /* \"#utility.yul\":984:993   */\n      dup3\n        /* \"#utility.yul\":975:982   */\n      dup5\n        /* \"#utility.yul\":971:994   */\n      sub\n        /* \"#utility.yul\":967:999   */\n      slt\n        /* \"#utility.yul\":964:1083   */\n      iszero\n      tag_213\n      jumpi\n        /* \"#utility.yul\":1002:1081   */\n      tag_214\n      tag_215\n      jump\t// in\n    tag_214:\n        /* \"#utility.yul\":964:1083   */\n    tag_213:\n        /* \"#utility.yul\":1122:1123   */\n      0x00\n        /* \"#utility.yul\":1147:1200   */\n      tag_216\n        /* \"#utility.yul\":1192:1199   */\n      dup5\n        /* \"#utility.yul\":1183:1189   */\n      dup3\n        /* \"#utility.yul\":1172:1181   */\n      dup6\n        /* \"#utility.yul\":1168:1190   */\n      add\n        /* \"#utility.yul\":1147:1200   */\n      tag_193\n      jump\t// in\n    tag_216:\n        /* \"#utility.yul\":1137:1200   */\n      swap2\n      pop\n        /* \"#utility.yul\":1093:1210   */\n      pop\n        /* \"#utility.yul\":888:1217   */\n      swap3\n      swap2\n      pop\n      pop\n      jump\t// out\n        /* \"#utility.yul\":1223:1697   */\n    tag_81:\n        /* \"#utility.yul\":1291:1297   */\n      0x00\n        /* \"#utility.yul\":1299:1305   */\n      dup1\n        /* \"#utility.yul\":1348:1350   */\n      0x40\n        /* \"#utility.yul\":1336:1345   */\n      dup4\n        /* \"#utility.yul\":1327:1334   */\n      dup6\n        /* \"#utility.yul\":1323:1346   */\n      sub\n        /* \"#utility.yul\":1319:1351   */\n      slt\n        /* \"#utility.yul\":1316:1435   */\n      iszero\n      tag_218\n      jumpi\n        /* \"#utility.yul\":1354:1433   */\n      tag_219\n      tag_215\n      jump\t// in\n    tag_219:\n        /* \"#utility.yul\":1316:1435   */\n    tag_218:\n        /* \"#utility.yul\":1474:1475   */\n      0x00\n        /* \"#utility.yul\":1499:1552   */\n      tag_220\n        /* \"#utility.yul\":1544:1551   */\n      dup6\n        /* \"#utility.yul\":1535:1541   */\n      dup3\n        /* \"#utility.yul\":1524:1533   */\n      dup7\n        /* \"#utility.yul\":1520:1542   */\n      add\n        /* \"#utility.yul\":1499:1552   */\n      tag_193\n      jump\t// in\n    tag_220:\n        /* \"#utility.yul\":1489:1552   */\n      swap3\n      pop\n        /* \"#utility.yul\":1445:1562   */\n      pop\n        /* \"#utility.yul\":1601:1603   */\n      0x20\n        /* \"#utility.yul\":1627:1680   */\n      tag_221\n        /* \"#utility.yul\":1672:1679   */\n      dup6\n        /* \"#utility.yul\":1663:1669   */\n      dup3\n        /* \"#utility.yul\":1652:1661   */\n      dup7\n        /* \"#utility.yul\":1648:1670   */\n      add\n        /* \"#utility.yul\":1627:1680   */\n      tag_193\n      jump\t// in\n    tag_221:\n        /* \"#utility.yul\":1617:1680   */\n      swap2\n      pop\n        /* \"#utility.yul\":1572:1690   */\n      pop\n        /* \"#utility.yul\":1223:1697   */\n      swap3\n      pop\n      swap3\n      swap1\n      pop\n      jump\t// out\n        /* \"#utility.yul\":1703:2322   */\n    tag_45:\n        /* \"#utility.yul\":1780:1786   */\n      0x00\n        /* \"#utility.yul\":1788:1794   */\n      dup1\n        /* \"#utility.yul\":1796:1802   */\n      0x00\n        /* \"#utility.yul\":1845:1847   */\n      0x60\n        /* \"#utility.yul\":1833:1842   */\n      dup5\n        /* \"#utility.yul\":1824:1831   */\n      dup7\n        /* \"#utility.yul\":1820:1843   */\n      sub\n        /* \"#utility.yul\":1816:1848   */\n      slt\n        /* \"#utility.yul\":1813:1932   */\n      iszero\n      tag_223\n      jumpi\n        /* \"#utility.yul\":1851:1930   */\n      tag_224\n      tag_215\n      jump\t// in\n    tag_224:\n        /* \"#utility.yul\":1813:1932   */\n    tag_223:\n        /* \"#utility.yul\":1971:1972   */\n      0x00\n        /* \"#utility.yul\":1996:2049   */\n      tag_225\n        /* \"#utility.yul\":2041:2048   */\n      dup7\n        /* \"#utility.yul\":2032:2038   */\n      dup3\n        /* \"#utility.yul\":2021:2030   */\n      dup8\n        /* \"#utility.yul\":2017:2039   */\n      add\n        /* \"#utility.yul\":1996:2049   */\n      tag_193\n      jump\t// in\n    tag_225:\n        /* \"#utility.yul\":1986:2049   */\n      swap4\n      pop\n        /* \"#utility.yul\":1942:2059   */\n      pop\n        /* \"#utility.yul\":2098:2100   */\n      0x20\n        /* \"#utility.yul\":2124:2177   */\n      tag_226\n        /* \"#utility.yul\":2169:2176   */\n      dup7\n        /* \"#utility.yul\":2160:2166   */\n      dup3\n        /* \"#utility.yul\":2149:2158   */\n      dup8\n        /* \"#utility.yul\":2145:2167   */\n      add\n        /* \"#utility.yul\":2124:2177   */\n      tag_193\n      jump\t// in\n    tag_226:\n        /* \"#utility.yul\":2114:2177   */\n      swap3\n      pop\n        /* \"#utility.yul\":2069:2187   */\n      pop\n        /* \"#utility.yul\":2226:2228   */\n      0x40\n        /* \"#utility.yul\":2252:2305   */\n      tag_227\n        /* \"#utility.yul\":2297:2304   */\n      dup7\n        /* \"#utility.yul\":2288:2294   */\n      dup3\n        /* \"#utility.yul\":2277:2286   */\n      dup8\n        /* \"#utility.yul\":2273:2295   */\n      add\n        /* \"#utility.yul\":2252:2305   */\n      tag_208\n      jump\t// in\n    tag_227:\n        /* \"#utility.yul\":2242:2305   */\n      swap2\n      pop\n        /* \"#utility.yul\":2197:2315   */\n      pop\n        /* \"#utility.yul\":1703:2322   */\n      swap3\n      pop\n      swap3\n      pop\n      swap3\n      jump\t// out\n        /* \"#utility.yul\":2328:2802   */\n    tag_35:\n        /* \"#utility.yul\":2396:2402   */\n      0x00\n        /* \"#utility.yul\":2404:2410   */\n      dup1\n        /* \"#utility.yul\":2453:2455   */\n      0x40\n        /* \"#utility.yul\":2441:2450   */\n      dup4\n        /* \"#utility.yul\":2432:2439   */\n      dup6\n        /* \"#utility.yul\":2428:2451   */\n      sub\n        /* \"#utility.yul\":2424:2456   */\n      slt\n        /* \"#utility.yul\":2421:2540   */\n      iszero\n      tag_229\n      jumpi\n        /* \"#utility.yul\":2459:2538   */\n      tag_230\n      tag_215\n      jump\t// in\n    tag_230:\n        /* \"#utility.yul\":2421:2540   */\n    tag_229:\n        /* \"#utility.yul\":2579:2580   */\n      0x00\n        /* \"#utility.yul\":2604:2657   */\n      tag_231\n        /* \"#utility.yul\":2649:2656   */\n      dup6\n        /* \"#utility.yul\":2640:2646   */\n      dup3\n        /* \"#utility.yul\":2629:2638   */\n      dup7\n        /* \"#utility.yul\":2625:2647   */\n      add\n        /* \"#utility.yul\":2604:2657   */\n      tag_193\n      jump\t// in\n    tag_231:\n        /* \"#utility.yul\":2594:2657   */\n      swap3\n      pop\n        /* \"#utility.yul\":2550:2667   */\n      pop\n        /* \"#utility.yul\":2706:2708   */\n      0x20\n        /* \"#utility.yul\":2732:2785   */\n      tag_232\n        /* \"#utility.yul\":2777:2784   */\n      dup6\n        /* \"#utility.yul\":2768:2774   */\n      dup3\n        /* \"#utility.yul\":2757:2766   */\n      dup7\n        /* \"#utility.yul\":2753:2775   */\n      add\n        /* \"#utility.yul\":2732:2785   */\n      tag_208\n      jump\t// in\n    tag_232:\n        /* \"#utility.yul\":2722:2785   */\n      swap2\n      pop\n        /* \"#utility.yul\":2677:2795   */\n      pop\n        /* \"#utility.yul\":2328:2802   */\n      swap3\n      pop\n      swap3\n      swap1\n      pop\n      jump\t// out\n        /* \"#utility.yul\":2808:3512   */\n    tag_23:\n        /* \"#utility.yul\":2903:2909   */\n      0x00\n        /* \"#utility.yul\":2911:2917   */\n      dup1\n        /* \"#utility.yul\":2919:2925   */\n      0x00\n        /* \"#utility.yul\":2968:2970   */\n      0x40\n        /* \"#utility.yul\":2956:2965   */\n      dup5\n        /* \"#utility.yul\":2947:2954   */\n      dup7\n        /* \"#utility.yul\":2943:2966   */\n      sub\n        /* \"#utility.yul\":2939:2971   */\n      slt\n        /* \"#utility.yul\":2936:3055   */\n      iszero\n      tag_234\n      jumpi\n        /* \"#utility.yul\":2974:3053   */\n      tag_235\n      tag_215\n      jump\t// in\n    tag_235:\n        /* \"#utility.yul\":2936:3055   */\n    tag_234:\n        /* \"#utility.yul\":3122:3123   */\n      0x00\n        /* \"#utility.yul\":3111:3120   */\n      dup5\n        /* \"#utility.yul\":3107:3124   */\n      add\n        /* \"#utility.yul\":3094:3125   */\n      calldataload\n        /* \"#utility.yul\":3152:3170   */\n      0xffffffffffffffff\n        /* \"#utility.yul\":3144:3150   */\n      dup2\n        /* \"#utility.yul\":3141:3171   */\n      gt\n        /* \"#utility.yul\":3138:3255   */\n      iszero\n      tag_236\n      jumpi\n        /* \"#utility.yul\":3174:3253   */\n      tag_237\n      tag_238\n      jump\t// in\n    tag_237:\n        /* \"#utility.yul\":3138:3255   */\n    tag_236:\n        /* \"#utility.yul\":3287:3367   */\n      tag_239\n        /* \"#utility.yul\":3359:3366   */\n      dup7\n        /* \"#utility.yul\":3350:3356   */\n      dup3\n        /* \"#utility.yul\":3339:3348   */\n      dup8\n        /* \"#utility.yul\":3335:3357   */\n      add\n        /* \"#utility.yul\":3287:3367   */\n      tag_197\n      jump\t// in\n    tag_239:\n        /* \"#utility.yul\":3269:3367   */\n      swap4\n      pop\n      swap4\n      pop\n        /* \"#utility.yul\":3065:3377   */\n      pop\n        /* \"#utility.yul\":3416:3418   */\n      0x20\n        /* \"#utility.yul\":3442:3495   */\n      tag_240\n        /* \"#utility.yul\":3487:3494   */\n      dup7\n        /* \"#utility.yul\":3478:3484   */\n      dup3\n        /* \"#utility.yul\":3467:3476   */\n      dup8\n        /* \"#utility.yul\":3463:3485   */\n      add\n        /* \"#utility.yul\":3442:3495   */\n      tag_208\n      jump\t// in\n    tag_240:\n        /* \"#utility.yul\":3432:3495   */\n      swap2\n      pop\n        /* \"#utility.yul\":3387:3505   */\n      pop\n        /* \"#utility.yul\":2808:3512   */\n      swap3\n      pop\n      swap3\n      pop\n      swap3\n      jump\t// out\n        /* \"#utility.yul\":3518:3697   */\n    tag_241:\n        /* \"#utility.yul\":3587:3597   */\n      0x00\n        /* \"#utility.yul\":3608:3654   */\n      tag_243\n        /* \"#utility.yul\":3650:3653   */\n      dup4\n        /* \"#utility.yul\":3642:3648   */\n      dup4\n        /* \"#utility.yul\":3608:3654   */\n      tag_244\n      jump\t// in\n    tag_243:\n        /* \"#utility.yul\":3686:3690   */\n      0x20\n        /* \"#utility.yul\":3681:3684   */\n      dup4\n        /* \"#utility.yul\":3677:3691   */\n      add\n        /* \"#utility.yul\":3663:3691   */\n      swap1\n      pop\n        /* \"#utility.yul\":3518:3697   */\n      swap3\n      swap2\n      pop\n      pop\n      jump\t// out\n        /* \"#utility.yul\":3703:3811   */\n    tag_244:\n        /* \"#utility.yul\":3780:3804   */\n      tag_246\n        /* \"#utility.yul\":3798:3803   */\n      dup2\n        /* \"#utility.yul\":3780:3804   */\n      tag_247\n      jump\t// in\n    tag_246:\n        /* \"#utility.yul\":3775:3778   */\n      dup3\n        /* \"#utility.yul\":3768:3805   */\n      mstore\n        /* \"#utility.yul\":3703:3811   */\n      pop\n      pop\n      jump\t// out\n        /* \"#utility.yul\":3817:3935   */\n    tag_248:\n        /* \"#utility.yul\":3904:3928   */\n      tag_250\n        /* \"#utility.yul\":3922:3927   */\n      dup2\n        /* \"#utility.yul\":3904:3928   */\n      tag_247\n      jump\t// in\n    tag_250:\n        /* \"#utility.yul\":3899:3902   */\n      dup3\n        /* \"#utility.yul\":3892:3929   */\n      mstore\n        /* \"#utility.yul\":3817:3935   */\n      pop\n      pop\n      jump\t// out\n        /* \"#utility.yul\":3971:4670   */\n    tag_251:\n        /* \"#utility.yul\":4100:4103   */\n      0x00\n        /* \"#utility.yul\":4123:4209   */\n      tag_253\n        /* \"#utility.yul\":4202:4208   */\n      dup4\n        /* \"#utility.yul\":4197:4200   */\n      dup6\n        /* \"#utility.yul\":4123:4209   */\n      tag_254\n      jump\t// in\n    tag_253:\n        /* \"#utility.yul\":4116:4209   */\n      swap4\n      pop\n        /* \"#utility.yul\":4233:4291   */\n      tag_255\n        /* \"#utility.yul\":4285:4290   */\n      dup3\n        /* \"#utility.yul\":4233:4291   */\n      tag_256\n      jump\t// in\n    tag_255:\n        /* \"#utility.yul\":4314:4321   */\n      dup1\n        /* \"#utility.yul\":4345:4346   */\n      0x00\n        /* \"#utility.yul\":4330:4645   */\n    tag_257:\n        /* \"#utility.yul\":4355:4361   */\n      dup6\n        /* \"#utility.yul\":4352:4353   */\n      dup2\n        /* \"#utility.yul\":4349:4362   */\n      lt\n        /* \"#utility.yul\":4330:4645   */\n      iszero\n      tag_259\n      jumpi\n        /* \"#utility.yul\":4425:4467   */\n      tag_260\n        /* \"#utility.yul\":4460:4466   */\n      dup3\n        /* \"#utility.yul\":4451:4458   */\n      dup5\n        /* \"#utility.yul\":4425:4467   */\n      tag_261\n      jump\t// in\n    tag_260:\n        /* \"#utility.yul\":4487:4550   */\n      tag_262\n        /* \"#utility.yul\":4546:4549   */\n      dup9\n        /* \"#utility.yul\":4531:4544   */\n      dup3\n        /* \"#utility.yul\":4487:4550   */\n      tag_241\n      jump\t// in\n    tag_262:\n        /* \"#utility.yul\":4480:4550   */\n      swap8\n      pop\n        /* \"#utility.yul\":4573:4635   */\n      tag_263\n        /* \"#utility.yul\":4628:4634   */\n      dup4\n        /* \"#utility.yul\":4573:4635   */\n      tag_264\n      jump\t// in\n    tag_263:\n        /* \"#utility.yul\":4563:4635   */\n      swap3\n      pop\n        /* \"#utility.yul\":4390:4645   */\n      pop\n        /* \"#utility.yul\":4377:4378   */\n      0x01\n        /* \"#utility.yul\":4374:4375   */\n      dup2\n        /* \"#utility.yul\":4370:4379   */\n      add\n        /* \"#utility.yul\":4365:4379   */\n      swap1\n      pop\n        /* \"#utility.yul\":4330:4645   */\n      jump(tag_257)\n    tag_259:\n        /* \"#utility.yul\":4334:4348   */\n      pop\n        /* \"#utility.yul\":4661:4664   */\n      dup6\n        /* \"#utility.yul\":4654:4664   */\n      swap3\n      pop\n        /* \"#utility.yul\":4105:4670   */\n      pop\n      pop\n        /* \"#utility.yul\":3971:4670   */\n      swap4\n      swap3\n      pop\n      pop\n      pop\n      jump\t// out\n        /* \"#utility.yul\":4676:4785   */\n    tag_265:\n        /* \"#utility.yul\":4757:4778   */\n      tag_267\n        /* \"#utility.yul\":4772:4777   */\n      dup2\n        /* \"#utility.yul\":4757:4778   */\n      tag_268\n      jump\t// in\n    tag_267:\n        /* \"#utility.yul\":4752:4755   */\n      dup3\n        /* \"#utility.yul\":4745:4779   */\n      mstore\n        /* \"#utility.yul\":4676:4785   */\n      pop\n      pop\n      jump\t// out\n        /* \"#utility.yul\":4791:5155   */\n    tag_269:\n        /* \"#utility.yul\":4879:4882   */\n      0x00\n        /* \"#utility.yul\":4907:4946   */\n      tag_271\n        /* \"#utility.yul\":4940:4945   */\n      dup3\n        /* \"#utility.yul\":4907:4946   */\n      tag_272\n      jump\t// in\n    tag_271:\n        /* \"#utility.yul\":4962:5033   */\n      tag_273\n        /* \"#utility.yul\":5026:5032   */\n      dup2\n        /* \"#utility.yul\":5021:5024   */\n      dup6\n        /* \"#utility.yul\":4962:5033   */\n      tag_274\n      jump\t// in\n    tag_273:\n        /* \"#utility.yul\":4955:5033   */\n      swap4\n      pop\n        /* \"#utility.yul\":5042:5094   */\n      tag_275\n        /* \"#utility.yul\":5087:5093   */\n      dup2\n        /* \"#utility.yul\":5082:5085   */\n      dup6\n        /* \"#utility.yul\":5075:5079   */\n      0x20\n        /* \"#utility.yul\":5068:5073   */\n      dup7\n        /* \"#utility.yul\":5064:5080   */\n      add\n        /* \"#utility.yul\":5042:5094   */\n      tag_276\n      jump\t// in\n    tag_275:\n        /* \"#utility.yul\":5119:5148   */\n      tag_277\n        /* \"#utility.yul\":5141:5147   */\n      dup2\n        /* \"#utility.yul\":5119:5148   */\n      tag_278\n      jump\t// in\n    tag_277:\n        /* \"#utility.yul\":5114:5117   */\n      dup5\n        /* \"#utility.yul\":5110:5149   */\n      add\n        /* \"#utility.yul\":5103:5149   */\n      swap2\n      pop\n        /* \"#utility.yul\":4883:5155   */\n      pop\n        /* \"#utility.yul\":4791:5155   */\n      swap3\n      swap2\n      pop\n      pop\n      jump\t// out\n        /* \"#utility.yul\":5161:5527   */\n    tag_279:\n        /* \"#utility.yul\":5303:5306   */\n      0x00\n        /* \"#utility.yul\":5324:5391   */\n      tag_281\n        /* \"#utility.yul\":5388:5390   */\n      0x23\n        /* \"#utility.yul\":5383:5386   */\n      dup4\n        /* \"#utility.yul\":5324:5391   */\n      tag_274\n      jump\t// in\n    tag_281:\n        /* \"#utility.yul\":5317:5391   */\n      swap2\n      pop\n        /* \"#utility.yul\":5400:5493   */\n      tag_282\n        /* \"#utility.yul\":5489:5492   */\n      dup3\n        /* \"#utility.yul\":5400:5493   */\n      tag_283\n      jump\t// in\n    tag_282:\n        /* \"#utility.yul\":5518:5520   */\n      0x40\n        /* \"#utility.yul\":5513:5516   */\n      dup3\n        /* \"#utility.yul\":5509:5521   */\n      add\n        /* \"#utility.yul\":5502:5521   */\n      swap1\n      pop\n        /* \"#utility.yul\":5161:5527   */\n      swap2\n      swap1\n      pop\n      jump\t// out\n        /* \"#utility.yul\":5533:5899   */\n    tag_284:\n        /* \"#utility.yul\":5675:5678   */\n      0x00\n        /* \"#utility.yul\":5696:5763   */\n      tag_286\n        /* \"#utility.yul\":5760:5762   */\n      0x22\n        /* \"#utility.yul\":5755:5758   */\n      dup4\n        /* \"#utility.yul\":5696:5763   */\n      tag_274\n      jump\t// in\n    tag_286:\n        /* \"#utility.yul\":5689:5763   */\n      swap2\n      pop\n        /* \"#utility.yul\":5772:5865   */\n      tag_287\n        /* \"#utility.yul\":5861:5864   */\n      dup3\n        /* \"#utility.yul\":5772:5865   */\n      tag_288\n      jump\t// in\n    tag_287:\n        /* \"#utility.yul\":5890:5892   */\n      0x40\n        /* \"#utility.yul\":5885:5888   */\n      dup3\n        /* \"#utility.yul\":5881:5893   */\n      add\n        /* \"#utility.yul\":5874:5893   */\n      swap1\n      pop\n        /* \"#utility.yul\":5533:5899   */\n      swap2\n      swap1\n      pop\n      jump\t// out\n        /* \"#utility.yul\":5905:6271   */\n    tag_289:\n        /* \"#utility.yul\":6047:6050   */\n      0x00\n        /* \"#utility.yul\":6068:6135   */\n      tag_291\n        /* \"#utility.yul\":6132:6134   */\n      0x1d\n        /* \"#utility.yul\":6127:6130   */\n      dup4\n        /* \"#utility.yul\":6068:6135   */\n      tag_274\n      jump\t// in\n    tag_291:\n        /* \"#utility.yul\":6061:6135   */\n      swap2\n      pop\n        /* \"#utility.yul\":6144:6237   */\n      tag_292\n        /* \"#utility.yul\":6233:6236   */\n      dup3\n        /* \"#utility.yul\":6144:6237   */\n      tag_293\n      jump\t// in\n    tag_292:\n        /* \"#utility.yul\":6262:6264   */\n      0x20\n        /* \"#utility.yul\":6257:6260   */\n      dup3\n        /* \"#utility.yul\":6253:6265   */\n      add\n        /* \"#utility.yul\":6246:6265   */\n      swap1\n      pop\n        /* \"#utility.yul\":5905:6271   */\n      swap2\n      swap1\n      pop\n      jump\t// out\n        /* \"#utility.yul\":6277:6643   */\n    tag_294:\n        /* \"#utility.yul\":6419:6422   */\n      0x00\n        /* \"#utility.yul\":6440:6507   */\n      tag_296\n        /* \"#utility.yul\":6504:6506   */\n      0x26\n        /* \"#utility.yul\":6499:6502   */\n      dup4\n        /* \"#utility.yul\":6440:6507   */\n      tag_274\n      jump\t// in\n    tag_296:\n        /* \"#utility.yul\":6433:6507   */\n      swap2\n      pop\n        /* \"#utility.yul\":6516:6609   */\n      tag_297\n        /* \"#utility.yul\":6605:6608   */\n      dup3\n        /* \"#utility.yul\":6516:6609   */\n      tag_298\n      jump\t// in\n    tag_297:\n        /* \"#utility.yul\":6634:6636   */\n      0x40\n        /* \"#utility.yul\":6629:6632   */\n      dup3\n        /* \"#utility.yul\":6625:6637   */\n      add\n        /* \"#utility.yul\":6618:6637   */\n      swap1\n      pop\n        /* \"#utility.yul\":6277:6643   */\n      swap2\n      swap1\n      pop\n      jump\t// out\n        /* \"#utility.yul\":6649:7015   */\n    tag_299:\n        /* \"#utility.yul\":6791:6794   */\n      0x00\n        /* \"#utility.yul\":6812:6879   */\n      tag_301\n        /* \"#utility.yul\":6876:6878   */\n      0x25\n        /* \"#utility.yul\":6871:6874   */\n      dup4\n        /* \"#utility.yul\":6812:6879   */\n      tag_274\n      jump\t// in\n    tag_301:\n        /* \"#utility.yul\":6805:6879   */\n      swap2\n      pop\n        /* \"#utility.yul\":6888:6981   */\n      tag_302\n        /* \"#utility.yul\":6977:6980   */\n      dup3\n        /* \"#utility.yul\":6888:6981   */\n      tag_303\n      jump\t// in\n    tag_302:\n        /* \"#utility.yul\":7006:7008   */\n      0x40\n        /* \"#utility.yul\":7001:7004   */\n      dup3\n        /* \"#utility.yul\":6997:7009   */\n      add\n        /* \"#utility.yul\":6990:7009   */\n      swap1\n      pop\n        /* \"#utility.yul\":6649:7015   */\n      swap2\n      swap1\n      pop\n      jump\t// out\n        /* \"#utility.yul\":7021:7387   */\n    tag_304:\n        /* \"#utility.yul\":7163:7166   */\n      0x00\n        /* \"#utility.yul\":7184:7251   */\n      tag_306\n        /* \"#utility.yul\":7248:7250   */\n      0x24\n        /* \"#utility.yul\":7243:7246   */\n      dup4\n        /* \"#utility.yul\":7184:7251   */\n      tag_274\n      jump\t// in\n    tag_306:\n        /* \"#utility.yul\":7177:7251   */\n      swap2\n      pop\n        /* \"#utility.yul\":7260:7353   */\n      tag_307\n        /* \"#utility.yul\":7349:7352   */\n      dup3\n        /* \"#utility.yul\":7260:7353   */\n      tag_308\n      jump\t// in\n    tag_307:\n        /* \"#utility.yul\":7378:7380   */\n      0x40\n        /* \"#utility.yul\":7373:7376   */\n      dup3\n        /* \"#utility.yul\":7369:7381   */\n      add\n        /* \"#utility.yul\":7362:7381   */\n      swap1\n      pop\n        /* \"#utility.yul\":7021:7387   */\n      swap2\n      swap1\n      pop\n      jump\t// out\n        /* \"#utility.yul\":7393:7759   */\n    tag_309:\n        /* \"#utility.yul\":7535:7538   */\n      0x00\n        /* \"#utility.yul\":7556:7623   */\n      tag_311\n        /* \"#utility.yul\":7620:7622   */\n      0x25\n        /* \"#utility.yul\":7615:7618   */\n      dup4\n        /* \"#utility.yul\":7556:7623   */\n      tag_274\n      jump\t// in\n    tag_311:\n        /* \"#utility.yul\":7549:7623   */\n      swap2\n      pop\n        /* \"#utility.yul\":7632:7725   */\n      tag_312\n        /* \"#utility.yul\":7721:7724   */\n      dup3\n        /* \"#utility.yul\":7632:7725   */\n      tag_313\n      jump\t// in\n    tag_312:\n        /* \"#utility.yul\":7750:7752   */\n      0x40\n        /* \"#utility.yul\":7745:7748   */\n      dup3\n        /* \"#utility.yul\":7741:7753   */\n      add\n        /* \"#utility.yul\":7734:7753   */\n      swap1\n      pop\n        /* \"#utility.yul\":7393:7759   */\n      swap2\n      swap1\n      pop\n      jump\t// out\n        /* \"#utility.yul\":7765:8131   */\n    tag_314:\n        /* \"#utility.yul\":7907:7910   */\n      0x00\n        /* \"#utility.yul\":7928:7995   */\n      tag_316\n        /* \"#utility.yul\":7992:7994   */\n      0x1f\n        /* \"#utility.yul\":7987:7990   */\n      dup4\n        /* \"#utility.yul\":7928:7995   */\n      tag_274\n      jump\t// in\n    tag_316:\n        /* \"#utility.yul\":7921:7995   */\n      swap2\n      pop\n        /* \"#utility.yul\":8004:8097   */\n      tag_317\n        /* \"#utility.yul\":8093:8096   */\n      dup3\n        /* \"#utility.yul\":8004:8097   */\n      tag_318\n      jump\t// in\n    tag_317:\n        /* \"#utility.yul\":8122:8124   */\n      0x20\n        /* \"#utility.yul\":8117:8120   */\n      dup3\n        /* \"#utility.yul\":8113:8125   */\n      add\n        /* \"#utility.yul\":8106:8125   */\n      swap1\n      pop\n        /* \"#utility.yul\":7765:8131   */\n      swap2\n      swap1\n      pop\n      jump\t// out\n        /* \"#utility.yul\":8137:8255   */\n    tag_319:\n        /* \"#utility.yul\":8224:8248   */\n      tag_321\n        /* \"#utility.yul\":8242:8247   */\n      dup2\n        /* \"#utility.yul\":8224:8248   */\n      tag_322\n      jump\t// in\n    tag_321:\n        /* \"#utility.yul\":8219:8222   */\n      dup3\n        /* \"#utility.yul\":8212:8249   */\n      mstore\n        /* \"#utility.yul\":8137:8255   */\n      pop\n      pop\n      jump\t// out\n        /* \"#utility.yul\":8261:8373   */\n    tag_323:\n        /* \"#utility.yul\":8344:8366   */\n      tag_325\n        /* \"#utility.yul\":8360:8365   */\n      dup2\n        /* \"#utility.yul\":8344:8366   */\n      tag_326\n      jump\t// in\n    tag_325:\n        /* \"#utility.yul\":8339:8342   */\n      dup3\n        /* \"#utility.yul\":8332:8367   */\n      mstore\n        /* \"#utility.yul\":8261:8373   */\n      pop\n      pop\n      jump\t// out\n        /* \"#utility.yul\":8379:8601   */\n    tag_32:\n        /* \"#utility.yul\":8472:8476   */\n      0x00\n        /* \"#utility.yul\":8510:8512   */\n      0x20\n        /* \"#utility.yul\":8499:8508   */\n      dup3\n        /* \"#utility.yul\":8495:8513   */\n      add\n        /* \"#utility.yul\":8487:8513   */\n      swap1\n      pop\n        /* \"#utility.yul\":8523:8594   */\n      tag_328\n        /* \"#utility.yul\":8591:8592   */\n      0x00\n        /* \"#utility.yul\":8580:8589   */\n      dup4\n        /* \"#utility.yul\":8576:8593   */\n      add\n        /* \"#utility.yul\":8567:8573   */\n      dup5\n        /* \"#utility.yul\":8523:8594   */\n      tag_248\n      jump\t// in\n    tag_328:\n        /* \"#utility.yul\":8379:8601   */\n      swap3\n      swap2\n      pop\n      pop\n      jump\t// out\n        /* \"#utility.yul\":8607:9220   */\n    tag_98:\n        /* \"#utility.yul\":8816:8820   */\n      0x00\n        /* \"#utility.yul\":8854:8856   */\n      0x60\n        /* \"#utility.yul\":8843:8852   */\n      dup3\n        /* \"#utility.yul\":8839:8857   */\n      add\n        /* \"#utility.yul\":8831:8857   */\n      swap1\n      pop\n        /* \"#utility.yul\":8867:8938   */\n      tag_330\n        /* \"#utility.yul\":8935:8936   */\n      0x00\n        /* \"#utility.yul\":8924:8933   */\n      dup4\n        /* \"#utility.yul\":8920:8937   */\n      add\n        /* \"#utility.yul\":8911:8917   */\n      dup8\n        /* \"#utility.yul\":8867:8938   */\n      tag_248\n      jump\t// in\n    tag_330:\n        /* \"#utility.yul\":8985:8994   */\n      dup2\n        /* \"#utility.yul\":8979:8983   */\n      dup2\n        /* \"#utility.yul\":8975:8995   */\n      sub\n        /* \"#utility.yul\":8970:8972   */\n      0x20\n        /* \"#utility.yul\":8959:8968   */\n      dup4\n        /* \"#utility.yul\":8955:8973   */\n      add\n        /* \"#utility.yul\":8948:8996   */\n      mstore\n        /* \"#utility.yul\":9013:9131   */\n      tag_331\n        /* \"#utility.yul\":9126:9130   */\n      dup2\n        /* \"#utility.yul\":9117:9123   */\n      dup6\n        /* \"#utility.yul\":9109:9115   */\n      dup8\n        /* \"#utility.yul\":9013:9131   */\n      tag_251\n      jump\t// in\n    tag_331:\n        /* \"#utility.yul\":9005:9131   */\n      swap1\n      pop\n        /* \"#utility.yul\":9141:9213   */\n      tag_332\n        /* \"#utility.yul\":9209:9211   */\n      0x40\n        /* \"#utility.yul\":9198:9207   */\n      dup4\n        /* \"#utility.yul\":9194:9212   */\n      add\n        /* \"#utility.yul\":9185:9191   */\n      dup5\n        /* \"#utility.yul\":9141:9213   */\n      tag_319\n      jump\t// in\n    tag_332:\n        /* \"#utility.yul\":8607:9220   */\n      swap6\n      swap5\n      pop\n      pop\n      pop\n      pop\n      pop\n      jump\t// out\n        /* \"#utility.yul\":9226:9436   */\n    tag_38:\n        /* \"#utility.yul\":9313:9317   */\n      0x00\n        /* \"#utility.yul\":9351:9353   */\n      0x20\n        /* \"#utility.yul\":9340:9349   */\n      dup3\n        /* \"#utility.yul\":9336:9354   */\n      add\n        /* \"#utility.yul\":9328:9354   */\n      swap1\n      pop\n        /* \"#utility.yul\":9364:9429   */\n      tag_334\n        /* \"#utility.yul\":9426:9427   */\n      0x00\n        /* \"#utility.yul\":9415:9424   */\n      dup4\n        /* \"#utility.yul\":9411:9428   */\n      add\n        /* \"#utility.yul\":9402:9408   */\n      dup5\n        /* \"#utility.yul\":9364:9429   */\n      tag_265\n      jump\t// in\n    tag_334:\n        /* \"#utility.yul\":9226:9436   */\n      swap3\n      swap2\n      pop\n      pop\n      jump\t// out\n        /* \"#utility.yul\":9442:9755   */\n    tag_28:\n        /* \"#utility.yul\":9555:9559   */\n      0x00\n        /* \"#utility.yul\":9593:9595   */\n      0x20\n        /* \"#utility.yul\":9582:9591   */\n      dup3\n        /* \"#utility.yul\":9578:9596   */\n      add\n        /* \"#utility.yul\":9570:9596   */\n      swap1\n      pop\n        /* \"#utility.yul\":9642:9651   */\n      dup2\n        /* \"#utility.yul\":9636:9640   */\n      dup2\n        /* \"#utility.yul\":9632:9652   */\n      sub\n        /* \"#utility.yul\":9628:9629   */\n      0x00\n        /* \"#utility.yul\":9617:9626   */\n      dup4\n        /* \"#utility.yul\":9613:9630   */\n      add\n        /* \"#utility.yul\":9606:9653   */\n      mstore\n        /* \"#utility.yul\":9670:9748   */\n      tag_336\n        /* \"#utility.yul\":9743:9747   */\n      dup2\n        /* \"#utility.yul\":9734:9740   */\n      dup5\n        /* \"#utility.yul\":9670:9748   */\n      tag_269\n      jump\t// in\n    tag_336:\n        /* \"#utility.yul\":9662:9748   */\n      swap1\n      pop\n        /* \"#utility.yul\":9442:9755   */\n      swap3\n      swap2\n      pop\n      pop\n      jump\t// out\n        /* \"#utility.yul\":9761:10180   */\n    tag_155:\n        /* \"#utility.yul\":9927:9931   */\n      0x00\n        /* \"#utility.yul\":9965:9967   */\n      0x20\n        /* \"#utility.yul\":9954:9963   */\n      dup3\n        /* \"#utility.yul\":9950:9968   */\n      add\n        /* \"#utility.yul\":9942:9968   */\n      swap1\n      pop\n        /* \"#utility.yul\":10014:10023   */\n      dup2\n        /* \"#utility.yul\":10008:10012   */\n      dup2\n        /* \"#utility.yul\":10004:10024   */\n      sub\n        /* \"#utility.yul\":10000:10001   */\n      0x00\n        /* \"#utility.yul\":9989:9998   */\n      dup4\n        /* \"#utility.yul\":9985:10002   */\n      add\n        /* \"#utility.yul\":9978:10025   */\n      mstore\n        /* \"#utility.yul\":10042:10173   */\n      tag_338\n        /* \"#utility.yul\":10168:10172   */\n      dup2\n        /* \"#utility.yul\":10042:10173   */\n      tag_279\n      jump\t// in\n    tag_338:\n        /* \"#utility.yul\":10034:10173   */\n      swap1\n      pop\n        /* \"#utility.yul\":9761:10180   */\n      swap2\n      swap1\n      pop\n      jump\t// out\n        /* \"#utility.yul\":10186:10605   */\n    tag_172:\n        /* \"#utility.yul\":10352:10356   */\n      0x00\n        /* \"#utility.yul\":10390:10392   */\n      0x20\n        /* \"#utility.yul\":10379:10388   */\n      dup3\n        /* \"#utility.yul\":10375:10393   */\n      add\n        /* \"#utility.yul\":10367:10393   */\n      swap1\n      pop\n        /* \"#utility.yul\":10439:10448   */\n      dup2\n        /* \"#utility.yul\":10433:10437   */\n      dup2\n        /* \"#utility.yul\":10429:10449   */\n      sub\n        /* \"#utility.yul\":10425:10426   */\n      0x00\n        /* \"#utility.yul\":10414:10423   */\n      dup4\n        /* \"#utility.yul\":10410:10427   */\n      add\n        /* \"#utility.yul\":10403:10450   */\n      mstore\n        /* \"#utility.yul\":10467:10598   */\n      tag_340\n        /* \"#utility.yul\":10593:10597   */\n      dup2\n        /* \"#utility.yul\":10467:10598   */\n      tag_284\n      jump\t// in\n    tag_340:\n        /* \"#utility.yul\":10459:10598   */\n      swap1\n      pop\n        /* \"#utility.yul\":10186:10605   */\n      swap2\n      swap1\n      pop\n      jump\t// out\n        /* \"#utility.yul\":10611:11030   */\n    tag_179:\n        /* \"#utility.yul\":10777:10781   */\n      0x00\n        /* \"#utility.yul\":10815:10817   */\n      0x20\n        /* \"#utility.yul\":10804:10813   */\n      dup3\n        /* \"#utility.yul\":10800:10818   */\n      add\n        /* \"#utility.yul\":10792:10818   */\n      swap1\n      pop\n        /* \"#utility.yul\":10864:10873   */\n      dup2\n        /* \"#utility.yul\":10858:10862   */\n      dup2\n        /* \"#utility.yul\":10854:10874   */\n      sub\n        /* \"#utility.yul\":10850:10851   */\n      0x00\n        /* \"#utility.yul\":10839:10848   */\n      dup4\n        /* \"#utility.yul\":10835:10852   */\n      add\n        /* \"#utility.yul\":10828:10875   */\n      mstore\n        /* \"#utility.yul\":10892:11023   */\n      tag_342\n        /* \"#utility.yul\":11018:11022   */\n      dup2\n        /* \"#utility.yul\":10892:11023   */\n      tag_289\n      jump\t// in\n    tag_342:\n        /* \"#utility.yul\":10884:11023   */\n      swap1\n      pop\n        /* \"#utility.yul\":10611:11030   */\n      swap2\n      swap1\n      pop\n      jump\t// out\n        /* \"#utility.yul\":11036:11455   */\n    tag_160:\n        /* \"#utility.yul\":11202:11206   */\n      0x00\n        /* \"#utility.yul\":11240:11242   */\n      0x20\n        /* \"#utility.yul\":11229:11238   */\n      dup3\n        /* \"#utility.yul\":11225:11243   */\n      add\n        /* \"#utility.yul\":11217:11243   */\n      swap1\n      pop\n        /* \"#utility.yul\":11289:11298   */\n      dup2\n        /* \"#utility.yul\":11283:11287   */\n      dup2\n        /* \"#utility.yul\":11279:11299   */\n      sub\n        /* \"#utility.yul\":11275:11276   */\n      0x00\n        /* \"#utility.yul\":11264:11273   */\n      dup4\n        /* \"#utility.yul\":11260:11277   */\n      add\n        /* \"#utility.yul\":11253:11300   */\n      mstore\n        /* \"#utility.yul\":11317:11448   */\n      tag_344\n        /* \"#utility.yul\":11443:11447   */\n      dup2\n        /* \"#utility.yul\":11317:11448   */\n      tag_294\n      jump\t// in\n    tag_344:\n        /* \"#utility.yul\":11309:11448   */\n      swap1\n      pop\n        /* \"#utility.yul\":11036:11455   */\n      swap2\n      swap1\n      pop\n      jump\t// out\n        /* \"#utility.yul\":11461:11880   */\n    tag_152:\n        /* \"#utility.yul\":11627:11631   */\n      0x00\n        /* \"#utility.yul\":11665:11667   */\n      0x20\n        /* \"#utility.yul\":11654:11663   */\n      dup3\n        /* \"#utility.yul\":11650:11668   */\n      add\n        /* \"#utility.yul\":11642:11668   */\n      swap1\n      pop\n        /* \"#utility.yul\":11714:11723   */\n      dup2\n        /* \"#utility.yul\":11708:11712   */\n      dup2\n        /* \"#utility.yul\":11704:11724   */\n      sub\n        /* \"#utility.yul\":11700:11701   */\n      0x00\n        /* \"#utility.yul\":11689:11698   */\n      dup4\n        /* \"#utility.yul\":11685:11702   */\n      add\n        /* \"#utility.yul\":11678:11725   */\n      mstore\n        /* \"#utility.yul\":11742:11873   */\n      tag_346\n        /* \"#utility.yul\":11868:11872   */\n      dup2\n        /* \"#utility.yul\":11742:11873   */\n      tag_299\n      jump\t// in\n    tag_346:\n        /* \"#utility.yul\":11734:11873   */\n      swap1\n      pop\n        /* \"#utility.yul\":11461:11880   */\n      swap2\n      swap1\n      pop\n      jump\t// out\n        /* \"#utility.yul\":11886:12305   */\n    tag_169:\n        /* \"#utility.yul\":12052:12056   */\n      0x00\n        /* \"#utility.yul\":12090:12092   */\n      0x20\n        /* \"#utility.yul\":12079:12088   */\n      dup3\n        /* \"#utility.yul\":12075:12093   */\n      add\n        /* \"#utility.yul\":12067:12093   */\n      swap1\n      pop\n        /* \"#utility.yul\":12139:12148   */\n      dup2\n        /* \"#utility.yul\":12133:12137   */\n      dup2\n        /* \"#utility.yul\":12129:12149   */\n      sub\n        /* \"#utility.yul\":12125:12126   */\n      0x00\n        /* \"#utility.yul\":12114:12123   */\n      dup4\n        /* \"#utility.yul\":12110:12127   */\n      add\n        /* \"#utility.yul\":12103:12150   */\n      mstore\n        /* \"#utility.yul\":12167:12298   */\n      tag_348\n        /* \"#utility.yul\":12293:12297   */\n      dup2\n        /* \"#utility.yul\":12167:12298   */\n      tag_304\n      jump\t// in\n    tag_348:\n        /* \"#utility.yul\":12159:12298   */\n      swap1\n      pop\n        /* \"#utility.yul\":11886:12305   */\n      swap2\n      swap1\n      pop\n      jump\t// out\n        /* \"#utility.yul\":12311:12730   */\n    tag_143:\n        /* \"#utility.yul\":12477:12481   */\n      0x00\n        /* \"#utility.yul\":12515:12517   */\n      0x20\n        /* \"#utility.yul\":12504:12513   */\n      dup3\n        /* \"#utility.yul\":12500:12518   */\n      add\n        /* \"#utility.yul\":12492:12518   */\n      swap1\n      pop\n        /* \"#utility.yul\":12564:12573   */\n      dup2\n        /* \"#utility.yul\":12558:12562   */\n      dup2\n        /* \"#utility.yul\":12554:12574   */\n      sub\n        /* \"#utility.yul\":12550:12551   */\n      0x00\n        /* \"#utility.yul\":12539:12548   */\n      dup4\n        /* \"#utility.yul\":12535:12552   */\n      add\n        /* \"#utility.yul\":12528:12575   */\n      mstore\n        /* \"#utility.yul\":12592:12723   */\n      tag_350\n        /* \"#utility.yul\":12718:12722   */\n      dup2\n        /* \"#utility.yul\":12592:12723   */\n      tag_309\n      jump\t// in\n    tag_350:\n        /* \"#utility.yul\":12584:12723   */\n      swap1\n      pop\n        /* \"#utility.yul\":12311:12730   */\n      swap2\n      swap1\n      pop\n      jump\t// out\n        /* \"#utility.yul\":12736:13155   */\n    tag_184:\n        /* \"#utility.yul\":12902:12906   */\n      0x00\n        /* \"#utility.yul\":12940:12942   */\n      0x20\n        /* \"#utility.yul\":12929:12938   */\n      dup3\n        /* \"#utility.yul\":12925:12943   */\n      add\n        /* \"#utility.yul\":12917:12943   */\n      swap1\n      pop\n        /* \"#utility.yul\":12989:12998   */\n      dup2\n        /* \"#utility.yul\":12983:12987   */\n      dup2\n        /* \"#utility.yul\":12979:12999   */\n      sub\n        /* \"#utility.yul\":12975:12976   */\n      0x00\n        /* \"#utility.yul\":12964:12973   */\n      dup4\n        /* \"#utility.yul\":12960:12977   */\n      add\n        /* \"#utility.yul\":12953:13000   */\n      mstore\n        /* \"#utility.yul\":13017:13148   */\n      tag_352\n        /* \"#utility.yul\":13143:13147   */\n      dup2\n        /* \"#utility.yul\":13017:13148   */\n      tag_314\n      jump\t// in\n    tag_352:\n        /* \"#utility.yul\":13009:13148   */\n      swap1\n      pop\n        /* \"#utility.yul\":12736:13155   */\n      swap2\n      swap1\n      pop\n      jump\t// out\n        /* \"#utility.yul\":13161:13383   */\n    tag_42:\n        /* \"#utility.yul\":13254:13258   */\n      0x00\n        /* \"#utility.yul\":13292:13294   */\n      0x20\n        /* \"#utility.yul\":13281:13290   */\n      dup3\n        /* \"#utility.yul\":13277:13295   */\n      add\n        /* \"#utility.yul\":13269:13295   */\n      swap1\n      pop\n        /* \"#utility.yul\":13305:13376   */\n      tag_354\n        /* \"#utility.yul\":13373:13374   */\n      0x00\n        /* \"#utility.yul\":13362:13371   */\n      dup4\n        /* \"#utility.yul\":13358:13375   */\n      add\n        /* \"#utility.yul\":13349:13355   */\n      dup5\n        /* \"#utility.yul\":13305:13376   */\n      tag_319\n      jump\t// in\n    tag_354:\n        /* \"#utility.yul\":13161:13383   */\n      swap3\n      swap2\n      pop\n      pop\n      jump\t// out\n        /* \"#utility.yul\":13389:13603   */\n    tag_56:\n        /* \"#utility.yul\":13478:13482   */\n      0x00\n        /* \"#utility.yul\":13516:13518   */\n      0x20\n        /* \"#utility.yul\":13505:13514   */\n      dup3\n        /* \"#utility.yul\":13501:13519   */\n      add\n        /* \"#utility.yul\":13493:13519   */\n      swap1\n      pop\n        /* \"#utility.yul\":13529:13596   */\n      tag_356\n        /* \"#utility.yul\":13593:13594   */\n      0x00\n        /* \"#utility.yul\":13582:13591   */\n      dup4\n        /* \"#utility.yul\":13578:13595   */\n      add\n        /* \"#utility.yul\":13569:13575   */\n      dup5\n        /* \"#utility.yul\":13529:13596   */\n      tag_323\n      jump\t// in\n    tag_356:\n        /* \"#utility.yul\":13389:13603   */\n      swap3\n      swap2\n      pop\n      pop\n      jump\t// out\n        /* \"#utility.yul\":13690:13792   */\n    tag_256:\n        /* \"#utility.yul\":13759:13763   */\n      0x00\n        /* \"#utility.yul\":13782:13785   */\n      dup2\n        /* \"#utility.yul\":13774:13785   */\n      swap1\n      pop\n        /* \"#utility.yul\":13690:13792   */\n      swap2\n      swap1\n      pop\n      jump\t// out\n        /* \"#utility.yul\":13798:13897   */\n    tag_272:\n        /* \"#utility.yul\":13850:13856   */\n      0x00\n        /* \"#utility.yul\":13884:13889   */\n      dup2\n        /* \"#utility.yul\":13878:13890   */\n      mload\n        /* \"#utility.yul\":13868:13890   */\n      swap1\n      pop\n        /* \"#utility.yul\":13798:13897   */\n      swap2\n      swap1\n      pop\n      jump\t// out\n        /* \"#utility.yul\":13903:14018   */\n    tag_264:\n        /* \"#utility.yul\":13975:13979   */\n      0x00\n        /* \"#utility.yul\":14007:14011   */\n      0x20\n        /* \"#utility.yul\":14002:14005   */\n      dup3\n        /* \"#utility.yul\":13998:14012   */\n      add\n        /* \"#utility.yul\":13990:14012   */\n      swap1\n      pop\n        /* \"#utility.yul\":13903:14018   */\n      swap2\n      swap1\n      pop\n      jump\t// out\n        /* \"#utility.yul\":14024:14208   */\n    tag_254:\n        /* \"#utility.yul\":14123:14134   */\n      0x00\n        /* \"#utility.yul\":14157:14163   */\n      dup3\n        /* \"#utility.yul\":14152:14155   */\n      dup3\n        /* \"#utility.yul\":14145:14164   */\n      mstore\n        /* \"#utility.yul\":14197:14201   */\n      0x20\n        /* \"#utility.yul\":14192:14195   */\n      dup3\n        /* \"#utility.yul\":14188:14202   */\n      add\n        /* \"#utility.yul\":14173:14202   */\n      swap1\n      pop\n        /* \"#utility.yul\":14024:14208   */\n      swap3\n      swap2\n      pop\n      pop\n      jump\t// out\n        /* \"#utility.yul\":14214:14383   */\n    tag_274:\n        /* \"#utility.yul\":14298:14309   */\n      0x00\n        /* \"#utility.yul\":14332:14338   */\n      dup3\n        /* \"#utility.yul\":14327:14330   */\n      dup3\n        /* \"#utility.yul\":14320:14339   */\n      mstore\n        /* \"#utility.yul\":14372:14376   */\n      0x20\n        /* \"#utility.yul\":14367:14370   */\n      dup3\n        /* \"#utility.yul\":14363:14377   */\n      add\n        /* \"#utility.yul\":14348:14377   */\n      swap1\n      pop\n        /* \"#utility.yul\":14214:14383   */\n      swap3\n      swap2\n      pop\n      pop\n      jump\t// out\n        /* \"#utility.yul\":14389:14511   */\n    tag_261:\n        /* \"#utility.yul\":14441:14446   */\n      0x00\n        /* \"#utility.yul\":14466:14505   */\n      tag_365\n        /* \"#utility.yul\":14501:14503   */\n      0x20\n        /* \"#utility.yul\":14496:14499   */\n      dup5\n        /* \"#utility.yul\":14492:14504   */\n      add\n        /* \"#utility.yul\":14487:14490   */\n      dup5\n        /* \"#utility.yul\":14466:14505   */\n      tag_193\n      jump\t// in\n    tag_365:\n        /* \"#utility.yul\":14457:14505   */\n      swap1\n      pop\n        /* \"#utility.yul\":14389:14511   */\n      swap3\n      swap2\n      pop\n      pop\n      jump\t// out\n        /* \"#utility.yul\":14517:14822   */\n    tag_123:\n        /* \"#utility.yul\":14557:14560   */\n      0x00\n        /* \"#utility.yul\":14576:14596   */\n      tag_367\n        /* \"#utility.yul\":14594:14595   */\n      dup3\n        /* \"#utility.yul\":14576:14596   */\n      tag_322\n      jump\t// in\n    tag_367:\n        /* \"#utility.yul\":14571:14596   */\n      swap2\n      pop\n        /* \"#utility.yul\":14610:14630   */\n      tag_368\n        /* \"#utility.yul\":14628:14629   */\n      dup4\n        /* \"#utility.yul\":14610:14630   */\n      tag_322\n      jump\t// in\n    tag_368:\n        /* \"#utility.yul\":14605:14630   */\n      swap3\n      pop\n        /* \"#utility.yul\":14764:14765   */\n      dup3\n        /* \"#utility.yul\":14696:14762   */\n      0xffffffffffffffffffffffffffffffffffffffffffffffffffffffffffffffff\n        /* \"#utility.yul\":14692:14766   */\n      sub\n        /* \"#utility.yul\":14689:14690   */\n      dup3\n        /* \"#utility.yul\":14686:14767   */\n      gt\n        /* \"#utility.yul\":14683:14790   */\n      iszero\n      tag_369\n      jumpi\n        /* \"#utility.yul\":14770:14788   */\n      tag_370\n      tag_371\n      jump\t// in\n    tag_370:\n        /* \"#utility.yul\":14683:14790   */\n    tag_369:\n        /* \"#utility.yul\":14814:14815   */\n      dup3\n        /* \"#utility.yul\":14811:14812   */\n      dup3\n        /* \"#utility.yul\":14807:14816   */\n      add\n        /* \"#utility.yul\":14800:14816   */\n      swap1\n      pop\n        /* \"#utility.yul\":14517:14822   */\n      swap3\n      swap2\n      pop\n      pop\n      jump\t// out\n        /* \"#utility.yul\":14828:15176   */\n    tag_129:\n        /* \"#utility.yul\":14868:14875   */\n      0x00\n        /* \"#utility.yul\":14891:14911   */\n      tag_373\n        /* \"#utility.yul\":14909:14910   */\n      dup3\n        /* \"#utility.yul\":14891:14911   */\n      tag_322\n      jump\t// in\n    tag_373:\n        /* \"#utility.yul\":14886:14911   */\n      swap2\n      pop\n        /* \"#utility.yul\":14925:14945   */\n      tag_374\n        /* \"#utility.yul\":14943:14944   */\n      dup4\n        /* \"#utility.yul\":14925:14945   */\n      tag_322\n      jump\t// in\n    tag_374:\n        /* \"#utility.yul\":14920:14945   */\n      swap3\n      pop\n        /* \"#utility.yul\":15113:15114   */\n      dup2\n        /* \"#utility.yul\":15045:15111   */\n      0xffffffffffffffffffffffffffffffffffffffffffffffffffffffffffffffff\n        /* \"#utility.yul\":15041:15115   */\n      div\n        /* \"#utility.yul\":15038:15039   */\n      dup4\n        /* \"#utility.yul\":15035:15116   */\n      gt\n        /* \"#utility.yul\":15030:15031   */\n      dup3\n        /* \"#utility.yul\":15023:15032   */\n      iszero\n        /* \"#utility.yul\":15016:15033   */\n      iszero\n        /* \"#utility.yul\":15012:15117   */\n      and\n        /* \"#utility.yul\":15009:15140   */\n      iszero\n      tag_375\n      jumpi\n        /* \"#utility.yul\":15120:15138   */\n      tag_376\n      tag_371\n      jump\t// in\n    tag_376:\n        /* \"#utility.yul\":15009:15140   */\n    tag_375:\n        /* \"#utility.yul\":15168:15169   */\n      dup3\n        /* \"#utility.yul\":15165:15166   */\n      dup3\n        /* \"#utility.yul\":15161:15170   */\n      mul\n        /* \"#utility.yul\":15150:15170   */\n      swap1\n      pop\n        /* \"#utility.yul\":14828:15176   */\n      swap3\n      swap2\n      pop\n      pop\n      jump\t// out\n        /* \"#utility.yul\":15182:15278   */\n    tag_247:\n        /* \"#utility.yul\":15219:15226   */\n      0x00\n        /* \"#utility.yul\":15248:15272   */\n      tag_378\n        /* \"#utility.yul\":15266:15271   */\n      dup3\n        /* \"#utility.yul\":15248:15272   */\n      tag_379\n      jump\t// in\n    tag_378:\n        /* \"#utility.yul\":15237:15272   */\n      swap1\n      pop\n        /* \"#utility.yul\":15182:15278   */\n      swap2\n      swap1\n      pop\n      jump\t// out\n        /* \"#utility.yul\":15284:15374   */\n    tag_268:\n        /* \"#utility.yul\":15318:15325   */\n      0x00\n        /* \"#utility.yul\":15361:15366   */\n      dup2\n        /* \"#utility.yul\":15354:15367   */\n      iszero\n        /* \"#utility.yul\":15347:15368   */\n      iszero\n        /* \"#utility.yul\":15336:15368   */\n      swap1\n      pop\n        /* \"#utility.yul\":15284:15374   */\n      swap2\n      swap1\n      pop\n      jump\t// out\n        /* \"#utility.yul\":15380:15506   */\n    tag_379:\n        /* \"#utility.yul\":15417:15424   */\n      0x00\n        /* \"#utility.yul\":15457:15499   */\n      0xffffffffffffffffffffffffffffffffffffffff\n        /* \"#utility.yul\":15450:15455   */\n      dup3\n        /* \"#utility.yul\":15446:15500   */\n      and\n        /* \"#utility.yul\":15435:15500   */\n      swap1\n      pop\n        /* \"#utility.yul\":15380:15506   */\n      swap2\n      swap1\n      pop\n      jump\t// out\n        /* \"#utility.yul\":15512:15589   */\n    tag_322:\n        /* \"#utility.yul\":15549:15556   */\n      0x00\n        /* \"#utility.yul\":15578:15583   */\n      dup2\n        /* \"#utility.yul\":15567:15583   */\n      swap1\n      pop\n        /* \"#utility.yul\":15512:15589   */\n      swap2\n      swap1\n      pop\n      jump\t// out\n        /* \"#utility.yul\":15595:15681   */\n    tag_326:\n        /* \"#utility.yul\":15630:15637   */\n      0x00\n        /* \"#utility.yul\":15670:15674   */\n      0xff\n        /* \"#utility.yul\":15663:15668   */\n      dup3\n        /* \"#utility.yul\":15659:15675   */\n      and\n        /* \"#utility.yul\":15648:15675   */\n      swap1\n      pop\n        /* \"#utility.yul\":15595:15681   */\n      swap2\n      swap1\n      pop\n      jump\t// out\n        /* \"#utility.yul\":15687:15994   */\n    tag_276:\n        /* \"#utility.yul\":15755:15756   */\n      0x00\n        /* \"#utility.yul\":15765:15878   */\n    tag_385:\n        /* \"#utility.yul\":15779:15785   */\n      dup4\n        /* \"#utility.yul\":15776:15777   */\n      dup2\n        /* \"#utility.yul\":15773:15786   */\n      lt\n        /* \"#utility.yul\":15765:15878   */\n      iszero\n      tag_387\n      jumpi\n        /* \"#utility.yul\":15864:15865   */\n      dup1\n        /* \"#utility.yul\":15859:15862   */\n      dup3\n        /* \"#utility.yul\":15855:15866   */\n      add\n        /* \"#utility.yul\":15849:15867   */\n      mload\n        /* \"#utility.yul\":15845:15846   */\n      dup2\n        /* \"#utility.yul\":15840:15843   */\n      dup5\n        /* \"#utility.yul\":15836:15847   */\n      add\n        /* \"#utility.yul\":15829:15868   */\n      mstore\n        /* \"#utility.yul\":15801:15803   */\n      0x20\n        /* \"#utility.yul\":15798:15799   */\n      dup2\n        /* \"#utility.yul\":15794:15804   */\n      add\n        /* \"#utility.yul\":15789:15804   */\n      swap1\n      pop\n        /* \"#utility.yul\":15765:15878   */\n      jump(tag_385)\n    tag_387:\n        /* \"#utility.yul\":15896:15902   */\n      dup4\n        /* \"#utility.yul\":15893:15894   */\n      dup2\n        /* \"#utility.yul\":15890:15903   */\n      gt\n        /* \"#utility.yul\":15887:15988   */\n      iszero\n      tag_388\n      jumpi\n        /* \"#utility.yul\":15976:15977   */\n      0x00\n        /* \"#utility.yul\":15967:15973   */\n      dup5\n        /* \"#utility.yul\":15962:15965   */\n      dup5\n        /* \"#utility.yul\":15958:15974   */\n      add\n        /* \"#utility.yul\":15951:15978   */\n      mstore\n        /* \"#utility.yul\":15887:15988   */\n    tag_388:\n        /* \"#utility.yul\":15736:15994   */\n      pop\n        /* \"#utility.yul\":15687:15994   */\n      pop\n      pop\n      pop\n      jump\t// out\n        /* \"#utility.yul\":16000:16320   */\n    tag_101:\n        /* \"#utility.yul\":16044:16050   */\n      0x00\n        /* \"#utility.yul\":16081:16082   */\n      0x02\n        /* \"#utility.yul\":16075:16079   */\n      dup3\n        /* \"#utility.yul\":16071:16083   */\n      div\n        /* \"#utility.yul\":16061:16083   */\n      swap1\n      pop\n        /* \"#utility.yul\":16128:16129   */\n      0x01\n        /* \"#utility.yul\":16122:16126   */\n      dup3\n        /* \"#utility.yul\":16118:16130   */\n      and\n        /* \"#utility.yul\":16149:16167   */\n      dup1\n        /* \"#utility.yul\":16139:16220   */\n      tag_390\n      jumpi\n        /* \"#utility.yul\":16205:16209   */\n      0x7f\n        /* \"#utility.yul\":16197:16203   */\n      dup3\n        /* \"#utility.yul\":16193:16210   */\n      and\n        /* \"#utility.yul\":16183:16210   */\n      swap2\n      pop\n        /* \"#utility.yul\":16139:16220   */\n    tag_390:\n        /* \"#utility.yul\":16267:16269   */\n      0x20\n        /* \"#utility.yul\":16259:16265   */\n      dup3\n        /* \"#utility.yul\":16256:16270   */\n      lt\n        /* \"#utility.yul\":16236:16254   */\n      dup2\n        /* \"#utility.yul\":16233:16271   */\n      eq\n        /* \"#utility.yul\":16230:16314   */\n      iszero\n      tag_391\n      jumpi\n        /* \"#utility.yul\":16286:16304   */\n      tag_392\n      tag_393\n      jump\t// in\n    tag_392:\n        /* \"#utility.yul\":16230:16314   */\n    tag_391:\n        /* \"#utility.yul\":16051:16320   */\n      pop\n        /* \"#utility.yul\":16000:16320   */\n      swap2\n      swap1\n      pop\n      jump\t// out\n        /* \"#utility.yul\":16326:16559   */\n    tag_96:\n        /* \"#utility.yul\":16365:16368   */\n      0x00\n        /* \"#utility.yul\":16388:16412   */\n      tag_395\n        /* \"#utility.yul\":16406:16411   */\n      dup3\n        /* \"#utility.yul\":16388:16412   */\n      tag_322\n      jump\t// in\n    tag_395:\n        /* \"#utility.yul\":16379:16412   */\n      swap2\n      pop\n        /* \"#utility.yul\":16434:16500   */\n      0xffffffffffffffffffffffffffffffffffffffffffffffffffffffffffffffff\n        /* \"#utility.yul\":16427:16432   */\n      dup3\n        /* \"#utility.yul\":16424:16501   */\n      eq\n        /* \"#utility.yul\":16421:16524   */\n      iszero\n      tag_396\n      jumpi\n        /* \"#utility.yul\":16504:16522   */\n      tag_397\n      tag_371\n      jump\t// in\n    tag_397:\n        /* \"#utility.yul\":16421:16524   */\n    tag_396:\n        /* \"#utility.yul\":16551:16552   */\n      0x01\n        /* \"#utility.yul\":16544:16549   */\n      dup3\n        /* \"#utility.yul\":16540:16553   */\n      add\n        /* \"#utility.yul\":16533:16553   */\n      swap1\n      pop\n        /* \"#utility.yul\":16326:16559   */\n      swap2\n      swap1\n      pop\n      jump\t// out\n        /* \"#utility.yul\":16565:16745   */\n    tag_371:\n        /* \"#utility.yul\":16613:16690   */\n      0x4e487b7100000000000000000000000000000000000000000000000000000000\n        /* \"#utility.yul\":16610:16611   */\n      0x00\n        /* \"#utility.yul\":16603:16691   */\n      mstore\n        /* \"#utility.yul\":16710:16714   */\n      0x11\n        /* \"#utility.yul\":16707:16708   */\n      0x04\n        /* \"#utility.yul\":16700:16715   */\n      mstore\n        /* \"#utility.yul\":16734:16738   */\n      0x24\n        /* \"#utility.yul\":16731:16732   */\n      0x00\n        /* \"#utility.yul\":16724:16739   */\n      revert\n        /* \"#utility.yul\":16751:16931   */\n    tag_393:\n        /* \"#utility.yul\":16799:16876   */\n      0x4e487b7100000000000000000000000000000000000000000000000000000000\n        /* \"#utility.yul\":16796:16797   */\n      0x00\n        /* \"#utility.yul\":16789:16877   */\n      mstore\n        /* \"#utility.yul\":16896:16900   */\n      0x22\n        /* \"#utility.yul\":16893:16894   */\n      0x04\n        /* \"#utility.yul\":16886:16901   */\n      mstore\n        /* \"#utility.yul\":16920:16924   */\n      0x24\n        /* \"#utility.yul\":16917:16918   */\n      0x00\n        /* \"#utility.yul\":16910:16925   */\n      revert\n        /* \"#utility.yul\":16937:17117   */\n    tag_92:\n        /* \"#utility.yul\":16985:17062   */\n      0x4e487b7100000000000000000000000000000000000000000000000000000000\n        /* \"#utility.yul\":16982:16983   */\n      0x00\n        /* \"#utility.yul\":16975:17063   */\n      mstore\n        /* \"#utility.yul\":17082:17086   */\n      0x32\n        /* \"#utility.yul\":17079:17080   */\n      0x04\n        /* \"#utility.yul\":17072:17087   */\n      mstore\n        /* \"#utility.yul\":17106:17110   */\n      0x24\n        /* \"#utility.yul\":17103:17104   */\n      0x00\n        /* \"#utility.yul\":17096:17111   */\n      revert\n        /* \"#utility.yul\":17123:17240   */\n    tag_204:\n        /* \"#utility.yul\":17232:17233   */\n      0x00\n        /* \"#utility.yul\":17229:17230   */\n      dup1\n        /* \"#utility.yul\":17222:17234   */\n      revert\n        /* \"#utility.yul\":17246:17363   */\n    tag_201:\n        /* \"#utility.yul\":17355:17356   */\n      0x00\n        /* \"#utility.yul\":17352:17353   */\n      dup1\n        /* \"#utility.yul\":17345:17357   */\n      revert\n        /* \"#utility.yul\":17369:17486   */\n    tag_207:\n        /* \"#utility.yul\":17478:17479   */\n      0x00\n        /* \"#utility.yul\":17475:17476   */\n      dup1\n        /* \"#utility.yul\":17468:17480   */\n      revert\n        /* \"#utility.yul\":17492:17609   */\n    tag_238:\n        /* \"#utility.yul\":17601:17602   */\n      0x00\n        /* \"#utility.yul\":17598:17599   */\n      dup1\n        /* \"#utility.yul\":17591:17603   */\n      revert\n        /* \"#utility.yul\":17615:17732   */\n    tag_215:\n        /* \"#utility.yul\":17724:17725   */\n      0x00\n        /* \"#utility.yul\":17721:17722   */\n      dup1\n        /* \"#utility.yul\":17714:17726   */\n      revert\n        /* \"#utility.yul\":17738:17840   */\n    tag_278:\n        /* \"#utility.yul\":17779:17785   */\n      0x00\n        /* \"#utility.yul\":17830:17832   */\n      0x1f\n        /* \"#utility.yul\":17826:17833   */\n      not\n        /* \"#utility.yul\":17821:17823   */\n      0x1f\n        /* \"#utility.yul\":17814:17819   */\n      dup4\n        /* \"#utility.yul\":17810:17824   */\n      add\n        /* \"#utility.yul\":17806:17834   */\n      and\n        /* \"#utility.yul\":17796:17834   */\n      swap1\n      pop\n        /* \"#utility.yul\":17738:17840   */\n      swap2\n      swap1\n      pop\n      jump\t// out\n        /* \"#utility.yul\":17846:18068   */\n    tag_283:\n        /* \"#utility.yul\":17986:18020   */\n      0x45524332303a207472616e7366657220746f20746865207a65726f2061646472\n        /* \"#utility.yul\":17982:17983   */\n      0x00\n        /* \"#utility.yul\":17974:17980   */\n      dup3\n        /* \"#utility.yul\":17970:17984   */\n      add\n        /* \"#utility.yul\":17963:18021   */\n      mstore\n        /* \"#utility.yul\":18055:18060   */\n      0x6573730000000000000000000000000000000000000000000000000000000000\n        /* \"#utility.yul\":18050:18052   */\n      0x20\n        /* \"#utility.yul\":18042:18048   */\n      dup3\n        /* \"#utility.yul\":18038:18053   */\n      add\n        /* \"#utility.yul\":18031:18061   */\n      mstore\n        /* \"#utility.yul\":17846:18068   */\n      pop\n      jump\t// out\n        /* \"#utility.yul\":18074:18295   */\n    tag_288:\n        /* \"#utility.yul\":18214:18248   */\n      0x45524332303a20617070726f766520746f20746865207a65726f206164647265\n        /* \"#utility.yul\":18210:18211   */\n      0x00\n        /* \"#utility.yul\":18202:18208   */\n      dup3\n        /* \"#utility.yul\":18198:18212   */\n      add\n        /* \"#utility.yul\":18191:18249   */\n      mstore\n        /* \"#utility.yul\":18283:18287   */\n      0x7373000000000000000000000000000000000000000000000000000000000000\n        /* \"#utility.yul\":18278:18280   */\n      0x20\n        /* \"#utility.yul\":18270:18276   */\n      dup3\n        /* \"#utility.yul\":18266:18281   */\n      add\n        /* \"#utility.yul\":18259:18288   */\n      mstore\n        /* \"#utility.yul\":18074:18295   */\n      pop\n      jump\t// out\n        /* \"#utility.yul\":18301:18480   */\n    tag_293:\n        /* \"#utility.yul\":18441:18472   */\n      0x45524332303a20696e73756666696369656e7420616c6c6f77616e6365000000\n        /* \"#utility.yul\":18437:18438   */\n      0x00\n        /* \"#utility.yul\":18429:18435   */\n      dup3\n        /* \"#utility.yul\":18425:18439   */\n      add\n        /* \"#utility.yul\":18418:18473   */\n      mstore\n        /* \"#utility.yul\":18301:18480   */\n      pop\n      jump\t// out\n        /* \"#utility.yul\":18486:18711   */\n    tag_298:\n        /* \"#utility.yul\":18626:18660   */\n      0x45524332303a207472616e7366657220616d6f756e7420657863656564732062\n        /* \"#utility.yul\":18622:18623   */\n      0x00\n        /* \"#utility.yul\":18614:18620   */\n      dup3\n        /* \"#utility.yul\":18610:18624   */\n      add\n        /* \"#utility.yul\":18603:18661   */\n      mstore\n        /* \"#utility.yul\":18695:18703   */\n      0x616c616e63650000000000000000000000000000000000000000000000000000\n        /* \"#utility.yul\":18690:18692   */\n      0x20\n        /* \"#utility.yul\":18682:18688   */\n      dup3\n        /* \"#utility.yul\":18678:18693   */\n      add\n        /* \"#utility.yul\":18671:18704   */\n      mstore\n        /* \"#utility.yul\":18486:18711   */\n      pop\n      jump\t// out\n        /* \"#utility.yul\":18717:18941   */\n    tag_303:\n        /* \"#utility.yul\":18857:18891   */\n      0x45524332303a207472616e736665722066726f6d20746865207a65726f206164\n        /* \"#utility.yul\":18853:18854   */\n      0x00\n        /* \"#utility.yul\":18845:18851   */\n      dup3\n        /* \"#utility.yul\":18841:18855   */\n      add\n        /* \"#utility.yul\":18834:18892   */\n      mstore\n        /* \"#utility.yul\":18926:18933   */\n      0x6472657373000000000000000000000000000000000000000000000000000000\n        /* \"#utility.yul\":18921:18923   */\n      0x20\n        /* \"#utility.yul\":18913:18919   */\n      dup3\n        /* \"#utility.yul\":18909:18924   */\n      add\n        /* \"#utility.yul\":18902:18934   */\n      mstore\n        /* \"#utility.yul\":18717:18941   */\n      pop\n      jump\t// out\n        /* \"#utility.yul\":18947:19170   */\n    tag_308:\n        /* \"#utility.yul\":19087:19121   */\n      0x45524332303a20617070726f76652066726f6d20746865207a65726f20616464\n        /* \"#utility.yul\":19083:19084   */\n      0x00\n        /* \"#utility.yul\":19075:19081   */\n      dup3\n        /* \"#utility.yul\":19071:19085   */\n      add\n        /* \"#utility.yul\":19064:19122   */\n      mstore\n        /* \"#utility.yul\":19156:19162   */\n      0x7265737300000000000000000000000000000000000000000000000000000000\n        /* \"#utility.yul\":19151:19153   */\n      0x20\n        /* \"#utility.yul\":19143:19149   */\n      dup3\n        /* \"#utility.yul\":19139:19154   */\n      add\n        /* \"#utility.yul\":19132:19163   */\n      mstore\n        /* \"#utility.yul\":18947:19170   */\n      pop\n      jump\t// out\n        /* \"#utility.yul\":19176:19400   */\n    tag_313:\n        /* \"#utility.yul\":19316:19350   */\n      0x45524332303a2064656372656173656420616c6c6f77616e63652062656c6f77\n        /* \"#utility.yul\":19312:19313   */\n      0x00\n        /* \"#utility.yul\":19304:19310   */\n      dup3\n        /* \"#utility.yul\":19300:19314   */\n      add\n        /* \"#utility.yul\":19293:19351   */\n      mstore\n        /* \"#utility.yul\":19385:19392   */\n      0x207a65726f000000000000000000000000000000000000000000000000000000\n        /* \"#utility.yul\":19380:19382   */\n      0x20\n        /* \"#utility.yul\":19372:19378   */\n      dup3\n        /* \"#utility.yul\":19368:19383   */\n      add\n        /* \"#utility.yul\":19361:19393   */\n      mstore\n        /* \"#utility.yul\":19176:19400   */\n      pop\n      jump\t// out\n        /* \"#utility.yul\":19406:19587   */\n    tag_318:\n        /* \"#utility.yul\":19546:19579   */\n      0x45524332303a206d696e7420746f20746865207a65726f206164647265737300\n        /* \"#utility.yul\":19542:19543   */\n      0x00\n        /* \"#utility.yul\":19534:19540   */\n      dup3\n        /* \"#utility.yul\":19530:19544   */\n      add\n        /* \"#utility.yul\":19523:19580   */\n      mstore\n        /* \"#utility.yul\":19406:19587   */\n      pop\n      jump\t// out\n        /* \"#utility.yul\":19593:19715   */\n    tag_196:\n        /* \"#utility.yul\":19666:19690   */\n      tag_416\n        /* \"#utility.yul\":19684:19689   */\n      dup2\n        /* \"#utility.yul\":19666:19690   */\n      tag_247\n      jump\t// in\n    tag_416:\n        /* \"#utility.yul\":19659:19664   */\n      dup2\n        /* \"#utility.yul\":19656:19691   */\n      eq\n        /* \"#utility.yul\":19646:19709   */\n      tag_417\n      jumpi\n        /* \"#utility.yul\":19705:19706   */\n      0x00\n        /* \"#utility.yul\":19702:19703   */\n      dup1\n        /* \"#utility.yul\":19695:19707   */\n      revert\n        /* \"#utility.yul\":19646:19709   */\n    tag_417:\n        /* \"#utility.yul\":19593:19715   */\n      pop\n      jump\t// out\n        /* \"#utility.yul\":19721:19843   */\n    tag_211:\n        /* \"#utility.yul\":19794:19818   */\n      tag_419\n        /* \"#utility.yul\":19812:19817   */\n      dup2\n        /* \"#utility.yul\":19794:19818   */\n      tag_322\n      jump\t// in\n    tag_419:\n        /* \"#utility.yul\":19787:19792   */\n      dup2\n        /* \"#utility.yul\":19784:19819   */\n      eq\n        /* \"#utility.yul\":19774:19837   */\n      tag_420\n      jumpi\n        /* \"#utility.yul\":19833:19834   */\n      0x00\n        /* \"#utility.yul\":19830:19831   */\n      dup1\n        /* \"#utility.yul\":19823:19835   */\n      revert\n        /* \"#utility.yul\":19774:19837   */\n    tag_420:\n        /* \"#utility.yul\":19721:19843   */\n      pop\n      jump\t// out\n\n    auxdata: 0xa26469706673582212205cd7a0b12470e491f9bceabb0d815048b75fdca4544b4f11fff0b9911f70a4a064736f6c63430008070033\n}\n",
				"bytecode": {
					"linkReferences": {},
					"object": "60806040523480156200001157600080fd5b506040518060400160405280600b81526020017f4d6f66667520546f6b656e0000000000000000000000000000000000000000008152506040518060400160405280600381526020017f4d4655000000000000000000000000000000000000000000000000000000000081525081600390805190602001906200009692919062000299565b508060049080519060200190620000af92919062000299565b505050620000cf336a084595161401484a0000006200011660201b60201c565b33600560006101000a81548173ffffffffffffffffffffffffffffffffffffffff021916908373ffffffffffffffffffffffffffffffffffffffff160217905550620004f5565b600073ffffffffffffffffffffffffffffffffffffffff168273ffffffffffffffffffffffffffffffffffffffff16141562000189576040517f08c379a0000000000000000000000000000000000000000000000000000000008152600401620001809062000381565b60405180910390fd5b6200019d600083836200028f60201b60201c565b8060026000828254620001b19190620003d1565b92505081905550806000808473ffffffffffffffffffffffffffffffffffffffff1673ffffffffffffffffffffffffffffffffffffffff1681526020019081526020016000206000828254620002089190620003d1565b925050819055508173ffffffffffffffffffffffffffffffffffffffff16600073ffffffffffffffffffffffffffffffffffffffff167fddf252ad1be2c89b69c2b068fc378daa952ba7f163c4a11628f55a4df523b3ef836040516200026f9190620003a3565b60405180910390a36200028b600083836200029460201b60201c565b5050565b505050565b505050565b828054620002a79062000438565b90600052602060002090601f016020900481019282620002cb576000855562000317565b82601f10620002e657805160ff191683800117855562000317565b8280016001018555821562000317579182015b8281111562000316578251825591602001919060010190620002f9565b5b5090506200032691906200032a565b5090565b5b80821115620003455760008160009055506001016200032b565b5090565b600062000358601f83620003c0565b91506200036582620004cc565b602082019050919050565b6200037b816200042e565b82525050565b600060208201905081810360008301526200039c8162000349565b9050919050565b6000602082019050620003ba600083018462000370565b92915050565b600082825260208201905092915050565b6000620003de826200042e565b9150620003eb836200042e565b9250827fffffffffffffffffffffffffffffffffffffffffffffffffffffffffffffffff038211156200042357620004226200046e565b5b828201905092915050565b6000819050919050565b600060028204905060018216806200045157607f821691505b602082108114156200046857620004676200049d565b5b50919050565b7f4e487b7100000000000000000000000000000000000000000000000000000000600052601160045260246000fd5b7f4e487b7100000000000000000000000000000000000000000000000000000000600052602260045260246000fd5b7f45524332303a206d696e7420746f20746865207a65726f206164647265737300600082015250565b6119b980620005056000396000f3fe608060405234801561001057600080fd5b50600436106100f55760003560e01c8063313ce5671161009757806395d89b411161006657806395d89b411461029a578063a457c2d7146102b8578063a9059cbb146102e8578063dd62ed3e14610318576100f5565b8063313ce56714610200578063395093511461021e57806340c10f191461024e57806370a082311461026a576100f5565b8063095ea7b3116100d3578063095ea7b31461015257806318160ddd1461018257806323b872dd146101a057806327e235e3146101d0576100f5565b8063045191e1146100fa57806306fdde03146101165780630754617214610134575b600080fd5b610114600480360381019061010f9190611025565b610348565b005b61011e610454565b60405161012b919061130c565b60405180910390f35b61013c6104e6565b6040516101499190611296565b60405180910390f35b61016c60048036038101906101679190610fe5565b61050c565b60405161017991906112f1565b60405180910390f35b61018a61052f565b604051610197919061142e565b60405180910390f35b6101ba60048036038101906101b59190610f92565b610539565b6040516101c791906112f1565b60405180910390f35b6101ea60048036038101906101e59190610f25565b610568565b6040516101f7919061142e565b60405180910390f35b610208610580565b6040516102159190611449565b60405180910390f35b61023860048036038101906102339190610fe5565b610589565b60405161024591906112f1565b60405180910390f35b61026860048036038101906102639190610fe5565b6105c0565b005b610284600480360381019061027f9190610f25565b610660565b604051610291919061142e565b60405180910390f35b6102a26106a8565b6040516102af919061130c565b60405180910390f35b6102d260048036038101906102cd9190610fe5565b61073a565b6040516102df91906112f1565b60405180910390f35b61030260048036038101906102fd9190610fe5565b6107b1565b60405161030f91906112f1565b60405180910390f35b610332600480360381019061032d9190610f52565b6107d4565b60405161033f919061142e565b60405180910390f35b7ff0ed029e274dabb7636aeed7333cf47bc8c97dd6eb6d8faea6e9bfbd6620bebe600660003373ffffffffffffffffffffffffffffffffffffffff1673ffffffffffffffffffffffffffffffffffffffff168152602001908152602001600020546040516103b6919061142e565b60405180910390a160005b83839050811015610411576103fe338585848181106103e3576103e26116d0565b5b90506020020160208101906103f89190610f25565b8461085b565b808061040990611629565b9150506103c1565b507fd33af69e2bdb37dfd3a759e5a2bc0f70e1976336b64f9eb59c9814d3f5d238e03384848460405161044794939291906112b1565b60405180910390a1505050565b606060038054610463906115f7565b80601f016020809104026020016040519081016040528092919081815260200182805461048f906115f7565b80156104dc5780601f106104b1576101008083540402835291602001916104dc565b820191906000526020600020905b8154815290600101906020018083116104bf57829003601f168201915b5050505050905090565b600560009054906101000a900473ffffffffffffffffffffffffffffffffffffffff1681565b600080610517610adc565b9050610524818585610ae4565b600191505092915050565b6000600254905090565b600080610544610adc565b9050610551858285610caf565b61055c85858561085b565b60019150509392505050565b60066020528060005260406000206000915090505481565b60006012905090565b600080610594610adc565b90506105b58185856105a685896107d4565b6105b091906114bf565b610ae4565b600191505092915050565b600560009054906101000a900473ffffffffffffffffffffffffffffffffffffffff1673ffffffffffffffffffffffffffffffffffffffff163373ffffffffffffffffffffffffffffffffffffffff161461061a57600080fd5b789f4f2726179a224501d762422c946590d91000000000000000811061063f57600080fd5b61065c33670de0b6b3a7640000836106579190611515565b610d3b565b5050565b60008060008373ffffffffffffffffffffffffffffffffffffffff1673ffffffffffffffffffffffffffffffffffffffff168152602001908152602001600020549050919050565b6060600480546106b7906115f7565b80601f01602080910402602001604051908101604052809291908181526020018280546106e3906115f7565b80156107305780601f1061070557610100808354040283529160200191610730565b820191906000526020600020905b81548152906001019060200180831161071357829003601f168201915b5050505050905090565b600080610745610adc565b9050600061075382866107d4565b905083811015610798576040517f08c379a000000000000000000000000000000000000000000000000000000000815260040161078f906113ee565b60405180910390fd5b6107a58286868403610ae4565b60019250505092915050565b6000806107bc610adc565b90506107c981858561085b565b600191505092915050565b6000600160008473ffffffffffffffffffffffffffffffffffffffff1673ffffffffffffffffffffffffffffffffffffffff16815260200190815260200160002060008373ffffffffffffffffffffffffffffffffffffffff1673ffffffffffffffffffffffffffffffffffffffff16815260200190815260200160002054905092915050565b600073ffffffffffffffffffffffffffffffffffffffff168373ffffffffffffffffffffffffffffffffffffffff1614156108cb576040517f08c379a00000000000000000000000000000000000000000000000000000000081526004016108c2906113ae565b60405180910390fd5b600073ffffffffffffffffffffffffffffffffffffffff168273ffffffffffffffffffffffffffffffffffffffff16141561093b576040517f08c379a00000000000000000000000000000000000000000000000000000000081526004016109329061132e565b60405180910390fd5b610946838383610e9b565b60008060008573ffffffffffffffffffffffffffffffffffffffff1673ffffffffffffffffffffffffffffffffffffffff168152602001908152602001600020549050818110156109cc576040517f08c379a00000000000000000000000000000000000000000000000000000000081526004016109c39061138e565b60405180910390fd5b8181036000808673ffffffffffffffffffffffffffffffffffffffff1673ffffffffffffffffffffffffffffffffffffffff16815260200190815260200160002081905550816000808573ffffffffffffffffffffffffffffffffffffffff1673ffffffffffffffffffffffffffffffffffffffff1681526020019081526020016000206000828254610a5f91906114bf565b925050819055508273ffffffffffffffffffffffffffffffffffffffff168473ffffffffffffffffffffffffffffffffffffffff167fddf252ad1be2c89b69c2b068fc378daa952ba7f163c4a11628f55a4df523b3ef84604051610ac3919061142e565b60405180910390a3610ad6848484610ea0565b50505050565b600033905090565b600073ffffffffffffffffffffffffffffffffffffffff168373ffffffffffffffffffffffffffffffffffffffff161415610b54576040517f08c379a0000000000000000000000000000000000000000000000000000000008152600401610b4b906113ce565b60405180910390fd5b600073ffffffffffffffffffffffffffffffffffffffff168273ffffffffffffffffffffffffffffffffffffffff161415610bc4576040517f08c379a0000000000000000000000000000000000000000000000000000000008152600401610bbb9061134e565b60405180910390fd5b80600160008573ffffffffffffffffffffffffffffffffffffffff1673ffffffffffffffffffffffffffffffffffffffff16815260200190815260200160002060008473ffffffffffffffffffffffffffffffffffffffff1673ffffffffffffffffffffffffffffffffffffffff168152602001908152602001600020819055508173ffffffffffffffffffffffffffffffffffffffff168373ffffffffffffffffffffffffffffffffffffffff167f8c5be1e5ebec7d5bd14f71427d1e84f3dd0314c0f7b2291e5b200ac8c7c3b92583604051610ca2919061142e565b60405180910390a3505050565b6000610cbb84846107d4565b90507fffffffffffffffffffffffffffffffffffffffffffffffffffffffffffffffff8114610d355781811015610d27576040517f08c379a0000000000000000000000000000000000000000000000000000000008152600401610d1e9061136e565b60405180910390fd5b610d348484848403610ae4565b5b50505050565b600073ffffffffffffffffffffffffffffffffffffffff168273ffffffffffffffffffffffffffffffffffffffff161415610dab576040517f08c379a0000000000000000000000000000000000000000000000000000000008152600401610da29061140e565b60405180910390fd5b610db760008383610e9b565b8060026000828254610dc991906114bf565b92505081905550806000808473ffffffffffffffffffffffffffffffffffffffff1673ffffffffffffffffffffffffffffffffffffffff1681526020019081526020016000206000828254610e1e91906114bf565b925050819055508173ffffffffffffffffffffffffffffffffffffffff16600073ffffffffffffffffffffffffffffffffffffffff167fddf252ad1be2c89b69c2b068fc378daa952ba7f163c4a11628f55a4df523b3ef83604051610e83919061142e565b60405180910390a3610e9760008383610ea0565b5050565b505050565b505050565b600081359050610eb481611955565b92915050565b60008083601f840112610ed057610ecf611704565b5b8235905067ffffffffffffffff811115610eed57610eec6116ff565b5b602083019150836020820283011115610f0957610f08611709565b5b9250929050565b600081359050610f1f8161196c565b92915050565b600060208284031215610f3b57610f3a611713565b5b6000610f4984828501610ea5565b91505092915050565b60008060408385031215610f6957610f68611713565b5b6000610f7785828601610ea5565b9250506020610f8885828601610ea5565b9150509250929050565b600080600060608486031215610fab57610faa611713565b5b6000610fb986828701610ea5565b9350506020610fca86828701610ea5565b9250506040610fdb86828701610f10565b9150509250925092565b60008060408385031215610ffc57610ffb611713565b5b600061100a85828601610ea5565b925050602061101b85828601610f10565b9150509250929050565b60008060006040848603121561103e5761103d611713565b5b600084013567ffffffffffffffff81111561105c5761105b61170e565b5b61106886828701610eba565b9350935050602061107b86828701610f10565b9150509250925092565b6000611091838361109d565b60208301905092915050565b6110a68161156f565b82525050565b6110b58161156f565b82525050565b60006110c78385611486565b93506110d282611464565b8060005b8581101561110b576110e882846114a8565b6110f28882611085565b97506110fd83611479565b9250506001810190506110d6565b5085925050509392505050565b61112181611581565b82525050565b60006111328261146e565b61113c8185611497565b935061114c8185602086016115c4565b61115581611718565b840191505092915050565b600061116d602383611497565b915061117882611729565b604082019050919050565b6000611190602283611497565b915061119b82611778565b604082019050919050565b60006111b3601d83611497565b91506111be826117c7565b602082019050919050565b60006111d6602683611497565b91506111e1826117f0565b604082019050919050565b60006111f9602583611497565b91506112048261183f565b604082019050919050565b600061121c602483611497565b91506112278261188e565b604082019050919050565b600061123f602583611497565b915061124a826118dd565b604082019050919050565b6000611262601f83611497565b915061126d8261192c565b602082019050919050565b611281816115ad565b82525050565b611290816115b7565b82525050565b60006020820190506112ab60008301846110ac565b92915050565b60006060820190506112c660008301876110ac565b81810360208301526112d98185876110bb565b90506112e86040830184611278565b95945050505050565b60006020820190506113066000830184611118565b92915050565b600060208201905081810360008301526113268184611127565b905092915050565b6000602082019050818103600083015261134781611160565b9050919050565b6000602082019050818103600083015261136781611183565b9050919050565b60006020820190508181036000830152611387816111a6565b9050919050565b600060208201905081810360008301526113a7816111c9565b9050919050565b600060208201905081810360008301526113c7816111ec565b9050919050565b600060208201905081810360008301526113e78161120f565b9050919050565b6000602082019050818103600083015261140781611232565b9050919050565b6000602082019050818103600083015261142781611255565b9050919050565b60006020820190506114436000830184611278565b92915050565b600060208201905061145e6000830184611287565b92915050565b6000819050919050565b600081519050919050565b6000602082019050919050565b600082825260208201905092915050565b600082825260208201905092915050565b60006114b76020840184610ea5565b905092915050565b60006114ca826115ad565b91506114d5836115ad565b9250827fffffffffffffffffffffffffffffffffffffffffffffffffffffffffffffffff0382111561150a57611509611672565b5b828201905092915050565b6000611520826115ad565b915061152b836115ad565b9250817fffffffffffffffffffffffffffffffffffffffffffffffffffffffffffffffff048311821515161561156457611563611672565b5b828202905092915050565b600061157a8261158d565b9050919050565b60008115159050919050565b600073ffffffffffffffffffffffffffffffffffffffff82169050919050565b6000819050919050565b600060ff82169050919050565b60005b838110156115e25780820151818401526020810190506115c7565b838111156115f1576000848401525b50505050565b6000600282049050600182168061160f57607f821691505b60208210811415611623576116226116a1565b5b50919050565b6000611634826115ad565b91507fffffffffffffffffffffffffffffffffffffffffffffffffffffffffffffffff82141561166757611666611672565b5b600182019050919050565b7f4e487b7100000000000000000000000000000000000000000000000000000000600052601160045260246000fd5b7f4e487b7100000000000000000000000000000000000000000000000000000000600052602260045260246000fd5b7f4e487b7100000000000000000000000000000000000000000000000000000000600052603260045260246000fd5b600080fd5b600080fd5b600080fd5b600080fd5b600080fd5b6000601f19601f8301169050919050565b7f45524332303a207472616e7366657220746f20746865207a65726f206164647260008201527f6573730000000000000000000000000000000000000000000000000000000000602082015250565b7f45524332303a20617070726f766520746f20746865207a65726f20616464726560008201527f7373000000000000000000000000000000000000000000000000000000000000602082015250565b7f45524332303a20696e73756666696369656e7420616c6c6f77616e6365000000600082015250565b7f45524332303a207472616e7366657220616d6f756e742065786365656473206260008201527f616c616e63650000000000000000000000000000000000000000000000000000602082015250565b7f45524332303a207472616e736665722066726f6d20746865207a65726f20616460008201527f6472657373000000000000000000000000000000000000000000000000000000602082015250565b7f45524332303a20617070726f76652066726f6d20746865207a65726f2061646460008201527f7265737300000000000000000000000000000000000000000000000000000000602082015250565b7f45524332303a2064656372656173656420616c6c6f77616e63652062656c6f7760008201527f207a65726f000000000000000000000000000000000000000000000000000000602082015250565b7f45524332303a206d696e7420746f20746865207a65726f206164647265737300600082015250565b61195e8161156f565b811461196957600080fd5b50565b611975816115ad565b811461198057600080fd5b5056fea26469706673582212205cd7a0b12470e491f9bceabb0d815048b75fdca4544b4f11fff0b9911f70a4a064736f6c63430008070033",
					"opcodes": "PUSH1 0x80 PUSH1 0x40 MSTORE CALLVALUE DUP1 ISZERO PUSH3 0x11 JUMPI PUSH1 0x0 DUP1 REVERT JUMPDEST POP PUSH1 0x40 MLOAD DUP1 PUSH1 0x40 ADD PUSH1 0x40 MSTORE DUP1 PUSH1 0xB DUP2 MSTORE PUSH1 0x20 ADD PUSH32 0x4D6F66667520546F6B656E000000000000000000000000000000000000000000 DUP2 MSTORE POP PUSH1 0x40 MLOAD DUP1 PUSH1 0x40 ADD PUSH1 0x40 MSTORE DUP1 PUSH1 0x3 DUP2 MSTORE PUSH1 0x20 ADD PUSH32 0x4D46550000000000000000000000000000000000000000000000000000000000 DUP2 MSTORE POP DUP2 PUSH1 0x3 SWAP1 DUP1 MLOAD SWAP1 PUSH1 0x20 ADD SWAP1 PUSH3 0x96 SWAP3 SWAP2 SWAP1 PUSH3 0x299 JUMP JUMPDEST POP DUP1 PUSH1 0x4 SWAP1 DUP1 MLOAD SWAP1 PUSH1 0x20 ADD SWAP1 PUSH3 0xAF SWAP3 SWAP2 SWAP1 PUSH3 0x299 JUMP JUMPDEST POP POP POP PUSH3 0xCF CALLER PUSH11 0x84595161401484A000000 PUSH3 0x116 PUSH1 0x20 SHL PUSH1 0x20 SHR JUMP JUMPDEST CALLER PUSH1 0x5 PUSH1 0x0 PUSH2 0x100 EXP DUP2 SLOAD DUP2 PUSH20 0xFFFFFFFFFFFFFFFFFFFFFFFFFFFFFFFFFFFFFFFF MUL NOT AND SWAP1 DUP4 PUSH20 0xFFFFFFFFFFFFFFFFFFFFFFFFFFFFFFFFFFFFFFFF AND MUL OR SWAP1 SSTORE POP PUSH3 0x4F5 JUMP JUMPDEST PUSH1 0x0 PUSH20 0xFFFFFFFFFFFFFFFFFFFFFFFFFFFFFFFFFFFFFFFF AND DUP3 PUSH20 0xFFFFFFFFFFFFFFFFFFFFFFFFFFFFFFFFFFFFFFFF AND EQ ISZERO PUSH3 0x189 JUMPI PUSH1 0x40 MLOAD PUSH32 0x8C379A000000000000000000000000000000000000000000000000000000000 DUP2 MSTORE PUSH1 0x4 ADD PUSH3 0x180 SWAP1 PUSH3 0x381 JUMP JUMPDEST PUSH1 0x40 MLOAD DUP1 SWAP2 SUB SWAP1 REVERT JUMPDEST PUSH3 0x19D PUSH1 0x0 DUP4 DUP4 PUSH3 0x28F PUSH1 0x20 SHL PUSH1 0x20 SHR JUMP JUMPDEST DUP1 PUSH1 0x2 PUSH1 0x0 DUP3 DUP3 SLOAD PUSH3 0x1B1 SWAP2 SWAP1 PUSH3 0x3D1 JUMP JUMPDEST SWAP3 POP POP DUP2 SWAP1 SSTORE POP DUP1 PUSH1 0x0 DUP1 DUP5 PUSH20 0xFFFFFFFFFFFFFFFFFFFFFFFFFFFFFFFFFFFFFFFF AND PUSH20 0xFFFFFFFFFFFFFFFFFFFFFFFFFFFFFFFFFFFFFFFF AND DUP2 MSTORE PUSH1 0x20 ADD SWAP1 DUP2 MSTORE PUSH1 0x20 ADD PUSH1 0x0 KECCAK256 PUSH1 0x0 DUP3 DUP3 SLOAD PUSH3 0x208 SWAP2 SWAP1 PUSH3 0x3D1 JUMP JUMPDEST SWAP3 POP POP DUP2 SWAP1 SSTORE POP DUP2 PUSH20 0xFFFFFFFFFFFFFFFFFFFFFFFFFFFFFFFFFFFFFFFF AND PUSH1 0x0 PUSH20 0xFFFFFFFFFFFFFFFFFFFFFFFFFFFFFFFFFFFFFFFF AND PUSH32 0xDDF252AD1BE2C89B69C2B068FC378DAA952BA7F163C4A11628F55A4DF523B3EF DUP4 PUSH1 0x40 MLOAD PUSH3 0x26F SWAP2 SWAP1 PUSH3 0x3A3 JUMP JUMPDEST PUSH1 0x40 MLOAD DUP1 SWAP2 SUB SWAP1 LOG3 PUSH3 0x28B PUSH1 0x0 DUP4 DUP4 PUSH3 0x294 PUSH1 0x20 SHL PUSH1 0x20 SHR JUMP JUMPDEST POP POP JUMP JUMPDEST POP POP POP JUMP JUMPDEST POP POP POP JUMP JUMPDEST DUP3 DUP1 SLOAD PUSH3 0x2A7 SWAP1 PUSH3 0x438 JUMP JUMPDEST SWAP1 PUSH1 0x0 MSTORE PUSH1 0x20 PUSH1 0x0 KECCAK256 SWAP1 PUSH1 0x1F ADD PUSH1 0x20 SWAP1 DIV DUP2 ADD SWAP3 DUP3 PUSH3 0x2CB JUMPI PUSH1 0x0 DUP6 SSTORE PUSH3 0x317 JUMP JUMPDEST DUP3 PUSH1 0x1F LT PUSH3 0x2E6 JUMPI DUP1 MLOAD PUSH1 0xFF NOT AND DUP4 DUP1 ADD OR DUP6 SSTORE PUSH3 0x317 JUMP JUMPDEST DUP3 DUP1 ADD PUSH1 0x1 ADD DUP6 SSTORE DUP3 ISZERO PUSH3 0x317 JUMPI SWAP2 DUP3 ADD JUMPDEST DUP3 DUP2 GT ISZERO PUSH3 0x316 JUMPI DUP3 MLOAD DUP3 SSTORE SWAP2 PUSH1 0x20 ADD SWAP2 SWAP1 PUSH1 0x1 ADD SWAP1 PUSH3 0x2F9 JUMP JUMPDEST JUMPDEST POP SWAP1 POP PUSH3 0x326 SWAP2 SWAP1 PUSH3 0x32A JUMP JUMPDEST POP SWAP1 JUMP JUMPDEST JUMPDEST DUP1 DUP3 GT ISZERO PUSH3 0x345 JUMPI PUSH1 0x0 DUP2 PUSH1 0x0 SWAP1 SSTORE POP PUSH1 0x1 ADD PUSH3 0x32B JUMP JUMPDEST POP SWAP1 JUMP JUMPDEST PUSH1 0x0 PUSH3 0x358 PUSH1 0x1F DUP4 PUSH3 0x3C0 JUMP JUMPDEST SWAP2 POP PUSH3 0x365 DUP3 PUSH3 0x4CC JUMP JUMPDEST PUSH1 0x20 DUP3 ADD SWAP1 POP SWAP2 SWAP1 POP JUMP JUMPDEST PUSH3 0x37B DUP2 PUSH3 0x42E JUMP JUMPDEST DUP3 MSTORE POP POP JUMP JUMPDEST PUSH1 0x0 PUSH1 0x20 DUP3 ADD SWAP1 POP DUP2 DUP2 SUB PUSH1 0x0 DUP4 ADD MSTORE PUSH3 0x39C DUP2 PUSH3 0x349 JUMP JUMPDEST SWAP1 POP SWAP2 SWAP1 POP JUMP JUMPDEST PUSH1 0x0 PUSH1 0x20 DUP3 ADD SWAP1 POP PUSH3 0x3BA PUSH1 0x0 DUP4 ADD DUP5 PUSH3 0x370 JUMP JUMPDEST SWAP3 SWAP2 POP POP JUMP JUMPDEST PUSH1 0x0 DUP3 DUP3 MSTORE PUSH1 0x20 DUP3 ADD SWAP1 POP SWAP3 SWAP2 POP POP JUMP JUMPDEST PUSH1 0x0 PUSH3 0x3DE DUP3 PUSH3 0x42E JUMP JUMPDEST SWAP2 POP PUSH3 0x3EB DUP4 PUSH3 0x42E JUMP JUMPDEST SWAP3 POP DUP3 PUSH32 0xFFFFFFFFFFFFFFFFFFFFFFFFFFFFFFFFFFFFFFFFFFFFFFFFFFFFFFFFFFFFFFFF SUB DUP3 GT ISZERO PUSH3 0x423 JUMPI PUSH3 0x422 PUSH3 0x46E JUMP JUMPDEST JUMPDEST DUP3 DUP3 ADD SWAP1 POP SWAP3 SWAP2 POP POP JUMP JUMPDEST PUSH1 0x0 DUP2 SWAP1 POP SWAP2 SWAP1 POP JUMP JUMPDEST PUSH1 0x0 PUSH1 0x2 DUP3 DIV SWAP1 POP PUSH1 0x1 DUP3 AND DUP1 PUSH3 0x451 JUMPI PUSH1 0x7F DUP3 AND SWAP2 POP JUMPDEST PUSH1 0x20 DUP3 LT DUP2 EQ ISZERO PUSH3 0x468 JUMPI PUSH3 0x467 PUSH3 0x49D JUMP JUMPDEST JUMPDEST POP SWAP2 SWAP1 POP JUMP JUMPDEST PUSH32 0x4E487B7100000000000000000000000000000000000000000000000000000000 PUSH1 0x0 MSTORE PUSH1 0x11 PUSH1 0x4 MSTORE PUSH1 0x24 PUSH1 0x0 REVERT JUMPDEST PUSH32 0x4E487B7100000000000000000000000000000000000000000000000000000000 PUSH1 0x0 MSTORE PUSH1 0x22 PUSH1 0x4 MSTORE PUSH1 0x24 PUSH1 0x0 REVERT JUMPDEST PUSH32 0x45524332303A206D696E7420746F20746865207A65726F206164647265737300 PUSH1 0x0 DUP3 ADD MSTORE POP JUMP JUMPDEST PUSH2 0x19B9 DUP1 PUSH3 0x505 PUSH1 0x0 CODECOPY PUSH1 0x0 RETURN INVALID PUSH1 0x80 PUSH1 0x40 MSTORE CALLVALUE DUP1 ISZERO PUSH2 0x10 JUMPI PUSH1 0x0 DUP1 REVERT JUMPDEST POP PUSH1 0x4 CALLDATASIZE LT PUSH2 0xF5 JUMPI PUSH1 0x0 CALLDATALOAD PUSH1 0xE0 SHR DUP1 PUSH4 0x313CE567 GT PUSH2 0x97 JUMPI DUP1 PUSH4 0x95D89B41 GT PUSH2 0x66 JUMPI DUP1 PUSH4 0x95D89B41 EQ PUSH2 0x29A JUMPI DUP1 PUSH4 0xA457C2D7 EQ PUSH2 0x2B8 JUMPI DUP1 PUSH4 0xA9059CBB EQ PUSH2 0x2E8 JUMPI DUP1 PUSH4 0xDD62ED3E EQ PUSH2 0x318 JUMPI PUSH2 0xF5 JUMP JUMPDEST DUP1 PUSH4 0x313CE567 EQ PUSH2 0x200 JUMPI DUP1 PUSH4 0x39509351 EQ PUSH2 0x21E JUMPI DUP1 PUSH4 0x40C10F19 EQ PUSH2 0x24E JUMPI DUP1 PUSH4 0x70A08231 EQ PUSH2 0x26A JUMPI PUSH2 0xF5 JUMP JUMPDEST DUP1 PUSH4 0x95EA7B3 GT PUSH2 0xD3 JUMPI DUP1 PUSH4 0x95EA7B3 EQ PUSH2 0x152 JUMPI DUP1 PUSH4 0x18160DDD EQ PUSH2 0x182 JUMPI DUP1 PUSH4 0x23B872DD EQ PUSH2 0x1A0 JUMPI DUP1 PUSH4 0x27E235E3 EQ PUSH2 0x1D0 JUMPI PUSH2 0xF5 JUMP JUMPDEST DUP1 PUSH4 0x45191E1 EQ PUSH2 0xFA JUMPI DUP1 PUSH4 0x6FDDE03 EQ PUSH2 0x116 JUMPI DUP1 PUSH4 0x7546172 EQ PUSH2 0x134 JUMPI JUMPDEST PUSH1 0x0 DUP1 REVERT JUMPDEST PUSH2 0x114 PUSH1 0x4 DUP1 CALLDATASIZE SUB DUP2 ADD SWAP1 PUSH2 0x10F SWAP2 SWAP1 PUSH2 0x1025 JUMP JUMPDEST PUSH2 0x348 JUMP JUMPDEST STOP JUMPDEST PUSH2 0x11E PUSH2 0x454 JUMP JUMPDEST PUSH1 0x40 MLOAD PUSH2 0x12B SWAP2 SWAP1 PUSH2 0x130C JUMP JUMPDEST PUSH1 0x40 MLOAD DUP1 SWAP2 SUB SWAP1 RETURN JUMPDEST PUSH2 0x13C PUSH2 0x4E6 JUMP JUMPDEST PUSH1 0x40 MLOAD PUSH2 0x149 SWAP2 SWAP1 PUSH2 0x1296 JUMP JUMPDEST PUSH1 0x40 MLOAD DUP1 SWAP2 SUB SWAP1 RETURN JUMPDEST PUSH2 0x16C PUSH1 0x4 DUP1 CALLDATASIZE SUB DUP2 ADD SWAP1 PUSH2 0x167 SWAP2 SWAP1 PUSH2 0xFE5 JUMP JUMPDEST PUSH2 0x50C JUMP JUMPDEST PUSH1 0x40 MLOAD PUSH2 0x179 SWAP2 SWAP1 PUSH2 0x12F1 JUMP JUMPDEST PUSH1 0x40 MLOAD DUP1 SWAP2 SUB SWAP1 RETURN JUMPDEST PUSH2 0x18A PUSH2 0x52F JUMP JUMPDEST PUSH1 0x40 MLOAD PUSH2 0x197 SWAP2 SWAP1 PUSH2 0x142E JUMP JUMPDEST PUSH1 0x40 MLOAD DUP1 SWAP2 SUB SWAP1 RETURN JUMPDEST PUSH2 0x1BA PUSH1 0x4 DUP1 CALLDATASIZE SUB DUP2 ADD SWAP1 PUSH2 0x1B5 SWAP2 SWAP1 PUSH2 0xF92 JUMP JUMPDEST PUSH2 0x539 JUMP JUMPDEST PUSH1 0x40 MLOAD PUSH2 0x1C7 SWAP2 SWAP1 PUSH2 0x12F1 JUMP JUMPDEST PUSH1 0x40 MLOAD DUP1 SWAP2 SUB SWAP1 RETURN JUMPDEST PUSH2 0x1EA PUSH1 0x4 DUP1 CALLDATASIZE SUB DUP2 ADD SWAP1 PUSH2 0x1E5 SWAP2 SWAP1 PUSH2 0xF25 JUMP JUMPDEST PUSH2 0x568 JUMP JUMPDEST PUSH1 0x40 MLOAD PUSH2 0x1F7 SWAP2 SWAP1 PUSH2 0x142E JUMP JUMPDEST PUSH1 0x40 MLOAD DUP1 SWAP2 SUB SWAP1 RETURN JUMPDEST PUSH2 0x208 PUSH2 0x580 JUMP JUMPDEST PUSH1 0x40 MLOAD PUSH2 0x215 SWAP2 SWAP1 PUSH2 0x1449 JUMP JUMPDEST PUSH1 0x40 MLOAD DUP1 SWAP2 SUB SWAP1 RETURN JUMPDEST PUSH2 0x238 PUSH1 0x4 DUP1 CALLDATASIZE SUB DUP2 ADD SWAP1 PUSH2 0x233 SWAP2 SWAP1 PUSH2 0xFE5 JUMP JUMPDEST PUSH2 0x589 JUMP JUMPDEST PUSH1 0x40 MLOAD PUSH2 0x245 SWAP2 SWAP1 PUSH2 0x12F1 JUMP JUMPDEST PUSH1 0x40 MLOAD DUP1 SWAP2 SUB SWAP1 RETURN JUMPDEST PUSH2 0x268 PUSH1 0x4 DUP1 CALLDATASIZE SUB DUP2 ADD SWAP1 PUSH2 0x263 SWAP2 SWAP1 PUSH2 0xFE5 JUMP JUMPDEST PUSH2 0x5C0 JUMP JUMPDEST STOP JUMPDEST PUSH2 0x284 PUSH1 0x4 DUP1 CALLDATASIZE SUB DUP2 ADD SWAP1 PUSH2 0x27F SWAP2 SWAP1 PUSH2 0xF25 JUMP JUMPDEST PUSH2 0x660 JUMP JUMPDEST PUSH1 0x40 MLOAD PUSH2 0x291 SWAP2 SWAP1 PUSH2 0x142E JUMP JUMPDEST PUSH1 0x40 MLOAD DUP1 SWAP2 SUB SWAP1 RETURN JUMPDEST PUSH2 0x2A2 PUSH2 0x6A8 JUMP JUMPDEST PUSH1 0x40 MLOAD PUSH2 0x2AF SWAP2 SWAP1 PUSH2 0x130C JUMP JUMPDEST PUSH1 0x40 MLOAD DUP1 SWAP2 SUB SWAP1 RETURN JUMPDEST PUSH2 0x2D2 PUSH1 0x4 DUP1 CALLDATASIZE SUB DUP2 ADD SWAP1 PUSH2 0x2CD SWAP2 SWAP1 PUSH2 0xFE5 JUMP JUMPDEST PUSH2 0x73A JUMP JUMPDEST PUSH1 0x40 MLOAD PUSH2 0x2DF SWAP2 SWAP1 PUSH2 0x12F1 JUMP JUMPDEST PUSH1 0x40 MLOAD DUP1 SWAP2 SUB SWAP1 RETURN JUMPDEST PUSH2 0x302 PUSH1 0x4 DUP1 CALLDATASIZE SUB DUP2 ADD SWAP1 PUSH2 0x2FD SWAP2 SWAP1 PUSH2 0xFE5 JUMP JUMPDEST PUSH2 0x7B1 JUMP JUMPDEST PUSH1 0x40 MLOAD PUSH2 0x30F SWAP2 SWAP1 PUSH2 0x12F1 JUMP JUMPDEST PUSH1 0x40 MLOAD DUP1 SWAP2 SUB SWAP1 RETURN JUMPDEST PUSH2 0x332 PUSH1 0x4 DUP1 CALLDATASIZE SUB DUP2 ADD SWAP1 PUSH2 0x32D SWAP2 SWAP1 PUSH2 0xF52 JUMP JUMPDEST PUSH2 0x7D4 JUMP JUMPDEST PUSH1 0x40 MLOAD PUSH2 0x33F SWAP2 SWAP1 PUSH2 0x142E JUMP JUMPDEST PUSH1 0x40 MLOAD DUP1 SWAP2 SUB SWAP1 RETURN JUMPDEST PUSH32 0xF0ED029E274DABB7636AEED7333CF47BC8C97DD6EB6D8FAEA6E9BFBD6620BEBE PUSH1 0x6 PUSH1 0x0 CALLER PUSH20 0xFFFFFFFFFFFFFFFFFFFFFFFFFFFFFFFFFFFFFFFF AND PUSH20 0xFFFFFFFFFFFFFFFFFFFFFFFFFFFFFFFFFFFFFFFF AND DUP2 MSTORE PUSH1 0x20 ADD SWAP1 DUP2 MSTORE PUSH1 0x20 ADD PUSH1 0x0 KECCAK256 SLOAD PUSH1 0x40 MLOAD PUSH2 0x3B6 SWAP2 SWAP1 PUSH2 0x142E JUMP JUMPDEST PUSH1 0x40 MLOAD DUP1 SWAP2 SUB SWAP1 LOG1 PUSH1 0x0 JUMPDEST DUP4 DUP4 SWAP1 POP DUP2 LT ISZERO PUSH2 0x411 JUMPI PUSH2 0x3FE CALLER DUP6 DUP6 DUP5 DUP2 DUP2 LT PUSH2 0x3E3 JUMPI PUSH2 0x3E2 PUSH2 0x16D0 JUMP JUMPDEST JUMPDEST SWAP1 POP PUSH1 0x20 MUL ADD PUSH1 0x20 DUP2 ADD SWAP1 PUSH2 0x3F8 SWAP2 SWAP1 PUSH2 0xF25 JUMP JUMPDEST DUP5 PUSH2 0x85B JUMP JUMPDEST DUP1 DUP1 PUSH2 0x409 SWAP1 PUSH2 0x1629 JUMP JUMPDEST SWAP2 POP POP PUSH2 0x3C1 JUMP JUMPDEST POP PUSH32 0xD33AF69E2BDB37DFD3A759E5A2BC0F70E1976336B64F9EB59C9814D3F5D238E0 CALLER DUP5 DUP5 DUP5 PUSH1 0x40 MLOAD PUSH2 0x447 SWAP5 SWAP4 SWAP3 SWAP2 SWAP1 PUSH2 0x12B1 JUMP JUMPDEST PUSH1 0x40 MLOAD DUP1 SWAP2 SUB SWAP1 LOG1 POP POP POP JUMP JUMPDEST PUSH1 0x60 PUSH1 0x3 DUP1 SLOAD PUSH2 0x463 SWAP1 PUSH2 0x15F7 JUMP JUMPDEST DUP1 PUSH1 0x1F ADD PUSH1 0x20 DUP1 SWAP2 DIV MUL PUSH1 0x20 ADD PUSH1 0x40 MLOAD SWAP1 DUP2 ADD PUSH1 0x40 MSTORE DUP1 SWAP3 SWAP2 SWAP1 DUP2 DUP2 MSTORE PUSH1 0x20 ADD DUP3 DUP1 SLOAD PUSH2 0x48F SWAP1 PUSH2 0x15F7 JUMP JUMPDEST DUP1 ISZERO PUSH2 0x4DC JUMPI DUP1 PUSH1 0x1F LT PUSH2 0x4B1 JUMPI PUSH2 0x100 DUP1 DUP4 SLOAD DIV MUL DUP4 MSTORE SWAP2 PUSH1 0x20 ADD SWAP2 PUSH2 0x4DC JUMP JUMPDEST DUP3 ADD SWAP2 SWAP1 PUSH1 0x0 MSTORE PUSH1 0x20 PUSH1 0x0 KECCAK256 SWAP1 JUMPDEST DUP2 SLOAD DUP2 MSTORE SWAP1 PUSH1 0x1 ADD SWAP1 PUSH1 0x20 ADD DUP1 DUP4 GT PUSH2 0x4BF JUMPI DUP3 SWAP1 SUB PUSH1 0x1F AND DUP3 ADD SWAP2 JUMPDEST POP POP POP POP POP SWAP1 POP SWAP1 JUMP JUMPDEST PUSH1 0x5 PUSH1 0x0 SWAP1 SLOAD SWAP1 PUSH2 0x100 EXP SWAP1 DIV PUSH20 0xFFFFFFFFFFFFFFFFFFFFFFFFFFFFFFFFFFFFFFFF AND DUP2 JUMP JUMPDEST PUSH1 0x0 DUP1 PUSH2 0x517 PUSH2 0xADC JUMP JUMPDEST SWAP1 POP PUSH2 0x524 DUP2 DUP6 DUP6 PUSH2 0xAE4 JUMP JUMPDEST PUSH1 0x1 SWAP2 POP POP SWAP3 SWAP2 POP POP JUMP JUMPDEST PUSH1 0x0 PUSH1 0x2 SLOAD SWAP1 POP SWAP1 JUMP JUMPDEST PUSH1 0x0 DUP1 PUSH2 0x544 PUSH2 0xADC JUMP JUMPDEST SWAP1 POP PUSH2 0x551 DUP6 DUP3 DUP6 PUSH2 0xCAF JUMP JUMPDEST PUSH2 0x55C DUP6 DUP6 DUP6 PUSH2 0x85B JUMP JUMPDEST PUSH1 0x1 SWAP2 POP POP SWAP4 SWAP3 POP POP POP JUMP JUMPDEST PUSH1 0x6 PUSH1 0x20 MSTORE DUP1 PUSH1 0x0 MSTORE PUSH1 0x40 PUSH1 0x0 KECCAK256 PUSH1 0x0 SWAP2 POP SWAP1 POP SLOAD DUP2 JUMP JUMPDEST PUSH1 0x0 PUSH1 0x12 SWAP1 POP SWAP1 JUMP JUMPDEST PUSH1 0x0 DUP1 PUSH2 0x594 PUSH2 0xADC JUMP JUMPDEST SWAP1 POP PUSH2 0x5B5 DUP2 DUP6 DUP6 PUSH2 0x5A6 DUP6 DUP10 PUSH2 0x7D4 JUMP JUMPDEST PUSH2 0x5B0 SWAP2 SWAP1 PUSH2 0x14BF JUMP JUMPDEST PUSH2 0xAE4 JUMP JUMPDEST PUSH1 0x1 SWAP2 POP POP SWAP3 SWAP2 POP POP JUMP JUMPDEST PUSH1 0x5 PUSH1 0x0 SWAP1 SLOAD SWAP1 PUSH2 0x100 EXP SWAP1 DIV PUSH20 0xFFFFFFFFFFFFFFFFFFFFFFFFFFFFFFFFFFFFFFFF AND PUSH20 0xFFFFFFFFFFFFFFFFFFFFFFFFFFFFFFFFFFFFFFFF AND CALLER PUSH20 0xFFFFFFFFFFFFFFFFFFFFFFFFFFFFFFFFFFFFFFFF AND EQ PUSH2 0x61A JUMPI PUSH1 0x0 DUP1 REVERT JUMPDEST PUSH25 0x9F4F2726179A224501D762422C946590D91000000000000000 DUP2 LT PUSH2 0x63F JUMPI PUSH1 0x0 DUP1 REVERT JUMPDEST PUSH2 0x65C CALLER PUSH8 0xDE0B6B3A7640000 DUP4 PUSH2 0x657 SWAP2 SWAP1 PUSH2 0x1515 JUMP JUMPDEST PUSH2 0xD3B JUMP JUMPDEST POP POP JUMP JUMPDEST PUSH1 0x0 DUP1 PUSH1 0x0 DUP4 PUSH20 0xFFFFFFFFFFFFFFFFFFFFFFFFFFFFFFFFFFFFFFFF AND PUSH20 0xFFFFFFFFFFFFFFFFFFFFFFFFFFFFFFFFFFFFFFFF AND DUP2 MSTORE PUSH1 0x20 ADD SWAP1 DUP2 MSTORE PUSH1 0x20 ADD PUSH1 0x0 KECCAK256 SLOAD SWAP1 POP SWAP2 SWAP1 POP JUMP JUMPDEST PUSH1 0x60 PUSH1 0x4 DUP1 SLOAD PUSH2 0x6B7 SWAP1 PUSH2 0x15F7 JUMP JUMPDEST DUP1 PUSH1 0x1F ADD PUSH1 0x20 DUP1 SWAP2 DIV MUL PUSH1 0x20 ADD PUSH1 0x40 MLOAD SWAP1 DUP2 ADD PUSH1 0x40 MSTORE DUP1 SWAP3 SWAP2 SWAP1 DUP2 DUP2 MSTORE PUSH1 0x20 ADD DUP3 DUP1 SLOAD PUSH2 0x6E3 SWAP1 PUSH2 0x15F7 JUMP JUMPDEST DUP1 ISZERO PUSH2 0x730 JUMPI DUP1 PUSH1 0x1F LT PUSH2 0x705 JUMPI PUSH2 0x100 DUP1 DUP4 SLOAD DIV MUL DUP4 MSTORE SWAP2 PUSH1 0x20 ADD SWAP2 PUSH2 0x730 JUMP JUMPDEST DUP3 ADD SWAP2 SWAP1 PUSH1 0x0 MSTORE PUSH1 0x20 PUSH1 0x0 KECCAK256 SWAP1 JUMPDEST DUP2 SLOAD DUP2 MSTORE SWAP1 PUSH1 0x1 ADD SWAP1 PUSH1 0x20 ADD DUP1 DUP4 GT PUSH2 0x713 JUMPI DUP3 SWAP1 SUB PUSH1 0x1F AND DUP3 ADD SWAP2 JUMPDEST POP POP POP POP POP SWAP1 POP SWAP1 JUMP JUMPDEST PUSH1 0x0 DUP1 PUSH2 0x745 PUSH2 0xADC JUMP JUMPDEST SWAP1 POP PUSH1 0x0 PUSH2 0x753 DUP3 DUP7 PUSH2 0x7D4 JUMP JUMPDEST SWAP1 POP DUP4 DUP2 LT ISZERO PUSH2 0x798 JUMPI PUSH1 0x40 MLOAD PUSH32 0x8C379A000000000000000000000000000000000000000000000000000000000 DUP2 MSTORE PUSH1 0x4 ADD PUSH2 0x78F SWAP1 PUSH2 0x13EE JUMP JUMPDEST PUSH1 0x40 MLOAD DUP1 SWAP2 SUB SWAP1 REVERT JUMPDEST PUSH2 0x7A5 DUP3 DUP7 DUP7 DUP5 SUB PUSH2 0xAE4 JUMP JUMPDEST PUSH1 0x1 SWAP3 POP POP POP SWAP3 SWAP2 POP POP JUMP JUMPDEST PUSH1 0x0 DUP1 PUSH2 0x7BC PUSH2 0xADC JUMP JUMPDEST SWAP1 POP PUSH2 0x7C9 DUP2 DUP6 DUP6 PUSH2 0x85B JUMP JUMPDEST PUSH1 0x1 SWAP2 POP POP SWAP3 SWAP2 POP POP JUMP JUMPDEST PUSH1 0x0 PUSH1 0x1 PUSH1 0x0 DUP5 PUSH20 0xFFFFFFFFFFFFFFFFFFFFFFFFFFFFFFFFFFFFFFFF AND PUSH20 0xFFFFFFFFFFFFFFFFFFFFFFFFFFFFFFFFFFFFFFFF AND DUP2 MSTORE PUSH1 0x20 ADD SWAP1 DUP2 MSTORE PUSH1 0x20 ADD PUSH1 0x0 KECCAK256 PUSH1 0x0 DUP4 PUSH20 0xFFFFFFFFFFFFFFFFFFFFFFFFFFFFFFFFFFFFFFFF AND PUSH20 0xFFFFFFFFFFFFFFFFFFFFFFFFFFFFFFFFFFFFFFFF AND DUP2 MSTORE PUSH1 0x20 ADD SWAP1 DUP2 MSTORE PUSH1 0x20 ADD PUSH1 0x0 KECCAK256 SLOAD SWAP1 POP SWAP3 SWAP2 POP POP JUMP JUMPDEST PUSH1 0x0 PUSH20 0xFFFFFFFFFFFFFFFFFFFFFFFFFFFFFFFFFFFFFFFF AND DUP4 PUSH20 0xFFFFFFFFFFFFFFFFFFFFFFFFFFFFFFFFFFFFFFFF AND EQ ISZERO PUSH2 0x8CB JUMPI PUSH1 0x40 MLOAD PUSH32 0x8C379A000000000000000000000000000000000000000000000000000000000 DUP2 MSTORE PUSH1 0x4 ADD PUSH2 0x8C2 SWAP1 PUSH2 0x13AE JUMP JUMPDEST PUSH1 0x40 MLOAD DUP1 SWAP2 SUB SWAP1 REVERT JUMPDEST PUSH1 0x0 PUSH20 0xFFFFFFFFFFFFFFFFFFFFFFFFFFFFFFFFFFFFFFFF AND DUP3 PUSH20 0xFFFFFFFFFFFFFFFFFFFFFFFFFFFFFFFFFFFFFFFF AND EQ ISZERO PUSH2 0x93B JUMPI PUSH1 0x40 MLOAD PUSH32 0x8C379A000000000000000000000000000000000000000000000000000000000 DUP2 MSTORE PUSH1 0x4 ADD PUSH2 0x932 SWAP1 PUSH2 0x132E JUMP JUMPDEST PUSH1 0x40 MLOAD DUP1 SWAP2 SUB SWAP1 REVERT JUMPDEST PUSH2 0x946 DUP4 DUP4 DUP4 PUSH2 0xE9B JUMP JUMPDEST PUSH1 0x0 DUP1 PUSH1 0x0 DUP6 PUSH20 0xFFFFFFFFFFFFFFFFFFFFFFFFFFFFFFFFFFFFFFFF AND PUSH20 0xFFFFFFFFFFFFFFFFFFFFFFFFFFFFFFFFFFFFFFFF AND DUP2 MSTORE PUSH1 0x20 ADD SWAP1 DUP2 MSTORE PUSH1 0x20 ADD PUSH1 0x0 KECCAK256 SLOAD SWAP1 POP DUP2 DUP2 LT ISZERO PUSH2 0x9CC JUMPI PUSH1 0x40 MLOAD PUSH32 0x8C379A000000000000000000000000000000000000000000000000000000000 DUP2 MSTORE PUSH1 0x4 ADD PUSH2 0x9C3 SWAP1 PUSH2 0x138E JUMP JUMPDEST PUSH1 0x40 MLOAD DUP1 SWAP2 SUB SWAP1 REVERT JUMPDEST DUP2 DUP2 SUB PUSH1 0x0 DUP1 DUP7 PUSH20 0xFFFFFFFFFFFFFFFFFFFFFFFFFFFFFFFFFFFFFFFF AND PUSH20 0xFFFFFFFFFFFFFFFFFFFFFFFFFFFFFFFFFFFFFFFF AND DUP2 MSTORE PUSH1 0x20 ADD SWAP1 DUP2 MSTORE PUSH1 0x20 ADD PUSH1 0x0 KECCAK256 DUP2 SWAP1 SSTORE POP DUP2 PUSH1 0x0 DUP1 DUP6 PUSH20 0xFFFFFFFFFFFFFFFFFFFFFFFFFFFFFFFFFFFFFFFF AND PUSH20 0xFFFFFFFFFFFFFFFFFFFFFFFFFFFFFFFFFFFFFFFF AND DUP2 MSTORE PUSH1 0x20 ADD SWAP1 DUP2 MSTORE PUSH1 0x20 ADD PUSH1 0x0 KECCAK256 PUSH1 0x0 DUP3 DUP3 SLOAD PUSH2 0xA5F SWAP2 SWAP1 PUSH2 0x14BF JUMP JUMPDEST SWAP3 POP POP DUP2 SWAP1 SSTORE POP DUP3 PUSH20 0xFFFFFFFFFFFFFFFFFFFFFFFFFFFFFFFFFFFFFFFF AND DUP5 PUSH20 0xFFFFFFFFFFFFFFFFFFFFFFFFFFFFFFFFFFFFFFFF AND PUSH32 0xDDF252AD1BE2C89B69C2B068FC378DAA952BA7F163C4A11628F55A4DF523B3EF DUP5 PUSH1 0x40 MLOAD PUSH2 0xAC3 SWAP2 SWAP1 PUSH2 0x142E JUMP JUMPDEST PUSH1 0x40 MLOAD DUP1 SWAP2 SUB SWAP1 LOG3 PUSH2 0xAD6 DUP5 DUP5 DUP5 PUSH2 0xEA0 JUMP JUMPDEST POP POP POP POP JUMP JUMPDEST PUSH1 0x0 CALLER SWAP1 POP SWAP1 JUMP JUMPDEST PUSH1 0x0 PUSH20 0xFFFFFFFFFFFFFFFFFFFFFFFFFFFFFFFFFFFFFFFF AND DUP4 PUSH20 0xFFFFFFFFFFFFFFFFFFFFFFFFFFFFFFFFFFFFFFFF AND EQ ISZERO PUSH2 0xB54 JUMPI PUSH1 0x40 MLOAD PUSH32 0x8C379A000000000000000000000000000000000000000000000000000000000 DUP2 MSTORE PUSH1 0x4 ADD PUSH2 0xB4B SWAP1 PUSH2 0x13CE JUMP JUMPDEST PUSH1 0x40 MLOAD DUP1 SWAP2 SUB SWAP1 REVERT JUMPDEST PUSH1 0x0 PUSH20 0xFFFFFFFFFFFFFFFFFFFFFFFFFFFFFFFFFFFFFFFF AND DUP3 PUSH20 0xFFFFFFFFFFFFFFFFFFFFFFFFFFFFFFFFFFFFFFFF AND EQ ISZERO PUSH2 0xBC4 JUMPI PUSH1 0x40 MLOAD PUSH32 0x8C379A000000000000000000000000000000000000000000000000000000000 DUP2 MSTORE PUSH1 0x4 ADD PUSH2 0xBBB SWAP1 PUSH2 0x134E JUMP JUMPDEST PUSH1 0x40 MLOAD DUP1 SWAP2 SUB SWAP1 REVERT JUMPDEST DUP1 PUSH1 0x1 PUSH1 0x0 DUP6 PUSH20 0xFFFFFFFFFFFFFFFFFFFFFFFFFFFFFFFFFFFFFFFF AND PUSH20 0xFFFFFFFFFFFFFFFFFFFFFFFFFFFFFFFFFFFFFFFF AND DUP2 MSTORE PUSH1 0x20 ADD SWAP1 DUP2 MSTORE PUSH1 0x20 ADD PUSH1 0x0 KECCAK256 PUSH1 0x0 DUP5 PUSH20 0xFFFFFFFFFFFFFFFFFFFFFFFFFFFFFFFFFFFFFFFF AND PUSH20 0xFFFFFFFFFFFFFFFFFFFFFFFFFFFFFFFFFFFFFFFF AND DUP2 MSTORE PUSH1 0x20 ADD SWAP1 DUP2 MSTORE PUSH1 0x20 ADD PUSH1 0x0 KECCAK256 DUP2 SWAP1 SSTORE POP DUP2 PUSH20 0xFFFFFFFFFFFFFFFFFFFFFFFFFFFFFFFFFFFFFFFF AND DUP4 PUSH20 0xFFFFFFFFFFFFFFFFFFFFFFFFFFFFFFFFFFFFFFFF AND PUSH32 0x8C5BE1E5EBEC7D5BD14F71427D1E84F3DD0314C0F7B2291E5B200AC8C7C3B925 DUP4 PUSH1 0x40 MLOAD PUSH2 0xCA2 SWAP2 SWAP1 PUSH2 0x142E JUMP JUMPDEST PUSH1 0x40 MLOAD DUP1 SWAP2 SUB SWAP1 LOG3 POP POP POP JUMP JUMPDEST PUSH1 0x0 PUSH2 0xCBB DUP5 DUP5 PUSH2 0x7D4 JUMP JUMPDEST SWAP1 POP PUSH32 0xFFFFFFFFFFFFFFFFFFFFFFFFFFFFFFFFFFFFFFFFFFFFFFFFFFFFFFFFFFFFFFFF DUP2 EQ PUSH2 0xD35 JUMPI DUP2 DUP2 LT ISZERO PUSH2 0xD27 JUMPI PUSH1 0x40 MLOAD PUSH32 0x8C379A000000000000000000000000000000000000000000000000000000000 DUP2 MSTORE PUSH1 0x4 ADD PUSH2 0xD1E SWAP1 PUSH2 0x136E JUMP JUMPDEST PUSH1 0x40 MLOAD DUP1 SWAP2 SUB SWAP1 REVERT JUMPDEST PUSH2 0xD34 DUP5 DUP5 DUP5 DUP5 SUB PUSH2 0xAE4 JUMP JUMPDEST JUMPDEST POP POP POP POP JUMP JUMPDEST PUSH1 0x0 PUSH20 0xFFFFFFFFFFFFFFFFFFFFFFFFFFFFFFFFFFFFFFFF AND DUP3 PUSH20 0xFFFFFFFFFFFFFFFFFFFFFFFFFFFFFFFFFFFFFFFF AND EQ ISZERO PUSH2 0xDAB JUMPI PUSH1 0x40 MLOAD PUSH32 0x8C379A000000000000000000000000000000000000000000000000000000000 DUP2 MSTORE PUSH1 0x4 ADD PUSH2 0xDA2 SWAP1 PUSH2 0x140E JUMP JUMPDEST PUSH1 0x40 MLOAD DUP1 SWAP2 SUB SWAP1 REVERT JUMPDEST PUSH2 0xDB7 PUSH1 0x0 DUP4 DUP4 PUSH2 0xE9B JUMP JUMPDEST DUP1 PUSH1 0x2 PUSH1 0x0 DUP3 DUP3 SLOAD PUSH2 0xDC9 SWAP2 SWAP1 PUSH2 0x14BF JUMP JUMPDEST SWAP3 POP POP DUP2 SWAP1 SSTORE POP DUP1 PUSH1 0x0 DUP1 DUP5 PUSH20 0xFFFFFFFFFFFFFFFFFFFFFFFFFFFFFFFFFFFFFFFF AND PUSH20 0xFFFFFFFFFFFFFFFFFFFFFFFFFFFFFFFFFFFFFFFF AND DUP2 MSTORE PUSH1 0x20 ADD SWAP1 DUP2 MSTORE PUSH1 0x20 ADD PUSH1 0x0 KECCAK256 PUSH1 0x0 DUP3 DUP3 SLOAD PUSH2 0xE1E SWAP2 SWAP1 PUSH2 0x14BF JUMP JUMPDEST SWAP3 POP POP DUP2 SWAP1 SSTORE POP DUP2 PUSH20 0xFFFFFFFFFFFFFFFFFFFFFFFFFFFFFFFFFFFFFFFF AND PUSH1 0x0 PUSH20 0xFFFFFFFFFFFFFFFFFFFFFFFFFFFFFFFFFFFFFFFF AND PUSH32 0xDDF252AD1BE2C89B69C2B068FC378DAA952BA7F163C4A11628F55A4DF523B3EF DUP4 PUSH1 0x40 MLOAD PUSH2 0xE83 SWAP2 SWAP1 PUSH2 0x142E JUMP JUMPDEST PUSH1 0x40 MLOAD DUP1 SWAP2 SUB SWAP1 LOG3 PUSH2 0xE97 PUSH1 0x0 DUP4 DUP4 PUSH2 0xEA0 JUMP JUMPDEST POP POP JUMP JUMPDEST POP POP POP JUMP JUMPDEST POP POP POP JUMP JUMPDEST PUSH1 0x0 DUP2 CALLDATALOAD SWAP1 POP PUSH2 0xEB4 DUP2 PUSH2 0x1955 JUMP JUMPDEST SWAP3 SWAP2 POP POP JUMP JUMPDEST PUSH1 0x0 DUP1 DUP4 PUSH1 0x1F DUP5 ADD SLT PUSH2 0xED0 JUMPI PUSH2 0xECF PUSH2 0x1704 JUMP JUMPDEST JUMPDEST DUP3 CALLDATALOAD SWAP1 POP PUSH8 0xFFFFFFFFFFFFFFFF DUP2 GT ISZERO PUSH2 0xEED JUMPI PUSH2 0xEEC PUSH2 0x16FF JUMP JUMPDEST JUMPDEST PUSH1 0x20 DUP4 ADD SWAP2 POP DUP4 PUSH1 0x20 DUP3 MUL DUP4 ADD GT ISZERO PUSH2 0xF09 JUMPI PUSH2 0xF08 PUSH2 0x1709 JUMP JUMPDEST JUMPDEST SWAP3 POP SWAP3 SWAP1 POP JUMP JUMPDEST PUSH1 0x0 DUP2 CALLDATALOAD SWAP1 POP PUSH2 0xF1F DUP2 PUSH2 0x196C JUMP JUMPDEST SWAP3 SWAP2 POP POP JUMP JUMPDEST PUSH1 0x0 PUSH1 0x20 DUP3 DUP5 SUB SLT ISZERO PUSH2 0xF3B JUMPI PUSH2 0xF3A PUSH2 0x1713 JUMP JUMPDEST JUMPDEST PUSH1 0x0 PUSH2 0xF49 DUP5 DUP3 DUP6 ADD PUSH2 0xEA5 JUMP JUMPDEST SWAP2 POP POP SWAP3 SWAP2 POP POP JUMP JUMPDEST PUSH1 0x0 DUP1 PUSH1 0x40 DUP4 DUP6 SUB SLT ISZERO PUSH2 0xF69 JUMPI PUSH2 0xF68 PUSH2 0x1713 JUMP JUMPDEST JUMPDEST PUSH1 0x0 PUSH2 0xF77 DUP6 DUP3 DUP7 ADD PUSH2 0xEA5 JUMP JUMPDEST SWAP3 POP POP PUSH1 0x20 PUSH2 0xF88 DUP6 DUP3 DUP7 ADD PUSH2 0xEA5 JUMP JUMPDEST SWAP2 POP POP SWAP3 POP SWAP3 SWAP1 POP JUMP JUMPDEST PUSH1 0x0 DUP1 PUSH1 0x0 PUSH1 0x60 DUP5 DUP7 SUB SLT ISZERO PUSH2 0xFAB JUMPI PUSH2 0xFAA PUSH2 0x1713 JUMP JUMPDEST JUMPDEST PUSH1 0x0 PUSH2 0xFB9 DUP7 DUP3 DUP8 ADD PUSH2 0xEA5 JUMP JUMPDEST SWAP4 POP POP PUSH1 0x20 PUSH2 0xFCA DUP7 DUP3 DUP8 ADD PUSH2 0xEA5 JUMP JUMPDEST SWAP3 POP POP PUSH1 0x40 PUSH2 0xFDB DUP7 DUP3 DUP8 ADD PUSH2 0xF10 JUMP JUMPDEST SWAP2 POP POP SWAP3 POP SWAP3 POP SWAP3 JUMP JUMPDEST PUSH1 0x0 DUP1 PUSH1 0x40 DUP4 DUP6 SUB SLT ISZERO PUSH2 0xFFC JUMPI PUSH2 0xFFB PUSH2 0x1713 JUMP JUMPDEST JUMPDEST PUSH1 0x0 PUSH2 0x100A DUP6 DUP3 DUP7 ADD PUSH2 0xEA5 JUMP JUMPDEST SWAP3 POP POP PUSH1 0x20 PUSH2 0x101B DUP6 DUP3 DUP7 ADD PUSH2 0xF10 JUMP JUMPDEST SWAP2 POP POP SWAP3 POP SWAP3 SWAP1 POP JUMP JUMPDEST PUSH1 0x0 DUP1 PUSH1 0x0 PUSH1 0x40 DUP5 DUP7 SUB SLT ISZERO PUSH2 0x103E JUMPI PUSH2 0x103D PUSH2 0x1713 JUMP JUMPDEST JUMPDEST PUSH1 0x0 DUP5 ADD CALLDATALOAD PUSH8 0xFFFFFFFFFFFFFFFF DUP2 GT ISZERO PUSH2 0x105C JUMPI PUSH2 0x105B PUSH2 0x170E JUMP JUMPDEST JUMPDEST PUSH2 0x1068 DUP7 DUP3 DUP8 ADD PUSH2 0xEBA JUMP JUMPDEST SWAP4 POP SWAP4 POP POP PUSH1 0x20 PUSH2 0x107B DUP7 DUP3 DUP8 ADD PUSH2 0xF10 JUMP JUMPDEST SWAP2 POP POP SWAP3 POP SWAP3 POP SWAP3 JUMP JUMPDEST PUSH1 0x0 PUSH2 0x1091 DUP4 DUP4 PUSH2 0x109D JUMP JUMPDEST PUSH1 0x20 DUP4 ADD SWAP1 POP SWAP3 SWAP2 POP POP JUMP JUMPDEST PUSH2 0x10A6 DUP2 PUSH2 0x156F JUMP JUMPDEST DUP3 MSTORE POP POP JUMP JUMPDEST PUSH2 0x10B5 DUP2 PUSH2 0x156F JUMP JUMPDEST DUP3 MSTORE POP POP JUMP JUMPDEST PUSH1 0x0 PUSH2 0x10C7 DUP4 DUP6 PUSH2 0x1486 JUMP JUMPDEST SWAP4 POP PUSH2 0x10D2 DUP3 PUSH2 0x1464 JUMP JUMPDEST DUP1 PUSH1 0x0 JUMPDEST DUP6 DUP2 LT ISZERO PUSH2 0x110B JUMPI PUSH2 0x10E8 DUP3 DUP5 PUSH2 0x14A8 JUMP JUMPDEST PUSH2 0x10F2 DUP9 DUP3 PUSH2 0x1085 JUMP JUMPDEST SWAP8 POP PUSH2 0x10FD DUP4 PUSH2 0x1479 JUMP JUMPDEST SWAP3 POP POP PUSH1 0x1 DUP2 ADD SWAP1 POP PUSH2 0x10D6 JUMP JUMPDEST POP DUP6 SWAP3 POP POP POP SWAP4 SWAP3 POP POP POP JUMP JUMPDEST PUSH2 0x1121 DUP2 PUSH2 0x1581 JUMP JUMPDEST DUP3 MSTORE POP POP JUMP JUMPDEST PUSH1 0x0 PUSH2 0x1132 DUP3 PUSH2 0x146E JUMP JUMPDEST PUSH2 0x113C DUP2 DUP6 PUSH2 0x1497 JUMP JUMPDEST SWAP4 POP PUSH2 0x114C DUP2 DUP6 PUSH1 0x20 DUP7 ADD PUSH2 0x15C4 JUMP JUMPDEST PUSH2 0x1155 DUP2 PUSH2 0x1718 JUMP JUMPDEST DUP5 ADD SWAP2 POP POP SWAP3 SWAP2 POP POP JUMP JUMPDEST PUSH1 0x0 PUSH2 0x116D PUSH1 0x23 DUP4 PUSH2 0x1497 JUMP JUMPDEST SWAP2 POP PUSH2 0x1178 DUP3 PUSH2 0x1729 JUMP JUMPDEST PUSH1 0x40 DUP3 ADD SWAP1 POP SWAP2 SWAP1 POP JUMP JUMPDEST PUSH1 0x0 PUSH2 0x1190 PUSH1 0x22 DUP4 PUSH2 0x1497 JUMP JUMPDEST SWAP2 POP PUSH2 0x119B DUP3 PUSH2 0x1778 JUMP JUMPDEST PUSH1 0x40 DUP3 ADD SWAP1 POP SWAP2 SWAP1 POP JUMP JUMPDEST PUSH1 0x0 PUSH2 0x11B3 PUSH1 0x1D DUP4 PUSH2 0x1497 JUMP JUMPDEST SWAP2 POP PUSH2 0x11BE DUP3 PUSH2 0x17C7 JUMP JUMPDEST PUSH1 0x20 DUP3 ADD SWAP1 POP SWAP2 SWAP1 POP JUMP JUMPDEST PUSH1 0x0 PUSH2 0x11D6 PUSH1 0x26 DUP4 PUSH2 0x1497 JUMP JUMPDEST SWAP2 POP PUSH2 0x11E1 DUP3 PUSH2 0x17F0 JUMP JUMPDEST PUSH1 0x40 DUP3 ADD SWAP1 POP SWAP2 SWAP1 POP JUMP JUMPDEST PUSH1 0x0 PUSH2 0x11F9 PUSH1 0x25 DUP4 PUSH2 0x1497 JUMP JUMPDEST SWAP2 POP PUSH2 0x1204 DUP3 PUSH2 0x183F JUMP JUMPDEST PUSH1 0x40 DUP3 ADD SWAP1 POP SWAP2 SWAP1 POP JUMP JUMPDEST PUSH1 0x0 PUSH2 0x121C PUSH1 0x24 DUP4 PUSH2 0x1497 JUMP JUMPDEST SWAP2 POP PUSH2 0x1227 DUP3 PUSH2 0x188E JUMP JUMPDEST PUSH1 0x40 DUP3 ADD SWAP1 POP SWAP2 SWAP1 POP JUMP JUMPDEST PUSH1 0x0 PUSH2 0x123F PUSH1 0x25 DUP4 PUSH2 0x1497 JUMP JUMPDEST SWAP2 POP PUSH2 0x124A DUP3 PUSH2 0x18DD JUMP JUMPDEST PUSH1 0x40 DUP3 ADD SWAP1 POP SWAP2 SWAP1 POP JUMP JUMPDEST PUSH1 0x0 PUSH2 0x1262 PUSH1 0x1F DUP4 PUSH2 0x1497 JUMP JUMPDEST SWAP2 POP PUSH2 0x126D DUP3 PUSH2 0x192C JUMP JUMPDEST PUSH1 0x20 DUP3 ADD SWAP1 POP SWAP2 SWAP1 POP JUMP JUMPDEST PUSH2 0x1281 DUP2 PUSH2 0x15AD JUMP JUMPDEST DUP3 MSTORE POP POP JUMP JUMPDEST PUSH2 0x1290 DUP2 PUSH2 0x15B7 JUMP JUMPDEST DUP3 MSTORE POP POP JUMP JUMPDEST PUSH1 0x0 PUSH1 0x20 DUP3 ADD SWAP1 POP PUSH2 0x12AB PUSH1 0x0 DUP4 ADD DUP5 PUSH2 0x10AC JUMP JUMPDEST SWAP3 SWAP2 POP POP JUMP JUMPDEST PUSH1 0x0 PUSH1 0x60 DUP3 ADD SWAP1 POP PUSH2 0x12C6 PUSH1 0x0 DUP4 ADD DUP8 PUSH2 0x10AC JUMP JUMPDEST DUP2 DUP2 SUB PUSH1 0x20 DUP4 ADD MSTORE PUSH2 0x12D9 DUP2 DUP6 DUP8 PUSH2 0x10BB JUMP JUMPDEST SWAP1 POP PUSH2 0x12E8 PUSH1 0x40 DUP4 ADD DUP5 PUSH2 0x1278 JUMP JUMPDEST SWAP6 SWAP5 POP POP POP POP POP JUMP JUMPDEST PUSH1 0x0 PUSH1 0x20 DUP3 ADD SWAP1 POP PUSH2 0x1306 PUSH1 0x0 DUP4 ADD DUP5 PUSH2 0x1118 JUMP JUMPDEST SWAP3 SWAP2 POP POP JUMP JUMPDEST PUSH1 0x0 PUSH1 0x20 DUP3 ADD SWAP1 POP DUP2 DUP2 SUB PUSH1 0x0 DUP4 ADD MSTORE PUSH2 0x1326 DUP2 DUP5 PUSH2 0x1127 JUMP JUMPDEST SWAP1 POP SWAP3 SWAP2 POP POP JUMP JUMPDEST PUSH1 0x0 PUSH1 0x20 DUP3 ADD SWAP1 POP DUP2 DUP2 SUB PUSH1 0x0 DUP4 ADD MSTORE PUSH2 0x1347 DUP2 PUSH2 0x1160 JUMP JUMPDEST SWAP1 POP SWAP2 SWAP1 POP JUMP JUMPDEST PUSH1 0x0 PUSH1 0x20 DUP3 ADD SWAP1 POP DUP2 DUP2 SUB PUSH1 0x0 DUP4 ADD MSTORE PUSH2 0x1367 DUP2 PUSH2 0x1183 JUMP JUMPDEST SWAP1 POP SWAP2 SWAP1 POP JUMP JUMPDEST PUSH1 0x0 PUSH1 0x20 DUP3 ADD SWAP1 POP DUP2 DUP2 SUB PUSH1 0x0 DUP4 ADD MSTORE PUSH2 0x1387 DUP2 PUSH2 0x11A6 JUMP JUMPDEST SWAP1 POP SWAP2 SWAP1 POP JUMP JUMPDEST PUSH1 0x0 PUSH1 0x20 DUP3 ADD SWAP1 POP DUP2 DUP2 SUB PUSH1 0x0 DUP4 ADD MSTORE PUSH2 0x13A7 DUP2 PUSH2 0x11C9 JUMP JUMPDEST SWAP1 POP SWAP2 SWAP1 POP JUMP JUMPDEST PUSH1 0x0 PUSH1 0x20 DUP3 ADD SWAP1 POP DUP2 DUP2 SUB PUSH1 0x0 DUP4 ADD MSTORE PUSH2 0x13C7 DUP2 PUSH2 0x11EC JUMP JUMPDEST SWAP1 POP SWAP2 SWAP1 POP JUMP JUMPDEST PUSH1 0x0 PUSH1 0x20 DUP3 ADD SWAP1 POP DUP2 DUP2 SUB PUSH1 0x0 DUP4 ADD MSTORE PUSH2 0x13E7 DUP2 PUSH2 0x120F JUMP JUMPDEST SWAP1 POP SWAP2 SWAP1 POP JUMP JUMPDEST PUSH1 0x0 PUSH1 0x20 DUP3 ADD SWAP1 POP DUP2 DUP2 SUB PUSH1 0x0 DUP4 ADD MSTORE PUSH2 0x1407 DUP2 PUSH2 0x1232 JUMP JUMPDEST SWAP1 POP SWAP2 SWAP1 POP JUMP JUMPDEST PUSH1 0x0 PUSH1 0x20 DUP3 ADD SWAP1 POP DUP2 DUP2 SUB PUSH1 0x0 DUP4 ADD MSTORE PUSH2 0x1427 DUP2 PUSH2 0x1255 JUMP JUMPDEST SWAP1 POP SWAP2 SWAP1 POP JUMP JUMPDEST PUSH1 0x0 PUSH1 0x20 DUP3 ADD SWAP1 POP PUSH2 0x1443 PUSH1 0x0 DUP4 ADD DUP5 PUSH2 0x1278 JUMP JUMPDEST SWAP3 SWAP2 POP POP JUMP JUMPDEST PUSH1 0x0 PUSH1 0x20 DUP3 ADD SWAP1 POP PUSH2 0x145E PUSH1 0x0 DUP4 ADD DUP5 PUSH2 0x1287 JUMP JUMPDEST SWAP3 SWAP2 POP POP JUMP JUMPDEST PUSH1 0x0 DUP2 SWAP1 POP SWAP2 SWAP1 POP JUMP JUMPDEST PUSH1 0x0 DUP2 MLOAD SWAP1 POP SWAP2 SWAP1 POP JUMP JUMPDEST PUSH1 0x0 PUSH1 0x20 DUP3 ADD SWAP1 POP SWAP2 SWAP1 POP JUMP JUMPDEST PUSH1 0x0 DUP3 DUP3 MSTORE PUSH1 0x20 DUP3 ADD SWAP1 POP SWAP3 SWAP2 POP POP JUMP JUMPDEST PUSH1 0x0 DUP3 DUP3 MSTORE PUSH1 0x20 DUP3 ADD SWAP1 POP SWAP3 SWAP2 POP POP JUMP JUMPDEST PUSH1 0x0 PUSH2 0x14B7 PUSH1 0x20 DUP5 ADD DUP5 PUSH2 0xEA5 JUMP JUMPDEST SWAP1 POP SWAP3 SWAP2 POP POP JUMP JUMPDEST PUSH1 0x0 PUSH2 0x14CA DUP3 PUSH2 0x15AD JUMP JUMPDEST SWAP2 POP PUSH2 0x14D5 DUP4 PUSH2 0x15AD JUMP JUMPDEST SWAP3 POP DUP3 PUSH32 0xFFFFFFFFFFFFFFFFFFFFFFFFFFFFFFFFFFFFFFFFFFFFFFFFFFFFFFFFFFFFFFFF SUB DUP3 GT ISZERO PUSH2 0x150A JUMPI PUSH2 0x1509 PUSH2 0x1672 JUMP JUMPDEST JUMPDEST DUP3 DUP3 ADD SWAP1 POP SWAP3 SWAP2 POP POP JUMP JUMPDEST PUSH1 0x0 PUSH2 0x1520 DUP3 PUSH2 0x15AD JUMP JUMPDEST SWAP2 POP PUSH2 0x152B DUP4 PUSH2 0x15AD JUMP JUMPDEST SWAP3 POP DUP2 PUSH32 0xFFFFFFFFFFFFFFFFFFFFFFFFFFFFFFFFFFFFFFFFFFFFFFFFFFFFFFFFFFFFFFFF DIV DUP4 GT DUP3 ISZERO ISZERO AND ISZERO PUSH2 0x1564 JUMPI PUSH2 0x1563 PUSH2 0x1672 JUMP JUMPDEST JUMPDEST DUP3 DUP3 MUL SWAP1 POP SWAP3 SWAP2 POP POP JUMP JUMPDEST PUSH1 0x0 PUSH2 0x157A DUP3 PUSH2 0x158D JUMP JUMPDEST SWAP1 POP SWAP2 SWAP1 POP JUMP JUMPDEST PUSH1 0x0 DUP2 ISZERO ISZERO SWAP1 POP SWAP2 SWAP1 POP JUMP JUMPDEST PUSH1 0x0 PUSH20 0xFFFFFFFFFFFFFFFFFFFFFFFFFFFFFFFFFFFFFFFF DUP3 AND SWAP1 POP SWAP2 SWAP1 POP JUMP JUMPDEST PUSH1 0x0 DUP2 SWAP1 POP SWAP2 SWAP1 POP JUMP JUMPDEST PUSH1 0x0 PUSH1 0xFF DUP3 AND SWAP1 POP SWAP2 SWAP1 POP JUMP JUMPDEST PUSH1 0x0 JUMPDEST DUP4 DUP2 LT ISZERO PUSH2 0x15E2 JUMPI DUP1 DUP3 ADD MLOAD DUP2 DUP5 ADD MSTORE PUSH1 0x20 DUP2 ADD SWAP1 POP PUSH2 0x15C7 JUMP JUMPDEST DUP4 DUP2 GT ISZERO PUSH2 0x15F1 JUMPI PUSH1 0x0 DUP5 DUP5 ADD MSTORE JUMPDEST POP POP POP POP JUMP JUMPDEST PUSH1 0x0 PUSH1 0x2 DUP3 DIV SWAP1 POP PUSH1 0x1 DUP3 AND DUP1 PUSH2 0x160F JUMPI PUSH1 0x7F DUP3 AND SWAP2 POP JUMPDEST PUSH1 0x20 DUP3 LT DUP2 EQ ISZERO PUSH2 0x1623 JUMPI PUSH2 0x1622 PUSH2 0x16A1 JUMP JUMPDEST JUMPDEST POP SWAP2 SWAP1 POP JUMP JUMPDEST PUSH1 0x0 PUSH2 0x1634 DUP3 PUSH2 0x15AD JUMP JUMPDEST SWAP2 POP PUSH32 0xFFFFFFFFFFFFFFFFFFFFFFFFFFFFFFFFFFFFFFFFFFFFFFFFFFFFFFFFFFFFFFFF DUP3 EQ ISZERO PUSH2 0x1667 JUMPI PUSH2 0x1666 PUSH2 0x1672 JUMP JUMPDEST JUMPDEST PUSH1 0x1 DUP3 ADD SWAP1 POP SWAP2 SWAP1 POP JUMP JUMPDEST PUSH32 0x4E487B7100000000000000000000000000000000000000000000000000000000 PUSH1 0x0 MSTORE PUSH1 0x11 PUSH1 0x4 MSTORE PUSH1 0x24 PUSH1 0x0 REVERT JUMPDEST PUSH32 0x4E487B7100000000000000000000000000000000000000000000000000000000 PUSH1 0x0 MSTORE PUSH1 0x22 PUSH1 0x4 MSTORE PUSH1 0x24 PUSH1 0x0 REVERT JUMPDEST PUSH32 0x4E487B7100000000000000000000000000000000000000000000000000000000 PUSH1 0x0 MSTORE PUSH1 0x32 PUSH1 0x4 MSTORE PUSH1 0x24 PUSH1 0x0 REVERT JUMPDEST PUSH1 0x0 DUP1 REVERT JUMPDEST PUSH1 0x0 DUP1 REVERT JUMPDEST PUSH1 0x0 DUP1 REVERT JUMPDEST PUSH1 0x0 DUP1 REVERT JUMPDEST PUSH1 0x0 DUP1 REVERT JUMPDEST PUSH1 0x0 PUSH1 0x1F NOT PUSH1 0x1F DUP4 ADD AND SWAP1 POP SWAP2 SWAP1 POP JUMP JUMPDEST PUSH32 0x45524332303A207472616E7366657220746F20746865207A65726F2061646472 PUSH1 0x0 DUP3 ADD MSTORE PUSH32 0x6573730000000000000000000000000000000000000000000000000000000000 PUSH1 0x20 DUP3 ADD MSTORE POP JUMP JUMPDEST PUSH32 0x45524332303A20617070726F766520746F20746865207A65726F206164647265 PUSH1 0x0 DUP3 ADD MSTORE PUSH32 0x7373000000000000000000000000000000000000000000000000000000000000 PUSH1 0x20 DUP3 ADD MSTORE POP JUMP JUMPDEST PUSH32 0x45524332303A20696E73756666696369656E7420616C6C6F77616E6365000000 PUSH1 0x0 DUP3 ADD MSTORE POP JUMP JUMPDEST PUSH32 0x45524332303A207472616E7366657220616D6F756E7420657863656564732062 PUSH1 0x0 DUP3 ADD MSTORE PUSH32 0x616C616E63650000000000000000000000000000000000000000000000000000 PUSH1 0x20 DUP3 ADD MSTORE POP JUMP JUMPDEST PUSH32 0x45524332303A207472616E736665722066726F6D20746865207A65726F206164 PUSH1 0x0 DUP3 ADD MSTORE PUSH32 0x6472657373000000000000000000000000000000000000000000000000000000 PUSH1 0x20 DUP3 ADD MSTORE POP JUMP JUMPDEST PUSH32 0x45524332303A20617070726F76652066726F6D20746865207A65726F20616464 PUSH1 0x0 DUP3 ADD MSTORE PUSH32 0x7265737300000000000000000000000000000000000000000000000000000000 PUSH1 0x20 DUP3 ADD MSTORE POP JUMP JUMPDEST PUSH32 0x45524332303A2064656372656173656420616C6C6F77616E63652062656C6F77 PUSH1 0x0 DUP3 ADD MSTORE PUSH32 0x207A65726F000000000000000000000000000000000000000000000000000000 PUSH1 0x20 DUP3 ADD MSTORE POP JUMP JUMPDEST PUSH32 0x45524332303A206D696E7420746F20746865207A65726F206164647265737300 PUSH1 0x0 DUP3 ADD MSTORE POP JUMP JUMPDEST PUSH2 0x195E DUP2 PUSH2 0x156F JUMP JUMPDEST DUP2 EQ PUSH2 0x1969 JUMPI PUSH1 0x0 DUP1 REVERT JUMPDEST POP JUMP JUMPDEST PUSH2 0x1975 DUP2 PUSH2 0x15AD JUMP JUMPDEST DUP2 EQ PUSH2 0x1980 JUMPI PUSH1 0x0 DUP1 REVERT JUMPDEST POP JUMP INVALID LOG2 PUSH5 0x6970667358 0x22 SLT KECCAK256 0x5C 0xD7 LOG0 0xB1 0x24 PUSH17 0xE491F9BCEABB0D815048B75FDCA4544B4F GT SELFDESTRUCT CREATE 0xB9 SWAP2 0x1F PUSH17 0xA4A064736F6C6343000807003300000000 "
				},
				"gasEstimates": {
					"creation": {
						"codeDepositCost": "1317000",
						"executionCost": "infinite",
						"totalCost": "infinite"
					},
					"external": {
						"allowance(address,address)": "infinite",
						"approve(address,uint256)": "infinite",
						"balanceOf(address)": "2930",
						"balances(address)": "2903",
						"decimals()": "366",
						"decreaseAllowance(address,uint256)": "infinite",
						"increaseAllowance(address,uint256)": "infinite",
						"mint(address,uint256)": "infinite",
						"minter()": "2582",
						"multiSafeTransfer(address[],uint256)": "infinite",
						"name()": "infinite",
						"symbol()": "infinite",
						"totalSupply()": "2482",
						"transfer(address,uint256)": "infinite",
						"transferFrom(address,address,uint256)": "infinite"
					}
				},
				"methodIdentifiers": {
					"allowance(address,address)": "dd62ed3e",
					"approve(address,uint256)": "095ea7b3",
					"balanceOf(address)": "70a08231",
					"balances(address)": "27e235e3",
					"decimals()": "313ce567",
					"decreaseAllowance(address,uint256)": "a457c2d7",
					"increaseAllowance(address,uint256)": "39509351",
					"mint(address,uint256)": "40c10f19",
					"minter()": "07546172",
					"multiSafeTransfer(address[],uint256)": "045191e1",
					"name()": "06fdde03",
					"symbol()": "95d89b41",
					"totalSupply()": "18160ddd",
					"transfer(address,uint256)": "a9059cbb",
					"transferFrom(address,address,uint256)": "23b872dd"
				}
			},
			"storageLayout": {
				"storage": [
					{
						"astId": 15,
						"contract": "src/token.sol:Mfu",
						"label": "_balances",
						"offset": 0,
						"slot": "0",
						"type": "t_mapping(t_address,t_uint256)"
					},
					{
						"astId": 21,
						"contract": "src/token.sol:Mfu",
						"label": "_allowances",
						"offset": 0,
						"slot": "1",
						"type": "t_mapping(t_address,t_mapping(t_address,t_uint256))"
					},
					{
						"astId": 23,
						"contract": "src/token.sol:Mfu",
						"label": "_totalSupply",
						"offset": 0,
						"slot": "2",
						"type": "t_uint256"
					},
					{
						"astId": 25,
						"contract": "src/token.sol:Mfu",
						"label": "_name",
						"offset": 0,
						"slot": "3",
						"type": "t_string_storage"
					},
					{
						"astId": 27,
						"contract": "src/token.sol:Mfu",
						"label": "_symbol",
						"offset": 0,
						"slot": "4",
						"type": "t_string_storage"
					},
					{
						"astId": 717,
						"contract": "src/token.sol:Mfu",
						"label": "minter",
						"offset": 0,
						"slot": "5",
						"type": "t_address"
					},
					{
						"astId": 721,
						"contract": "src/token.sol:Mfu",
						"label": "balances",
						"offset": 0,
						"slot": "6",
						"type": "t_mapping(t_address,t_uint256)"
					}
				],
				"types": {
					"t_address": {
						"encoding": "inplace",
						"label": "address",
						"numberOfBytes": "20"
					},
					"t_mapping(t_address,t_mapping(t_address,t_uint256))": {
						"encoding": "mapping",
						"key": "t_address",
						"label": "mapping(address => mapping(address => uint256))",
						"numberOfBytes": "32",
						"value": "t_mapping(t_address,t_uint256)"
					},
					"t_mapping(t_address,t_uint256)": {
						"encoding": "mapping",
						"key": "t_address",
						"label": "mapping(address => uint256)",
						"numberOfBytes": "32",
						"value": "t_uint256"
					},
					"t_string_storage": {
						"encoding": "bytes",
						"label": "string",
						"numberOfBytes": "32"
					},
					"t_uint256": {
						"encoding": "inplace",
						"label": "uint256",
						"numberOfBytes": "32"
					}
				}
			},
			"userdoc": {
				"kind": "user",
				"methods": {},
				"version": 1
			}
		}
	}
}