{
	"src/token.sol": {
		"Mfu": {
			"abi": [
				{
					"inputs": [],
					"stateMutability": "nonpayable",
					"type": "constructor"
				},
				{
					"anonymous": false,
					"inputs": [
						{
							"indexed": true,
							"internalType": "address",
							"name": "owner",
							"type": "address"
						},
						{
							"indexed": true,
							"internalType": "address",
							"name": "spender",
							"type": "address"
						},
						{
							"indexed": false,
							"internalType": "uint256",
							"name": "value",
							"type": "uint256"
						}
					],
					"name": "Approval",
					"type": "event"
				},
				{
					"anonymous": false,
					"inputs": [
						{
							"indexed": false,
							"internalType": "uint256",
							"name": "debugInt",
							"type": "uint256"
						}
					],
					"name": "DebugUint",
					"type": "event"
				},
				{
					"anonymous": false,
					"inputs": [
						{
							"indexed": false,
							"internalType": "address",
							"name": "from",
							"type": "address"
						},
						{
							"indexed": false,
							"internalType": "address[]",
							"name": "to",
							"type": "address[]"
						},
						{
							"indexed": false,
							"internalType": "uint256",
							"name": "value",
							"type": "uint256"
						}
					],
					"name": "MultiSendToken",
					"type": "event"
				},
				{
					"anonymous": false,
					"inputs": [
						{
							"indexed": false,
							"internalType": "address",
							"name": "from",
							"type": "address"
						},
						{
							"indexed": false,
							"internalType": "address",
							"name": "to",
							"type": "address"
						},
						{
							"indexed": false,
							"internalType": "uint256",
							"name": "value",
							"type": "uint256"
						}
					],
					"name": "SendToken",
					"type": "event"
				},
				{
					"anonymous": false,
					"inputs": [
						{
							"indexed": true,
							"internalType": "address",
							"name": "from",
							"type": "address"
						},
						{
							"indexed": true,
							"internalType": "address",
							"name": "to",
							"type": "address"
						},
						{
							"indexed": false,
							"internalType": "uint256",
							"name": "value",
							"type": "uint256"
						}
					],
					"name": "Transfer",
					"type": "event"
				},
				{
					"inputs": [
						{
							"internalType": "address",
							"name": "owner",
							"type": "address"
						},
						{
							"internalType": "address",
							"name": "spender",
							"type": "address"
						}
					],
					"name": "allowance",
					"outputs": [
						{
							"internalType": "uint256",
							"name": "",
							"type": "uint256"
						}
					],
					"stateMutability": "view",
					"type": "function"
				},
				{
					"inputs": [
						{
							"internalType": "address",
							"name": "spender",
							"type": "address"
						},
						{
							"internalType": "uint256",
							"name": "amount",
							"type": "uint256"
						}
					],
					"name": "approve",
					"outputs": [
						{
							"internalType": "bool",
							"name": "",
							"type": "bool"
						}
					],
					"stateMutability": "nonpayable",
					"type": "function"
				},
				{
					"inputs": [
						{
							"internalType": "address",
							"name": "account",
							"type": "address"
						}
					],
					"name": "balanceOf",
					"outputs": [
						{
							"internalType": "uint256",
							"name": "",
							"type": "uint256"
						}
					],
					"stateMutability": "view",
					"type": "function"
				},
				{
					"inputs": [
						{
							"internalType": "address",
							"name": "",
							"type": "address"
						}
					],
					"name": "balances",
					"outputs": [
						{
							"internalType": "uint256",
							"name": "",
							"type": "uint256"
						}
					],
					"stateMutability": "view",
					"type": "function"
				},
				{
					"inputs": [],
					"name": "decimals",
					"outputs": [
						{
							"internalType": "uint8",
							"name": "",
							"type": "uint8"
						}
					],
					"stateMutability": "view",
					"type": "function"
				},
				{
					"inputs": [
						{
							"internalType": "address",
							"name": "spender",
							"type": "address"
						},
						{
							"internalType": "uint256",
							"name": "subtractedValue",
							"type": "uint256"
						}
					],
					"name": "decreaseAllowance",
					"outputs": [
						{
							"internalType": "bool",
							"name": "",
							"type": "bool"
						}
					],
					"stateMutability": "nonpayable",
					"type": "function"
				},
				{
					"inputs": [
						{
							"internalType": "address",
							"name": "spender",
							"type": "address"
						},
						{
							"internalType": "uint256",
							"name": "addedValue",
							"type": "uint256"
						}
					],
					"name": "increaseAllowance",
					"outputs": [
						{
							"internalType": "bool",
							"name": "",
							"type": "bool"
						}
					],
					"stateMutability": "nonpayable",
					"type": "function"
				},
				{
					"inputs": [
						{
							"internalType": "address",
							"name": "receiver",
							"type": "address"
						},
						{
							"internalType": "uint256",
							"name": "amount",
							"type": "uint256"
						}
					],
					"name": "mint",
					"outputs": [],
					"stateMutability": "nonpayable",
					"type": "function"
				},
				{
					"inputs": [],
					"name": "minter",
					"outputs": [
						{
							"internalType": "address",
							"name": "",
							"type": "address"
						}
					],
					"stateMutability": "view",
					"type": "function"
				},
				{
					"inputs": [
						{
							"internalType": "address",
							"name": "sender",
							"type": "address"
						},
						{
							"internalType": "address[]",
							"name": "receivers",
							"type": "address[]"
						},
						{
							"internalType": "uint256",
							"name": "amount",
							"type": "uint256"
						}
					],
					"name": "multiSend",
					"outputs": [],
					"stateMutability": "nonpayable",
					"type": "function"
				},
				{
					"inputs": [],
					"name": "name",
					"outputs": [
						{
							"internalType": "string",
							"name": "",
							"type": "string"
						}
					],
					"stateMutability": "view",
					"type": "function"
				},
				{
					"inputs": [
						{
							"internalType": "address",
							"name": "sender",
							"type": "address"
						},
						{
							"internalType": "address",
							"name": "receiver",
							"type": "address"
						},
						{
							"internalType": "uint256",
							"name": "amount",
							"type": "uint256"
						}
					],
					"name": "send",
					"outputs": [],
					"stateMutability": "nonpayable",
					"type": "function"
				},
				{
					"inputs": [],
					"name": "symbol",
					"outputs": [
						{
							"internalType": "string",
							"name": "",
							"type": "string"
						}
					],
					"stateMutability": "view",
					"type": "function"
				},
				{
					"inputs": [],
					"name": "totalSupply",
					"outputs": [
						{
							"internalType": "uint256",
							"name": "",
							"type": "uint256"
						}
					],
					"stateMutability": "view",
					"type": "function"
				},
				{
					"inputs": [
						{
							"internalType": "address",
							"name": "to",
							"type": "address"
						},
						{
							"internalType": "uint256",
							"name": "amount",
							"type": "uint256"
						}
					],
					"name": "transfer",
					"outputs": [
						{
							"internalType": "bool",
							"name": "",
							"type": "bool"
						}
					],
					"stateMutability": "nonpayable",
					"type": "function"
				},
				{
					"inputs": [
						{
							"internalType": "address",
							"name": "from",
							"type": "address"
						},
						{
							"internalType": "address",
							"name": "to",
							"type": "address"
						},
						{
							"internalType": "uint256",
							"name": "amount",
							"type": "uint256"
						}
					],
					"name": "transferFrom",
					"outputs": [
						{
							"internalType": "bool",
							"name": "",
							"type": "bool"
						}
					],
					"stateMutability": "nonpayable",
					"type": "function"
				}
			],
			"devdoc": {
				"kind": "dev",
				"methods": {
					"allowance(address,address)": {
						"details": "See {IERC20-allowance}."
					},
					"approve(address,uint256)": {
						"details": "See {IERC20-approve}. NOTE: If `amount` is the maximum `uint256`, the allowance is not updated on `transferFrom`. This is semantically equivalent to an infinite approval. Requirements: - `spender` cannot be the zero address."
					},
					"balanceOf(address)": {
						"details": "See {IERC20-balanceOf}."
					},
					"decimals()": {
						"details": "Returns the number of decimals used to get its user representation. For example, if `decimals` equals `2`, a balance of `505` tokens should be displayed to a user as `5.05` (`505 / 10 ** 2`). Tokens usually opt for a value of 18, imitating the relationship between Ether and Wei. This is the value {ERC20} uses, unless this function is overridden; NOTE: This information is only used for _display_ purposes: it in no way affects any of the arithmetic of the contract, including {IERC20-balanceOf} and {IERC20-transfer}."
					},
					"decreaseAllowance(address,uint256)": {
						"details": "Atomically decreases the allowance granted to `spender` by the caller. This is an alternative to {approve} that can be used as a mitigation for problems described in {IERC20-approve}. Emits an {Approval} event indicating the updated allowance. Requirements: - `spender` cannot be the zero address. - `spender` must have allowance for the caller of at least `subtractedValue`."
					},
					"increaseAllowance(address,uint256)": {
						"details": "Atomically increases the allowance granted to `spender` by the caller. This is an alternative to {approve} that can be used as a mitigation for problems described in {IERC20-approve}. Emits an {Approval} event indicating the updated allowance. Requirements: - `spender` cannot be the zero address."
					},
					"name()": {
						"details": "Returns the name of the token."
					},
					"symbol()": {
						"details": "Returns the symbol of the token, usually a shorter version of the name."
					},
					"totalSupply()": {
						"details": "See {IERC20-totalSupply}."
					},
					"transfer(address,uint256)": {
						"details": "See {IERC20-transfer}. Requirements: - `to` cannot be the zero address. - the caller must have a balance of at least `amount`."
					},
					"transferFrom(address,address,uint256)": {
						"details": "See {IERC20-transferFrom}. Emits an {Approval} event indicating the updated allowance. This is not required by the EIP. See the note at the beginning of {ERC20}. NOTE: Does not update the allowance if the current allowance is the maximum `uint256`. Requirements: - `from` and `to` cannot be the zero address. - `from` must have a balance of at least `amount`. - the caller must have allowance for ``from``'s tokens of at least `amount`."
					}
				},
				"version": 1
			},
			"evm": {
				"assembly": "    /* \"src/token.sol\":202:1980  contract Mfu is ERC20 {... */\n  mstore(0x40, 0x80)\n    /* \"src/token.sol\":650:829  constructor() ERC20(\"Moffu Token\", \"MFU\") {    // decialはデフォルトで18... */\n  callvalue\n  dup1\n  iszero\n  tag_1\n  jumpi\n  0x00\n  dup1\n  revert\ntag_1:\n  pop\n    /* \"https://github.com/OpenZeppelin/openzeppelin-contracts/blob/52eeebecda140ebaf4ec8752ed119d8288287fac/contracts/token/ERC20/ERC20.sol\":1978:2091  constructor(string memory name_, string memory symbol_) {... */\n  mload(0x40)\n  dup1\n  0x40\n  add\n  0x40\n  mstore\n  dup1\n  0x0b\n  dup2\n  mstore\n  0x20\n  add\n  0x4d6f66667520546f6b656e000000000000000000000000000000000000000000\n  dup2\n  mstore\n  pop\n  mload(0x40)\n  dup1\n  0x40\n  add\n  0x40\n  mstore\n  dup1\n  0x03\n  dup2\n  mstore\n  0x20\n  add\n  0x4d46550000000000000000000000000000000000000000000000000000000000\n  dup2\n  mstore\n  pop\n    /* \"https://github.com/OpenZeppelin/openzeppelin-contracts/blob/52eeebecda140ebaf4ec8752ed119d8288287fac/contracts/token/ERC20/ERC20.sol\":2052:2057  name_ */\n  dup2\n    /* \"https://github.com/OpenZeppelin/openzeppelin-contracts/blob/52eeebecda140ebaf4ec8752ed119d8288287fac/contracts/token/ERC20/ERC20.sol\":2044:2049  _name */\n  0x03\n    /* \"https://github.com/OpenZeppelin/openzeppelin-contracts/blob/52eeebecda140ebaf4ec8752ed119d8288287fac/contracts/token/ERC20/ERC20.sol\":2044:2057  _name = name_ */\n  swap1\n  dup1\n  mload\n  swap1\n  0x20\n  add\n  swap1\n  tag_5\n  swap3\n  swap2\n  swap1\n  tag_6\n  jump\t// in\ntag_5:\n  pop\n    /* \"https://github.com/OpenZeppelin/openzeppelin-contracts/blob/52eeebecda140ebaf4ec8752ed119d8288287fac/contracts/token/ERC20/ERC20.sol\":2077:2084  symbol_ */\n  dup1\n    /* \"https://github.com/OpenZeppelin/openzeppelin-contracts/blob/52eeebecda140ebaf4ec8752ed119d8288287fac/contracts/token/ERC20/ERC20.sol\":2067:2074  _symbol */\n  0x04\n    /* \"https://github.com/OpenZeppelin/openzeppelin-contracts/blob/52eeebecda140ebaf4ec8752ed119d8288287fac/contracts/token/ERC20/ERC20.sol\":2067:2084  _symbol = symbol_ */\n  swap1\n  dup1\n  mload\n  swap1\n  0x20\n  add\n  swap1\n  tag_7\n  swap3\n  swap2\n  swap1\n  tag_6\n  jump\t// in\ntag_7:\n  pop\n    /* \"https://github.com/OpenZeppelin/openzeppelin-contracts/blob/52eeebecda140ebaf4ec8752ed119d8288287fac/contracts/token/ERC20/ERC20.sol\":1978:2091  constructor(string memory name_, string memory symbol_) {... */\n  pop\n  pop\n    /* \"src/token.sol\":738:774  _mint(msg.sender, 10000000 * 10**18) */\n  tag_9\n    /* \"src/token.sol\":744:754  msg.sender */\n  caller\n    /* \"src/token.sol\":756:773  10000000 * 10**18 */\n  0x084595161401484a000000\n    /* \"src/token.sol\":738:743  _mint */\n  shl(0x20, tag_10)\n    /* \"src/token.sol\":738:774  _mint(msg.sender, 10000000 * 10**18) */\n  0x20\n  shr\n  jump\t// in\ntag_9:\n    /* \"src/token.sol\":812:822  msg.sender */\n  caller\n    /* \"src/token.sol\":803:809  minter */\n  0x05\n  0x00\n    /* \"src/token.sol\":803:822  minter = msg.sender */\n  0x0100\n  exp\n  dup2\n  sload\n  dup2\n  0xffffffffffffffffffffffffffffffffffffffff\n  mul\n  not\n  and\n  swap1\n  dup4\n  0xffffffffffffffffffffffffffffffffffffffff\n  and\n  mul\n  or\n  swap1\n  sstore\n  pop\n    /* \"src/token.sol\":202:1980  contract Mfu is ERC20 {... */\n  jump(tag_11)\n    /* \"https://github.com/OpenZeppelin/openzeppelin-contracts/blob/52eeebecda140ebaf4ec8752ed119d8288287fac/contracts/token/ERC20/ERC20.sol\":8411:8800  function _mint(address account, uint256 amount) internal virtual {... */\ntag_10:\n    /* \"https://github.com/OpenZeppelin/openzeppelin-contracts/blob/52eeebecda140ebaf4ec8752ed119d8288287fac/contracts/token/ERC20/ERC20.sol\":8513:8514  0 */\n  0x00\n    /* \"https://github.com/OpenZeppelin/openzeppelin-contracts/blob/52eeebecda140ebaf4ec8752ed119d8288287fac/contracts/token/ERC20/ERC20.sol\":8494:8515  account != address(0) */\n  0xffffffffffffffffffffffffffffffffffffffff\n  and\n    /* \"https://github.com/OpenZeppelin/openzeppelin-contracts/blob/52eeebecda140ebaf4ec8752ed119d8288287fac/contracts/token/ERC20/ERC20.sol\":8494:8501  account */\n  dup3\n    /* \"https://github.com/OpenZeppelin/openzeppelin-contracts/blob/52eeebecda140ebaf4ec8752ed119d8288287fac/contracts/token/ERC20/ERC20.sol\":8494:8515  account != address(0) */\n  0xffffffffffffffffffffffffffffffffffffffff\n  and\n  eq\n  iszero\n    /* \"https://github.com/OpenZeppelin/openzeppelin-contracts/blob/52eeebecda140ebaf4ec8752ed119d8288287fac/contracts/token/ERC20/ERC20.sol\":8486:8551  require(account != address(0), \"ERC20: mint to the zero address\") */\n  tag_13\n  jumpi\n  mload(0x40)\n  0x08c379a000000000000000000000000000000000000000000000000000000000\n  dup2\n  mstore\n  0x04\n  add\n  tag_14\n  swap1\n  tag_15\n  jump\t// in\ntag_14:\n  mload(0x40)\n  dup1\n  swap2\n  sub\n  swap1\n  revert\ntag_13:\n    /* \"https://github.com/OpenZeppelin/openzeppelin-contracts/blob/52eeebecda140ebaf4ec8752ed119d8288287fac/contracts/token/ERC20/ERC20.sol\":8562:8611  _beforeTokenTransfer(address(0), account, amount) */\n  tag_16\n    /* \"https://github.com/OpenZeppelin/openzeppelin-contracts/blob/52eeebecda140ebaf4ec8752ed119d8288287fac/contracts/token/ERC20/ERC20.sol\":8591:8592  0 */\n  0x00\n    /* \"https://github.com/OpenZeppelin/openzeppelin-contracts/blob/52eeebecda140ebaf4ec8752ed119d8288287fac/contracts/token/ERC20/ERC20.sol\":8595:8602  account */\n  dup4\n    /* \"https://github.com/OpenZeppelin/openzeppelin-contracts/blob/52eeebecda140ebaf4ec8752ed119d8288287fac/contracts/token/ERC20/ERC20.sol\":8604:8610  amount */\n  dup4\n    /* \"https://github.com/OpenZeppelin/openzeppelin-contracts/blob/52eeebecda140ebaf4ec8752ed119d8288287fac/contracts/token/ERC20/ERC20.sol\":8562:8582  _beforeTokenTransfer */\n  shl(0x20, tag_17)\n    /* \"https://github.com/OpenZeppelin/openzeppelin-contracts/blob/52eeebecda140ebaf4ec8752ed119d8288287fac/contracts/token/ERC20/ERC20.sol\":8562:8611  _beforeTokenTransfer(address(0), account, amount) */\n  0x20\n  shr\n  jump\t// in\ntag_16:\n    /* \"https://github.com/OpenZeppelin/openzeppelin-contracts/blob/52eeebecda140ebaf4ec8752ed119d8288287fac/contracts/token/ERC20/ERC20.sol\":8638:8644  amount */\n  dup1\n    /* \"https://github.com/OpenZeppelin/openzeppelin-contracts/blob/52eeebecda140ebaf4ec8752ed119d8288287fac/contracts/token/ERC20/ERC20.sol\":8622:8634  _totalSupply */\n  0x02\n  0x00\n    /* \"https://github.com/OpenZeppelin/openzeppelin-contracts/blob/52eeebecda140ebaf4ec8752ed119d8288287fac/contracts/token/ERC20/ERC20.sol\":8622:8644  _totalSupply += amount */\n  dup3\n  dup3\n  sload\n  tag_18\n  swap2\n  swap1\n  tag_19\n  jump\t// in\ntag_18:\n  swap3\n  pop\n  pop\n  dup2\n  swap1\n  sstore\n  pop\n    /* \"https://github.com/OpenZeppelin/openzeppelin-contracts/blob/52eeebecda140ebaf4ec8752ed119d8288287fac/contracts/token/ERC20/ERC20.sol\":8676:8682  amount */\n  dup1\n    /* \"https://github.com/OpenZeppelin/openzeppelin-contracts/blob/52eeebecda140ebaf4ec8752ed119d8288287fac/contracts/token/ERC20/ERC20.sol\":8654:8663  _balances */\n  0x00\n    /* \"https://github.com/OpenZeppelin/openzeppelin-contracts/blob/52eeebecda140ebaf4ec8752ed119d8288287fac/contracts/token/ERC20/ERC20.sol\":8654:8672  _balances[account] */\n  dup1\n    /* \"https://github.com/OpenZeppelin/openzeppelin-contracts/blob/52eeebecda140ebaf4ec8752ed119d8288287fac/contracts/token/ERC20/ERC20.sol\":8664:8671  account */\n  dup5\n    /* \"https://github.com/OpenZeppelin/openzeppelin-contracts/blob/52eeebecda140ebaf4ec8752ed119d8288287fac/contracts/token/ERC20/ERC20.sol\":8654:8672  _balances[account] */\n  0xffffffffffffffffffffffffffffffffffffffff\n  and\n  0xffffffffffffffffffffffffffffffffffffffff\n  and\n  dup2\n  mstore\n  0x20\n  add\n  swap1\n  dup2\n  mstore\n  0x20\n  add\n  0x00\n  keccak256\n  0x00\n    /* \"https://github.com/OpenZeppelin/openzeppelin-contracts/blob/52eeebecda140ebaf4ec8752ed119d8288287fac/contracts/token/ERC20/ERC20.sol\":8654:8682  _balances[account] += amount */\n  dup3\n  dup3\n  sload\n  tag_20\n  swap2\n  swap1\n  tag_19\n  jump\t// in\ntag_20:\n  swap3\n  pop\n  pop\n  dup2\n  swap1\n  sstore\n  pop\n    /* \"https://github.com/OpenZeppelin/openzeppelin-contracts/blob/52eeebecda140ebaf4ec8752ed119d8288287fac/contracts/token/ERC20/ERC20.sol\":8718:8725  account */\n  dup2\n    /* \"https://github.com/OpenZeppelin/openzeppelin-contracts/blob/52eeebecda140ebaf4ec8752ed119d8288287fac/contracts/token/ERC20/ERC20.sol\":8697:8734  Transfer(address(0), account, amount) */\n  0xffffffffffffffffffffffffffffffffffffffff\n  and\n    /* \"https://github.com/OpenZeppelin/openzeppelin-contracts/blob/52eeebecda140ebaf4ec8752ed119d8288287fac/contracts/token/ERC20/ERC20.sol\":8714:8715  0 */\n  0x00\n    /* \"https://github.com/OpenZeppelin/openzeppelin-contracts/blob/52eeebecda140ebaf4ec8752ed119d8288287fac/contracts/token/ERC20/ERC20.sol\":8697:8734  Transfer(address(0), account, amount) */\n  0xffffffffffffffffffffffffffffffffffffffff\n  and\n  0xddf252ad1be2c89b69c2b068fc378daa952ba7f163c4a11628f55a4df523b3ef\n    /* \"https://github.com/OpenZeppelin/openzeppelin-contracts/blob/52eeebecda140ebaf4ec8752ed119d8288287fac/contracts/token/ERC20/ERC20.sol\":8727:8733  amount */\n  dup4\n    /* \"https://github.com/OpenZeppelin/openzeppelin-contracts/blob/52eeebecda140ebaf4ec8752ed119d8288287fac/contracts/token/ERC20/ERC20.sol\":8697:8734  Transfer(address(0), account, amount) */\n  mload(0x40)\n  tag_21\n  swap2\n  swap1\n  tag_22\n  jump\t// in\ntag_21:\n  mload(0x40)\n  dup1\n  swap2\n  sub\n  swap1\n  log3\n    /* \"https://github.com/OpenZeppelin/openzeppelin-contracts/blob/52eeebecda140ebaf4ec8752ed119d8288287fac/contracts/token/ERC20/ERC20.sol\":8745:8793  _afterTokenTransfer(address(0), account, amount) */\n  tag_23\n    /* \"https://github.com/OpenZeppelin/openzeppelin-contracts/blob/52eeebecda140ebaf4ec8752ed119d8288287fac/contracts/token/ERC20/ERC20.sol\":8773:8774  0 */\n  0x00\n    /* \"https://github.com/OpenZeppelin/openzeppelin-contracts/blob/52eeebecda140ebaf4ec8752ed119d8288287fac/contracts/token/ERC20/ERC20.sol\":8777:8784  account */\n  dup4\n    /* \"https://github.com/OpenZeppelin/openzeppelin-contracts/blob/52eeebecda140ebaf4ec8752ed119d8288287fac/contracts/token/ERC20/ERC20.sol\":8786:8792  amount */\n  dup4\n    /* \"https://github.com/OpenZeppelin/openzeppelin-contracts/blob/52eeebecda140ebaf4ec8752ed119d8288287fac/contracts/token/ERC20/ERC20.sol\":8745:8764  _afterTokenTransfer */\n  shl(0x20, tag_24)\n    /* \"https://github.com/OpenZeppelin/openzeppelin-contracts/blob/52eeebecda140ebaf4ec8752ed119d8288287fac/contracts/token/ERC20/ERC20.sol\":8745:8793  _afterTokenTransfer(address(0), account, amount) */\n  0x20\n  shr\n  jump\t// in\ntag_23:\n    /* \"https://github.com/OpenZeppelin/openzeppelin-contracts/blob/52eeebecda140ebaf4ec8752ed119d8288287fac/contracts/token/ERC20/ERC20.sol\":8411:8800  function _mint(address account, uint256 amount) internal virtual {... */\n  pop\n  pop\n  jump\t// out\n    /* \"https://github.com/OpenZeppelin/openzeppelin-contracts/blob/52eeebecda140ebaf4ec8752ed119d8288287fac/contracts/token/ERC20/ERC20.sol\":11795:11916  function _beforeTokenTransfer(... */\ntag_17:\n  pop\n  pop\n  pop\n  jump\t// out\n    /* \"https://github.com/OpenZeppelin/openzeppelin-contracts/blob/52eeebecda140ebaf4ec8752ed119d8288287fac/contracts/token/ERC20/ERC20.sol\":12504:12624  function _afterTokenTransfer(... */\ntag_24:\n  pop\n  pop\n  pop\n  jump\t// out\n    /* \"src/token.sol\":202:1980  contract Mfu is ERC20 {... */\ntag_6:\n  dup3\n  dup1\n  sload\n  tag_27\n  swap1\n  tag_28\n  jump\t// in\ntag_27:\n  swap1\n  0x00\n  mstore\n  keccak256(0x00, 0x20)\n  swap1\n  0x1f\n  add\n  0x20\n  swap1\n  div\n  dup2\n  add\n  swap3\n  dup3\n  tag_30\n  jumpi\n  0x00\n  dup6\n  sstore\n  jump(tag_29)\ntag_30:\n  dup3\n  0x1f\n  lt\n  tag_31\n  jumpi\n  dup1\n  mload\n  not(0xff)\n  and\n  dup4\n  dup1\n  add\n  or\n  dup6\n  sstore\n  jump(tag_29)\ntag_31:\n  dup3\n  dup1\n  add\n  0x01\n  add\n  dup6\n  sstore\n  dup3\n  iszero\n  tag_29\n  jumpi\n  swap2\n  dup3\n  add\ntag_32:\n  dup3\n  dup2\n  gt\n  iszero\n  tag_33\n  jumpi\n  dup3\n  mload\n  dup3\n  sstore\n  swap2\n  0x20\n  add\n  swap2\n  swap1\n  0x01\n  add\n  swap1\n  jump(tag_32)\ntag_33:\ntag_29:\n  pop\n  swap1\n  pop\n  tag_34\n  swap2\n  swap1\n  tag_35\n  jump\t// in\ntag_34:\n  pop\n  swap1\n  jump\t// out\ntag_35:\ntag_36:\n  dup1\n  dup3\n  gt\n  iszero\n  tag_37\n  jumpi\n  0x00\n  dup2\n  0x00\n  swap1\n  sstore\n  pop\n  0x01\n  add\n  jump(tag_36)\ntag_37:\n  pop\n  swap1\n  jump\t// out\n    /* \"#utility.yul\":7:373   */\ntag_39:\n    /* \"#utility.yul\":149:152   */\n  0x00\n    /* \"#utility.yul\":170:237   */\n  tag_41\n    /* \"#utility.yul\":234:236   */\n  0x1f\n    /* \"#utility.yul\":229:232   */\n  dup4\n    /* \"#utility.yul\":170:237   */\n  tag_42\n  jump\t// in\ntag_41:\n    /* \"#utility.yul\":163:237   */\n  swap2\n  pop\n    /* \"#utility.yul\":246:339   */\n  tag_43\n    /* \"#utility.yul\":335:338   */\n  dup3\n    /* \"#utility.yul\":246:339   */\n  tag_44\n  jump\t// in\ntag_43:\n    /* \"#utility.yul\":364:366   */\n  0x20\n    /* \"#utility.yul\":359:362   */\n  dup3\n    /* \"#utility.yul\":355:367   */\n  add\n    /* \"#utility.yul\":348:367   */\n  swap1\n  pop\n    /* \"#utility.yul\":7:373   */\n  swap2\n  swap1\n  pop\n  jump\t// out\n    /* \"#utility.yul\":379:497   */\ntag_45:\n    /* \"#utility.yul\":466:490   */\n  tag_47\n    /* \"#utility.yul\":484:489   */\n  dup2\n    /* \"#utility.yul\":466:490   */\n  tag_48\n  jump\t// in\ntag_47:\n    /* \"#utility.yul\":461:464   */\n  dup3\n    /* \"#utility.yul\":454:491   */\n  mstore\n    /* \"#utility.yul\":379:497   */\n  pop\n  pop\n  jump\t// out\n    /* \"#utility.yul\":503:922   */\ntag_15:\n    /* \"#utility.yul\":669:673   */\n  0x00\n    /* \"#utility.yul\":707:709   */\n  0x20\n    /* \"#utility.yul\":696:705   */\n  dup3\n    /* \"#utility.yul\":692:710   */\n  add\n    /* \"#utility.yul\":684:710   */\n  swap1\n  pop\n    /* \"#utility.yul\":756:765   */\n  dup2\n    /* \"#utility.yul\":750:754   */\n  dup2\n    /* \"#utility.yul\":746:766   */\n  sub\n    /* \"#utility.yul\":742:743   */\n  0x00\n    /* \"#utility.yul\":731:740   */\n  dup4\n    /* \"#utility.yul\":727:744   */\n  add\n    /* \"#utility.yul\":720:767   */\n  mstore\n    /* \"#utility.yul\":784:915   */\n  tag_50\n    /* \"#utility.yul\":910:914   */\n  dup2\n    /* \"#utility.yul\":784:915   */\n  tag_39\n  jump\t// in\ntag_50:\n    /* \"#utility.yul\":776:915   */\n  swap1\n  pop\n    /* \"#utility.yul\":503:922   */\n  swap2\n  swap1\n  pop\n  jump\t// out\n    /* \"#utility.yul\":928:1150   */\ntag_22:\n    /* \"#utility.yul\":1021:1025   */\n  0x00\n    /* \"#utility.yul\":1059:1061   */\n  0x20\n    /* \"#utility.yul\":1048:1057   */\n  dup3\n    /* \"#utility.yul\":1044:1062   */\n  add\n    /* \"#utility.yul\":1036:1062   */\n  swap1\n  pop\n    /* \"#utility.yul\":1072:1143   */\n  tag_52\n    /* \"#utility.yul\":1140:1141   */\n  0x00\n    /* \"#utility.yul\":1129:1138   */\n  dup4\n    /* \"#utility.yul\":1125:1142   */\n  add\n    /* \"#utility.yul\":1116:1122   */\n  dup5\n    /* \"#utility.yul\":1072:1143   */\n  tag_45\n  jump\t// in\ntag_52:\n    /* \"#utility.yul\":928:1150   */\n  swap3\n  swap2\n  pop\n  pop\n  jump\t// out\n    /* \"#utility.yul\":1156:1325   */\ntag_42:\n    /* \"#utility.yul\":1240:1251   */\n  0x00\n    /* \"#utility.yul\":1274:1280   */\n  dup3\n    /* \"#utility.yul\":1269:1272   */\n  dup3\n    /* \"#utility.yul\":1262:1281   */\n  mstore\n    /* \"#utility.yul\":1314:1318   */\n  0x20\n    /* \"#utility.yul\":1309:1312   */\n  dup3\n    /* \"#utility.yul\":1305:1319   */\n  add\n    /* \"#utility.yul\":1290:1319   */\n  swap1\n  pop\n    /* \"#utility.yul\":1156:1325   */\n  swap3\n  swap2\n  pop\n  pop\n  jump\t// out\n    /* \"#utility.yul\":1331:1636   */\ntag_19:\n    /* \"#utility.yul\":1371:1374   */\n  0x00\n    /* \"#utility.yul\":1390:1410   */\n  tag_55\n    /* \"#utility.yul\":1408:1409   */\n  dup3\n    /* \"#utility.yul\":1390:1410   */\n  tag_48\n  jump\t// in\ntag_55:\n    /* \"#utility.yul\":1385:1410   */\n  swap2\n  pop\n    /* \"#utility.yul\":1424:1444   */\n  tag_56\n    /* \"#utility.yul\":1442:1443   */\n  dup4\n    /* \"#utility.yul\":1424:1444   */\n  tag_48\n  jump\t// in\ntag_56:\n    /* \"#utility.yul\":1419:1444   */\n  swap3\n  pop\n    /* \"#utility.yul\":1578:1579   */\n  dup3\n    /* \"#utility.yul\":1510:1576   */\n  0xffffffffffffffffffffffffffffffffffffffffffffffffffffffffffffffff\n    /* \"#utility.yul\":1506:1580   */\n  sub\n    /* \"#utility.yul\":1503:1504   */\n  dup3\n    /* \"#utility.yul\":1500:1581   */\n  gt\n    /* \"#utility.yul\":1497:1604   */\n  iszero\n  tag_57\n  jumpi\n    /* \"#utility.yul\":1584:1602   */\n  tag_58\n  tag_59\n  jump\t// in\ntag_58:\n    /* \"#utility.yul\":1497:1604   */\ntag_57:\n    /* \"#utility.yul\":1628:1629   */\n  dup3\n    /* \"#utility.yul\":1625:1626   */\n  dup3\n    /* \"#utility.yul\":1621:1630   */\n  add\n    /* \"#utility.yul\":1614:1630   */\n  swap1\n  pop\n    /* \"#utility.yul\":1331:1636   */\n  swap3\n  swap2\n  pop\n  pop\n  jump\t// out\n    /* \"#utility.yul\":1642:1719   */\ntag_48:\n    /* \"#utility.yul\":1679:1686   */\n  0x00\n    /* \"#utility.yul\":1708:1713   */\n  dup2\n    /* \"#utility.yul\":1697:1713   */\n  swap1\n  pop\n    /* \"#utility.yul\":1642:1719   */\n  swap2\n  swap1\n  pop\n  jump\t// out\n    /* \"#utility.yul\":1725:2045   */\ntag_28:\n    /* \"#utility.yul\":1769:1775   */\n  0x00\n    /* \"#utility.yul\":1806:1807   */\n  0x02\n    /* \"#utility.yul\":1800:1804   */\n  dup3\n    /* \"#utility.yul\":1796:1808   */\n  div\n    /* \"#utility.yul\":1786:1808   */\n  swap1\n  pop\n    /* \"#utility.yul\":1853:1854   */\n  0x01\n    /* \"#utility.yul\":1847:1851   */\n  dup3\n    /* \"#utility.yul\":1843:1855   */\n  and\n    /* \"#utility.yul\":1874:1892   */\n  dup1\n    /* \"#utility.yul\":1864:1945   */\n  tag_62\n  jumpi\n    /* \"#utility.yul\":1930:1934   */\n  0x7f\n    /* \"#utility.yul\":1922:1928   */\n  dup3\n    /* \"#utility.yul\":1918:1935   */\n  and\n    /* \"#utility.yul\":1908:1935   */\n  swap2\n  pop\n    /* \"#utility.yul\":1864:1945   */\ntag_62:\n    /* \"#utility.yul\":1992:1994   */\n  0x20\n    /* \"#utility.yul\":1984:1990   */\n  dup3\n    /* \"#utility.yul\":1981:1995   */\n  lt\n    /* \"#utility.yul\":1961:1979   */\n  dup2\n    /* \"#utility.yul\":1958:1996   */\n  eq\n    /* \"#utility.yul\":1955:2039   */\n  iszero\n  tag_63\n  jumpi\n    /* \"#utility.yul\":2011:2029   */\n  tag_64\n  tag_65\n  jump\t// in\ntag_64:\n    /* \"#utility.yul\":1955:2039   */\ntag_63:\n    /* \"#utility.yul\":1776:2045   */\n  pop\n    /* \"#utility.yul\":1725:2045   */\n  swap2\n  swap1\n  pop\n  jump\t// out\n    /* \"#utility.yul\":2051:2231   */\ntag_59:\n    /* \"#utility.yul\":2099:2176   */\n  0x4e487b7100000000000000000000000000000000000000000000000000000000\n    /* \"#utility.yul\":2096:2097   */\n  0x00\n    /* \"#utility.yul\":2089:2177   */\n  mstore\n    /* \"#utility.yul\":2196:2200   */\n  0x11\n    /* \"#utility.yul\":2193:2194   */\n  0x04\n    /* \"#utility.yul\":2186:2201   */\n  mstore\n    /* \"#utility.yul\":2220:2224   */\n  0x24\n    /* \"#utility.yul\":2217:2218   */\n  0x00\n    /* \"#utility.yul\":2210:2225   */\n  revert\n    /* \"#utility.yul\":2237:2417   */\ntag_65:\n    /* \"#utility.yul\":2285:2362   */\n  0x4e487b7100000000000000000000000000000000000000000000000000000000\n    /* \"#utility.yul\":2282:2283   */\n  0x00\n    /* \"#utility.yul\":2275:2363   */\n  mstore\n    /* \"#utility.yul\":2382:2386   */\n  0x22\n    /* \"#utility.yul\":2379:2380   */\n  0x04\n    /* \"#utility.yul\":2372:2387   */\n  mstore\n    /* \"#utility.yul\":2406:2410   */\n  0x24\n    /* \"#utility.yul\":2403:2404   */\n  0x00\n    /* \"#utility.yul\":2396:2411   */\n  revert\n    /* \"#utility.yul\":2423:2604   */\ntag_44:\n    /* \"#utility.yul\":2563:2596   */\n  0x45524332303a206d696e7420746f20746865207a65726f206164647265737300\n    /* \"#utility.yul\":2559:2560   */\n  0x00\n    /* \"#utility.yul\":2551:2557   */\n  dup3\n    /* \"#utility.yul\":2547:2561   */\n  add\n    /* \"#utility.yul\":2540:2597   */\n  mstore\n    /* \"#utility.yul\":2423:2604   */\n  pop\n  jump\t// out\n    /* \"src/token.sol\":202:1980  contract Mfu is ERC20 {... */\ntag_11:\n  dataSize(sub_0)\n  dup1\n  dataOffset(sub_0)\n  0x00\n  codecopy\n  0x00\n  return\nstop\n\nsub_0: assembly {\n        /* \"src/token.sol\":202:1980  contract Mfu is ERC20 {... */\n      mstore(0x40, 0x80)\n      callvalue\n      dup1\n      iszero\n      tag_1\n      jumpi\n      0x00\n      dup1\n      revert\n    tag_1:\n      pop\n      jumpi(tag_2, lt(calldatasize, 0x04))\n      shr(0xe0, calldataload(0x00))\n      dup1\n      0x39509351\n      gt\n      tag_19\n      jumpi\n      dup1\n      0x95d89b41\n      gt\n      tag_20\n      jumpi\n      dup1\n      0x95d89b41\n      eq\n      tag_15\n      jumpi\n      dup1\n      0xa457c2d7\n      eq\n      tag_16\n      jumpi\n      dup1\n      0xa9059cbb\n      eq\n      tag_17\n      jumpi\n      dup1\n      0xdd62ed3e\n      eq\n      tag_18\n      jumpi\n      jump(tag_2)\n    tag_20:\n      dup1\n      0x39509351\n      eq\n      tag_11\n      jumpi\n      dup1\n      0x40c10f19\n      eq\n      tag_12\n      jumpi\n      dup1\n      0x5b2a0e96\n      eq\n      tag_13\n      jumpi\n      dup1\n      0x70a08231\n      eq\n      tag_14\n      jumpi\n      jump(tag_2)\n    tag_19:\n      dup1\n      0x18160ddd\n      gt\n      tag_21\n      jumpi\n      dup1\n      0x18160ddd\n      eq\n      tag_7\n      jumpi\n      dup1\n      0x23b872dd\n      eq\n      tag_8\n      jumpi\n      dup1\n      0x27e235e3\n      eq\n      tag_9\n      jumpi\n      dup1\n      0x313ce567\n      eq\n      tag_10\n      jumpi\n      jump(tag_2)\n    tag_21:\n      dup1\n      0x06fdde03\n      eq\n      tag_3\n      jumpi\n      dup1\n      0x07546172\n      eq\n      tag_4\n      jumpi\n      dup1\n      0x0779afe6\n      eq\n      tag_5\n      jumpi\n      dup1\n      0x095ea7b3\n      eq\n      tag_6\n      jumpi\n    tag_2:\n      0x00\n      dup1\n      revert\n        /* \"https://github.com/OpenZeppelin/openzeppelin-contracts/blob/52eeebecda140ebaf4ec8752ed119d8288287fac/contracts/token/ERC20/ERC20.sol\":2156:2254  function name() public view virtual override returns (string memory) {... */\n    tag_3:\n      tag_22\n      tag_23\n      jump\t// in\n    tag_22:\n      mload(0x40)\n      tag_24\n      swap2\n      swap1\n      tag_25\n      jump\t// in\n    tag_24:\n      mload(0x40)\n      dup1\n      swap2\n      sub\n      swap1\n      return\n        /* \"src/token.sol\":231:252  address public minter */\n    tag_4:\n      tag_26\n      tag_27\n      jump\t// in\n    tag_26:\n      mload(0x40)\n      tag_28\n      swap2\n      swap1\n      tag_29\n      jump\t// in\n    tag_28:\n      mload(0x40)\n      dup1\n      swap2\n      sub\n      swap1\n      return\n        /* \"src/token.sol\":1082:1432  function send(address sender, address receiver, uint amount) public {... */\n    tag_5:\n      tag_30\n      0x04\n      dup1\n      calldatasize\n      sub\n      dup2\n      add\n      swap1\n      tag_31\n      swap2\n      swap1\n      tag_32\n      jump\t// in\n    tag_31:\n      tag_33\n      jump\t// in\n    tag_30:\n      stop\n        /* \"https://github.com/OpenZeppelin/openzeppelin-contracts/blob/52eeebecda140ebaf4ec8752ed119d8288287fac/contracts/token/ERC20/ERC20.sol\":4433:4630  function approve(address spender, uint256 amount) public virtual override returns (bool) {... */\n    tag_6:\n      tag_34\n      0x04\n      dup1\n      calldatasize\n      sub\n      dup2\n      add\n      swap1\n      tag_35\n      swap2\n      swap1\n      tag_36\n      jump\t// in\n    tag_35:\n      tag_37\n      jump\t// in\n    tag_34:\n      mload(0x40)\n      tag_38\n      swap2\n      swap1\n      tag_39\n      jump\t// in\n    tag_38:\n      mload(0x40)\n      dup1\n      swap2\n      sub\n      swap1\n      return\n        /* \"https://github.com/OpenZeppelin/openzeppelin-contracts/blob/52eeebecda140ebaf4ec8752ed119d8288287fac/contracts/token/ERC20/ERC20.sol\":3244:3350  function totalSupply() public view virtual override returns (uint256) {... */\n    tag_7:\n      tag_40\n      tag_41\n      jump\t// in\n    tag_40:\n      mload(0x40)\n      tag_42\n      swap2\n      swap1\n      tag_43\n      jump\t// in\n    tag_42:\n      mload(0x40)\n      dup1\n      swap2\n      sub\n      swap1\n      return\n        /* \"https://github.com/OpenZeppelin/openzeppelin-contracts/blob/52eeebecda140ebaf4ec8752ed119d8288287fac/contracts/token/ERC20/ERC20.sol\":5192:5478  function transferFrom(... */\n    tag_8:\n      tag_44\n      0x04\n      dup1\n      calldatasize\n      sub\n      dup2\n      add\n      swap1\n      tag_45\n      swap2\n      swap1\n      tag_32\n      jump\t// in\n    tag_45:\n      tag_46\n      jump\t// in\n    tag_44:\n      mload(0x40)\n      tag_47\n      swap2\n      swap1\n      tag_39\n      jump\t// in\n    tag_47:\n      mload(0x40)\n      dup1\n      swap2\n      sub\n      swap1\n      return\n        /* \"src/token.sol\":258:299  mapping (address => uint) public balances */\n    tag_9:\n      tag_48\n      0x04\n      dup1\n      calldatasize\n      sub\n      dup2\n      add\n      swap1\n      tag_49\n      swap2\n      swap1\n      tag_50\n      jump\t// in\n    tag_49:\n      tag_51\n      jump\t// in\n    tag_48:\n      mload(0x40)\n      tag_52\n      swap2\n      swap1\n      tag_43\n      jump\t// in\n    tag_52:\n      mload(0x40)\n      dup1\n      swap2\n      sub\n      swap1\n      return\n        /* \"https://github.com/OpenZeppelin/openzeppelin-contracts/blob/52eeebecda140ebaf4ec8752ed119d8288287fac/contracts/token/ERC20/ERC20.sol\":3093:3184  function decimals() public view virtual override returns (uint8) {... */\n    tag_10:\n      tag_53\n      tag_54\n      jump\t// in\n    tag_53:\n      mload(0x40)\n      tag_55\n      swap2\n      swap1\n      tag_56\n      jump\t// in\n    tag_55:\n      mload(0x40)\n      dup1\n      swap2\n      sub\n      swap1\n      return\n        /* \"https://github.com/OpenZeppelin/openzeppelin-contracts/blob/52eeebecda140ebaf4ec8752ed119d8288287fac/contracts/token/ERC20/ERC20.sol\":5873:6107  function increaseAllowance(address spender, uint256 addedValue) public virtual returns (bool) {... */\n    tag_11:\n      tag_57\n      0x04\n      dup1\n      calldatasize\n      sub\n      dup2\n      add\n      swap1\n      tag_58\n      swap2\n      swap1\n      tag_36\n      jump\t// in\n    tag_58:\n      tag_59\n      jump\t// in\n    tag_57:\n      mload(0x40)\n      tag_60\n      swap2\n      swap1\n      tag_39\n      jump\t// in\n    tag_60:\n      mload(0x40)\n      dup1\n      swap2\n      sub\n      swap1\n      return\n        /* \"src/token.sol\":835:1076  function mint(address receiver, uint amount) public {... */\n    tag_12:\n      tag_61\n      0x04\n      dup1\n      calldatasize\n      sub\n      dup2\n      add\n      swap1\n      tag_62\n      swap2\n      swap1\n      tag_36\n      jump\t// in\n    tag_62:\n      tag_63\n      jump\t// in\n    tag_61:\n      stop\n        /* \"src/token.sol\":1438:1826  function multiSend(address sender, address[] calldata receivers, uint amount) public {... */\n    tag_13:\n      tag_64\n      0x04\n      dup1\n      calldatasize\n      sub\n      dup2\n      add\n      swap1\n      tag_65\n      swap2\n      swap1\n      tag_66\n      jump\t// in\n    tag_65:\n      tag_67\n      jump\t// in\n    tag_64:\n      stop\n        /* \"https://github.com/OpenZeppelin/openzeppelin-contracts/blob/52eeebecda140ebaf4ec8752ed119d8288287fac/contracts/token/ERC20/ERC20.sol\":3408:3533  function balanceOf(address account) public view virtual override returns (uint256) {... */\n    tag_14:\n      tag_68\n      0x04\n      dup1\n      calldatasize\n      sub\n      dup2\n      add\n      swap1\n      tag_69\n      swap2\n      swap1\n      tag_50\n      jump\t// in\n    tag_69:\n      tag_70\n      jump\t// in\n    tag_68:\n      mload(0x40)\n      tag_71\n      swap2\n      swap1\n      tag_43\n      jump\t// in\n    tag_71:\n      mload(0x40)\n      dup1\n      swap2\n      sub\n      swap1\n      return\n        /* \"https://github.com/OpenZeppelin/openzeppelin-contracts/blob/52eeebecda140ebaf4ec8752ed119d8288287fac/contracts/token/ERC20/ERC20.sol\":2367:2469  function symbol() public view virtual override returns (string memory) {... */\n    tag_15:\n      tag_72\n      tag_73\n      jump\t// in\n    tag_72:\n      mload(0x40)\n      tag_74\n      swap2\n      swap1\n      tag_25\n      jump\t// in\n    tag_74:\n      mload(0x40)\n      dup1\n      swap2\n      sub\n      swap1\n      return\n        /* \"https://github.com/OpenZeppelin/openzeppelin-contracts/blob/52eeebecda140ebaf4ec8752ed119d8288287fac/contracts/token/ERC20/ERC20.sol\":6594:7021  function decreaseAllowance(address spender, uint256 subtractedValue) public virtual returns (bool) {... */\n    tag_16:\n      tag_75\n      0x04\n      dup1\n      calldatasize\n      sub\n      dup2\n      add\n      swap1\n      tag_76\n      swap2\n      swap1\n      tag_36\n      jump\t// in\n    tag_76:\n      tag_77\n      jump\t// in\n    tag_75:\n      mload(0x40)\n      tag_78\n      swap2\n      swap1\n      tag_39\n      jump\t// in\n    tag_78:\n      mload(0x40)\n      dup1\n      swap2\n      sub\n      swap1\n      return\n        /* \"https://github.com/OpenZeppelin/openzeppelin-contracts/blob/52eeebecda140ebaf4ec8752ed119d8288287fac/contracts/token/ERC20/ERC20.sol\":3729:3918  function transfer(address to, uint256 amount) public virtual override returns (bool) {... */\n    tag_17:\n      tag_79\n      0x04\n      dup1\n      calldatasize\n      sub\n      dup2\n      add\n      swap1\n      tag_80\n      swap2\n      swap1\n      tag_36\n      jump\t// in\n    tag_80:\n      tag_81\n      jump\t// in\n    tag_79:\n      mload(0x40)\n      tag_82\n      swap2\n      swap1\n      tag_39\n      jump\t// in\n    tag_82:\n      mload(0x40)\n      dup1\n      swap2\n      sub\n      swap1\n      return\n        /* \"https://github.com/OpenZeppelin/openzeppelin-contracts/blob/52eeebecda140ebaf4ec8752ed119d8288287fac/contracts/token/ERC20/ERC20.sol\":3976:4125  function allowance(address owner, address spender) public view virtual override returns (uint256) {... */\n    tag_18:\n      tag_83\n      0x04\n      dup1\n      calldatasize\n      sub\n      dup2\n      add\n      swap1\n      tag_84\n      swap2\n      swap1\n      tag_85\n      jump\t// in\n    tag_84:\n      tag_86\n      jump\t// in\n    tag_83:\n      mload(0x40)\n      tag_87\n      swap2\n      swap1\n      tag_43\n      jump\t// in\n    tag_87:\n      mload(0x40)\n      dup1\n      swap2\n      sub\n      swap1\n      return\n        /* \"https://github.com/OpenZeppelin/openzeppelin-contracts/blob/52eeebecda140ebaf4ec8752ed119d8288287fac/contracts/token/ERC20/ERC20.sol\":2156:2254  function name() public view virtual override returns (string memory) {... */\n    tag_23:\n        /* \"https://github.com/OpenZeppelin/openzeppelin-contracts/blob/52eeebecda140ebaf4ec8752ed119d8288287fac/contracts/token/ERC20/ERC20.sol\":2210:2223  string memory */\n      0x60\n        /* \"https://github.com/OpenZeppelin/openzeppelin-contracts/blob/52eeebecda140ebaf4ec8752ed119d8288287fac/contracts/token/ERC20/ERC20.sol\":2242:2247  _name */\n      0x03\n        /* \"https://github.com/OpenZeppelin/openzeppelin-contracts/blob/52eeebecda140ebaf4ec8752ed119d8288287fac/contracts/token/ERC20/ERC20.sol\":2235:2247  return _name */\n      dup1\n      sload\n      tag_89\n      swap1\n      tag_90\n      jump\t// in\n    tag_89:\n      dup1\n      0x1f\n      add\n      0x20\n      dup1\n      swap2\n      div\n      mul\n      0x20\n      add\n      mload(0x40)\n      swap1\n      dup2\n      add\n      0x40\n      mstore\n      dup1\n      swap3\n      swap2\n      swap1\n      dup2\n      dup2\n      mstore\n      0x20\n      add\n      dup3\n      dup1\n      sload\n      tag_91\n      swap1\n      tag_90\n      jump\t// in\n    tag_91:\n      dup1\n      iszero\n      tag_92\n      jumpi\n      dup1\n      0x1f\n      lt\n      tag_93\n      jumpi\n      0x0100\n      dup1\n      dup4\n      sload\n      div\n      mul\n      dup4\n      mstore\n      swap2\n      0x20\n      add\n      swap2\n      jump(tag_92)\n    tag_93:\n      dup3\n      add\n      swap2\n      swap1\n      0x00\n      mstore\n      keccak256(0x00, 0x20)\n      swap1\n    tag_94:\n      dup2\n      sload\n      dup2\n      mstore\n      swap1\n      0x01\n      add\n      swap1\n      0x20\n      add\n      dup1\n      dup4\n      gt\n      tag_94\n      jumpi\n      dup3\n      swap1\n      sub\n      0x1f\n      and\n      dup3\n      add\n      swap2\n    tag_92:\n      pop\n      pop\n      pop\n      pop\n      pop\n      swap1\n      pop\n        /* \"https://github.com/OpenZeppelin/openzeppelin-contracts/blob/52eeebecda140ebaf4ec8752ed119d8288287fac/contracts/token/ERC20/ERC20.sol\":2156:2254  function name() public view virtual override returns (string memory) {... */\n      swap1\n      jump\t// out\n        /* \"src/token.sol\":231:252  address public minter */\n    tag_27:\n      0x05\n      0x00\n      swap1\n      sload\n      swap1\n      0x0100\n      exp\n      swap1\n      div\n      0xffffffffffffffffffffffffffffffffffffffff\n      and\n      dup2\n      jump\t// out\n        /* \"src/token.sol\":1082:1432  function send(address sender, address receiver, uint amount) public {... */\n    tag_33:\n        /* \"src/token.sol\":1165:1182  DebugUint(amount) */\n      0xf0ed029e274dabb7636aeed7333cf47bc8c97dd6eb6d8faea6e9bfbd6620bebe\n        /* \"src/token.sol\":1175:1181  amount */\n      dup2\n        /* \"src/token.sol\":1165:1182  DebugUint(amount) */\n      mload(0x40)\n      tag_96\n      swap2\n      swap1\n      tag_43\n      jump\t// in\n    tag_96:\n      mload(0x40)\n      dup1\n      swap2\n      sub\n      swap1\n      log1\n        /* \"src/token.sol\":1197:1224  DebugUint(balances[sender]) */\n      0xf0ed029e274dabb7636aeed7333cf47bc8c97dd6eb6d8faea6e9bfbd6620bebe\n        /* \"src/token.sol\":1207:1215  balances */\n      0x06\n        /* \"src/token.sol\":1207:1223  balances[sender] */\n      0x00\n        /* \"src/token.sol\":1216:1222  sender */\n      dup6\n        /* \"src/token.sol\":1207:1223  balances[sender] */\n      0xffffffffffffffffffffffffffffffffffffffff\n      and\n      0xffffffffffffffffffffffffffffffffffffffff\n      and\n      dup2\n      mstore\n      0x20\n      add\n      swap1\n      dup2\n      mstore\n      0x20\n      add\n      0x00\n      keccak256\n      sload\n        /* \"src/token.sol\":1197:1224  DebugUint(balances[sender]) */\n      mload(0x40)\n      tag_97\n      swap2\n      swap1\n      tag_43\n      jump\t// in\n    tag_97:\n      mload(0x40)\n      dup1\n      swap2\n      sub\n      swap1\n      log1\n        /* \"src/token.sol\":1328:1334  amount */\n      dup1\n        /* \"src/token.sol\":1308:1316  balances */\n      0x06\n        /* \"src/token.sol\":1308:1324  balances[sender] */\n      0x00\n        /* \"src/token.sol\":1317:1323  sender */\n      dup6\n        /* \"src/token.sol\":1308:1324  balances[sender] */\n      0xffffffffffffffffffffffffffffffffffffffff\n      and\n      0xffffffffffffffffffffffffffffffffffffffff\n      and\n      dup2\n      mstore\n      0x20\n      add\n      swap1\n      dup2\n      mstore\n      0x20\n      add\n      0x00\n      keccak256\n      0x00\n        /* \"src/token.sol\":1308:1334  balances[sender] -= amount */\n      dup3\n      dup3\n      sload\n      tag_98\n      swap2\n      swap1\n      tag_99\n      jump\t// in\n    tag_98:\n      swap3\n      pop\n      pop\n      dup2\n      swap1\n      sstore\n      pop\n        /* \"src/token.sol\":1366:1372  amount */\n      dup1\n        /* \"src/token.sol\":1344:1352  balances */\n      0x06\n        /* \"src/token.sol\":1344:1362  balances[receiver] */\n      0x00\n        /* \"src/token.sol\":1353:1361  receiver */\n      dup5\n        /* \"src/token.sol\":1344:1362  balances[receiver] */\n      0xffffffffffffffffffffffffffffffffffffffff\n      and\n      0xffffffffffffffffffffffffffffffffffffffff\n      and\n      dup2\n      mstore\n      0x20\n      add\n      swap1\n      dup2\n      mstore\n      0x20\n      add\n      0x00\n      keccak256\n      0x00\n        /* \"src/token.sol\":1344:1372  balances[receiver] += amount */\n      dup3\n      dup3\n      sload\n      tag_100\n      swap2\n      swap1\n      tag_101\n      jump\t// in\n    tag_100:\n      swap3\n      pop\n      pop\n      dup2\n      swap1\n      sstore\n      pop\n        /* \"src/token.sol\":1388:1425  SendToken( sender, receiver, amount ) */\n      0xf91179ed40193440f3f022c5755e0fc1c4b1fb78b129dd47b3c465276c070fd3\n        /* \"src/token.sol\":1399:1405  sender */\n      dup4\n        /* \"src/token.sol\":1407:1415  receiver */\n      dup4\n        /* \"src/token.sol\":1417:1423  amount */\n      dup4\n        /* \"src/token.sol\":1388:1425  SendToken( sender, receiver, amount ) */\n      mload(0x40)\n      tag_102\n      swap4\n      swap3\n      swap2\n      swap1\n      tag_103\n      jump\t// in\n    tag_102:\n      mload(0x40)\n      dup1\n      swap2\n      sub\n      swap1\n      log1\n        /* \"src/token.sol\":1082:1432  function send(address sender, address receiver, uint amount) public {... */\n      pop\n      pop\n      pop\n      jump\t// out\n        /* \"https://github.com/OpenZeppelin/openzeppelin-contracts/blob/52eeebecda140ebaf4ec8752ed119d8288287fac/contracts/token/ERC20/ERC20.sol\":4433:4630  function approve(address spender, uint256 amount) public virtual override returns (bool) {... */\n    tag_37:\n        /* \"https://github.com/OpenZeppelin/openzeppelin-contracts/blob/52eeebecda140ebaf4ec8752ed119d8288287fac/contracts/token/ERC20/ERC20.sol\":4516:4520  bool */\n      0x00\n        /* \"https://github.com/OpenZeppelin/openzeppelin-contracts/blob/52eeebecda140ebaf4ec8752ed119d8288287fac/contracts/token/ERC20/ERC20.sol\":4532:4545  address owner */\n      dup1\n        /* \"https://github.com/OpenZeppelin/openzeppelin-contracts/blob/52eeebecda140ebaf4ec8752ed119d8288287fac/contracts/token/ERC20/ERC20.sol\":4548:4560  _msgSender() */\n      tag_105\n        /* \"https://github.com/OpenZeppelin/openzeppelin-contracts/blob/52eeebecda140ebaf4ec8752ed119d8288287fac/contracts/token/ERC20/ERC20.sol\":4548:4558  _msgSender */\n      tag_106\n        /* \"https://github.com/OpenZeppelin/openzeppelin-contracts/blob/52eeebecda140ebaf4ec8752ed119d8288287fac/contracts/token/ERC20/ERC20.sol\":4548:4560  _msgSender() */\n      jump\t// in\n    tag_105:\n        /* \"https://github.com/OpenZeppelin/openzeppelin-contracts/blob/52eeebecda140ebaf4ec8752ed119d8288287fac/contracts/token/ERC20/ERC20.sol\":4532:4560  address owner = _msgSender() */\n      swap1\n      pop\n        /* \"https://github.com/OpenZeppelin/openzeppelin-contracts/blob/52eeebecda140ebaf4ec8752ed119d8288287fac/contracts/token/ERC20/ERC20.sol\":4570:4602  _approve(owner, spender, amount) */\n      tag_107\n        /* \"https://github.com/OpenZeppelin/openzeppelin-contracts/blob/52eeebecda140ebaf4ec8752ed119d8288287fac/contracts/token/ERC20/ERC20.sol\":4579:4584  owner */\n      dup2\n        /* \"https://github.com/OpenZeppelin/openzeppelin-contracts/blob/52eeebecda140ebaf4ec8752ed119d8288287fac/contracts/token/ERC20/ERC20.sol\":4586:4593  spender */\n      dup6\n        /* \"https://github.com/OpenZeppelin/openzeppelin-contracts/blob/52eeebecda140ebaf4ec8752ed119d8288287fac/contracts/token/ERC20/ERC20.sol\":4595:4601  amount */\n      dup6\n        /* \"https://github.com/OpenZeppelin/openzeppelin-contracts/blob/52eeebecda140ebaf4ec8752ed119d8288287fac/contracts/token/ERC20/ERC20.sol\":4570:4578  _approve */\n      tag_108\n        /* \"https://github.com/OpenZeppelin/openzeppelin-contracts/blob/52eeebecda140ebaf4ec8752ed119d8288287fac/contracts/token/ERC20/ERC20.sol\":4570:4602  _approve(owner, spender, amount) */\n      jump\t// in\n    tag_107:\n        /* \"https://github.com/OpenZeppelin/openzeppelin-contracts/blob/52eeebecda140ebaf4ec8752ed119d8288287fac/contracts/token/ERC20/ERC20.sol\":4619:4623  true */\n      0x01\n        /* \"https://github.com/OpenZeppelin/openzeppelin-contracts/blob/52eeebecda140ebaf4ec8752ed119d8288287fac/contracts/token/ERC20/ERC20.sol\":4612:4623  return true */\n      swap2\n      pop\n      pop\n        /* \"https://github.com/OpenZeppelin/openzeppelin-contracts/blob/52eeebecda140ebaf4ec8752ed119d8288287fac/contracts/token/ERC20/ERC20.sol\":4433:4630  function approve(address spender, uint256 amount) public virtual override returns (bool) {... */\n      swap3\n      swap2\n      pop\n      pop\n      jump\t// out\n        /* \"https://github.com/OpenZeppelin/openzeppelin-contracts/blob/52eeebecda140ebaf4ec8752ed119d8288287fac/contracts/token/ERC20/ERC20.sol\":3244:3350  function totalSupply() public view virtual override returns (uint256) {... */\n    tag_41:\n        /* \"https://github.com/OpenZeppelin/openzeppelin-contracts/blob/52eeebecda140ebaf4ec8752ed119d8288287fac/contracts/token/ERC20/ERC20.sol\":3305:3312  uint256 */\n      0x00\n        /* \"https://github.com/OpenZeppelin/openzeppelin-contracts/blob/52eeebecda140ebaf4ec8752ed119d8288287fac/contracts/token/ERC20/ERC20.sol\":3331:3343  _totalSupply */\n      sload(0x02)\n        /* \"https://github.com/OpenZeppelin/openzeppelin-contracts/blob/52eeebecda140ebaf4ec8752ed119d8288287fac/contracts/token/ERC20/ERC20.sol\":3324:3343  return _totalSupply */\n      swap1\n      pop\n        /* \"https://github.com/OpenZeppelin/openzeppelin-contracts/blob/52eeebecda140ebaf4ec8752ed119d8288287fac/contracts/token/ERC20/ERC20.sol\":3244:3350  function totalSupply() public view virtual override returns (uint256) {... */\n      swap1\n      jump\t// out\n        /* \"https://github.com/OpenZeppelin/openzeppelin-contracts/blob/52eeebecda140ebaf4ec8752ed119d8288287fac/contracts/token/ERC20/ERC20.sol\":5192:5478  function transferFrom(... */\n    tag_46:\n        /* \"https://github.com/OpenZeppelin/openzeppelin-contracts/blob/52eeebecda140ebaf4ec8752ed119d8288287fac/contracts/token/ERC20/ERC20.sol\":5319:5323  bool */\n      0x00\n        /* \"https://github.com/OpenZeppelin/openzeppelin-contracts/blob/52eeebecda140ebaf4ec8752ed119d8288287fac/contracts/token/ERC20/ERC20.sol\":5335:5350  address spender */\n      dup1\n        /* \"https://github.com/OpenZeppelin/openzeppelin-contracts/blob/52eeebecda140ebaf4ec8752ed119d8288287fac/contracts/token/ERC20/ERC20.sol\":5353:5365  _msgSender() */\n      tag_111\n        /* \"https://github.com/OpenZeppelin/openzeppelin-contracts/blob/52eeebecda140ebaf4ec8752ed119d8288287fac/contracts/token/ERC20/ERC20.sol\":5353:5363  _msgSender */\n      tag_106\n        /* \"https://github.com/OpenZeppelin/openzeppelin-contracts/blob/52eeebecda140ebaf4ec8752ed119d8288287fac/contracts/token/ERC20/ERC20.sol\":5353:5365  _msgSender() */\n      jump\t// in\n    tag_111:\n        /* \"https://github.com/OpenZeppelin/openzeppelin-contracts/blob/52eeebecda140ebaf4ec8752ed119d8288287fac/contracts/token/ERC20/ERC20.sol\":5335:5365  address spender = _msgSender() */\n      swap1\n      pop\n        /* \"https://github.com/OpenZeppelin/openzeppelin-contracts/blob/52eeebecda140ebaf4ec8752ed119d8288287fac/contracts/token/ERC20/ERC20.sol\":5375:5413  _spendAllowance(from, spender, amount) */\n      tag_112\n        /* \"https://github.com/OpenZeppelin/openzeppelin-contracts/blob/52eeebecda140ebaf4ec8752ed119d8288287fac/contracts/token/ERC20/ERC20.sol\":5391:5395  from */\n      dup6\n        /* \"https://github.com/OpenZeppelin/openzeppelin-contracts/blob/52eeebecda140ebaf4ec8752ed119d8288287fac/contracts/token/ERC20/ERC20.sol\":5397:5404  spender */\n      dup3\n        /* \"https://github.com/OpenZeppelin/openzeppelin-contracts/blob/52eeebecda140ebaf4ec8752ed119d8288287fac/contracts/token/ERC20/ERC20.sol\":5406:5412  amount */\n      dup6\n        /* \"https://github.com/OpenZeppelin/openzeppelin-contracts/blob/52eeebecda140ebaf4ec8752ed119d8288287fac/contracts/token/ERC20/ERC20.sol\":5375:5390  _spendAllowance */\n      tag_113\n        /* \"https://github.com/OpenZeppelin/openzeppelin-contracts/blob/52eeebecda140ebaf4ec8752ed119d8288287fac/contracts/token/ERC20/ERC20.sol\":5375:5413  _spendAllowance(from, spender, amount) */\n      jump\t// in\n    tag_112:\n        /* \"https://github.com/OpenZeppelin/openzeppelin-contracts/blob/52eeebecda140ebaf4ec8752ed119d8288287fac/contracts/token/ERC20/ERC20.sol\":5423:5450  _transfer(from, to, amount) */\n      tag_114\n        /* \"https://github.com/OpenZeppelin/openzeppelin-contracts/blob/52eeebecda140ebaf4ec8752ed119d8288287fac/contracts/token/ERC20/ERC20.sol\":5433:5437  from */\n      dup6\n        /* \"https://github.com/OpenZeppelin/openzeppelin-contracts/blob/52eeebecda140ebaf4ec8752ed119d8288287fac/contracts/token/ERC20/ERC20.sol\":5439:5441  to */\n      dup6\n        /* \"https://github.com/OpenZeppelin/openzeppelin-contracts/blob/52eeebecda140ebaf4ec8752ed119d8288287fac/contracts/token/ERC20/ERC20.sol\":5443:5449  amount */\n      dup6\n        /* \"https://github.com/OpenZeppelin/openzeppelin-contracts/blob/52eeebecda140ebaf4ec8752ed119d8288287fac/contracts/token/ERC20/ERC20.sol\":5423:5432  _transfer */\n      tag_115\n        /* \"https://github.com/OpenZeppelin/openzeppelin-contracts/blob/52eeebecda140ebaf4ec8752ed119d8288287fac/contracts/token/ERC20/ERC20.sol\":5423:5450  _transfer(from, to, amount) */\n      jump\t// in\n    tag_114:\n        /* \"https://github.com/OpenZeppelin/openzeppelin-contracts/blob/52eeebecda140ebaf4ec8752ed119d8288287fac/contracts/token/ERC20/ERC20.sol\":5467:5471  true */\n      0x01\n        /* \"https://github.com/OpenZeppelin/openzeppelin-contracts/blob/52eeebecda140ebaf4ec8752ed119d8288287fac/contracts/token/ERC20/ERC20.sol\":5460:5471  return true */\n      swap2\n      pop\n      pop\n        /* \"https://github.com/OpenZeppelin/openzeppelin-contracts/blob/52eeebecda140ebaf4ec8752ed119d8288287fac/contracts/token/ERC20/ERC20.sol\":5192:5478  function transferFrom(... */\n      swap4\n      swap3\n      pop\n      pop\n      pop\n      jump\t// out\n        /* \"src/token.sol\":258:299  mapping (address => uint) public balances */\n    tag_51:\n      mstore(0x20, 0x06)\n      dup1\n      0x00\n      mstore\n      keccak256(0x00, 0x40)\n      0x00\n      swap2\n      pop\n      swap1\n      pop\n      sload\n      dup2\n      jump\t// out\n        /* \"https://github.com/OpenZeppelin/openzeppelin-contracts/blob/52eeebecda140ebaf4ec8752ed119d8288287fac/contracts/token/ERC20/ERC20.sol\":3093:3184  function decimals() public view virtual override returns (uint8) {... */\n    tag_54:\n        /* \"https://github.com/OpenZeppelin/openzeppelin-contracts/blob/52eeebecda140ebaf4ec8752ed119d8288287fac/contracts/token/ERC20/ERC20.sol\":3151:3156  uint8 */\n      0x00\n        /* \"https://github.com/OpenZeppelin/openzeppelin-contracts/blob/52eeebecda140ebaf4ec8752ed119d8288287fac/contracts/token/ERC20/ERC20.sol\":3175:3177  18 */\n      0x12\n        /* \"https://github.com/OpenZeppelin/openzeppelin-contracts/blob/52eeebecda140ebaf4ec8752ed119d8288287fac/contracts/token/ERC20/ERC20.sol\":3168:3177  return 18 */\n      swap1\n      pop\n        /* \"https://github.com/OpenZeppelin/openzeppelin-contracts/blob/52eeebecda140ebaf4ec8752ed119d8288287fac/contracts/token/ERC20/ERC20.sol\":3093:3184  function decimals() public view virtual override returns (uint8) {... */\n      swap1\n      jump\t// out\n        /* \"https://github.com/OpenZeppelin/openzeppelin-contracts/blob/52eeebecda140ebaf4ec8752ed119d8288287fac/contracts/token/ERC20/ERC20.sol\":5873:6107  function increaseAllowance(address spender, uint256 addedValue) public virtual returns (bool) {... */\n    tag_59:\n        /* \"https://github.com/OpenZeppelin/openzeppelin-contracts/blob/52eeebecda140ebaf4ec8752ed119d8288287fac/contracts/token/ERC20/ERC20.sol\":5961:5965  bool */\n      0x00\n        /* \"https://github.com/OpenZeppelin/openzeppelin-contracts/blob/52eeebecda140ebaf4ec8752ed119d8288287fac/contracts/token/ERC20/ERC20.sol\":5977:5990  address owner */\n      dup1\n        /* \"https://github.com/OpenZeppelin/openzeppelin-contracts/blob/52eeebecda140ebaf4ec8752ed119d8288287fac/contracts/token/ERC20/ERC20.sol\":5993:6005  _msgSender() */\n      tag_118\n        /* \"https://github.com/OpenZeppelin/openzeppelin-contracts/blob/52eeebecda140ebaf4ec8752ed119d8288287fac/contracts/token/ERC20/ERC20.sol\":5993:6003  _msgSender */\n      tag_106\n        /* \"https://github.com/OpenZeppelin/openzeppelin-contracts/blob/52eeebecda140ebaf4ec8752ed119d8288287fac/contracts/token/ERC20/ERC20.sol\":5993:6005  _msgSender() */\n      jump\t// in\n    tag_118:\n        /* \"https://github.com/OpenZeppelin/openzeppelin-contracts/blob/52eeebecda140ebaf4ec8752ed119d8288287fac/contracts/token/ERC20/ERC20.sol\":5977:6005  address owner = _msgSender() */\n      swap1\n      pop\n        /* \"https://github.com/OpenZeppelin/openzeppelin-contracts/blob/52eeebecda140ebaf4ec8752ed119d8288287fac/contracts/token/ERC20/ERC20.sol\":6015:6079  _approve(owner, spender, allowance(owner, spender) + addedValue) */\n      tag_119\n        /* \"https://github.com/OpenZeppelin/openzeppelin-contracts/blob/52eeebecda140ebaf4ec8752ed119d8288287fac/contracts/token/ERC20/ERC20.sol\":6024:6029  owner */\n      dup2\n        /* \"https://github.com/OpenZeppelin/openzeppelin-contracts/blob/52eeebecda140ebaf4ec8752ed119d8288287fac/contracts/token/ERC20/ERC20.sol\":6031:6038  spender */\n      dup6\n        /* \"https://github.com/OpenZeppelin/openzeppelin-contracts/blob/52eeebecda140ebaf4ec8752ed119d8288287fac/contracts/token/ERC20/ERC20.sol\":6068:6078  addedValue */\n      dup6\n        /* \"https://github.com/OpenZeppelin/openzeppelin-contracts/blob/52eeebecda140ebaf4ec8752ed119d8288287fac/contracts/token/ERC20/ERC20.sol\":6040:6065  allowance(owner, spender) */\n      tag_120\n        /* \"https://github.com/OpenZeppelin/openzeppelin-contracts/blob/52eeebecda140ebaf4ec8752ed119d8288287fac/contracts/token/ERC20/ERC20.sol\":6050:6055  owner */\n      dup6\n        /* \"https://github.com/OpenZeppelin/openzeppelin-contracts/blob/52eeebecda140ebaf4ec8752ed119d8288287fac/contracts/token/ERC20/ERC20.sol\":6057:6064  spender */\n      dup10\n        /* \"https://github.com/OpenZeppelin/openzeppelin-contracts/blob/52eeebecda140ebaf4ec8752ed119d8288287fac/contracts/token/ERC20/ERC20.sol\":6040:6049  allowance */\n      tag_86\n        /* \"https://github.com/OpenZeppelin/openzeppelin-contracts/blob/52eeebecda140ebaf4ec8752ed119d8288287fac/contracts/token/ERC20/ERC20.sol\":6040:6065  allowance(owner, spender) */\n      jump\t// in\n    tag_120:\n        /* \"https://github.com/OpenZeppelin/openzeppelin-contracts/blob/52eeebecda140ebaf4ec8752ed119d8288287fac/contracts/token/ERC20/ERC20.sol\":6040:6078  allowance(owner, spender) + addedValue */\n      tag_121\n      swap2\n      swap1\n      tag_101\n      jump\t// in\n    tag_121:\n        /* \"https://github.com/OpenZeppelin/openzeppelin-contracts/blob/52eeebecda140ebaf4ec8752ed119d8288287fac/contracts/token/ERC20/ERC20.sol\":6015:6023  _approve */\n      tag_108\n        /* \"https://github.com/OpenZeppelin/openzeppelin-contracts/blob/52eeebecda140ebaf4ec8752ed119d8288287fac/contracts/token/ERC20/ERC20.sol\":6015:6079  _approve(owner, spender, allowance(owner, spender) + addedValue) */\n      jump\t// in\n    tag_119:\n        /* \"https://github.com/OpenZeppelin/openzeppelin-contracts/blob/52eeebecda140ebaf4ec8752ed119d8288287fac/contracts/token/ERC20/ERC20.sol\":6096:6100  true */\n      0x01\n        /* \"https://github.com/OpenZeppelin/openzeppelin-contracts/blob/52eeebecda140ebaf4ec8752ed119d8288287fac/contracts/token/ERC20/ERC20.sol\":6089:6100  return true */\n      swap2\n      pop\n      pop\n        /* \"https://github.com/OpenZeppelin/openzeppelin-contracts/blob/52eeebecda140ebaf4ec8752ed119d8288287fac/contracts/token/ERC20/ERC20.sol\":5873:6107  function increaseAllowance(address spender, uint256 addedValue) public virtual returns (bool) {... */\n      swap3\n      swap2\n      pop\n      pop\n      jump\t// out\n        /* \"src/token.sol\":835:1076  function mint(address receiver, uint amount) public {... */\n    tag_63:\n        /* \"src/token.sol\":919:925  minter */\n      0x05\n      0x00\n      swap1\n      sload\n      swap1\n      0x0100\n      exp\n      swap1\n      div\n      0xffffffffffffffffffffffffffffffffffffffff\n      and\n        /* \"src/token.sol\":905:925  msg.sender == minter */\n      0xffffffffffffffffffffffffffffffffffffffff\n      and\n        /* \"src/token.sol\":905:915  msg.sender */\n      caller\n        /* \"src/token.sol\":905:925  msg.sender == minter */\n      0xffffffffffffffffffffffffffffffffffffffff\n      and\n      eq\n        /* \"src/token.sol\":897:926  require(msg.sender == minter) */\n      tag_123\n      jumpi\n      0x00\n      dup1\n      revert\n    tag_123:\n        /* \"src/token.sol\":1026:1030  1e60 */\n      0x9f4f2726179a224501d762422c946590d91000000000000000\n        /* \"src/token.sol\":1017:1023  amount */\n      dup2\n        /* \"src/token.sol\":1017:1030  amount < 1e60 */\n      lt\n        /* \"src/token.sol\":1009:1031  require(amount < 1e60) */\n      tag_124\n      jumpi\n      0x00\n      dup1\n      revert\n    tag_124:\n        /* \"src/token.sol\":1063:1069  amount */\n      dup1\n        /* \"src/token.sol\":1041:1049  balances */\n      0x06\n        /* \"src/token.sol\":1041:1059  balances[receiver] */\n      0x00\n        /* \"src/token.sol\":1050:1058  receiver */\n      dup5\n        /* \"src/token.sol\":1041:1059  balances[receiver] */\n      0xffffffffffffffffffffffffffffffffffffffff\n      and\n      0xffffffffffffffffffffffffffffffffffffffff\n      and\n      dup2\n      mstore\n      0x20\n      add\n      swap1\n      dup2\n      mstore\n      0x20\n      add\n      0x00\n      keccak256\n      0x00\n        /* \"src/token.sol\":1041:1069  balances[receiver] += amount */\n      dup3\n      dup3\n      sload\n      tag_125\n      swap2\n      swap1\n      tag_101\n      jump\t// in\n    tag_125:\n      swap3\n      pop\n      pop\n      dup2\n      swap1\n      sstore\n      pop\n        /* \"src/token.sol\":835:1076  function mint(address receiver, uint amount) public {... */\n      pop\n      pop\n      jump\t// out\n        /* \"src/token.sol\":1438:1826  function multiSend(address sender, address[] calldata receivers, uint amount) public {... */\n    tag_67:\n        /* \"src/token.sol\":1570:1578  balances */\n      0x06\n        /* \"src/token.sol\":1570:1586  balances[sender] */\n      0x00\n        /* \"src/token.sol\":1579:1585  sender */\n      dup6\n        /* \"src/token.sol\":1570:1586  balances[sender] */\n      0xffffffffffffffffffffffffffffffffffffffff\n      and\n      0xffffffffffffffffffffffffffffffffffffffff\n      and\n      dup2\n      mstore\n      0x20\n      add\n      swap1\n      dup2\n      mstore\n      0x20\n      add\n      0x00\n      keccak256\n      sload\n        /* \"src/token.sol\":1550:1559  receivers */\n      dup4\n      dup4\n        /* \"src/token.sol\":1550:1566  receivers.length */\n      swap1\n      pop\n        /* \"src/token.sol\":1541:1547  amount */\n      dup3\n        /* \"src/token.sol\":1541:1566  amount * receivers.length */\n      tag_127\n      swap2\n      swap1\n      tag_128\n      jump\t// in\n    tag_127:\n        /* \"src/token.sol\":1541:1586  amount * receivers.length <= balances[sender] */\n      gt\n      iszero\n        /* \"src/token.sol\":1533:1612  require(amount * receivers.length <= balances[sender], \"Insufficient balance.\") */\n      tag_129\n      jumpi\n      mload(0x40)\n      0x08c379a000000000000000000000000000000000000000000000000000000000\n      dup2\n      mstore\n      0x04\n      add\n      tag_130\n      swap1\n      tag_131\n      jump\t// in\n    tag_130:\n      mload(0x40)\n      dup1\n      swap2\n      sub\n      swap1\n      revert\n    tag_129:\n        /* \"src/token.sol\":1628:1634  uint i */\n      0x00\n        /* \"src/token.sol\":1623:1761  for (uint i=0; i< receivers.length; i++) {... */\n    tag_132:\n        /* \"src/token.sol\":1641:1650  receivers */\n      dup4\n      dup4\n        /* \"src/token.sol\":1641:1657  receivers.length */\n      swap1\n      pop\n        /* \"src/token.sol\":1638:1639  i */\n      dup2\n        /* \"src/token.sol\":1638:1657  i< receivers.length */\n      lt\n        /* \"src/token.sol\":1623:1761  for (uint i=0; i< receivers.length; i++) {... */\n      iszero\n      tag_133\n      jumpi\n        /* \"src/token.sol\":1698:1704  amount */\n      dup2\n        /* \"src/token.sol\":1678:1686  balances */\n      0x06\n        /* \"src/token.sol\":1678:1694  balances[sender] */\n      0x00\n        /* \"src/token.sol\":1687:1693  sender */\n      dup8\n        /* \"src/token.sol\":1678:1694  balances[sender] */\n      0xffffffffffffffffffffffffffffffffffffffff\n      and\n      0xffffffffffffffffffffffffffffffffffffffff\n      and\n      dup2\n      mstore\n      0x20\n      add\n      swap1\n      dup2\n      mstore\n      0x20\n      add\n      0x00\n      keccak256\n      0x00\n        /* \"src/token.sol\":1678:1704  balances[sender] -= amount */\n      dup3\n      dup3\n      sload\n      tag_135\n      swap2\n      swap1\n      tag_99\n      jump\t// in\n    tag_135:\n      swap3\n      pop\n      pop\n      dup2\n      swap1\n      sstore\n      pop\n        /* \"src/token.sol\":1744:1750  amount */\n      dup2\n        /* \"src/token.sol\":1718:1726  balances */\n      0x06\n        /* \"src/token.sol\":1718:1740  balances[receivers[i]] */\n      0x00\n        /* \"src/token.sol\":1727:1736  receivers */\n      dup7\n      dup7\n        /* \"src/token.sol\":1737:1738  i */\n      dup6\n        /* \"src/token.sol\":1727:1739  receivers[i] */\n      dup2\n      dup2\n      lt\n      tag_136\n      jumpi\n      tag_137\n      tag_138\n      jump\t// in\n    tag_137:\n    tag_136:\n      swap1\n      pop\n      0x20\n      mul\n      add\n      0x20\n      dup2\n      add\n      swap1\n      tag_139\n      swap2\n      swap1\n      tag_50\n      jump\t// in\n    tag_139:\n        /* \"src/token.sol\":1718:1740  balances[receivers[i]] */\n      0xffffffffffffffffffffffffffffffffffffffff\n      and\n      0xffffffffffffffffffffffffffffffffffffffff\n      and\n      dup2\n      mstore\n      0x20\n      add\n      swap1\n      dup2\n      mstore\n      0x20\n      add\n      0x00\n      keccak256\n      0x00\n        /* \"src/token.sol\":1718:1750  balances[receivers[i]] += amount */\n      dup3\n      dup3\n      sload\n      tag_140\n      swap2\n      swap1\n      tag_101\n      jump\t// in\n    tag_140:\n      swap3\n      pop\n      pop\n      dup2\n      swap1\n      sstore\n      pop\n        /* \"src/token.sol\":1659:1662  i++ */\n      dup1\n      dup1\n      tag_141\n      swap1\n      tag_142\n      jump\t// in\n    tag_141:\n      swap2\n      pop\n      pop\n        /* \"src/token.sol\":1623:1761  for (uint i=0; i< receivers.length; i++) {... */\n      jump(tag_132)\n    tag_133:\n      pop\n        /* \"src/token.sol\":1776:1819  MultiSendToken( sender, receivers, amount ) */\n      0xd33af69e2bdb37dfd3a759e5a2bc0f70e1976336b64f9eb59c9814d3f5d238e0\n        /* \"src/token.sol\":1792:1798  sender */\n      dup5\n        /* \"src/token.sol\":1800:1809  receivers */\n      dup5\n      dup5\n        /* \"src/token.sol\":1811:1817  amount */\n      dup5\n        /* \"src/token.sol\":1776:1819  MultiSendToken( sender, receivers, amount ) */\n      mload(0x40)\n      tag_143\n      swap5\n      swap4\n      swap3\n      swap2\n      swap1\n      tag_144\n      jump\t// in\n    tag_143:\n      mload(0x40)\n      dup1\n      swap2\n      sub\n      swap1\n      log1\n        /* \"src/token.sol\":1438:1826  function multiSend(address sender, address[] calldata receivers, uint amount) public {... */\n      pop\n      pop\n      pop\n      pop\n      jump\t// out\n        /* \"https://github.com/OpenZeppelin/openzeppelin-contracts/blob/52eeebecda140ebaf4ec8752ed119d8288287fac/contracts/token/ERC20/ERC20.sol\":3408:3533  function balanceOf(address account) public view virtual override returns (uint256) {... */\n    tag_70:\n        /* \"https://github.com/OpenZeppelin/openzeppelin-contracts/blob/52eeebecda140ebaf4ec8752ed119d8288287fac/contracts/token/ERC20/ERC20.sol\":3482:3489  uint256 */\n      0x00\n        /* \"https://github.com/OpenZeppelin/openzeppelin-contracts/blob/52eeebecda140ebaf4ec8752ed119d8288287fac/contracts/token/ERC20/ERC20.sol\":3508:3517  _balances */\n      dup1\n        /* \"https://github.com/OpenZeppelin/openzeppelin-contracts/blob/52eeebecda140ebaf4ec8752ed119d8288287fac/contracts/token/ERC20/ERC20.sol\":3508:3526  _balances[account] */\n      0x00\n        /* \"https://github.com/OpenZeppelin/openzeppelin-contracts/blob/52eeebecda140ebaf4ec8752ed119d8288287fac/contracts/token/ERC20/ERC20.sol\":3518:3525  account */\n      dup4\n        /* \"https://github.com/OpenZeppelin/openzeppelin-contracts/blob/52eeebecda140ebaf4ec8752ed119d8288287fac/contracts/token/ERC20/ERC20.sol\":3508:3526  _balances[account] */\n      0xffffffffffffffffffffffffffffffffffffffff\n      and\n      0xffffffffffffffffffffffffffffffffffffffff\n      and\n      dup2\n      mstore\n      0x20\n      add\n      swap1\n      dup2\n      mstore\n      0x20\n      add\n      0x00\n      keccak256\n      sload\n        /* \"https://github.com/OpenZeppelin/openzeppelin-contracts/blob/52eeebecda140ebaf4ec8752ed119d8288287fac/contracts/token/ERC20/ERC20.sol\":3501:3526  return _balances[account] */\n      swap1\n      pop\n        /* \"https://github.com/OpenZeppelin/openzeppelin-contracts/blob/52eeebecda140ebaf4ec8752ed119d8288287fac/contracts/token/ERC20/ERC20.sol\":3408:3533  function balanceOf(address account) public view virtual override returns (uint256) {... */\n      swap2\n      swap1\n      pop\n      jump\t// out\n        /* \"https://github.com/OpenZeppelin/openzeppelin-contracts/blob/52eeebecda140ebaf4ec8752ed119d8288287fac/contracts/token/ERC20/ERC20.sol\":2367:2469  function symbol() public view virtual override returns (string memory) {... */\n    tag_73:\n        /* \"https://github.com/OpenZeppelin/openzeppelin-contracts/blob/52eeebecda140ebaf4ec8752ed119d8288287fac/contracts/token/ERC20/ERC20.sol\":2423:2436  string memory */\n      0x60\n        /* \"https://github.com/OpenZeppelin/openzeppelin-contracts/blob/52eeebecda140ebaf4ec8752ed119d8288287fac/contracts/token/ERC20/ERC20.sol\":2455:2462  _symbol */\n      0x04\n        /* \"https://github.com/OpenZeppelin/openzeppelin-contracts/blob/52eeebecda140ebaf4ec8752ed119d8288287fac/contracts/token/ERC20/ERC20.sol\":2448:2462  return _symbol */\n      dup1\n      sload\n      tag_147\n      swap1\n      tag_90\n      jump\t// in\n    tag_147:\n      dup1\n      0x1f\n      add\n      0x20\n      dup1\n      swap2\n      div\n      mul\n      0x20\n      add\n      mload(0x40)\n      swap1\n      dup2\n      add\n      0x40\n      mstore\n      dup1\n      swap3\n      swap2\n      swap1\n      dup2\n      dup2\n      mstore\n      0x20\n      add\n      dup3\n      dup1\n      sload\n      tag_148\n      swap1\n      tag_90\n      jump\t// in\n    tag_148:\n      dup1\n      iszero\n      tag_149\n      jumpi\n      dup1\n      0x1f\n      lt\n      tag_150\n      jumpi\n      0x0100\n      dup1\n      dup4\n      sload\n      div\n      mul\n      dup4\n      mstore\n      swap2\n      0x20\n      add\n      swap2\n      jump(tag_149)\n    tag_150:\n      dup3\n      add\n      swap2\n      swap1\n      0x00\n      mstore\n      keccak256(0x00, 0x20)\n      swap1\n    tag_151:\n      dup2\n      sload\n      dup2\n      mstore\n      swap1\n      0x01\n      add\n      swap1\n      0x20\n      add\n      dup1\n      dup4\n      gt\n      tag_151\n      jumpi\n      dup3\n      swap1\n      sub\n      0x1f\n      and\n      dup3\n      add\n      swap2\n    tag_149:\n      pop\n      pop\n      pop\n      pop\n      pop\n      swap1\n      pop\n        /* \"https://github.com/OpenZeppelin/openzeppelin-contracts/blob/52eeebecda140ebaf4ec8752ed119d8288287fac/contracts/token/ERC20/ERC20.sol\":2367:2469  function symbol() public view virtual override returns (string memory) {... */\n      swap1\n      jump\t// out\n        /* \"https://github.com/OpenZeppelin/openzeppelin-contracts/blob/52eeebecda140ebaf4ec8752ed119d8288287fac/contracts/token/ERC20/ERC20.sol\":6594:7021  function decreaseAllowance(address spender, uint256 subtractedValue) public virtual returns (bool) {... */\n    tag_77:\n        /* \"https://github.com/OpenZeppelin/openzeppelin-contracts/blob/52eeebecda140ebaf4ec8752ed119d8288287fac/contracts/token/ERC20/ERC20.sol\":6687:6691  bool */\n      0x00\n        /* \"https://github.com/OpenZeppelin/openzeppelin-contracts/blob/52eeebecda140ebaf4ec8752ed119d8288287fac/contracts/token/ERC20/ERC20.sol\":6703:6716  address owner */\n      dup1\n        /* \"https://github.com/OpenZeppelin/openzeppelin-contracts/blob/52eeebecda140ebaf4ec8752ed119d8288287fac/contracts/token/ERC20/ERC20.sol\":6719:6731  _msgSender() */\n      tag_153\n        /* \"https://github.com/OpenZeppelin/openzeppelin-contracts/blob/52eeebecda140ebaf4ec8752ed119d8288287fac/contracts/token/ERC20/ERC20.sol\":6719:6729  _msgSender */\n      tag_106\n        /* \"https://github.com/OpenZeppelin/openzeppelin-contracts/blob/52eeebecda140ebaf4ec8752ed119d8288287fac/contracts/token/ERC20/ERC20.sol\":6719:6731  _msgSender() */\n      jump\t// in\n    tag_153:\n        /* \"https://github.com/OpenZeppelin/openzeppelin-contracts/blob/52eeebecda140ebaf4ec8752ed119d8288287fac/contracts/token/ERC20/ERC20.sol\":6703:6731  address owner = _msgSender() */\n      swap1\n      pop\n        /* \"https://github.com/OpenZeppelin/openzeppelin-contracts/blob/52eeebecda140ebaf4ec8752ed119d8288287fac/contracts/token/ERC20/ERC20.sol\":6741:6765  uint256 currentAllowance */\n      0x00\n        /* \"https://github.com/OpenZeppelin/openzeppelin-contracts/blob/52eeebecda140ebaf4ec8752ed119d8288287fac/contracts/token/ERC20/ERC20.sol\":6768:6793  allowance(owner, spender) */\n      tag_154\n        /* \"https://github.com/OpenZeppelin/openzeppelin-contracts/blob/52eeebecda140ebaf4ec8752ed119d8288287fac/contracts/token/ERC20/ERC20.sol\":6778:6783  owner */\n      dup3\n        /* \"https://github.com/OpenZeppelin/openzeppelin-contracts/blob/52eeebecda140ebaf4ec8752ed119d8288287fac/contracts/token/ERC20/ERC20.sol\":6785:6792  spender */\n      dup7\n        /* \"https://github.com/OpenZeppelin/openzeppelin-contracts/blob/52eeebecda140ebaf4ec8752ed119d8288287fac/contracts/token/ERC20/ERC20.sol\":6768:6777  allowance */\n      tag_86\n        /* \"https://github.com/OpenZeppelin/openzeppelin-contracts/blob/52eeebecda140ebaf4ec8752ed119d8288287fac/contracts/token/ERC20/ERC20.sol\":6768:6793  allowance(owner, spender) */\n      jump\t// in\n    tag_154:\n        /* \"https://github.com/OpenZeppelin/openzeppelin-contracts/blob/52eeebecda140ebaf4ec8752ed119d8288287fac/contracts/token/ERC20/ERC20.sol\":6741:6793  uint256 currentAllowance = allowance(owner, spender) */\n      swap1\n      pop\n        /* \"https://github.com/OpenZeppelin/openzeppelin-contracts/blob/52eeebecda140ebaf4ec8752ed119d8288287fac/contracts/token/ERC20/ERC20.sol\":6831:6846  subtractedValue */\n      dup4\n        /* \"https://github.com/OpenZeppelin/openzeppelin-contracts/blob/52eeebecda140ebaf4ec8752ed119d8288287fac/contracts/token/ERC20/ERC20.sol\":6811:6827  currentAllowance */\n      dup2\n        /* \"https://github.com/OpenZeppelin/openzeppelin-contracts/blob/52eeebecda140ebaf4ec8752ed119d8288287fac/contracts/token/ERC20/ERC20.sol\":6811:6846  currentAllowance >= subtractedValue */\n      lt\n      iszero\n        /* \"https://github.com/OpenZeppelin/openzeppelin-contracts/blob/52eeebecda140ebaf4ec8752ed119d8288287fac/contracts/token/ERC20/ERC20.sol\":6803:6888  require(currentAllowance >= subtractedValue, \"ERC20: decreased allowance below zero\") */\n      tag_155\n      jumpi\n      mload(0x40)\n      0x08c379a000000000000000000000000000000000000000000000000000000000\n      dup2\n      mstore\n      0x04\n      add\n      tag_156\n      swap1\n      tag_157\n      jump\t// in\n    tag_156:\n      mload(0x40)\n      dup1\n      swap2\n      sub\n      swap1\n      revert\n    tag_155:\n        /* \"https://github.com/OpenZeppelin/openzeppelin-contracts/blob/52eeebecda140ebaf4ec8752ed119d8288287fac/contracts/token/ERC20/ERC20.sol\":6922:6982  _approve(owner, spender, currentAllowance - subtractedValue) */\n      tag_158\n        /* \"https://github.com/OpenZeppelin/openzeppelin-contracts/blob/52eeebecda140ebaf4ec8752ed119d8288287fac/contracts/token/ERC20/ERC20.sol\":6931:6936  owner */\n      dup3\n        /* \"https://github.com/OpenZeppelin/openzeppelin-contracts/blob/52eeebecda140ebaf4ec8752ed119d8288287fac/contracts/token/ERC20/ERC20.sol\":6938:6945  spender */\n      dup7\n        /* \"https://github.com/OpenZeppelin/openzeppelin-contracts/blob/52eeebecda140ebaf4ec8752ed119d8288287fac/contracts/token/ERC20/ERC20.sol\":6966:6981  subtractedValue */\n      dup7\n        /* \"https://github.com/OpenZeppelin/openzeppelin-contracts/blob/52eeebecda140ebaf4ec8752ed119d8288287fac/contracts/token/ERC20/ERC20.sol\":6947:6963  currentAllowance */\n      dup5\n        /* \"https://github.com/OpenZeppelin/openzeppelin-contracts/blob/52eeebecda140ebaf4ec8752ed119d8288287fac/contracts/token/ERC20/ERC20.sol\":6947:6981  currentAllowance - subtractedValue */\n      sub\n        /* \"https://github.com/OpenZeppelin/openzeppelin-contracts/blob/52eeebecda140ebaf4ec8752ed119d8288287fac/contracts/token/ERC20/ERC20.sol\":6922:6930  _approve */\n      tag_108\n        /* \"https://github.com/OpenZeppelin/openzeppelin-contracts/blob/52eeebecda140ebaf4ec8752ed119d8288287fac/contracts/token/ERC20/ERC20.sol\":6922:6982  _approve(owner, spender, currentAllowance - subtractedValue) */\n      jump\t// in\n    tag_158:\n        /* \"https://github.com/OpenZeppelin/openzeppelin-contracts/blob/52eeebecda140ebaf4ec8752ed119d8288287fac/contracts/token/ERC20/ERC20.sol\":7010:7014  true */\n      0x01\n        /* \"https://github.com/OpenZeppelin/openzeppelin-contracts/blob/52eeebecda140ebaf4ec8752ed119d8288287fac/contracts/token/ERC20/ERC20.sol\":7003:7014  return true */\n      swap3\n      pop\n      pop\n      pop\n        /* \"https://github.com/OpenZeppelin/openzeppelin-contracts/blob/52eeebecda140ebaf4ec8752ed119d8288287fac/contracts/token/ERC20/ERC20.sol\":6594:7021  function decreaseAllowance(address spender, uint256 subtractedValue) public virtual returns (bool) {... */\n      swap3\n      swap2\n      pop\n      pop\n      jump\t// out\n        /* \"https://github.com/OpenZeppelin/openzeppelin-contracts/blob/52eeebecda140ebaf4ec8752ed119d8288287fac/contracts/token/ERC20/ERC20.sol\":3729:3918  function transfer(address to, uint256 amount) public virtual override returns (bool) {... */\n    tag_81:\n        /* \"https://github.com/OpenZeppelin/openzeppelin-contracts/blob/52eeebecda140ebaf4ec8752ed119d8288287fac/contracts/token/ERC20/ERC20.sol\":3808:3812  bool */\n      0x00\n        /* \"https://github.com/OpenZeppelin/openzeppelin-contracts/blob/52eeebecda140ebaf4ec8752ed119d8288287fac/contracts/token/ERC20/ERC20.sol\":3824:3837  address owner */\n      dup1\n        /* \"https://github.com/OpenZeppelin/openzeppelin-contracts/blob/52eeebecda140ebaf4ec8752ed119d8288287fac/contracts/token/ERC20/ERC20.sol\":3840:3852  _msgSender() */\n      tag_160\n        /* \"https://github.com/OpenZeppelin/openzeppelin-contracts/blob/52eeebecda140ebaf4ec8752ed119d8288287fac/contracts/token/ERC20/ERC20.sol\":3840:3850  _msgSender */\n      tag_106\n        /* \"https://github.com/OpenZeppelin/openzeppelin-contracts/blob/52eeebecda140ebaf4ec8752ed119d8288287fac/contracts/token/ERC20/ERC20.sol\":3840:3852  _msgSender() */\n      jump\t// in\n    tag_160:\n        /* \"https://github.com/OpenZeppelin/openzeppelin-contracts/blob/52eeebecda140ebaf4ec8752ed119d8288287fac/contracts/token/ERC20/ERC20.sol\":3824:3852  address owner = _msgSender() */\n      swap1\n      pop\n        /* \"https://github.com/OpenZeppelin/openzeppelin-contracts/blob/52eeebecda140ebaf4ec8752ed119d8288287fac/contracts/token/ERC20/ERC20.sol\":3862:3890  _transfer(owner, to, amount) */\n      tag_161\n        /* \"https://github.com/OpenZeppelin/openzeppelin-contracts/blob/52eeebecda140ebaf4ec8752ed119d8288287fac/contracts/token/ERC20/ERC20.sol\":3872:3877  owner */\n      dup2\n        /* \"https://github.com/OpenZeppelin/openzeppelin-contracts/blob/52eeebecda140ebaf4ec8752ed119d8288287fac/contracts/token/ERC20/ERC20.sol\":3879:3881  to */\n      dup6\n        /* \"https://github.com/OpenZeppelin/openzeppelin-contracts/blob/52eeebecda140ebaf4ec8752ed119d8288287fac/contracts/token/ERC20/ERC20.sol\":3883:3889  amount */\n      dup6\n        /* \"https://github.com/OpenZeppelin/openzeppelin-contracts/blob/52eeebecda140ebaf4ec8752ed119d8288287fac/contracts/token/ERC20/ERC20.sol\":3862:3871  _transfer */\n      tag_115\n        /* \"https://github.com/OpenZeppelin/openzeppelin-contracts/blob/52eeebecda140ebaf4ec8752ed119d8288287fac/contracts/token/ERC20/ERC20.sol\":3862:3890  _transfer(owner, to, amount) */\n      jump\t// in\n    tag_161:\n        /* \"https://github.com/OpenZeppelin/openzeppelin-contracts/blob/52eeebecda140ebaf4ec8752ed119d8288287fac/contracts/token/ERC20/ERC20.sol\":3907:3911  true */\n      0x01\n        /* \"https://github.com/OpenZeppelin/openzeppelin-contracts/blob/52eeebecda140ebaf4ec8752ed119d8288287fac/contracts/token/ERC20/ERC20.sol\":3900:3911  return true */\n      swap2\n      pop\n      pop\n        /* \"https://github.com/OpenZeppelin/openzeppelin-contracts/blob/52eeebecda140ebaf4ec8752ed119d8288287fac/contracts/token/ERC20/ERC20.sol\":3729:3918  function transfer(address to, uint256 amount) public virtual override returns (bool) {... */\n      swap3\n      swap2\n      pop\n      pop\n      jump\t// out\n        /* \"https://github.com/OpenZeppelin/openzeppelin-contracts/blob/52eeebecda140ebaf4ec8752ed119d8288287fac/contracts/token/ERC20/ERC20.sol\":3976:4125  function allowance(address owner, address spender) public view virtual override returns (uint256) {... */\n    tag_86:\n        /* \"https://github.com/OpenZeppelin/openzeppelin-contracts/blob/52eeebecda140ebaf4ec8752ed119d8288287fac/contracts/token/ERC20/ERC20.sol\":4065:4072  uint256 */\n      0x00\n        /* \"https://github.com/OpenZeppelin/openzeppelin-contracts/blob/52eeebecda140ebaf4ec8752ed119d8288287fac/contracts/token/ERC20/ERC20.sol\":4091:4102  _allowances */\n      0x01\n        /* \"https://github.com/OpenZeppelin/openzeppelin-contracts/blob/52eeebecda140ebaf4ec8752ed119d8288287fac/contracts/token/ERC20/ERC20.sol\":4091:4109  _allowances[owner] */\n      0x00\n        /* \"https://github.com/OpenZeppelin/openzeppelin-contracts/blob/52eeebecda140ebaf4ec8752ed119d8288287fac/contracts/token/ERC20/ERC20.sol\":4103:4108  owner */\n      dup5\n        /* \"https://github.com/OpenZeppelin/openzeppelin-contracts/blob/52eeebecda140ebaf4ec8752ed119d8288287fac/contracts/token/ERC20/ERC20.sol\":4091:4109  _allowances[owner] */\n      0xffffffffffffffffffffffffffffffffffffffff\n      and\n      0xffffffffffffffffffffffffffffffffffffffff\n      and\n      dup2\n      mstore\n      0x20\n      add\n      swap1\n      dup2\n      mstore\n      0x20\n      add\n      0x00\n      keccak256\n        /* \"https://github.com/OpenZeppelin/openzeppelin-contracts/blob/52eeebecda140ebaf4ec8752ed119d8288287fac/contracts/token/ERC20/ERC20.sol\":4091:4118  _allowances[owner][spender] */\n      0x00\n        /* \"https://github.com/OpenZeppelin/openzeppelin-contracts/blob/52eeebecda140ebaf4ec8752ed119d8288287fac/contracts/token/ERC20/ERC20.sol\":4110:4117  spender */\n      dup4\n        /* \"https://github.com/OpenZeppelin/openzeppelin-contracts/blob/52eeebecda140ebaf4ec8752ed119d8288287fac/contracts/token/ERC20/ERC20.sol\":4091:4118  _allowances[owner][spender] */\n      0xffffffffffffffffffffffffffffffffffffffff\n      and\n      0xffffffffffffffffffffffffffffffffffffffff\n      and\n      dup2\n      mstore\n      0x20\n      add\n      swap1\n      dup2\n      mstore\n      0x20\n      add\n      0x00\n      keccak256\n      sload\n        /* \"https://github.com/OpenZeppelin/openzeppelin-contracts/blob/52eeebecda140ebaf4ec8752ed119d8288287fac/contracts/token/ERC20/ERC20.sol\":4084:4118  return _allowances[owner][spender] */\n      swap1\n      pop\n        /* \"https://github.com/OpenZeppelin/openzeppelin-contracts/blob/52eeebecda140ebaf4ec8752ed119d8288287fac/contracts/token/ERC20/ERC20.sol\":3976:4125  function allowance(address owner, address spender) public view virtual override returns (uint256) {... */\n      swap3\n      swap2\n      pop\n      pop\n      jump\t// out\n        /* \"https://github.com/OpenZeppelin/openzeppelin-contracts/blob/52eeebecda140ebaf4ec8752ed119d8288287fac/contracts/utils/Context.sol\":640:736  function _msgSender() internal view virtual returns (address) {... */\n    tag_106:\n        /* \"https://github.com/OpenZeppelin/openzeppelin-contracts/blob/52eeebecda140ebaf4ec8752ed119d8288287fac/contracts/utils/Context.sol\":693:700  address */\n      0x00\n        /* \"https://github.com/OpenZeppelin/openzeppelin-contracts/blob/52eeebecda140ebaf4ec8752ed119d8288287fac/contracts/utils/Context.sol\":719:729  msg.sender */\n      caller\n        /* \"https://github.com/OpenZeppelin/openzeppelin-contracts/blob/52eeebecda140ebaf4ec8752ed119d8288287fac/contracts/utils/Context.sol\":712:729  return msg.sender */\n      swap1\n      pop\n        /* \"https://github.com/OpenZeppelin/openzeppelin-contracts/blob/52eeebecda140ebaf4ec8752ed119d8288287fac/contracts/utils/Context.sol\":640:736  function _msgSender() internal view virtual returns (address) {... */\n      swap1\n      jump\t// out\n        /* \"https://github.com/OpenZeppelin/openzeppelin-contracts/blob/52eeebecda140ebaf4ec8752ed119d8288287fac/contracts/token/ERC20/ERC20.sol\":10119:10489  function _approve(... */\n    tag_108:\n        /* \"https://github.com/OpenZeppelin/openzeppelin-contracts/blob/52eeebecda140ebaf4ec8752ed119d8288287fac/contracts/token/ERC20/ERC20.sol\":10267:10268  0 */\n      0x00\n        /* \"https://github.com/OpenZeppelin/openzeppelin-contracts/blob/52eeebecda140ebaf4ec8752ed119d8288287fac/contracts/token/ERC20/ERC20.sol\":10250:10269  owner != address(0) */\n      0xffffffffffffffffffffffffffffffffffffffff\n      and\n        /* \"https://github.com/OpenZeppelin/openzeppelin-contracts/blob/52eeebecda140ebaf4ec8752ed119d8288287fac/contracts/token/ERC20/ERC20.sol\":10250:10255  owner */\n      dup4\n        /* \"https://github.com/OpenZeppelin/openzeppelin-contracts/blob/52eeebecda140ebaf4ec8752ed119d8288287fac/contracts/token/ERC20/ERC20.sol\":10250:10269  owner != address(0) */\n      0xffffffffffffffffffffffffffffffffffffffff\n      and\n      eq\n      iszero\n        /* \"https://github.com/OpenZeppelin/openzeppelin-contracts/blob/52eeebecda140ebaf4ec8752ed119d8288287fac/contracts/token/ERC20/ERC20.sol\":10242:10310  require(owner != address(0), \"ERC20: approve from the zero address\") */\n      tag_165\n      jumpi\n      mload(0x40)\n      0x08c379a000000000000000000000000000000000000000000000000000000000\n      dup2\n      mstore\n      0x04\n      add\n      tag_166\n      swap1\n      tag_167\n      jump\t// in\n    tag_166:\n      mload(0x40)\n      dup1\n      swap2\n      sub\n      swap1\n      revert\n    tag_165:\n        /* \"https://github.com/OpenZeppelin/openzeppelin-contracts/blob/52eeebecda140ebaf4ec8752ed119d8288287fac/contracts/token/ERC20/ERC20.sol\":10347:10348  0 */\n      0x00\n        /* \"https://github.com/OpenZeppelin/openzeppelin-contracts/blob/52eeebecda140ebaf4ec8752ed119d8288287fac/contracts/token/ERC20/ERC20.sol\":10328:10349  spender != address(0) */\n      0xffffffffffffffffffffffffffffffffffffffff\n      and\n        /* \"https://github.com/OpenZeppelin/openzeppelin-contracts/blob/52eeebecda140ebaf4ec8752ed119d8288287fac/contracts/token/ERC20/ERC20.sol\":10328:10335  spender */\n      dup3\n        /* \"https://github.com/OpenZeppelin/openzeppelin-contracts/blob/52eeebecda140ebaf4ec8752ed119d8288287fac/contracts/token/ERC20/ERC20.sol\":10328:10349  spender != address(0) */\n      0xffffffffffffffffffffffffffffffffffffffff\n      and\n      eq\n      iszero\n        /* \"https://github.com/OpenZeppelin/openzeppelin-contracts/blob/52eeebecda140ebaf4ec8752ed119d8288287fac/contracts/token/ERC20/ERC20.sol\":10320:10388  require(spender != address(0), \"ERC20: approve to the zero address\") */\n      tag_168\n      jumpi\n      mload(0x40)\n      0x08c379a000000000000000000000000000000000000000000000000000000000\n      dup2\n      mstore\n      0x04\n      add\n      tag_169\n      swap1\n      tag_170\n      jump\t// in\n    tag_169:\n      mload(0x40)\n      dup1\n      swap2\n      sub\n      swap1\n      revert\n    tag_168:\n        /* \"https://github.com/OpenZeppelin/openzeppelin-contracts/blob/52eeebecda140ebaf4ec8752ed119d8288287fac/contracts/token/ERC20/ERC20.sol\":10429:10435  amount */\n      dup1\n        /* \"https://github.com/OpenZeppelin/openzeppelin-contracts/blob/52eeebecda140ebaf4ec8752ed119d8288287fac/contracts/token/ERC20/ERC20.sol\":10399:10410  _allowances */\n      0x01\n        /* \"https://github.com/OpenZeppelin/openzeppelin-contracts/blob/52eeebecda140ebaf4ec8752ed119d8288287fac/contracts/token/ERC20/ERC20.sol\":10399:10417  _allowances[owner] */\n      0x00\n        /* \"https://github.com/OpenZeppelin/openzeppelin-contracts/blob/52eeebecda140ebaf4ec8752ed119d8288287fac/contracts/token/ERC20/ERC20.sol\":10411:10416  owner */\n      dup6\n        /* \"https://github.com/OpenZeppelin/openzeppelin-contracts/blob/52eeebecda140ebaf4ec8752ed119d8288287fac/contracts/token/ERC20/ERC20.sol\":10399:10417  _allowances[owner] */\n      0xffffffffffffffffffffffffffffffffffffffff\n      and\n      0xffffffffffffffffffffffffffffffffffffffff\n      and\n      dup2\n      mstore\n      0x20\n      add\n      swap1\n      dup2\n      mstore\n      0x20\n      add\n      0x00\n      keccak256\n        /* \"https://github.com/OpenZeppelin/openzeppelin-contracts/blob/52eeebecda140ebaf4ec8752ed119d8288287fac/contracts/token/ERC20/ERC20.sol\":10399:10426  _allowances[owner][spender] */\n      0x00\n        /* \"https://github.com/OpenZeppelin/openzeppelin-contracts/blob/52eeebecda140ebaf4ec8752ed119d8288287fac/contracts/token/ERC20/ERC20.sol\":10418:10425  spender */\n      dup5\n        /* \"https://github.com/OpenZeppelin/openzeppelin-contracts/blob/52eeebecda140ebaf4ec8752ed119d8288287fac/contracts/token/ERC20/ERC20.sol\":10399:10426  _allowances[owner][spender] */\n      0xffffffffffffffffffffffffffffffffffffffff\n      and\n      0xffffffffffffffffffffffffffffffffffffffff\n      and\n      dup2\n      mstore\n      0x20\n      add\n      swap1\n      dup2\n      mstore\n      0x20\n      add\n      0x00\n      keccak256\n        /* \"https://github.com/OpenZeppelin/openzeppelin-contracts/blob/52eeebecda140ebaf4ec8752ed119d8288287fac/contracts/token/ERC20/ERC20.sol\":10399:10435  _allowances[owner][spender] = amount */\n      dup2\n      swap1\n      sstore\n      pop\n        /* \"https://github.com/OpenZeppelin/openzeppelin-contracts/blob/52eeebecda140ebaf4ec8752ed119d8288287fac/contracts/token/ERC20/ERC20.sol\":10466:10473  spender */\n      dup2\n        /* \"https://github.com/OpenZeppelin/openzeppelin-contracts/blob/52eeebecda140ebaf4ec8752ed119d8288287fac/contracts/token/ERC20/ERC20.sol\":10450:10482  Approval(owner, spender, amount) */\n      0xffffffffffffffffffffffffffffffffffffffff\n      and\n        /* \"https://github.com/OpenZeppelin/openzeppelin-contracts/blob/52eeebecda140ebaf4ec8752ed119d8288287fac/contracts/token/ERC20/ERC20.sol\":10459:10464  owner */\n      dup4\n        /* \"https://github.com/OpenZeppelin/openzeppelin-contracts/blob/52eeebecda140ebaf4ec8752ed119d8288287fac/contracts/token/ERC20/ERC20.sol\":10450:10482  Approval(owner, spender, amount) */\n      0xffffffffffffffffffffffffffffffffffffffff\n      and\n      0x8c5be1e5ebec7d5bd14f71427d1e84f3dd0314c0f7b2291e5b200ac8c7c3b925\n        /* \"https://github.com/OpenZeppelin/openzeppelin-contracts/blob/52eeebecda140ebaf4ec8752ed119d8288287fac/contracts/token/ERC20/ERC20.sol\":10475:10481  amount */\n      dup4\n        /* \"https://github.com/OpenZeppelin/openzeppelin-contracts/blob/52eeebecda140ebaf4ec8752ed119d8288287fac/contracts/token/ERC20/ERC20.sol\":10450:10482  Approval(owner, spender, amount) */\n      mload(0x40)\n      tag_171\n      swap2\n      swap1\n      tag_43\n      jump\t// in\n    tag_171:\n      mload(0x40)\n      dup1\n      swap2\n      sub\n      swap1\n      log3\n        /* \"https://github.com/OpenZeppelin/openzeppelin-contracts/blob/52eeebecda140ebaf4ec8752ed119d8288287fac/contracts/token/ERC20/ERC20.sol\":10119:10489  function _approve(... */\n      pop\n      pop\n      pop\n      jump\t// out\n        /* \"https://github.com/OpenZeppelin/openzeppelin-contracts/blob/52eeebecda140ebaf4ec8752ed119d8288287fac/contracts/token/ERC20/ERC20.sol\":10770:11211  function _spendAllowance(... */\n    tag_113:\n        /* \"https://github.com/OpenZeppelin/openzeppelin-contracts/blob/52eeebecda140ebaf4ec8752ed119d8288287fac/contracts/token/ERC20/ERC20.sol\":10900:10924  uint256 currentAllowance */\n      0x00\n        /* \"https://github.com/OpenZeppelin/openzeppelin-contracts/blob/52eeebecda140ebaf4ec8752ed119d8288287fac/contracts/token/ERC20/ERC20.sol\":10927:10952  allowance(owner, spender) */\n      tag_173\n        /* \"https://github.com/OpenZeppelin/openzeppelin-contracts/blob/52eeebecda140ebaf4ec8752ed119d8288287fac/contracts/token/ERC20/ERC20.sol\":10937:10942  owner */\n      dup5\n        /* \"https://github.com/OpenZeppelin/openzeppelin-contracts/blob/52eeebecda140ebaf4ec8752ed119d8288287fac/contracts/token/ERC20/ERC20.sol\":10944:10951  spender */\n      dup5\n        /* \"https://github.com/OpenZeppelin/openzeppelin-contracts/blob/52eeebecda140ebaf4ec8752ed119d8288287fac/contracts/token/ERC20/ERC20.sol\":10927:10936  allowance */\n      tag_86\n        /* \"https://github.com/OpenZeppelin/openzeppelin-contracts/blob/52eeebecda140ebaf4ec8752ed119d8288287fac/contracts/token/ERC20/ERC20.sol\":10927:10952  allowance(owner, spender) */\n      jump\t// in\n    tag_173:\n        /* \"https://github.com/OpenZeppelin/openzeppelin-contracts/blob/52eeebecda140ebaf4ec8752ed119d8288287fac/contracts/token/ERC20/ERC20.sol\":10900:10952  uint256 currentAllowance = allowance(owner, spender) */\n      swap1\n      pop\n        /* \"https://github.com/OpenZeppelin/openzeppelin-contracts/blob/52eeebecda140ebaf4ec8752ed119d8288287fac/contracts/token/ERC20/ERC20.sol\":10986:11003  type(uint256).max */\n      0xffffffffffffffffffffffffffffffffffffffffffffffffffffffffffffffff\n        /* \"https://github.com/OpenZeppelin/openzeppelin-contracts/blob/52eeebecda140ebaf4ec8752ed119d8288287fac/contracts/token/ERC20/ERC20.sol\":10966:10982  currentAllowance */\n      dup2\n        /* \"https://github.com/OpenZeppelin/openzeppelin-contracts/blob/52eeebecda140ebaf4ec8752ed119d8288287fac/contracts/token/ERC20/ERC20.sol\":10966:11003  currentAllowance != type(uint256).max */\n      eq\n        /* \"https://github.com/OpenZeppelin/openzeppelin-contracts/blob/52eeebecda140ebaf4ec8752ed119d8288287fac/contracts/token/ERC20/ERC20.sol\":10962:11205  if (currentAllowance != type(uint256).max) {... */\n      tag_174\n      jumpi\n        /* \"https://github.com/OpenZeppelin/openzeppelin-contracts/blob/52eeebecda140ebaf4ec8752ed119d8288287fac/contracts/token/ERC20/ERC20.sol\":11047:11053  amount */\n      dup2\n        /* \"https://github.com/OpenZeppelin/openzeppelin-contracts/blob/52eeebecda140ebaf4ec8752ed119d8288287fac/contracts/token/ERC20/ERC20.sol\":11027:11043  currentAllowance */\n      dup2\n        /* \"https://github.com/OpenZeppelin/openzeppelin-contracts/blob/52eeebecda140ebaf4ec8752ed119d8288287fac/contracts/token/ERC20/ERC20.sol\":11027:11053  currentAllowance >= amount */\n      lt\n      iszero\n        /* \"https://github.com/OpenZeppelin/openzeppelin-contracts/blob/52eeebecda140ebaf4ec8752ed119d8288287fac/contracts/token/ERC20/ERC20.sol\":11019:11087  require(currentAllowance >= amount, \"ERC20: insufficient allowance\") */\n      tag_175\n      jumpi\n      mload(0x40)\n      0x08c379a000000000000000000000000000000000000000000000000000000000\n      dup2\n      mstore\n      0x04\n      add\n      tag_176\n      swap1\n      tag_177\n      jump\t// in\n    tag_176:\n      mload(0x40)\n      dup1\n      swap2\n      sub\n      swap1\n      revert\n    tag_175:\n        /* \"https://github.com/OpenZeppelin/openzeppelin-contracts/blob/52eeebecda140ebaf4ec8752ed119d8288287fac/contracts/token/ERC20/ERC20.sol\":11129:11180  _approve(owner, spender, currentAllowance - amount) */\n      tag_178\n        /* \"https://github.com/OpenZeppelin/openzeppelin-contracts/blob/52eeebecda140ebaf4ec8752ed119d8288287fac/contracts/token/ERC20/ERC20.sol\":11138:11143  owner */\n      dup5\n        /* \"https://github.com/OpenZeppelin/openzeppelin-contracts/blob/52eeebecda140ebaf4ec8752ed119d8288287fac/contracts/token/ERC20/ERC20.sol\":11145:11152  spender */\n      dup5\n        /* \"https://github.com/OpenZeppelin/openzeppelin-contracts/blob/52eeebecda140ebaf4ec8752ed119d8288287fac/contracts/token/ERC20/ERC20.sol\":11173:11179  amount */\n      dup5\n        /* \"https://github.com/OpenZeppelin/openzeppelin-contracts/blob/52eeebecda140ebaf4ec8752ed119d8288287fac/contracts/token/ERC20/ERC20.sol\":11154:11170  currentAllowance */\n      dup5\n        /* \"https://github.com/OpenZeppelin/openzeppelin-contracts/blob/52eeebecda140ebaf4ec8752ed119d8288287fac/contracts/token/ERC20/ERC20.sol\":11154:11179  currentAllowance - amount */\n      sub\n        /* \"https://github.com/OpenZeppelin/openzeppelin-contracts/blob/52eeebecda140ebaf4ec8752ed119d8288287fac/contracts/token/ERC20/ERC20.sol\":11129:11137  _approve */\n      tag_108\n        /* \"https://github.com/OpenZeppelin/openzeppelin-contracts/blob/52eeebecda140ebaf4ec8752ed119d8288287fac/contracts/token/ERC20/ERC20.sol\":11129:11180  _approve(owner, spender, currentAllowance - amount) */\n      jump\t// in\n    tag_178:\n        /* \"https://github.com/OpenZeppelin/openzeppelin-contracts/blob/52eeebecda140ebaf4ec8752ed119d8288287fac/contracts/token/ERC20/ERC20.sol\":10962:11205  if (currentAllowance != type(uint256).max) {... */\n    tag_174:\n        /* \"https://github.com/OpenZeppelin/openzeppelin-contracts/blob/52eeebecda140ebaf4ec8752ed119d8288287fac/contracts/token/ERC20/ERC20.sol\":10890:11211  {... */\n      pop\n        /* \"https://github.com/OpenZeppelin/openzeppelin-contracts/blob/52eeebecda140ebaf4ec8752ed119d8288287fac/contracts/token/ERC20/ERC20.sol\":10770:11211  function _spendAllowance(... */\n      pop\n      pop\n      pop\n      jump\t// out\n        /* \"https://github.com/OpenZeppelin/openzeppelin-contracts/blob/52eeebecda140ebaf4ec8752ed119d8288287fac/contracts/token/ERC20/ERC20.sol\":7484:8135  function _transfer(... */\n    tag_115:\n        /* \"https://github.com/OpenZeppelin/openzeppelin-contracts/blob/52eeebecda140ebaf4ec8752ed119d8288287fac/contracts/token/ERC20/ERC20.sol\":7626:7627  0 */\n      0x00\n        /* \"https://github.com/OpenZeppelin/openzeppelin-contracts/blob/52eeebecda140ebaf4ec8752ed119d8288287fac/contracts/token/ERC20/ERC20.sol\":7610:7628  from != address(0) */\n      0xffffffffffffffffffffffffffffffffffffffff\n      and\n        /* \"https://github.com/OpenZeppelin/openzeppelin-contracts/blob/52eeebecda140ebaf4ec8752ed119d8288287fac/contracts/token/ERC20/ERC20.sol\":7610:7614  from */\n      dup4\n        /* \"https://github.com/OpenZeppelin/openzeppelin-contracts/blob/52eeebecda140ebaf4ec8752ed119d8288287fac/contracts/token/ERC20/ERC20.sol\":7610:7628  from != address(0) */\n      0xffffffffffffffffffffffffffffffffffffffff\n      and\n      eq\n      iszero\n        /* \"https://github.com/OpenZeppelin/openzeppelin-contracts/blob/52eeebecda140ebaf4ec8752ed119d8288287fac/contracts/token/ERC20/ERC20.sol\":7602:7670  require(from != address(0), \"ERC20: transfer from the zero address\") */\n      tag_180\n      jumpi\n      mload(0x40)\n      0x08c379a000000000000000000000000000000000000000000000000000000000\n      dup2\n      mstore\n      0x04\n      add\n      tag_181\n      swap1\n      tag_182\n      jump\t// in\n    tag_181:\n      mload(0x40)\n      dup1\n      swap2\n      sub\n      swap1\n      revert\n    tag_180:\n        /* \"https://github.com/OpenZeppelin/openzeppelin-contracts/blob/52eeebecda140ebaf4ec8752ed119d8288287fac/contracts/token/ERC20/ERC20.sol\":7702:7703  0 */\n      0x00\n        /* \"https://github.com/OpenZeppelin/openzeppelin-contracts/blob/52eeebecda140ebaf4ec8752ed119d8288287fac/contracts/token/ERC20/ERC20.sol\":7688:7704  to != address(0) */\n      0xffffffffffffffffffffffffffffffffffffffff\n      and\n        /* \"https://github.com/OpenZeppelin/openzeppelin-contracts/blob/52eeebecda140ebaf4ec8752ed119d8288287fac/contracts/token/ERC20/ERC20.sol\":7688:7690  to */\n      dup3\n        /* \"https://github.com/OpenZeppelin/openzeppelin-contracts/blob/52eeebecda140ebaf4ec8752ed119d8288287fac/contracts/token/ERC20/ERC20.sol\":7688:7704  to != address(0) */\n      0xffffffffffffffffffffffffffffffffffffffff\n      and\n      eq\n      iszero\n        /* \"https://github.com/OpenZeppelin/openzeppelin-contracts/blob/52eeebecda140ebaf4ec8752ed119d8288287fac/contracts/token/ERC20/ERC20.sol\":7680:7744  require(to != address(0), \"ERC20: transfer to the zero address\") */\n      tag_183\n      jumpi\n      mload(0x40)\n      0x08c379a000000000000000000000000000000000000000000000000000000000\n      dup2\n      mstore\n      0x04\n      add\n      tag_184\n      swap1\n      tag_185\n      jump\t// in\n    tag_184:\n      mload(0x40)\n      dup1\n      swap2\n      sub\n      swap1\n      revert\n    tag_183:\n        /* \"https://github.com/OpenZeppelin/openzeppelin-contracts/blob/52eeebecda140ebaf4ec8752ed119d8288287fac/contracts/token/ERC20/ERC20.sol\":7755:7793  _beforeTokenTransfer(from, to, amount) */\n      tag_186\n        /* \"https://github.com/OpenZeppelin/openzeppelin-contracts/blob/52eeebecda140ebaf4ec8752ed119d8288287fac/contracts/token/ERC20/ERC20.sol\":7776:7780  from */\n      dup4\n        /* \"https://github.com/OpenZeppelin/openzeppelin-contracts/blob/52eeebecda140ebaf4ec8752ed119d8288287fac/contracts/token/ERC20/ERC20.sol\":7782:7784  to */\n      dup4\n        /* \"https://github.com/OpenZeppelin/openzeppelin-contracts/blob/52eeebecda140ebaf4ec8752ed119d8288287fac/contracts/token/ERC20/ERC20.sol\":7786:7792  amount */\n      dup4\n        /* \"https://github.com/OpenZeppelin/openzeppelin-contracts/blob/52eeebecda140ebaf4ec8752ed119d8288287fac/contracts/token/ERC20/ERC20.sol\":7755:7775  _beforeTokenTransfer */\n      tag_187\n        /* \"https://github.com/OpenZeppelin/openzeppelin-contracts/blob/52eeebecda140ebaf4ec8752ed119d8288287fac/contracts/token/ERC20/ERC20.sol\":7755:7793  _beforeTokenTransfer(from, to, amount) */\n      jump\t// in\n    tag_186:\n        /* \"https://github.com/OpenZeppelin/openzeppelin-contracts/blob/52eeebecda140ebaf4ec8752ed119d8288287fac/contracts/token/ERC20/ERC20.sol\":7804:7823  uint256 fromBalance */\n      0x00\n        /* \"https://github.com/OpenZeppelin/openzeppelin-contracts/blob/52eeebecda140ebaf4ec8752ed119d8288287fac/contracts/token/ERC20/ERC20.sol\":7826:7835  _balances */\n      dup1\n        /* \"https://github.com/OpenZeppelin/openzeppelin-contracts/blob/52eeebecda140ebaf4ec8752ed119d8288287fac/contracts/token/ERC20/ERC20.sol\":7826:7841  _balances[from] */\n      0x00\n        /* \"https://github.com/OpenZeppelin/openzeppelin-contracts/blob/52eeebecda140ebaf4ec8752ed119d8288287fac/contracts/token/ERC20/ERC20.sol\":7836:7840  from */\n      dup6\n        /* \"https://github.com/OpenZeppelin/openzeppelin-contracts/blob/52eeebecda140ebaf4ec8752ed119d8288287fac/contracts/token/ERC20/ERC20.sol\":7826:7841  _balances[from] */\n      0xffffffffffffffffffffffffffffffffffffffff\n      and\n      0xffffffffffffffffffffffffffffffffffffffff\n      and\n      dup2\n      mstore\n      0x20\n      add\n      swap1\n      dup2\n      mstore\n      0x20\n      add\n      0x00\n      keccak256\n      sload\n        /* \"https://github.com/OpenZeppelin/openzeppelin-contracts/blob/52eeebecda140ebaf4ec8752ed119d8288287fac/contracts/token/ERC20/ERC20.sol\":7804:7841  uint256 fromBalance = _balances[from] */\n      swap1\n      pop\n        /* \"https://github.com/OpenZeppelin/openzeppelin-contracts/blob/52eeebecda140ebaf4ec8752ed119d8288287fac/contracts/token/ERC20/ERC20.sol\":7874:7880  amount */\n      dup2\n        /* \"https://github.com/OpenZeppelin/openzeppelin-contracts/blob/52eeebecda140ebaf4ec8752ed119d8288287fac/contracts/token/ERC20/ERC20.sol\":7859:7870  fromBalance */\n      dup2\n        /* \"https://github.com/OpenZeppelin/openzeppelin-contracts/blob/52eeebecda140ebaf4ec8752ed119d8288287fac/contracts/token/ERC20/ERC20.sol\":7859:7880  fromBalance >= amount */\n      lt\n      iszero\n        /* \"https://github.com/OpenZeppelin/openzeppelin-contracts/blob/52eeebecda140ebaf4ec8752ed119d8288287fac/contracts/token/ERC20/ERC20.sol\":7851:7923  require(fromBalance >= amount, \"ERC20: transfer amount exceeds balance\") */\n      tag_188\n      jumpi\n      mload(0x40)\n      0x08c379a000000000000000000000000000000000000000000000000000000000\n      dup2\n      mstore\n      0x04\n      add\n      tag_189\n      swap1\n      tag_190\n      jump\t// in\n    tag_189:\n      mload(0x40)\n      dup1\n      swap2\n      sub\n      swap1\n      revert\n    tag_188:\n        /* \"https://github.com/OpenZeppelin/openzeppelin-contracts/blob/52eeebecda140ebaf4ec8752ed119d8288287fac/contracts/token/ERC20/ERC20.sol\":7989:7995  amount */\n      dup2\n        /* \"https://github.com/OpenZeppelin/openzeppelin-contracts/blob/52eeebecda140ebaf4ec8752ed119d8288287fac/contracts/token/ERC20/ERC20.sol\":7975:7986  fromBalance */\n      dup2\n        /* \"https://github.com/OpenZeppelin/openzeppelin-contracts/blob/52eeebecda140ebaf4ec8752ed119d8288287fac/contracts/token/ERC20/ERC20.sol\":7975:7995  fromBalance - amount */\n      sub\n        /* \"https://github.com/OpenZeppelin/openzeppelin-contracts/blob/52eeebecda140ebaf4ec8752ed119d8288287fac/contracts/token/ERC20/ERC20.sol\":7957:7966  _balances */\n      0x00\n        /* \"https://github.com/OpenZeppelin/openzeppelin-contracts/blob/52eeebecda140ebaf4ec8752ed119d8288287fac/contracts/token/ERC20/ERC20.sol\":7957:7972  _balances[from] */\n      dup1\n        /* \"https://github.com/OpenZeppelin/openzeppelin-contracts/blob/52eeebecda140ebaf4ec8752ed119d8288287fac/contracts/token/ERC20/ERC20.sol\":7967:7971  from */\n      dup7\n        /* \"https://github.com/OpenZeppelin/openzeppelin-contracts/blob/52eeebecda140ebaf4ec8752ed119d8288287fac/contracts/token/ERC20/ERC20.sol\":7957:7972  _balances[from] */\n      0xffffffffffffffffffffffffffffffffffffffff\n      and\n      0xffffffffffffffffffffffffffffffffffffffff\n      and\n      dup2\n      mstore\n      0x20\n      add\n      swap1\n      dup2\n      mstore\n      0x20\n      add\n      0x00\n      keccak256\n        /* \"https://github.com/OpenZeppelin/openzeppelin-contracts/blob/52eeebecda140ebaf4ec8752ed119d8288287fac/contracts/token/ERC20/ERC20.sol\":7957:7995  _balances[from] = fromBalance - amount */\n      dup2\n      swap1\n      sstore\n      pop\n        /* \"https://github.com/OpenZeppelin/openzeppelin-contracts/blob/52eeebecda140ebaf4ec8752ed119d8288287fac/contracts/token/ERC20/ERC20.sol\":8032:8038  amount */\n      dup2\n        /* \"https://github.com/OpenZeppelin/openzeppelin-contracts/blob/52eeebecda140ebaf4ec8752ed119d8288287fac/contracts/token/ERC20/ERC20.sol\":8015:8024  _balances */\n      0x00\n        /* \"https://github.com/OpenZeppelin/openzeppelin-contracts/blob/52eeebecda140ebaf4ec8752ed119d8288287fac/contracts/token/ERC20/ERC20.sol\":8015:8028  _balances[to] */\n      dup1\n        /* \"https://github.com/OpenZeppelin/openzeppelin-contracts/blob/52eeebecda140ebaf4ec8752ed119d8288287fac/contracts/token/ERC20/ERC20.sol\":8025:8027  to */\n      dup6\n        /* \"https://github.com/OpenZeppelin/openzeppelin-contracts/blob/52eeebecda140ebaf4ec8752ed119d8288287fac/contracts/token/ERC20/ERC20.sol\":8015:8028  _balances[to] */\n      0xffffffffffffffffffffffffffffffffffffffff\n      and\n      0xffffffffffffffffffffffffffffffffffffffff\n      and\n      dup2\n      mstore\n      0x20\n      add\n      swap1\n      dup2\n      mstore\n      0x20\n      add\n      0x00\n      keccak256\n      0x00\n        /* \"https://github.com/OpenZeppelin/openzeppelin-contracts/blob/52eeebecda140ebaf4ec8752ed119d8288287fac/contracts/token/ERC20/ERC20.sol\":8015:8038  _balances[to] += amount */\n      dup3\n      dup3\n      sload\n      tag_191\n      swap2\n      swap1\n      tag_101\n      jump\t// in\n    tag_191:\n      swap3\n      pop\n      pop\n      dup2\n      swap1\n      sstore\n      pop\n        /* \"https://github.com/OpenZeppelin/openzeppelin-contracts/blob/52eeebecda140ebaf4ec8752ed119d8288287fac/contracts/token/ERC20/ERC20.sol\":8069:8071  to */\n      dup3\n        /* \"https://github.com/OpenZeppelin/openzeppelin-contracts/blob/52eeebecda140ebaf4ec8752ed119d8288287fac/contracts/token/ERC20/ERC20.sol\":8054:8080  Transfer(from, to, amount) */\n      0xffffffffffffffffffffffffffffffffffffffff\n      and\n        /* \"https://github.com/OpenZeppelin/openzeppelin-contracts/blob/52eeebecda140ebaf4ec8752ed119d8288287fac/contracts/token/ERC20/ERC20.sol\":8063:8067  from */\n      dup5\n        /* \"https://github.com/OpenZeppelin/openzeppelin-contracts/blob/52eeebecda140ebaf4ec8752ed119d8288287fac/contracts/token/ERC20/ERC20.sol\":8054:8080  Transfer(from, to, amount) */\n      0xffffffffffffffffffffffffffffffffffffffff\n      and\n      0xddf252ad1be2c89b69c2b068fc378daa952ba7f163c4a11628f55a4df523b3ef\n        /* \"https://github.com/OpenZeppelin/openzeppelin-contracts/blob/52eeebecda140ebaf4ec8752ed119d8288287fac/contracts/token/ERC20/ERC20.sol\":8073:8079  amount */\n      dup5\n        /* \"https://github.com/OpenZeppelin/openzeppelin-contracts/blob/52eeebecda140ebaf4ec8752ed119d8288287fac/contracts/token/ERC20/ERC20.sol\":8054:8080  Transfer(from, to, amount) */\n      mload(0x40)\n      tag_192\n      swap2\n      swap1\n      tag_43\n      jump\t// in\n    tag_192:\n      mload(0x40)\n      dup1\n      swap2\n      sub\n      swap1\n      log3\n        /* \"https://github.com/OpenZeppelin/openzeppelin-contracts/blob/52eeebecda140ebaf4ec8752ed119d8288287fac/contracts/token/ERC20/ERC20.sol\":8091:8128  _afterTokenTransfer(from, to, amount) */\n      tag_193\n        /* \"https://github.com/OpenZeppelin/openzeppelin-contracts/blob/52eeebecda140ebaf4ec8752ed119d8288287fac/contracts/token/ERC20/ERC20.sol\":8111:8115  from */\n      dup5\n        /* \"https://github.com/OpenZeppelin/openzeppelin-contracts/blob/52eeebecda140ebaf4ec8752ed119d8288287fac/contracts/token/ERC20/ERC20.sol\":8117:8119  to */\n      dup5\n        /* \"https://github.com/OpenZeppelin/openzeppelin-contracts/blob/52eeebecda140ebaf4ec8752ed119d8288287fac/contracts/token/ERC20/ERC20.sol\":8121:8127  amount */\n      dup5\n        /* \"https://github.com/OpenZeppelin/openzeppelin-contracts/blob/52eeebecda140ebaf4ec8752ed119d8288287fac/contracts/token/ERC20/ERC20.sol\":8091:8110  _afterTokenTransfer */\n      tag_194\n        /* \"https://github.com/OpenZeppelin/openzeppelin-contracts/blob/52eeebecda140ebaf4ec8752ed119d8288287fac/contracts/token/ERC20/ERC20.sol\":8091:8128  _afterTokenTransfer(from, to, amount) */\n      jump\t// in\n    tag_193:\n        /* \"https://github.com/OpenZeppelin/openzeppelin-contracts/blob/52eeebecda140ebaf4ec8752ed119d8288287fac/contracts/token/ERC20/ERC20.sol\":7592:8135  {... */\n      pop\n        /* \"https://github.com/OpenZeppelin/openzeppelin-contracts/blob/52eeebecda140ebaf4ec8752ed119d8288287fac/contracts/token/ERC20/ERC20.sol\":7484:8135  function _transfer(... */\n      pop\n      pop\n      pop\n      jump\t// out\n        /* \"https://github.com/OpenZeppelin/openzeppelin-contracts/blob/52eeebecda140ebaf4ec8752ed119d8288287fac/contracts/token/ERC20/ERC20.sol\":11795:11916  function _beforeTokenTransfer(... */\n    tag_187:\n      pop\n      pop\n      pop\n      jump\t// out\n        /* \"https://github.com/OpenZeppelin/openzeppelin-contracts/blob/52eeebecda140ebaf4ec8752ed119d8288287fac/contracts/token/ERC20/ERC20.sol\":12504:12624  function _afterTokenTransfer(... */\n    tag_194:\n      pop\n      pop\n      pop\n      jump\t// out\n        /* \"#utility.yul\":7:146   */\n    tag_198:\n        /* \"#utility.yul\":53:58   */\n      0x00\n        /* \"#utility.yul\":91:97   */\n      dup2\n        /* \"#utility.yul\":78:98   */\n      calldataload\n        /* \"#utility.yul\":69:98   */\n      swap1\n      pop\n        /* \"#utility.yul\":107:140   */\n      tag_200\n        /* \"#utility.yul\":134:139   */\n      dup2\n        /* \"#utility.yul\":107:140   */\n      tag_201\n      jump\t// in\n    tag_200:\n        /* \"#utility.yul\":7:146   */\n      swap3\n      swap2\n      pop\n      pop\n      jump\t// out\n        /* \"#utility.yul\":169:737   */\n    tag_202:\n        /* \"#utility.yul\":242:250   */\n      0x00\n        /* \"#utility.yul\":252:258   */\n      dup1\n        /* \"#utility.yul\":302:305   */\n      dup4\n        /* \"#utility.yul\":295:299   */\n      0x1f\n        /* \"#utility.yul\":287:293   */\n      dup5\n        /* \"#utility.yul\":283:300   */\n      add\n        /* \"#utility.yul\":279:306   */\n      slt\n        /* \"#utility.yul\":269:391   */\n      tag_204\n      jumpi\n        /* \"#utility.yul\":310:389   */\n      tag_205\n      tag_206\n      jump\t// in\n    tag_205:\n        /* \"#utility.yul\":269:391   */\n    tag_204:\n        /* \"#utility.yul\":423:429   */\n      dup3\n        /* \"#utility.yul\":410:430   */\n      calldataload\n        /* \"#utility.yul\":400:430   */\n      swap1\n      pop\n        /* \"#utility.yul\":453:471   */\n      0xffffffffffffffff\n        /* \"#utility.yul\":445:451   */\n      dup2\n        /* \"#utility.yul\":442:472   */\n      gt\n        /* \"#utility.yul\":439:556   */\n      iszero\n      tag_207\n      jumpi\n        /* \"#utility.yul\":475:554   */\n      tag_208\n      tag_209\n      jump\t// in\n    tag_208:\n        /* \"#utility.yul\":439:556   */\n    tag_207:\n        /* \"#utility.yul\":589:593   */\n      0x20\n        /* \"#utility.yul\":581:587   */\n      dup4\n        /* \"#utility.yul\":577:594   */\n      add\n        /* \"#utility.yul\":565:594   */\n      swap2\n      pop\n        /* \"#utility.yul\":643:646   */\n      dup4\n        /* \"#utility.yul\":635:639   */\n      0x20\n        /* \"#utility.yul\":627:633   */\n      dup3\n        /* \"#utility.yul\":623:640   */\n      mul\n        /* \"#utility.yul\":613:621   */\n      dup4\n        /* \"#utility.yul\":609:641   */\n      add\n        /* \"#utility.yul\":606:647   */\n      gt\n        /* \"#utility.yul\":603:731   */\n      iszero\n      tag_210\n      jumpi\n        /* \"#utility.yul\":650:729   */\n      tag_211\n      tag_212\n      jump\t// in\n    tag_211:\n        /* \"#utility.yul\":603:731   */\n    tag_210:\n        /* \"#utility.yul\":169:737   */\n      swap3\n      pop\n      swap3\n      swap1\n      pop\n      jump\t// out\n        /* \"#utility.yul\":743:882   */\n    tag_213:\n        /* \"#utility.yul\":789:794   */\n      0x00\n        /* \"#utility.yul\":827:833   */\n      dup2\n        /* \"#utility.yul\":814:834   */\n      calldataload\n        /* \"#utility.yul\":805:834   */\n      swap1\n      pop\n        /* \"#utility.yul\":843:876   */\n      tag_215\n        /* \"#utility.yul\":870:875   */\n      dup2\n        /* \"#utility.yul\":843:876   */\n      tag_216\n      jump\t// in\n    tag_215:\n        /* \"#utility.yul\":743:882   */\n      swap3\n      swap2\n      pop\n      pop\n      jump\t// out\n        /* \"#utility.yul\":888:1217   */\n    tag_50:\n        /* \"#utility.yul\":947:953   */\n      0x00\n        /* \"#utility.yul\":996:998   */\n      0x20\n        /* \"#utility.yul\":984:993   */\n      dup3\n        /* \"#utility.yul\":975:982   */\n      dup5\n        /* \"#utility.yul\":971:994   */\n      sub\n        /* \"#utility.yul\":967:999   */\n      slt\n        /* \"#utility.yul\":964:1083   */\n      iszero\n      tag_218\n      jumpi\n        /* \"#utility.yul\":1002:1081   */\n      tag_219\n      tag_220\n      jump\t// in\n    tag_219:\n        /* \"#utility.yul\":964:1083   */\n    tag_218:\n        /* \"#utility.yul\":1122:1123   */\n      0x00\n        /* \"#utility.yul\":1147:1200   */\n      tag_221\n        /* \"#utility.yul\":1192:1199   */\n      dup5\n        /* \"#utility.yul\":1183:1189   */\n      dup3\n        /* \"#utility.yul\":1172:1181   */\n      dup6\n        /* \"#utility.yul\":1168:1190   */\n      add\n        /* \"#utility.yul\":1147:1200   */\n      tag_198\n      jump\t// in\n    tag_221:\n        /* \"#utility.yul\":1137:1200   */\n      swap2\n      pop\n        /* \"#utility.yul\":1093:1210   */\n      pop\n        /* \"#utility.yul\":888:1217   */\n      swap3\n      swap2\n      pop\n      pop\n      jump\t// out\n        /* \"#utility.yul\":1223:1697   */\n    tag_85:\n        /* \"#utility.yul\":1291:1297   */\n      0x00\n        /* \"#utility.yul\":1299:1305   */\n      dup1\n        /* \"#utility.yul\":1348:1350   */\n      0x40\n        /* \"#utility.yul\":1336:1345   */\n      dup4\n        /* \"#utility.yul\":1327:1334   */\n      dup6\n        /* \"#utility.yul\":1323:1346   */\n      sub\n        /* \"#utility.yul\":1319:1351   */\n      slt\n        /* \"#utility.yul\":1316:1435   */\n      iszero\n      tag_223\n      jumpi\n        /* \"#utility.yul\":1354:1433   */\n      tag_224\n      tag_220\n      jump\t// in\n    tag_224:\n        /* \"#utility.yul\":1316:1435   */\n    tag_223:\n        /* \"#utility.yul\":1474:1475   */\n      0x00\n        /* \"#utility.yul\":1499:1552   */\n      tag_225\n        /* \"#utility.yul\":1544:1551   */\n      dup6\n        /* \"#utility.yul\":1535:1541   */\n      dup3\n        /* \"#utility.yul\":1524:1533   */\n      dup7\n        /* \"#utility.yul\":1520:1542   */\n      add\n        /* \"#utility.yul\":1499:1552   */\n      tag_198\n      jump\t// in\n    tag_225:\n        /* \"#utility.yul\":1489:1552   */\n      swap3\n      pop\n        /* \"#utility.yul\":1445:1562   */\n      pop\n        /* \"#utility.yul\":1601:1603   */\n      0x20\n        /* \"#utility.yul\":1627:1680   */\n      tag_226\n        /* \"#utility.yul\":1672:1679   */\n      dup6\n        /* \"#utility.yul\":1663:1669   */\n      dup3\n        /* \"#utility.yul\":1652:1661   */\n      dup7\n        /* \"#utility.yul\":1648:1670   */\n      add\n        /* \"#utility.yul\":1627:1680   */\n      tag_198\n      jump\t// in\n    tag_226:\n        /* \"#utility.yul\":1617:1680   */\n      swap2\n      pop\n        /* \"#utility.yul\":1572:1690   */\n      pop\n        /* \"#utility.yul\":1223:1697   */\n      swap3\n      pop\n      swap3\n      swap1\n      pop\n      jump\t// out\n        /* \"#utility.yul\":1703:2322   */\n    tag_32:\n        /* \"#utility.yul\":1780:1786   */\n      0x00\n        /* \"#utility.yul\":1788:1794   */\n      dup1\n        /* \"#utility.yul\":1796:1802   */\n      0x00\n        /* \"#utility.yul\":1845:1847   */\n      0x60\n        /* \"#utility.yul\":1833:1842   */\n      dup5\n        /* \"#utility.yul\":1824:1831   */\n      dup7\n        /* \"#utility.yul\":1820:1843   */\n      sub\n        /* \"#utility.yul\":1816:1848   */\n      slt\n        /* \"#utility.yul\":1813:1932   */\n      iszero\n      tag_228\n      jumpi\n        /* \"#utility.yul\":1851:1930   */\n      tag_229\n      tag_220\n      jump\t// in\n    tag_229:\n        /* \"#utility.yul\":1813:1932   */\n    tag_228:\n        /* \"#utility.yul\":1971:1972   */\n      0x00\n        /* \"#utility.yul\":1996:2049   */\n      tag_230\n        /* \"#utility.yul\":2041:2048   */\n      dup7\n        /* \"#utility.yul\":2032:2038   */\n      dup3\n        /* \"#utility.yul\":2021:2030   */\n      dup8\n        /* \"#utility.yul\":2017:2039   */\n      add\n        /* \"#utility.yul\":1996:2049   */\n      tag_198\n      jump\t// in\n    tag_230:\n        /* \"#utility.yul\":1986:2049   */\n      swap4\n      pop\n        /* \"#utility.yul\":1942:2059   */\n      pop\n        /* \"#utility.yul\":2098:2100   */\n      0x20\n        /* \"#utility.yul\":2124:2177   */\n      tag_231\n        /* \"#utility.yul\":2169:2176   */\n      dup7\n        /* \"#utility.yul\":2160:2166   */\n      dup3\n        /* \"#utility.yul\":2149:2158   */\n      dup8\n        /* \"#utility.yul\":2145:2167   */\n      add\n        /* \"#utility.yul\":2124:2177   */\n      tag_198\n      jump\t// in\n    tag_231:\n        /* \"#utility.yul\":2114:2177   */\n      swap3\n      pop\n        /* \"#utility.yul\":2069:2187   */\n      pop\n        /* \"#utility.yul\":2226:2228   */\n      0x40\n        /* \"#utility.yul\":2252:2305   */\n      tag_232\n        /* \"#utility.yul\":2297:2304   */\n      dup7\n        /* \"#utility.yul\":2288:2294   */\n      dup3\n        /* \"#utility.yul\":2277:2286   */\n      dup8\n        /* \"#utility.yul\":2273:2295   */\n      add\n        /* \"#utility.yul\":2252:2305   */\n      tag_213\n      jump\t// in\n    tag_232:\n        /* \"#utility.yul\":2242:2305   */\n      swap2\n      pop\n        /* \"#utility.yul\":2197:2315   */\n      pop\n        /* \"#utility.yul\":1703:2322   */\n      swap3\n      pop\n      swap3\n      pop\n      swap3\n      jump\t// out\n        /* \"#utility.yul\":2328:3177   */\n    tag_66:\n        /* \"#utility.yul\":2432:2438   */\n      0x00\n        /* \"#utility.yul\":2440:2446   */\n      dup1\n        /* \"#utility.yul\":2448:2454   */\n      0x00\n        /* \"#utility.yul\":2456:2462   */\n      dup1\n        /* \"#utility.yul\":2505:2507   */\n      0x60\n        /* \"#utility.yul\":2493:2502   */\n      dup6\n        /* \"#utility.yul\":2484:2491   */\n      dup8\n        /* \"#utility.yul\":2480:2503   */\n      sub\n        /* \"#utility.yul\":2476:2508   */\n      slt\n        /* \"#utility.yul\":2473:2592   */\n      iszero\n      tag_234\n      jumpi\n        /* \"#utility.yul\":2511:2590   */\n      tag_235\n      tag_220\n      jump\t// in\n    tag_235:\n        /* \"#utility.yul\":2473:2592   */\n    tag_234:\n        /* \"#utility.yul\":2631:2632   */\n      0x00\n        /* \"#utility.yul\":2656:2709   */\n      tag_236\n        /* \"#utility.yul\":2701:2708   */\n      dup8\n        /* \"#utility.yul\":2692:2698   */\n      dup3\n        /* \"#utility.yul\":2681:2690   */\n      dup9\n        /* \"#utility.yul\":2677:2699   */\n      add\n        /* \"#utility.yul\":2656:2709   */\n      tag_198\n      jump\t// in\n    tag_236:\n        /* \"#utility.yul\":2646:2709   */\n      swap5\n      pop\n        /* \"#utility.yul\":2602:2719   */\n      pop\n        /* \"#utility.yul\":2786:2788   */\n      0x20\n        /* \"#utility.yul\":2775:2784   */\n      dup6\n        /* \"#utility.yul\":2771:2789   */\n      add\n        /* \"#utility.yul\":2758:2790   */\n      calldataload\n        /* \"#utility.yul\":2817:2835   */\n      0xffffffffffffffff\n        /* \"#utility.yul\":2809:2815   */\n      dup2\n        /* \"#utility.yul\":2806:2836   */\n      gt\n        /* \"#utility.yul\":2803:2920   */\n      iszero\n      tag_237\n      jumpi\n        /* \"#utility.yul\":2839:2918   */\n      tag_238\n      tag_239\n      jump\t// in\n    tag_238:\n        /* \"#utility.yul\":2803:2920   */\n    tag_237:\n        /* \"#utility.yul\":2952:3032   */\n      tag_240\n        /* \"#utility.yul\":3024:3031   */\n      dup8\n        /* \"#utility.yul\":3015:3021   */\n      dup3\n        /* \"#utility.yul\":3004:3013   */\n      dup9\n        /* \"#utility.yul\":3000:3022   */\n      add\n        /* \"#utility.yul\":2952:3032   */\n      tag_202\n      jump\t// in\n    tag_240:\n        /* \"#utility.yul\":2934:3032   */\n      swap4\n      pop\n      swap4\n      pop\n        /* \"#utility.yul\":2729:3042   */\n      pop\n        /* \"#utility.yul\":3081:3083   */\n      0x40\n        /* \"#utility.yul\":3107:3160   */\n      tag_241\n        /* \"#utility.yul\":3152:3159   */\n      dup8\n        /* \"#utility.yul\":3143:3149   */\n      dup3\n        /* \"#utility.yul\":3132:3141   */\n      dup9\n        /* \"#utility.yul\":3128:3150   */\n      add\n        /* \"#utility.yul\":3107:3160   */\n      tag_213\n      jump\t// in\n    tag_241:\n        /* \"#utility.yul\":3097:3160   */\n      swap2\n      pop\n        /* \"#utility.yul\":3052:3170   */\n      pop\n        /* \"#utility.yul\":2328:3177   */\n      swap3\n      swap6\n      swap2\n      swap5\n      pop\n      swap3\n      pop\n      jump\t// out\n        /* \"#utility.yul\":3183:3657   */\n    tag_36:\n        /* \"#utility.yul\":3251:3257   */\n      0x00\n        /* \"#utility.yul\":3259:3265   */\n      dup1\n        /* \"#utility.yul\":3308:3310   */\n      0x40\n        /* \"#utility.yul\":3296:3305   */\n      dup4\n        /* \"#utility.yul\":3287:3294   */\n      dup6\n        /* \"#utility.yul\":3283:3306   */\n      sub\n        /* \"#utility.yul\":3279:3311   */\n      slt\n        /* \"#utility.yul\":3276:3395   */\n      iszero\n      tag_243\n      jumpi\n        /* \"#utility.yul\":3314:3393   */\n      tag_244\n      tag_220\n      jump\t// in\n    tag_244:\n        /* \"#utility.yul\":3276:3395   */\n    tag_243:\n        /* \"#utility.yul\":3434:3435   */\n      0x00\n        /* \"#utility.yul\":3459:3512   */\n      tag_245\n        /* \"#utility.yul\":3504:3511   */\n      dup6\n        /* \"#utility.yul\":3495:3501   */\n      dup3\n        /* \"#utility.yul\":3484:3493   */\n      dup7\n        /* \"#utility.yul\":3480:3502   */\n      add\n        /* \"#utility.yul\":3459:3512   */\n      tag_198\n      jump\t// in\n    tag_245:\n        /* \"#utility.yul\":3449:3512   */\n      swap3\n      pop\n        /* \"#utility.yul\":3405:3522   */\n      pop\n        /* \"#utility.yul\":3561:3563   */\n      0x20\n        /* \"#utility.yul\":3587:3640   */\n      tag_246\n        /* \"#utility.yul\":3632:3639   */\n      dup6\n        /* \"#utility.yul\":3623:3629   */\n      dup3\n        /* \"#utility.yul\":3612:3621   */\n      dup7\n        /* \"#utility.yul\":3608:3630   */\n      add\n        /* \"#utility.yul\":3587:3640   */\n      tag_213\n      jump\t// in\n    tag_246:\n        /* \"#utility.yul\":3577:3640   */\n      swap2\n      pop\n        /* \"#utility.yul\":3532:3650   */\n      pop\n        /* \"#utility.yul\":3183:3657   */\n      swap3\n      pop\n      swap3\n      swap1\n      pop\n      jump\t// out\n        /* \"#utility.yul\":3663:3842   */\n    tag_247:\n        /* \"#utility.yul\":3732:3742   */\n      0x00\n        /* \"#utility.yul\":3753:3799   */\n      tag_249\n        /* \"#utility.yul\":3795:3798   */\n      dup4\n        /* \"#utility.yul\":3787:3793   */\n      dup4\n        /* \"#utility.yul\":3753:3799   */\n      tag_250\n      jump\t// in\n    tag_249:\n        /* \"#utility.yul\":3831:3835   */\n      0x20\n        /* \"#utility.yul\":3826:3829   */\n      dup4\n        /* \"#utility.yul\":3822:3836   */\n      add\n        /* \"#utility.yul\":3808:3836   */\n      swap1\n      pop\n        /* \"#utility.yul\":3663:3842   */\n      swap3\n      swap2\n      pop\n      pop\n      jump\t// out\n        /* \"#utility.yul\":3848:3956   */\n    tag_250:\n        /* \"#utility.yul\":3925:3949   */\n      tag_252\n        /* \"#utility.yul\":3943:3948   */\n      dup2\n        /* \"#utility.yul\":3925:3949   */\n      tag_253\n      jump\t// in\n    tag_252:\n        /* \"#utility.yul\":3920:3923   */\n      dup3\n        /* \"#utility.yul\":3913:3950   */\n      mstore\n        /* \"#utility.yul\":3848:3956   */\n      pop\n      pop\n      jump\t// out\n        /* \"#utility.yul\":3962:4080   */\n    tag_254:\n        /* \"#utility.yul\":4049:4073   */\n      tag_256\n        /* \"#utility.yul\":4067:4072   */\n      dup2\n        /* \"#utility.yul\":4049:4073   */\n      tag_253\n      jump\t// in\n    tag_256:\n        /* \"#utility.yul\":4044:4047   */\n      dup3\n        /* \"#utility.yul\":4037:4074   */\n      mstore\n        /* \"#utility.yul\":3962:4080   */\n      pop\n      pop\n      jump\t// out\n        /* \"#utility.yul\":4116:4815   */\n    tag_257:\n        /* \"#utility.yul\":4245:4248   */\n      0x00\n        /* \"#utility.yul\":4268:4354   */\n      tag_259\n        /* \"#utility.yul\":4347:4353   */\n      dup4\n        /* \"#utility.yul\":4342:4345   */\n      dup6\n        /* \"#utility.yul\":4268:4354   */\n      tag_260\n      jump\t// in\n    tag_259:\n        /* \"#utility.yul\":4261:4354   */\n      swap4\n      pop\n        /* \"#utility.yul\":4378:4436   */\n      tag_261\n        /* \"#utility.yul\":4430:4435   */\n      dup3\n        /* \"#utility.yul\":4378:4436   */\n      tag_262\n      jump\t// in\n    tag_261:\n        /* \"#utility.yul\":4459:4466   */\n      dup1\n        /* \"#utility.yul\":4490:4491   */\n      0x00\n        /* \"#utility.yul\":4475:4790   */\n    tag_263:\n        /* \"#utility.yul\":4500:4506   */\n      dup6\n        /* \"#utility.yul\":4497:4498   */\n      dup2\n        /* \"#utility.yul\":4494:4507   */\n      lt\n        /* \"#utility.yul\":4475:4790   */\n      iszero\n      tag_265\n      jumpi\n        /* \"#utility.yul\":4570:4612   */\n      tag_266\n        /* \"#utility.yul\":4605:4611   */\n      dup3\n        /* \"#utility.yul\":4596:4603   */\n      dup5\n        /* \"#utility.yul\":4570:4612   */\n      tag_267\n      jump\t// in\n    tag_266:\n        /* \"#utility.yul\":4632:4695   */\n      tag_268\n        /* \"#utility.yul\":4691:4694   */\n      dup9\n        /* \"#utility.yul\":4676:4689   */\n      dup3\n        /* \"#utility.yul\":4632:4695   */\n      tag_247\n      jump\t// in\n    tag_268:\n        /* \"#utility.yul\":4625:4695   */\n      swap8\n      pop\n        /* \"#utility.yul\":4718:4780   */\n      tag_269\n        /* \"#utility.yul\":4773:4779   */\n      dup4\n        /* \"#utility.yul\":4718:4780   */\n      tag_270\n      jump\t// in\n    tag_269:\n        /* \"#utility.yul\":4708:4780   */\n      swap3\n      pop\n        /* \"#utility.yul\":4535:4790   */\n      pop\n        /* \"#utility.yul\":4522:4523   */\n      0x01\n        /* \"#utility.yul\":4519:4520   */\n      dup2\n        /* \"#utility.yul\":4515:4524   */\n      add\n        /* \"#utility.yul\":4510:4524   */\n      swap1\n      pop\n        /* \"#utility.yul\":4475:4790   */\n      jump(tag_263)\n    tag_265:\n        /* \"#utility.yul\":4479:4493   */\n      pop\n        /* \"#utility.yul\":4806:4809   */\n      dup6\n        /* \"#utility.yul\":4799:4809   */\n      swap3\n      pop\n        /* \"#utility.yul\":4250:4815   */\n      pop\n      pop\n        /* \"#utility.yul\":4116:4815   */\n      swap4\n      swap3\n      pop\n      pop\n      pop\n      jump\t// out\n        /* \"#utility.yul\":4821:4930   */\n    tag_271:\n        /* \"#utility.yul\":4902:4923   */\n      tag_273\n        /* \"#utility.yul\":4917:4922   */\n      dup2\n        /* \"#utility.yul\":4902:4923   */\n      tag_274\n      jump\t// in\n    tag_273:\n        /* \"#utility.yul\":4897:4900   */\n      dup3\n        /* \"#utility.yul\":4890:4924   */\n      mstore\n        /* \"#utility.yul\":4821:4930   */\n      pop\n      pop\n      jump\t// out\n        /* \"#utility.yul\":4936:5300   */\n    tag_275:\n        /* \"#utility.yul\":5024:5027   */\n      0x00\n        /* \"#utility.yul\":5052:5091   */\n      tag_277\n        /* \"#utility.yul\":5085:5090   */\n      dup3\n        /* \"#utility.yul\":5052:5091   */\n      tag_278\n      jump\t// in\n    tag_277:\n        /* \"#utility.yul\":5107:5178   */\n      tag_279\n        /* \"#utility.yul\":5171:5177   */\n      dup2\n        /* \"#utility.yul\":5166:5169   */\n      dup6\n        /* \"#utility.yul\":5107:5178   */\n      tag_280\n      jump\t// in\n    tag_279:\n        /* \"#utility.yul\":5100:5178   */\n      swap4\n      pop\n        /* \"#utility.yul\":5187:5239   */\n      tag_281\n        /* \"#utility.yul\":5232:5238   */\n      dup2\n        /* \"#utility.yul\":5227:5230   */\n      dup6\n        /* \"#utility.yul\":5220:5224   */\n      0x20\n        /* \"#utility.yul\":5213:5218   */\n      dup7\n        /* \"#utility.yul\":5209:5225   */\n      add\n        /* \"#utility.yul\":5187:5239   */\n      tag_282\n      jump\t// in\n    tag_281:\n        /* \"#utility.yul\":5264:5293   */\n      tag_283\n        /* \"#utility.yul\":5286:5292   */\n      dup2\n        /* \"#utility.yul\":5264:5293   */\n      tag_284\n      jump\t// in\n    tag_283:\n        /* \"#utility.yul\":5259:5262   */\n      dup5\n        /* \"#utility.yul\":5255:5294   */\n      add\n        /* \"#utility.yul\":5248:5294   */\n      swap2\n      pop\n        /* \"#utility.yul\":5028:5300   */\n      pop\n        /* \"#utility.yul\":4936:5300   */\n      swap3\n      swap2\n      pop\n      pop\n      jump\t// out\n        /* \"#utility.yul\":5306:5672   */\n    tag_285:\n        /* \"#utility.yul\":5448:5451   */\n      0x00\n        /* \"#utility.yul\":5469:5536   */\n      tag_287\n        /* \"#utility.yul\":5533:5535   */\n      0x23\n        /* \"#utility.yul\":5528:5531   */\n      dup4\n        /* \"#utility.yul\":5469:5536   */\n      tag_280\n      jump\t// in\n    tag_287:\n        /* \"#utility.yul\":5462:5536   */\n      swap2\n      pop\n        /* \"#utility.yul\":5545:5638   */\n      tag_288\n        /* \"#utility.yul\":5634:5637   */\n      dup3\n        /* \"#utility.yul\":5545:5638   */\n      tag_289\n      jump\t// in\n    tag_288:\n        /* \"#utility.yul\":5663:5665   */\n      0x40\n        /* \"#utility.yul\":5658:5661   */\n      dup3\n        /* \"#utility.yul\":5654:5666   */\n      add\n        /* \"#utility.yul\":5647:5666   */\n      swap1\n      pop\n        /* \"#utility.yul\":5306:5672   */\n      swap2\n      swap1\n      pop\n      jump\t// out\n        /* \"#utility.yul\":5678:6044   */\n    tag_290:\n        /* \"#utility.yul\":5820:5823   */\n      0x00\n        /* \"#utility.yul\":5841:5908   */\n      tag_292\n        /* \"#utility.yul\":5905:5907   */\n      0x22\n        /* \"#utility.yul\":5900:5903   */\n      dup4\n        /* \"#utility.yul\":5841:5908   */\n      tag_280\n      jump\t// in\n    tag_292:\n        /* \"#utility.yul\":5834:5908   */\n      swap2\n      pop\n        /* \"#utility.yul\":5917:6010   */\n      tag_293\n        /* \"#utility.yul\":6006:6009   */\n      dup3\n        /* \"#utility.yul\":5917:6010   */\n      tag_294\n      jump\t// in\n    tag_293:\n        /* \"#utility.yul\":6035:6037   */\n      0x40\n        /* \"#utility.yul\":6030:6033   */\n      dup3\n        /* \"#utility.yul\":6026:6038   */\n      add\n        /* \"#utility.yul\":6019:6038   */\n      swap1\n      pop\n        /* \"#utility.yul\":5678:6044   */\n      swap2\n      swap1\n      pop\n      jump\t// out\n        /* \"#utility.yul\":6050:6416   */\n    tag_295:\n        /* \"#utility.yul\":6192:6195   */\n      0x00\n        /* \"#utility.yul\":6213:6280   */\n      tag_297\n        /* \"#utility.yul\":6277:6279   */\n      0x1d\n        /* \"#utility.yul\":6272:6275   */\n      dup4\n        /* \"#utility.yul\":6213:6280   */\n      tag_280\n      jump\t// in\n    tag_297:\n        /* \"#utility.yul\":6206:6280   */\n      swap2\n      pop\n        /* \"#utility.yul\":6289:6382   */\n      tag_298\n        /* \"#utility.yul\":6378:6381   */\n      dup3\n        /* \"#utility.yul\":6289:6382   */\n      tag_299\n      jump\t// in\n    tag_298:\n        /* \"#utility.yul\":6407:6409   */\n      0x20\n        /* \"#utility.yul\":6402:6405   */\n      dup3\n        /* \"#utility.yul\":6398:6410   */\n      add\n        /* \"#utility.yul\":6391:6410   */\n      swap1\n      pop\n        /* \"#utility.yul\":6050:6416   */\n      swap2\n      swap1\n      pop\n      jump\t// out\n        /* \"#utility.yul\":6422:6788   */\n    tag_300:\n        /* \"#utility.yul\":6564:6567   */\n      0x00\n        /* \"#utility.yul\":6585:6652   */\n      tag_302\n        /* \"#utility.yul\":6649:6651   */\n      0x26\n        /* \"#utility.yul\":6644:6647   */\n      dup4\n        /* \"#utility.yul\":6585:6652   */\n      tag_280\n      jump\t// in\n    tag_302:\n        /* \"#utility.yul\":6578:6652   */\n      swap2\n      pop\n        /* \"#utility.yul\":6661:6754   */\n      tag_303\n        /* \"#utility.yul\":6750:6753   */\n      dup3\n        /* \"#utility.yul\":6661:6754   */\n      tag_304\n      jump\t// in\n    tag_303:\n        /* \"#utility.yul\":6779:6781   */\n      0x40\n        /* \"#utility.yul\":6774:6777   */\n      dup3\n        /* \"#utility.yul\":6770:6782   */\n      add\n        /* \"#utility.yul\":6763:6782   */\n      swap1\n      pop\n        /* \"#utility.yul\":6422:6788   */\n      swap2\n      swap1\n      pop\n      jump\t// out\n        /* \"#utility.yul\":6794:7160   */\n    tag_305:\n        /* \"#utility.yul\":6936:6939   */\n      0x00\n        /* \"#utility.yul\":6957:7024   */\n      tag_307\n        /* \"#utility.yul\":7021:7023   */\n      0x15\n        /* \"#utility.yul\":7016:7019   */\n      dup4\n        /* \"#utility.yul\":6957:7024   */\n      tag_280\n      jump\t// in\n    tag_307:\n        /* \"#utility.yul\":6950:7024   */\n      swap2\n      pop\n        /* \"#utility.yul\":7033:7126   */\n      tag_308\n        /* \"#utility.yul\":7122:7125   */\n      dup3\n        /* \"#utility.yul\":7033:7126   */\n      tag_309\n      jump\t// in\n    tag_308:\n        /* \"#utility.yul\":7151:7153   */\n      0x20\n        /* \"#utility.yul\":7146:7149   */\n      dup3\n        /* \"#utility.yul\":7142:7154   */\n      add\n        /* \"#utility.yul\":7135:7154   */\n      swap1\n      pop\n        /* \"#utility.yul\":6794:7160   */\n      swap2\n      swap1\n      pop\n      jump\t// out\n        /* \"#utility.yul\":7166:7532   */\n    tag_310:\n        /* \"#utility.yul\":7308:7311   */\n      0x00\n        /* \"#utility.yul\":7329:7396   */\n      tag_312\n        /* \"#utility.yul\":7393:7395   */\n      0x25\n        /* \"#utility.yul\":7388:7391   */\n      dup4\n        /* \"#utility.yul\":7329:7396   */\n      tag_280\n      jump\t// in\n    tag_312:\n        /* \"#utility.yul\":7322:7396   */\n      swap2\n      pop\n        /* \"#utility.yul\":7405:7498   */\n      tag_313\n        /* \"#utility.yul\":7494:7497   */\n      dup3\n        /* \"#utility.yul\":7405:7498   */\n      tag_314\n      jump\t// in\n    tag_313:\n        /* \"#utility.yul\":7523:7525   */\n      0x40\n        /* \"#utility.yul\":7518:7521   */\n      dup3\n        /* \"#utility.yul\":7514:7526   */\n      add\n        /* \"#utility.yul\":7507:7526   */\n      swap1\n      pop\n        /* \"#utility.yul\":7166:7532   */\n      swap2\n      swap1\n      pop\n      jump\t// out\n        /* \"#utility.yul\":7538:7904   */\n    tag_315:\n        /* \"#utility.yul\":7680:7683   */\n      0x00\n        /* \"#utility.yul\":7701:7768   */\n      tag_317\n        /* \"#utility.yul\":7765:7767   */\n      0x24\n        /* \"#utility.yul\":7760:7763   */\n      dup4\n        /* \"#utility.yul\":7701:7768   */\n      tag_280\n      jump\t// in\n    tag_317:\n        /* \"#utility.yul\":7694:7768   */\n      swap2\n      pop\n        /* \"#utility.yul\":7777:7870   */\n      tag_318\n        /* \"#utility.yul\":7866:7869   */\n      dup3\n        /* \"#utility.yul\":7777:7870   */\n      tag_319\n      jump\t// in\n    tag_318:\n        /* \"#utility.yul\":7895:7897   */\n      0x40\n        /* \"#utility.yul\":7890:7893   */\n      dup3\n        /* \"#utility.yul\":7886:7898   */\n      add\n        /* \"#utility.yul\":7879:7898   */\n      swap1\n      pop\n        /* \"#utility.yul\":7538:7904   */\n      swap2\n      swap1\n      pop\n      jump\t// out\n        /* \"#utility.yul\":7910:8276   */\n    tag_320:\n        /* \"#utility.yul\":8052:8055   */\n      0x00\n        /* \"#utility.yul\":8073:8140   */\n      tag_322\n        /* \"#utility.yul\":8137:8139   */\n      0x25\n        /* \"#utility.yul\":8132:8135   */\n      dup4\n        /* \"#utility.yul\":8073:8140   */\n      tag_280\n      jump\t// in\n    tag_322:\n        /* \"#utility.yul\":8066:8140   */\n      swap2\n      pop\n        /* \"#utility.yul\":8149:8242   */\n      tag_323\n        /* \"#utility.yul\":8238:8241   */\n      dup3\n        /* \"#utility.yul\":8149:8242   */\n      tag_324\n      jump\t// in\n    tag_323:\n        /* \"#utility.yul\":8267:8269   */\n      0x40\n        /* \"#utility.yul\":8262:8265   */\n      dup3\n        /* \"#utility.yul\":8258:8270   */\n      add\n        /* \"#utility.yul\":8251:8270   */\n      swap1\n      pop\n        /* \"#utility.yul\":7910:8276   */\n      swap2\n      swap1\n      pop\n      jump\t// out\n        /* \"#utility.yul\":8282:8400   */\n    tag_325:\n        /* \"#utility.yul\":8369:8393   */\n      tag_327\n        /* \"#utility.yul\":8387:8392   */\n      dup2\n        /* \"#utility.yul\":8369:8393   */\n      tag_328\n      jump\t// in\n    tag_327:\n        /* \"#utility.yul\":8364:8367   */\n      dup3\n        /* \"#utility.yul\":8357:8394   */\n      mstore\n        /* \"#utility.yul\":8282:8400   */\n      pop\n      pop\n      jump\t// out\n        /* \"#utility.yul\":8406:8518   */\n    tag_329:\n        /* \"#utility.yul\":8489:8511   */\n      tag_331\n        /* \"#utility.yul\":8505:8510   */\n      dup2\n        /* \"#utility.yul\":8489:8511   */\n      tag_332\n      jump\t// in\n    tag_331:\n        /* \"#utility.yul\":8484:8487   */\n      dup3\n        /* \"#utility.yul\":8477:8512   */\n      mstore\n        /* \"#utility.yul\":8406:8518   */\n      pop\n      pop\n      jump\t// out\n        /* \"#utility.yul\":8524:8746   */\n    tag_29:\n        /* \"#utility.yul\":8617:8621   */\n      0x00\n        /* \"#utility.yul\":8655:8657   */\n      0x20\n        /* \"#utility.yul\":8644:8653   */\n      dup3\n        /* \"#utility.yul\":8640:8658   */\n      add\n        /* \"#utility.yul\":8632:8658   */\n      swap1\n      pop\n        /* \"#utility.yul\":8668:8739   */\n      tag_334\n        /* \"#utility.yul\":8736:8737   */\n      0x00\n        /* \"#utility.yul\":8725:8734   */\n      dup4\n        /* \"#utility.yul\":8721:8738   */\n      add\n        /* \"#utility.yul\":8712:8718   */\n      dup5\n        /* \"#utility.yul\":8668:8739   */\n      tag_254\n      jump\t// in\n    tag_334:\n        /* \"#utility.yul\":8524:8746   */\n      swap3\n      swap2\n      pop\n      pop\n      jump\t// out\n        /* \"#utility.yul\":8752:9194   */\n    tag_103:\n        /* \"#utility.yul\":8901:8905   */\n      0x00\n        /* \"#utility.yul\":8939:8941   */\n      0x60\n        /* \"#utility.yul\":8928:8937   */\n      dup3\n        /* \"#utility.yul\":8924:8942   */\n      add\n        /* \"#utility.yul\":8916:8942   */\n      swap1\n      pop\n        /* \"#utility.yul\":8952:9023   */\n      tag_336\n        /* \"#utility.yul\":9020:9021   */\n      0x00\n        /* \"#utility.yul\":9009:9018   */\n      dup4\n        /* \"#utility.yul\":9005:9022   */\n      add\n        /* \"#utility.yul\":8996:9002   */\n      dup7\n        /* \"#utility.yul\":8952:9023   */\n      tag_254\n      jump\t// in\n    tag_336:\n        /* \"#utility.yul\":9033:9105   */\n      tag_337\n        /* \"#utility.yul\":9101:9103   */\n      0x20\n        /* \"#utility.yul\":9090:9099   */\n      dup4\n        /* \"#utility.yul\":9086:9104   */\n      add\n        /* \"#utility.yul\":9077:9083   */\n      dup6\n        /* \"#utility.yul\":9033:9105   */\n      tag_254\n      jump\t// in\n    tag_337:\n        /* \"#utility.yul\":9115:9187   */\n      tag_338\n        /* \"#utility.yul\":9183:9185   */\n      0x40\n        /* \"#utility.yul\":9172:9181   */\n      dup4\n        /* \"#utility.yul\":9168:9186   */\n      add\n        /* \"#utility.yul\":9159:9165   */\n      dup5\n        /* \"#utility.yul\":9115:9187   */\n      tag_325\n      jump\t// in\n    tag_338:\n        /* \"#utility.yul\":8752:9194   */\n      swap5\n      swap4\n      pop\n      pop\n      pop\n      pop\n      jump\t// out\n        /* \"#utility.yul\":9200:9813   */\n    tag_144:\n        /* \"#utility.yul\":9409:9413   */\n      0x00\n        /* \"#utility.yul\":9447:9449   */\n      0x60\n        /* \"#utility.yul\":9436:9445   */\n      dup3\n        /* \"#utility.yul\":9432:9450   */\n      add\n        /* \"#utility.yul\":9424:9450   */\n      swap1\n      pop\n        /* \"#utility.yul\":9460:9531   */\n      tag_340\n        /* \"#utility.yul\":9528:9529   */\n      0x00\n        /* \"#utility.yul\":9517:9526   */\n      dup4\n        /* \"#utility.yul\":9513:9530   */\n      add\n        /* \"#utility.yul\":9504:9510   */\n      dup8\n        /* \"#utility.yul\":9460:9531   */\n      tag_254\n      jump\t// in\n    tag_340:\n        /* \"#utility.yul\":9578:9587   */\n      dup2\n        /* \"#utility.yul\":9572:9576   */\n      dup2\n        /* \"#utility.yul\":9568:9588   */\n      sub\n        /* \"#utility.yul\":9563:9565   */\n      0x20\n        /* \"#utility.yul\":9552:9561   */\n      dup4\n        /* \"#utility.yul\":9548:9566   */\n      add\n        /* \"#utility.yul\":9541:9589   */\n      mstore\n        /* \"#utility.yul\":9606:9724   */\n      tag_341\n        /* \"#utility.yul\":9719:9723   */\n      dup2\n        /* \"#utility.yul\":9710:9716   */\n      dup6\n        /* \"#utility.yul\":9702:9708   */\n      dup8\n        /* \"#utility.yul\":9606:9724   */\n      tag_257\n      jump\t// in\n    tag_341:\n        /* \"#utility.yul\":9598:9724   */\n      swap1\n      pop\n        /* \"#utility.yul\":9734:9806   */\n      tag_342\n        /* \"#utility.yul\":9802:9804   */\n      0x40\n        /* \"#utility.yul\":9791:9800   */\n      dup4\n        /* \"#utility.yul\":9787:9805   */\n      add\n        /* \"#utility.yul\":9778:9784   */\n      dup5\n        /* \"#utility.yul\":9734:9806   */\n      tag_325\n      jump\t// in\n    tag_342:\n        /* \"#utility.yul\":9200:9813   */\n      swap6\n      swap5\n      pop\n      pop\n      pop\n      pop\n      pop\n      jump\t// out\n        /* \"#utility.yul\":9819:10029   */\n    tag_39:\n        /* \"#utility.yul\":9906:9910   */\n      0x00\n        /* \"#utility.yul\":9944:9946   */\n      0x20\n        /* \"#utility.yul\":9933:9942   */\n      dup3\n        /* \"#utility.yul\":9929:9947   */\n      add\n        /* \"#utility.yul\":9921:9947   */\n      swap1\n      pop\n        /* \"#utility.yul\":9957:10022   */\n      tag_344\n        /* \"#utility.yul\":10019:10020   */\n      0x00\n        /* \"#utility.yul\":10008:10017   */\n      dup4\n        /* \"#utility.yul\":10004:10021   */\n      add\n        /* \"#utility.yul\":9995:10001   */\n      dup5\n        /* \"#utility.yul\":9957:10022   */\n      tag_271\n      jump\t// in\n    tag_344:\n        /* \"#utility.yul\":9819:10029   */\n      swap3\n      swap2\n      pop\n      pop\n      jump\t// out\n        /* \"#utility.yul\":10035:10348   */\n    tag_25:\n        /* \"#utility.yul\":10148:10152   */\n      0x00\n        /* \"#utility.yul\":10186:10188   */\n      0x20\n        /* \"#utility.yul\":10175:10184   */\n      dup3\n        /* \"#utility.yul\":10171:10189   */\n      add\n        /* \"#utility.yul\":10163:10189   */\n      swap1\n      pop\n        /* \"#utility.yul\":10235:10244   */\n      dup2\n        /* \"#utility.yul\":10229:10233   */\n      dup2\n        /* \"#utility.yul\":10225:10245   */\n      sub\n        /* \"#utility.yul\":10221:10222   */\n      0x00\n        /* \"#utility.yul\":10210:10219   */\n      dup4\n        /* \"#utility.yul\":10206:10223   */\n      add\n        /* \"#utility.yul\":10199:10246   */\n      mstore\n        /* \"#utility.yul\":10263:10341   */\n      tag_346\n        /* \"#utility.yul\":10336:10340   */\n      dup2\n        /* \"#utility.yul\":10327:10333   */\n      dup5\n        /* \"#utility.yul\":10263:10341   */\n      tag_275\n      jump\t// in\n    tag_346:\n        /* \"#utility.yul\":10255:10341   */\n      swap1\n      pop\n        /* \"#utility.yul\":10035:10348   */\n      swap3\n      swap2\n      pop\n      pop\n      jump\t// out\n        /* \"#utility.yul\":10354:10773   */\n    tag_185:\n        /* \"#utility.yul\":10520:10524   */\n      0x00\n        /* \"#utility.yul\":10558:10560   */\n      0x20\n        /* \"#utility.yul\":10547:10556   */\n      dup3\n        /* \"#utility.yul\":10543:10561   */\n      add\n        /* \"#utility.yul\":10535:10561   */\n      swap1\n      pop\n        /* \"#utility.yul\":10607:10616   */\n      dup2\n        /* \"#utility.yul\":10601:10605   */\n      dup2\n        /* \"#utility.yul\":10597:10617   */\n      sub\n        /* \"#utility.yul\":10593:10594   */\n      0x00\n        /* \"#utility.yul\":10582:10591   */\n      dup4\n        /* \"#utility.yul\":10578:10595   */\n      add\n        /* \"#utility.yul\":10571:10618   */\n      mstore\n        /* \"#utility.yul\":10635:10766   */\n      tag_348\n        /* \"#utility.yul\":10761:10765   */\n      dup2\n        /* \"#utility.yul\":10635:10766   */\n      tag_285\n      jump\t// in\n    tag_348:\n        /* \"#utility.yul\":10627:10766   */\n      swap1\n      pop\n        /* \"#utility.yul\":10354:10773   */\n      swap2\n      swap1\n      pop\n      jump\t// out\n        /* \"#utility.yul\":10779:11198   */\n    tag_170:\n        /* \"#utility.yul\":10945:10949   */\n      0x00\n        /* \"#utility.yul\":10983:10985   */\n      0x20\n        /* \"#utility.yul\":10972:10981   */\n      dup3\n        /* \"#utility.yul\":10968:10986   */\n      add\n        /* \"#utility.yul\":10960:10986   */\n      swap1\n      pop\n        /* \"#utility.yul\":11032:11041   */\n      dup2\n        /* \"#utility.yul\":11026:11030   */\n      dup2\n        /* \"#utility.yul\":11022:11042   */\n      sub\n        /* \"#utility.yul\":11018:11019   */\n      0x00\n        /* \"#utility.yul\":11007:11016   */\n      dup4\n        /* \"#utility.yul\":11003:11020   */\n      add\n        /* \"#utility.yul\":10996:11043   */\n      mstore\n        /* \"#utility.yul\":11060:11191   */\n      tag_350\n        /* \"#utility.yul\":11186:11190   */\n      dup2\n        /* \"#utility.yul\":11060:11191   */\n      tag_290\n      jump\t// in\n    tag_350:\n        /* \"#utility.yul\":11052:11191   */\n      swap1\n      pop\n        /* \"#utility.yul\":10779:11198   */\n      swap2\n      swap1\n      pop\n      jump\t// out\n        /* \"#utility.yul\":11204:11623   */\n    tag_177:\n        /* \"#utility.yul\":11370:11374   */\n      0x00\n        /* \"#utility.yul\":11408:11410   */\n      0x20\n        /* \"#utility.yul\":11397:11406   */\n      dup3\n        /* \"#utility.yul\":11393:11411   */\n      add\n        /* \"#utility.yul\":11385:11411   */\n      swap1\n      pop\n        /* \"#utility.yul\":11457:11466   */\n      dup2\n        /* \"#utility.yul\":11451:11455   */\n      dup2\n        /* \"#utility.yul\":11447:11467   */\n      sub\n        /* \"#utility.yul\":11443:11444   */\n      0x00\n        /* \"#utility.yul\":11432:11441   */\n      dup4\n        /* \"#utility.yul\":11428:11445   */\n      add\n        /* \"#utility.yul\":11421:11468   */\n      mstore\n        /* \"#utility.yul\":11485:11616   */\n      tag_352\n        /* \"#utility.yul\":11611:11615   */\n      dup2\n        /* \"#utility.yul\":11485:11616   */\n      tag_295\n      jump\t// in\n    tag_352:\n        /* \"#utility.yul\":11477:11616   */\n      swap1\n      pop\n        /* \"#utility.yul\":11204:11623   */\n      swap2\n      swap1\n      pop\n      jump\t// out\n        /* \"#utility.yul\":11629:12048   */\n    tag_190:\n        /* \"#utility.yul\":11795:11799   */\n      0x00\n        /* \"#utility.yul\":11833:11835   */\n      0x20\n        /* \"#utility.yul\":11822:11831   */\n      dup3\n        /* \"#utility.yul\":11818:11836   */\n      add\n        /* \"#utility.yul\":11810:11836   */\n      swap1\n      pop\n        /* \"#utility.yul\":11882:11891   */\n      dup2\n        /* \"#utility.yul\":11876:11880   */\n      dup2\n        /* \"#utility.yul\":11872:11892   */\n      sub\n        /* \"#utility.yul\":11868:11869   */\n      0x00\n        /* \"#utility.yul\":11857:11866   */\n      dup4\n        /* \"#utility.yul\":11853:11870   */\n      add\n        /* \"#utility.yul\":11846:11893   */\n      mstore\n        /* \"#utility.yul\":11910:12041   */\n      tag_354\n        /* \"#utility.yul\":12036:12040   */\n      dup2\n        /* \"#utility.yul\":11910:12041   */\n      tag_300\n      jump\t// in\n    tag_354:\n        /* \"#utility.yul\":11902:12041   */\n      swap1\n      pop\n        /* \"#utility.yul\":11629:12048   */\n      swap2\n      swap1\n      pop\n      jump\t// out\n        /* \"#utility.yul\":12054:12473   */\n    tag_131:\n        /* \"#utility.yul\":12220:12224   */\n      0x00\n        /* \"#utility.yul\":12258:12260   */\n      0x20\n        /* \"#utility.yul\":12247:12256   */\n      dup3\n        /* \"#utility.yul\":12243:12261   */\n      add\n        /* \"#utility.yul\":12235:12261   */\n      swap1\n      pop\n        /* \"#utility.yul\":12307:12316   */\n      dup2\n        /* \"#utility.yul\":12301:12305   */\n      dup2\n        /* \"#utility.yul\":12297:12317   */\n      sub\n        /* \"#utility.yul\":12293:12294   */\n      0x00\n        /* \"#utility.yul\":12282:12291   */\n      dup4\n        /* \"#utility.yul\":12278:12295   */\n      add\n        /* \"#utility.yul\":12271:12318   */\n      mstore\n        /* \"#utility.yul\":12335:12466   */\n      tag_356\n        /* \"#utility.yul\":12461:12465   */\n      dup2\n        /* \"#utility.yul\":12335:12466   */\n      tag_305\n      jump\t// in\n    tag_356:\n        /* \"#utility.yul\":12327:12466   */\n      swap1\n      pop\n        /* \"#utility.yul\":12054:12473   */\n      swap2\n      swap1\n      pop\n      jump\t// out\n        /* \"#utility.yul\":12479:12898   */\n    tag_182:\n        /* \"#utility.yul\":12645:12649   */\n      0x00\n        /* \"#utility.yul\":12683:12685   */\n      0x20\n        /* \"#utility.yul\":12672:12681   */\n      dup3\n        /* \"#utility.yul\":12668:12686   */\n      add\n        /* \"#utility.yul\":12660:12686   */\n      swap1\n      pop\n        /* \"#utility.yul\":12732:12741   */\n      dup2\n        /* \"#utility.yul\":12726:12730   */\n      dup2\n        /* \"#utility.yul\":12722:12742   */\n      sub\n        /* \"#utility.yul\":12718:12719   */\n      0x00\n        /* \"#utility.yul\":12707:12716   */\n      dup4\n        /* \"#utility.yul\":12703:12720   */\n      add\n        /* \"#utility.yul\":12696:12743   */\n      mstore\n        /* \"#utility.yul\":12760:12891   */\n      tag_358\n        /* \"#utility.yul\":12886:12890   */\n      dup2\n        /* \"#utility.yul\":12760:12891   */\n      tag_310\n      jump\t// in\n    tag_358:\n        /* \"#utility.yul\":12752:12891   */\n      swap1\n      pop\n        /* \"#utility.yul\":12479:12898   */\n      swap2\n      swap1\n      pop\n      jump\t// out\n        /* \"#utility.yul\":12904:13323   */\n    tag_167:\n        /* \"#utility.yul\":13070:13074   */\n      0x00\n        /* \"#utility.yul\":13108:13110   */\n      0x20\n        /* \"#utility.yul\":13097:13106   */\n      dup3\n        /* \"#utility.yul\":13093:13111   */\n      add\n        /* \"#utility.yul\":13085:13111   */\n      swap1\n      pop\n        /* \"#utility.yul\":13157:13166   */\n      dup2\n        /* \"#utility.yul\":13151:13155   */\n      dup2\n        /* \"#utility.yul\":13147:13167   */\n      sub\n        /* \"#utility.yul\":13143:13144   */\n      0x00\n        /* \"#utility.yul\":13132:13141   */\n      dup4\n        /* \"#utility.yul\":13128:13145   */\n      add\n        /* \"#utility.yul\":13121:13168   */\n      mstore\n        /* \"#utility.yul\":13185:13316   */\n      tag_360\n        /* \"#utility.yul\":13311:13315   */\n      dup2\n        /* \"#utility.yul\":13185:13316   */\n      tag_315\n      jump\t// in\n    tag_360:\n        /* \"#utility.yul\":13177:13316   */\n      swap1\n      pop\n        /* \"#utility.yul\":12904:13323   */\n      swap2\n      swap1\n      pop\n      jump\t// out\n        /* \"#utility.yul\":13329:13748   */\n    tag_157:\n        /* \"#utility.yul\":13495:13499   */\n      0x00\n        /* \"#utility.yul\":13533:13535   */\n      0x20\n        /* \"#utility.yul\":13522:13531   */\n      dup3\n        /* \"#utility.yul\":13518:13536   */\n      add\n        /* \"#utility.yul\":13510:13536   */\n      swap1\n      pop\n        /* \"#utility.yul\":13582:13591   */\n      dup2\n        /* \"#utility.yul\":13576:13580   */\n      dup2\n        /* \"#utility.yul\":13572:13592   */\n      sub\n        /* \"#utility.yul\":13568:13569   */\n      0x00\n        /* \"#utility.yul\":13557:13566   */\n      dup4\n        /* \"#utility.yul\":13553:13570   */\n      add\n        /* \"#utility.yul\":13546:13593   */\n      mstore\n        /* \"#utility.yul\":13610:13741   */\n      tag_362\n        /* \"#utility.yul\":13736:13740   */\n      dup2\n        /* \"#utility.yul\":13610:13741   */\n      tag_320\n      jump\t// in\n    tag_362:\n        /* \"#utility.yul\":13602:13741   */\n      swap1\n      pop\n        /* \"#utility.yul\":13329:13748   */\n      swap2\n      swap1\n      pop\n      jump\t// out\n        /* \"#utility.yul\":13754:13976   */\n    tag_43:\n        /* \"#utility.yul\":13847:13851   */\n      0x00\n        /* \"#utility.yul\":13885:13887   */\n      0x20\n        /* \"#utility.yul\":13874:13883   */\n      dup3\n        /* \"#utility.yul\":13870:13888   */\n      add\n        /* \"#utility.yul\":13862:13888   */\n      swap1\n      pop\n        /* \"#utility.yul\":13898:13969   */\n      tag_364\n        /* \"#utility.yul\":13966:13967   */\n      0x00\n        /* \"#utility.yul\":13955:13964   */\n      dup4\n        /* \"#utility.yul\":13951:13968   */\n      add\n        /* \"#utility.yul\":13942:13948   */\n      dup5\n        /* \"#utility.yul\":13898:13969   */\n      tag_325\n      jump\t// in\n    tag_364:\n        /* \"#utility.yul\":13754:13976   */\n      swap3\n      swap2\n      pop\n      pop\n      jump\t// out\n        /* \"#utility.yul\":13982:14196   */\n    tag_56:\n        /* \"#utility.yul\":14071:14075   */\n      0x00\n        /* \"#utility.yul\":14109:14111   */\n      0x20\n        /* \"#utility.yul\":14098:14107   */\n      dup3\n        /* \"#utility.yul\":14094:14112   */\n      add\n        /* \"#utility.yul\":14086:14112   */\n      swap1\n      pop\n        /* \"#utility.yul\":14122:14189   */\n      tag_366\n        /* \"#utility.yul\":14186:14187   */\n      0x00\n        /* \"#utility.yul\":14175:14184   */\n      dup4\n        /* \"#utility.yul\":14171:14188   */\n      add\n        /* \"#utility.yul\":14162:14168   */\n      dup5\n        /* \"#utility.yul\":14122:14189   */\n      tag_329\n      jump\t// in\n    tag_366:\n        /* \"#utility.yul\":13982:14196   */\n      swap3\n      swap2\n      pop\n      pop\n      jump\t// out\n        /* \"#utility.yul\":14283:14385   */\n    tag_262:\n        /* \"#utility.yul\":14352:14356   */\n      0x00\n        /* \"#utility.yul\":14375:14378   */\n      dup2\n        /* \"#utility.yul\":14367:14378   */\n      swap1\n      pop\n        /* \"#utility.yul\":14283:14385   */\n      swap2\n      swap1\n      pop\n      jump\t// out\n        /* \"#utility.yul\":14391:14490   */\n    tag_278:\n        /* \"#utility.yul\":14443:14449   */\n      0x00\n        /* \"#utility.yul\":14477:14482   */\n      dup2\n        /* \"#utility.yul\":14471:14483   */\n      mload\n        /* \"#utility.yul\":14461:14483   */\n      swap1\n      pop\n        /* \"#utility.yul\":14391:14490   */\n      swap2\n      swap1\n      pop\n      jump\t// out\n        /* \"#utility.yul\":14496:14611   */\n    tag_270:\n        /* \"#utility.yul\":14568:14572   */\n      0x00\n        /* \"#utility.yul\":14600:14604   */\n      0x20\n        /* \"#utility.yul\":14595:14598   */\n      dup3\n        /* \"#utility.yul\":14591:14605   */\n      add\n        /* \"#utility.yul\":14583:14605   */\n      swap1\n      pop\n        /* \"#utility.yul\":14496:14611   */\n      swap2\n      swap1\n      pop\n      jump\t// out\n        /* \"#utility.yul\":14617:14801   */\n    tag_260:\n        /* \"#utility.yul\":14716:14727   */\n      0x00\n        /* \"#utility.yul\":14750:14756   */\n      dup3\n        /* \"#utility.yul\":14745:14748   */\n      dup3\n        /* \"#utility.yul\":14738:14757   */\n      mstore\n        /* \"#utility.yul\":14790:14794   */\n      0x20\n        /* \"#utility.yul\":14785:14788   */\n      dup3\n        /* \"#utility.yul\":14781:14795   */\n      add\n        /* \"#utility.yul\":14766:14795   */\n      swap1\n      pop\n        /* \"#utility.yul\":14617:14801   */\n      swap3\n      swap2\n      pop\n      pop\n      jump\t// out\n        /* \"#utility.yul\":14807:14976   */\n    tag_280:\n        /* \"#utility.yul\":14891:14902   */\n      0x00\n        /* \"#utility.yul\":14925:14931   */\n      dup3\n        /* \"#utility.yul\":14920:14923   */\n      dup3\n        /* \"#utility.yul\":14913:14932   */\n      mstore\n        /* \"#utility.yul\":14965:14969   */\n      0x20\n        /* \"#utility.yul\":14960:14963   */\n      dup3\n        /* \"#utility.yul\":14956:14970   */\n      add\n        /* \"#utility.yul\":14941:14970   */\n      swap1\n      pop\n        /* \"#utility.yul\":14807:14976   */\n      swap3\n      swap2\n      pop\n      pop\n      jump\t// out\n        /* \"#utility.yul\":14982:15104   */\n    tag_267:\n        /* \"#utility.yul\":15034:15039   */\n      0x00\n        /* \"#utility.yul\":15059:15098   */\n      tag_375\n        /* \"#utility.yul\":15094:15096   */\n      0x20\n        /* \"#utility.yul\":15089:15092   */\n      dup5\n        /* \"#utility.yul\":15085:15097   */\n      add\n        /* \"#utility.yul\":15080:15083   */\n      dup5\n        /* \"#utility.yul\":15059:15098   */\n      tag_198\n      jump\t// in\n    tag_375:\n        /* \"#utility.yul\":15050:15098   */\n      swap1\n      pop\n        /* \"#utility.yul\":14982:15104   */\n      swap3\n      swap2\n      pop\n      pop\n      jump\t// out\n        /* \"#utility.yul\":15110:15415   */\n    tag_101:\n        /* \"#utility.yul\":15150:15153   */\n      0x00\n        /* \"#utility.yul\":15169:15189   */\n      tag_377\n        /* \"#utility.yul\":15187:15188   */\n      dup3\n        /* \"#utility.yul\":15169:15189   */\n      tag_328\n      jump\t// in\n    tag_377:\n        /* \"#utility.yul\":15164:15189   */\n      swap2\n      pop\n        /* \"#utility.yul\":15203:15223   */\n      tag_378\n        /* \"#utility.yul\":15221:15222   */\n      dup4\n        /* \"#utility.yul\":15203:15223   */\n      tag_328\n      jump\t// in\n    tag_378:\n        /* \"#utility.yul\":15198:15223   */\n      swap3\n      pop\n        /* \"#utility.yul\":15357:15358   */\n      dup3\n        /* \"#utility.yul\":15289:15355   */\n      0xffffffffffffffffffffffffffffffffffffffffffffffffffffffffffffffff\n        /* \"#utility.yul\":15285:15359   */\n      sub\n        /* \"#utility.yul\":15282:15283   */\n      dup3\n        /* \"#utility.yul\":15279:15360   */\n      gt\n        /* \"#utility.yul\":15276:15383   */\n      iszero\n      tag_379\n      jumpi\n        /* \"#utility.yul\":15363:15381   */\n      tag_380\n      tag_381\n      jump\t// in\n    tag_380:\n        /* \"#utility.yul\":15276:15383   */\n    tag_379:\n        /* \"#utility.yul\":15407:15408   */\n      dup3\n        /* \"#utility.yul\":15404:15405   */\n      dup3\n        /* \"#utility.yul\":15400:15409   */\n      add\n        /* \"#utility.yul\":15393:15409   */\n      swap1\n      pop\n        /* \"#utility.yul\":15110:15415   */\n      swap3\n      swap2\n      pop\n      pop\n      jump\t// out\n        /* \"#utility.yul\":15421:15769   */\n    tag_128:\n        /* \"#utility.yul\":15461:15468   */\n      0x00\n        /* \"#utility.yul\":15484:15504   */\n      tag_383\n        /* \"#utility.yul\":15502:15503   */\n      dup3\n        /* \"#utility.yul\":15484:15504   */\n      tag_328\n      jump\t// in\n    tag_383:\n        /* \"#utility.yul\":15479:15504   */\n      swap2\n      pop\n        /* \"#utility.yul\":15518:15538   */\n      tag_384\n        /* \"#utility.yul\":15536:15537   */\n      dup4\n        /* \"#utility.yul\":15518:15538   */\n      tag_328\n      jump\t// in\n    tag_384:\n        /* \"#utility.yul\":15513:15538   */\n      swap3\n      pop\n        /* \"#utility.yul\":15706:15707   */\n      dup2\n        /* \"#utility.yul\":15638:15704   */\n      0xffffffffffffffffffffffffffffffffffffffffffffffffffffffffffffffff\n        /* \"#utility.yul\":15634:15708   */\n      div\n        /* \"#utility.yul\":15631:15632   */\n      dup4\n        /* \"#utility.yul\":15628:15709   */\n      gt\n        /* \"#utility.yul\":15623:15624   */\n      dup3\n        /* \"#utility.yul\":15616:15625   */\n      iszero\n        /* \"#utility.yul\":15609:15626   */\n      iszero\n        /* \"#utility.yul\":15605:15710   */\n      and\n        /* \"#utility.yul\":15602:15733   */\n      iszero\n      tag_385\n      jumpi\n        /* \"#utility.yul\":15713:15731   */\n      tag_386\n      tag_381\n      jump\t// in\n    tag_386:\n        /* \"#utility.yul\":15602:15733   */\n    tag_385:\n        /* \"#utility.yul\":15761:15762   */\n      dup3\n        /* \"#utility.yul\":15758:15759   */\n      dup3\n        /* \"#utility.yul\":15754:15763   */\n      mul\n        /* \"#utility.yul\":15743:15763   */\n      swap1\n      pop\n        /* \"#utility.yul\":15421:15769   */\n      swap3\n      swap2\n      pop\n      pop\n      jump\t// out\n        /* \"#utility.yul\":15775:15966   */\n    tag_99:\n        /* \"#utility.yul\":15815:15819   */\n      0x00\n        /* \"#utility.yul\":15835:15855   */\n      tag_388\n        /* \"#utility.yul\":15853:15854   */\n      dup3\n        /* \"#utility.yul\":15835:15855   */\n      tag_328\n      jump\t// in\n    tag_388:\n        /* \"#utility.yul\":15830:15855   */\n      swap2\n      pop\n        /* \"#utility.yul\":15869:15889   */\n      tag_389\n        /* \"#utility.yul\":15887:15888   */\n      dup4\n        /* \"#utility.yul\":15869:15889   */\n      tag_328\n      jump\t// in\n    tag_389:\n        /* \"#utility.yul\":15864:15889   */\n      swap3\n      pop\n        /* \"#utility.yul\":15908:15909   */\n      dup3\n        /* \"#utility.yul\":15905:15906   */\n      dup3\n        /* \"#utility.yul\":15902:15910   */\n      lt\n        /* \"#utility.yul\":15899:15933   */\n      iszero\n      tag_390\n      jumpi\n        /* \"#utility.yul\":15913:15931   */\n      tag_391\n      tag_381\n      jump\t// in\n    tag_391:\n        /* \"#utility.yul\":15899:15933   */\n    tag_390:\n        /* \"#utility.yul\":15958:15959   */\n      dup3\n        /* \"#utility.yul\":15955:15956   */\n      dup3\n        /* \"#utility.yul\":15951:15960   */\n      sub\n        /* \"#utility.yul\":15943:15960   */\n      swap1\n      pop\n        /* \"#utility.yul\":15775:15966   */\n      swap3\n      swap2\n      pop\n      pop\n      jump\t// out\n        /* \"#utility.yul\":15972:16068   */\n    tag_253:\n        /* \"#utility.yul\":16009:16016   */\n      0x00\n        /* \"#utility.yul\":16038:16062   */\n      tag_393\n        /* \"#utility.yul\":16056:16061   */\n      dup3\n        /* \"#utility.yul\":16038:16062   */\n      tag_394\n      jump\t// in\n    tag_393:\n        /* \"#utility.yul\":16027:16062   */\n      swap1\n      pop\n        /* \"#utility.yul\":15972:16068   */\n      swap2\n      swap1\n      pop\n      jump\t// out\n        /* \"#utility.yul\":16074:16164   */\n    tag_274:\n        /* \"#utility.yul\":16108:16115   */\n      0x00\n        /* \"#utility.yul\":16151:16156   */\n      dup2\n        /* \"#utility.yul\":16144:16157   */\n      iszero\n        /* \"#utility.yul\":16137:16158   */\n      iszero\n        /* \"#utility.yul\":16126:16158   */\n      swap1\n      pop\n        /* \"#utility.yul\":16074:16164   */\n      swap2\n      swap1\n      pop\n      jump\t// out\n        /* \"#utility.yul\":16170:16296   */\n    tag_394:\n        /* \"#utility.yul\":16207:16214   */\n      0x00\n        /* \"#utility.yul\":16247:16289   */\n      0xffffffffffffffffffffffffffffffffffffffff\n        /* \"#utility.yul\":16240:16245   */\n      dup3\n        /* \"#utility.yul\":16236:16290   */\n      and\n        /* \"#utility.yul\":16225:16290   */\n      swap1\n      pop\n        /* \"#utility.yul\":16170:16296   */\n      swap2\n      swap1\n      pop\n      jump\t// out\n        /* \"#utility.yul\":16302:16379   */\n    tag_328:\n        /* \"#utility.yul\":16339:16346   */\n      0x00\n        /* \"#utility.yul\":16368:16373   */\n      dup2\n        /* \"#utility.yul\":16357:16373   */\n      swap1\n      pop\n        /* \"#utility.yul\":16302:16379   */\n      swap2\n      swap1\n      pop\n      jump\t// out\n        /* \"#utility.yul\":16385:16471   */\n    tag_332:\n        /* \"#utility.yul\":16420:16427   */\n      0x00\n        /* \"#utility.yul\":16460:16464   */\n      0xff\n        /* \"#utility.yul\":16453:16458   */\n      dup3\n        /* \"#utility.yul\":16449:16465   */\n      and\n        /* \"#utility.yul\":16438:16465   */\n      swap1\n      pop\n        /* \"#utility.yul\":16385:16471   */\n      swap2\n      swap1\n      pop\n      jump\t// out\n        /* \"#utility.yul\":16477:16784   */\n    tag_282:\n        /* \"#utility.yul\":16545:16546   */\n      0x00\n        /* \"#utility.yul\":16555:16668   */\n    tag_400:\n        /* \"#utility.yul\":16569:16575   */\n      dup4\n        /* \"#utility.yul\":16566:16567   */\n      dup2\n        /* \"#utility.yul\":16563:16576   */\n      lt\n        /* \"#utility.yul\":16555:16668   */\n      iszero\n      tag_402\n      jumpi\n        /* \"#utility.yul\":16654:16655   */\n      dup1\n        /* \"#utility.yul\":16649:16652   */\n      dup3\n        /* \"#utility.yul\":16645:16656   */\n      add\n        /* \"#utility.yul\":16639:16657   */\n      mload\n        /* \"#utility.yul\":16635:16636   */\n      dup2\n        /* \"#utility.yul\":16630:16633   */\n      dup5\n        /* \"#utility.yul\":16626:16637   */\n      add\n        /* \"#utility.yul\":16619:16658   */\n      mstore\n        /* \"#utility.yul\":16591:16593   */\n      0x20\n        /* \"#utility.yul\":16588:16589   */\n      dup2\n        /* \"#utility.yul\":16584:16594   */\n      add\n        /* \"#utility.yul\":16579:16594   */\n      swap1\n      pop\n        /* \"#utility.yul\":16555:16668   */\n      jump(tag_400)\n    tag_402:\n        /* \"#utility.yul\":16686:16692   */\n      dup4\n        /* \"#utility.yul\":16683:16684   */\n      dup2\n        /* \"#utility.yul\":16680:16693   */\n      gt\n        /* \"#utility.yul\":16677:16778   */\n      iszero\n      tag_403\n      jumpi\n        /* \"#utility.yul\":16766:16767   */\n      0x00\n        /* \"#utility.yul\":16757:16763   */\n      dup5\n        /* \"#utility.yul\":16752:16755   */\n      dup5\n        /* \"#utility.yul\":16748:16764   */\n      add\n        /* \"#utility.yul\":16741:16768   */\n      mstore\n        /* \"#utility.yul\":16677:16778   */\n    tag_403:\n        /* \"#utility.yul\":16526:16784   */\n      pop\n        /* \"#utility.yul\":16477:16784   */\n      pop\n      pop\n      pop\n      jump\t// out\n        /* \"#utility.yul\":16790:17110   */\n    tag_90:\n        /* \"#utility.yul\":16834:16840   */\n      0x00\n        /* \"#utility.yul\":16871:16872   */\n      0x02\n        /* \"#utility.yul\":16865:16869   */\n      dup3\n        /* \"#utility.yul\":16861:16873   */\n      div\n        /* \"#utility.yul\":16851:16873   */\n      swap1\n      pop\n        /* \"#utility.yul\":16918:16919   */\n      0x01\n        /* \"#utility.yul\":16912:16916   */\n      dup3\n        /* \"#utility.yul\":16908:16920   */\n      and\n        /* \"#utility.yul\":16939:16957   */\n      dup1\n        /* \"#utility.yul\":16929:17010   */\n      tag_405\n      jumpi\n        /* \"#utility.yul\":16995:16999   */\n      0x7f\n        /* \"#utility.yul\":16987:16993   */\n      dup3\n        /* \"#utility.yul\":16983:17000   */\n      and\n        /* \"#utility.yul\":16973:17000   */\n      swap2\n      pop\n        /* \"#utility.yul\":16929:17010   */\n    tag_405:\n        /* \"#utility.yul\":17057:17059   */\n      0x20\n        /* \"#utility.yul\":17049:17055   */\n      dup3\n        /* \"#utility.yul\":17046:17060   */\n      lt\n        /* \"#utility.yul\":17026:17044   */\n      dup2\n        /* \"#utility.yul\":17023:17061   */\n      eq\n        /* \"#utility.yul\":17020:17104   */\n      iszero\n      tag_406\n      jumpi\n        /* \"#utility.yul\":17076:17094   */\n      tag_407\n      tag_408\n      jump\t// in\n    tag_407:\n        /* \"#utility.yul\":17020:17104   */\n    tag_406:\n        /* \"#utility.yul\":16841:17110   */\n      pop\n        /* \"#utility.yul\":16790:17110   */\n      swap2\n      swap1\n      pop\n      jump\t// out\n        /* \"#utility.yul\":17116:17349   */\n    tag_142:\n        /* \"#utility.yul\":17155:17158   */\n      0x00\n        /* \"#utility.yul\":17178:17202   */\n      tag_410\n        /* \"#utility.yul\":17196:17201   */\n      dup3\n        /* \"#utility.yul\":17178:17202   */\n      tag_328\n      jump\t// in\n    tag_410:\n        /* \"#utility.yul\":17169:17202   */\n      swap2\n      pop\n        /* \"#utility.yul\":17224:17290   */\n      0xffffffffffffffffffffffffffffffffffffffffffffffffffffffffffffffff\n        /* \"#utility.yul\":17217:17222   */\n      dup3\n        /* \"#utility.yul\":17214:17291   */\n      eq\n        /* \"#utility.yul\":17211:17314   */\n      iszero\n      tag_411\n      jumpi\n        /* \"#utility.yul\":17294:17312   */\n      tag_412\n      tag_381\n      jump\t// in\n    tag_412:\n        /* \"#utility.yul\":17211:17314   */\n    tag_411:\n        /* \"#utility.yul\":17341:17342   */\n      0x01\n        /* \"#utility.yul\":17334:17339   */\n      dup3\n        /* \"#utility.yul\":17330:17343   */\n      add\n        /* \"#utility.yul\":17323:17343   */\n      swap1\n      pop\n        /* \"#utility.yul\":17116:17349   */\n      swap2\n      swap1\n      pop\n      jump\t// out\n        /* \"#utility.yul\":17355:17535   */\n    tag_381:\n        /* \"#utility.yul\":17403:17480   */\n      0x4e487b7100000000000000000000000000000000000000000000000000000000\n        /* \"#utility.yul\":17400:17401   */\n      0x00\n        /* \"#utility.yul\":17393:17481   */\n      mstore\n        /* \"#utility.yul\":17500:17504   */\n      0x11\n        /* \"#utility.yul\":17497:17498   */\n      0x04\n        /* \"#utility.yul\":17490:17505   */\n      mstore\n        /* \"#utility.yul\":17524:17528   */\n      0x24\n        /* \"#utility.yul\":17521:17522   */\n      0x00\n        /* \"#utility.yul\":17514:17529   */\n      revert\n        /* \"#utility.yul\":17541:17721   */\n    tag_408:\n        /* \"#utility.yul\":17589:17666   */\n      0x4e487b7100000000000000000000000000000000000000000000000000000000\n        /* \"#utility.yul\":17586:17587   */\n      0x00\n        /* \"#utility.yul\":17579:17667   */\n      mstore\n        /* \"#utility.yul\":17686:17690   */\n      0x22\n        /* \"#utility.yul\":17683:17684   */\n      0x04\n        /* \"#utility.yul\":17676:17691   */\n      mstore\n        /* \"#utility.yul\":17710:17714   */\n      0x24\n        /* \"#utility.yul\":17707:17708   */\n      0x00\n        /* \"#utility.yul\":17700:17715   */\n      revert\n        /* \"#utility.yul\":17727:17907   */\n    tag_138:\n        /* \"#utility.yul\":17775:17852   */\n      0x4e487b7100000000000000000000000000000000000000000000000000000000\n        /* \"#utility.yul\":17772:17773   */\n      0x00\n        /* \"#utility.yul\":17765:17853   */\n      mstore\n        /* \"#utility.yul\":17872:17876   */\n      0x32\n        /* \"#utility.yul\":17869:17870   */\n      0x04\n        /* \"#utility.yul\":17862:17877   */\n      mstore\n        /* \"#utility.yul\":17896:17900   */\n      0x24\n        /* \"#utility.yul\":17893:17894   */\n      0x00\n        /* \"#utility.yul\":17886:17901   */\n      revert\n        /* \"#utility.yul\":17913:18030   */\n    tag_209:\n        /* \"#utility.yul\":18022:18023   */\n      0x00\n        /* \"#utility.yul\":18019:18020   */\n      dup1\n        /* \"#utility.yul\":18012:18024   */\n      revert\n        /* \"#utility.yul\":18036:18153   */\n    tag_206:\n        /* \"#utility.yul\":18145:18146   */\n      0x00\n        /* \"#utility.yul\":18142:18143   */\n      dup1\n        /* \"#utility.yul\":18135:18147   */\n      revert\n        /* \"#utility.yul\":18159:18276   */\n    tag_212:\n        /* \"#utility.yul\":18268:18269   */\n      0x00\n        /* \"#utility.yul\":18265:18266   */\n      dup1\n        /* \"#utility.yul\":18258:18270   */\n      revert\n        /* \"#utility.yul\":18282:18399   */\n    tag_239:\n        /* \"#utility.yul\":18391:18392   */\n      0x00\n        /* \"#utility.yul\":18388:18389   */\n      dup1\n        /* \"#utility.yul\":18381:18393   */\n      revert\n        /* \"#utility.yul\":18405:18522   */\n    tag_220:\n        /* \"#utility.yul\":18514:18515   */\n      0x00\n        /* \"#utility.yul\":18511:18512   */\n      dup1\n        /* \"#utility.yul\":18504:18516   */\n      revert\n        /* \"#utility.yul\":18528:18630   */\n    tag_284:\n        /* \"#utility.yul\":18569:18575   */\n      0x00\n        /* \"#utility.yul\":18620:18622   */\n      0x1f\n        /* \"#utility.yul\":18616:18623   */\n      not\n        /* \"#utility.yul\":18611:18613   */\n      0x1f\n        /* \"#utility.yul\":18604:18609   */\n      dup4\n        /* \"#utility.yul\":18600:18614   */\n      add\n        /* \"#utility.yul\":18596:18624   */\n      and\n        /* \"#utility.yul\":18586:18624   */\n      swap1\n      pop\n        /* \"#utility.yul\":18528:18630   */\n      swap2\n      swap1\n      pop\n      jump\t// out\n        /* \"#utility.yul\":18636:18858   */\n    tag_289:\n        /* \"#utility.yul\":18776:18810   */\n      0x45524332303a207472616e7366657220746f20746865207a65726f2061646472\n        /* \"#utility.yul\":18772:18773   */\n      0x00\n        /* \"#utility.yul\":18764:18770   */\n      dup3\n        /* \"#utility.yul\":18760:18774   */\n      add\n        /* \"#utility.yul\":18753:18811   */\n      mstore\n        /* \"#utility.yul\":18845:18850   */\n      0x6573730000000000000000000000000000000000000000000000000000000000\n        /* \"#utility.yul\":18840:18842   */\n      0x20\n        /* \"#utility.yul\":18832:18838   */\n      dup3\n        /* \"#utility.yul\":18828:18843   */\n      add\n        /* \"#utility.yul\":18821:18851   */\n      mstore\n        /* \"#utility.yul\":18636:18858   */\n      pop\n      jump\t// out\n        /* \"#utility.yul\":18864:19085   */\n    tag_294:\n        /* \"#utility.yul\":19004:19038   */\n      0x45524332303a20617070726f766520746f20746865207a65726f206164647265\n        /* \"#utility.yul\":19000:19001   */\n      0x00\n        /* \"#utility.yul\":18992:18998   */\n      dup3\n        /* \"#utility.yul\":18988:19002   */\n      add\n        /* \"#utility.yul\":18981:19039   */\n      mstore\n        /* \"#utility.yul\":19073:19077   */\n      0x7373000000000000000000000000000000000000000000000000000000000000\n        /* \"#utility.yul\":19068:19070   */\n      0x20\n        /* \"#utility.yul\":19060:19066   */\n      dup3\n        /* \"#utility.yul\":19056:19071   */\n      add\n        /* \"#utility.yul\":19049:19078   */\n      mstore\n        /* \"#utility.yul\":18864:19085   */\n      pop\n      jump\t// out\n        /* \"#utility.yul\":19091:19270   */\n    tag_299:\n        /* \"#utility.yul\":19231:19262   */\n      0x45524332303a20696e73756666696369656e7420616c6c6f77616e6365000000\n        /* \"#utility.yul\":19227:19228   */\n      0x00\n        /* \"#utility.yul\":19219:19225   */\n      dup3\n        /* \"#utility.yul\":19215:19229   */\n      add\n        /* \"#utility.yul\":19208:19263   */\n      mstore\n        /* \"#utility.yul\":19091:19270   */\n      pop\n      jump\t// out\n        /* \"#utility.yul\":19276:19501   */\n    tag_304:\n        /* \"#utility.yul\":19416:19450   */\n      0x45524332303a207472616e7366657220616d6f756e7420657863656564732062\n        /* \"#utility.yul\":19412:19413   */\n      0x00\n        /* \"#utility.yul\":19404:19410   */\n      dup3\n        /* \"#utility.yul\":19400:19414   */\n      add\n        /* \"#utility.yul\":19393:19451   */\n      mstore\n        /* \"#utility.yul\":19485:19493   */\n      0x616c616e63650000000000000000000000000000000000000000000000000000\n        /* \"#utility.yul\":19480:19482   */\n      0x20\n        /* \"#utility.yul\":19472:19478   */\n      dup3\n        /* \"#utility.yul\":19468:19483   */\n      add\n        /* \"#utility.yul\":19461:19494   */\n      mstore\n        /* \"#utility.yul\":19276:19501   */\n      pop\n      jump\t// out\n        /* \"#utility.yul\":19507:19678   */\n    tag_309:\n        /* \"#utility.yul\":19647:19670   */\n      0x496e73756666696369656e742062616c616e63652e0000000000000000000000\n        /* \"#utility.yul\":19643:19644   */\n      0x00\n        /* \"#utility.yul\":19635:19641   */\n      dup3\n        /* \"#utility.yul\":19631:19645   */\n      add\n        /* \"#utility.yul\":19624:19671   */\n      mstore\n        /* \"#utility.yul\":19507:19678   */\n      pop\n      jump\t// out\n        /* \"#utility.yul\":19684:19908   */\n    tag_314:\n        /* \"#utility.yul\":19824:19858   */\n      0x45524332303a207472616e736665722066726f6d20746865207a65726f206164\n        /* \"#utility.yul\":19820:19821   */\n      0x00\n        /* \"#utility.yul\":19812:19818   */\n      dup3\n        /* \"#utility.yul\":19808:19822   */\n      add\n        /* \"#utility.yul\":19801:19859   */\n      mstore\n        /* \"#utility.yul\":19893:19900   */\n      0x6472657373000000000000000000000000000000000000000000000000000000\n        /* \"#utility.yul\":19888:19890   */\n      0x20\n        /* \"#utility.yul\":19880:19886   */\n      dup3\n        /* \"#utility.yul\":19876:19891   */\n      add\n        /* \"#utility.yul\":19869:19901   */\n      mstore\n        /* \"#utility.yul\":19684:19908   */\n      pop\n      jump\t// out\n        /* \"#utility.yul\":19914:20137   */\n    tag_319:\n        /* \"#utility.yul\":20054:20088   */\n      0x45524332303a20617070726f76652066726f6d20746865207a65726f20616464\n        /* \"#utility.yul\":20050:20051   */\n      0x00\n        /* \"#utility.yul\":20042:20048   */\n      dup3\n        /* \"#utility.yul\":20038:20052   */\n      add\n        /* \"#utility.yul\":20031:20089   */\n      mstore\n        /* \"#utility.yul\":20123:20129   */\n      0x7265737300000000000000000000000000000000000000000000000000000000\n        /* \"#utility.yul\":20118:20120   */\n      0x20\n        /* \"#utility.yul\":20110:20116   */\n      dup3\n        /* \"#utility.yul\":20106:20121   */\n      add\n        /* \"#utility.yul\":20099:20130   */\n      mstore\n        /* \"#utility.yul\":19914:20137   */\n      pop\n      jump\t// out\n        /* \"#utility.yul\":20143:20367   */\n    tag_324:\n        /* \"#utility.yul\":20283:20317   */\n      0x45524332303a2064656372656173656420616c6c6f77616e63652062656c6f77\n        /* \"#utility.yul\":20279:20280   */\n      0x00\n        /* \"#utility.yul\":20271:20277   */\n      dup3\n        /* \"#utility.yul\":20267:20281   */\n      add\n        /* \"#utility.yul\":20260:20318   */\n      mstore\n        /* \"#utility.yul\":20352:20359   */\n      0x207a65726f000000000000000000000000000000000000000000000000000000\n        /* \"#utility.yul\":20347:20349   */\n      0x20\n        /* \"#utility.yul\":20339:20345   */\n      dup3\n        /* \"#utility.yul\":20335:20350   */\n      add\n        /* \"#utility.yul\":20328:20360   */\n      mstore\n        /* \"#utility.yul\":20143:20367   */\n      pop\n      jump\t// out\n        /* \"#utility.yul\":20373:20495   */\n    tag_201:\n        /* \"#utility.yul\":20446:20470   */\n      tag_431\n        /* \"#utility.yul\":20464:20469   */\n      dup2\n        /* \"#utility.yul\":20446:20470   */\n      tag_253\n      jump\t// in\n    tag_431:\n        /* \"#utility.yul\":20439:20444   */\n      dup2\n        /* \"#utility.yul\":20436:20471   */\n      eq\n        /* \"#utility.yul\":20426:20489   */\n      tag_432\n      jumpi\n        /* \"#utility.yul\":20485:20486   */\n      0x00\n        /* \"#utility.yul\":20482:20483   */\n      dup1\n        /* \"#utility.yul\":20475:20487   */\n      revert\n        /* \"#utility.yul\":20426:20489   */\n    tag_432:\n        /* \"#utility.yul\":20373:20495   */\n      pop\n      jump\t// out\n        /* \"#utility.yul\":20501:20623   */\n    tag_216:\n        /* \"#utility.yul\":20574:20598   */\n      tag_434\n        /* \"#utility.yul\":20592:20597   */\n      dup2\n        /* \"#utility.yul\":20574:20598   */\n      tag_328\n      jump\t// in\n    tag_434:\n        /* \"#utility.yul\":20567:20572   */\n      dup2\n        /* \"#utility.yul\":20564:20599   */\n      eq\n        /* \"#utility.yul\":20554:20617   */\n      tag_435\n      jumpi\n        /* \"#utility.yul\":20613:20614   */\n      0x00\n        /* \"#utility.yul\":20610:20611   */\n      dup1\n        /* \"#utility.yul\":20603:20615   */\n      revert\n        /* \"#utility.yul\":20554:20617   */\n    tag_435:\n        /* \"#utility.yul\":20501:20623   */\n      pop\n      jump\t// out\n\n    auxdata: 0xa2646970667358221220225fc7788761d70c99712d7ac5ed58c3965a55bbf124422e351de9c8f242164764736f6c63430008070033\n}\n",
				"bytecode": {
					"linkReferences": {},
					"object": "60806040523480156200001157600080fd5b506040518060400160405280600b81526020017f4d6f66667520546f6b656e0000000000000000000000000000000000000000008152506040518060400160405280600381526020017f4d4655000000000000000000000000000000000000000000000000000000000081525081600390805190602001906200009692919062000299565b508060049080519060200190620000af92919062000299565b505050620000cf336a084595161401484a0000006200011660201b60201c565b33600560006101000a81548173ffffffffffffffffffffffffffffffffffffffff021916908373ffffffffffffffffffffffffffffffffffffffff160217905550620004f5565b600073ffffffffffffffffffffffffffffffffffffffff168273ffffffffffffffffffffffffffffffffffffffff16141562000189576040517f08c379a0000000000000000000000000000000000000000000000000000000008152600401620001809062000381565b60405180910390fd5b6200019d600083836200028f60201b60201c565b8060026000828254620001b19190620003d1565b92505081905550806000808473ffffffffffffffffffffffffffffffffffffffff1673ffffffffffffffffffffffffffffffffffffffff1681526020019081526020016000206000828254620002089190620003d1565b925050819055508173ffffffffffffffffffffffffffffffffffffffff16600073ffffffffffffffffffffffffffffffffffffffff167fddf252ad1be2c89b69c2b068fc378daa952ba7f163c4a11628f55a4df523b3ef836040516200026f9190620003a3565b60405180910390a36200028b600083836200029460201b60201c565b5050565b505050565b505050565b828054620002a79062000438565b90600052602060002090601f016020900481019282620002cb576000855562000317565b82601f10620002e657805160ff191683800117855562000317565b8280016001018555821562000317579182015b8281111562000316578251825591602001919060010190620002f9565b5b5090506200032691906200032a565b5090565b5b80821115620003455760008160009055506001016200032b565b5090565b600062000358601f83620003c0565b91506200036582620004cc565b602082019050919050565b6200037b816200042e565b82525050565b600060208201905081810360008301526200039c8162000349565b9050919050565b6000602082019050620003ba600083018462000370565b92915050565b600082825260208201905092915050565b6000620003de826200042e565b9150620003eb836200042e565b9250827fffffffffffffffffffffffffffffffffffffffffffffffffffffffffffffffff038211156200042357620004226200046e565b5b828201905092915050565b6000819050919050565b600060028204905060018216806200045157607f821691505b602082108114156200046857620004676200049d565b5b50919050565b7f4e487b7100000000000000000000000000000000000000000000000000000000600052601160045260246000fd5b7f4e487b7100000000000000000000000000000000000000000000000000000000600052602260045260246000fd5b7f45524332303a206d696e7420746f20746865207a65726f206164647265737300600082015250565b611b8d80620005056000396000f3fe608060405234801561001057600080fd5b50600436106101005760003560e01c8063395093511161009757806395d89b411161006657806395d89b41146102c1578063a457c2d7146102df578063a9059cbb1461030f578063dd62ed3e1461033f57610100565b8063395093511461022957806340c10f19146102595780635b2a0e961461027557806370a082311461029157610100565b806318160ddd116100d357806318160ddd1461018d57806323b872dd146101ab57806327e235e3146101db578063313ce5671461020b57610100565b806306fdde031461010557806307546172146101235780630779afe614610141578063095ea7b31461015d575b600080fd5b61010d61036f565b60405161011a91906114ac565b60405180910390f35b61012b610401565b60405161013891906113ff565b60405180910390f35b61015b600480360381019061015691906110e7565b610427565b005b610177600480360381019061017291906111ae565b6105c0565b6040516101849190611491565b60405180910390f35b6101956105e3565b6040516101a291906115ce565b60405180910390f35b6101c560048036038101906101c091906110e7565b6105ed565b6040516101d29190611491565b60405180910390f35b6101f560048036038101906101f0919061107a565b61061c565b60405161020291906115ce565b60405180910390f35b610213610634565b60405161022091906115e9565b60405180910390f35b610243600480360381019061023e91906111ae565b61063d565b6040516102509190611491565b60405180910390f35b610273600480360381019061026e91906111ae565b610674565b005b61028f600480360381019061028a919061113a565b61074d565b005b6102ab60048036038101906102a6919061107a565b610915565b6040516102b891906115ce565b60405180910390f35b6102c961095d565b6040516102d691906114ac565b60405180910390f35b6102f960048036038101906102f491906111ae565b6109ef565b6040516103069190611491565b60405180910390f35b610329600480360381019061032491906111ae565b610a66565b6040516103369190611491565b60405180910390f35b610359600480360381019061035491906110a7565b610a89565b60405161036691906115ce565b60405180910390f35b60606003805461037e906117cb565b80601f01602080910402602001604051908101604052809291908181526020018280546103aa906117cb565b80156103f75780601f106103cc576101008083540402835291602001916103f7565b820191906000526020600020905b8154815290600101906020018083116103da57829003601f168201915b5050505050905090565b600560009054906101000a900473ffffffffffffffffffffffffffffffffffffffff1681565b7ff0ed029e274dabb7636aeed7333cf47bc8c97dd6eb6d8faea6e9bfbd6620bebe8160405161045691906115ce565b60405180910390a17ff0ed029e274dabb7636aeed7333cf47bc8c97dd6eb6d8faea6e9bfbd6620bebe600660008573ffffffffffffffffffffffffffffffffffffffff1673ffffffffffffffffffffffffffffffffffffffff168152602001908152602001600020546040516104cc91906115ce565b60405180910390a180600660008573ffffffffffffffffffffffffffffffffffffffff1673ffffffffffffffffffffffffffffffffffffffff1681526020019081526020016000206000828254610523919061170f565b9250508190555080600660008473ffffffffffffffffffffffffffffffffffffffff1673ffffffffffffffffffffffffffffffffffffffff1681526020019081526020016000206000828254610579919061165f565b925050819055507ff91179ed40193440f3f022c5755e0fc1c4b1fb78b129dd47b3c465276c070fd38383836040516105b39392919061141a565b60405180910390a1505050565b6000806105cb610b10565b90506105d8818585610b18565b600191505092915050565b6000600254905090565b6000806105f8610b10565b9050610605858285610ce3565b610610858585610d6f565b60019150509392505050565b60066020528060005260406000206000915090505481565b60006012905090565b600080610648610b10565b905061066981858561065a8589610a89565b610664919061165f565b610b18565b600191505092915050565b600560009054906101000a900473ffffffffffffffffffffffffffffffffffffffff1673ffffffffffffffffffffffffffffffffffffffff163373ffffffffffffffffffffffffffffffffffffffff16146106ce57600080fd5b789f4f2726179a224501d762422c946590d9100000000000000081106106f357600080fd5b80600660008473ffffffffffffffffffffffffffffffffffffffff1673ffffffffffffffffffffffffffffffffffffffff1681526020019081526020016000206000828254610742919061165f565b925050819055505050565b600660008573ffffffffffffffffffffffffffffffffffffffff1673ffffffffffffffffffffffffffffffffffffffff16815260200190815260200160002054838390508261079c91906116b5565b11156107dd576040517f08c379a00000000000000000000000000000000000000000000000000000000081526004016107d49061154e565b60405180910390fd5b60005b838390508110156108d15781600660008773ffffffffffffffffffffffffffffffffffffffff1673ffffffffffffffffffffffffffffffffffffffff168152602001908152602001600020600082825461083a919061170f565b925050819055508160066000868685818110610859576108586118a4565b5b905060200201602081019061086e919061107a565b73ffffffffffffffffffffffffffffffffffffffff1673ffffffffffffffffffffffffffffffffffffffff16815260200190815260200160002060008282546108b7919061165f565b9250508190555080806108c9906117fd565b9150506107e0565b507fd33af69e2bdb37dfd3a759e5a2bc0f70e1976336b64f9eb59c9814d3f5d238e0848484846040516109079493929190611451565b60405180910390a150505050565b60008060008373ffffffffffffffffffffffffffffffffffffffff1673ffffffffffffffffffffffffffffffffffffffff168152602001908152602001600020549050919050565b60606004805461096c906117cb565b80601f0160208091040260200160405190810160405280929190818152602001828054610998906117cb565b80156109e55780601f106109ba576101008083540402835291602001916109e5565b820191906000526020600020905b8154815290600101906020018083116109c857829003601f168201915b5050505050905090565b6000806109fa610b10565b90506000610a088286610a89565b905083811015610a4d576040517f08c379a0000000000000000000000000000000000000000000000000000000008152600401610a44906115ae565b60405180910390fd5b610a5a8286868403610b18565b60019250505092915050565b600080610a71610b10565b9050610a7e818585610d6f565b600191505092915050565b6000600160008473ffffffffffffffffffffffffffffffffffffffff1673ffffffffffffffffffffffffffffffffffffffff16815260200190815260200160002060008373ffffffffffffffffffffffffffffffffffffffff1673ffffffffffffffffffffffffffffffffffffffff16815260200190815260200160002054905092915050565b600033905090565b600073ffffffffffffffffffffffffffffffffffffffff168373ffffffffffffffffffffffffffffffffffffffff161415610b88576040517f08c379a0000000000000000000000000000000000000000000000000000000008152600401610b7f9061158e565b60405180910390fd5b600073ffffffffffffffffffffffffffffffffffffffff168273ffffffffffffffffffffffffffffffffffffffff161415610bf8576040517f08c379a0000000000000000000000000000000000000000000000000000000008152600401610bef906114ee565b60405180910390fd5b80600160008573ffffffffffffffffffffffffffffffffffffffff1673ffffffffffffffffffffffffffffffffffffffff16815260200190815260200160002060008473ffffffffffffffffffffffffffffffffffffffff1673ffffffffffffffffffffffffffffffffffffffff168152602001908152602001600020819055508173ffffffffffffffffffffffffffffffffffffffff168373ffffffffffffffffffffffffffffffffffffffff167f8c5be1e5ebec7d5bd14f71427d1e84f3dd0314c0f7b2291e5b200ac8c7c3b92583604051610cd691906115ce565b60405180910390a3505050565b6000610cef8484610a89565b90507fffffffffffffffffffffffffffffffffffffffffffffffffffffffffffffffff8114610d695781811015610d5b576040517f08c379a0000000000000000000000000000000000000000000000000000000008152600401610d529061150e565b60405180910390fd5b610d688484848403610b18565b5b50505050565b600073ffffffffffffffffffffffffffffffffffffffff168373ffffffffffffffffffffffffffffffffffffffff161415610ddf576040517f08c379a0000000000000000000000000000000000000000000000000000000008152600401610dd69061156e565b60405180910390fd5b600073ffffffffffffffffffffffffffffffffffffffff168273ffffffffffffffffffffffffffffffffffffffff161415610e4f576040517f08c379a0000000000000000000000000000000000000000000000000000000008152600401610e46906114ce565b60405180910390fd5b610e5a838383610ff0565b60008060008573ffffffffffffffffffffffffffffffffffffffff1673ffffffffffffffffffffffffffffffffffffffff16815260200190815260200160002054905081811015610ee0576040517f08c379a0000000000000000000000000000000000000000000000000000000008152600401610ed79061152e565b60405180910390fd5b8181036000808673ffffffffffffffffffffffffffffffffffffffff1673ffffffffffffffffffffffffffffffffffffffff16815260200190815260200160002081905550816000808573ffffffffffffffffffffffffffffffffffffffff1673ffffffffffffffffffffffffffffffffffffffff1681526020019081526020016000206000828254610f73919061165f565b925050819055508273ffffffffffffffffffffffffffffffffffffffff168473ffffffffffffffffffffffffffffffffffffffff167fddf252ad1be2c89b69c2b068fc378daa952ba7f163c4a11628f55a4df523b3ef84604051610fd791906115ce565b60405180910390a3610fea848484610ff5565b50505050565b505050565b505050565b60008135905061100981611b29565b92915050565b60008083601f840112611025576110246118d8565b5b8235905067ffffffffffffffff811115611042576110416118d3565b5b60208301915083602082028301111561105e5761105d6118dd565b5b9250929050565b60008135905061107481611b40565b92915050565b6000602082840312156110905761108f6118e7565b5b600061109e84828501610ffa565b91505092915050565b600080604083850312156110be576110bd6118e7565b5b60006110cc85828601610ffa565b92505060206110dd85828601610ffa565b9150509250929050565b600080600060608486031215611100576110ff6118e7565b5b600061110e86828701610ffa565b935050602061111f86828701610ffa565b925050604061113086828701611065565b9150509250925092565b60008060008060608587031215611154576111536118e7565b5b600061116287828801610ffa565b945050602085013567ffffffffffffffff811115611183576111826118e2565b5b61118f8782880161100f565b935093505060406111a287828801611065565b91505092959194509250565b600080604083850312156111c5576111c46118e7565b5b60006111d385828601610ffa565b92505060206111e485828601611065565b9150509250929050565b60006111fa8383611206565b60208301905092915050565b61120f81611743565b82525050565b61121e81611743565b82525050565b60006112308385611626565b935061123b82611604565b8060005b85811015611274576112518284611648565b61125b88826111ee565b975061126683611619565b92505060018101905061123f565b5085925050509392505050565b61128a81611755565b82525050565b600061129b8261160e565b6112a58185611637565b93506112b5818560208601611798565b6112be816118ec565b840191505092915050565b60006112d6602383611637565b91506112e1826118fd565b604082019050919050565b60006112f9602283611637565b91506113048261194c565b604082019050919050565b600061131c601d83611637565b91506113278261199b565b602082019050919050565b600061133f602683611637565b915061134a826119c4565b604082019050919050565b6000611362601583611637565b915061136d82611a13565b602082019050919050565b6000611385602583611637565b915061139082611a3c565b604082019050919050565b60006113a8602483611637565b91506113b382611a8b565b604082019050919050565b60006113cb602583611637565b91506113d682611ada565b604082019050919050565b6113ea81611781565b82525050565b6113f98161178b565b82525050565b60006020820190506114146000830184611215565b92915050565b600060608201905061142f6000830186611215565b61143c6020830185611215565b61144960408301846113e1565b949350505050565b60006060820190506114666000830187611215565b8181036020830152611479818587611224565b905061148860408301846113e1565b95945050505050565b60006020820190506114a66000830184611281565b92915050565b600060208201905081810360008301526114c68184611290565b905092915050565b600060208201905081810360008301526114e7816112c9565b9050919050565b60006020820190508181036000830152611507816112ec565b9050919050565b600060208201905081810360008301526115278161130f565b9050919050565b6000602082019050818103600083015261154781611332565b9050919050565b6000602082019050818103600083015261156781611355565b9050919050565b6000602082019050818103600083015261158781611378565b9050919050565b600060208201905081810360008301526115a78161139b565b9050919050565b600060208201905081810360008301526115c7816113be565b9050919050565b60006020820190506115e360008301846113e1565b92915050565b60006020820190506115fe60008301846113f0565b92915050565b6000819050919050565b600081519050919050565b6000602082019050919050565b600082825260208201905092915050565b600082825260208201905092915050565b60006116576020840184610ffa565b905092915050565b600061166a82611781565b915061167583611781565b9250827fffffffffffffffffffffffffffffffffffffffffffffffffffffffffffffffff038211156116aa576116a9611846565b5b828201905092915050565b60006116c082611781565b91506116cb83611781565b9250817fffffffffffffffffffffffffffffffffffffffffffffffffffffffffffffffff048311821515161561170457611703611846565b5b828202905092915050565b600061171a82611781565b915061172583611781565b92508282101561173857611737611846565b5b828203905092915050565b600061174e82611761565b9050919050565b60008115159050919050565b600073ffffffffffffffffffffffffffffffffffffffff82169050919050565b6000819050919050565b600060ff82169050919050565b60005b838110156117b657808201518184015260208101905061179b565b838111156117c5576000848401525b50505050565b600060028204905060018216806117e357607f821691505b602082108114156117f7576117f6611875565b5b50919050565b600061180882611781565b91507fffffffffffffffffffffffffffffffffffffffffffffffffffffffffffffffff82141561183b5761183a611846565b5b600182019050919050565b7f4e487b7100000000000000000000000000000000000000000000000000000000600052601160045260246000fd5b7f4e487b7100000000000000000000000000000000000000000000000000000000600052602260045260246000fd5b7f4e487b7100000000000000000000000000000000000000000000000000000000600052603260045260246000fd5b600080fd5b600080fd5b600080fd5b600080fd5b600080fd5b6000601f19601f8301169050919050565b7f45524332303a207472616e7366657220746f20746865207a65726f206164647260008201527f6573730000000000000000000000000000000000000000000000000000000000602082015250565b7f45524332303a20617070726f766520746f20746865207a65726f20616464726560008201527f7373000000000000000000000000000000000000000000000000000000000000602082015250565b7f45524332303a20696e73756666696369656e7420616c6c6f77616e6365000000600082015250565b7f45524332303a207472616e7366657220616d6f756e742065786365656473206260008201527f616c616e63650000000000000000000000000000000000000000000000000000602082015250565b7f496e73756666696369656e742062616c616e63652e0000000000000000000000600082015250565b7f45524332303a207472616e736665722066726f6d20746865207a65726f20616460008201527f6472657373000000000000000000000000000000000000000000000000000000602082015250565b7f45524332303a20617070726f76652066726f6d20746865207a65726f2061646460008201527f7265737300000000000000000000000000000000000000000000000000000000602082015250565b7f45524332303a2064656372656173656420616c6c6f77616e63652062656c6f7760008201527f207a65726f000000000000000000000000000000000000000000000000000000602082015250565b611b3281611743565b8114611b3d57600080fd5b50565b611b4981611781565b8114611b5457600080fd5b5056fea2646970667358221220225fc7788761d70c99712d7ac5ed58c3965a55bbf124422e351de9c8f242164764736f6c63430008070033",
					"opcodes": "PUSH1 0x80 PUSH1 0x40 MSTORE CALLVALUE DUP1 ISZERO PUSH3 0x11 JUMPI PUSH1 0x0 DUP1 REVERT JUMPDEST POP PUSH1 0x40 MLOAD DUP1 PUSH1 0x40 ADD PUSH1 0x40 MSTORE DUP1 PUSH1 0xB DUP2 MSTORE PUSH1 0x20 ADD PUSH32 0x4D6F66667520546F6B656E000000000000000000000000000000000000000000 DUP2 MSTORE POP PUSH1 0x40 MLOAD DUP1 PUSH1 0x40 ADD PUSH1 0x40 MSTORE DUP1 PUSH1 0x3 DUP2 MSTORE PUSH1 0x20 ADD PUSH32 0x4D46550000000000000000000000000000000000000000000000000000000000 DUP2 MSTORE POP DUP2 PUSH1 0x3 SWAP1 DUP1 MLOAD SWAP1 PUSH1 0x20 ADD SWAP1 PUSH3 0x96 SWAP3 SWAP2 SWAP1 PUSH3 0x299 JUMP JUMPDEST POP DUP1 PUSH1 0x4 SWAP1 DUP1 MLOAD SWAP1 PUSH1 0x20 ADD SWAP1 PUSH3 0xAF SWAP3 SWAP2 SWAP1 PUSH3 0x299 JUMP JUMPDEST POP POP POP PUSH3 0xCF CALLER PUSH11 0x84595161401484A000000 PUSH3 0x116 PUSH1 0x20 SHL PUSH1 0x20 SHR JUMP JUMPDEST CALLER PUSH1 0x5 PUSH1 0x0 PUSH2 0x100 EXP DUP2 SLOAD DUP2 PUSH20 0xFFFFFFFFFFFFFFFFFFFFFFFFFFFFFFFFFFFFFFFF MUL NOT AND SWAP1 DUP4 PUSH20 0xFFFFFFFFFFFFFFFFFFFFFFFFFFFFFFFFFFFFFFFF AND MUL OR SWAP1 SSTORE POP PUSH3 0x4F5 JUMP JUMPDEST PUSH1 0x0 PUSH20 0xFFFFFFFFFFFFFFFFFFFFFFFFFFFFFFFFFFFFFFFF AND DUP3 PUSH20 0xFFFFFFFFFFFFFFFFFFFFFFFFFFFFFFFFFFFFFFFF AND EQ ISZERO PUSH3 0x189 JUMPI PUSH1 0x40 MLOAD PUSH32 0x8C379A000000000000000000000000000000000000000000000000000000000 DUP2 MSTORE PUSH1 0x4 ADD PUSH3 0x180 SWAP1 PUSH3 0x381 JUMP JUMPDEST PUSH1 0x40 MLOAD DUP1 SWAP2 SUB SWAP1 REVERT JUMPDEST PUSH3 0x19D PUSH1 0x0 DUP4 DUP4 PUSH3 0x28F PUSH1 0x20 SHL PUSH1 0x20 SHR JUMP JUMPDEST DUP1 PUSH1 0x2 PUSH1 0x0 DUP3 DUP3 SLOAD PUSH3 0x1B1 SWAP2 SWAP1 PUSH3 0x3D1 JUMP JUMPDEST SWAP3 POP POP DUP2 SWAP1 SSTORE POP DUP1 PUSH1 0x0 DUP1 DUP5 PUSH20 0xFFFFFFFFFFFFFFFFFFFFFFFFFFFFFFFFFFFFFFFF AND PUSH20 0xFFFFFFFFFFFFFFFFFFFFFFFFFFFFFFFFFFFFFFFF AND DUP2 MSTORE PUSH1 0x20 ADD SWAP1 DUP2 MSTORE PUSH1 0x20 ADD PUSH1 0x0 KECCAK256 PUSH1 0x0 DUP3 DUP3 SLOAD PUSH3 0x208 SWAP2 SWAP1 PUSH3 0x3D1 JUMP JUMPDEST SWAP3 POP POP DUP2 SWAP1 SSTORE POP DUP2 PUSH20 0xFFFFFFFFFFFFFFFFFFFFFFFFFFFFFFFFFFFFFFFF AND PUSH1 0x0 PUSH20 0xFFFFFFFFFFFFFFFFFFFFFFFFFFFFFFFFFFFFFFFF AND PUSH32 0xDDF252AD1BE2C89B69C2B068FC378DAA952BA7F163C4A11628F55A4DF523B3EF DUP4 PUSH1 0x40 MLOAD PUSH3 0x26F SWAP2 SWAP1 PUSH3 0x3A3 JUMP JUMPDEST PUSH1 0x40 MLOAD DUP1 SWAP2 SUB SWAP1 LOG3 PUSH3 0x28B PUSH1 0x0 DUP4 DUP4 PUSH3 0x294 PUSH1 0x20 SHL PUSH1 0x20 SHR JUMP JUMPDEST POP POP JUMP JUMPDEST POP POP POP JUMP JUMPDEST POP POP POP JUMP JUMPDEST DUP3 DUP1 SLOAD PUSH3 0x2A7 SWAP1 PUSH3 0x438 JUMP JUMPDEST SWAP1 PUSH1 0x0 MSTORE PUSH1 0x20 PUSH1 0x0 KECCAK256 SWAP1 PUSH1 0x1F ADD PUSH1 0x20 SWAP1 DIV DUP2 ADD SWAP3 DUP3 PUSH3 0x2CB JUMPI PUSH1 0x0 DUP6 SSTORE PUSH3 0x317 JUMP JUMPDEST DUP3 PUSH1 0x1F LT PUSH3 0x2E6 JUMPI DUP1 MLOAD PUSH1 0xFF NOT AND DUP4 DUP1 ADD OR DUP6 SSTORE PUSH3 0x317 JUMP JUMPDEST DUP3 DUP1 ADD PUSH1 0x1 ADD DUP6 SSTORE DUP3 ISZERO PUSH3 0x317 JUMPI SWAP2 DUP3 ADD JUMPDEST DUP3 DUP2 GT ISZERO PUSH3 0x316 JUMPI DUP3 MLOAD DUP3 SSTORE SWAP2 PUSH1 0x20 ADD SWAP2 SWAP1 PUSH1 0x1 ADD SWAP1 PUSH3 0x2F9 JUMP JUMPDEST JUMPDEST POP SWAP1 POP PUSH3 0x326 SWAP2 SWAP1 PUSH3 0x32A JUMP JUMPDEST POP SWAP1 JUMP JUMPDEST JUMPDEST DUP1 DUP3 GT ISZERO PUSH3 0x345 JUMPI PUSH1 0x0 DUP2 PUSH1 0x0 SWAP1 SSTORE POP PUSH1 0x1 ADD PUSH3 0x32B JUMP JUMPDEST POP SWAP1 JUMP JUMPDEST PUSH1 0x0 PUSH3 0x358 PUSH1 0x1F DUP4 PUSH3 0x3C0 JUMP JUMPDEST SWAP2 POP PUSH3 0x365 DUP3 PUSH3 0x4CC JUMP JUMPDEST PUSH1 0x20 DUP3 ADD SWAP1 POP SWAP2 SWAP1 POP JUMP JUMPDEST PUSH3 0x37B DUP2 PUSH3 0x42E JUMP JUMPDEST DUP3 MSTORE POP POP JUMP JUMPDEST PUSH1 0x0 PUSH1 0x20 DUP3 ADD SWAP1 POP DUP2 DUP2 SUB PUSH1 0x0 DUP4 ADD MSTORE PUSH3 0x39C DUP2 PUSH3 0x349 JUMP JUMPDEST SWAP1 POP SWAP2 SWAP1 POP JUMP JUMPDEST PUSH1 0x0 PUSH1 0x20 DUP3 ADD SWAP1 POP PUSH3 0x3BA PUSH1 0x0 DUP4 ADD DUP5 PUSH3 0x370 JUMP JUMPDEST SWAP3 SWAP2 POP POP JUMP JUMPDEST PUSH1 0x0 DUP3 DUP3 MSTORE PUSH1 0x20 DUP3 ADD SWAP1 POP SWAP3 SWAP2 POP POP JUMP JUMPDEST PUSH1 0x0 PUSH3 0x3DE DUP3 PUSH3 0x42E JUMP JUMPDEST SWAP2 POP PUSH3 0x3EB DUP4 PUSH3 0x42E JUMP JUMPDEST SWAP3 POP DUP3 PUSH32 0xFFFFFFFFFFFFFFFFFFFFFFFFFFFFFFFFFFFFFFFFFFFFFFFFFFFFFFFFFFFFFFFF SUB DUP3 GT ISZERO PUSH3 0x423 JUMPI PUSH3 0x422 PUSH3 0x46E JUMP JUMPDEST JUMPDEST DUP3 DUP3 ADD SWAP1 POP SWAP3 SWAP2 POP POP JUMP JUMPDEST PUSH1 0x0 DUP2 SWAP1 POP SWAP2 SWAP1 POP JUMP JUMPDEST PUSH1 0x0 PUSH1 0x2 DUP3 DIV SWAP1 POP PUSH1 0x1 DUP3 AND DUP1 PUSH3 0x451 JUMPI PUSH1 0x7F DUP3 AND SWAP2 POP JUMPDEST PUSH1 0x20 DUP3 LT DUP2 EQ ISZERO PUSH3 0x468 JUMPI PUSH3 0x467 PUSH3 0x49D JUMP JUMPDEST JUMPDEST POP SWAP2 SWAP1 POP JUMP JUMPDEST PUSH32 0x4E487B7100000000000000000000000000000000000000000000000000000000 PUSH1 0x0 MSTORE PUSH1 0x11 PUSH1 0x4 MSTORE PUSH1 0x24 PUSH1 0x0 REVERT JUMPDEST PUSH32 0x4E487B7100000000000000000000000000000000000000000000000000000000 PUSH1 0x0 MSTORE PUSH1 0x22 PUSH1 0x4 MSTORE PUSH1 0x24 PUSH1 0x0 REVERT JUMPDEST PUSH32 0x45524332303A206D696E7420746F20746865207A65726F206164647265737300 PUSH1 0x0 DUP3 ADD MSTORE POP JUMP JUMPDEST PUSH2 0x1B8D DUP1 PUSH3 0x505 PUSH1 0x0 CODECOPY PUSH1 0x0 RETURN INVALID PUSH1 0x80 PUSH1 0x40 MSTORE CALLVALUE DUP1 ISZERO PUSH2 0x10 JUMPI PUSH1 0x0 DUP1 REVERT JUMPDEST POP PUSH1 0x4 CALLDATASIZE LT PUSH2 0x100 JUMPI PUSH1 0x0 CALLDATALOAD PUSH1 0xE0 SHR DUP1 PUSH4 0x39509351 GT PUSH2 0x97 JUMPI DUP1 PUSH4 0x95D89B41 GT PUSH2 0x66 JUMPI DUP1 PUSH4 0x95D89B41 EQ PUSH2 0x2C1 JUMPI DUP1 PUSH4 0xA457C2D7 EQ PUSH2 0x2DF JUMPI DUP1 PUSH4 0xA9059CBB EQ PUSH2 0x30F JUMPI DUP1 PUSH4 0xDD62ED3E EQ PUSH2 0x33F JUMPI PUSH2 0x100 JUMP JUMPDEST DUP1 PUSH4 0x39509351 EQ PUSH2 0x229 JUMPI DUP1 PUSH4 0x40C10F19 EQ PUSH2 0x259 JUMPI DUP1 PUSH4 0x5B2A0E96 EQ PUSH2 0x275 JUMPI DUP1 PUSH4 0x70A08231 EQ PUSH2 0x291 JUMPI PUSH2 0x100 JUMP JUMPDEST DUP1 PUSH4 0x18160DDD GT PUSH2 0xD3 JUMPI DUP1 PUSH4 0x18160DDD EQ PUSH2 0x18D JUMPI DUP1 PUSH4 0x23B872DD EQ PUSH2 0x1AB JUMPI DUP1 PUSH4 0x27E235E3 EQ PUSH2 0x1DB JUMPI DUP1 PUSH4 0x313CE567 EQ PUSH2 0x20B JUMPI PUSH2 0x100 JUMP JUMPDEST DUP1 PUSH4 0x6FDDE03 EQ PUSH2 0x105 JUMPI DUP1 PUSH4 0x7546172 EQ PUSH2 0x123 JUMPI DUP1 PUSH4 0x779AFE6 EQ PUSH2 0x141 JUMPI DUP1 PUSH4 0x95EA7B3 EQ PUSH2 0x15D JUMPI JUMPDEST PUSH1 0x0 DUP1 REVERT JUMPDEST PUSH2 0x10D PUSH2 0x36F JUMP JUMPDEST PUSH1 0x40 MLOAD PUSH2 0x11A SWAP2 SWAP1 PUSH2 0x14AC JUMP JUMPDEST PUSH1 0x40 MLOAD DUP1 SWAP2 SUB SWAP1 RETURN JUMPDEST PUSH2 0x12B PUSH2 0x401 JUMP JUMPDEST PUSH1 0x40 MLOAD PUSH2 0x138 SWAP2 SWAP1 PUSH2 0x13FF JUMP JUMPDEST PUSH1 0x40 MLOAD DUP1 SWAP2 SUB SWAP1 RETURN JUMPDEST PUSH2 0x15B PUSH1 0x4 DUP1 CALLDATASIZE SUB DUP2 ADD SWAP1 PUSH2 0x156 SWAP2 SWAP1 PUSH2 0x10E7 JUMP JUMPDEST PUSH2 0x427 JUMP JUMPDEST STOP JUMPDEST PUSH2 0x177 PUSH1 0x4 DUP1 CALLDATASIZE SUB DUP2 ADD SWAP1 PUSH2 0x172 SWAP2 SWAP1 PUSH2 0x11AE JUMP JUMPDEST PUSH2 0x5C0 JUMP JUMPDEST PUSH1 0x40 MLOAD PUSH2 0x184 SWAP2 SWAP1 PUSH2 0x1491 JUMP JUMPDEST PUSH1 0x40 MLOAD DUP1 SWAP2 SUB SWAP1 RETURN JUMPDEST PUSH2 0x195 PUSH2 0x5E3 JUMP JUMPDEST PUSH1 0x40 MLOAD PUSH2 0x1A2 SWAP2 SWAP1 PUSH2 0x15CE JUMP JUMPDEST PUSH1 0x40 MLOAD DUP1 SWAP2 SUB SWAP1 RETURN JUMPDEST PUSH2 0x1C5 PUSH1 0x4 DUP1 CALLDATASIZE SUB DUP2 ADD SWAP1 PUSH2 0x1C0 SWAP2 SWAP1 PUSH2 0x10E7 JUMP JUMPDEST PUSH2 0x5ED JUMP JUMPDEST PUSH1 0x40 MLOAD PUSH2 0x1D2 SWAP2 SWAP1 PUSH2 0x1491 JUMP JUMPDEST PUSH1 0x40 MLOAD DUP1 SWAP2 SUB SWAP1 RETURN JUMPDEST PUSH2 0x1F5 PUSH1 0x4 DUP1 CALLDATASIZE SUB DUP2 ADD SWAP1 PUSH2 0x1F0 SWAP2 SWAP1 PUSH2 0x107A JUMP JUMPDEST PUSH2 0x61C JUMP JUMPDEST PUSH1 0x40 MLOAD PUSH2 0x202 SWAP2 SWAP1 PUSH2 0x15CE JUMP JUMPDEST PUSH1 0x40 MLOAD DUP1 SWAP2 SUB SWAP1 RETURN JUMPDEST PUSH2 0x213 PUSH2 0x634 JUMP JUMPDEST PUSH1 0x40 MLOAD PUSH2 0x220 SWAP2 SWAP1 PUSH2 0x15E9 JUMP JUMPDEST PUSH1 0x40 MLOAD DUP1 SWAP2 SUB SWAP1 RETURN JUMPDEST PUSH2 0x243 PUSH1 0x4 DUP1 CALLDATASIZE SUB DUP2 ADD SWAP1 PUSH2 0x23E SWAP2 SWAP1 PUSH2 0x11AE JUMP JUMPDEST PUSH2 0x63D JUMP JUMPDEST PUSH1 0x40 MLOAD PUSH2 0x250 SWAP2 SWAP1 PUSH2 0x1491 JUMP JUMPDEST PUSH1 0x40 MLOAD DUP1 SWAP2 SUB SWAP1 RETURN JUMPDEST PUSH2 0x273 PUSH1 0x4 DUP1 CALLDATASIZE SUB DUP2 ADD SWAP1 PUSH2 0x26E SWAP2 SWAP1 PUSH2 0x11AE JUMP JUMPDEST PUSH2 0x674 JUMP JUMPDEST STOP JUMPDEST PUSH2 0x28F PUSH1 0x4 DUP1 CALLDATASIZE SUB DUP2 ADD SWAP1 PUSH2 0x28A SWAP2 SWAP1 PUSH2 0x113A JUMP JUMPDEST PUSH2 0x74D JUMP JUMPDEST STOP JUMPDEST PUSH2 0x2AB PUSH1 0x4 DUP1 CALLDATASIZE SUB DUP2 ADD SWAP1 PUSH2 0x2A6 SWAP2 SWAP1 PUSH2 0x107A JUMP JUMPDEST PUSH2 0x915 JUMP JUMPDEST PUSH1 0x40 MLOAD PUSH2 0x2B8 SWAP2 SWAP1 PUSH2 0x15CE JUMP JUMPDEST PUSH1 0x40 MLOAD DUP1 SWAP2 SUB SWAP1 RETURN JUMPDEST PUSH2 0x2C9 PUSH2 0x95D JUMP JUMPDEST PUSH1 0x40 MLOAD PUSH2 0x2D6 SWAP2 SWAP1 PUSH2 0x14AC JUMP JUMPDEST PUSH1 0x40 MLOAD DUP1 SWAP2 SUB SWAP1 RETURN JUMPDEST PUSH2 0x2F9 PUSH1 0x4 DUP1 CALLDATASIZE SUB DUP2 ADD SWAP1 PUSH2 0x2F4 SWAP2 SWAP1 PUSH2 0x11AE JUMP JUMPDEST PUSH2 0x9EF JUMP JUMPDEST PUSH1 0x40 MLOAD PUSH2 0x306 SWAP2 SWAP1 PUSH2 0x1491 JUMP JUMPDEST PUSH1 0x40 MLOAD DUP1 SWAP2 SUB SWAP1 RETURN JUMPDEST PUSH2 0x329 PUSH1 0x4 DUP1 CALLDATASIZE SUB DUP2 ADD SWAP1 PUSH2 0x324 SWAP2 SWAP1 PUSH2 0x11AE JUMP JUMPDEST PUSH2 0xA66 JUMP JUMPDEST PUSH1 0x40 MLOAD PUSH2 0x336 SWAP2 SWAP1 PUSH2 0x1491 JUMP JUMPDEST PUSH1 0x40 MLOAD DUP1 SWAP2 SUB SWAP1 RETURN JUMPDEST PUSH2 0x359 PUSH1 0x4 DUP1 CALLDATASIZE SUB DUP2 ADD SWAP1 PUSH2 0x354 SWAP2 SWAP1 PUSH2 0x10A7 JUMP JUMPDEST PUSH2 0xA89 JUMP JUMPDEST PUSH1 0x40 MLOAD PUSH2 0x366 SWAP2 SWAP1 PUSH2 0x15CE JUMP JUMPDEST PUSH1 0x40 MLOAD DUP1 SWAP2 SUB SWAP1 RETURN JUMPDEST PUSH1 0x60 PUSH1 0x3 DUP1 SLOAD PUSH2 0x37E SWAP1 PUSH2 0x17CB JUMP JUMPDEST DUP1 PUSH1 0x1F ADD PUSH1 0x20 DUP1 SWAP2 DIV MUL PUSH1 0x20 ADD PUSH1 0x40 MLOAD SWAP1 DUP2 ADD PUSH1 0x40 MSTORE DUP1 SWAP3 SWAP2 SWAP1 DUP2 DUP2 MSTORE PUSH1 0x20 ADD DUP3 DUP1 SLOAD PUSH2 0x3AA SWAP1 PUSH2 0x17CB JUMP JUMPDEST DUP1 ISZERO PUSH2 0x3F7 JUMPI DUP1 PUSH1 0x1F LT PUSH2 0x3CC JUMPI PUSH2 0x100 DUP1 DUP4 SLOAD DIV MUL DUP4 MSTORE SWAP2 PUSH1 0x20 ADD SWAP2 PUSH2 0x3F7 JUMP JUMPDEST DUP3 ADD SWAP2 SWAP1 PUSH1 0x0 MSTORE PUSH1 0x20 PUSH1 0x0 KECCAK256 SWAP1 JUMPDEST DUP2 SLOAD DUP2 MSTORE SWAP1 PUSH1 0x1 ADD SWAP1 PUSH1 0x20 ADD DUP1 DUP4 GT PUSH2 0x3DA JUMPI DUP3 SWAP1 SUB PUSH1 0x1F AND DUP3 ADD SWAP2 JUMPDEST POP POP POP POP POP SWAP1 POP SWAP1 JUMP JUMPDEST PUSH1 0x5 PUSH1 0x0 SWAP1 SLOAD SWAP1 PUSH2 0x100 EXP SWAP1 DIV PUSH20 0xFFFFFFFFFFFFFFFFFFFFFFFFFFFFFFFFFFFFFFFF AND DUP2 JUMP JUMPDEST PUSH32 0xF0ED029E274DABB7636AEED7333CF47BC8C97DD6EB6D8FAEA6E9BFBD6620BEBE DUP2 PUSH1 0x40 MLOAD PUSH2 0x456 SWAP2 SWAP1 PUSH2 0x15CE JUMP JUMPDEST PUSH1 0x40 MLOAD DUP1 SWAP2 SUB SWAP1 LOG1 PUSH32 0xF0ED029E274DABB7636AEED7333CF47BC8C97DD6EB6D8FAEA6E9BFBD6620BEBE PUSH1 0x6 PUSH1 0x0 DUP6 PUSH20 0xFFFFFFFFFFFFFFFFFFFFFFFFFFFFFFFFFFFFFFFF AND PUSH20 0xFFFFFFFFFFFFFFFFFFFFFFFFFFFFFFFFFFFFFFFF AND DUP2 MSTORE PUSH1 0x20 ADD SWAP1 DUP2 MSTORE PUSH1 0x20 ADD PUSH1 0x0 KECCAK256 SLOAD PUSH1 0x40 MLOAD PUSH2 0x4CC SWAP2 SWAP1 PUSH2 0x15CE JUMP JUMPDEST PUSH1 0x40 MLOAD DUP1 SWAP2 SUB SWAP1 LOG1 DUP1 PUSH1 0x6 PUSH1 0x0 DUP6 PUSH20 0xFFFFFFFFFFFFFFFFFFFFFFFFFFFFFFFFFFFFFFFF AND PUSH20 0xFFFFFFFFFFFFFFFFFFFFFFFFFFFFFFFFFFFFFFFF AND DUP2 MSTORE PUSH1 0x20 ADD SWAP1 DUP2 MSTORE PUSH1 0x20 ADD PUSH1 0x0 KECCAK256 PUSH1 0x0 DUP3 DUP3 SLOAD PUSH2 0x523 SWAP2 SWAP1 PUSH2 0x170F JUMP JUMPDEST SWAP3 POP POP DUP2 SWAP1 SSTORE POP DUP1 PUSH1 0x6 PUSH1 0x0 DUP5 PUSH20 0xFFFFFFFFFFFFFFFFFFFFFFFFFFFFFFFFFFFFFFFF AND PUSH20 0xFFFFFFFFFFFFFFFFFFFFFFFFFFFFFFFFFFFFFFFF AND DUP2 MSTORE PUSH1 0x20 ADD SWAP1 DUP2 MSTORE PUSH1 0x20 ADD PUSH1 0x0 KECCAK256 PUSH1 0x0 DUP3 DUP3 SLOAD PUSH2 0x579 SWAP2 SWAP1 PUSH2 0x165F JUMP JUMPDEST SWAP3 POP POP DUP2 SWAP1 SSTORE POP PUSH32 0xF91179ED40193440F3F022C5755E0FC1C4B1FB78B129DD47B3C465276C070FD3 DUP4 DUP4 DUP4 PUSH1 0x40 MLOAD PUSH2 0x5B3 SWAP4 SWAP3 SWAP2 SWAP1 PUSH2 0x141A JUMP JUMPDEST PUSH1 0x40 MLOAD DUP1 SWAP2 SUB SWAP1 LOG1 POP POP POP JUMP JUMPDEST PUSH1 0x0 DUP1 PUSH2 0x5CB PUSH2 0xB10 JUMP JUMPDEST SWAP1 POP PUSH2 0x5D8 DUP2 DUP6 DUP6 PUSH2 0xB18 JUMP JUMPDEST PUSH1 0x1 SWAP2 POP POP SWAP3 SWAP2 POP POP JUMP JUMPDEST PUSH1 0x0 PUSH1 0x2 SLOAD SWAP1 POP SWAP1 JUMP JUMPDEST PUSH1 0x0 DUP1 PUSH2 0x5F8 PUSH2 0xB10 JUMP JUMPDEST SWAP1 POP PUSH2 0x605 DUP6 DUP3 DUP6 PUSH2 0xCE3 JUMP JUMPDEST PUSH2 0x610 DUP6 DUP6 DUP6 PUSH2 0xD6F JUMP JUMPDEST PUSH1 0x1 SWAP2 POP POP SWAP4 SWAP3 POP POP POP JUMP JUMPDEST PUSH1 0x6 PUSH1 0x20 MSTORE DUP1 PUSH1 0x0 MSTORE PUSH1 0x40 PUSH1 0x0 KECCAK256 PUSH1 0x0 SWAP2 POP SWAP1 POP SLOAD DUP2 JUMP JUMPDEST PUSH1 0x0 PUSH1 0x12 SWAP1 POP SWAP1 JUMP JUMPDEST PUSH1 0x0 DUP1 PUSH2 0x648 PUSH2 0xB10 JUMP JUMPDEST SWAP1 POP PUSH2 0x669 DUP2 DUP6 DUP6 PUSH2 0x65A DUP6 DUP10 PUSH2 0xA89 JUMP JUMPDEST PUSH2 0x664 SWAP2 SWAP1 PUSH2 0x165F JUMP JUMPDEST PUSH2 0xB18 JUMP JUMPDEST PUSH1 0x1 SWAP2 POP POP SWAP3 SWAP2 POP POP JUMP JUMPDEST PUSH1 0x5 PUSH1 0x0 SWAP1 SLOAD SWAP1 PUSH2 0x100 EXP SWAP1 DIV PUSH20 0xFFFFFFFFFFFFFFFFFFFFFFFFFFFFFFFFFFFFFFFF AND PUSH20 0xFFFFFFFFFFFFFFFFFFFFFFFFFFFFFFFFFFFFFFFF AND CALLER PUSH20 0xFFFFFFFFFFFFFFFFFFFFFFFFFFFFFFFFFFFFFFFF AND EQ PUSH2 0x6CE JUMPI PUSH1 0x0 DUP1 REVERT JUMPDEST PUSH25 0x9F4F2726179A224501D762422C946590D91000000000000000 DUP2 LT PUSH2 0x6F3 JUMPI PUSH1 0x0 DUP1 REVERT JUMPDEST DUP1 PUSH1 0x6 PUSH1 0x0 DUP5 PUSH20 0xFFFFFFFFFFFFFFFFFFFFFFFFFFFFFFFFFFFFFFFF AND PUSH20 0xFFFFFFFFFFFFFFFFFFFFFFFFFFFFFFFFFFFFFFFF AND DUP2 MSTORE PUSH1 0x20 ADD SWAP1 DUP2 MSTORE PUSH1 0x20 ADD PUSH1 0x0 KECCAK256 PUSH1 0x0 DUP3 DUP3 SLOAD PUSH2 0x742 SWAP2 SWAP1 PUSH2 0x165F JUMP JUMPDEST SWAP3 POP POP DUP2 SWAP1 SSTORE POP POP POP JUMP JUMPDEST PUSH1 0x6 PUSH1 0x0 DUP6 PUSH20 0xFFFFFFFFFFFFFFFFFFFFFFFFFFFFFFFFFFFFFFFF AND PUSH20 0xFFFFFFFFFFFFFFFFFFFFFFFFFFFFFFFFFFFFFFFF AND DUP2 MSTORE PUSH1 0x20 ADD SWAP1 DUP2 MSTORE PUSH1 0x20 ADD PUSH1 0x0 KECCAK256 SLOAD DUP4 DUP4 SWAP1 POP DUP3 PUSH2 0x79C SWAP2 SWAP1 PUSH2 0x16B5 JUMP JUMPDEST GT ISZERO PUSH2 0x7DD JUMPI PUSH1 0x40 MLOAD PUSH32 0x8C379A000000000000000000000000000000000000000000000000000000000 DUP2 MSTORE PUSH1 0x4 ADD PUSH2 0x7D4 SWAP1 PUSH2 0x154E JUMP JUMPDEST PUSH1 0x40 MLOAD DUP1 SWAP2 SUB SWAP1 REVERT JUMPDEST PUSH1 0x0 JUMPDEST DUP4 DUP4 SWAP1 POP DUP2 LT ISZERO PUSH2 0x8D1 JUMPI DUP2 PUSH1 0x6 PUSH1 0x0 DUP8 PUSH20 0xFFFFFFFFFFFFFFFFFFFFFFFFFFFFFFFFFFFFFFFF AND PUSH20 0xFFFFFFFFFFFFFFFFFFFFFFFFFFFFFFFFFFFFFFFF AND DUP2 MSTORE PUSH1 0x20 ADD SWAP1 DUP2 MSTORE PUSH1 0x20 ADD PUSH1 0x0 KECCAK256 PUSH1 0x0 DUP3 DUP3 SLOAD PUSH2 0x83A SWAP2 SWAP1 PUSH2 0x170F JUMP JUMPDEST SWAP3 POP POP DUP2 SWAP1 SSTORE POP DUP2 PUSH1 0x6 PUSH1 0x0 DUP7 DUP7 DUP6 DUP2 DUP2 LT PUSH2 0x859 JUMPI PUSH2 0x858 PUSH2 0x18A4 JUMP JUMPDEST JUMPDEST SWAP1 POP PUSH1 0x20 MUL ADD PUSH1 0x20 DUP2 ADD SWAP1 PUSH2 0x86E SWAP2 SWAP1 PUSH2 0x107A JUMP JUMPDEST PUSH20 0xFFFFFFFFFFFFFFFFFFFFFFFFFFFFFFFFFFFFFFFF AND PUSH20 0xFFFFFFFFFFFFFFFFFFFFFFFFFFFFFFFFFFFFFFFF AND DUP2 MSTORE PUSH1 0x20 ADD SWAP1 DUP2 MSTORE PUSH1 0x20 ADD PUSH1 0x0 KECCAK256 PUSH1 0x0 DUP3 DUP3 SLOAD PUSH2 0x8B7 SWAP2 SWAP1 PUSH2 0x165F JUMP JUMPDEST SWAP3 POP POP DUP2 SWAP1 SSTORE POP DUP1 DUP1 PUSH2 0x8C9 SWAP1 PUSH2 0x17FD JUMP JUMPDEST SWAP2 POP POP PUSH2 0x7E0 JUMP JUMPDEST POP PUSH32 0xD33AF69E2BDB37DFD3A759E5A2BC0F70E1976336B64F9EB59C9814D3F5D238E0 DUP5 DUP5 DUP5 DUP5 PUSH1 0x40 MLOAD PUSH2 0x907 SWAP5 SWAP4 SWAP3 SWAP2 SWAP1 PUSH2 0x1451 JUMP JUMPDEST PUSH1 0x40 MLOAD DUP1 SWAP2 SUB SWAP1 LOG1 POP POP POP POP JUMP JUMPDEST PUSH1 0x0 DUP1 PUSH1 0x0 DUP4 PUSH20 0xFFFFFFFFFFFFFFFFFFFFFFFFFFFFFFFFFFFFFFFF AND PUSH20 0xFFFFFFFFFFFFFFFFFFFFFFFFFFFFFFFFFFFFFFFF AND DUP2 MSTORE PUSH1 0x20 ADD SWAP1 DUP2 MSTORE PUSH1 0x20 ADD PUSH1 0x0 KECCAK256 SLOAD SWAP1 POP SWAP2 SWAP1 POP JUMP JUMPDEST PUSH1 0x60 PUSH1 0x4 DUP1 SLOAD PUSH2 0x96C SWAP1 PUSH2 0x17CB JUMP JUMPDEST DUP1 PUSH1 0x1F ADD PUSH1 0x20 DUP1 SWAP2 DIV MUL PUSH1 0x20 ADD PUSH1 0x40 MLOAD SWAP1 DUP2 ADD PUSH1 0x40 MSTORE DUP1 SWAP3 SWAP2 SWAP1 DUP2 DUP2 MSTORE PUSH1 0x20 ADD DUP3 DUP1 SLOAD PUSH2 0x998 SWAP1 PUSH2 0x17CB JUMP JUMPDEST DUP1 ISZERO PUSH2 0x9E5 JUMPI DUP1 PUSH1 0x1F LT PUSH2 0x9BA JUMPI PUSH2 0x100 DUP1 DUP4 SLOAD DIV MUL DUP4 MSTORE SWAP2 PUSH1 0x20 ADD SWAP2 PUSH2 0x9E5 JUMP JUMPDEST DUP3 ADD SWAP2 SWAP1 PUSH1 0x0 MSTORE PUSH1 0x20 PUSH1 0x0 KECCAK256 SWAP1 JUMPDEST DUP2 SLOAD DUP2 MSTORE SWAP1 PUSH1 0x1 ADD SWAP1 PUSH1 0x20 ADD DUP1 DUP4 GT PUSH2 0x9C8 JUMPI DUP3 SWAP1 SUB PUSH1 0x1F AND DUP3 ADD SWAP2 JUMPDEST POP POP POP POP POP SWAP1 POP SWAP1 JUMP JUMPDEST PUSH1 0x0 DUP1 PUSH2 0x9FA PUSH2 0xB10 JUMP JUMPDEST SWAP1 POP PUSH1 0x0 PUSH2 0xA08 DUP3 DUP7 PUSH2 0xA89 JUMP JUMPDEST SWAP1 POP DUP4 DUP2 LT ISZERO PUSH2 0xA4D JUMPI PUSH1 0x40 MLOAD PUSH32 0x8C379A000000000000000000000000000000000000000000000000000000000 DUP2 MSTORE PUSH1 0x4 ADD PUSH2 0xA44 SWAP1 PUSH2 0x15AE JUMP JUMPDEST PUSH1 0x40 MLOAD DUP1 SWAP2 SUB SWAP1 REVERT JUMPDEST PUSH2 0xA5A DUP3 DUP7 DUP7 DUP5 SUB PUSH2 0xB18 JUMP JUMPDEST PUSH1 0x1 SWAP3 POP POP POP SWAP3 SWAP2 POP POP JUMP JUMPDEST PUSH1 0x0 DUP1 PUSH2 0xA71 PUSH2 0xB10 JUMP JUMPDEST SWAP1 POP PUSH2 0xA7E DUP2 DUP6 DUP6 PUSH2 0xD6F JUMP JUMPDEST PUSH1 0x1 SWAP2 POP POP SWAP3 SWAP2 POP POP JUMP JUMPDEST PUSH1 0x0 PUSH1 0x1 PUSH1 0x0 DUP5 PUSH20 0xFFFFFFFFFFFFFFFFFFFFFFFFFFFFFFFFFFFFFFFF AND PUSH20 0xFFFFFFFFFFFFFFFFFFFFFFFFFFFFFFFFFFFFFFFF AND DUP2 MSTORE PUSH1 0x20 ADD SWAP1 DUP2 MSTORE PUSH1 0x20 ADD PUSH1 0x0 KECCAK256 PUSH1 0x0 DUP4 PUSH20 0xFFFFFFFFFFFFFFFFFFFFFFFFFFFFFFFFFFFFFFFF AND PUSH20 0xFFFFFFFFFFFFFFFFFFFFFFFFFFFFFFFFFFFFFFFF AND DUP2 MSTORE PUSH1 0x20 ADD SWAP1 DUP2 MSTORE PUSH1 0x20 ADD PUSH1 0x0 KECCAK256 SLOAD SWAP1 POP SWAP3 SWAP2 POP POP JUMP JUMPDEST PUSH1 0x0 CALLER SWAP1 POP SWAP1 JUMP JUMPDEST PUSH1 0x0 PUSH20 0xFFFFFFFFFFFFFFFFFFFFFFFFFFFFFFFFFFFFFFFF AND DUP4 PUSH20 0xFFFFFFFFFFFFFFFFFFFFFFFFFFFFFFFFFFFFFFFF AND EQ ISZERO PUSH2 0xB88 JUMPI PUSH1 0x40 MLOAD PUSH32 0x8C379A000000000000000000000000000000000000000000000000000000000 DUP2 MSTORE PUSH1 0x4 ADD PUSH2 0xB7F SWAP1 PUSH2 0x158E JUMP JUMPDEST PUSH1 0x40 MLOAD DUP1 SWAP2 SUB SWAP1 REVERT JUMPDEST PUSH1 0x0 PUSH20 0xFFFFFFFFFFFFFFFFFFFFFFFFFFFFFFFFFFFFFFFF AND DUP3 PUSH20 0xFFFFFFFFFFFFFFFFFFFFFFFFFFFFFFFFFFFFFFFF AND EQ ISZERO PUSH2 0xBF8 JUMPI PUSH1 0x40 MLOAD PUSH32 0x8C379A000000000000000000000000000000000000000000000000000000000 DUP2 MSTORE PUSH1 0x4 ADD PUSH2 0xBEF SWAP1 PUSH2 0x14EE JUMP JUMPDEST PUSH1 0x40 MLOAD DUP1 SWAP2 SUB SWAP1 REVERT JUMPDEST DUP1 PUSH1 0x1 PUSH1 0x0 DUP6 PUSH20 0xFFFFFFFFFFFFFFFFFFFFFFFFFFFFFFFFFFFFFFFF AND PUSH20 0xFFFFFFFFFFFFFFFFFFFFFFFFFFFFFFFFFFFFFFFF AND DUP2 MSTORE PUSH1 0x20 ADD SWAP1 DUP2 MSTORE PUSH1 0x20 ADD PUSH1 0x0 KECCAK256 PUSH1 0x0 DUP5 PUSH20 0xFFFFFFFFFFFFFFFFFFFFFFFFFFFFFFFFFFFFFFFF AND PUSH20 0xFFFFFFFFFFFFFFFFFFFFFFFFFFFFFFFFFFFFFFFF AND DUP2 MSTORE PUSH1 0x20 ADD SWAP1 DUP2 MSTORE PUSH1 0x20 ADD PUSH1 0x0 KECCAK256 DUP2 SWAP1 SSTORE POP DUP2 PUSH20 0xFFFFFFFFFFFFFFFFFFFFFFFFFFFFFFFFFFFFFFFF AND DUP4 PUSH20 0xFFFFFFFFFFFFFFFFFFFFFFFFFFFFFFFFFFFFFFFF AND PUSH32 0x8C5BE1E5EBEC7D5BD14F71427D1E84F3DD0314C0F7B2291E5B200AC8C7C3B925 DUP4 PUSH1 0x40 MLOAD PUSH2 0xCD6 SWAP2 SWAP1 PUSH2 0x15CE JUMP JUMPDEST PUSH1 0x40 MLOAD DUP1 SWAP2 SUB SWAP1 LOG3 POP POP POP JUMP JUMPDEST PUSH1 0x0 PUSH2 0xCEF DUP5 DUP5 PUSH2 0xA89 JUMP JUMPDEST SWAP1 POP PUSH32 0xFFFFFFFFFFFFFFFFFFFFFFFFFFFFFFFFFFFFFFFFFFFFFFFFFFFFFFFFFFFFFFFF DUP2 EQ PUSH2 0xD69 JUMPI DUP2 DUP2 LT ISZERO PUSH2 0xD5B JUMPI PUSH1 0x40 MLOAD PUSH32 0x8C379A000000000000000000000000000000000000000000000000000000000 DUP2 MSTORE PUSH1 0x4 ADD PUSH2 0xD52 SWAP1 PUSH2 0x150E JUMP JUMPDEST PUSH1 0x40 MLOAD DUP1 SWAP2 SUB SWAP1 REVERT JUMPDEST PUSH2 0xD68 DUP5 DUP5 DUP5 DUP5 SUB PUSH2 0xB18 JUMP JUMPDEST JUMPDEST POP POP POP POP JUMP JUMPDEST PUSH1 0x0 PUSH20 0xFFFFFFFFFFFFFFFFFFFFFFFFFFFFFFFFFFFFFFFF AND DUP4 PUSH20 0xFFFFFFFFFFFFFFFFFFFFFFFFFFFFFFFFFFFFFFFF AND EQ ISZERO PUSH2 0xDDF JUMPI PUSH1 0x40 MLOAD PUSH32 0x8C379A000000000000000000000000000000000000000000000000000000000 DUP2 MSTORE PUSH1 0x4 ADD PUSH2 0xDD6 SWAP1 PUSH2 0x156E JUMP JUMPDEST PUSH1 0x40 MLOAD DUP1 SWAP2 SUB SWAP1 REVERT JUMPDEST PUSH1 0x0 PUSH20 0xFFFFFFFFFFFFFFFFFFFFFFFFFFFFFFFFFFFFFFFF AND DUP3 PUSH20 0xFFFFFFFFFFFFFFFFFFFFFFFFFFFFFFFFFFFFFFFF AND EQ ISZERO PUSH2 0xE4F JUMPI PUSH1 0x40 MLOAD PUSH32 0x8C379A000000000000000000000000000000000000000000000000000000000 DUP2 MSTORE PUSH1 0x4 ADD PUSH2 0xE46 SWAP1 PUSH2 0x14CE JUMP JUMPDEST PUSH1 0x40 MLOAD DUP1 SWAP2 SUB SWAP1 REVERT JUMPDEST PUSH2 0xE5A DUP4 DUP4 DUP4 PUSH2 0xFF0 JUMP JUMPDEST PUSH1 0x0 DUP1 PUSH1 0x0 DUP6 PUSH20 0xFFFFFFFFFFFFFFFFFFFFFFFFFFFFFFFFFFFFFFFF AND PUSH20 0xFFFFFFFFFFFFFFFFFFFFFFFFFFFFFFFFFFFFFFFF AND DUP2 MSTORE PUSH1 0x20 ADD SWAP1 DUP2 MSTORE PUSH1 0x20 ADD PUSH1 0x0 KECCAK256 SLOAD SWAP1 POP DUP2 DUP2 LT ISZERO PUSH2 0xEE0 JUMPI PUSH1 0x40 MLOAD PUSH32 0x8C379A000000000000000000000000000000000000000000000000000000000 DUP2 MSTORE PUSH1 0x4 ADD PUSH2 0xED7 SWAP1 PUSH2 0x152E JUMP JUMPDEST PUSH1 0x40 MLOAD DUP1 SWAP2 SUB SWAP1 REVERT JUMPDEST DUP2 DUP2 SUB PUSH1 0x0 DUP1 DUP7 PUSH20 0xFFFFFFFFFFFFFFFFFFFFFFFFFFFFFFFFFFFFFFFF AND PUSH20 0xFFFFFFFFFFFFFFFFFFFFFFFFFFFFFFFFFFFFFFFF AND DUP2 MSTORE PUSH1 0x20 ADD SWAP1 DUP2 MSTORE PUSH1 0x20 ADD PUSH1 0x0 KECCAK256 DUP2 SWAP1 SSTORE POP DUP2 PUSH1 0x0 DUP1 DUP6 PUSH20 0xFFFFFFFFFFFFFFFFFFFFFFFFFFFFFFFFFFFFFFFF AND PUSH20 0xFFFFFFFFFFFFFFFFFFFFFFFFFFFFFFFFFFFFFFFF AND DUP2 MSTORE PUSH1 0x20 ADD SWAP1 DUP2 MSTORE PUSH1 0x20 ADD PUSH1 0x0 KECCAK256 PUSH1 0x0 DUP3 DUP3 SLOAD PUSH2 0xF73 SWAP2 SWAP1 PUSH2 0x165F JUMP JUMPDEST SWAP3 POP POP DUP2 SWAP1 SSTORE POP DUP3 PUSH20 0xFFFFFFFFFFFFFFFFFFFFFFFFFFFFFFFFFFFFFFFF AND DUP5 PUSH20 0xFFFFFFFFFFFFFFFFFFFFFFFFFFFFFFFFFFFFFFFF AND PUSH32 0xDDF252AD1BE2C89B69C2B068FC378DAA952BA7F163C4A11628F55A4DF523B3EF DUP5 PUSH1 0x40 MLOAD PUSH2 0xFD7 SWAP2 SWAP1 PUSH2 0x15CE JUMP JUMPDEST PUSH1 0x40 MLOAD DUP1 SWAP2 SUB SWAP1 LOG3 PUSH2 0xFEA DUP5 DUP5 DUP5 PUSH2 0xFF5 JUMP JUMPDEST POP POP POP POP JUMP JUMPDEST POP POP POP JUMP JUMPDEST POP POP POP JUMP JUMPDEST PUSH1 0x0 DUP2 CALLDATALOAD SWAP1 POP PUSH2 0x1009 DUP2 PUSH2 0x1B29 JUMP JUMPDEST SWAP3 SWAP2 POP POP JUMP JUMPDEST PUSH1 0x0 DUP1 DUP4 PUSH1 0x1F DUP5 ADD SLT PUSH2 0x1025 JUMPI PUSH2 0x1024 PUSH2 0x18D8 JUMP JUMPDEST JUMPDEST DUP3 CALLDATALOAD SWAP1 POP PUSH8 0xFFFFFFFFFFFFFFFF DUP2 GT ISZERO PUSH2 0x1042 JUMPI PUSH2 0x1041 PUSH2 0x18D3 JUMP JUMPDEST JUMPDEST PUSH1 0x20 DUP4 ADD SWAP2 POP DUP4 PUSH1 0x20 DUP3 MUL DUP4 ADD GT ISZERO PUSH2 0x105E JUMPI PUSH2 0x105D PUSH2 0x18DD JUMP JUMPDEST JUMPDEST SWAP3 POP SWAP3 SWAP1 POP JUMP JUMPDEST PUSH1 0x0 DUP2 CALLDATALOAD SWAP1 POP PUSH2 0x1074 DUP2 PUSH2 0x1B40 JUMP JUMPDEST SWAP3 SWAP2 POP POP JUMP JUMPDEST PUSH1 0x0 PUSH1 0x20 DUP3 DUP5 SUB SLT ISZERO PUSH2 0x1090 JUMPI PUSH2 0x108F PUSH2 0x18E7 JUMP JUMPDEST JUMPDEST PUSH1 0x0 PUSH2 0x109E DUP5 DUP3 DUP6 ADD PUSH2 0xFFA JUMP JUMPDEST SWAP2 POP POP SWAP3 SWAP2 POP POP JUMP JUMPDEST PUSH1 0x0 DUP1 PUSH1 0x40 DUP4 DUP6 SUB SLT ISZERO PUSH2 0x10BE JUMPI PUSH2 0x10BD PUSH2 0x18E7 JUMP JUMPDEST JUMPDEST PUSH1 0x0 PUSH2 0x10CC DUP6 DUP3 DUP7 ADD PUSH2 0xFFA JUMP JUMPDEST SWAP3 POP POP PUSH1 0x20 PUSH2 0x10DD DUP6 DUP3 DUP7 ADD PUSH2 0xFFA JUMP JUMPDEST SWAP2 POP POP SWAP3 POP SWAP3 SWAP1 POP JUMP JUMPDEST PUSH1 0x0 DUP1 PUSH1 0x0 PUSH1 0x60 DUP5 DUP7 SUB SLT ISZERO PUSH2 0x1100 JUMPI PUSH2 0x10FF PUSH2 0x18E7 JUMP JUMPDEST JUMPDEST PUSH1 0x0 PUSH2 0x110E DUP7 DUP3 DUP8 ADD PUSH2 0xFFA JUMP JUMPDEST SWAP4 POP POP PUSH1 0x20 PUSH2 0x111F DUP7 DUP3 DUP8 ADD PUSH2 0xFFA JUMP JUMPDEST SWAP3 POP POP PUSH1 0x40 PUSH2 0x1130 DUP7 DUP3 DUP8 ADD PUSH2 0x1065 JUMP JUMPDEST SWAP2 POP POP SWAP3 POP SWAP3 POP SWAP3 JUMP JUMPDEST PUSH1 0x0 DUP1 PUSH1 0x0 DUP1 PUSH1 0x60 DUP6 DUP8 SUB SLT ISZERO PUSH2 0x1154 JUMPI PUSH2 0x1153 PUSH2 0x18E7 JUMP JUMPDEST JUMPDEST PUSH1 0x0 PUSH2 0x1162 DUP8 DUP3 DUP9 ADD PUSH2 0xFFA JUMP JUMPDEST SWAP5 POP POP PUSH1 0x20 DUP6 ADD CALLDATALOAD PUSH8 0xFFFFFFFFFFFFFFFF DUP2 GT ISZERO PUSH2 0x1183 JUMPI PUSH2 0x1182 PUSH2 0x18E2 JUMP JUMPDEST JUMPDEST PUSH2 0x118F DUP8 DUP3 DUP9 ADD PUSH2 0x100F JUMP JUMPDEST SWAP4 POP SWAP4 POP POP PUSH1 0x40 PUSH2 0x11A2 DUP8 DUP3 DUP9 ADD PUSH2 0x1065 JUMP JUMPDEST SWAP2 POP POP SWAP3 SWAP6 SWAP2 SWAP5 POP SWAP3 POP JUMP JUMPDEST PUSH1 0x0 DUP1 PUSH1 0x40 DUP4 DUP6 SUB SLT ISZERO PUSH2 0x11C5 JUMPI PUSH2 0x11C4 PUSH2 0x18E7 JUMP JUMPDEST JUMPDEST PUSH1 0x0 PUSH2 0x11D3 DUP6 DUP3 DUP7 ADD PUSH2 0xFFA JUMP JUMPDEST SWAP3 POP POP PUSH1 0x20 PUSH2 0x11E4 DUP6 DUP3 DUP7 ADD PUSH2 0x1065 JUMP JUMPDEST SWAP2 POP POP SWAP3 POP SWAP3 SWAP1 POP JUMP JUMPDEST PUSH1 0x0 PUSH2 0x11FA DUP4 DUP4 PUSH2 0x1206 JUMP JUMPDEST PUSH1 0x20 DUP4 ADD SWAP1 POP SWAP3 SWAP2 POP POP JUMP JUMPDEST PUSH2 0x120F DUP2 PUSH2 0x1743 JUMP JUMPDEST DUP3 MSTORE POP POP JUMP JUMPDEST PUSH2 0x121E DUP2 PUSH2 0x1743 JUMP JUMPDEST DUP3 MSTORE POP POP JUMP JUMPDEST PUSH1 0x0 PUSH2 0x1230 DUP4 DUP6 PUSH2 0x1626 JUMP JUMPDEST SWAP4 POP PUSH2 0x123B DUP3 PUSH2 0x1604 JUMP JUMPDEST DUP1 PUSH1 0x0 JUMPDEST DUP6 DUP2 LT ISZERO PUSH2 0x1274 JUMPI PUSH2 0x1251 DUP3 DUP5 PUSH2 0x1648 JUMP JUMPDEST PUSH2 0x125B DUP9 DUP3 PUSH2 0x11EE JUMP JUMPDEST SWAP8 POP PUSH2 0x1266 DUP4 PUSH2 0x1619 JUMP JUMPDEST SWAP3 POP POP PUSH1 0x1 DUP2 ADD SWAP1 POP PUSH2 0x123F JUMP JUMPDEST POP DUP6 SWAP3 POP POP POP SWAP4 SWAP3 POP POP POP JUMP JUMPDEST PUSH2 0x128A DUP2 PUSH2 0x1755 JUMP JUMPDEST DUP3 MSTORE POP POP JUMP JUMPDEST PUSH1 0x0 PUSH2 0x129B DUP3 PUSH2 0x160E JUMP JUMPDEST PUSH2 0x12A5 DUP2 DUP6 PUSH2 0x1637 JUMP JUMPDEST SWAP4 POP PUSH2 0x12B5 DUP2 DUP6 PUSH1 0x20 DUP7 ADD PUSH2 0x1798 JUMP JUMPDEST PUSH2 0x12BE DUP2 PUSH2 0x18EC JUMP JUMPDEST DUP5 ADD SWAP2 POP POP SWAP3 SWAP2 POP POP JUMP JUMPDEST PUSH1 0x0 PUSH2 0x12D6 PUSH1 0x23 DUP4 PUSH2 0x1637 JUMP JUMPDEST SWAP2 POP PUSH2 0x12E1 DUP3 PUSH2 0x18FD JUMP JUMPDEST PUSH1 0x40 DUP3 ADD SWAP1 POP SWAP2 SWAP1 POP JUMP JUMPDEST PUSH1 0x0 PUSH2 0x12F9 PUSH1 0x22 DUP4 PUSH2 0x1637 JUMP JUMPDEST SWAP2 POP PUSH2 0x1304 DUP3 PUSH2 0x194C JUMP JUMPDEST PUSH1 0x40 DUP3 ADD SWAP1 POP SWAP2 SWAP1 POP JUMP JUMPDEST PUSH1 0x0 PUSH2 0x131C PUSH1 0x1D DUP4 PUSH2 0x1637 JUMP JUMPDEST SWAP2 POP PUSH2 0x1327 DUP3 PUSH2 0x199B JUMP JUMPDEST PUSH1 0x20 DUP3 ADD SWAP1 POP SWAP2 SWAP1 POP JUMP JUMPDEST PUSH1 0x0 PUSH2 0x133F PUSH1 0x26 DUP4 PUSH2 0x1637 JUMP JUMPDEST SWAP2 POP PUSH2 0x134A DUP3 PUSH2 0x19C4 JUMP JUMPDEST PUSH1 0x40 DUP3 ADD SWAP1 POP SWAP2 SWAP1 POP JUMP JUMPDEST PUSH1 0x0 PUSH2 0x1362 PUSH1 0x15 DUP4 PUSH2 0x1637 JUMP JUMPDEST SWAP2 POP PUSH2 0x136D DUP3 PUSH2 0x1A13 JUMP JUMPDEST PUSH1 0x20 DUP3 ADD SWAP1 POP SWAP2 SWAP1 POP JUMP JUMPDEST PUSH1 0x0 PUSH2 0x1385 PUSH1 0x25 DUP4 PUSH2 0x1637 JUMP JUMPDEST SWAP2 POP PUSH2 0x1390 DUP3 PUSH2 0x1A3C JUMP JUMPDEST PUSH1 0x40 DUP3 ADD SWAP1 POP SWAP2 SWAP1 POP JUMP JUMPDEST PUSH1 0x0 PUSH2 0x13A8 PUSH1 0x24 DUP4 PUSH2 0x1637 JUMP JUMPDEST SWAP2 POP PUSH2 0x13B3 DUP3 PUSH2 0x1A8B JUMP JUMPDEST PUSH1 0x40 DUP3 ADD SWAP1 POP SWAP2 SWAP1 POP JUMP JUMPDEST PUSH1 0x0 PUSH2 0x13CB PUSH1 0x25 DUP4 PUSH2 0x1637 JUMP JUMPDEST SWAP2 POP PUSH2 0x13D6 DUP3 PUSH2 0x1ADA JUMP JUMPDEST PUSH1 0x40 DUP3 ADD SWAP1 POP SWAP2 SWAP1 POP JUMP JUMPDEST PUSH2 0x13EA DUP2 PUSH2 0x1781 JUMP JUMPDEST DUP3 MSTORE POP POP JUMP JUMPDEST PUSH2 0x13F9 DUP2 PUSH2 0x178B JUMP JUMPDEST DUP3 MSTORE POP POP JUMP JUMPDEST PUSH1 0x0 PUSH1 0x20 DUP3 ADD SWAP1 POP PUSH2 0x1414 PUSH1 0x0 DUP4 ADD DUP5 PUSH2 0x1215 JUMP JUMPDEST SWAP3 SWAP2 POP POP JUMP JUMPDEST PUSH1 0x0 PUSH1 0x60 DUP3 ADD SWAP1 POP PUSH2 0x142F PUSH1 0x0 DUP4 ADD DUP7 PUSH2 0x1215 JUMP JUMPDEST PUSH2 0x143C PUSH1 0x20 DUP4 ADD DUP6 PUSH2 0x1215 JUMP JUMPDEST PUSH2 0x1449 PUSH1 0x40 DUP4 ADD DUP5 PUSH2 0x13E1 JUMP JUMPDEST SWAP5 SWAP4 POP POP POP POP JUMP JUMPDEST PUSH1 0x0 PUSH1 0x60 DUP3 ADD SWAP1 POP PUSH2 0x1466 PUSH1 0x0 DUP4 ADD DUP8 PUSH2 0x1215 JUMP JUMPDEST DUP2 DUP2 SUB PUSH1 0x20 DUP4 ADD MSTORE PUSH2 0x1479 DUP2 DUP6 DUP8 PUSH2 0x1224 JUMP JUMPDEST SWAP1 POP PUSH2 0x1488 PUSH1 0x40 DUP4 ADD DUP5 PUSH2 0x13E1 JUMP JUMPDEST SWAP6 SWAP5 POP POP POP POP POP JUMP JUMPDEST PUSH1 0x0 PUSH1 0x20 DUP3 ADD SWAP1 POP PUSH2 0x14A6 PUSH1 0x0 DUP4 ADD DUP5 PUSH2 0x1281 JUMP JUMPDEST SWAP3 SWAP2 POP POP JUMP JUMPDEST PUSH1 0x0 PUSH1 0x20 DUP3 ADD SWAP1 POP DUP2 DUP2 SUB PUSH1 0x0 DUP4 ADD MSTORE PUSH2 0x14C6 DUP2 DUP5 PUSH2 0x1290 JUMP JUMPDEST SWAP1 POP SWAP3 SWAP2 POP POP JUMP JUMPDEST PUSH1 0x0 PUSH1 0x20 DUP3 ADD SWAP1 POP DUP2 DUP2 SUB PUSH1 0x0 DUP4 ADD MSTORE PUSH2 0x14E7 DUP2 PUSH2 0x12C9 JUMP JUMPDEST SWAP1 POP SWAP2 SWAP1 POP JUMP JUMPDEST PUSH1 0x0 PUSH1 0x20 DUP3 ADD SWAP1 POP DUP2 DUP2 SUB PUSH1 0x0 DUP4 ADD MSTORE PUSH2 0x1507 DUP2 PUSH2 0x12EC JUMP JUMPDEST SWAP1 POP SWAP2 SWAP1 POP JUMP JUMPDEST PUSH1 0x0 PUSH1 0x20 DUP3 ADD SWAP1 POP DUP2 DUP2 SUB PUSH1 0x0 DUP4 ADD MSTORE PUSH2 0x1527 DUP2 PUSH2 0x130F JUMP JUMPDEST SWAP1 POP SWAP2 SWAP1 POP JUMP JUMPDEST PUSH1 0x0 PUSH1 0x20 DUP3 ADD SWAP1 POP DUP2 DUP2 SUB PUSH1 0x0 DUP4 ADD MSTORE PUSH2 0x1547 DUP2 PUSH2 0x1332 JUMP JUMPDEST SWAP1 POP SWAP2 SWAP1 POP JUMP JUMPDEST PUSH1 0x0 PUSH1 0x20 DUP3 ADD SWAP1 POP DUP2 DUP2 SUB PUSH1 0x0 DUP4 ADD MSTORE PUSH2 0x1567 DUP2 PUSH2 0x1355 JUMP JUMPDEST SWAP1 POP SWAP2 SWAP1 POP JUMP JUMPDEST PUSH1 0x0 PUSH1 0x20 DUP3 ADD SWAP1 POP DUP2 DUP2 SUB PUSH1 0x0 DUP4 ADD MSTORE PUSH2 0x1587 DUP2 PUSH2 0x1378 JUMP JUMPDEST SWAP1 POP SWAP2 SWAP1 POP JUMP JUMPDEST PUSH1 0x0 PUSH1 0x20 DUP3 ADD SWAP1 POP DUP2 DUP2 SUB PUSH1 0x0 DUP4 ADD MSTORE PUSH2 0x15A7 DUP2 PUSH2 0x139B JUMP JUMPDEST SWAP1 POP SWAP2 SWAP1 POP JUMP JUMPDEST PUSH1 0x0 PUSH1 0x20 DUP3 ADD SWAP1 POP DUP2 DUP2 SUB PUSH1 0x0 DUP4 ADD MSTORE PUSH2 0x15C7 DUP2 PUSH2 0x13BE JUMP JUMPDEST SWAP1 POP SWAP2 SWAP1 POP JUMP JUMPDEST PUSH1 0x0 PUSH1 0x20 DUP3 ADD SWAP1 POP PUSH2 0x15E3 PUSH1 0x0 DUP4 ADD DUP5 PUSH2 0x13E1 JUMP JUMPDEST SWAP3 SWAP2 POP POP JUMP JUMPDEST PUSH1 0x0 PUSH1 0x20 DUP3 ADD SWAP1 POP PUSH2 0x15FE PUSH1 0x0 DUP4 ADD DUP5 PUSH2 0x13F0 JUMP JUMPDEST SWAP3 SWAP2 POP POP JUMP JUMPDEST PUSH1 0x0 DUP2 SWAP1 POP SWAP2 SWAP1 POP JUMP JUMPDEST PUSH1 0x0 DUP2 MLOAD SWAP1 POP SWAP2 SWAP1 POP JUMP JUMPDEST PUSH1 0x0 PUSH1 0x20 DUP3 ADD SWAP1 POP SWAP2 SWAP1 POP JUMP JUMPDEST PUSH1 0x0 DUP3 DUP3 MSTORE PUSH1 0x20 DUP3 ADD SWAP1 POP SWAP3 SWAP2 POP POP JUMP JUMPDEST PUSH1 0x0 DUP3 DUP3 MSTORE PUSH1 0x20 DUP3 ADD SWAP1 POP SWAP3 SWAP2 POP POP JUMP JUMPDEST PUSH1 0x0 PUSH2 0x1657 PUSH1 0x20 DUP5 ADD DUP5 PUSH2 0xFFA JUMP JUMPDEST SWAP1 POP SWAP3 SWAP2 POP POP JUMP JUMPDEST PUSH1 0x0 PUSH2 0x166A DUP3 PUSH2 0x1781 JUMP JUMPDEST SWAP2 POP PUSH2 0x1675 DUP4 PUSH2 0x1781 JUMP JUMPDEST SWAP3 POP DUP3 PUSH32 0xFFFFFFFFFFFFFFFFFFFFFFFFFFFFFFFFFFFFFFFFFFFFFFFFFFFFFFFFFFFFFFFF SUB DUP3 GT ISZERO PUSH2 0x16AA JUMPI PUSH2 0x16A9 PUSH2 0x1846 JUMP JUMPDEST JUMPDEST DUP3 DUP3 ADD SWAP1 POP SWAP3 SWAP2 POP POP JUMP JUMPDEST PUSH1 0x0 PUSH2 0x16C0 DUP3 PUSH2 0x1781 JUMP JUMPDEST SWAP2 POP PUSH2 0x16CB DUP4 PUSH2 0x1781 JUMP JUMPDEST SWAP3 POP DUP2 PUSH32 0xFFFFFFFFFFFFFFFFFFFFFFFFFFFFFFFFFFFFFFFFFFFFFFFFFFFFFFFFFFFFFFFF DIV DUP4 GT DUP3 ISZERO ISZERO AND ISZERO PUSH2 0x1704 JUMPI PUSH2 0x1703 PUSH2 0x1846 JUMP JUMPDEST JUMPDEST DUP3 DUP3 MUL SWAP1 POP SWAP3 SWAP2 POP POP JUMP JUMPDEST PUSH1 0x0 PUSH2 0x171A DUP3 PUSH2 0x1781 JUMP JUMPDEST SWAP2 POP PUSH2 0x1725 DUP4 PUSH2 0x1781 JUMP JUMPDEST SWAP3 POP DUP3 DUP3 LT ISZERO PUSH2 0x1738 JUMPI PUSH2 0x1737 PUSH2 0x1846 JUMP JUMPDEST JUMPDEST DUP3 DUP3 SUB SWAP1 POP SWAP3 SWAP2 POP POP JUMP JUMPDEST PUSH1 0x0 PUSH2 0x174E DUP3 PUSH2 0x1761 JUMP JUMPDEST SWAP1 POP SWAP2 SWAP1 POP JUMP JUMPDEST PUSH1 0x0 DUP2 ISZERO ISZERO SWAP1 POP SWAP2 SWAP1 POP JUMP JUMPDEST PUSH1 0x0 PUSH20 0xFFFFFFFFFFFFFFFFFFFFFFFFFFFFFFFFFFFFFFFF DUP3 AND SWAP1 POP SWAP2 SWAP1 POP JUMP JUMPDEST PUSH1 0x0 DUP2 SWAP1 POP SWAP2 SWAP1 POP JUMP JUMPDEST PUSH1 0x0 PUSH1 0xFF DUP3 AND SWAP1 POP SWAP2 SWAP1 POP JUMP JUMPDEST PUSH1 0x0 JUMPDEST DUP4 DUP2 LT ISZERO PUSH2 0x17B6 JUMPI DUP1 DUP3 ADD MLOAD DUP2 DUP5 ADD MSTORE PUSH1 0x20 DUP2 ADD SWAP1 POP PUSH2 0x179B JUMP JUMPDEST DUP4 DUP2 GT ISZERO PUSH2 0x17C5 JUMPI PUSH1 0x0 DUP5 DUP5 ADD MSTORE JUMPDEST POP POP POP POP JUMP JUMPDEST PUSH1 0x0 PUSH1 0x2 DUP3 DIV SWAP1 POP PUSH1 0x1 DUP3 AND DUP1 PUSH2 0x17E3 JUMPI PUSH1 0x7F DUP3 AND SWAP2 POP JUMPDEST PUSH1 0x20 DUP3 LT DUP2 EQ ISZERO PUSH2 0x17F7 JUMPI PUSH2 0x17F6 PUSH2 0x1875 JUMP JUMPDEST JUMPDEST POP SWAP2 SWAP1 POP JUMP JUMPDEST PUSH1 0x0 PUSH2 0x1808 DUP3 PUSH2 0x1781 JUMP JUMPDEST SWAP2 POP PUSH32 0xFFFFFFFFFFFFFFFFFFFFFFFFFFFFFFFFFFFFFFFFFFFFFFFFFFFFFFFFFFFFFFFF DUP3 EQ ISZERO PUSH2 0x183B JUMPI PUSH2 0x183A PUSH2 0x1846 JUMP JUMPDEST JUMPDEST PUSH1 0x1 DUP3 ADD SWAP1 POP SWAP2 SWAP1 POP JUMP JUMPDEST PUSH32 0x4E487B7100000000000000000000000000000000000000000000000000000000 PUSH1 0x0 MSTORE PUSH1 0x11 PUSH1 0x4 MSTORE PUSH1 0x24 PUSH1 0x0 REVERT JUMPDEST PUSH32 0x4E487B7100000000000000000000000000000000000000000000000000000000 PUSH1 0x0 MSTORE PUSH1 0x22 PUSH1 0x4 MSTORE PUSH1 0x24 PUSH1 0x0 REVERT JUMPDEST PUSH32 0x4E487B7100000000000000000000000000000000000000000000000000000000 PUSH1 0x0 MSTORE PUSH1 0x32 PUSH1 0x4 MSTORE PUSH1 0x24 PUSH1 0x0 REVERT JUMPDEST PUSH1 0x0 DUP1 REVERT JUMPDEST PUSH1 0x0 DUP1 REVERT JUMPDEST PUSH1 0x0 DUP1 REVERT JUMPDEST PUSH1 0x0 DUP1 REVERT JUMPDEST PUSH1 0x0 DUP1 REVERT JUMPDEST PUSH1 0x0 PUSH1 0x1F NOT PUSH1 0x1F DUP4 ADD AND SWAP1 POP SWAP2 SWAP1 POP JUMP JUMPDEST PUSH32 0x45524332303A207472616E7366657220746F20746865207A65726F2061646472 PUSH1 0x0 DUP3 ADD MSTORE PUSH32 0x6573730000000000000000000000000000000000000000000000000000000000 PUSH1 0x20 DUP3 ADD MSTORE POP JUMP JUMPDEST PUSH32 0x45524332303A20617070726F766520746F20746865207A65726F206164647265 PUSH1 0x0 DUP3 ADD MSTORE PUSH32 0x7373000000000000000000000000000000000000000000000000000000000000 PUSH1 0x20 DUP3 ADD MSTORE POP JUMP JUMPDEST PUSH32 0x45524332303A20696E73756666696369656E7420616C6C6F77616E6365000000 PUSH1 0x0 DUP3 ADD MSTORE POP JUMP JUMPDEST PUSH32 0x45524332303A207472616E7366657220616D6F756E7420657863656564732062 PUSH1 0x0 DUP3 ADD MSTORE PUSH32 0x616C616E63650000000000000000000000000000000000000000000000000000 PUSH1 0x20 DUP3 ADD MSTORE POP JUMP JUMPDEST PUSH32 0x496E73756666696369656E742062616C616E63652E0000000000000000000000 PUSH1 0x0 DUP3 ADD MSTORE POP JUMP JUMPDEST PUSH32 0x45524332303A207472616E736665722066726F6D20746865207A65726F206164 PUSH1 0x0 DUP3 ADD MSTORE PUSH32 0x6472657373000000000000000000000000000000000000000000000000000000 PUSH1 0x20 DUP3 ADD MSTORE POP JUMP JUMPDEST PUSH32 0x45524332303A20617070726F76652066726F6D20746865207A65726F20616464 PUSH1 0x0 DUP3 ADD MSTORE PUSH32 0x7265737300000000000000000000000000000000000000000000000000000000 PUSH1 0x20 DUP3 ADD MSTORE POP JUMP JUMPDEST PUSH32 0x45524332303A2064656372656173656420616C6C6F77616E63652062656C6F77 PUSH1 0x0 DUP3 ADD MSTORE PUSH32 0x207A65726F000000000000000000000000000000000000000000000000000000 PUSH1 0x20 DUP3 ADD MSTORE POP JUMP JUMPDEST PUSH2 0x1B32 DUP2 PUSH2 0x1743 JUMP JUMPDEST DUP2 EQ PUSH2 0x1B3D JUMPI PUSH1 0x0 DUP1 REVERT JUMPDEST POP JUMP JUMPDEST PUSH2 0x1B49 DUP2 PUSH2 0x1781 JUMP JUMPDEST DUP2 EQ PUSH2 0x1B54 JUMPI PUSH1 0x0 DUP1 REVERT JUMPDEST POP JUMP INVALID LOG2 PUSH5 0x6970667358 0x22 SLT KECCAK256 0x22 0x5F 0xC7 PUSH25 0x8761D70C99712D7AC5ED58C3965A55BBF124422E351DE9C8F2 TIMESTAMP AND SELFBALANCE PUSH5 0x736F6C6343 STOP ADDMOD SMOD STOP CALLER "
				},
				"gasEstimates": {
					"creation": {
						"codeDepositCost": "1410600",
						"executionCost": "infinite",
						"totalCost": "infinite"
					},
					"external": {
						"allowance(address,address)": "infinite",
						"approve(address,uint256)": "infinite",
						"balanceOf(address)": "2930",
						"balances(address)": "2881",
						"decimals()": "432",
						"decreaseAllowance(address,uint256)": "infinite",
						"increaseAllowance(address,uint256)": "infinite",
						"mint(address,uint256)": "infinite",
						"minter()": "2560",
						"multiSend(address,address[],uint256)": "infinite",
						"name()": "infinite",
						"send(address,address,uint256)": "infinite",
						"symbol()": "infinite",
						"totalSupply()": "2460",
						"transfer(address,uint256)": "infinite",
						"transferFrom(address,address,uint256)": "infinite"
					}
				},
				"methodIdentifiers": {
					"allowance(address,address)": "dd62ed3e",
					"approve(address,uint256)": "095ea7b3",
					"balanceOf(address)": "70a08231",
					"balances(address)": "27e235e3",
					"decimals()": "313ce567",
					"decreaseAllowance(address,uint256)": "a457c2d7",
					"increaseAllowance(address,uint256)": "39509351",
					"mint(address,uint256)": "40c10f19",
					"minter()": "07546172",
					"multiSend(address,address[],uint256)": "5b2a0e96",
					"name()": "06fdde03",
					"send(address,address,uint256)": "0779afe6",
					"symbol()": "95d89b41",
					"totalSupply()": "18160ddd",
					"transfer(address,uint256)": "a9059cbb",
					"transferFrom(address,address,uint256)": "23b872dd"
				}
			},
			"storageLayout": {
				"storage": [
					{
						"astId": 15,
						"contract": "src/token.sol:Mfu",
						"label": "_balances",
						"offset": 0,
						"slot": "0",
						"type": "t_mapping(t_address,t_uint256)"
					},
					{
						"astId": 21,
						"contract": "src/token.sol:Mfu",
						"label": "_allowances",
						"offset": 0,
						"slot": "1",
						"type": "t_mapping(t_address,t_mapping(t_address,t_uint256))"
					},
					{
						"astId": 23,
						"contract": "src/token.sol:Mfu",
						"label": "_totalSupply",
						"offset": 0,
						"slot": "2",
						"type": "t_uint256"
					},
					{
						"astId": 25,
						"contract": "src/token.sol:Mfu",
						"label": "_name",
						"offset": 0,
						"slot": "3",
						"type": "t_string_storage"
					},
					{
						"astId": 27,
						"contract": "src/token.sol:Mfu",
						"label": "_symbol",
						"offset": 0,
						"slot": "4",
						"type": "t_string_storage"
					},
					{
						"astId": 717,
						"contract": "src/token.sol:Mfu",
						"label": "minter",
						"offset": 0,
						"slot": "5",
						"type": "t_address"
					},
					{
						"astId": 721,
						"contract": "src/token.sol:Mfu",
						"label": "balances",
						"offset": 0,
						"slot": "6",
						"type": "t_mapping(t_address,t_uint256)"
					}
				],
				"types": {
					"t_address": {
						"encoding": "inplace",
						"label": "address",
						"numberOfBytes": "20"
					},
					"t_mapping(t_address,t_mapping(t_address,t_uint256))": {
						"encoding": "mapping",
						"key": "t_address",
						"label": "mapping(address => mapping(address => uint256))",
						"numberOfBytes": "32",
						"value": "t_mapping(t_address,t_uint256)"
					},
					"t_mapping(t_address,t_uint256)": {
						"encoding": "mapping",
						"key": "t_address",
						"label": "mapping(address => uint256)",
						"numberOfBytes": "32",
						"value": "t_uint256"
					},
					"t_string_storage": {
						"encoding": "bytes",
						"label": "string",
						"numberOfBytes": "32"
					},
					"t_uint256": {
						"encoding": "inplace",
						"label": "uint256",
						"numberOfBytes": "32"
					}
				}
			},
			"userdoc": {
				"kind": "user",
				"methods": {},
				"version": 1
			}
		}
	}
}